{
	"src/QuadraticVoting.sol": {
		"QuadraticVoting": {
			"abi": [
				{
					"inputs": [
						{
							"internalType": "uint256",
							"name": "_tokenPriceWei",
							"type": "uint256"
						},
						{
							"internalType": "uint256",
							"name": "",
							"type": "uint256"
						}
					],
					"stateMutability": "nonpayable",
					"type": "constructor"
				},
				{
					"anonymous": false,
					"inputs": [
						{
							"indexed": true,
							"internalType": "address",
							"name": "participant",
							"type": "address"
						},
						{
							"indexed": false,
							"internalType": "uint256",
							"name": "tokensBought",
							"type": "uint256"
						}
					],
					"name": "ParticipantAdded",
					"type": "event"
				},
				{
					"anonymous": false,
					"inputs": [
						{
							"indexed": true,
							"internalType": "uint256",
							"name": "id",
							"type": "uint256"
						},
						{
							"indexed": false,
							"internalType": "uint256",
							"name": "fundsSent",
							"type": "uint256"
						}
					],
					"name": "ProposalApproved",
					"type": "event"
				},
				{
					"anonymous": false,
					"inputs": [
						{
							"indexed": true,
							"internalType": "uint256",
							"name": "id",
							"type": "uint256"
						},
						{
							"indexed": false,
							"internalType": "string",
							"name": "title",
							"type": "string"
						},
						{
							"indexed": false,
							"internalType": "uint256",
							"name": "budget",
							"type": "uint256"
						}
					],
					"name": "ProposalCreated",
					"type": "event"
				},
				{
					"anonymous": false,
					"inputs": [
						{
							"indexed": true,
							"internalType": "uint256",
							"name": "proposalId",
							"type": "uint256"
						},
						{
							"indexed": true,
							"internalType": "address",
							"name": "voter",
							"type": "address"
						},
						{
							"indexed": false,
							"internalType": "uint256",
							"name": "votes",
							"type": "uint256"
						},
						{
							"indexed": false,
							"internalType": "uint256",
							"name": "cost",
							"type": "uint256"
						}
					],
					"name": "VoteCast",
					"type": "event"
				},
				{
					"anonymous": false,
					"inputs": [
						{
							"indexed": false,
							"internalType": "uint256",
							"name": "initialBudget",
							"type": "uint256"
						}
					],
					"name": "VotingOpened",
					"type": "event"
				},
				{
					"inputs": [],
					"name": "addParticipant",
					"outputs": [],
					"stateMutability": "payable",
					"type": "function"
				},
				{
					"inputs": [
						{
							"internalType": "string",
							"name": "_title",
							"type": "string"
						},
						{
							"internalType": "string",
							"name": "_desc",
							"type": "string"
						},
						{
							"internalType": "uint256",
							"name": "_budget",
							"type": "uint256"
						},
						{
							"internalType": "address",
							"name": "_exec",
							"type": "address"
						}
					],
					"name": "addProposal",
					"outputs": [
						{
							"internalType": "uint256",
							"name": "",
							"type": "uint256"
						}
					],
					"stateMutability": "nonpayable",
					"type": "function"
				},
				{
					"inputs": [],
					"name": "buyTokens",
					"outputs": [],
					"stateMutability": "payable",
					"type": "function"
				},
				{
					"inputs": [
						{
							"internalType": "uint256",
							"name": "_id",
							"type": "uint256"
						}
					],
					"name": "cancelProposal",
					"outputs": [],
					"stateMutability": "nonpayable",
					"type": "function"
				},
				{
					"inputs": [],
					"name": "closeVoting",
					"outputs": [],
					"stateMutability": "nonpayable",
					"type": "function"
				},
				{
					"inputs": [],
					"name": "getApprovedProposals",
					"outputs": [
						{
							"internalType": "uint256[]",
							"name": "",
							"type": "uint256[]"
						}
					],
					"stateMutability": "view",
					"type": "function"
				},
				{
					"inputs": [],
					"name": "getERC20",
					"outputs": [
						{
							"internalType": "address",
							"name": "",
							"type": "address"
						}
					],
					"stateMutability": "view",
					"type": "function"
				},
				{
					"inputs": [],
					"name": "getPendingProposals",
					"outputs": [
						{
							"internalType": "uint256[]",
							"name": "",
							"type": "uint256[]"
						}
					],
					"stateMutability": "view",
					"type": "function"
				},
				{
					"inputs": [
						{
							"internalType": "uint256",
							"name": "_id",
							"type": "uint256"
						}
					],
					"name": "getProposalInfo",
					"outputs": [
						{
							"internalType": "string",
							"name": "title",
							"type": "string"
						},
						{
							"internalType": "string",
							"name": "description",
							"type": "string"
						},
						{
							"internalType": "uint256",
							"name": "budget",
							"type": "uint256"
						},
						{
							"internalType": "address",
							"name": "executable",
							"type": "address"
						},
						{
							"internalType": "enum QuadraticVoting.ProposalStatus",
							"name": "status",
							"type": "uint8"
						},
						{
							"internalType": "uint256",
							"name": "votes",
							"type": "uint256"
						}
					],
					"stateMutability": "view",
					"type": "function"
				},
				{
					"inputs": [],
					"name": "getSignalingProposals",
					"outputs": [
						{
							"internalType": "uint256[]",
							"name": "",
							"type": "uint256[]"
						}
					],
					"stateMutability": "view",
					"type": "function"
				},
				{
					"inputs": [
						{
							"internalType": "address",
							"name": "",
							"type": "address"
						}
					],
					"name": "isParticipant",
					"outputs": [
						{
							"internalType": "bool",
							"name": "",
							"type": "bool"
						}
					],
					"stateMutability": "view",
					"type": "function"
				},
				{
					"inputs": [],
					"name": "numParticipants",
					"outputs": [
						{
							"internalType": "uint256",
							"name": "",
							"type": "uint256"
						}
					],
					"stateMutability": "view",
					"type": "function"
				},
				{
					"inputs": [],
					"name": "numPendingProposals",
					"outputs": [
						{
							"internalType": "uint256",
							"name": "",
							"type": "uint256"
						}
					],
					"stateMutability": "view",
					"type": "function"
				},
				{
					"inputs": [],
					"name": "openVoting",
					"outputs": [],
					"stateMutability": "payable",
					"type": "function"
				},
				{
					"inputs": [],
					"name": "owner",
					"outputs": [
						{
							"internalType": "address",
							"name": "",
							"type": "address"
						}
					],
					"stateMutability": "view",
					"type": "function"
				},
				{
					"inputs": [
						{
							"internalType": "uint256",
							"name": "",
							"type": "uint256"
						}
					],
					"name": "proposals",
					"outputs": [
						{
							"internalType": "string",
							"name": "title",
							"type": "string"
						},
						{
							"internalType": "string",
							"name": "description",
							"type": "string"
						},
						{
							"internalType": "uint256",
							"name": "requiredBudget",
							"type": "uint256"
						},
						{
							"internalType": "address",
							"name": "executableContract",
							"type": "address"
						},
						{
							"internalType": "enum QuadraticVoting.ProposalStatus",
							"name": "status",
							"type": "uint8"
						},
						{
							"internalType": "uint256",
							"name": "totalVotes",
							"type": "uint256"
						},
						{
							"internalType": "uint256",
							"name": "totalTokensStaked",
							"type": "uint256"
						},
						{
							"internalType": "address",
							"name": "creator",
							"type": "address"
						},
						{
							"internalType": "bool",
							"name": "isSignaling",
							"type": "bool"
						}
					],
					"stateMutability": "view",
					"type": "function"
				},
				{
					"inputs": [],
					"name": "removeParticipant",
					"outputs": [],
					"stateMutability": "nonpayable",
					"type": "function"
				},
				{
					"inputs": [
						{
							"internalType": "uint256",
							"name": "_amount",
							"type": "uint256"
						}
					],
					"name": "sellTokens",
					"outputs": [],
					"stateMutability": "nonpayable",
					"type": "function"
				},
				{
					"inputs": [
						{
							"internalType": "uint256",
							"name": "_propId",
							"type": "uint256"
						},
						{
							"internalType": "uint256",
							"name": "_numVotes",
							"type": "uint256"
						}
					],
					"name": "stake",
					"outputs": [],
					"stateMutability": "nonpayable",
					"type": "function"
				},
				{
					"inputs": [],
					"name": "token",
					"outputs": [
						{
							"internalType": "contract GovernanceToken",
							"name": "",
							"type": "address"
						}
					],
					"stateMutability": "view",
					"type": "function"
				},
				{
					"inputs": [],
					"name": "tokenPriceWei",
					"outputs": [
						{
							"internalType": "uint256",
							"name": "",
							"type": "uint256"
						}
					],
					"stateMutability": "view",
					"type": "function"
				},
				{
					"inputs": [],
					"name": "totalBudget",
					"outputs": [
						{
							"internalType": "uint256",
							"name": "",
							"type": "uint256"
						}
					],
					"stateMutability": "view",
					"type": "function"
				},
				{
					"inputs": [
						{
							"internalType": "uint256",
							"name": "",
							"type": "uint256"
						},
						{
							"internalType": "address",
							"name": "",
							"type": "address"
						}
					],
					"name": "userVotesInProposal",
					"outputs": [
						{
							"internalType": "uint256",
							"name": "",
							"type": "uint256"
						}
					],
					"stateMutability": "view",
					"type": "function"
				},
				{
					"inputs": [],
					"name": "votingOpen",
					"outputs": [
						{
							"internalType": "bool",
							"name": "",
							"type": "bool"
						}
					],
					"stateMutability": "view",
					"type": "function"
				}
			],
			"devdoc": {
				"kind": "dev",
				"methods": {},
				"version": 1
			},
			"evm": {
				"assembly": "    /* \"src/QuadraticVoting.sol\":205:10599  contract QuadraticVoting {... */\n  mstore(0x40, 0x80)\n    /* \"src/QuadraticVoting.sol\":1621:1819  constructor(uint256 _tokenPriceWei, uint256 /* _maxTokens */) {... */\n  callvalue\n  dup1\n  iszero\n  tag_1\n  jumpi\n  revert(0x00, 0x00)\ntag_1:\n  pop\n  mload(0x40)\n  sub(codesize, bytecodeSize)\n  dup1\n  bytecodeSize\n  dup4\n  codecopy\n  dup2\n  add\n  0x40\n  dup2\n  swap1\n  mstore\n  tag_2\n  swap2\n  tag_3\n  jump\t// in\ntag_2:\n    /* \"src/QuadraticVoting.sol\":1694:1699  owner */\n  0x00\n    /* \"src/QuadraticVoting.sol\":1694:1712  owner = msg.sender */\n  dup1\n  sload\n  not(sub(shl(0xa0, 0x01), 0x01))\n  and\n    /* \"src/QuadraticVoting.sol\":1702:1712  msg.sender */\n  caller\n    /* \"src/QuadraticVoting.sol\":1694:1712  owner = msg.sender */\n  or\n  swap1\n  sstore\n    /* \"src/QuadraticVoting.sol\":1723:1736  tokenPriceWei */\n  0x02\n    /* \"src/QuadraticVoting.sol\":1723:1753  tokenPriceWei = _tokenPriceWei */\n  dup3\n  swap1\n  sstore\n    /* \"src/QuadraticVoting.sol\":1772:1811  new GovernanceToken(\"DAO Token\", \"DVT\") */\n  mload(0x40)\n  tag_6\n  swap1\n  tag_7\n  jump\t// in\ntag_6:\n    /* \"#utility.yul\":665:667   */\n  0x40\n    /* \"#utility.yul\":647:668   */\n  dup1\n  dup3\n  mstore\n    /* \"#utility.yul\":704:705   */\n  0x09\n    /* \"#utility.yul\":684:702   */\n  swap1\n  dup3\n  add\n    /* \"#utility.yul\":677:706   */\n  mstore\n  shl(0xb9, 0x2220a7902a37b5b2b7)\n    /* \"#utility.yul\":737:739   */\n  0x60\n    /* \"#utility.yul\":722:740   */\n  dup3\n  add\n    /* \"#utility.yul\":715:754   */\n  mstore\n    /* \"#utility.yul\":792:795   */\n  0x80\n    /* \"#utility.yul\":785:789   */\n  0x20\n    /* \"#utility.yul\":770:790   */\n  dup3\n  add\n    /* \"#utility.yul\":763:796   */\n  dup2\n  swap1\n  mstore\n    /* \"#utility.yul\":833:834   */\n  0x03\n    /* \"#utility.yul\":812:831   */\n  swap1\n  dup3\n  add\n    /* \"#utility.yul\":805:835   */\n  mstore\n  shl(0xea, 0x111595)\n    /* \"#utility.yul\":866:869   */\n  0xa0\n    /* \"#utility.yul\":851:870   */\n  dup3\n  add\n    /* \"#utility.yul\":844:878   */\n  mstore\n    /* \"#utility.yul\":910:913   */\n  0xc0\n    /* \"#utility.yul\":895:914   */\n  add\n    /* \"src/QuadraticVoting.sol\":1772:1811  new GovernanceToken(\"DAO Token\", \"DVT\") */\n  mload(0x40)\n  dup1\n  swap2\n  sub\n  swap1\n  0x00\n  create\n  dup1\n  iszero\n  dup1\n  iszero\n  tag_10\n  jumpi\n  returndatacopy(0x00, 0x00, returndatasize)\n  revert(0x00, returndatasize)\ntag_10:\n  pop\n    /* \"src/QuadraticVoting.sol\":1764:1769  token */\n  0x01\n    /* \"src/QuadraticVoting.sol\":1764:1811  token = new GovernanceToken(\"DAO Token\", \"DVT\") */\n  dup1\n  sload\n  not(sub(shl(0xa0, 0x01), 0x01))\n  and\n  sub(shl(0xa0, 0x01), 0x01)\n  swap3\n  swap1\n  swap3\n  and\n  swap2\n  swap1\n  swap2\n  or\n  swap1\n  sstore\n  pop\n    /* \"src/QuadraticVoting.sol\":205:10599  contract QuadraticVoting {... */\n  tag_12\n  swap1\n  pop\n  jump\ntag_7:\n  dataSize(sub_1)\n  dup1\n  dataOffset(sub_1)\n  dup4\n  codecopy\n  add\n  swap1\n  jump\t// out\n    /* \"#utility.yul\":14:357   */\ntag_3:\n    /* \"#utility.yul\":93:99   */\n  0x00\n    /* \"#utility.yul\":101:107   */\n  0x00\n    /* \"#utility.yul\":154:156   */\n  0x40\n    /* \"#utility.yul\":142:151   */\n  dup4\n    /* \"#utility.yul\":133:140   */\n  dup6\n    /* \"#utility.yul\":129:152   */\n  sub\n    /* \"#utility.yul\":125:157   */\n  slt\n    /* \"#utility.yul\":122:174   */\n  iszero\n  tag_14\n  jumpi\n    /* \"#utility.yul\":170:171   */\n  0x00\n    /* \"#utility.yul\":167:168   */\n  0x00\n    /* \"#utility.yul\":160:172   */\n  revert\n    /* \"#utility.yul\":122:174   */\ntag_14:\n  pop\n  pop\n    /* \"#utility.yul\":215:231   */\n  dup1\n  mload\n    /* \"#utility.yul\":321:323   */\n  0x20\n    /* \"#utility.yul\":306:324   */\n  swap1\n  swap2\n  add\n    /* \"#utility.yul\":300:325   */\n  mload\n    /* \"#utility.yul\":215:231   */\n  swap1\n  swap3\n    /* \"#utility.yul\":300:325   */\n  swap1\n  swap2\n  pop\n    /* \"#utility.yul\":14:357   */\n  jump\t// out\n    /* \"#utility.yul\":362:920   */\ntag_12:\n    /* \"src/QuadraticVoting.sol\":205:10599  contract QuadraticVoting {... */\n  dataSize(sub_0)\n  dup1\n  dataOffset(sub_0)\n  0x00\n  codecopy\n  0x00\n  return\nstop\n\nsub_0: assembly {\n        /* \"src/QuadraticVoting.sol\":205:10599  contract QuadraticVoting {... */\n      mstore(0x40, 0x80)\n      jumpi(tag_1, lt(calldatasize, 0x04))\n      shr(0xe0, calldataload(0x00))\n      dup1\n      0x9ab3f7a6\n      gt\n      tag_26\n      jumpi\n      dup1\n      0xc78da39a\n      gt\n      tag_27\n      jumpi\n      dup1\n      0xc78da39a\n      eq\n      tag_20\n      jumpi\n      dup1\n      0xd0febe4c\n      eq\n      tag_21\n      jumpi\n      dup1\n      0xda52a95f\n      eq\n      tag_22\n      jumpi\n      dup1\n      0xe0a8f6f5\n      eq\n      tag_23\n      jumpi\n      dup1\n      0xfc0c546a\n      eq\n      tag_24\n      jumpi\n      dup1\n      0xfffefd91\n      eq\n      tag_25\n      jumpi\n      revert(0x00, 0x00)\n    tag_27:\n      dup1\n      0x9ab3f7a6\n      eq\n      tag_14\n      jumpi\n      dup1\n      0xa80db6fc\n      eq\n      tag_15\n      jumpi\n      dup1\n      0xa95824b4\n      eq\n      tag_16\n      jumpi\n      dup1\n      0xaffc0670\n      eq\n      tag_17\n      jumpi\n      dup1\n      0xbc903cb8\n      eq\n      tag_18\n      jumpi\n      dup1\n      0xc631b292\n      eq\n      tag_19\n      jumpi\n      revert(0x00, 0x00)\n    tag_26:\n      dup1\n      0x4ece90a8\n      gt\n      tag_28\n      jumpi\n      dup1\n      0x4ece90a8\n      eq\n      tag_8\n      jumpi\n      dup1\n      0x6c11bcd3\n      eq\n      tag_9\n      jumpi\n      dup1\n      0x7b0472f0\n      eq\n      tag_10\n      jumpi\n      dup1\n      0x8da5cb5b\n      eq\n      tag_11\n      jumpi\n      dup1\n      0x8e08a50b\n      eq\n      tag_12\n      jumpi\n      dup1\n      0x929066f5\n      eq\n      tag_13\n      jumpi\n      revert(0x00, 0x00)\n    tag_28:\n      dup1\n      0x013cf08b\n      eq\n      tag_2\n      jumpi\n      dup1\n      0x05d0f15b\n      eq\n      tag_3\n      jumpi\n      dup1\n      0x2e60338a\n      eq\n      tag_4\n      jumpi\n      dup1\n      0x3ac0feac\n      eq\n      tag_5\n      jumpi\n      dup1\n      0x3d571e97\n      eq\n      tag_6\n      jumpi\n      dup1\n      0x4e76a846\n      eq\n      tag_7\n      jumpi\n    tag_1:\n      revert(0x00, 0x00)\n        /* \"src/QuadraticVoting.sol\":1375:1420  mapping(uint256 => Proposal) public proposals */\n    tag_2:\n      callvalue\n      dup1\n      iszero\n      tag_29\n      jumpi\n      revert(0x00, 0x00)\n    tag_29:\n      pop\n      tag_30\n      tag_31\n      calldatasize\n      0x04\n      tag_32\n      jump\t// in\n    tag_31:\n      tag_33\n      jump\t// in\n    tag_30:\n      mload(0x40)\n      tag_34\n      swap10\n      swap9\n      swap8\n      swap7\n      swap6\n      swap5\n      swap4\n      swap3\n      swap2\n      swap1\n      tag_35\n      jump\t// in\n    tag_34:\n      mload(0x40)\n      dup1\n      swap2\n      sub\n      swap1\n      return\n        /* \"src/QuadraticVoting.sol\":763:791  uint256 public tokenPriceWei */\n    tag_3:\n      callvalue\n      dup1\n      iszero\n      tag_36\n      jumpi\n      revert(0x00, 0x00)\n    tag_36:\n      pop\n      tag_37\n      sload(0x02)\n      dup2\n      jump\n    tag_37:\n      mload(0x40)\n        /* \"#utility.yul\":2059:2084   */\n      swap1\n      dup2\n      mstore\n        /* \"#utility.yul\":2047:2049   */\n      0x20\n        /* \"#utility.yul\":2032:2050   */\n      add\n        /* \"src/QuadraticVoting.sol\":763:791  uint256 public tokenPriceWei */\n      tag_34\n        /* \"#utility.yul\":1913:2090   */\n      jump\n        /* \"src/QuadraticVoting.sol\":1427:1501  mapping(uint256 => mapping(address => uint256)) public userVotesInProposal */\n    tag_4:\n      callvalue\n      dup1\n      iszero\n      tag_41\n      jumpi\n      revert(0x00, 0x00)\n    tag_41:\n      pop\n      tag_37\n      tag_43\n      calldatasize\n      0x04\n      tag_44\n      jump\t// in\n    tag_43:\n      0x09\n      0x20\n      swap1\n      dup2\n      mstore\n      0x00\n      swap3\n      dup4\n      mstore\n      0x40\n      dup1\n      dup5\n      keccak256\n      swap1\n      swap2\n      mstore\n      swap1\n      dup3\n      mstore\n      swap1\n      keccak256\n      sload\n      dup2\n      jump\n        /* \"src/QuadraticVoting.sol\":6340:6492  function getApprovedProposals() external view returns (uint256[] memory) {... */\n    tag_5:\n      callvalue\n      dup1\n      iszero\n      tag_47\n      jumpi\n      revert(0x00, 0x00)\n    tag_47:\n      pop\n      tag_48\n      tag_49\n      jump\t// in\n    tag_48:\n      mload(0x40)\n      tag_34\n      swap2\n      swap1\n      tag_51\n      jump\t// in\n        /* \"src/QuadraticVoting.sol\":2538:2723  function removeParticipant() external {... */\n    tag_6:\n      callvalue\n      dup1\n      iszero\n      tag_52\n      jumpi\n      revert(0x00, 0x00)\n    tag_52:\n      pop\n      tag_53\n      tag_54\n      jump\t// in\n    tag_53:\n      stop\n        /* \"src/QuadraticVoting.sol\":866:896  uint256 public numParticipants */\n    tag_7:\n      callvalue\n      dup1\n      iszero\n      tag_55\n      jumpi\n      revert(0x00, 0x00)\n    tag_55:\n      pop\n      tag_37\n      sload(0x05)\n      dup2\n      jump\n        /* \"src/QuadraticVoting.sol\":10516:10594  function getERC20() external view returns (address) { return address(token); } */\n    tag_8:\n      callvalue\n      dup1\n      iszero\n      tag_59\n      jumpi\n      revert(0x00, 0x00)\n    tag_59:\n      pop\n        /* \"src/QuadraticVoting.sol\":10585:10590  token */\n      and(sub(shl(0xa0, 0x01), 0x01), sload(0x01))\n        /* \"src/QuadraticVoting.sol\":10516:10594  function getERC20() external view returns (address) { return address(token); } */\n    tag_60:\n      mload(0x40)\n      sub(shl(0xa0, 0x01), 0x01)\n        /* \"#utility.yul\":3358:3390   */\n      swap1\n      swap2\n      and\n        /* \"#utility.yul\":3340:3391   */\n      dup2\n      mstore\n        /* \"#utility.yul\":3328:3330   */\n      0x20\n        /* \"#utility.yul\":3313:3331   */\n      add\n        /* \"src/QuadraticVoting.sol\":10516:10594  function getERC20() external view returns (address) { return address(token); } */\n      tag_34\n        /* \"#utility.yul\":3194:3397   */\n      jump\n        /* \"src/QuadraticVoting.sol\":10134:10508  function sellTokens(uint256 _amount) external {... */\n    tag_9:\n      callvalue\n      dup1\n      iszero\n      tag_64\n      jumpi\n      revert(0x00, 0x00)\n    tag_64:\n      pop\n      tag_53\n      tag_66\n      calldatasize\n      0x04\n      tag_32\n      jump\t// in\n    tag_66:\n      tag_67\n      jump\t// in\n        /* \"src/QuadraticVoting.sol\":4164:5077  function stake(uint256 _propId, uint256 _numVotes) external {... */\n    tag_10:\n      callvalue\n      dup1\n      iszero\n      tag_68\n      jumpi\n      revert(0x00, 0x00)\n    tag_68:\n      pop\n      tag_53\n      tag_70\n      calldatasize\n      0x04\n      tag_71\n      jump\t// in\n    tag_70:\n      tag_72\n      jump\t// in\n        /* \"src/QuadraticVoting.sol\":701:721  address public owner */\n    tag_11:\n      callvalue\n      dup1\n      iszero\n      tag_73\n      jumpi\n      revert(0x00, 0x00)\n    tag_73:\n      pop\n      sload(0x00)\n      tag_60\n      swap1\n      sub(shl(0xa0, 0x01), 0x01)\n      and\n      dup2\n      jump\n        /* \"src/QuadraticVoting.sol\":6575:7096  function getSignalingProposals() external view returns (uint256[] memory) {... */\n    tag_12:\n      callvalue\n      dup1\n      iszero\n      tag_77\n      jumpi\n      revert(0x00, 0x00)\n    tag_77:\n      pop\n      tag_48\n      tag_79\n      jump\t// in\n        /* \"src/QuadraticVoting.sol\":1567:1612  mapping(address => bool) public isParticipant */\n    tag_13:\n      callvalue\n      dup1\n      iszero\n      tag_81\n      jumpi\n      revert(0x00, 0x00)\n    tag_81:\n      pop\n      tag_82\n      tag_83\n      calldatasize\n      0x04\n      tag_84\n      jump\t// in\n    tag_83:\n      mstore(0x20, 0x0b)\n      0x00\n      swap1\n      dup2\n      mstore\n      0x40\n      swap1\n      keccak256\n      sload\n      0xff\n      and\n      dup2\n      jump\n    tag_82:\n      mload(0x40)\n        /* \"#utility.yul\":4109:4123   */\n      swap1\n      iszero\n        /* \"#utility.yul\":4102:4124   */\n      iszero\n        /* \"#utility.yul\":4084:4125   */\n      dup2\n      mstore\n        /* \"#utility.yul\":4072:4074   */\n      0x20\n        /* \"#utility.yul\":4057:4075   */\n      add\n        /* \"src/QuadraticVoting.sol\":1567:1612  mapping(address => bool) public isParticipant */\n      tag_34\n        /* \"#utility.yul\":3944:4131   */\n      jump\n        /* \"src/QuadraticVoting.sol\":2731:3698  function addProposal(... */\n    tag_14:\n      callvalue\n      dup1\n      iszero\n      tag_88\n      jumpi\n      revert(0x00, 0x00)\n    tag_88:\n      pop\n      tag_37\n      tag_90\n      calldatasize\n      0x04\n      tag_91\n      jump\t// in\n    tag_90:\n      tag_92\n      jump\t// in\n        /* \"src/QuadraticVoting.sol\":6182:6332  function getPendingProposals() external view returns (uint256[] memory) {... */\n    tag_15:\n      callvalue\n      dup1\n      iszero\n      tag_94\n      jumpi\n      revert(0x00, 0x00)\n    tag_94:\n      pop\n      tag_48\n      tag_96\n      jump\t// in\n        /* \"src/QuadraticVoting.sol\":831:853  bool public votingOpen */\n    tag_16:\n      callvalue\n      dup1\n      iszero\n      tag_98\n      jumpi\n      revert(0x00, 0x00)\n    tag_98:\n      pop\n      sload(0x04)\n      tag_82\n      swap1\n      0xff\n      and\n      dup2\n      jump\n        /* \"src/QuadraticVoting.sol\":1879:2083  function openVoting() external payable {... */\n    tag_17:\n      tag_53\n      tag_103\n      jump\t// in\n        /* \"src/QuadraticVoting.sol\":7168:7637  function getProposalInfo(uint256 _id) external view returns (... */\n    tag_18:\n      callvalue\n      dup1\n      iszero\n      tag_104\n      jumpi\n      revert(0x00, 0x00)\n    tag_104:\n      pop\n      tag_105\n      tag_106\n      calldatasize\n      0x04\n      tag_32\n      jump\t// in\n    tag_106:\n      tag_107\n      jump\t// in\n    tag_105:\n      mload(0x40)\n      tag_34\n      swap7\n      swap6\n      swap5\n      swap4\n      swap3\n      swap2\n      swap1\n      tag_109\n      jump\t// in\n        /* \"src/QuadraticVoting.sol\":8302:9362  function closeVoting() external {... */\n    tag_19:\n      callvalue\n      dup1\n      iszero\n      tag_110\n      jumpi\n      revert(0x00, 0x00)\n    tag_110:\n      pop\n      tag_53\n      tag_112\n      jump\t// in\n        /* \"src/QuadraticVoting.sol\":798:824  uint256 public totalBudget */\n    tag_20:\n      callvalue\n      dup1\n      iszero\n      tag_113\n      jumpi\n      revert(0x00, 0x00)\n    tag_113:\n      pop\n      tag_37\n      sload(0x03)\n      dup2\n      jump\n        /* \"src/QuadraticVoting.sol\":9961:10126  function buyTokens() external payable {... */\n    tag_21:\n      tag_53\n      tag_118\n      jump\t// in\n        /* \"src/QuadraticVoting.sol\":903:937  uint256 public numPendingProposals */\n    tag_22:\n      callvalue\n      dup1\n      iszero\n      tag_119\n      jumpi\n      revert(0x00, 0x00)\n    tag_119:\n      pop\n      tag_37\n      sload(0x06)\n      dup2\n      jump\n        /* \"src/QuadraticVoting.sol\":3748:4156  function cancelProposal(uint256 _id) external {... */\n    tag_23:\n      callvalue\n      dup1\n      iszero\n      tag_123\n      jumpi\n      revert(0x00, 0x00)\n    tag_123:\n      pop\n      tag_53\n      tag_125\n      calldatasize\n      0x04\n      tag_32\n      jump\t// in\n    tag_125:\n      tag_126\n      jump\t// in\n        /* \"src/QuadraticVoting.sol\":728:756  GovernanceToken public token */\n    tag_24:\n      callvalue\n      dup1\n      iszero\n      tag_127\n      jumpi\n      revert(0x00, 0x00)\n    tag_127:\n      pop\n      sload(0x01)\n      tag_60\n      swap1\n      sub(shl(0xa0, 0x01), 0x01)\n      and\n      dup2\n      jump\n        /* \"src/QuadraticVoting.sol\":2091:2485  function addParticipant() external payable {... */\n    tag_25:\n      tag_53\n      tag_133\n      jump\t// in\n        /* \"src/QuadraticVoting.sol\":1375:1420  mapping(uint256 => Proposal) public proposals */\n    tag_33:\n      mstore(0x20, 0x08)\n      0x00\n      swap1\n      dup2\n      mstore\n      0x40\n      swap1\n      keccak256\n      dup1\n      sload\n      dup2\n      swap1\n      tag_134\n      swap1\n      tag_135\n      jump\t// in\n    tag_134:\n      dup1\n      0x1f\n      add\n      0x20\n      dup1\n      swap2\n      div\n      mul\n      0x20\n      add\n      mload(0x40)\n      swap1\n      dup2\n      add\n      0x40\n      mstore\n      dup1\n      swap3\n      swap2\n      swap1\n      dup2\n      dup2\n      mstore\n      0x20\n      add\n      dup3\n      dup1\n      sload\n      tag_136\n      swap1\n      tag_135\n      jump\t// in\n    tag_136:\n      dup1\n      iszero\n      tag_137\n      jumpi\n      dup1\n      0x1f\n      lt\n      tag_138\n      jumpi\n      0x0100\n      dup1\n      dup4\n      sload\n      div\n      mul\n      dup4\n      mstore\n      swap2\n      0x20\n      add\n      swap2\n      jump(tag_137)\n    tag_138:\n      dup3\n      add\n      swap2\n      swap1\n      0x00\n      mstore\n      keccak256(0x00, 0x20)\n      swap1\n    tag_139:\n      dup2\n      sload\n      dup2\n      mstore\n      swap1\n      0x01\n      add\n      swap1\n      0x20\n      add\n      dup1\n      dup4\n      gt\n      tag_139\n      jumpi\n      dup3\n      swap1\n      sub\n      0x1f\n      and\n      dup3\n      add\n      swap2\n    tag_137:\n      pop\n      pop\n      pop\n      pop\n      pop\n      swap1\n      dup1\n      0x01\n      add\n      dup1\n      sload\n      tag_140\n      swap1\n      tag_135\n      jump\t// in\n    tag_140:\n      dup1\n      0x1f\n      add\n      0x20\n      dup1\n      swap2\n      div\n      mul\n      0x20\n      add\n      mload(0x40)\n      swap1\n      dup2\n      add\n      0x40\n      mstore\n      dup1\n      swap3\n      swap2\n      swap1\n      dup2\n      dup2\n      mstore\n      0x20\n      add\n      dup3\n      dup1\n      sload\n      tag_141\n      swap1\n      tag_135\n      jump\t// in\n    tag_141:\n      dup1\n      iszero\n      tag_142\n      jumpi\n      dup1\n      0x1f\n      lt\n      tag_143\n      jumpi\n      0x0100\n      dup1\n      dup4\n      sload\n      div\n      mul\n      dup4\n      mstore\n      swap2\n      0x20\n      add\n      swap2\n      jump(tag_142)\n    tag_143:\n      dup3\n      add\n      swap2\n      swap1\n      0x00\n      mstore\n      keccak256(0x00, 0x20)\n      swap1\n    tag_144:\n      dup2\n      sload\n      dup2\n      mstore\n      swap1\n      0x01\n      add\n      swap1\n      0x20\n      add\n      dup1\n      dup4\n      gt\n      tag_144\n      jumpi\n      dup3\n      swap1\n      sub\n      0x1f\n      and\n      dup3\n      add\n      swap2\n    tag_142:\n      pop\n      pop\n      pop\n      0x02\n      dup5\n      add\n      sload\n      0x03\n      dup6\n      add\n      sload\n      0x04\n      dup7\n      add\n      sload\n      0x05\n      dup8\n      add\n      sload\n      0x06\n      swap1\n      swap8\n      add\n      sload\n      swap6\n      swap7\n      swap3\n      swap6\n      sub(shl(0xa0, 0x01), 0x01)\n      dup1\n      dup5\n      and\n      swap7\n      pop\n      0xff\n      shl(0xa0, 0x01)\n      swap5\n      dup6\n      swap1\n      div\n      dup2\n      and\n      swap7\n      pop\n      swap3\n      swap5\n      swap4\n      swap1\n      dup3\n      and\n      swap3\n      swap2\n      div\n      and\n      dup10\n      jump\t// out\n        /* \"src/QuadraticVoting.sol\":6340:6492  function getApprovedProposals() external view returns (uint256[] memory) {... */\n    tag_49:\n        /* \"src/QuadraticVoting.sol\":6395:6411  uint256[] memory */\n      0x60\n        /* \"src/QuadraticVoting.sol\":6431:6484  _getProposalsByStatus(ProposalStatus.Approved, false) */\n      tag_146\n        /* \"src/QuadraticVoting.sol\":6453:6476  ProposalStatus.Approved */\n      0x01\n        /* \"src/QuadraticVoting.sol\":6478:6483  false */\n      0x00\n        /* \"src/QuadraticVoting.sol\":6431:6452  _getProposalsByStatus */\n      tag_147\n        /* \"src/QuadraticVoting.sol\":6431:6484  _getProposalsByStatus(ProposalStatus.Approved, false) */\n      jump\t// in\n    tag_146:\n        /* \"src/QuadraticVoting.sol\":6424:6484  return _getProposalsByStatus(ProposalStatus.Approved, false) */\n      swap1\n      pop\n        /* \"src/QuadraticVoting.sol\":6340:6492  function getApprovedProposals() external view returns (uint256[] memory) {... */\n      swap1\n      jump\t// out\n        /* \"src/QuadraticVoting.sol\":2538:2723  function removeParticipant() external {... */\n    tag_54:\n        /* \"src/QuadraticVoting.sol\":2609:2619  msg.sender */\n      caller\n        /* \"src/QuadraticVoting.sol\":2595:2620  isParticipant[msg.sender] */\n      0x00\n      swap1\n      dup2\n      mstore\n        /* \"src/QuadraticVoting.sol\":2595:2608  isParticipant */\n      0x0b\n        /* \"src/QuadraticVoting.sol\":2595:2620  isParticipant[msg.sender] */\n      0x20\n      mstore\n      0x40\n      swap1\n      keccak256\n      sload\n      0xff\n      and\n        /* \"src/QuadraticVoting.sol\":2587:2643  require(isParticipant[msg.sender], \"No es participante\") */\n      tag_149\n      jumpi\n      mload(0x40)\n      shl(0xe5, 0x461bcd)\n      dup2\n      mstore\n        /* \"#utility.yul\":7293:7295   */\n      0x20\n        /* \"src/QuadraticVoting.sol\":2587:2643  require(isParticipant[msg.sender], \"No es participante\") */\n      0x04\n      dup3\n      add\n        /* \"#utility.yul\":7275:7296   */\n      mstore\n        /* \"#utility.yul\":7332:7334   */\n      0x12\n        /* \"#utility.yul\":7312:7330   */\n      0x24\n      dup3\n      add\n        /* \"#utility.yul\":7305:7335   */\n      mstore\n      shl(0x70, 0x4e6f206573207061727469636970616e7465)\n        /* \"#utility.yul\":7351:7369   */\n      0x44\n      dup3\n      add\n        /* \"#utility.yul\":7344:7392   */\n      mstore\n        /* \"#utility.yul\":7409:7427   */\n      0x64\n      add\n        /* \"src/QuadraticVoting.sol\":2587:2643  require(isParticipant[msg.sender], \"No es participante\") */\n    tag_150:\n      mload(0x40)\n      dup1\n      swap2\n      sub\n      swap1\n      revert\n    tag_149:\n        /* \"src/QuadraticVoting.sol\":2668:2678  msg.sender */\n      caller\n        /* \"src/QuadraticVoting.sol\":2682:2687  false */\n      0x00\n        /* \"src/QuadraticVoting.sol\":2654:2679  isParticipant[msg.sender] */\n      swap1\n      dup2\n      mstore\n        /* \"src/QuadraticVoting.sol\":2654:2667  isParticipant */\n      0x0b\n        /* \"src/QuadraticVoting.sol\":2654:2679  isParticipant[msg.sender] */\n      0x20\n      mstore\n      0x40\n      dup2\n      keccak256\n        /* \"src/QuadraticVoting.sol\":2654:2687  isParticipant[msg.sender] = false */\n      dup1\n      sload\n      not(0xff)\n      and\n      swap1\n      sstore\n        /* \"src/QuadraticVoting.sol\":2698:2713  numParticipants */\n      0x05\n        /* \"src/QuadraticVoting.sol\":2698:2715  numParticipants-- */\n      dup1\n      sload\n      swap2\n      tag_152\n      dup4\n      tag_153\n      jump\t// in\n    tag_152:\n      swap2\n      swap1\n      pop\n      sstore\n      pop\n        /* \"src/QuadraticVoting.sol\":2538:2723  function removeParticipant() external {... */\n      jump\t// out\n        /* \"src/QuadraticVoting.sol\":10134:10508  function sellTokens(uint256 _amount) external {... */\n    tag_67:\n        /* \"src/QuadraticVoting.sol\":10199:10204  token */\n      sload(0x01)\n        /* \"src/QuadraticVoting.sol\":10199:10226  token.balanceOf(msg.sender) */\n      mload(0x40)\n      shl(0xe0, 0x70a08231)\n      dup2\n      mstore\n        /* \"src/QuadraticVoting.sol\":10215:10225  msg.sender */\n      caller\n        /* \"src/QuadraticVoting.sol\":10199:10226  token.balanceOf(msg.sender) */\n      0x04\n      dup3\n      add\n        /* \"#utility.yul\":3340:3391   */\n      mstore\n        /* \"src/QuadraticVoting.sol\":10230:10237  _amount */\n      dup3\n      swap2\n      sub(shl(0xa0, 0x01), 0x01)\n        /* \"src/QuadraticVoting.sol\":10199:10204  token */\n      and\n      swap1\n        /* \"src/QuadraticVoting.sol\":10199:10214  token.balanceOf */\n      0x70a08231\n      swap1\n        /* \"#utility.yul\":3313:3331   */\n      0x24\n      add\n        /* \"src/QuadraticVoting.sol\":10199:10226  token.balanceOf(msg.sender) */\n      0x20\n      mload(0x40)\n      dup1\n      dup4\n      sub\n      dup2\n      dup7\n      gas\n      staticcall\n      iszero\n      dup1\n      iszero\n      tag_158\n      jumpi\n      returndatacopy(0x00, 0x00, returndatasize)\n      revert(0x00, returndatasize)\n    tag_158:\n      pop\n      pop\n      pop\n      pop\n      mload(0x40)\n      returndatasize\n      not(0x1f)\n      0x1f\n      dup3\n      add\n      and\n      dup3\n      add\n      dup1\n      0x40\n      mstore\n      pop\n      dup2\n      add\n      swap1\n      tag_159\n      swap2\n      swap1\n      tag_160\n      jump\t// in\n    tag_159:\n        /* \"src/QuadraticVoting.sol\":10199:10237  token.balanceOf(msg.sender) >= _amount */\n      lt\n      iszero\n        /* \"src/QuadraticVoting.sol\":10191:10262  require(token.balanceOf(msg.sender) >= _amount, \"Fondos insuficientes\") */\n      tag_161\n      jumpi\n      mload(0x40)\n      shl(0xe5, 0x461bcd)\n      dup2\n      mstore\n        /* \"#utility.yul\":8102:8104   */\n      0x20\n        /* \"src/QuadraticVoting.sol\":10191:10262  require(token.balanceOf(msg.sender) >= _amount, \"Fondos insuficientes\") */\n      0x04\n      dup3\n      add\n        /* \"#utility.yul\":8084:8105   */\n      mstore\n        /* \"#utility.yul\":8141:8143   */\n      0x14\n        /* \"#utility.yul\":8121:8139   */\n      0x24\n      dup3\n      add\n        /* \"#utility.yul\":8114:8144   */\n      mstore\n      shl(0x60, 0x466f6e646f7320696e737566696369656e746573)\n        /* \"#utility.yul\":8160:8178   */\n      0x44\n      dup3\n      add\n        /* \"#utility.yul\":8153:8203   */\n      mstore\n        /* \"#utility.yul\":8220:8238   */\n      0x64\n      add\n        /* \"src/QuadraticVoting.sol\":10191:10262  require(token.balanceOf(msg.sender) >= _amount, \"Fondos insuficientes\") */\n      tag_150\n        /* \"#utility.yul\":7900:8244   */\n      jump\n        /* \"src/QuadraticVoting.sol\":10191:10262  require(token.balanceOf(msg.sender) >= _amount, \"Fondos insuficientes\") */\n    tag_161:\n        /* \"src/QuadraticVoting.sol\":10273:10293  uint256 refundAmount */\n      0x00\n        /* \"src/QuadraticVoting.sol\":10306:10319  tokenPriceWei */\n      sload(0x02)\n        /* \"src/QuadraticVoting.sol\":10296:10303  _amount */\n      dup3\n        /* \"src/QuadraticVoting.sol\":10296:10319  _amount * tokenPriceWei */\n      tag_164\n      swap2\n      swap1\n      tag_165\n      jump\t// in\n    tag_164:\n        /* \"src/QuadraticVoting.sol\":10340:10345  token */\n      sload(0x01)\n        /* \"src/QuadraticVoting.sol\":10340:10371  token.burn(msg.sender, _amount) */\n      mload(0x40)\n      shl(0xe2, 0x2770a7eb)\n      dup2\n      mstore\n        /* \"src/QuadraticVoting.sol\":10351:10361  msg.sender */\n      caller\n        /* \"src/QuadraticVoting.sol\":10340:10371  token.burn(msg.sender, _amount) */\n      0x04\n      dup3\n      add\n        /* \"#utility.yul\":8596:8647   */\n      mstore\n        /* \"#utility.yul\":8663:8681   */\n      0x24\n      dup2\n      add\n        /* \"#utility.yul\":8656:8690   */\n      dup6\n      swap1\n      mstore\n        /* \"src/QuadraticVoting.sol\":10273:10319  uint256 refundAmount = _amount * tokenPriceWei */\n      swap2\n      swap3\n      pop\n      sub(shl(0xa0, 0x01), 0x01)\n        /* \"src/QuadraticVoting.sol\":10340:10345  token */\n      and\n      swap1\n        /* \"src/QuadraticVoting.sol\":10340:10350  token.burn */\n      0x9dc29fac\n      swap1\n        /* \"#utility.yul\":8569:8587   */\n      0x44\n      add\n        /* \"src/QuadraticVoting.sol\":10340:10371  token.burn(msg.sender, _amount) */\n      0x00\n      mload(0x40)\n      dup1\n      dup4\n      sub\n      dup2\n      0x00\n      dup8\n      dup1\n      extcodesize\n      iszero\n      dup1\n      iszero\n      tag_168\n      jumpi\n      revert(0x00, 0x00)\n    tag_168:\n      pop\n      gas\n      call\n      iszero\n      dup1\n      iszero\n      tag_170\n      jumpi\n      returndatacopy(0x00, 0x00, returndatasize)\n      revert(0x00, returndatasize)\n    tag_170:\n      pop\n      pop\n        /* \"src/QuadraticVoting.sol\":10411:10451  msg.sender.call{value: refundAmount}(\"\") */\n      mload(0x40)\n        /* \"src/QuadraticVoting.sol\":10393:10405  bool success */\n      0x00\n      swap3\n      pop\n        /* \"src/QuadraticVoting.sol\":10411:10421  msg.sender */\n      caller\n      swap2\n      pop\n        /* \"src/QuadraticVoting.sol\":10434:10446  refundAmount */\n      dup4\n      swap1\n        /* \"src/QuadraticVoting.sol\":10393:10405  bool success */\n      dup4\n        /* \"src/QuadraticVoting.sol\":10411:10451  msg.sender.call{value: refundAmount}(\"\") */\n      dup2\n        /* \"src/QuadraticVoting.sol\":10393:10405  bool success */\n      dup2\n        /* \"src/QuadraticVoting.sol\":10411:10451  msg.sender.call{value: refundAmount}(\"\") */\n      dup2\n        /* \"src/QuadraticVoting.sol\":10434:10446  refundAmount */\n      dup6\n        /* \"src/QuadraticVoting.sol\":10411:10421  msg.sender */\n      dup8\n        /* \"src/QuadraticVoting.sol\":10411:10451  msg.sender.call{value: refundAmount}(\"\") */\n      gas\n      call\n      swap3\n      pop\n      pop\n      pop\n      returndatasize\n      dup1\n      0x00\n      dup2\n      eq\n      tag_175\n      jumpi\n      mload(0x40)\n      swap2\n      pop\n      and(add(returndatasize, 0x3f), not(0x1f))\n      dup3\n      add\n      0x40\n      mstore\n      returndatasize\n      dup3\n      mstore\n      returndatasize\n      0x00\n      0x20\n      dup5\n      add\n      returndatacopy\n      jump(tag_174)\n    tag_175:\n      0x60\n      swap2\n      pop\n    tag_174:\n      pop\n        /* \"src/QuadraticVoting.sol\":10392:10451  (bool success, ) = msg.sender.call{value: refundAmount}(\"\") */\n      pop\n      swap1\n      pop\n        /* \"src/QuadraticVoting.sol\":10470:10477  success */\n      dup1\n        /* \"src/QuadraticVoting.sol\":10462:10500  require(success, \"Error en reembolso\") */\n      tag_176\n      jumpi\n      mload(0x40)\n      shl(0xe5, 0x461bcd)\n      dup2\n      mstore\n        /* \"#utility.yul\":9113:9115   */\n      0x20\n        /* \"src/QuadraticVoting.sol\":10462:10500  require(success, \"Error en reembolso\") */\n      0x04\n      dup3\n      add\n        /* \"#utility.yul\":9095:9116   */\n      mstore\n        /* \"#utility.yul\":9152:9154   */\n      0x12\n        /* \"#utility.yul\":9132:9150   */\n      0x24\n      dup3\n      add\n        /* \"#utility.yul\":9125:9155   */\n      mstore\n      shl(0x70, 0x4572726f7220656e207265656d626f6c736f)\n        /* \"#utility.yul\":9171:9189   */\n      0x44\n      dup3\n      add\n        /* \"#utility.yul\":9164:9212   */\n      mstore\n        /* \"#utility.yul\":9229:9247   */\n      0x64\n      add\n        /* \"src/QuadraticVoting.sol\":10462:10500  require(success, \"Error en reembolso\") */\n      tag_150\n        /* \"#utility.yul\":8911:9253   */\n      jump\n        /* \"src/QuadraticVoting.sol\":10462:10500  require(success, \"Error en reembolso\") */\n    tag_176:\n        /* \"src/QuadraticVoting.sol\":10180:10508  {... */\n      pop\n      pop\n        /* \"src/QuadraticVoting.sol\":10134:10508  function sellTokens(uint256 _amount) external {... */\n      pop\n      jump\t// out\n        /* \"src/QuadraticVoting.sol\":4164:5077  function stake(uint256 _propId, uint256 _numVotes) external {... */\n    tag_72:\n        /* \"src/QuadraticVoting.sol\":4243:4253  votingOpen */\n      and(0xff, sload(0x04))\n        /* \"src/QuadraticVoting.sol\":4243:4282  votingOpen && isParticipant[msg.sender] */\n      dup1\n      iszero\n      tag_180\n      jumpi\n      pop\n        /* \"src/QuadraticVoting.sol\":4271:4281  msg.sender */\n      caller\n        /* \"src/QuadraticVoting.sol\":4257:4282  isParticipant[msg.sender] */\n      0x00\n      swap1\n      dup2\n      mstore\n        /* \"src/QuadraticVoting.sol\":4257:4270  isParticipant */\n      0x0b\n        /* \"src/QuadraticVoting.sol\":4257:4282  isParticipant[msg.sender] */\n      0x20\n      mstore\n      0x40\n      swap1\n      keccak256\n      sload\n      0xff\n      and\n        /* \"src/QuadraticVoting.sol\":4243:4282  votingOpen && isParticipant[msg.sender] */\n    tag_180:\n        /* \"src/QuadraticVoting.sol\":4235:4301  require(votingOpen && isParticipant[msg.sender], \"No puede votar\") */\n      tag_181\n      jumpi\n      mload(0x40)\n      shl(0xe5, 0x461bcd)\n      dup2\n      mstore\n        /* \"#utility.yul\":9460:9462   */\n      0x20\n        /* \"src/QuadraticVoting.sol\":4235:4301  require(votingOpen && isParticipant[msg.sender], \"No puede votar\") */\n      0x04\n      dup3\n      add\n        /* \"#utility.yul\":9442:9463   */\n      mstore\n        /* \"#utility.yul\":9499:9501   */\n      0x0e\n        /* \"#utility.yul\":9479:9497   */\n      0x24\n      dup3\n      add\n        /* \"#utility.yul\":9472:9502   */\n      mstore\n      shl(0x91, 0x273790383ab2b232903b37ba30b9)\n        /* \"#utility.yul\":9518:9536   */\n      0x44\n      dup3\n      add\n        /* \"#utility.yul\":9511:9555   */\n      mstore\n        /* \"#utility.yul\":9572:9590   */\n      0x64\n      add\n        /* \"src/QuadraticVoting.sol\":4235:4301  require(votingOpen && isParticipant[msg.sender], \"No puede votar\") */\n      tag_150\n        /* \"#utility.yul\":9258:9596   */\n      jump\n        /* \"src/QuadraticVoting.sol\":4235:4301  require(votingOpen && isParticipant[msg.sender], \"No puede votar\") */\n    tag_181:\n        /* \"src/QuadraticVoting.sol\":4312:4330  Proposal storage p */\n      0x00\n        /* \"src/QuadraticVoting.sol\":4333:4351  proposals[_propId] */\n      dup3\n      dup2\n      mstore\n        /* \"src/QuadraticVoting.sol\":4333:4342  proposals */\n      0x08\n        /* \"src/QuadraticVoting.sol\":4333:4351  proposals[_propId] */\n      0x20\n      mstore\n      0x40\n      dup2\n      keccak256\n      swap1\n        /* \"src/QuadraticVoting.sol\":4370:4378  p.status */\n      0x03\n      dup3\n      add\n      sload\n      shl(0xa0, 0x01)\n      swap1\n      div\n      0xff\n      and\n        /* \"src/QuadraticVoting.sol\":4370:4404  p.status == ProposalStatus.Pending */\n      0x02\n      dup2\n      gt\n      iszero\n      tag_188\n      jumpi\n      tag_188\n      tag_186\n      jump\t// in\n    tag_188:\n      eq\n        /* \"src/QuadraticVoting.sol\":4362:4418  require(p.status == ProposalStatus.Pending, \"No activa\") */\n      tag_189\n      jumpi\n      mload(0x40)\n      shl(0xe5, 0x461bcd)\n      dup2\n      mstore\n        /* \"#utility.yul\":9803:9805   */\n      0x20\n        /* \"src/QuadraticVoting.sol\":4362:4418  require(p.status == ProposalStatus.Pending, \"No activa\") */\n      0x04\n      dup3\n      add\n        /* \"#utility.yul\":9785:9806   */\n      mstore\n        /* \"#utility.yul\":9842:9843   */\n      0x09\n        /* \"#utility.yul\":9822:9840   */\n      0x24\n      dup3\n      add\n        /* \"#utility.yul\":9815:9844   */\n      mstore\n      shl(0xb8, 0x4e6f20616374697661)\n        /* \"#utility.yul\":9860:9878   */\n      0x44\n      dup3\n      add\n        /* \"#utility.yul\":9853:9892   */\n      mstore\n        /* \"#utility.yul\":9909:9927   */\n      0x64\n      add\n        /* \"src/QuadraticVoting.sol\":4362:4418  require(p.status == ProposalStatus.Pending, \"No activa\") */\n      tag_150\n        /* \"#utility.yul\":9601:9933   */\n      jump\n        /* \"src/QuadraticVoting.sol\":4362:4418  require(p.status == ProposalStatus.Pending, \"No activa\") */\n    tag_189:\n        /* \"src/QuadraticVoting.sol\":4431:4450  uint256 votesBefore */\n      0x00\n        /* \"src/QuadraticVoting.sol\":4453:4481  userVotesInProposal[_propId] */\n      dup4\n      dup2\n      mstore\n        /* \"src/QuadraticVoting.sol\":4453:4472  userVotesInProposal */\n      0x09\n        /* \"src/QuadraticVoting.sol\":4453:4481  userVotesInProposal[_propId] */\n      0x20\n      swap1\n      dup2\n      mstore\n      0x40\n      dup1\n      dup4\n      keccak256\n        /* \"src/QuadraticVoting.sol\":4482:4492  msg.sender */\n      caller\n        /* \"src/QuadraticVoting.sol\":4453:4493  userVotesInProposal[_propId][msg.sender] */\n      dup5\n      mstore\n      swap1\n      swap2\n      mstore\n      dup2\n      keccak256\n      sload\n      swap1\n        /* \"src/QuadraticVoting.sol\":4525:4548  votesBefore + _numVotes */\n      tag_192\n        /* \"src/QuadraticVoting.sol\":4539:4548  _numVotes */\n      dup5\n        /* \"src/QuadraticVoting.sol\":4453:4493  userVotesInProposal[_propId][msg.sender] */\n      dup4\n        /* \"src/QuadraticVoting.sol\":4525:4548  votesBefore + _numVotes */\n      tag_193\n      jump\t// in\n    tag_192:\n        /* \"src/QuadraticVoting.sol\":4504:4548  uint256 votesAfter = votesBefore + _numVotes */\n      swap1\n      pop\n        /* \"src/QuadraticVoting.sol\":4559:4571  uint256 cost */\n      0x00\n        /* \"src/QuadraticVoting.sol\":4593:4607  votesBefore**2 */\n      tag_194\n        /* \"src/QuadraticVoting.sol\":4606:4607  2 */\n      0x02\n        /* \"src/QuadraticVoting.sol\":4593:4604  votesBefore */\n      dup5\n        /* \"src/QuadraticVoting.sol\":4593:4607  votesBefore**2 */\n      tag_195\n      jump\t// in\n    tag_194:\n        /* \"src/QuadraticVoting.sol\":4575:4588  votesAfter**2 */\n      tag_196\n        /* \"src/QuadraticVoting.sol\":4587:4588  2 */\n      0x02\n        /* \"src/QuadraticVoting.sol\":4575:4585  votesAfter */\n      dup5\n        /* \"src/QuadraticVoting.sol\":4575:4588  votesAfter**2 */\n      tag_195\n      jump\t// in\n    tag_196:\n        /* \"src/QuadraticVoting.sol\":4574:4608  (votesAfter**2) - (votesBefore**2) */\n      tag_197\n      swap2\n      swap1\n      tag_198\n      jump\t// in\n    tag_197:\n        /* \"src/QuadraticVoting.sol\":4657:4662  token */\n      sload(0x01)\n        /* \"src/QuadraticVoting.sol\":4657:4708  token.transferFrom(msg.sender, address(this), cost) */\n      mload(0x40)\n      shl(0xe0, 0x23b872dd)\n      dup2\n      mstore\n        /* \"src/QuadraticVoting.sol\":4676:4686  msg.sender */\n      caller\n        /* \"src/QuadraticVoting.sol\":4657:4708  token.transferFrom(msg.sender, address(this), cost) */\n      0x04\n      dup3\n      add\n        /* \"#utility.yul\":11835:11886   */\n      mstore\n        /* \"src/QuadraticVoting.sol\":4696:4700  this */\n      address\n        /* \"#utility.yul\":11902:11920   */\n      0x24\n      dup3\n      add\n        /* \"#utility.yul\":11895:11955   */\n      mstore\n        /* \"#utility.yul\":11971:11989   */\n      0x44\n      dup2\n      add\n        /* \"#utility.yul\":11964:11998   */\n      dup4\n      swap1\n      mstore\n        /* \"src/QuadraticVoting.sol\":4559:4608  uint256 cost = (votesAfter**2) - (votesBefore**2) */\n      swap2\n      swap3\n      pop\n      sub(shl(0xa0, 0x01), 0x01)\n        /* \"src/QuadraticVoting.sol\":4657:4662  token */\n      and\n      swap1\n        /* \"src/QuadraticVoting.sol\":4657:4675  token.transferFrom */\n      0x23b872dd\n      swap1\n        /* \"#utility.yul\":11808:11826   */\n      0x64\n      add\n        /* \"src/QuadraticVoting.sol\":4657:4708  token.transferFrom(msg.sender, address(this), cost) */\n      0x20\n      mload(0x40)\n      dup1\n      dup4\n      sub\n      dup2\n      0x00\n      dup8\n      gas\n      call\n      iszero\n      dup1\n      iszero\n      tag_202\n      jumpi\n      returndatacopy(0x00, 0x00, returndatasize)\n      revert(0x00, returndatasize)\n    tag_202:\n      pop\n      pop\n      pop\n      pop\n      mload(0x40)\n      returndatasize\n      not(0x1f)\n      0x1f\n      dup3\n      add\n      and\n      dup3\n      add\n      dup1\n      0x40\n      mstore\n      pop\n      dup2\n      add\n      swap1\n      tag_203\n      swap2\n      swap1\n      tag_204\n      jump\t// in\n    tag_203:\n        /* \"src/QuadraticVoting.sol\":4649:4726  require(token.transferFrom(msg.sender, address(this), cost), \"Falta approve\") */\n      tag_205\n      jumpi\n      mload(0x40)\n      shl(0xe5, 0x461bcd)\n      dup2\n      mstore\n        /* \"#utility.yul\":12493:12495   */\n      0x20\n        /* \"src/QuadraticVoting.sol\":4649:4726  require(token.transferFrom(msg.sender, address(this), cost), \"Falta approve\") */\n      0x04\n      dup3\n      add\n        /* \"#utility.yul\":12475:12496   */\n      mstore\n        /* \"#utility.yul\":12532:12534   */\n      0x0d\n        /* \"#utility.yul\":12512:12530   */\n      0x24\n      dup3\n      add\n        /* \"#utility.yul\":12505:12535   */\n      mstore\n      shl(0x98, 0x46616c746120617070726f7665)\n        /* \"#utility.yul\":12551:12569   */\n      0x44\n      dup3\n      add\n        /* \"#utility.yul\":12544:12587   */\n      mstore\n        /* \"#utility.yul\":12604:12622   */\n      0x64\n      add\n        /* \"src/QuadraticVoting.sol\":4649:4726  require(token.transferFrom(msg.sender, address(this), cost), \"Falta approve\") */\n      tag_150\n        /* \"#utility.yul\":12291:12628   */\n      jump\n        /* \"src/QuadraticVoting.sol\":4649:4726  require(token.transferFrom(msg.sender, address(this), cost), \"Falta approve\") */\n    tag_205:\n        /* \"src/QuadraticVoting.sol\":4743:4754  votesBefore */\n      dup3\n        /* \"src/QuadraticVoting.sol\":4758:4759  0 */\n      0x00\n        /* \"src/QuadraticVoting.sol\":4743:4759  votesBefore == 0 */\n      sub\n        /* \"src/QuadraticVoting.sol\":4739:4801  if (votesBefore == 0) proposalVoters[_propId].push(msg.sender) */\n      tag_208\n      jumpi\n        /* \"src/QuadraticVoting.sol\":4761:4784  proposalVoters[_propId] */\n      0x00\n      dup7\n      dup2\n      mstore\n        /* \"src/QuadraticVoting.sol\":4761:4775  proposalVoters */\n      0x0a\n        /* \"src/QuadraticVoting.sol\":4761:4784  proposalVoters[_propId] */\n      0x20\n      swap1\n      dup2\n      mstore\n      0x40\n      dup3\n      keccak256\n        /* \"src/QuadraticVoting.sol\":4761:4801  proposalVoters[_propId].push(msg.sender) */\n      dup1\n      sload\n      0x01\n      dup2\n      add\n      dup3\n      sstore\n      swap1\n      dup4\n      mstore\n      swap2\n      keccak256\n      add\n      dup1\n      sload\n      not(sub(shl(0xa0, 0x01), 0x01))\n      and\n        /* \"src/QuadraticVoting.sol\":4790:4800  msg.sender */\n      caller\n        /* \"src/QuadraticVoting.sol\":4761:4801  proposalVoters[_propId].push(msg.sender) */\n      or\n      swap1\n      sstore\n        /* \"src/QuadraticVoting.sol\":4739:4801  if (votesBefore == 0) proposalVoters[_propId].push(msg.sender) */\n    tag_208:\n        /* \"src/QuadraticVoting.sol\":4814:4842  userVotesInProposal[_propId] */\n      0x00\n      dup7\n      dup2\n      mstore\n        /* \"src/QuadraticVoting.sol\":4814:4833  userVotesInProposal */\n      0x09\n        /* \"src/QuadraticVoting.sol\":4814:4842  userVotesInProposal[_propId] */\n      0x20\n      swap1\n      dup2\n      mstore\n      0x40\n      dup1\n      dup4\n      keccak256\n        /* \"src/QuadraticVoting.sol\":4843:4853  msg.sender */\n      caller\n        /* \"src/QuadraticVoting.sol\":4814:4854  userVotesInProposal[_propId][msg.sender] */\n      dup5\n      mstore\n      swap1\n      swap2\n      mstore\n      dup2\n      keccak256\n        /* \"src/QuadraticVoting.sol\":4814:4867  userVotesInProposal[_propId][msg.sender] = votesAfter */\n      dup4\n      swap1\n      sstore\n        /* \"src/QuadraticVoting.sol\":4878:4890  p.totalVotes */\n      0x04\n      dup6\n      add\n        /* \"src/QuadraticVoting.sol\":4878:4903  p.totalVotes += _numVotes */\n      dup1\n      sload\n        /* \"src/QuadraticVoting.sol\":4894:4903  _numVotes */\n      dup8\n      swap3\n        /* \"src/QuadraticVoting.sol\":4814:4842  userVotesInProposal[_propId] */\n      swap1\n        /* \"src/QuadraticVoting.sol\":4878:4903  p.totalVotes += _numVotes */\n      tag_210\n      swap1\n        /* \"src/QuadraticVoting.sol\":4894:4903  _numVotes */\n      dup5\n      swap1\n        /* \"src/QuadraticVoting.sol\":4878:4903  p.totalVotes += _numVotes */\n      tag_193\n      jump\t// in\n    tag_210:\n      swap3\n      pop\n      pop\n      dup2\n      swap1\n      sstore\n      pop\n        /* \"src/QuadraticVoting.sol\":4937:4941  cost */\n      dup1\n        /* \"src/QuadraticVoting.sol\":4914:4915  p */\n      dup5\n        /* \"src/QuadraticVoting.sol\":4914:4933  p.totalTokensStaked */\n      0x05\n      add\n      0x00\n        /* \"src/QuadraticVoting.sol\":4914:4941  p.totalTokensStaked += cost */\n      dup3\n      dup3\n      sload\n      tag_211\n      swap2\n      swap1\n      tag_193\n      jump\t// in\n    tag_211:\n      swap1\n      swap2\n      sstore\n      pop\n      pop\n        /* \"src/QuadraticVoting.sol\":4959:5005  VoteCast(_propId, msg.sender, _numVotes, cost) */\n      0x40\n      dup1\n      mload\n        /* \"#utility.yul\":12807:12832   */\n      dup7\n      dup2\n      mstore\n        /* \"#utility.yul\":12863:12865   */\n      0x20\n        /* \"#utility.yul\":12848:12866   */\n      dup2\n      add\n        /* \"#utility.yul\":12841:12875   */\n      dup4\n      swap1\n      mstore\n        /* \"src/QuadraticVoting.sol\":4977:4987  msg.sender */\n      caller\n      swap2\n        /* \"src/QuadraticVoting.sol\":4968:4975  _propId */\n      dup9\n      swap2\n        /* \"src/QuadraticVoting.sol\":4959:5005  VoteCast(_propId, msg.sender, _numVotes, cost) */\n      0x0271f53eebbe20450d9578f28ec279231556c34545b30e2278d754ffd39cd63c\n      swap2\n        /* \"#utility.yul\":12780:12798   */\n      add\n        /* \"src/QuadraticVoting.sol\":4959:5005  VoteCast(_propId, msg.sender, _numVotes, cost) */\n      mload(0x40)\n      dup1\n      swap2\n      sub\n      swap1\n      log3\n        /* \"src/QuadraticVoting.sol\":5021:5034  p.isSignaling */\n      0x06\n      dup5\n      add\n      sload\n      shl(0xa0, 0x01)\n      swap1\n      div\n      0xff\n      and\n        /* \"src/QuadraticVoting.sol\":5016:5069  if (!p.isSignaling) _checkAndExecuteProposal(_propId) */\n      tag_215\n      jumpi\n        /* \"src/QuadraticVoting.sol\":5036:5069  _checkAndExecuteProposal(_propId) */\n      tag_215\n        /* \"src/QuadraticVoting.sol\":5061:5068  _propId */\n      dup7\n        /* \"src/QuadraticVoting.sol\":5036:5060  _checkAndExecuteProposal */\n      tag_216\n        /* \"src/QuadraticVoting.sol\":5036:5069  _checkAndExecuteProposal(_propId) */\n      jump\t// in\n    tag_215:\n        /* \"src/QuadraticVoting.sol\":4224:5077  {... */\n      pop\n      pop\n      pop\n      pop\n        /* \"src/QuadraticVoting.sol\":4164:5077  function stake(uint256 _propId, uint256 _numVotes) external {... */\n      pop\n      pop\n      jump\t// out\n        /* \"src/QuadraticVoting.sol\":6575:7096  function getSignalingProposals() external view returns (uint256[] memory) {... */\n    tag_79:\n        /* \"src/QuadraticVoting.sol\":6668:6678  votingOpen */\n      sload(0x04)\n        /* \"src/QuadraticVoting.sol\":6631:6647  uint256[] memory */\n      0x60\n      swap1\n        /* \"src/QuadraticVoting.sol\":6668:6678  votingOpen */\n      0xff\n      and\n        /* \"src/QuadraticVoting.sol\":6660:6699  require(votingOpen, \"Votacion cerrada\") */\n      tag_218\n      jumpi\n      mload(0x40)\n      shl(0xe5, 0x461bcd)\n      dup2\n      mstore\n        /* \"#utility.yul\":13088:13090   */\n      0x20\n        /* \"src/QuadraticVoting.sol\":6660:6699  require(votingOpen, \"Votacion cerrada\") */\n      0x04\n      dup3\n      add\n        /* \"#utility.yul\":13070:13091   */\n      mstore\n        /* \"#utility.yul\":13127:13129   */\n      0x10\n        /* \"#utility.yul\":13107:13125   */\n      0x24\n      dup3\n      add\n        /* \"#utility.yul\":13100:13130   */\n      mstore\n      shl(0x80, 0x566f746163696f6e2063657272616461)\n        /* \"#utility.yul\":13146:13164   */\n      0x44\n      dup3\n      add\n        /* \"#utility.yul\":13139:13185   */\n      mstore\n        /* \"#utility.yul\":13202:13220   */\n      0x64\n      add\n        /* \"src/QuadraticVoting.sol\":6660:6699  require(votingOpen, \"Votacion cerrada\") */\n      tag_150\n        /* \"#utility.yul\":12886:13226   */\n      jump\n        /* \"src/QuadraticVoting.sol\":6660:6699  require(votingOpen, \"Votacion cerrada\") */\n    tag_218:\n        /* \"src/QuadraticVoting.sol\":6725:6738  uint256 count */\n      0x00\n      dup1\n        /* \"src/QuadraticVoting.sol\":6753:6862  for (uint256 i = 0; i < nextProposalId; i++) {... */\n    tag_221:\n        /* \"src/QuadraticVoting.sol\":6777:6791  nextProposalId */\n      sload(0x07)\n        /* \"src/QuadraticVoting.sol\":6773:6774  i */\n      dup2\n        /* \"src/QuadraticVoting.sol\":6773:6791  i < nextProposalId */\n      lt\n        /* \"src/QuadraticVoting.sol\":6753:6862  for (uint256 i = 0; i < nextProposalId; i++) {... */\n      iszero\n      tag_222\n      jumpi\n        /* \"src/QuadraticVoting.sol\":6817:6829  proposals[i] */\n      0x00\n      dup2\n      dup2\n      mstore\n        /* \"src/QuadraticVoting.sol\":6817:6826  proposals */\n      0x08\n        /* \"src/QuadraticVoting.sol\":6817:6829  proposals[i] */\n      0x20\n      mstore\n      0x40\n      swap1\n      keccak256\n        /* \"src/QuadraticVoting.sol\":6817:6841  proposals[i].isSignaling */\n      0x06\n      add\n      sload\n      shl(0xa0, 0x01)\n      swap1\n      div\n      0xff\n      and\n        /* \"src/QuadraticVoting.sol\":6813:6850  if (proposals[i].isSignaling) count++ */\n      iszero\n      tag_224\n      jumpi\n        /* \"src/QuadraticVoting.sol\":6843:6850  count++ */\n      dup2\n      tag_225\n      dup2\n      tag_226\n      jump\t// in\n    tag_225:\n      swap3\n      pop\n      pop\n        /* \"src/QuadraticVoting.sol\":6813:6850  if (proposals[i].isSignaling) count++ */\n    tag_224:\n        /* \"src/QuadraticVoting.sol\":6793:6796  i++ */\n      0x01\n      add\n        /* \"src/QuadraticVoting.sol\":6753:6862  for (uint256 i = 0; i < nextProposalId; i++) {... */\n      jump(tag_221)\n    tag_222:\n      pop\n        /* \"src/QuadraticVoting.sol\":6872:6892  uint256[] memory ids */\n      0x00\n        /* \"src/QuadraticVoting.sol\":6909:6914  count */\n      dup2\n        /* \"src/QuadraticVoting.sol\":6895:6915  new uint256[](count) */\n      0xffffffffffffffff\n      dup2\n      gt\n      iszero\n      tag_228\n      jumpi\n      tag_228\n      tag_229\n      jump\t// in\n    tag_228:\n      mload(0x40)\n      swap1\n      dup1\n      dup3\n      mstore\n      dup1\n      0x20\n      mul\n      0x20\n      add\n      dup3\n      add\n      0x40\n      mstore\n      dup1\n      iszero\n      tag_230\n      jumpi\n      dup2\n      0x20\n      add\n      0x20\n      dup3\n      mul\n      dup1\n      calldatasize\n      dup4\n      calldatacopy\n      add\n      swap1\n      pop\n    tag_230:\n      pop\n        /* \"src/QuadraticVoting.sol\":6872:6915  uint256[] memory ids = new uint256[](count) */\n      swap1\n      pop\n        /* \"src/QuadraticVoting.sol\":6926:6937  uint256 idx */\n      0x00\n      dup1\n        /* \"src/QuadraticVoting.sol\":6952:7068  for (uint256 i = 0; i < nextProposalId; i++) {... */\n    tag_231:\n        /* \"src/QuadraticVoting.sol\":6976:6990  nextProposalId */\n      sload(0x07)\n        /* \"src/QuadraticVoting.sol\":6972:6973  i */\n      dup2\n        /* \"src/QuadraticVoting.sol\":6972:6990  i < nextProposalId */\n      lt\n        /* \"src/QuadraticVoting.sol\":6952:7068  for (uint256 i = 0; i < nextProposalId; i++) {... */\n      iszero\n      tag_232\n      jumpi\n        /* \"src/QuadraticVoting.sol\":7016:7028  proposals[i] */\n      0x00\n      dup2\n      dup2\n      mstore\n        /* \"src/QuadraticVoting.sol\":7016:7025  proposals */\n      0x08\n        /* \"src/QuadraticVoting.sol\":7016:7028  proposals[i] */\n      0x20\n      mstore\n      0x40\n      swap1\n      keccak256\n        /* \"src/QuadraticVoting.sol\":7016:7040  proposals[i].isSignaling */\n      0x06\n      add\n      sload\n      shl(0xa0, 0x01)\n      swap1\n      div\n      0xff\n      and\n        /* \"src/QuadraticVoting.sol\":7012:7056  if (proposals[i].isSignaling) ids[idx++] = i */\n      iszero\n      tag_234\n      jumpi\n        /* \"src/QuadraticVoting.sol\":7055:7056  i */\n      dup1\n        /* \"src/QuadraticVoting.sol\":7042:7045  ids */\n      dup4\n        /* \"src/QuadraticVoting.sol\":7046:7051  idx++ */\n      dup4\n      tag_235\n      dup2\n      tag_226\n      jump\t// in\n    tag_235:\n      swap5\n      pop\n        /* \"src/QuadraticVoting.sol\":7042:7052  ids[idx++] */\n      dup2\n      mload\n      dup2\n      lt\n      tag_237\n      jumpi\n      tag_237\n      tag_238\n      jump\t// in\n    tag_237:\n      0x20\n      mul\n      0x20\n      add\n      add\n        /* \"src/QuadraticVoting.sol\":7042:7056  ids[idx++] = i */\n      dup2\n      dup2\n      mstore\n      pop\n      pop\n        /* \"src/QuadraticVoting.sol\":7012:7056  if (proposals[i].isSignaling) ids[idx++] = i */\n    tag_234:\n        /* \"src/QuadraticVoting.sol\":6992:6995  i++ */\n      0x01\n      add\n        /* \"src/QuadraticVoting.sol\":6952:7068  for (uint256 i = 0; i < nextProposalId; i++) {... */\n      jump(tag_231)\n    tag_232:\n      pop\n        /* \"src/QuadraticVoting.sol\":7085:7088  ids */\n      swap1\n      swap4\n        /* \"src/QuadraticVoting.sol\":6575:7096  function getSignalingProposals() external view returns (uint256[] memory) {... */\n      swap3\n      pop\n      pop\n      pop\n      jump\t// out\n        /* \"src/QuadraticVoting.sol\":2731:3698  function addProposal(... */\n    tag_92:\n        /* \"src/QuadraticVoting.sol\":2919:2929  votingOpen */\n      sload(0x04)\n        /* \"src/QuadraticVoting.sol\":2891:2898  uint256 */\n      0x00\n      swap1\n        /* \"src/QuadraticVoting.sol\":2919:2929  votingOpen */\n      0xff\n      and\n        /* \"src/QuadraticVoting.sol\":2911:2941  require(votingOpen, \"Cerrada\") */\n      tag_240\n      jumpi\n      mload(0x40)\n      shl(0xe5, 0x461bcd)\n      dup2\n      mstore\n        /* \"#utility.yul\":13705:13707   */\n      0x20\n        /* \"src/QuadraticVoting.sol\":2911:2941  require(votingOpen, \"Cerrada\") */\n      0x04\n      dup3\n      add\n        /* \"#utility.yul\":13687:13708   */\n      mstore\n        /* \"#utility.yul\":13744:13745   */\n      0x07\n        /* \"#utility.yul\":13724:13742   */\n      0x24\n      dup3\n      add\n        /* \"#utility.yul\":13717:13746   */\n      mstore\n      shl(0xc8, 0x43657272616461)\n        /* \"#utility.yul\":13762:13780   */\n      0x44\n      dup3\n      add\n        /* \"#utility.yul\":13755:13792   */\n      mstore\n        /* \"#utility.yul\":13809:13827   */\n      0x64\n      add\n        /* \"src/QuadraticVoting.sol\":2911:2941  require(votingOpen, \"Cerrada\") */\n      tag_150\n        /* \"#utility.yul\":13503:13833   */\n      jump\n        /* \"src/QuadraticVoting.sol\":2911:2941  require(votingOpen, \"Cerrada\") */\n    tag_240:\n        /* \"src/QuadraticVoting.sol\":2974:2984  msg.sender */\n      caller\n        /* \"src/QuadraticVoting.sol\":2960:2985  isParticipant[msg.sender] */\n      0x00\n      swap1\n      dup2\n      mstore\n        /* \"src/QuadraticVoting.sol\":2960:2973  isParticipant */\n      0x0b\n        /* \"src/QuadraticVoting.sol\":2960:2985  isParticipant[msg.sender] */\n      0x20\n      mstore\n      0x40\n      swap1\n      keccak256\n      sload\n      0xff\n      and\n        /* \"src/QuadraticVoting.sol\":2952:3008  require(isParticipant[msg.sender], \"Solo participantes\") */\n      tag_243\n      jumpi\n      mload(0x40)\n      shl(0xe5, 0x461bcd)\n      dup2\n      mstore\n        /* \"#utility.yul\":14040:14042   */\n      0x20\n        /* \"src/QuadraticVoting.sol\":2952:3008  require(isParticipant[msg.sender], \"Solo participantes\") */\n      0x04\n      dup3\n      add\n        /* \"#utility.yul\":14022:14043   */\n      mstore\n        /* \"#utility.yul\":14079:14081   */\n      0x12\n        /* \"#utility.yul\":14059:14077   */\n      0x24\n      dup3\n      add\n        /* \"#utility.yul\":14052:14082   */\n      mstore\n      shl(0x70, 0x536f6c6f207061727469636970616e746573)\n        /* \"#utility.yul\":14098:14116   */\n      0x44\n      dup3\n      add\n        /* \"#utility.yul\":14091:14139   */\n      mstore\n        /* \"#utility.yul\":14156:14174   */\n      0x64\n      add\n        /* \"src/QuadraticVoting.sol\":2952:3008  require(isParticipant[msg.sender], \"Solo participantes\") */\n      tag_150\n        /* \"#utility.yul\":13838:14180   */\n      jump\n        /* \"src/QuadraticVoting.sol\":2952:3008  require(isParticipant[msg.sender], \"Solo participantes\") */\n    tag_243:\n        /* \"src/QuadraticVoting.sol\":3027:3089  _exec.supportsInterface(type(IExecutableProposal).interfaceId) */\n      tag_246\n      sub(shl(0xa0, 0x01), 0x01)\n        /* \"src/QuadraticVoting.sol\":3027:3050  _exec.supportsInterface */\n      dup4\n      and\n      shl(0xe0, 0x986cc311)\n      tag_247\n        /* \"src/QuadraticVoting.sol\":3027:3089  _exec.supportsInterface(type(IExecutableProposal).interfaceId) */\n      jump\t// in\n    tag_246:\n        /* \"src/QuadraticVoting.sol\":3019:3108  require(_exec.supportsInterface(type(IExecutableProposal).interfaceId), \"ERC165 fallido\") */\n      tag_248\n      jumpi\n      mload(0x40)\n      shl(0xe5, 0x461bcd)\n      dup2\n      mstore\n        /* \"#utility.yul\":14387:14389   */\n      0x20\n        /* \"src/QuadraticVoting.sol\":3019:3108  require(_exec.supportsInterface(type(IExecutableProposal).interfaceId), \"ERC165 fallido\") */\n      0x04\n      dup3\n      add\n        /* \"#utility.yul\":14369:14390   */\n      mstore\n        /* \"#utility.yul\":14426:14428   */\n      0x0e\n        /* \"#utility.yul\":14406:14424   */\n      0x24\n      dup3\n      add\n        /* \"#utility.yul\":14399:14429   */\n      mstore\n      shl(0x90, 0x4552433136352066616c6c69646f)\n        /* \"#utility.yul\":14445:14463   */\n      0x44\n      dup3\n      add\n        /* \"#utility.yul\":14438:14482   */\n      mstore\n        /* \"#utility.yul\":14499:14517   */\n      0x64\n      add\n        /* \"src/QuadraticVoting.sol\":3019:3108  require(_exec.supportsInterface(type(IExecutableProposal).interfaceId), \"ERC165 fallido\") */\n      tag_150\n        /* \"#utility.yul\":14185:14523   */\n      jump\n        /* \"src/QuadraticVoting.sol\":3019:3108  require(_exec.supportsInterface(type(IExecutableProposal).interfaceId), \"ERC165 fallido\") */\n    tag_248:\n        /* \"src/QuadraticVoting.sol\":3134:3148  nextProposalId */\n      0x07\n        /* \"src/QuadraticVoting.sol\":3134:3150  nextProposalId++ */\n      dup1\n      sload\n        /* \"src/QuadraticVoting.sol\":3121:3131  uint256 id */\n      0x00\n      swap2\n      dup3\n        /* \"src/QuadraticVoting.sol\":3134:3150  nextProposalId++ */\n      tag_251\n      dup4\n      tag_226\n      jump\t// in\n    tag_251:\n      swap1\n      swap2\n      sstore\n      pop\n        /* \"src/QuadraticVoting.sol\":3221:3560  Proposal({... */\n      0x40\n      dup1\n      mload\n      0x0120\n      dup2\n      add\n      dup3\n      mstore\n      dup9\n      dup2\n      mstore\n      0x20\n      dup2\n      add\n      dup9\n      swap1\n      mstore\n      swap1\n      dup2\n      add\n      dup7\n      swap1\n      mstore\n      sub(shl(0xa0, 0x01), 0x01)\n      dup6\n      and\n      0x60\n      dup3\n      add\n      mstore\n        /* \"src/QuadraticVoting.sol\":3121:3150  uint256 id = nextProposalId++ */\n      swap1\n      swap2\n      pop\n        /* \"src/QuadraticVoting.sol\":3179:3191  _budget == 0 */\n      dup5\n      iszero\n      swap1\n        /* \"src/QuadraticVoting.sol\":3221:3560  Proposal({... */\n      0x80\n      dup2\n      add\n        /* \"src/QuadraticVoting.sol\":3161:3175  bool signaling */\n      0x00\n        /* \"src/QuadraticVoting.sol\":3221:3560  Proposal({... */\n      dup2\n      mstore\n        /* \"src/QuadraticVoting.sol\":3441:3442  0 */\n      0x00\n        /* \"src/QuadraticVoting.sol\":3221:3560  Proposal({... */\n      0x20\n      dup1\n      dup4\n      add\n      dup3\n      swap1\n      mstore\n      0x40\n      dup1\n      dup5\n      add\n      dup4\n      swap1\n      mstore\n        /* \"src/QuadraticVoting.sol\":3501:3511  msg.sender */\n      caller\n        /* \"src/QuadraticVoting.sol\":3221:3560  Proposal({... */\n      0x60\n      dup6\n      add\n      mstore\n      dup6\n      iszero\n      iszero\n      0x80\n      swap1\n      swap5\n      add\n      swap4\n      swap1\n      swap4\n      mstore\n        /* \"src/QuadraticVoting.sol\":3205:3218  proposals[id] */\n      dup6\n      dup3\n      mstore\n        /* \"src/QuadraticVoting.sol\":3205:3214  proposals */\n      0x08\n        /* \"src/QuadraticVoting.sol\":3205:3218  proposals[id] */\n      swap1\n      mstore\n      keccak256\n        /* \"src/QuadraticVoting.sol\":3205:3560  proposals[id] = Proposal({... */\n      dup2\n      mload\n        /* \"src/QuadraticVoting.sol\":3205:3218  proposals[id] */\n      dup2\n      swap1\n        /* \"src/QuadraticVoting.sol\":3205:3560  proposals[id] = Proposal({... */\n      tag_254\n      swap1\n        /* \"src/QuadraticVoting.sol\":3205:3218  proposals[id] */\n      dup3\n        /* \"src/QuadraticVoting.sol\":3205:3560  proposals[id] = Proposal({... */\n      tag_255\n      jump\t// in\n    tag_254:\n      pop\n      0x20\n      dup3\n      add\n      mload\n      0x01\n      dup3\n      add\n      swap1\n      tag_256\n      swap1\n      dup3\n      tag_255\n      jump\t// in\n    tag_256:\n      pop\n      0x40\n      dup3\n      add\n      mload\n      0x02\n      dup1\n      dup4\n      add\n      swap2\n      swap1\n      swap2\n      sstore\n      0x60\n      dup4\n      add\n      mload\n      0x03\n      dup4\n      add\n      dup1\n      sload\n      sub(shl(0xa0, 0x01), 0x01)\n      swap1\n      swap3\n      and\n      not(sub(shl(0xa0, 0x01), 0x01))\n      dup4\n      and\n      dup2\n      or\n      dup3\n      sstore\n      0x80\n      dup7\n      add\n      mload\n      swap4\n      swap2\n      swap3\n      not(sub(shl(0xa8, 0x01), 0x01))\n      and\n      or\n      swap1\n      shl(0xa0, 0x01)\n      swap1\n      dup5\n      swap1\n      dup2\n      gt\n      iszero\n      tag_258\n      jumpi\n      tag_258\n      tag_186\n      jump\t// in\n    tag_258:\n      mul\n      or\n      swap1\n      sstore\n      pop\n      0xa0\n      dup3\n      add\n      mload\n      0x04\n      dup3\n      add\n      sstore\n      0xc0\n      dup3\n      add\n      mload\n      0x05\n      dup3\n      add\n      sstore\n      0xe0\n      dup3\n      add\n      mload\n      0x06\n      swap1\n      swap2\n      add\n      dup1\n      sload\n      0x0100\n      swap1\n      swap4\n      add\n      mload\n      iszero\n      iszero\n      shl(0xa0, 0x01)\n      mul\n      not(sub(shl(0xa8, 0x01), 0x01))\n      swap1\n      swap4\n      and\n      sub(shl(0xa0, 0x01), 0x01)\n      swap1\n      swap3\n      and\n      swap2\n      swap1\n      swap2\n      or\n      swap2\n      swap1\n      swap2\n      or\n      swap1\n      sstore\n        /* \"src/QuadraticVoting.sol\":3586:3595  signaling */\n      dup1\n        /* \"src/QuadraticVoting.sol\":3581:3618  if (!signaling) numPendingProposals++ */\n      tag_259\n      jumpi\n        /* \"src/QuadraticVoting.sol\":3597:3616  numPendingProposals */\n      0x06\n        /* \"src/QuadraticVoting.sol\":3597:3618  numPendingProposals++ */\n      dup1\n      sload\n      swap1\n        /* \"src/QuadraticVoting.sol\":3597:3616  numPendingProposals */\n      0x00\n        /* \"src/QuadraticVoting.sol\":3597:3618  numPendingProposals++ */\n      tag_260\n      dup4\n      tag_226\n      jump\t// in\n    tag_260:\n      swap2\n      swap1\n      pop\n      sstore\n      pop\n        /* \"src/QuadraticVoting.sol\":3581:3618  if (!signaling) numPendingProposals++ */\n    tag_259:\n        /* \"src/QuadraticVoting.sol\":3650:3652  id */\n      dup2\n        /* \"src/QuadraticVoting.sol\":3634:3670  ProposalCreated(id, _title, _budget) */\n      0xf5dc0da9afa6d080780a49fd8c680f03d2ddf3c067cd6d0c85360c096644d2d3\n        /* \"src/QuadraticVoting.sol\":3654:3660  _title */\n      dup9\n        /* \"src/QuadraticVoting.sol\":3662:3669  _budget */\n      dup8\n        /* \"src/QuadraticVoting.sol\":3634:3670  ProposalCreated(id, _title, _budget) */\n      mload(0x40)\n      tag_261\n      swap3\n      swap2\n      swap1\n      tag_262\n      jump\t// in\n    tag_261:\n      mload(0x40)\n      dup1\n      swap2\n      sub\n      swap1\n      log2\n      pop\n        /* \"src/QuadraticVoting.sol\":3688:3690  id */\n      swap6\n        /* \"src/QuadraticVoting.sol\":2731:3698  function addProposal(... */\n      swap5\n      pop\n      pop\n      pop\n      pop\n      pop\n      jump\t// out\n        /* \"src/QuadraticVoting.sol\":6182:6332  function getPendingProposals() external view returns (uint256[] memory) {... */\n    tag_96:\n        /* \"src/QuadraticVoting.sol\":6236:6252  uint256[] memory */\n      0x60\n        /* \"src/QuadraticVoting.sol\":6272:6324  _getProposalsByStatus(ProposalStatus.Pending, false) */\n      tag_146\n        /* \"src/QuadraticVoting.sol\":6294:6316  ProposalStatus.Pending */\n      0x00\n        /* \"src/QuadraticVoting.sol\":6318:6323  false */\n      0x00\n        /* \"src/QuadraticVoting.sol\":6272:6293  _getProposalsByStatus */\n      tag_147\n        /* \"src/QuadraticVoting.sol\":6272:6324  _getProposalsByStatus(ProposalStatus.Pending, false) */\n      jump\t// in\n        /* \"src/QuadraticVoting.sol\":1879:2083  function openVoting() external payable {... */\n    tag_103:\n        /* \"src/QuadraticVoting.sol\":1951:1956  owner */\n      and(sub(shl(0xa0, 0x01), 0x01), sload(0x00))\n        /* \"src/QuadraticVoting.sol\":1937:1947  msg.sender */\n      caller\n        /* \"src/QuadraticVoting.sol\":1937:1956  msg.sender == owner */\n      eq\n        /* \"src/QuadraticVoting.sol\":1929:1973  require(msg.sender == owner, \"Solo creador\") */\n      tag_266\n      jumpi\n      mload(0x40)\n      shl(0xe5, 0x461bcd)\n      dup2\n      mstore\n        /* \"#utility.yul\":17150:17152   */\n      0x20\n        /* \"src/QuadraticVoting.sol\":1929:1973  require(msg.sender == owner, \"Solo creador\") */\n      0x04\n      dup3\n      add\n        /* \"#utility.yul\":17132:17153   */\n      mstore\n        /* \"#utility.yul\":17189:17191   */\n      0x0c\n        /* \"#utility.yul\":17169:17187   */\n      0x24\n      dup3\n      add\n        /* \"#utility.yul\":17162:17192   */\n      mstore\n      shl(0xa1, 0x29b7b6379031b932b0b237b9)\n        /* \"#utility.yul\":17208:17226   */\n      0x44\n      dup3\n      add\n        /* \"#utility.yul\":17201:17243   */\n      mstore\n        /* \"#utility.yul\":17260:17278   */\n      0x64\n      add\n        /* \"src/QuadraticVoting.sol\":1929:1973  require(msg.sender == owner, \"Solo creador\") */\n      tag_150\n        /* \"#utility.yul\":16948:17284   */\n      jump\n        /* \"src/QuadraticVoting.sol\":1929:1973  require(msg.sender == owner, \"Solo creador\") */\n    tag_266:\n        /* \"src/QuadraticVoting.sol\":1984:1994  votingOpen */\n      0x04\n        /* \"src/QuadraticVoting.sol\":1984:2001  votingOpen = true */\n      dup1\n      sload\n      not(0xff)\n      and\n        /* \"src/QuadraticVoting.sol\":1997:2001  true */\n      0x01\n        /* \"src/QuadraticVoting.sol\":1984:2001  votingOpen = true */\n      or\n      swap1\n      sstore\n        /* \"src/QuadraticVoting.sol\":2012:2023  totalBudget */\n      0x03\n        /* \"src/QuadraticVoting.sol\":2012:2036  totalBudget += msg.value */\n      dup1\n      sload\n        /* \"src/QuadraticVoting.sol\":2027:2036  msg.value */\n      callvalue\n      swap2\n        /* \"src/QuadraticVoting.sol\":2012:2023  totalBudget */\n      swap1\n        /* \"src/QuadraticVoting.sol\":1984:1994  votingOpen */\n      0x00\n      swap1\n        /* \"src/QuadraticVoting.sol\":2012:2036  totalBudget += msg.value */\n      tag_269\n      swap1\n        /* \"src/QuadraticVoting.sol\":2027:2036  msg.value */\n      dup5\n      swap1\n        /* \"src/QuadraticVoting.sol\":2012:2036  totalBudget += msg.value */\n      tag_193\n      jump\t// in\n    tag_269:\n      swap1\n      swap2\n      sstore\n      pop\n      pop\n        /* \"src/QuadraticVoting.sol\":2052:2075  VotingOpened(msg.value) */\n      mload(0x40)\n        /* \"src/QuadraticVoting.sol\":2065:2074  msg.value */\n      callvalue\n        /* \"#utility.yul\":2059:2084   */\n      dup2\n      mstore\n        /* \"src/QuadraticVoting.sol\":2052:2075  VotingOpened(msg.value) */\n      0xe0a358d4a766346f1ece85d22e2197435d610d9638874a0fd6746e58a1b1f58a\n      swap1\n        /* \"#utility.yul\":2047:2049   */\n      0x20\n        /* \"#utility.yul\":2032:2050   */\n      add\n        /* \"src/QuadraticVoting.sol\":2052:2075  VotingOpened(msg.value) */\n      mload(0x40)\n      dup1\n      swap2\n      sub\n      swap1\n      log1\n        /* \"src/QuadraticVoting.sol\":1879:2083  function openVoting() external payable {... */\n      jump\t// out\n        /* \"src/QuadraticVoting.sol\":7168:7637  function getProposalInfo(uint256 _id) external view returns (... */\n    tag_107:\n        /* \"src/QuadraticVoting.sol\":7431:7441  votingOpen */\n      sload(0x04)\n        /* \"src/QuadraticVoting.sol\":7239:7258  string memory title */\n      0x60\n      swap1\n      dup2\n      swap1\n        /* \"src/QuadraticVoting.sol\":7305:7319  uint256 budget */\n      0x00\n      swap1\n      dup2\n      swap1\n      dup2\n      swap1\n      dup2\n      swap1\n        /* \"src/QuadraticVoting.sol\":7431:7441  votingOpen */\n      0xff\n      and\n        /* \"src/QuadraticVoting.sol\":7423:7462  require(votingOpen, \"Votacion cerrada\") */\n      tag_272\n      jumpi\n      mload(0x40)\n      shl(0xe5, 0x461bcd)\n      dup2\n      mstore\n        /* \"#utility.yul\":13088:13090   */\n      0x20\n        /* \"src/QuadraticVoting.sol\":7423:7462  require(votingOpen, \"Votacion cerrada\") */\n      0x04\n      dup3\n      add\n        /* \"#utility.yul\":13070:13091   */\n      mstore\n        /* \"#utility.yul\":13127:13129   */\n      0x10\n        /* \"#utility.yul\":13107:13125   */\n      0x24\n      dup3\n      add\n        /* \"#utility.yul\":13100:13130   */\n      mstore\n      shl(0x80, 0x566f746163696f6e2063657272616461)\n        /* \"#utility.yul\":13146:13164   */\n      0x44\n      dup3\n      add\n        /* \"#utility.yul\":13139:13185   */\n      mstore\n        /* \"#utility.yul\":13202:13220   */\n      0x64\n      add\n        /* \"src/QuadraticVoting.sol\":7423:7462  require(votingOpen, \"Votacion cerrada\") */\n      tag_150\n        /* \"#utility.yul\":12886:13226   */\n      jump\n        /* \"src/QuadraticVoting.sol\":7423:7462  require(votingOpen, \"Votacion cerrada\") */\n    tag_272:\n        /* \"src/QuadraticVoting.sol\":7488:7506  Proposal storage p */\n      0x00\n        /* \"src/QuadraticVoting.sol\":7509:7523  proposals[_id] */\n      dup8\n      dup2\n      mstore\n        /* \"src/QuadraticVoting.sol\":7509:7518  proposals */\n      0x08\n        /* \"src/QuadraticVoting.sol\":7509:7523  proposals[_id] */\n      0x20\n      mstore\n      0x40\n      swap1\n      keccak256\n        /* \"src/QuadraticVoting.sol\":7566:7582  p.requiredBudget */\n      0x02\n      dup2\n      add\n      sload\n        /* \"src/QuadraticVoting.sol\":7584:7604  p.executableContract */\n      0x03\n      dup3\n      add\n      sload\n        /* \"src/QuadraticVoting.sol\":7616:7628  p.totalVotes */\n      0x04\n      dup4\n      add\n      sload\n        /* \"src/QuadraticVoting.sol\":7534:7629  return (p.title, p.description, p.requiredBudget, p.executableContract, p.status, p.totalVotes) */\n      dup4\n      sload\n        /* \"src/QuadraticVoting.sol\":7509:7523  proposals[_id] */\n      dup5\n      swap4\n        /* \"src/QuadraticVoting.sol\":7551:7564  p.description */\n      0x01\n      dup6\n      add\n      swap4\n        /* \"src/QuadraticVoting.sol\":7566:7582  p.requiredBudget */\n      swap1\n      swap3\n      sub(shl(0xa0, 0x01), 0x01)\n        /* \"src/QuadraticVoting.sol\":7584:7604  p.executableContract */\n      dup3\n      and\n      swap3\n      shl(0xa0, 0x01)\n        /* \"src/QuadraticVoting.sol\":7606:7614  p.status */\n      swap1\n      swap3\n      div\n      0xff\n      and\n      swap2\n        /* \"src/QuadraticVoting.sol\":7509:7523  proposals[_id] */\n      dup7\n      swap1\n        /* \"src/QuadraticVoting.sol\":7534:7629  return (p.title, p.description, p.requiredBudget, p.executableContract, p.status, p.totalVotes) */\n      tag_274\n      swap1\n      tag_135\n      jump\t// in\n    tag_274:\n      dup1\n      0x1f\n      add\n      0x20\n      dup1\n      swap2\n      div\n      mul\n      0x20\n      add\n      mload(0x40)\n      swap1\n      dup2\n      add\n      0x40\n      mstore\n      dup1\n      swap3\n      swap2\n      swap1\n      dup2\n      dup2\n      mstore\n      0x20\n      add\n      dup3\n      dup1\n      sload\n      tag_275\n      swap1\n      tag_135\n      jump\t// in\n    tag_275:\n      dup1\n      iszero\n      tag_276\n      jumpi\n      dup1\n      0x1f\n      lt\n      tag_277\n      jumpi\n      0x0100\n      dup1\n      dup4\n      sload\n      div\n      mul\n      dup4\n      mstore\n      swap2\n      0x20\n      add\n      swap2\n      jump(tag_276)\n    tag_277:\n      dup3\n      add\n      swap2\n      swap1\n      0x00\n      mstore\n      keccak256(0x00, 0x20)\n      swap1\n    tag_278:\n      dup2\n      sload\n      dup2\n      mstore\n      swap1\n      0x01\n      add\n      swap1\n      0x20\n      add\n      dup1\n      dup4\n      gt\n      tag_278\n      jumpi\n      dup3\n      swap1\n      sub\n      0x1f\n      and\n      dup3\n      add\n      swap2\n    tag_276:\n      pop\n      pop\n      pop\n      pop\n      pop\n      swap6\n      pop\n      dup5\n      dup1\n      sload\n      tag_279\n      swap1\n      tag_135\n      jump\t// in\n    tag_279:\n      dup1\n      0x1f\n      add\n      0x20\n      dup1\n      swap2\n      div\n      mul\n      0x20\n      add\n      mload(0x40)\n      swap1\n      dup2\n      add\n      0x40\n      mstore\n      dup1\n      swap3\n      swap2\n      swap1\n      dup2\n      dup2\n      mstore\n      0x20\n      add\n      dup3\n      dup1\n      sload\n      tag_280\n      swap1\n      tag_135\n      jump\t// in\n    tag_280:\n      dup1\n      iszero\n      tag_281\n      jumpi\n      dup1\n      0x1f\n      lt\n      tag_282\n      jumpi\n      0x0100\n      dup1\n      dup4\n      sload\n      div\n      mul\n      dup4\n      mstore\n      swap2\n      0x20\n      add\n      swap2\n      jump(tag_281)\n    tag_282:\n      dup3\n      add\n      swap2\n      swap1\n      0x00\n      mstore\n      keccak256(0x00, 0x20)\n      swap1\n    tag_283:\n      dup2\n      sload\n      dup2\n      mstore\n      swap1\n      0x01\n      add\n      swap1\n      0x20\n      add\n      dup1\n      dup4\n      gt\n      tag_283\n      jumpi\n      dup3\n      swap1\n      sub\n      0x1f\n      and\n      dup3\n      add\n      swap2\n    tag_281:\n      pop\n      pop\n      pop\n      pop\n      pop\n      swap5\n      pop\n      swap7\n      pop\n      swap7\n      pop\n      swap7\n      pop\n      swap7\n      pop\n      swap7\n      pop\n      swap7\n      pop\n      pop\n        /* \"src/QuadraticVoting.sol\":7168:7637  function getProposalInfo(uint256 _id) external view returns (... */\n      swap2\n      swap4\n      swap6\n      pop\n      swap2\n      swap4\n      swap6\n      jump\t// out\n        /* \"src/QuadraticVoting.sol\":8302:9362  function closeVoting() external {... */\n    tag_112:\n        /* \"src/QuadraticVoting.sol\":8367:8372  owner */\n      and(sub(shl(0xa0, 0x01), 0x01), sload(0x00))\n        /* \"src/QuadraticVoting.sol\":8353:8363  msg.sender */\n      caller\n        /* \"src/QuadraticVoting.sol\":8353:8372  msg.sender == owner */\n      eq\n        /* \"src/QuadraticVoting.sol\":8353:8386  msg.sender == owner && votingOpen */\n      dup1\n      iszero\n      tag_285\n      jumpi\n      pop\n        /* \"src/QuadraticVoting.sol\":8376:8386  votingOpen */\n      and(0xff, sload(0x04))\n        /* \"src/QuadraticVoting.sol\":8353:8386  msg.sender == owner && votingOpen */\n    tag_285:\n        /* \"src/QuadraticVoting.sol\":8345:8401  require(msg.sender == owner && votingOpen, \"Solo owner\") */\n      tag_286\n      jumpi\n      mload(0x40)\n      shl(0xe5, 0x461bcd)\n      dup2\n      mstore\n        /* \"#utility.yul\":17491:17493   */\n      0x20\n        /* \"src/QuadraticVoting.sol\":8345:8401  require(msg.sender == owner && votingOpen, \"Solo owner\") */\n      0x04\n      dup3\n      add\n        /* \"#utility.yul\":17473:17494   */\n      mstore\n        /* \"#utility.yul\":17530:17532   */\n      0x0a\n        /* \"#utility.yul\":17510:17528   */\n      0x24\n      dup3\n      add\n        /* \"#utility.yul\":17503:17533   */\n      mstore\n      shl(0xb1, 0x29b7b6379037bbb732b9)\n        /* \"#utility.yul\":17549:17567   */\n      0x44\n      dup3\n      add\n        /* \"#utility.yul\":17542:17582   */\n      mstore\n        /* \"#utility.yul\":17599:17617   */\n      0x64\n      add\n        /* \"src/QuadraticVoting.sol\":8345:8401  require(msg.sender == owner && votingOpen, \"Solo owner\") */\n      tag_150\n        /* \"#utility.yul\":17289:17623   */\n      jump\n        /* \"src/QuadraticVoting.sol\":8345:8401  require(msg.sender == owner && votingOpen, \"Solo owner\") */\n    tag_286:\n        /* \"src/QuadraticVoting.sol\":8412:8422  votingOpen */\n      0x04\n        /* \"src/QuadraticVoting.sol\":8412:8430  votingOpen = false */\n      dup1\n      sload\n      not(0xff)\n      and\n      swap1\n      sstore\n        /* \"src/QuadraticVoting.sol\":8425:8430  false */\n      0x00\n        /* \"src/QuadraticVoting.sol\":8443:9126  for (uint256 i = 0; i < nextProposalId; i++) {... */\n    tag_289:\n        /* \"src/QuadraticVoting.sol\":8467:8481  nextProposalId */\n      sload(0x07)\n        /* \"src/QuadraticVoting.sol\":8463:8464  i */\n      dup2\n        /* \"src/QuadraticVoting.sol\":8463:8481  i < nextProposalId */\n      lt\n        /* \"src/QuadraticVoting.sol\":8443:9126  for (uint256 i = 0; i < nextProposalId; i++) {... */\n      iszero\n      tag_290\n      jumpi\n        /* \"src/QuadraticVoting.sol\":8503:8521  Proposal storage p */\n      0x00\n        /* \"src/QuadraticVoting.sol\":8524:8536  proposals[i] */\n      dup2\n      dup2\n      mstore\n        /* \"src/QuadraticVoting.sol\":8524:8533  proposals */\n      0x08\n        /* \"src/QuadraticVoting.sol\":8524:8536  proposals[i] */\n      0x20\n      mstore\n      0x40\n      swap1\n      keccak256\n        /* \"src/QuadraticVoting.sol\":8555:8568  p.isSignaling */\n      0x06\n      dup2\n      add\n      sload\n      shl(0xa0, 0x01)\n      swap1\n      div\n      0xff\n      and\n        /* \"src/QuadraticVoting.sol\":8551:9115  if (p.isSignaling) {... */\n      iszero\n      tag_292\n      jumpi\n        /* \"src/QuadraticVoting.sol\":8608:8628  p.executableContract */\n      0x03\n      dup2\n      add\n      sload\n        /* \"src/QuadraticVoting.sol\":8740:8752  p.totalVotes */\n      0x04\n      dup3\n      add\n      sload\n        /* \"src/QuadraticVoting.sol\":8754:8773  p.totalTokensStaked */\n      0x05\n      dup4\n      add\n      sload\n        /* \"src/QuadraticVoting.sol\":8669:8774  abi.encodeWithSignature(\"executeProposal(uint256,uint256,uint256)\", i, p.totalVotes, p.totalTokensStaked) */\n      mload(0x40)\n      0x24\n      dup2\n      add\n        /* \"#utility.yul\":17830:17855   */\n      dup7\n      swap1\n      mstore\n        /* \"#utility.yul\":17871:17889   */\n      0x44\n      dup2\n      add\n        /* \"#utility.yul\":17864:17898   */\n      swap3\n      swap1\n      swap3\n      mstore\n        /* \"#utility.yul\":17914:17932   */\n      0x64\n      dup3\n      add\n        /* \"#utility.yul\":17907:17941   */\n      mstore\n        /* \"src/QuadraticVoting.sol\":8590:8602  bool success */\n      0x00\n      swap2\n      sub(shl(0xa0, 0x01), 0x01)\n        /* \"src/QuadraticVoting.sol\":8608:8628  p.executableContract */\n      and\n      swap1\n        /* \"src/QuadraticVoting.sol\":8639:8645  100000 */\n      0x0186a0\n      swap1\n        /* \"#utility.yul\":17803:17821   */\n      0x84\n      add\n        /* \"src/QuadraticVoting.sol\":8669:8774  abi.encodeWithSignature(\"executeProposal(uint256,uint256,uint256)\", i, p.totalVotes, p.totalTokensStaked) */\n      0x40\n      dup1\n      mload\n      not(0x1f)\n      dup2\n      dup5\n      sub\n      add\n      dup2\n      mstore\n      swap2\n      dup2\n      mstore\n      0x20\n      dup3\n      add\n      dup1\n      mload\n      sub(shl(0xe0, 0x01), 0x01)\n      and\n      shl(0xe0, 0x986cc311)\n      or\n      swap1\n      mstore\n        /* \"src/QuadraticVoting.sol\":8608:8793  p.executableContract.call{gas: 100000}(... */\n      mload\n      tag_295\n      swap2\n        /* \"src/QuadraticVoting.sol\":8669:8774  abi.encodeWithSignature(\"executeProposal(uint256,uint256,uint256)\", i, p.totalVotes, p.totalTokensStaked) */\n      swap1\n        /* \"src/QuadraticVoting.sol\":8608:8793  p.executableContract.call{gas: 100000}(... */\n      tag_296\n      jump\t// in\n    tag_295:\n      0x00\n      mload(0x40)\n      dup1\n      dup4\n      sub\n      dup2\n      0x00\n      dup8\n      dup8\n      call\n      swap3\n      pop\n      pop\n      pop\n      returndatasize\n      dup1\n      0x00\n      dup2\n      eq\n      tag_299\n      jumpi\n      mload(0x40)\n      swap2\n      pop\n      and(add(returndatasize, 0x3f), not(0x1f))\n      dup3\n      add\n      0x40\n      mstore\n      returndatasize\n      dup3\n      mstore\n      returndatasize\n      0x00\n      0x20\n      dup5\n      add\n      returndatacopy\n      jump(tag_298)\n    tag_299:\n      0x60\n      swap2\n      pop\n    tag_298:\n      pop\n        /* \"src/QuadraticVoting.sol\":8589:8793  (bool success, ) = p.executableContract.call{gas: 100000}(... */\n      pop\n      swap1\n      pop\n        /* \"src/QuadraticVoting.sol\":8877:8901  _returnTokensToVoters(i) */\n      tag_300\n        /* \"src/QuadraticVoting.sol\":8899:8900  i */\n      dup4\n        /* \"src/QuadraticVoting.sol\":8877:8898  _returnTokensToVoters */\n      tag_301\n        /* \"src/QuadraticVoting.sol\":8877:8901  _returnTokensToVoters(i) */\n      jump\t// in\n    tag_300:\n        /* \"src/QuadraticVoting.sol\":8570:8917  {... */\n      pop\n        /* \"src/QuadraticVoting.sol\":8551:9115  if (p.isSignaling) {... */\n      jump(tag_311)\n    tag_292:\n        /* \"src/QuadraticVoting.sol\":8939:8961  ProposalStatus.Pending */\n      0x00\n        /* \"src/QuadraticVoting.sol\":8927:8935  p.status */\n      0x03\n      dup3\n      add\n      sload\n      shl(0xa0, 0x01)\n      swap1\n      div\n      0xff\n      and\n        /* \"src/QuadraticVoting.sol\":8927:8961  p.status == ProposalStatus.Pending */\n      0x02\n      dup2\n      gt\n      iszero\n      tag_306\n      jumpi\n      tag_306\n      tag_186\n      jump\t// in\n    tag_306:\n      sub\n        /* \"src/QuadraticVoting.sol\":8923:9115  if (p.status == ProposalStatus.Pending) {... */\n      tag_311\n      jumpi\n        /* \"src/QuadraticVoting.sol\":8982:8990  p.status */\n      0x03\n      dup2\n      add\n        /* \"src/QuadraticVoting.sol\":8982:9016  p.status = ProposalStatus.Canceled */\n      dup1\n      sload\n      not(shl(0xa0, 0xff))\n      and\n      shl(0xa1, 0x01)\n      or\n      swap1\n      sstore\n        /* \"src/QuadraticVoting.sol\":9035:9054  numPendingProposals */\n      0x06\n        /* \"src/QuadraticVoting.sol\":9035:9056  numPendingProposals-- */\n      dup1\n      sload\n      swap1\n      0x00\n      tag_310\n      dup4\n      tag_153\n      jump\t// in\n    tag_310:\n      swap2\n      swap1\n      pop\n      sstore\n      pop\n        /* \"src/QuadraticVoting.sol\":9075:9099  _returnTokensToVoters(i) */\n      tag_311\n        /* \"src/QuadraticVoting.sol\":9097:9098  i */\n      dup3\n        /* \"src/QuadraticVoting.sol\":9075:9096  _returnTokensToVoters */\n      tag_301\n        /* \"src/QuadraticVoting.sol\":9075:9099  _returnTokensToVoters(i) */\n      jump\t// in\n    tag_311:\n      pop\n        /* \"src/QuadraticVoting.sol\":8483:8486  i++ */\n      0x01\n      add\n        /* \"src/QuadraticVoting.sol\":8443:9126  for (uint256 i = 0; i < nextProposalId; i++) {... */\n      jump(tag_289)\n    tag_290:\n      pop\n        /* \"src/QuadraticVoting.sol\":9158:9169  totalBudget */\n      0x03\n      dup1\n      sload\n        /* \"src/QuadraticVoting.sol\":9138:9155  uint256 remaining */\n      0x00\n        /* \"src/QuadraticVoting.sol\":9180:9195  totalBudget = 0 */\n      swap1\n      swap2\n      sstore\n        /* \"src/QuadraticVoting.sol\":9210:9223  remaining > 0 */\n      dup1\n      iszero\n        /* \"src/QuadraticVoting.sol\":9206:9355  if (remaining > 0) {... */\n      tag_312\n      jumpi\n        /* \"src/QuadraticVoting.sol\":9241:9253  bool success */\n      0x00\n        /* \"src/QuadraticVoting.sol\":9259:9264  owner */\n      dup1\n      sload\n        /* \"src/QuadraticVoting.sol\":9259:9291  owner.call{value: remaining}(\"\") */\n      mload(0x40)\n      sub(shl(0xa0, 0x01), 0x01)\n        /* \"src/QuadraticVoting.sol\":9259:9264  owner */\n      swap1\n      swap2\n      and\n      swap1\n        /* \"src/QuadraticVoting.sol\":9277:9286  remaining */\n      dup4\n      swap1\n        /* \"src/QuadraticVoting.sol\":9241:9253  bool success */\n      dup4\n        /* \"src/QuadraticVoting.sol\":9259:9291  owner.call{value: remaining}(\"\") */\n      dup2\n        /* \"src/QuadraticVoting.sol\":9241:9253  bool success */\n      dup2\n        /* \"src/QuadraticVoting.sol\":9259:9291  owner.call{value: remaining}(\"\") */\n      dup2\n        /* \"src/QuadraticVoting.sol\":9277:9286  remaining */\n      dup6\n        /* \"src/QuadraticVoting.sol\":9259:9264  owner */\n      dup8\n        /* \"src/QuadraticVoting.sol\":9259:9291  owner.call{value: remaining}(\"\") */\n      gas\n      call\n      swap3\n      pop\n      pop\n      pop\n      returndatasize\n      dup1\n      0x00\n      dup2\n      eq\n      tag_316\n      jumpi\n      mload(0x40)\n      swap2\n      pop\n      and(add(returndatasize, 0x3f), not(0x1f))\n      dup3\n      add\n      0x40\n      mstore\n      returndatasize\n      dup3\n      mstore\n      returndatasize\n      0x00\n      0x20\n      dup5\n      add\n      returndatacopy\n      jump(tag_315)\n    tag_316:\n      0x60\n      swap2\n      pop\n    tag_315:\n      pop\n        /* \"src/QuadraticVoting.sol\":9240:9291  (bool success, ) = owner.call{value: remaining}(\"\") */\n      pop\n      swap1\n      pop\n        /* \"src/QuadraticVoting.sol\":9314:9321  success */\n      dup1\n        /* \"src/QuadraticVoting.sol\":9306:9343  require(success, \"Error liquidacion\") */\n      tag_317\n      jumpi\n      mload(0x40)\n      shl(0xe5, 0x461bcd)\n      dup2\n      mstore\n        /* \"#utility.yul\":18460:18462   */\n      0x20\n        /* \"src/QuadraticVoting.sol\":9306:9343  require(success, \"Error liquidacion\") */\n      0x04\n      dup3\n      add\n        /* \"#utility.yul\":18442:18463   */\n      mstore\n        /* \"#utility.yul\":18499:18501   */\n      0x11\n        /* \"#utility.yul\":18479:18497   */\n      0x24\n      dup3\n      add\n        /* \"#utility.yul\":18472:18502   */\n      mstore\n      shl(0x79, 0x22b93937b9103634b8bab4b230b1b4b7b7)\n        /* \"#utility.yul\":18518:18536   */\n      0x44\n      dup3\n      add\n        /* \"#utility.yul\":18511:18558   */\n      mstore\n        /* \"#utility.yul\":18575:18593   */\n      0x64\n      add\n        /* \"src/QuadraticVoting.sol\":9306:9343  require(success, \"Error liquidacion\") */\n      tag_150\n        /* \"#utility.yul\":18258:18599   */\n      jump\n        /* \"src/QuadraticVoting.sol\":9306:9343  require(success, \"Error liquidacion\") */\n    tag_317:\n        /* \"src/QuadraticVoting.sol\":9225:9355  {... */\n      pop\n        /* \"src/QuadraticVoting.sol\":9206:9355  if (remaining > 0) {... */\n    tag_312:\n        /* \"src/QuadraticVoting.sol\":8334:9362  {... */\n      pop\n        /* \"src/QuadraticVoting.sol\":8302:9362  function closeVoting() external {... */\n      jump\t// out\n        /* \"src/QuadraticVoting.sol\":9961:10126  function buyTokens() external payable {... */\n    tag_118:\n        /* \"src/QuadraticVoting.sol\":10032:10042  msg.sender */\n      caller\n        /* \"src/QuadraticVoting.sol\":10018:10043  isParticipant[msg.sender] */\n      0x00\n      swap1\n      dup2\n      mstore\n        /* \"src/QuadraticVoting.sol\":10018:10031  isParticipant */\n      0x0b\n        /* \"src/QuadraticVoting.sol\":10018:10043  isParticipant[msg.sender] */\n      0x20\n      mstore\n      0x40\n      swap1\n      keccak256\n      sload\n      0xff\n      and\n        /* \"src/QuadraticVoting.sol\":10010:10058  require(isParticipant[msg.sender], \"Inscribase\") */\n      tag_321\n      jumpi\n      mload(0x40)\n      shl(0xe5, 0x461bcd)\n      dup2\n      mstore\n        /* \"#utility.yul\":18806:18808   */\n      0x20\n        /* \"src/QuadraticVoting.sol\":10010:10058  require(isParticipant[msg.sender], \"Inscribase\") */\n      0x04\n      dup3\n      add\n        /* \"#utility.yul\":18788:18809   */\n      mstore\n        /* \"#utility.yul\":18845:18847   */\n      0x0a\n        /* \"#utility.yul\":18825:18843   */\n      0x24\n      dup3\n      add\n        /* \"#utility.yul\":18818:18848   */\n      mstore\n      shl(0xb0, 0x496e7363726962617365)\n        /* \"#utility.yul\":18864:18882   */\n      0x44\n      dup3\n      add\n        /* \"#utility.yul\":18857:18897   */\n      mstore\n        /* \"#utility.yul\":18914:18932   */\n      0x64\n      add\n        /* \"src/QuadraticVoting.sol\":10010:10058  require(isParticipant[msg.sender], \"Inscribase\") */\n      tag_150\n        /* \"#utility.yul\":18604:18938   */\n      jump\n        /* \"src/QuadraticVoting.sol\":10010:10058  require(isParticipant[msg.sender], \"Inscribase\") */\n    tag_321:\n        /* \"src/QuadraticVoting.sol\":10069:10074  token */\n      sload(0x01)\n        /* \"src/QuadraticVoting.sol\":10104:10117  tokenPriceWei */\n      sload(0x02)\n      sub(shl(0xa0, 0x01), 0x01)\n        /* \"src/QuadraticVoting.sol\":10069:10074  token */\n      swap1\n      swap2\n      and\n      swap1\n        /* \"src/QuadraticVoting.sol\":10069:10079  token.mint */\n      0x40c10f19\n      swap1\n        /* \"src/QuadraticVoting.sol\":10080:10090  msg.sender */\n      caller\n      swap1\n        /* \"src/QuadraticVoting.sol\":10092:10117  msg.value / tokenPriceWei */\n      tag_324\n      swap1\n        /* \"src/QuadraticVoting.sol\":10092:10101  msg.value */\n      callvalue\n        /* \"src/QuadraticVoting.sol\":10092:10117  msg.value / tokenPriceWei */\n      tag_325\n      jump\t// in\n    tag_324:\n        /* \"src/QuadraticVoting.sol\":10069:10118  token.mint(msg.sender, msg.value / tokenPriceWei) */\n      mload(0x40)\n      not(sub(shl(0xe0, 0x01), 0x01))\n      0xe0\n      dup6\n      swap1\n      shl\n      and\n      dup2\n      mstore\n      sub(shl(0xa0, 0x01), 0x01)\n        /* \"#utility.yul\":8614:8646   */\n      swap1\n      swap3\n      and\n        /* \"src/QuadraticVoting.sol\":10069:10118  token.mint(msg.sender, msg.value / tokenPriceWei) */\n      0x04\n      dup4\n      add\n        /* \"#utility.yul\":8596:8647   */\n      mstore\n        /* \"#utility.yul\":8663:8681   */\n      0x24\n      dup3\n      add\n        /* \"#utility.yul\":8656:8690   */\n      mstore\n        /* \"#utility.yul\":8569:8587   */\n      0x44\n      add\n        /* \"src/QuadraticVoting.sol\":10069:10118  token.mint(msg.sender, msg.value / tokenPriceWei) */\n      0x00\n      mload(0x40)\n      dup1\n      dup4\n      sub\n      dup2\n      0x00\n      dup8\n      dup1\n      extcodesize\n      iszero\n      dup1\n      iszero\n      tag_327\n      jumpi\n      revert(0x00, 0x00)\n    tag_327:\n      pop\n      gas\n      call\n      iszero\n      dup1\n      iszero\n      tag_329\n      jumpi\n      returndatacopy(0x00, 0x00, returndatasize)\n      revert(0x00, returndatasize)\n    tag_329:\n      pop\n      pop\n      pop\n      pop\n        /* \"src/QuadraticVoting.sol\":9961:10126  function buyTokens() external payable {... */\n      jump\t// out\n        /* \"src/QuadraticVoting.sol\":3748:4156  function cancelProposal(uint256 _id) external {... */\n    tag_126:\n        /* \"src/QuadraticVoting.sol\":3813:3823  votingOpen */\n      and(0xff, sload(0x04))\n        /* \"src/QuadraticVoting.sol\":3805:3835  require(votingOpen, \"Cerrada\") */\n      tag_331\n      jumpi\n      mload(0x40)\n      shl(0xe5, 0x461bcd)\n      dup2\n      mstore\n        /* \"#utility.yul\":13705:13707   */\n      0x20\n        /* \"src/QuadraticVoting.sol\":3805:3835  require(votingOpen, \"Cerrada\") */\n      0x04\n      dup3\n      add\n        /* \"#utility.yul\":13687:13708   */\n      mstore\n        /* \"#utility.yul\":13744:13745   */\n      0x07\n        /* \"#utility.yul\":13724:13742   */\n      0x24\n      dup3\n      add\n        /* \"#utility.yul\":13717:13746   */\n      mstore\n      shl(0xc8, 0x43657272616461)\n        /* \"#utility.yul\":13762:13780   */\n      0x44\n      dup3\n      add\n        /* \"#utility.yul\":13755:13792   */\n      mstore\n        /* \"#utility.yul\":13809:13827   */\n      0x64\n      add\n        /* \"src/QuadraticVoting.sol\":3805:3835  require(votingOpen, \"Cerrada\") */\n      tag_150\n        /* \"#utility.yul\":13503:13833   */\n      jump\n        /* \"src/QuadraticVoting.sol\":3805:3835  require(votingOpen, \"Cerrada\") */\n    tag_331:\n        /* \"src/QuadraticVoting.sol\":3846:3864  Proposal storage p */\n      0x00\n        /* \"src/QuadraticVoting.sol\":3867:3881  proposals[_id] */\n      dup2\n      dup2\n      mstore\n        /* \"src/QuadraticVoting.sol\":3867:3876  proposals */\n      0x08\n        /* \"src/QuadraticVoting.sol\":3867:3881  proposals[_id] */\n      0x20\n      mstore\n      0x40\n      swap1\n      keccak256\n        /* \"src/QuadraticVoting.sol\":3914:3923  p.creator */\n      0x06\n      dup2\n      add\n      sload\n      sub(shl(0xa0, 0x01), 0x01)\n      and\n        /* \"src/QuadraticVoting.sol\":3900:3910  msg.sender */\n      caller\n        /* \"src/QuadraticVoting.sol\":3900:3923  msg.sender == p.creator */\n      eq\n        /* \"src/QuadraticVoting.sol\":3892:3941  require(msg.sender == p.creator, \"Solo el autor\") */\n      tag_333\n      jumpi\n      mload(0x40)\n      shl(0xe5, 0x461bcd)\n      dup2\n      mstore\n        /* \"#utility.yul\":19367:19369   */\n      0x20\n        /* \"src/QuadraticVoting.sol\":3892:3941  require(msg.sender == p.creator, \"Solo el autor\") */\n      0x04\n      dup3\n      add\n        /* \"#utility.yul\":19349:19370   */\n      mstore\n        /* \"#utility.yul\":19406:19408   */\n      0x0d\n        /* \"#utility.yul\":19386:19404   */\n      0x24\n      dup3\n      add\n        /* \"#utility.yul\":19379:19409   */\n      mstore\n      shl(0x99, 0x29b7b6379032b61030baba37b9)\n        /* \"#utility.yul\":19425:19443   */\n      0x44\n      dup3\n      add\n        /* \"#utility.yul\":19418:19461   */\n      mstore\n        /* \"#utility.yul\":19478:19496   */\n      0x64\n      add\n        /* \"src/QuadraticVoting.sol\":3892:3941  require(msg.sender == p.creator, \"Solo el autor\") */\n      tag_150\n        /* \"#utility.yul\":19165:19502   */\n      jump\n        /* \"src/QuadraticVoting.sol\":3892:3941  require(msg.sender == p.creator, \"Solo el autor\") */\n    tag_333:\n        /* \"src/QuadraticVoting.sol\":3972:3994  ProposalStatus.Pending */\n      0x00\n        /* \"src/QuadraticVoting.sol\":3960:3968  p.status */\n      0x03\n      dup3\n      add\n      sload\n      shl(0xa0, 0x01)\n      swap1\n      div\n      0xff\n      and\n        /* \"src/QuadraticVoting.sol\":3960:3994  p.status == ProposalStatus.Pending */\n      0x02\n      dup2\n      gt\n      iszero\n      tag_339\n      jumpi\n      tag_339\n      tag_186\n      jump\t// in\n    tag_339:\n      eq\n        /* \"src/QuadraticVoting.sol\":3952:4012  require(p.status == ProposalStatus.Pending, \"Ya finalizada\") */\n      tag_340\n      jumpi\n      mload(0x40)\n      shl(0xe5, 0x461bcd)\n      dup2\n      mstore\n        /* \"#utility.yul\":19709:19711   */\n      0x20\n        /* \"src/QuadraticVoting.sol\":3952:4012  require(p.status == ProposalStatus.Pending, \"Ya finalizada\") */\n      0x04\n      dup3\n      add\n        /* \"#utility.yul\":19691:19712   */\n      mstore\n        /* \"#utility.yul\":19748:19750   */\n      0x0d\n        /* \"#utility.yul\":19728:19746   */\n      0x24\n      dup3\n      add\n        /* \"#utility.yul\":19721:19751   */\n      mstore\n      shl(0x98, 0x59612066696e616c697a616461)\n        /* \"#utility.yul\":19767:19785   */\n      0x44\n      dup3\n      add\n        /* \"#utility.yul\":19760:19803   */\n      mstore\n        /* \"#utility.yul\":19820:19838   */\n      0x64\n      add\n        /* \"src/QuadraticVoting.sol\":3952:4012  require(p.status == ProposalStatus.Pending, \"Ya finalizada\") */\n      tag_150\n        /* \"#utility.yul\":19507:19844   */\n      jump\n        /* \"src/QuadraticVoting.sol\":3952:4012  require(p.status == ProposalStatus.Pending, \"Ya finalizada\") */\n    tag_340:\n        /* \"src/QuadraticVoting.sol\":4025:4033  p.status */\n      0x03\n      dup2\n      add\n        /* \"src/QuadraticVoting.sol\":4025:4059  p.status = ProposalStatus.Canceled */\n      dup1\n      sload\n      not(shl(0xa0, 0xff))\n      and\n      shl(0xa1, 0x01)\n      or\n      swap1\n      sstore\n        /* \"src/QuadraticVoting.sol\":4075:4088  p.isSignaling */\n      0x06\n      dup2\n      add\n      sload\n      shl(0xa0, 0x01)\n      swap1\n      div\n      0xff\n      and\n        /* \"src/QuadraticVoting.sol\":4070:4111  if (!p.isSignaling) numPendingProposals-- */\n      tag_345\n      jumpi\n        /* \"src/QuadraticVoting.sol\":4090:4109  numPendingProposals */\n      0x06\n        /* \"src/QuadraticVoting.sol\":4090:4111  numPendingProposals-- */\n      dup1\n      sload\n      swap1\n        /* \"src/QuadraticVoting.sol\":4090:4109  numPendingProposals */\n      0x00\n        /* \"src/QuadraticVoting.sol\":4090:4111  numPendingProposals-- */\n      tag_346\n      dup4\n      tag_153\n      jump\t// in\n    tag_346:\n      swap2\n      swap1\n      pop\n      sstore\n      pop\n        /* \"src/QuadraticVoting.sol\":4070:4111  if (!p.isSignaling) numPendingProposals-- */\n    tag_345:\n        /* \"src/QuadraticVoting.sol\":4122:4148  _returnTokensToVoters(_id) */\n      tag_317\n        /* \"src/QuadraticVoting.sol\":4144:4147  _id */\n      dup3\n        /* \"src/QuadraticVoting.sol\":4122:4143  _returnTokensToVoters */\n      tag_301\n        /* \"src/QuadraticVoting.sol\":4122:4148  _returnTokensToVoters(_id) */\n      jump\t// in\n        /* \"src/QuadraticVoting.sol\":2091:2485  function addParticipant() external payable {... */\n    tag_133:\n        /* \"src/QuadraticVoting.sol\":2166:2179  tokenPriceWei */\n      sload(0x02)\n        /* \"src/QuadraticVoting.sol\":2153:2162  msg.value */\n      callvalue\n        /* \"src/QuadraticVoting.sol\":2153:2179  msg.value >= tokenPriceWei */\n      lt\n      iszero\n        /* \"src/QuadraticVoting.sol\":2145:2198  require(msg.value >= tokenPriceWei, \"Minimo 1 token\") */\n      tag_349\n      jumpi\n      mload(0x40)\n      shl(0xe5, 0x461bcd)\n      dup2\n      mstore\n        /* \"#utility.yul\":20051:20053   */\n      0x20\n        /* \"src/QuadraticVoting.sol\":2145:2198  require(msg.value >= tokenPriceWei, \"Minimo 1 token\") */\n      0x04\n      dup3\n      add\n        /* \"#utility.yul\":20033:20054   */\n      mstore\n        /* \"#utility.yul\":20090:20092   */\n      0x0e\n        /* \"#utility.yul\":20070:20088   */\n      0x24\n      dup3\n      add\n        /* \"#utility.yul\":20063:20093   */\n      mstore\n      shl(0x91, 0x26b4b734b6b79018903a37b5b2b7)\n        /* \"#utility.yul\":20109:20127   */\n      0x44\n      dup3\n      add\n        /* \"#utility.yul\":20102:20146   */\n      mstore\n        /* \"#utility.yul\":20163:20181   */\n      0x64\n      add\n        /* \"src/QuadraticVoting.sol\":2145:2198  require(msg.value >= tokenPriceWei, \"Minimo 1 token\") */\n      tag_150\n        /* \"#utility.yul\":19849:20187   */\n      jump\n        /* \"src/QuadraticVoting.sol\":2145:2198  require(msg.value >= tokenPriceWei, \"Minimo 1 token\") */\n    tag_349:\n        /* \"src/QuadraticVoting.sol\":2228:2238  msg.sender */\n      caller\n        /* \"src/QuadraticVoting.sol\":2214:2239  isParticipant[msg.sender] */\n      0x00\n      swap1\n      dup2\n      mstore\n        /* \"src/QuadraticVoting.sol\":2214:2227  isParticipant */\n      0x0b\n        /* \"src/QuadraticVoting.sol\":2214:2239  isParticipant[msg.sender] */\n      0x20\n      mstore\n      0x40\n      swap1\n      keccak256\n      sload\n      0xff\n      and\n        /* \"src/QuadraticVoting.sol\":2209:2332  if (!isParticipant[msg.sender]) {... */\n      tag_352\n      jumpi\n        /* \"src/QuadraticVoting.sol\":2270:2280  msg.sender */\n      caller\n        /* \"src/QuadraticVoting.sol\":2256:2281  isParticipant[msg.sender] */\n      0x00\n      swap1\n      dup2\n      mstore\n        /* \"src/QuadraticVoting.sol\":2256:2269  isParticipant */\n      0x0b\n        /* \"src/QuadraticVoting.sol\":2256:2281  isParticipant[msg.sender] */\n      0x20\n      mstore\n      0x40\n      dup2\n      keccak256\n        /* \"src/QuadraticVoting.sol\":2256:2288  isParticipant[msg.sender] = true */\n      dup1\n      sload\n      not(0xff)\n      and\n        /* \"src/QuadraticVoting.sol\":2284:2288  true */\n      0x01\n        /* \"src/QuadraticVoting.sol\":2256:2288  isParticipant[msg.sender] = true */\n      or\n      swap1\n      sstore\n        /* \"src/QuadraticVoting.sol\":2303:2318  numParticipants */\n      0x05\n        /* \"src/QuadraticVoting.sol\":2303:2320  numParticipants++ */\n      dup1\n      sload\n      swap2\n      tag_353\n      dup4\n      tag_226\n      jump\t// in\n    tag_353:\n      swap2\n      swap1\n      pop\n      sstore\n      pop\n        /* \"src/QuadraticVoting.sol\":2209:2332  if (!isParticipant[msg.sender]) {... */\n    tag_352:\n        /* \"src/QuadraticVoting.sol\":2342:2356  uint256 amount */\n      0x00\n        /* \"src/QuadraticVoting.sol\":2371:2384  tokenPriceWei */\n      sload(0x02)\n        /* \"src/QuadraticVoting.sol\":2359:2368  msg.value */\n      callvalue\n        /* \"src/QuadraticVoting.sol\":2359:2384  msg.value / tokenPriceWei */\n      tag_354\n      swap2\n      swap1\n      tag_325\n      jump\t// in\n    tag_354:\n        /* \"src/QuadraticVoting.sol\":2395:2400  token */\n      sload(0x01)\n        /* \"src/QuadraticVoting.sol\":2395:2425  token.mint(msg.sender, amount) */\n      mload(0x40)\n      shl(0xe0, 0x40c10f19)\n      dup2\n      mstore\n        /* \"src/QuadraticVoting.sol\":2406:2416  msg.sender */\n      caller\n        /* \"src/QuadraticVoting.sol\":2395:2425  token.mint(msg.sender, amount) */\n      0x04\n      dup3\n      add\n        /* \"#utility.yul\":8596:8647   */\n      mstore\n        /* \"#utility.yul\":8663:8681   */\n      0x24\n      dup2\n      add\n        /* \"#utility.yul\":8656:8690   */\n      dup4\n      swap1\n      mstore\n        /* \"src/QuadraticVoting.sol\":2342:2384  uint256 amount = msg.value / tokenPriceWei */\n      swap2\n      swap3\n      pop\n      sub(shl(0xa0, 0x01), 0x01)\n        /* \"src/QuadraticVoting.sol\":2395:2400  token */\n      and\n      swap1\n        /* \"src/QuadraticVoting.sol\":2395:2405  token.mint */\n      0x40c10f19\n      swap1\n        /* \"#utility.yul\":8569:8587   */\n      0x44\n      add\n        /* \"src/QuadraticVoting.sol\":2395:2425  token.mint(msg.sender, amount) */\n      0x00\n      mload(0x40)\n      dup1\n      dup4\n      sub\n      dup2\n      0x00\n      dup8\n      dup1\n      extcodesize\n      iszero\n      dup1\n      iszero\n      tag_356\n      jumpi\n      revert(0x00, 0x00)\n    tag_356:\n      pop\n      gas\n      call\n      iszero\n      dup1\n      iszero\n      tag_358\n      jumpi\n      returndatacopy(0x00, 0x00, returndatasize)\n      revert(0x00, returndatasize)\n    tag_358:\n      pop\n      pop\n        /* \"src/QuadraticVoting.sol\":2441:2477  ParticipantAdded(msg.sender, amount) */\n      mload(0x40)\n        /* \"#utility.yul\":2059:2084   */\n      dup4\n      dup2\n      mstore\n        /* \"src/QuadraticVoting.sol\":2458:2468  msg.sender */\n      caller\n      swap3\n      pop\n        /* \"src/QuadraticVoting.sol\":2441:2477  ParticipantAdded(msg.sender, amount) */\n      0x287ab65235aa9a0baeed5b973fda48c77ebdc6f3dd931cfda1c082c0aecc1e73\n      swap2\n      pop\n        /* \"#utility.yul\":2047:2049   */\n      0x20\n        /* \"#utility.yul\":2032:2050   */\n      add\n        /* \"src/QuadraticVoting.sol\":2441:2477  ParticipantAdded(msg.sender, amount) */\n      mload(0x40)\n      dup1\n      swap2\n      sub\n      swap1\n      log2\n        /* \"src/QuadraticVoting.sol\":2134:2485  {... */\n      pop\n        /* \"src/QuadraticVoting.sol\":2091:2485  function addParticipant() external payable {... */\n      jump\t// out\n        /* \"src/QuadraticVoting.sol\":7645:8247  function _getProposalsByStatus(ProposalStatus _status, bool _onlySignaling) internal view returns (uint256[] memory) {... */\n    tag_147:\n        /* \"src/QuadraticVoting.sol\":7744:7760  uint256[] memory */\n      0x60\n        /* \"src/QuadraticVoting.sol\":7773:7786  uint256 count */\n      0x00\n      dup1\n        /* \"src/QuadraticVoting.sol\":7801:7957  for(uint256 i=0; i<nextProposalId; i++) {... */\n    tag_361:\n        /* \"src/QuadraticVoting.sol\":7820:7834  nextProposalId */\n      sload(0x07)\n        /* \"src/QuadraticVoting.sol\":7818:7819  i */\n      dup2\n        /* \"src/QuadraticVoting.sol\":7818:7834  i<nextProposalId */\n      lt\n        /* \"src/QuadraticVoting.sol\":7801:7957  for(uint256 i=0; i<nextProposalId; i++) {... */\n      iszero\n      tag_362\n      jumpi\n        /* \"src/QuadraticVoting.sol\":7883:7890  _status */\n      dup5\n        /* \"src/QuadraticVoting.sol\":7860:7890  proposals[i].status == _status */\n      0x02\n      dup2\n      gt\n      iszero\n      tag_365\n      jumpi\n      tag_365\n      tag_186\n      jump\t// in\n    tag_365:\n        /* \"src/QuadraticVoting.sol\":7860:7872  proposals[i] */\n      0x00\n      dup3\n      dup2\n      mstore\n        /* \"src/QuadraticVoting.sol\":7860:7869  proposals */\n      0x08\n        /* \"src/QuadraticVoting.sol\":7860:7872  proposals[i] */\n      0x20\n      mstore\n      0x40\n      swap1\n      keccak256\n        /* \"src/QuadraticVoting.sol\":7860:7879  proposals[i].status */\n      0x03\n      add\n      sload\n      shl(0xa0, 0x01)\n      swap1\n      div\n      0xff\n      and\n        /* \"src/QuadraticVoting.sol\":7860:7890  proposals[i].status == _status */\n      0x02\n      dup2\n      gt\n      iszero\n      tag_367\n      jumpi\n      tag_367\n      tag_186\n      jump\t// in\n    tag_367:\n      eq\n        /* \"src/QuadraticVoting.sol\":7860:7936  proposals[i].status == _status && proposals[i].isSignaling == _onlySignaling */\n      dup1\n      iszero\n      tag_368\n      jumpi\n      pop\n        /* \"src/QuadraticVoting.sol\":7894:7906  proposals[i] */\n      0x00\n      dup2\n      dup2\n      mstore\n        /* \"src/QuadraticVoting.sol\":7894:7903  proposals */\n      0x08\n        /* \"src/QuadraticVoting.sol\":7894:7906  proposals[i] */\n      0x20\n      mstore\n      0x40\n      swap1\n      keccak256\n        /* \"src/QuadraticVoting.sol\":7894:7918  proposals[i].isSignaling */\n      0x06\n      add\n      sload\n      0xff\n      shl(0xa0, 0x01)\n      swap1\n      swap2\n      div\n      and\n        /* \"src/QuadraticVoting.sol\":7894:7936  proposals[i].isSignaling == _onlySignaling */\n      iszero\n      iszero\n      dup5\n      iszero\n      iszero\n      eq\n        /* \"src/QuadraticVoting.sol\":7860:7936  proposals[i].status == _status && proposals[i].isSignaling == _onlySignaling */\n    tag_368:\n        /* \"src/QuadraticVoting.sol\":7856:7945  if (proposals[i].status == _status && proposals[i].isSignaling == _onlySignaling) count++ */\n      iszero\n      tag_369\n      jumpi\n        /* \"src/QuadraticVoting.sol\":7938:7945  count++ */\n      dup2\n      tag_370\n      dup2\n      tag_226\n      jump\t// in\n    tag_370:\n      swap3\n      pop\n      pop\n        /* \"src/QuadraticVoting.sol\":7856:7945  if (proposals[i].status == _status && proposals[i].isSignaling == _onlySignaling) count++ */\n    tag_369:\n        /* \"src/QuadraticVoting.sol\":7836:7839  i++ */\n      0x01\n      add\n        /* \"src/QuadraticVoting.sol\":7801:7957  for(uint256 i=0; i<nextProposalId; i++) {... */\n      jump(tag_361)\n    tag_362:\n      pop\n        /* \"src/QuadraticVoting.sol\":7967:7990  uint256[] memory result */\n      0x00\n        /* \"src/QuadraticVoting.sol\":8007:8012  count */\n      dup2\n        /* \"src/QuadraticVoting.sol\":7993:8013  new uint256[](count) */\n      0xffffffffffffffff\n      dup2\n      gt\n      iszero\n      tag_372\n      jumpi\n      tag_372\n      tag_229\n      jump\t// in\n    tag_372:\n      mload(0x40)\n      swap1\n      dup1\n      dup3\n      mstore\n      dup1\n      0x20\n      mul\n      0x20\n      add\n      dup3\n      add\n      0x40\n      mstore\n      dup1\n      iszero\n      tag_373\n      jumpi\n      dup2\n      0x20\n      add\n      0x20\n      dup3\n      mul\n      dup1\n      calldatasize\n      dup4\n      calldatacopy\n      add\n      swap1\n      pop\n    tag_373:\n      pop\n        /* \"src/QuadraticVoting.sol\":7967:8013  uint256[] memory result = new uint256[](count) */\n      swap1\n      pop\n        /* \"src/QuadraticVoting.sol\":8024:8035  uint256 idx */\n      0x00\n      dup1\n        /* \"src/QuadraticVoting.sol\":8050:8216  for(uint256 i=0; i<nextProposalId; i++) {... */\n    tag_374:\n        /* \"src/QuadraticVoting.sol\":8069:8083  nextProposalId */\n      sload(0x07)\n        /* \"src/QuadraticVoting.sol\":8067:8068  i */\n      dup2\n        /* \"src/QuadraticVoting.sol\":8067:8083  i<nextProposalId */\n      lt\n        /* \"src/QuadraticVoting.sol\":8050:8216  for(uint256 i=0; i<nextProposalId; i++) {... */\n      iszero\n      tag_375\n      jumpi\n        /* \"src/QuadraticVoting.sol\":8132:8139  _status */\n      dup7\n        /* \"src/QuadraticVoting.sol\":8109:8139  proposals[i].status == _status */\n      0x02\n      dup2\n      gt\n      iszero\n      tag_378\n      jumpi\n      tag_378\n      tag_186\n      jump\t// in\n    tag_378:\n        /* \"src/QuadraticVoting.sol\":8109:8121  proposals[i] */\n      0x00\n      dup3\n      dup2\n      mstore\n        /* \"src/QuadraticVoting.sol\":8109:8118  proposals */\n      0x08\n        /* \"src/QuadraticVoting.sol\":8109:8121  proposals[i] */\n      0x20\n      mstore\n      0x40\n      swap1\n      keccak256\n        /* \"src/QuadraticVoting.sol\":8109:8128  proposals[i].status */\n      0x03\n      add\n      sload\n      shl(0xa0, 0x01)\n      swap1\n      div\n      0xff\n      and\n        /* \"src/QuadraticVoting.sol\":8109:8139  proposals[i].status == _status */\n      0x02\n      dup2\n      gt\n      iszero\n      tag_380\n      jumpi\n      tag_380\n      tag_186\n      jump\t// in\n    tag_380:\n      eq\n        /* \"src/QuadraticVoting.sol\":8109:8185  proposals[i].status == _status && proposals[i].isSignaling == _onlySignaling */\n      dup1\n      iszero\n      tag_381\n      jumpi\n      pop\n        /* \"src/QuadraticVoting.sol\":8143:8155  proposals[i] */\n      0x00\n      dup2\n      dup2\n      mstore\n        /* \"src/QuadraticVoting.sol\":8143:8152  proposals */\n      0x08\n        /* \"src/QuadraticVoting.sol\":8143:8155  proposals[i] */\n      0x20\n      mstore\n      0x40\n      swap1\n      keccak256\n        /* \"src/QuadraticVoting.sol\":8143:8167  proposals[i].isSignaling */\n      0x06\n      add\n      sload\n      0xff\n      shl(0xa0, 0x01)\n      swap1\n      swap2\n      div\n      and\n        /* \"src/QuadraticVoting.sol\":8143:8185  proposals[i].isSignaling == _onlySignaling */\n      iszero\n      iszero\n      dup7\n      iszero\n      iszero\n      eq\n        /* \"src/QuadraticVoting.sol\":8109:8185  proposals[i].status == _status && proposals[i].isSignaling == _onlySignaling */\n    tag_381:\n        /* \"src/QuadraticVoting.sol\":8105:8204  if (proposals[i].status == _status && proposals[i].isSignaling == _onlySignaling) result[idx++] = i */\n      iszero\n      tag_382\n      jumpi\n        /* \"src/QuadraticVoting.sol\":8203:8204  i */\n      dup1\n        /* \"src/QuadraticVoting.sol\":8187:8193  result */\n      dup4\n        /* \"src/QuadraticVoting.sol\":8194:8199  idx++ */\n      dup4\n      tag_383\n      dup2\n      tag_226\n      jump\t// in\n    tag_383:\n      swap5\n      pop\n        /* \"src/QuadraticVoting.sol\":8187:8200  result[idx++] */\n      dup2\n      mload\n      dup2\n      lt\n      tag_385\n      jumpi\n      tag_385\n      tag_238\n      jump\t// in\n    tag_385:\n      0x20\n      mul\n      0x20\n      add\n      add\n        /* \"src/QuadraticVoting.sol\":8187:8204  result[idx++] = i */\n      dup2\n      dup2\n      mstore\n      pop\n      pop\n        /* \"src/QuadraticVoting.sol\":8105:8204  if (proposals[i].status == _status && proposals[i].isSignaling == _onlySignaling) result[idx++] = i */\n    tag_382:\n        /* \"src/QuadraticVoting.sol\":8085:8088  i++ */\n      0x01\n      add\n        /* \"src/QuadraticVoting.sol\":8050:8216  for(uint256 i=0; i<nextProposalId; i++) {... */\n      jump(tag_374)\n    tag_375:\n      pop\n        /* \"src/QuadraticVoting.sol\":8233:8239  result */\n      swap1\n      swap3\n      pop\n      pop\n      pop\n        /* \"src/QuadraticVoting.sol\":7645:8247  function _getProposalsByStatus(ProposalStatus _status, bool _onlySignaling) internal view returns (uint256[] memory) {... */\n    tag_360:\n      swap3\n      swap2\n      pop\n      pop\n      jump\t// out\n        /* \"src/QuadraticVoting.sol\":5085:6124  function _checkAndExecuteProposal(uint256 _id) internal {... */\n    tag_216:\n        /* \"src/QuadraticVoting.sol\":5152:5170  Proposal storage p */\n      0x00\n        /* \"src/QuadraticVoting.sol\":5173:5187  proposals[_id] */\n      dup2\n      dup2\n      mstore\n        /* \"src/QuadraticVoting.sol\":5173:5182  proposals */\n      0x08\n        /* \"src/QuadraticVoting.sol\":5173:5187  proposals[_id] */\n      0x20\n      mstore\n      0x40\n      dup2\n      keccak256\n        /* \"src/QuadraticVoting.sol\":5244:5255  totalBudget */\n      sload(0x03)\n        /* \"src/QuadraticVoting.sol\":5225:5241  p.requiredBudget */\n      0x02\n      dup3\n      add\n      sload\n        /* \"src/QuadraticVoting.sol\":5173:5187  proposals[_id] */\n      swap2\n      swap3\n        /* \"src/QuadraticVoting.sol\":5152:5170  Proposal storage p */\n      swap2\n        /* \"src/QuadraticVoting.sol\":5220:5241  10 * p.requiredBudget */\n      tag_387\n      swap1\n        /* \"src/QuadraticVoting.sol\":5220:5222  10 */\n      0x0a\n        /* \"src/QuadraticVoting.sol\":5220:5241  10 * p.requiredBudget */\n      tag_165\n      jump\t// in\n    tag_387:\n        /* \"src/QuadraticVoting.sol\":5220:5255  10 * p.requiredBudget / totalBudget */\n      tag_388\n      swap2\n      swap1\n      tag_325\n      jump\t// in\n    tag_388:\n        /* \"src/QuadraticVoting.sol\":5215:5256  2 + (10 * p.requiredBudget / totalBudget) */\n      tag_389\n      swap1\n        /* \"src/QuadraticVoting.sol\":5215:5216  2 */\n      0x02\n        /* \"src/QuadraticVoting.sol\":5215:5256  2 + (10 * p.requiredBudget / totalBudget) */\n      tag_193\n      jump\t// in\n    tag_389:\n        /* \"src/QuadraticVoting.sol\":5198:5256  uint256 factor = 2 + (10 * p.requiredBudget / totalBudget) */\n      swap1\n      pop\n        /* \"src/QuadraticVoting.sol\":5267:5284  uint256 threshold */\n      0x00\n        /* \"src/QuadraticVoting.sol\":5340:5342  10 */\n      0x0a\n        /* \"src/QuadraticVoting.sol\":5316:5335  numPendingProposals */\n      sload(0x06)\n        /* \"src/QuadraticVoting.sol\":5298:5313  numParticipants */\n      sload(0x05)\n        /* \"src/QuadraticVoting.sol\":5298:5335  numParticipants + numPendingProposals */\n      tag_390\n      swap2\n      swap1\n      tag_193\n      jump\t// in\n    tag_390:\n        /* \"src/QuadraticVoting.sol\":5288:5336  factor * (numParticipants + numPendingProposals) */\n      tag_391\n      swap1\n        /* \"src/QuadraticVoting.sol\":5288:5294  factor */\n      dup5\n        /* \"src/QuadraticVoting.sol\":5288:5336  factor * (numParticipants + numPendingProposals) */\n      tag_165\n      jump\t// in\n    tag_391:\n        /* \"src/QuadraticVoting.sol\":5287:5342  (factor * (numParticipants + numPendingProposals)) / 10 */\n      tag_392\n      swap2\n      swap1\n      tag_325\n      jump\t// in\n    tag_392:\n        /* \"src/QuadraticVoting.sol\":5267:5342  uint256 threshold = (factor * (numParticipants + numPendingProposals)) / 10 */\n      swap1\n      pop\n        /* \"src/QuadraticVoting.sol\":5374:5383  threshold */\n      dup1\n        /* \"src/QuadraticVoting.sol\":5359:5360  p */\n      dup4\n        /* \"src/QuadraticVoting.sol\":5359:5371  p.totalVotes */\n      0x04\n      add\n      sload\n        /* \"src/QuadraticVoting.sol\":5359:5383  p.totalVotes > threshold */\n      gt\n        /* \"src/QuadraticVoting.sol\":5359:5418  p.totalVotes > threshold && totalBudget >= p.requiredBudget */\n      dup1\n      iszero\n      tag_393\n      jumpi\n      pop\n        /* \"src/QuadraticVoting.sol\":5402:5403  p */\n      dup3\n        /* \"src/QuadraticVoting.sol\":5402:5418  p.requiredBudget */\n      0x02\n      add\n      sload\n        /* \"src/QuadraticVoting.sol\":5387:5398  totalBudget */\n      sload(0x03)\n        /* \"src/QuadraticVoting.sol\":5387:5418  totalBudget >= p.requiredBudget */\n      lt\n      iszero\n        /* \"src/QuadraticVoting.sol\":5359:5418  p.totalVotes > threshold && totalBudget >= p.requiredBudget */\n    tag_393:\n        /* \"src/QuadraticVoting.sol\":5355:6117  if (p.totalVotes > threshold && totalBudget >= p.requiredBudget) {... */\n      iszero\n      tag_329\n      jumpi\n        /* \"src/QuadraticVoting.sol\":5435:5443  p.status */\n      0x03\n      dup4\n      add\n        /* \"src/QuadraticVoting.sol\":5435:5469  p.status = ProposalStatus.Approved */\n      dup1\n      sload\n      not(shl(0xa0, 0xff))\n      and\n      shl(0xa0, 0x01)\n      or\n      swap1\n      sstore\n        /* \"src/QuadraticVoting.sol\":5484:5503  numPendingProposals */\n      0x06\n        /* \"src/QuadraticVoting.sol\":5484:5505  numPendingProposals-- */\n      dup1\n      sload\n      swap1\n      0x00\n      tag_397\n      dup4\n      tag_153\n      jump\t// in\n    tag_397:\n      swap2\n      swap1\n      pop\n      sstore\n      pop\n        /* \"src/QuadraticVoting.sol\":5558:5571  tokenPriceWei */\n      sload(0x02)\n        /* \"src/QuadraticVoting.sol\":5536:5537  p */\n      dup4\n        /* \"src/QuadraticVoting.sol\":5536:5555  p.totalTokensStaked */\n      0x05\n      add\n      sload\n        /* \"src/QuadraticVoting.sol\":5536:5571  p.totalTokensStaked * tokenPriceWei */\n      tag_398\n      swap2\n      swap1\n      tag_165\n      jump\t// in\n    tag_398:\n        /* \"src/QuadraticVoting.sol\":5520:5531  totalBudget */\n      0x03\n      0x00\n        /* \"src/QuadraticVoting.sol\":5520:5572  totalBudget += (p.totalTokensStaked * tokenPriceWei) */\n      dup3\n      dup3\n      sload\n      tag_399\n      swap2\n      swap1\n      tag_193\n      jump\t// in\n    tag_399:\n      swap1\n      swap2\n      sstore\n      pop\n      pop\n        /* \"src/QuadraticVoting.sol\":5625:5641  p.requiredBudget */\n      0x02\n      dup4\n      add\n      sload\n        /* \"src/QuadraticVoting.sol\":5610:5621  totalBudget */\n      0x03\n        /* \"src/QuadraticVoting.sol\":5610:5641  totalBudget -= p.requiredBudget */\n      dup1\n      sload\n        /* \"src/QuadraticVoting.sol\":5610:5621  totalBudget */\n      0x00\n      swap1\n        /* \"src/QuadraticVoting.sol\":5610:5641  totalBudget -= p.requiredBudget */\n      tag_400\n      swap1\n        /* \"src/QuadraticVoting.sol\":5625:5641  p.requiredBudget */\n      dup5\n      swap1\n        /* \"src/QuadraticVoting.sol\":5610:5641  totalBudget -= p.requiredBudget */\n      tag_198\n      jump\t// in\n    tag_400:\n      swap1\n      swap2\n      sstore\n      pop\n      pop\n        /* \"src/QuadraticVoting.sol\":5681:5686  token */\n      sload(0x01)\n        /* \"src/QuadraticVoting.sol\":5707:5726  p.totalTokensStaked */\n      0x05\n      dup5\n      add\n      sload\n        /* \"src/QuadraticVoting.sol\":5681:5727  token.burn(address(this), p.totalTokensStaked) */\n      mload(0x40)\n      shl(0xe2, 0x2770a7eb)\n      dup2\n      mstore\n        /* \"src/QuadraticVoting.sol\":5700:5704  this */\n      address\n        /* \"src/QuadraticVoting.sol\":5681:5727  token.burn(address(this), p.totalTokensStaked) */\n      0x04\n      dup3\n      add\n        /* \"#utility.yul\":8596:8647   */\n      mstore\n        /* \"#utility.yul\":8663:8681   */\n      0x24\n      dup2\n      add\n        /* \"#utility.yul\":8656:8690   */\n      swap2\n      swap1\n      swap2\n      mstore\n      sub(shl(0xa0, 0x01), 0x01)\n        /* \"src/QuadraticVoting.sol\":5681:5686  token */\n      swap1\n      swap2\n      and\n      swap1\n        /* \"src/QuadraticVoting.sol\":5681:5691  token.burn */\n      0x9dc29fac\n      swap1\n        /* \"#utility.yul\":8569:8587   */\n      0x44\n      add\n        /* \"src/QuadraticVoting.sol\":5681:5727  token.burn(address(this), p.totalTokensStaked) */\n      0x00\n      mload(0x40)\n      dup1\n      dup4\n      sub\n      dup2\n      0x00\n      dup8\n      dup1\n      extcodesize\n      iszero\n      dup1\n      iszero\n      tag_402\n      jumpi\n      revert(0x00, 0x00)\n    tag_402:\n      pop\n      gas\n      call\n      iszero\n      dup1\n      iszero\n      tag_404\n      jumpi\n      returndatacopy(0x00, 0x00, returndatasize)\n      revert(0x00, returndatasize)\n    tag_404:\n      pop\n      pop\n      pop\n      pop\n        /* \"src/QuadraticVoting.sol\":5792:5812  p.executableContract */\n      0x03\n      dup4\n      add\n      sload\n        /* \"src/QuadraticVoting.sol\":5825:5841  p.requiredBudget */\n      0x02\n      dup5\n      add\n      sload\n        /* \"src/QuadraticVoting.sol\":5947:5959  p.totalVotes */\n      0x04\n      dup6\n      add\n      sload\n        /* \"src/QuadraticVoting.sol\":5961:5980  p.totalTokensStaked */\n      0x05\n      dup7\n      add\n      sload\n        /* \"src/QuadraticVoting.sol\":5874:5981  abi.encodeWithSignature(\"executeProposal(uint256,uint256,uint256)\", _id, p.totalVotes, p.totalTokensStaked) */\n      mload(0x40)\n      0x24\n      dup2\n      add\n        /* \"#utility.yul\":17830:17855   */\n      dup10\n      swap1\n      mstore\n        /* \"#utility.yul\":17871:17889   */\n      0x44\n      dup2\n      add\n        /* \"#utility.yul\":17864:17898   */\n      swap3\n      swap1\n      swap3\n      mstore\n        /* \"#utility.yul\":17914:17932   */\n      0x64\n      dup3\n      add\n        /* \"#utility.yul\":17907:17941   */\n      mstore\n        /* \"src/QuadraticVoting.sol\":5774:5786  bool success */\n      0x00\n      swap3\n      sub(shl(0xa0, 0x01), 0x01)\n        /* \"src/QuadraticVoting.sol\":5792:5812  p.executableContract */\n      and\n      swap2\n        /* \"src/QuadraticVoting.sol\":5848:5854  100000 */\n      0x0186a0\n      swap2\n        /* \"#utility.yul\":17803:17821   */\n      0x84\n      add\n        /* \"src/QuadraticVoting.sol\":5874:5981  abi.encodeWithSignature(\"executeProposal(uint256,uint256,uint256)\", _id, p.totalVotes, p.totalTokensStaked) */\n      0x40\n      dup1\n      mload\n      not(0x1f)\n      dup2\n      dup5\n      sub\n      add\n      dup2\n      mstore\n      swap2\n      dup2\n      mstore\n      0x20\n      dup3\n      add\n      dup1\n      mload\n      sub(shl(0xe0, 0x01), 0x01)\n      and\n      shl(0xe0, 0x986cc311)\n      or\n      swap1\n      mstore\n        /* \"src/QuadraticVoting.sol\":5792:5996  p.executableContract.call{value: p.requiredBudget, gas: 100000}(... */\n      mload\n      tag_406\n      swap2\n        /* \"src/QuadraticVoting.sol\":5874:5981  abi.encodeWithSignature(\"executeProposal(uint256,uint256,uint256)\", _id, p.totalVotes, p.totalTokensStaked) */\n      swap1\n        /* \"src/QuadraticVoting.sol\":5792:5996  p.executableContract.call{value: p.requiredBudget, gas: 100000}(... */\n      tag_296\n      jump\t// in\n    tag_406:\n      0x00\n      mload(0x40)\n      dup1\n      dup4\n      sub\n      dup2\n      dup6\n      dup9\n      dup9\n      call\n      swap4\n      pop\n      pop\n      pop\n      pop\n      returndatasize\n      dup1\n      0x00\n      dup2\n      eq\n      tag_409\n      jumpi\n      mload(0x40)\n      swap2\n      pop\n      and(add(returndatasize, 0x3f), not(0x1f))\n      dup3\n      add\n      0x40\n      mstore\n      returndatasize\n      dup3\n      mstore\n      returndatasize\n      0x00\n      0x20\n      dup5\n      add\n      returndatacopy\n      jump(tag_408)\n    tag_409:\n      0x60\n      swap2\n      pop\n    tag_408:\n      pop\n        /* \"src/QuadraticVoting.sol\":5773:5996  (bool success, ) = p.executableContract.call{value: p.requiredBudget, gas: 100000}(... */\n      pop\n      swap1\n      pop\n        /* \"src/QuadraticVoting.sol\":6019:6026  success */\n      dup1\n        /* \"src/QuadraticVoting.sol\":6011:6046  require(success, \"Ejecucion fallo\") */\n      tag_410\n      jumpi\n      mload(0x40)\n      shl(0xe5, 0x461bcd)\n      dup2\n      mstore\n        /* \"#utility.yul\":20394:20396   */\n      0x20\n        /* \"src/QuadraticVoting.sol\":6011:6046  require(success, \"Ejecucion fallo\") */\n      0x04\n      dup3\n      add\n        /* \"#utility.yul\":20376:20397   */\n      mstore\n        /* \"#utility.yul\":20433:20435   */\n      0x0f\n        /* \"#utility.yul\":20413:20431   */\n      0x24\n      dup3\n      add\n        /* \"#utility.yul\":20406:20436   */\n      mstore\n      shl(0x88, 0x456a65637563696f6e2066616c6c6f)\n        /* \"#utility.yul\":20452:20470   */\n      0x44\n      dup3\n      add\n        /* \"#utility.yul\":20445:20490   */\n      mstore\n        /* \"#utility.yul\":20507:20525   */\n      0x64\n      add\n        /* \"src/QuadraticVoting.sol\":6011:6046  require(success, \"Ejecucion fallo\") */\n      tag_150\n        /* \"#utility.yul\":20192:20531   */\n      jump\n        /* \"src/QuadraticVoting.sol\":6011:6046  require(success, \"Ejecucion fallo\") */\n    tag_410:\n        /* \"src/QuadraticVoting.sol\":6083:6086  _id */\n      dup5\n        /* \"src/QuadraticVoting.sol\":6066:6105  ProposalApproved(_id, p.requiredBudget) */\n      0xc6a4fd4a703d2a2fe3167ce7f6d62bf96458b7e55042cfaa85d5c7ef3ac56eea\n        /* \"src/QuadraticVoting.sol\":6088:6089  p */\n      dup6\n        /* \"src/QuadraticVoting.sol\":6088:6104  p.requiredBudget */\n      0x02\n      add\n      sload\n        /* \"src/QuadraticVoting.sol\":6066:6105  ProposalApproved(_id, p.requiredBudget) */\n      mload(0x40)\n      tag_413\n      swap2\n        /* \"#utility.yul\":2059:2084   */\n      dup2\n      mstore\n        /* \"#utility.yul\":2047:2049   */\n      0x20\n        /* \"#utility.yul\":2032:2050   */\n      add\n      swap1\n        /* \"#utility.yul\":1913:2090   */\n      jump\n        /* \"src/QuadraticVoting.sol\":6066:6105  ProposalApproved(_id, p.requiredBudget) */\n    tag_413:\n      mload(0x40)\n      dup1\n      swap2\n      sub\n      swap1\n      log2\n        /* \"src/QuadraticVoting.sol\":5420:6117  {... */\n      pop\n        /* \"src/QuadraticVoting.sol\":5141:6124  {... */\n      pop\n      pop\n      pop\n        /* \"src/QuadraticVoting.sol\":5085:6124  function _checkAndExecuteProposal(uint256 _id) internal {... */\n      pop\n      jump\t// out\n        /* \"@openzeppelin/contracts/utils/introspection/ERC165Checker.sol\":1465:1748  function supportsInterface(address account, bytes4 interfaceId) internal view returns (bool) {... */\n    tag_247:\n        /* \"@openzeppelin/contracts/utils/introspection/ERC165Checker.sol\":1552:1556  bool */\n      0x00\n        /* \"@openzeppelin/contracts/utils/introspection/ERC165Checker.sol\":1660:1683  supportsERC165(account) */\n      tag_415\n        /* \"@openzeppelin/contracts/utils/introspection/ERC165Checker.sol\":1675:1682  account */\n      dup4\n        /* \"@openzeppelin/contracts/utils/introspection/ERC165Checker.sol\":1660:1674  supportsERC165 */\n      tag_416\n        /* \"@openzeppelin/contracts/utils/introspection/ERC165Checker.sol\":1660:1683  supportsERC165(account) */\n      jump\t// in\n    tag_415:\n        /* \"@openzeppelin/contracts/utils/introspection/ERC165Checker.sol\":1660:1741  supportsERC165(account) && supportsERC165InterfaceUnchecked(account, interfaceId) */\n      dup1\n      iszero\n      tag_418\n      jumpi\n      pop\n        /* \"@openzeppelin/contracts/utils/introspection/ERC165Checker.sol\":1687:1741  supportsERC165InterfaceUnchecked(account, interfaceId) */\n      tag_418\n        /* \"@openzeppelin/contracts/utils/introspection/ERC165Checker.sol\":1720:1727  account */\n      dup4\n        /* \"@openzeppelin/contracts/utils/introspection/ERC165Checker.sol\":1729:1740  interfaceId */\n      dup4\n        /* \"@openzeppelin/contracts/utils/introspection/ERC165Checker.sol\":1687:1719  supportsERC165InterfaceUnchecked */\n      tag_419\n        /* \"@openzeppelin/contracts/utils/introspection/ERC165Checker.sol\":1687:1741  supportsERC165InterfaceUnchecked(account, interfaceId) */\n      jump\t// in\n    tag_418:\n        /* \"@openzeppelin/contracts/utils/introspection/ERC165Checker.sol\":1653:1741  return supportsERC165(account) && supportsERC165InterfaceUnchecked(account, interfaceId) */\n      swap4\n        /* \"@openzeppelin/contracts/utils/introspection/ERC165Checker.sol\":1465:1748  function supportsInterface(address account, bytes4 interfaceId) internal view returns (bool) {... */\n      swap3\n      pop\n      pop\n      pop\n      jump\t// out\n        /* \"src/QuadraticVoting.sol\":9370:9953  function _returnTokensToVoters(uint256 _id) internal {... */\n    tag_301:\n        /* \"src/QuadraticVoting.sol\":9434:9458  address[] storage voters */\n      0x00\n        /* \"src/QuadraticVoting.sol\":9461:9480  proposalVoters[_id] */\n      dup2\n      dup2\n      mstore\n        /* \"src/QuadraticVoting.sol\":9461:9475  proposalVoters */\n      0x0a\n        /* \"src/QuadraticVoting.sol\":9461:9480  proposalVoters[_id] */\n      0x20\n      mstore\n      0x40\n      dup2\n      keccak256\n      swap1\n        /* \"src/QuadraticVoting.sol\":9491:9946  for (uint256 j = 0; j < voters.length; j++) {... */\n    tag_421:\n        /* \"src/QuadraticVoting.sol\":9515:9528  voters.length */\n      dup2\n      sload\n        /* \"src/QuadraticVoting.sol\":9511:9528  j < voters.length */\n      dup2\n      lt\n        /* \"src/QuadraticVoting.sol\":9491:9946  for (uint256 j = 0; j < voters.length; j++) {... */\n      iszero\n      tag_176\n      jumpi\n        /* \"src/QuadraticVoting.sol\":9550:9563  address voter */\n      0x00\n        /* \"src/QuadraticVoting.sol\":9566:9572  voters */\n      dup3\n        /* \"src/QuadraticVoting.sol\":9573:9574  j */\n      dup3\n        /* \"src/QuadraticVoting.sol\":9566:9575  voters[j] */\n      dup2\n      sload\n      dup2\n      lt\n      tag_425\n      jumpi\n      tag_425\n      tag_238\n      jump\t// in\n    tag_425:\n      0x00\n      swap2\n      dup3\n      mstore\n      0x20\n      dup1\n      dup4\n      keccak256\n      swap1\n      swap2\n      add\n      sload\n        /* \"src/QuadraticVoting.sol\":9606:9630  userVotesInProposal[_id] */\n      dup7\n      dup4\n      mstore\n        /* \"src/QuadraticVoting.sol\":9606:9625  userVotesInProposal */\n      0x09\n        /* \"src/QuadraticVoting.sol\":9606:9630  userVotesInProposal[_id] */\n      dup3\n      mstore\n      0x40\n      dup1\n      dup5\n      keccak256\n      sub(shl(0xa0, 0x01), 0x01)\n        /* \"src/QuadraticVoting.sol\":9566:9575  voters[j] */\n      swap1\n      swap3\n      and\n        /* \"src/QuadraticVoting.sol\":9606:9637  userVotesInProposal[_id][voter] */\n      dup1\n      dup6\n      mstore\n      swap2\n      swap1\n      swap3\n      mstore\n      swap2\n      keccak256\n      sload\n        /* \"src/QuadraticVoting.sol\":9566:9575  voters[j] */\n      swap1\n      swap2\n      pop\n        /* \"src/QuadraticVoting.sol\":9656:9665  votes > 0 */\n      dup1\n      iszero\n        /* \"src/QuadraticVoting.sol\":9652:9935  if (votes > 0) {... */\n      tag_427\n      jumpi\n        /* \"src/QuadraticVoting.sol\":9686:9708  uint256 tokensToReturn */\n      0x00\n        /* \"src/QuadraticVoting.sol\":9711:9724  votes * votes */\n      tag_428\n        /* \"src/QuadraticVoting.sol\":9719:9724  votes */\n      dup3\n      dup1\n        /* \"src/QuadraticVoting.sol\":9711:9724  votes * votes */\n      tag_165\n      jump\t// in\n    tag_428:\n        /* \"src/QuadraticVoting.sol\":9777:9778  0 */\n      0x00\n        /* \"src/QuadraticVoting.sol\":9743:9767  userVotesInProposal[_id] */\n      dup8\n      dup2\n      mstore\n        /* \"src/QuadraticVoting.sol\":9743:9762  userVotesInProposal */\n      0x09\n        /* \"src/QuadraticVoting.sol\":9743:9767  userVotesInProposal[_id] */\n      0x20\n      swap1\n      dup2\n      mstore\n      0x40\n      dup1\n      dup4\n      keccak256\n      sub(shl(0xa0, 0x01), 0x01)\n        /* \"src/QuadraticVoting.sol\":9743:9774  userVotesInProposal[_id][voter] */\n      dup1\n      dup10\n      and\n      dup6\n      mstore\n      swap3\n      mstore\n      dup1\n      dup4\n      keccak256\n        /* \"src/QuadraticVoting.sol\":9743:9778  userVotesInProposal[_id][voter] = 0 */\n      swap3\n      swap1\n      swap3\n      sstore\n        /* \"src/QuadraticVoting.sol\":9881:9886  token */\n      sload(0x01)\n        /* \"src/QuadraticVoting.sol\":9881:9918  token.transfer(voter, tokensToReturn) */\n      swap2\n      mload\n      shl(0xe0, 0xa9059cbb)\n      dup2\n      mstore\n        /* \"src/QuadraticVoting.sol\":9686:9724  uint256 tokensToReturn = votes * votes */\n      swap3\n      swap4\n      pop\n        /* \"src/QuadraticVoting.sol\":9881:9886  token */\n      and\n      swap1\n        /* \"src/QuadraticVoting.sol\":9881:9895  token.transfer */\n      0xa9059cbb\n      swap1\n        /* \"src/QuadraticVoting.sol\":9881:9918  token.transfer(voter, tokensToReturn) */\n      tag_429\n      swap1\n        /* \"src/QuadraticVoting.sol\":9768:9773  voter */\n      dup7\n      swap1\n        /* \"src/QuadraticVoting.sol\":9686:9724  uint256 tokensToReturn = votes * votes */\n      dup6\n      swap1\n        /* \"src/QuadraticVoting.sol\":9881:9918  token.transfer(voter, tokensToReturn) */\n      0x04\n      add\n      sub(shl(0xa0, 0x01), 0x01)\n        /* \"#utility.yul\":8614:8646   */\n      swap3\n      swap1\n      swap3\n      and\n        /* \"#utility.yul\":8596:8647   */\n      dup3\n      mstore\n        /* \"#utility.yul\":8678:8680   */\n      0x20\n        /* \"#utility.yul\":8663:8681   */\n      dup3\n      add\n        /* \"#utility.yul\":8656:8690   */\n      mstore\n        /* \"#utility.yul\":8584:8586   */\n      0x40\n        /* \"#utility.yul\":8569:8587   */\n      add\n      swap1\n        /* \"#utility.yul\":8422:8696   */\n      jump\n        /* \"src/QuadraticVoting.sol\":9881:9918  token.transfer(voter, tokensToReturn) */\n    tag_429:\n      0x20\n      mload(0x40)\n      dup1\n      dup4\n      sub\n      dup2\n      0x00\n      dup8\n      gas\n      call\n      iszero\n      dup1\n      iszero\n      tag_431\n      jumpi\n      returndatacopy(0x00, 0x00, returndatasize)\n      revert(0x00, returndatasize)\n    tag_431:\n      pop\n      pop\n      pop\n      pop\n      mload(0x40)\n      returndatasize\n      not(0x1f)\n      0x1f\n      dup3\n      add\n      and\n      dup3\n      add\n      dup1\n      0x40\n      mstore\n      pop\n      dup2\n      add\n      swap1\n      tag_432\n      swap2\n      swap1\n      tag_204\n      jump\t// in\n    tag_432:\n      pop\n        /* \"src/QuadraticVoting.sol\":9667:9935  {... */\n      pop\n        /* \"src/QuadraticVoting.sol\":9652:9935  if (votes > 0) {... */\n    tag_427:\n      pop\n      pop\n        /* \"src/QuadraticVoting.sol\":9530:9533  j++ */\n      0x01\n      add\n        /* \"src/QuadraticVoting.sol\":9491:9946  for (uint256 j = 0; j < voters.length; j++) {... */\n      jump(tag_421)\n        /* \"@openzeppelin/contracts/utils/introspection/ERC165Checker.sol\":719:1247  function supportsERC165(address account) internal view returns (bool) {... */\n    tag_416:\n        /* \"@openzeppelin/contracts/utils/introspection/ERC165Checker.sol\":783:787  bool */\n      0x00\n        /* \"@openzeppelin/contracts/utils/introspection/ERC165Checker.sol\":976:1044  supportsERC165InterfaceUnchecked(account, type(IERC165).interfaceId) */\n      tag_434\n        /* \"@openzeppelin/contracts/utils/introspection/ERC165Checker.sol\":1009:1016  account */\n      dup3\n      shl(0xe0, 0x01ffc9a7)\n        /* \"@openzeppelin/contracts/utils/introspection/ERC165Checker.sol\":976:1008  supportsERC165InterfaceUnchecked */\n      tag_419\n        /* \"@openzeppelin/contracts/utils/introspection/ERC165Checker.sol\":976:1044  supportsERC165InterfaceUnchecked(account, type(IERC165).interfaceId) */\n      jump\t// in\n    tag_434:\n        /* \"@openzeppelin/contracts/utils/introspection/ERC165Checker.sol\":972:1241  if (supportsERC165InterfaceUnchecked(account, type(IERC165).interfaceId)) {... */\n      iszero\n      tag_435\n      jumpi\n        /* \"@openzeppelin/contracts/utils/introspection/ERC165Checker.sol\":1061:1073  bool success */\n      0x00\n      dup1\n        /* \"@openzeppelin/contracts/utils/introspection/ERC165Checker.sol\":1093:1145  _trySupportsInterface(account, INTERFACE_ID_INVALID) */\n      tag_436\n        /* \"@openzeppelin/contracts/utils/introspection/ERC165Checker.sol\":1115:1122  account */\n      dup5\n      not(sub(shl(0xe0, 0x01), 0x01))\n        /* \"@openzeppelin/contracts/utils/introspection/ERC165Checker.sol\":1093:1114  _trySupportsInterface */\n      tag_437\n        /* \"@openzeppelin/contracts/utils/introspection/ERC165Checker.sol\":1093:1145  _trySupportsInterface(account, INTERFACE_ID_INVALID) */\n      jump\t// in\n    tag_436:\n        /* \"@openzeppelin/contracts/utils/introspection/ERC165Checker.sol\":1060:1145  (bool success, bool supported) = _trySupportsInterface(account, INTERFACE_ID_INVALID) */\n      swap2\n      pop\n      swap2\n      pop\n        /* \"@openzeppelin/contracts/utils/introspection/ERC165Checker.sol\":1166:1173  success */\n      dup2\n        /* \"@openzeppelin/contracts/utils/introspection/ERC165Checker.sol\":1166:1187  success && !supported */\n      dup1\n      iszero\n      tag_438\n      jumpi\n      pop\n        /* \"@openzeppelin/contracts/utils/introspection/ERC165Checker.sol\":1178:1187  supported */\n      dup1\n        /* \"@openzeppelin/contracts/utils/introspection/ERC165Checker.sol\":1177:1187  !supported */\n      iszero\n        /* \"@openzeppelin/contracts/utils/introspection/ERC165Checker.sol\":1166:1187  success && !supported */\n    tag_438:\n        /* \"@openzeppelin/contracts/utils/introspection/ERC165Checker.sol\":1159:1187  return success && !supported */\n      swap5\n        /* \"@openzeppelin/contracts/utils/introspection/ERC165Checker.sol\":719:1247  function supportsERC165(address account) internal view returns (bool) {... */\n      swap4\n      pop\n      pop\n      pop\n      pop\n      jump\t// out\n        /* \"@openzeppelin/contracts/utils/introspection/ERC165Checker.sol\":972:1241  if (supportsERC165InterfaceUnchecked(account, type(IERC165).interfaceId)) {... */\n    tag_435:\n      pop\n        /* \"@openzeppelin/contracts/utils/introspection/ERC165Checker.sol\":1225:1230  false */\n      0x00\n      swap2\n        /* \"@openzeppelin/contracts/utils/introspection/ERC165Checker.sol\":719:1247  function supportsERC165(address account) internal view returns (bool) {... */\n      swap1\n      pop\n      jump\t// out\n        /* \"@openzeppelin/contracts/utils/introspection/ERC165Checker.sol\":972:1241  if (supportsERC165InterfaceUnchecked(account, type(IERC165).interfaceId)) {... */\n    tag_439:\n        /* \"@openzeppelin/contracts/utils/introspection/ERC165Checker.sol\":719:1247  function supportsERC165(address account) internal view returns (bool) {... */\n      swap2\n      swap1\n      pop\n      jump\t// out\n        /* \"@openzeppelin/contracts/utils/introspection/ERC165Checker.sol\":4504:4742  function supportsERC165InterfaceUnchecked(address account, bytes4 interfaceId) internal view returns (bool) {... */\n    tag_419:\n        /* \"@openzeppelin/contracts/utils/introspection/ERC165Checker.sol\":4606:4610  bool */\n      0x00\n        /* \"@openzeppelin/contracts/utils/introspection/ERC165Checker.sol\":4623:4635  bool success */\n      0x00\n        /* \"@openzeppelin/contracts/utils/introspection/ERC165Checker.sol\":4637:4651  bool supported */\n      0x00\n        /* \"@openzeppelin/contracts/utils/introspection/ERC165Checker.sol\":4655:4698  _trySupportsInterface(account, interfaceId) */\n      tag_441\n        /* \"@openzeppelin/contracts/utils/introspection/ERC165Checker.sol\":4677:4684  account */\n      dup6\n        /* \"@openzeppelin/contracts/utils/introspection/ERC165Checker.sol\":4686:4697  interfaceId */\n      dup6\n        /* \"@openzeppelin/contracts/utils/introspection/ERC165Checker.sol\":4655:4676  _trySupportsInterface */\n      tag_437\n        /* \"@openzeppelin/contracts/utils/introspection/ERC165Checker.sol\":4655:4698  _trySupportsInterface(account, interfaceId) */\n      jump\t// in\n    tag_441:\n        /* \"@openzeppelin/contracts/utils/introspection/ERC165Checker.sol\":4622:4698  (bool success, bool supported) = _trySupportsInterface(account, interfaceId) */\n      swap2\n      pop\n      swap2\n      pop\n        /* \"@openzeppelin/contracts/utils/introspection/ERC165Checker.sol\":4715:4722  success */\n      dup2\n        /* \"@openzeppelin/contracts/utils/introspection/ERC165Checker.sol\":4715:4735  success && supported */\n      dup1\n      iszero\n      tag_442\n      jumpi\n      pop\n        /* \"@openzeppelin/contracts/utils/introspection/ERC165Checker.sol\":4726:4735  supported */\n      dup1\n        /* \"@openzeppelin/contracts/utils/introspection/ERC165Checker.sol\":4715:4735  success && supported */\n    tag_442:\n        /* \"@openzeppelin/contracts/utils/introspection/ERC165Checker.sol\":4708:4735  return success && supported */\n      swap6\n        /* \"@openzeppelin/contracts/utils/introspection/ERC165Checker.sol\":4504:4742  function supportsERC165InterfaceUnchecked(address account, bytes4 interfaceId) internal view returns (bool) {... */\n      swap5\n      pop\n      pop\n      pop\n      pop\n      pop\n      jump\t// out\n        /* \"@openzeppelin/contracts/utils/introspection/ERC165Checker.sol\":5198:5826  function _trySupportsInterface(... */\n    tag_437:\n      shl(0xe0, 0x01ffc9a7)\n        /* \"@openzeppelin/contracts/utils/introspection/ERC165Checker.sol\":5310:5322  bool success */\n      0x00\n        /* \"@openzeppelin/contracts/utils/introspection/ERC165Checker.sol\":5452:5474  mstore(0x00, selector) */\n      dup2\n      dup2\n      mstore\n        /* \"@openzeppelin/contracts/utils/introspection/ERC165Checker.sol\":5494:5498  0x04 */\n      0x04\n        /* \"@openzeppelin/contracts/utils/introspection/ERC165Checker.sol\":5487:5512  mstore(0x04, interfaceId) */\n      dup4\n      swap1\n      mstore\n        /* \"@openzeppelin/contracts/utils/introspection/ERC165Checker.sol\":5310:5322  bool success */\n      swap1\n      dup2\n      swap1\n        /* \"@openzeppelin/contracts/utils/introspection/ERC165Checker.sol\":5581:5585  0x20 */\n      0x20\n        /* \"@openzeppelin/contracts/utils/introspection/ERC165Checker.sol\":5310:5322  bool success */\n      dup3\n        /* \"@openzeppelin/contracts/utils/introspection/ERC165Checker.sol\":5569:5573  0x24 */\n      0x24\n        /* \"@openzeppelin/contracts/utils/introspection/ERC165Checker.sol\":5310:5322  bool success */\n      dup2\n        /* \"@openzeppelin/contracts/utils/introspection/ERC165Checker.sol\":5554:5561  account */\n      dup9\n        /* \"@openzeppelin/contracts/utils/introspection/ERC165Checker.sol\":5547:5552  30000 */\n      0x7530\n        /* \"@openzeppelin/contracts/utils/introspection/ERC165Checker.sol\":5536:5586  staticcall(30000, account, 0x00, 0x24, 0x00, 0x20) */\n      staticcall\n        /* \"@openzeppelin/contracts/utils/introspection/ERC165Checker.sol\":5525:5586  success := staticcall(30000, account, 0x00, 0x24, 0x00, 0x20) */\n      swap3\n      pop\n        /* \"@openzeppelin/contracts/utils/introspection/ERC165Checker.sol\":5740:5744  0x00 */\n      0x00\n        /* \"@openzeppelin/contracts/utils/introspection/ERC165Checker.sol\":5734:5745  mload(0x00) */\n      mload\n        /* \"@openzeppelin/contracts/utils/introspection/ERC165Checker.sol\":5727:5746  iszero(mload(0x00)) */\n      iszero\n        /* \"@openzeppelin/contracts/utils/introspection/ERC165Checker.sol\":5720:5747  iszero(iszero(mload(0x00))) */\n      iszero\n        /* \"@openzeppelin/contracts/utils/introspection/ERC165Checker.sol\":5654:5658  0x1F */\n      0x1f\n        /* \"@openzeppelin/contracts/utils/introspection/ERC165Checker.sol\":5636:5652  returndatasize() */\n      returndatasize\n        /* \"@openzeppelin/contracts/utils/introspection/ERC165Checker.sol\":5633:5659  gt(returndatasize(), 0x1F) */\n      gt\n        /* \"@openzeppelin/contracts/utils/introspection/ERC165Checker.sol\":5612:5810  and(... */\n      and\n        /* \"@openzeppelin/contracts/utils/introspection/ERC165Checker.sol\":5599:5810  supported := and(... */\n      swap2\n      pop\n        /* \"@openzeppelin/contracts/utils/introspection/ERC165Checker.sol\":5438:5820  {... */\n      pop\n        /* \"@openzeppelin/contracts/utils/introspection/ERC165Checker.sol\":5198:5826  function _trySupportsInterface(... */\n      swap3\n      pop\n      swap3\n      swap1\n      pop\n      jump\t// out\n        /* \"#utility.yul\":14:240   */\n    tag_32:\n        /* \"#utility.yul\":73:79   */\n      0x00\n        /* \"#utility.yul\":126:128   */\n      0x20\n        /* \"#utility.yul\":114:123   */\n      dup3\n        /* \"#utility.yul\":105:112   */\n      dup5\n        /* \"#utility.yul\":101:124   */\n      sub\n        /* \"#utility.yul\":97:129   */\n      slt\n        /* \"#utility.yul\":94:146   */\n      iszero\n      tag_456\n      jumpi\n        /* \"#utility.yul\":142:143   */\n      0x00\n        /* \"#utility.yul\":139:140   */\n      0x00\n        /* \"#utility.yul\":132:144   */\n      revert\n        /* \"#utility.yul\":94:146   */\n    tag_456:\n      pop\n        /* \"#utility.yul\":187:210   */\n      calldataload\n      swap2\n        /* \"#utility.yul\":14:240   */\n      swap1\n      pop\n      jump\t// out\n        /* \"#utility.yul\":245:534   */\n    tag_444:\n        /* \"#utility.yul\":287:290   */\n      0x00\n        /* \"#utility.yul\":325:330   */\n      dup2\n        /* \"#utility.yul\":319:331   */\n      mload\n        /* \"#utility.yul\":352:358   */\n      dup1\n        /* \"#utility.yul\":347:350   */\n      dup5\n        /* \"#utility.yul\":340:359   */\n      mstore\n        /* \"#utility.yul\":408:414   */\n      dup1\n        /* \"#utility.yul\":401:405   */\n      0x20\n        /* \"#utility.yul\":394:399   */\n      dup5\n        /* \"#utility.yul\":390:406   */\n      add\n        /* \"#utility.yul\":383:387   */\n      0x20\n        /* \"#utility.yul\":378:381   */\n      dup7\n        /* \"#utility.yul\":374:388   */\n      add\n        /* \"#utility.yul\":368:415   */\n      mcopy\n        /* \"#utility.yul\":460:461   */\n      0x00\n        /* \"#utility.yul\":453:457   */\n      0x20\n        /* \"#utility.yul\":444:450   */\n      dup3\n        /* \"#utility.yul\":439:442   */\n      dup7\n        /* \"#utility.yul\":435:451   */\n      add\n        /* \"#utility.yul\":431:458   */\n      add\n        /* \"#utility.yul\":424:462   */\n      mstore\n        /* \"#utility.yul\":523:527   */\n      0x20\n        /* \"#utility.yul\":516:518   */\n      0x1f\n        /* \"#utility.yul\":512:519   */\n      not\n        /* \"#utility.yul\":507:509   */\n      0x1f\n        /* \"#utility.yul\":499:505   */\n      dup4\n        /* \"#utility.yul\":495:510   */\n      add\n        /* \"#utility.yul\":491:520   */\n      and\n        /* \"#utility.yul\":486:489   */\n      dup6\n        /* \"#utility.yul\":482:521   */\n      add\n        /* \"#utility.yul\":478:528   */\n      add\n        /* \"#utility.yul\":471:528   */\n      swap2\n      pop\n      pop\n        /* \"#utility.yul\":245:534   */\n      swap3\n      swap2\n      pop\n      pop\n      jump\t// out\n        /* \"#utility.yul\":539:666   */\n    tag_186:\n        /* \"#utility.yul\":600:610   */\n      0x4e487b71\n        /* \"#utility.yul\":595:598   */\n      0xe0\n        /* \"#utility.yul\":591:611   */\n      shl\n        /* \"#utility.yul\":588:589   */\n      0x00\n        /* \"#utility.yul\":581:612   */\n      mstore\n        /* \"#utility.yul\":631:635   */\n      0x21\n        /* \"#utility.yul\":628:629   */\n      0x04\n        /* \"#utility.yul\":621:636   */\n      mstore\n        /* \"#utility.yul\":655:659   */\n      0x24\n        /* \"#utility.yul\":652:653   */\n      0x00\n        /* \"#utility.yul\":645:660   */\n      revert\n        /* \"#utility.yul\":671:913   */\n    tag_445:\n        /* \"#utility.yul\":757:758   */\n      0x03\n        /* \"#utility.yul\":750:755   */\n      dup2\n        /* \"#utility.yul\":747:759   */\n      lt\n        /* \"#utility.yul\":737:880   */\n      tag_460\n      jumpi\n        /* \"#utility.yul\":802:812   */\n      0x4e487b71\n        /* \"#utility.yul\":797:800   */\n      0xe0\n        /* \"#utility.yul\":793:813   */\n      shl\n        /* \"#utility.yul\":790:791   */\n      0x00\n        /* \"#utility.yul\":783:814   */\n      mstore\n        /* \"#utility.yul\":837:841   */\n      0x21\n        /* \"#utility.yul\":834:835   */\n      0x04\n        /* \"#utility.yul\":827:842   */\n      mstore\n        /* \"#utility.yul\":865:869   */\n      0x24\n        /* \"#utility.yul\":862:863   */\n      0x00\n        /* \"#utility.yul\":855:870   */\n      revert\n        /* \"#utility.yul\":737:880   */\n    tag_460:\n        /* \"#utility.yul\":889:907   */\n      swap1\n      mstore\n        /* \"#utility.yul\":671:913   */\n      jump\t// out\n        /* \"#utility.yul\":918:1908   */\n    tag_35:\n        /* \"#utility.yul\":1322:1325   */\n      0x0120\n        /* \"#utility.yul\":1311:1320   */\n      dup2\n        /* \"#utility.yul\":1304:1326   */\n      mstore\n        /* \"#utility.yul\":1285:1289   */\n      0x00\n        /* \"#utility.yul\":1349:1395   */\n      tag_462\n        /* \"#utility.yul\":1390:1393   */\n      0x0120\n        /* \"#utility.yul\":1379:1388   */\n      dup4\n        /* \"#utility.yul\":1375:1394   */\n      add\n        /* \"#utility.yul\":1367:1373   */\n      dup13\n        /* \"#utility.yul\":1349:1395   */\n      tag_444\n      jump\t// in\n    tag_462:\n        /* \"#utility.yul\":1443:1452   */\n      dup3\n        /* \"#utility.yul\":1435:1441   */\n      dup2\n        /* \"#utility.yul\":1431:1453   */\n      sub\n        /* \"#utility.yul\":1426:1428   */\n      0x20\n        /* \"#utility.yul\":1415:1424   */\n      dup5\n        /* \"#utility.yul\":1411:1429   */\n      add\n        /* \"#utility.yul\":1404:1454   */\n      mstore\n        /* \"#utility.yul\":1471:1504   */\n      tag_463\n        /* \"#utility.yul\":1497:1503   */\n      dup2\n        /* \"#utility.yul\":1489:1495   */\n      dup13\n        /* \"#utility.yul\":1471:1504   */\n      tag_444\n      jump\t// in\n    tag_463:\n        /* \"#utility.yul\":1535:1537   */\n      0x40\n        /* \"#utility.yul\":1520:1538   */\n      dup5\n      add\n        /* \"#utility.yul\":1513:1547   */\n      dup12\n      swap1\n      mstore\n      sub(shl(0xa0, 0x01), 0x01)\n        /* \"#utility.yul\":1583:1615   */\n      dup11\n      and\n        /* \"#utility.yul\":1578:1580   */\n      0x60\n        /* \"#utility.yul\":1563:1581   */\n      dup6\n      add\n        /* \"#utility.yul\":1556:1616   */\n      mstore\n        /* \"#utility.yul\":1463:1504   */\n      swap2\n      pop\n        /* \"#utility.yul\":1625:1684   */\n      tag_464\n      swap1\n      pop\n        /* \"#utility.yul\":1679:1682   */\n      0x80\n        /* \"#utility.yul\":1664:1683   */\n      dup4\n      add\n        /* \"#utility.yul\":1656:1662   */\n      dup9\n        /* \"#utility.yul\":1625:1684   */\n      tag_445\n      jump\t// in\n    tag_464:\n        /* \"#utility.yul\":1715:1718   */\n      0xa0\n        /* \"#utility.yul\":1700:1719   */\n      dup3\n      add\n        /* \"#utility.yul\":1693:1728   */\n      swap6\n      swap1\n      swap6\n      mstore\n        /* \"#utility.yul\":1759:1762   */\n      0xc0\n        /* \"#utility.yul\":1744:1763   */\n      dup2\n      add\n        /* \"#utility.yul\":1737:1772   */\n      swap4\n      swap1\n      swap4\n      mstore\n      sub(shl(0xa0, 0x01), 0x01)\n        /* \"#utility.yul\":1809:1841   */\n      swap2\n      swap1\n      swap2\n      and\n        /* \"#utility.yul\":1803:1806   */\n      0xe0\n        /* \"#utility.yul\":1788:1807   */\n      dup4\n      add\n        /* \"#utility.yul\":1781:1842   */\n      mstore\n        /* \"#utility.yul\":1886:1900   */\n      iszero\n        /* \"#utility.yul\":1879:1901   */\n      iszero\n        /* \"#utility.yul\":1873:1876   */\n      0x0100\n        /* \"#utility.yul\":1858:1877   */\n      swap1\n      swap2\n      add\n        /* \"#utility.yul\":1851:1902   */\n      mstore\n        /* \"#utility.yul\":918:1908   */\n      swap6\n      swap5\n      pop\n      pop\n      pop\n      pop\n      pop\n      jump\t// out\n        /* \"#utility.yul\":2095:2268   */\n    tag_446:\n        /* \"#utility.yul\":2163:2183   */\n      dup1\n      calldataload\n      sub(shl(0xa0, 0x01), 0x01)\n        /* \"#utility.yul\":2212:2243   */\n      dup2\n      and\n        /* \"#utility.yul\":2202:2244   */\n      dup2\n      eq\n        /* \"#utility.yul\":2192:2262   */\n      tag_439\n      jumpi\n        /* \"#utility.yul\":2258:2259   */\n      0x00\n        /* \"#utility.yul\":2255:2256   */\n      0x00\n        /* \"#utility.yul\":2248:2260   */\n      revert\n        /* \"#utility.yul\":2273:2573   */\n    tag_44:\n        /* \"#utility.yul\":2341:2347   */\n      0x00\n        /* \"#utility.yul\":2349:2355   */\n      0x00\n        /* \"#utility.yul\":2402:2404   */\n      0x40\n        /* \"#utility.yul\":2390:2399   */\n      dup4\n        /* \"#utility.yul\":2381:2388   */\n      dup6\n        /* \"#utility.yul\":2377:2400   */\n      sub\n        /* \"#utility.yul\":2373:2405   */\n      slt\n        /* \"#utility.yul\":2370:2422   */\n      iszero\n      tag_469\n      jumpi\n        /* \"#utility.yul\":2418:2419   */\n      0x00\n        /* \"#utility.yul\":2415:2416   */\n      0x00\n        /* \"#utility.yul\":2408:2420   */\n      revert\n        /* \"#utility.yul\":2370:2422   */\n    tag_469:\n        /* \"#utility.yul\":2463:2486   */\n      dup3\n      calldataload\n      swap2\n      pop\n        /* \"#utility.yul\":2529:2567   */\n      tag_470\n        /* \"#utility.yul\":2563:2565   */\n      0x20\n        /* \"#utility.yul\":2548:2566   */\n      dup5\n      add\n        /* \"#utility.yul\":2529:2567   */\n      tag_446\n      jump\t// in\n    tag_470:\n        /* \"#utility.yul\":2519:2567   */\n      swap1\n      pop\n        /* \"#utility.yul\":2273:2573   */\n      swap3\n      pop\n      swap3\n      swap1\n      pop\n      jump\t// out\n        /* \"#utility.yul\":2578:3189   */\n    tag_51:\n        /* \"#utility.yul\":2768:2770   */\n      0x20\n        /* \"#utility.yul\":2780:2801   */\n      dup1\n      dup3\n      mstore\n        /* \"#utility.yul\":2850:2863   */\n      dup3\n      mload\n        /* \"#utility.yul\":2753:2771   */\n      dup3\n      dup3\n      add\n        /* \"#utility.yul\":2872:2894   */\n      dup2\n      swap1\n      mstore\n        /* \"#utility.yul\":2720:2724   */\n      0x00\n      swap2\n        /* \"#utility.yul\":2951:2966   */\n      dup5\n      add\n      swap1\n        /* \"#utility.yul\":2925:2927   */\n      0x40\n        /* \"#utility.yul\":2910:2928   */\n      dup5\n      add\n      swap1\n        /* \"#utility.yul\":2720:2724   */\n      dup4\n        /* \"#utility.yul\":2994:3163   */\n    tag_472:\n        /* \"#utility.yul\":3008:3014   */\n      dup2\n        /* \"#utility.yul\":3005:3006   */\n      dup2\n        /* \"#utility.yul\":3002:3015   */\n      lt\n        /* \"#utility.yul\":2994:3163   */\n      iszero\n      tag_474\n      jumpi\n        /* \"#utility.yul\":3069:3082   */\n      dup4\n      mload\n        /* \"#utility.yul\":3057:3083   */\n      dup4\n      mstore\n        /* \"#utility.yul\":3112:3114   */\n      0x20\n        /* \"#utility.yul\":3138:3153   */\n      swap4\n      dup5\n      add\n      swap4\n        /* \"#utility.yul\":3103:3115   */\n      swap1\n      swap3\n      add\n      swap2\n        /* \"#utility.yul\":3030:3031   */\n      0x01\n        /* \"#utility.yul\":3023:3032   */\n      add\n        /* \"#utility.yul\":2994:3163   */\n      jump(tag_472)\n    tag_474:\n      pop\n        /* \"#utility.yul\":3180:3183   */\n      swap1\n      swap6\n        /* \"#utility.yul\":2578:3189   */\n      swap5\n      pop\n      pop\n      pop\n      pop\n      pop\n      jump\t// out\n        /* \"#utility.yul\":3402:3748   */\n    tag_71:\n        /* \"#utility.yul\":3470:3476   */\n      0x00\n        /* \"#utility.yul\":3478:3484   */\n      0x00\n        /* \"#utility.yul\":3531:3533   */\n      0x40\n        /* \"#utility.yul\":3519:3528   */\n      dup4\n        /* \"#utility.yul\":3510:3517   */\n      dup6\n        /* \"#utility.yul\":3506:3529   */\n      sub\n        /* \"#utility.yul\":3502:3534   */\n      slt\n        /* \"#utility.yul\":3499:3551   */\n      iszero\n      tag_477\n      jumpi\n        /* \"#utility.yul\":3547:3548   */\n      0x00\n        /* \"#utility.yul\":3544:3545   */\n      0x00\n        /* \"#utility.yul\":3537:3549   */\n      revert\n        /* \"#utility.yul\":3499:3551   */\n    tag_477:\n      pop\n      pop\n        /* \"#utility.yul\":3592:3615   */\n      dup1\n      calldataload\n      swap3\n        /* \"#utility.yul\":3712:3714   */\n      0x20\n        /* \"#utility.yul\":3697:3715   */\n      swap1\n      swap2\n      add\n        /* \"#utility.yul\":3684:3716   */\n      calldataload\n      swap2\n      pop\n        /* \"#utility.yul\":3402:3748   */\n      jump\t// out\n        /* \"#utility.yul\":3753:3939   */\n    tag_84:\n        /* \"#utility.yul\":3812:3818   */\n      0x00\n        /* \"#utility.yul\":3865:3867   */\n      0x20\n        /* \"#utility.yul\":3853:3862   */\n      dup3\n        /* \"#utility.yul\":3844:3851   */\n      dup5\n        /* \"#utility.yul\":3840:3863   */\n      sub\n        /* \"#utility.yul\":3836:3868   */\n      slt\n        /* \"#utility.yul\":3833:3885   */\n      iszero\n      tag_479\n      jumpi\n        /* \"#utility.yul\":3881:3882   */\n      0x00\n        /* \"#utility.yul\":3878:3879   */\n      0x00\n        /* \"#utility.yul\":3871:3883   */\n      revert\n        /* \"#utility.yul\":3833:3885   */\n    tag_479:\n        /* \"#utility.yul\":3904:3933   */\n      tag_418\n        /* \"#utility.yul\":3923:3932   */\n      dup3\n        /* \"#utility.yul\":3904:3933   */\n      tag_446\n      jump\t// in\n        /* \"#utility.yul\":4136:4263   */\n    tag_229:\n        /* \"#utility.yul\":4197:4207   */\n      0x4e487b71\n        /* \"#utility.yul\":4192:4195   */\n      0xe0\n        /* \"#utility.yul\":4188:4208   */\n      shl\n        /* \"#utility.yul\":4185:4186   */\n      0x00\n        /* \"#utility.yul\":4178:4209   */\n      mstore\n        /* \"#utility.yul\":4228:4232   */\n      0x41\n        /* \"#utility.yul\":4225:4226   */\n      0x04\n        /* \"#utility.yul\":4218:4233   */\n      mstore\n        /* \"#utility.yul\":4252:4256   */\n      0x24\n        /* \"#utility.yul\":4249:4250   */\n      0x00\n        /* \"#utility.yul\":4242:4257   */\n      revert\n        /* \"#utility.yul\":4268:4994   */\n    tag_447:\n        /* \"#utility.yul\":4311:4316   */\n      0x00\n        /* \"#utility.yul\":4364:4367   */\n      dup3\n        /* \"#utility.yul\":4357:4361   */\n      0x1f\n        /* \"#utility.yul\":4349:4355   */\n      dup4\n        /* \"#utility.yul\":4345:4362   */\n      add\n        /* \"#utility.yul\":4341:4368   */\n      slt\n        /* \"#utility.yul\":4331:4386   */\n      tag_484\n      jumpi\n        /* \"#utility.yul\":4382:4383   */\n      0x00\n        /* \"#utility.yul\":4379:4380   */\n      0x00\n        /* \"#utility.yul\":4372:4384   */\n      revert\n        /* \"#utility.yul\":4331:4386   */\n    tag_484:\n        /* \"#utility.yul\":4422:4428   */\n      dup2\n        /* \"#utility.yul\":4409:4429   */\n      calldataload\n        /* \"#utility.yul\":4452:4470   */\n      0xffffffffffffffff\n        /* \"#utility.yul\":4444:4450   */\n      dup2\n        /* \"#utility.yul\":4441:4471   */\n      gt\n        /* \"#utility.yul\":4438:4494   */\n      iszero\n      tag_486\n      jumpi\n        /* \"#utility.yul\":4474:4492   */\n      tag_486\n      tag_229\n      jump\t// in\n    tag_486:\n        /* \"#utility.yul\":4523:4525   */\n      0x40\n        /* \"#utility.yul\":4517:4526   */\n      mload\n        /* \"#utility.yul\":4615:4617   */\n      0x1f\n        /* \"#utility.yul\":4577:4594   */\n      dup3\n      add\n      not(0x1f)\n        /* \"#utility.yul\":4573:4604   */\n      swap1\n      dup2\n      and\n        /* \"#utility.yul\":4606:4608   */\n      0x3f\n        /* \"#utility.yul\":4569:4609   */\n      add\n        /* \"#utility.yul\":4565:4619   */\n      and\n        /* \"#utility.yul\":4553:4620   */\n      dup2\n      add\n        /* \"#utility.yul\":4650:4668   */\n      0xffffffffffffffff\n        /* \"#utility.yul\":4635:4669   */\n      dup2\n      gt\n        /* \"#utility.yul\":4671:4693   */\n      dup3\n      dup3\n      lt\n        /* \"#utility.yul\":4632:4694   */\n      or\n        /* \"#utility.yul\":4629:4717   */\n      iszero\n      tag_488\n      jumpi\n        /* \"#utility.yul\":4697:4715   */\n      tag_488\n      tag_229\n      jump\t// in\n    tag_488:\n        /* \"#utility.yul\":4733:4735   */\n      0x40\n        /* \"#utility.yul\":4726:4748   */\n      mstore\n        /* \"#utility.yul\":4757:4779   */\n      dup2\n      dup2\n      mstore\n        /* \"#utility.yul\":4798:4817   */\n      dup4\n      dup3\n      add\n        /* \"#utility.yul\":4819:4823   */\n      0x20\n        /* \"#utility.yul\":4794:4824   */\n      add\n        /* \"#utility.yul\":4791:4830   */\n      dup6\n      lt\n        /* \"#utility.yul\":4788:4847   */\n      iszero\n      tag_489\n      jumpi\n        /* \"#utility.yul\":4843:4844   */\n      0x00\n        /* \"#utility.yul\":4840:4841   */\n      0x00\n        /* \"#utility.yul\":4833:4845   */\n      revert\n        /* \"#utility.yul\":4788:4847   */\n    tag_489:\n        /* \"#utility.yul\":4907:4913   */\n      dup2\n        /* \"#utility.yul\":4900:4904   */\n      0x20\n        /* \"#utility.yul\":4892:4898   */\n      dup6\n        /* \"#utility.yul\":4888:4905   */\n      add\n        /* \"#utility.yul\":4881:4885   */\n      0x20\n        /* \"#utility.yul\":4873:4879   */\n      dup4\n        /* \"#utility.yul\":4869:4886   */\n      add\n        /* \"#utility.yul\":4856:4914   */\n      calldatacopy\n        /* \"#utility.yul\":4962:4963   */\n      0x00\n        /* \"#utility.yul\":4934:4953   */\n      swap2\n      dup2\n      add\n        /* \"#utility.yul\":4955:4959   */\n      0x20\n        /* \"#utility.yul\":4930:4960   */\n      add\n        /* \"#utility.yul\":4923:4964   */\n      swap2\n      swap1\n      swap2\n      mstore\n        /* \"#utility.yul\":4938:4944   */\n      swap4\n        /* \"#utility.yul\":4268:4994   */\n      swap3\n      pop\n      pop\n      pop\n      jump\t// out\n        /* \"#utility.yul\":4999:5726   */\n    tag_91:\n        /* \"#utility.yul\":5105:5111   */\n      0x00\n        /* \"#utility.yul\":5113:5119   */\n      0x00\n        /* \"#utility.yul\":5121:5127   */\n      0x00\n        /* \"#utility.yul\":5129:5135   */\n      0x00\n        /* \"#utility.yul\":5182:5185   */\n      0x80\n        /* \"#utility.yul\":5170:5179   */\n      dup6\n        /* \"#utility.yul\":5161:5168   */\n      dup8\n        /* \"#utility.yul\":5157:5180   */\n      sub\n        /* \"#utility.yul\":5153:5186   */\n      slt\n        /* \"#utility.yul\":5150:5203   */\n      iszero\n      tag_491\n      jumpi\n        /* \"#utility.yul\":5199:5200   */\n      0x00\n        /* \"#utility.yul\":5196:5197   */\n      0x00\n        /* \"#utility.yul\":5189:5201   */\n      revert\n        /* \"#utility.yul\":5150:5203   */\n    tag_491:\n        /* \"#utility.yul\":5239:5248   */\n      dup5\n        /* \"#utility.yul\":5226:5249   */\n      calldataload\n        /* \"#utility.yul\":5272:5290   */\n      0xffffffffffffffff\n        /* \"#utility.yul\":5264:5270   */\n      dup2\n        /* \"#utility.yul\":5261:5291   */\n      gt\n        /* \"#utility.yul\":5258:5308   */\n      iszero\n      tag_492\n      jumpi\n        /* \"#utility.yul\":5304:5305   */\n      0x00\n        /* \"#utility.yul\":5301:5302   */\n      0x00\n        /* \"#utility.yul\":5294:5306   */\n      revert\n        /* \"#utility.yul\":5258:5308   */\n    tag_492:\n        /* \"#utility.yul\":5327:5377   */\n      tag_493\n        /* \"#utility.yul\":5369:5376   */\n      dup8\n        /* \"#utility.yul\":5360:5366   */\n      dup3\n        /* \"#utility.yul\":5349:5358   */\n      dup9\n        /* \"#utility.yul\":5345:5367   */\n      add\n        /* \"#utility.yul\":5327:5377   */\n      tag_447\n      jump\t// in\n    tag_493:\n        /* \"#utility.yul\":5317:5377   */\n      swap5\n      pop\n      pop\n        /* \"#utility.yul\":5430:5432   */\n      0x20\n        /* \"#utility.yul\":5419:5428   */\n      dup6\n        /* \"#utility.yul\":5415:5433   */\n      add\n        /* \"#utility.yul\":5402:5434   */\n      calldataload\n        /* \"#utility.yul\":5459:5477   */\n      0xffffffffffffffff\n        /* \"#utility.yul\":5449:5457   */\n      dup2\n        /* \"#utility.yul\":5446:5478   */\n      gt\n        /* \"#utility.yul\":5443:5495   */\n      iszero\n      tag_494\n      jumpi\n        /* \"#utility.yul\":5491:5492   */\n      0x00\n        /* \"#utility.yul\":5488:5489   */\n      0x00\n        /* \"#utility.yul\":5481:5493   */\n      revert\n        /* \"#utility.yul\":5443:5495   */\n    tag_494:\n        /* \"#utility.yul\":5514:5566   */\n      tag_495\n        /* \"#utility.yul\":5558:5565   */\n      dup8\n        /* \"#utility.yul\":5547:5555   */\n      dup3\n        /* \"#utility.yul\":5536:5545   */\n      dup9\n        /* \"#utility.yul\":5532:5556   */\n      add\n        /* \"#utility.yul\":5514:5566   */\n      tag_447\n      jump\t// in\n    tag_495:\n        /* \"#utility.yul\":5504:5566   */\n      swap4\n      pop\n      pop\n        /* \"#utility.yul\":5635:5637   */\n      0x40\n        /* \"#utility.yul\":5620:5638   */\n      dup6\n      add\n        /* \"#utility.yul\":5607:5639   */\n      calldataload\n      swap2\n      pop\n        /* \"#utility.yul\":5682:5720   */\n      tag_496\n        /* \"#utility.yul\":5716:5718   */\n      0x60\n        /* \"#utility.yul\":5701:5719   */\n      dup7\n      add\n        /* \"#utility.yul\":5682:5720   */\n      tag_446\n      jump\t// in\n    tag_496:\n        /* \"#utility.yul\":5672:5720   */\n      swap1\n      pop\n        /* \"#utility.yul\":4999:5726   */\n      swap3\n      swap6\n      swap2\n      swap5\n      pop\n      swap3\n      pop\n      jump\t// out\n        /* \"#utility.yul\":5731:6469   */\n    tag_109:\n        /* \"#utility.yul\":6057:6060   */\n      0xc0\n        /* \"#utility.yul\":6046:6055   */\n      dup2\n        /* \"#utility.yul\":6039:6061   */\n      mstore\n        /* \"#utility.yul\":6020:6024   */\n      0x00\n        /* \"#utility.yul\":6084:6130   */\n      tag_498\n        /* \"#utility.yul\":6125:6128   */\n      0xc0\n        /* \"#utility.yul\":6114:6123   */\n      dup4\n        /* \"#utility.yul\":6110:6129   */\n      add\n        /* \"#utility.yul\":6102:6108   */\n      dup10\n        /* \"#utility.yul\":6084:6130   */\n      tag_444\n      jump\t// in\n    tag_498:\n        /* \"#utility.yul\":6178:6187   */\n      dup3\n        /* \"#utility.yul\":6170:6176   */\n      dup2\n        /* \"#utility.yul\":6166:6188   */\n      sub\n        /* \"#utility.yul\":6161:6163   */\n      0x20\n        /* \"#utility.yul\":6150:6159   */\n      dup5\n        /* \"#utility.yul\":6146:6164   */\n      add\n        /* \"#utility.yul\":6139:6189   */\n      mstore\n        /* \"#utility.yul\":6206:6239   */\n      tag_499\n        /* \"#utility.yul\":6232:6238   */\n      dup2\n        /* \"#utility.yul\":6224:6230   */\n      dup10\n        /* \"#utility.yul\":6206:6239   */\n      tag_444\n      jump\t// in\n    tag_499:\n        /* \"#utility.yul\":6270:6272   */\n      0x40\n        /* \"#utility.yul\":6255:6273   */\n      dup5\n      add\n        /* \"#utility.yul\":6248:6282   */\n      dup9\n      swap1\n      mstore\n      sub(shl(0xa0, 0x01), 0x01)\n        /* \"#utility.yul\":6318:6350   */\n      dup8\n      and\n        /* \"#utility.yul\":6313:6315   */\n      0x60\n        /* \"#utility.yul\":6298:6316   */\n      dup6\n      add\n        /* \"#utility.yul\":6291:6351   */\n      mstore\n        /* \"#utility.yul\":6198:6239   */\n      swap2\n      pop\n        /* \"#utility.yul\":6360:6419   */\n      tag_500\n      swap1\n      pop\n        /* \"#utility.yul\":6414:6417   */\n      0x80\n        /* \"#utility.yul\":6399:6418   */\n      dup4\n      add\n        /* \"#utility.yul\":6391:6397   */\n      dup6\n        /* \"#utility.yul\":6360:6419   */\n      tag_445\n      jump\t// in\n    tag_500:\n        /* \"#utility.yul\":6456:6462   */\n      dup3\n        /* \"#utility.yul\":6450:6453   */\n      0xa0\n        /* \"#utility.yul\":6439:6448   */\n      dup4\n        /* \"#utility.yul\":6435:6454   */\n      add\n        /* \"#utility.yul\":6428:6463   */\n      mstore\n        /* \"#utility.yul\":5731:6469   */\n      swap8\n      swap7\n      pop\n      pop\n      pop\n      pop\n      pop\n      pop\n      pop\n      jump\t// out\n        /* \"#utility.yul\":6706:7086   */\n    tag_135:\n        /* \"#utility.yul\":6785:6786   */\n      0x01\n        /* \"#utility.yul\":6781:6793   */\n      dup2\n      dup2\n      shr\n      swap1\n        /* \"#utility.yul\":6828:6840   */\n      dup3\n      and\n      dup1\n        /* \"#utility.yul\":6849:6910   */\n      tag_503\n      jumpi\n        /* \"#utility.yul\":6903:6907   */\n      0x7f\n        /* \"#utility.yul\":6895:6901   */\n      dup3\n        /* \"#utility.yul\":6891:6908   */\n      and\n        /* \"#utility.yul\":6881:6908   */\n      swap2\n      pop\n        /* \"#utility.yul\":6849:6910   */\n    tag_503:\n        /* \"#utility.yul\":6956:6958   */\n      0x20\n        /* \"#utility.yul\":6948:6954   */\n      dup3\n        /* \"#utility.yul\":6945:6959   */\n      lt\n        /* \"#utility.yul\":6925:6943   */\n      dup2\n        /* \"#utility.yul\":6922:6960   */\n      sub\n        /* \"#utility.yul\":6919:7080   */\n      tag_504\n      jumpi\n        /* \"#utility.yul\":7002:7012   */\n      0x4e487b71\n        /* \"#utility.yul\":6997:7000   */\n      0xe0\n        /* \"#utility.yul\":6993:7013   */\n      shl\n        /* \"#utility.yul\":6990:6991   */\n      0x00\n        /* \"#utility.yul\":6983:7014   */\n      mstore\n        /* \"#utility.yul\":7037:7041   */\n      0x22\n        /* \"#utility.yul\":7034:7035   */\n      0x04\n        /* \"#utility.yul\":7027:7042   */\n      mstore\n        /* \"#utility.yul\":7065:7069   */\n      0x24\n        /* \"#utility.yul\":7062:7063   */\n      0x00\n        /* \"#utility.yul\":7055:7070   */\n      revert\n        /* \"#utility.yul\":6919:7080   */\n    tag_504:\n      pop\n        /* \"#utility.yul\":6706:7086   */\n      swap2\n      swap1\n      pop\n      jump\t// out\n        /* \"#utility.yul\":7438:7565   */\n    tag_448:\n        /* \"#utility.yul\":7499:7509   */\n      0x4e487b71\n        /* \"#utility.yul\":7494:7497   */\n      0xe0\n        /* \"#utility.yul\":7490:7510   */\n      shl\n        /* \"#utility.yul\":7487:7488   */\n      0x00\n        /* \"#utility.yul\":7480:7511   */\n      mstore\n        /* \"#utility.yul\":7530:7534   */\n      0x11\n        /* \"#utility.yul\":7527:7528   */\n      0x04\n        /* \"#utility.yul\":7520:7535   */\n      mstore\n        /* \"#utility.yul\":7554:7558   */\n      0x24\n        /* \"#utility.yul\":7551:7552   */\n      0x00\n        /* \"#utility.yul\":7544:7559   */\n      revert\n        /* \"#utility.yul\":7570:7706   */\n    tag_153:\n        /* \"#utility.yul\":7609:7612   */\n      0x00\n        /* \"#utility.yul\":7637:7642   */\n      dup2\n        /* \"#utility.yul\":7627:7666   */\n      tag_509\n      jumpi\n        /* \"#utility.yul\":7646:7664   */\n      tag_509\n      tag_448\n      jump\t// in\n    tag_509:\n      pop\n      not(0x00)\n        /* \"#utility.yul\":7682:7700   */\n      add\n      swap1\n        /* \"#utility.yul\":7570:7706   */\n      jump\t// out\n        /* \"#utility.yul\":7711:7895   */\n    tag_160:\n        /* \"#utility.yul\":7781:7787   */\n      0x00\n        /* \"#utility.yul\":7834:7836   */\n      0x20\n        /* \"#utility.yul\":7822:7831   */\n      dup3\n        /* \"#utility.yul\":7813:7820   */\n      dup5\n        /* \"#utility.yul\":7809:7832   */\n      sub\n        /* \"#utility.yul\":7805:7837   */\n      slt\n        /* \"#utility.yul\":7802:7854   */\n      iszero\n      tag_511\n      jumpi\n        /* \"#utility.yul\":7850:7851   */\n      0x00\n        /* \"#utility.yul\":7847:7848   */\n      0x00\n        /* \"#utility.yul\":7840:7852   */\n      revert\n        /* \"#utility.yul\":7802:7854   */\n    tag_511:\n      pop\n        /* \"#utility.yul\":7873:7889   */\n      mload\n      swap2\n        /* \"#utility.yul\":7711:7895   */\n      swap1\n      pop\n      jump\t// out\n        /* \"#utility.yul\":8249:8417   */\n    tag_165:\n        /* \"#utility.yul\":8322:8331   */\n      dup1\n      dup3\n      mul\n        /* \"#utility.yul\":8353:8362   */\n      dup2\n      iszero\n        /* \"#utility.yul\":8370:8385   */\n      dup3\n      dup3\n      div\n        /* \"#utility.yul\":8364:8386   */\n      dup5\n      eq\n        /* \"#utility.yul\":8350:8387   */\n      or\n        /* \"#utility.yul\":8340:8411   */\n      tag_360\n      jumpi\n        /* \"#utility.yul\":8391:8409   */\n      tag_360\n      tag_448\n      jump\t// in\n        /* \"#utility.yul\":9938:10063   */\n    tag_193:\n        /* \"#utility.yul\":10003:10012   */\n      dup1\n      dup3\n      add\n        /* \"#utility.yul\":10024:10034   */\n      dup1\n      dup3\n      gt\n        /* \"#utility.yul\":10021:10057   */\n      iszero\n      tag_360\n      jumpi\n        /* \"#utility.yul\":10037:10055   */\n      tag_360\n      tag_448\n      jump\t// in\n        /* \"#utility.yul\":10068:10443   */\n    tag_449:\n        /* \"#utility.yul\":10156:10157   */\n      0x01\n        /* \"#utility.yul\":10174:10179   */\n      dup2\n        /* \"#utility.yul\":10188:10437   */\n    tag_525:\n        /* \"#utility.yul\":10209:10210   */\n      0x01\n        /* \"#utility.yul\":10199:10207   */\n      dup5\n        /* \"#utility.yul\":10196:10211   */\n      gt\n        /* \"#utility.yul\":10188:10437   */\n      iszero\n      tag_527\n      jumpi\n        /* \"#utility.yul\":10259:10263   */\n      dup1\n        /* \"#utility.yul\":10254:10257   */\n      dup6\n        /* \"#utility.yul\":10250:10264   */\n      div\n        /* \"#utility.yul\":10244:10248   */\n      dup2\n        /* \"#utility.yul\":10241:10265   */\n      gt\n        /* \"#utility.yul\":10238:10288   */\n      iszero\n      tag_529\n      jumpi\n        /* \"#utility.yul\":10268:10286   */\n      tag_529\n      tag_448\n      jump\t// in\n    tag_529:\n        /* \"#utility.yul\":10318:10319   */\n      0x01\n        /* \"#utility.yul\":10308:10316   */\n      dup5\n        /* \"#utility.yul\":10304:10320   */\n      and\n        /* \"#utility.yul\":10301:10350   */\n      iszero\n      tag_530\n      jumpi\n        /* \"#utility.yul\":10332:10348   */\n      swap1\n      dup2\n      mul\n      swap1\n        /* \"#utility.yul\":10301:10350   */\n    tag_530:\n        /* \"#utility.yul\":10415:10416   */\n      0x01\n        /* \"#utility.yul\":10411:10427   */\n      swap4\n      swap1\n      swap4\n      shr\n      swap3\n        /* \"#utility.yul\":10371:10386   */\n      dup1\n      mul\n        /* \"#utility.yul\":10188:10437   */\n      jump(tag_525)\n    tag_527:\n        /* \"#utility.yul\":10068:10443   */\n      swap4\n      pop\n      swap4\n      swap2\n      pop\n      pop\n      jump\t// out\n        /* \"#utility.yul\":10448:11350   */\n    tag_450:\n        /* \"#utility.yul\":10497:10502   */\n      0x00\n        /* \"#utility.yul\":10527:10535   */\n      dup3\n        /* \"#utility.yul\":10517:10597   */\n      tag_532\n      jumpi\n      pop\n        /* \"#utility.yul\":10568:10569   */\n      0x01\n        /* \"#utility.yul\":10582:10587   */\n      jump(tag_360)\n        /* \"#utility.yul\":10517:10597   */\n    tag_532:\n        /* \"#utility.yul\":10616:10620   */\n      dup2\n        /* \"#utility.yul\":10606:10682   */\n      tag_533\n      jumpi\n      pop\n        /* \"#utility.yul\":10653:10654   */\n      0x00\n        /* \"#utility.yul\":10667:10672   */\n      jump(tag_360)\n        /* \"#utility.yul\":10606:10682   */\n    tag_533:\n        /* \"#utility.yul\":10698:10702   */\n      dup2\n        /* \"#utility.yul\":10716:10717   */\n      0x01\n        /* \"#utility.yul\":10711:10770   */\n      dup2\n      eq\n      tag_535\n      jumpi\n        /* \"#utility.yul\":10784:10785   */\n      0x02\n        /* \"#utility.yul\":10779:10953   */\n      dup2\n      eq\n      tag_536\n      jumpi\n        /* \"#utility.yul\":10691:10953   */\n      jump(tag_534)\n        /* \"#utility.yul\":10711:10770   */\n    tag_535:\n        /* \"#utility.yul\":10741:10742   */\n      0x01\n        /* \"#utility.yul\":10732:10742   */\n      swap2\n      pop\n        /* \"#utility.yul\":10755:10760   */\n      pop\n      jump(tag_360)\n        /* \"#utility.yul\":10779:10953   */\n    tag_536:\n        /* \"#utility.yul\":10816:10819   */\n      0xff\n        /* \"#utility.yul\":10806:10814   */\n      dup5\n        /* \"#utility.yul\":10803:10820   */\n      gt\n        /* \"#utility.yul\":10800:10843   */\n      iszero\n      tag_538\n      jumpi\n        /* \"#utility.yul\":10823:10841   */\n      tag_538\n      tag_448\n      jump\t// in\n    tag_538:\n      pop\n      pop\n        /* \"#utility.yul\":10879:10880   */\n      0x01\n        /* \"#utility.yul\":10865:10881   */\n      dup3\n      shl\n        /* \"#utility.yul\":10938:10943   */\n      jump(tag_360)\n        /* \"#utility.yul\":10691:10953   */\n    tag_534:\n      pop\n        /* \"#utility.yul\":11037:11039   */\n      0x20\n        /* \"#utility.yul\":11027:11035   */\n      dup4\n        /* \"#utility.yul\":11024:11040   */\n      lt\n        /* \"#utility.yul\":11018:11021   */\n      0x0133\n        /* \"#utility.yul\":11012:11016   */\n      dup4\n        /* \"#utility.yul\":11009:11022   */\n      lt\n        /* \"#utility.yul\":11005:11041   */\n      and\n        /* \"#utility.yul\":10999:11001   */\n      0x4e\n        /* \"#utility.yul\":10989:10997   */\n      dup5\n        /* \"#utility.yul\":10986:11002   */\n      lt\n        /* \"#utility.yul\":10981:10983   */\n      0x0b\n        /* \"#utility.yul\":10975:10979   */\n      dup5\n        /* \"#utility.yul\":10972:10984   */\n      lt\n        /* \"#utility.yul\":10968:11003   */\n      and\n        /* \"#utility.yul\":10965:11042   */\n      or\n        /* \"#utility.yul\":10962:11165   */\n      iszero\n      tag_539\n      jumpi\n      pop\n        /* \"#utility.yul\":11074:11093   */\n      dup2\n      dup2\n      exp\n        /* \"#utility.yul\":11150:11155   */\n      jump(tag_360)\n        /* \"#utility.yul\":10962:11165   */\n    tag_539:\n        /* \"#utility.yul\":11197:11239   */\n      tag_540\n      not(0x00)\n        /* \"#utility.yul\":11222:11230   */\n      dup5\n        /* \"#utility.yul\":11216:11220   */\n      dup5\n        /* \"#utility.yul\":11197:11239   */\n      tag_449\n      jump\t// in\n    tag_540:\n        /* \"#utility.yul\":11275:11281   */\n      dup1\n        /* \"#utility.yul\":11271:11272   */\n      0x00\n        /* \"#utility.yul\":11267:11273   */\n      not\n        /* \"#utility.yul\":11263:11282   */\n      div\n        /* \"#utility.yul\":11254:11261   */\n      dup3\n        /* \"#utility.yul\":11251:11283   */\n      gt\n        /* \"#utility.yul\":11248:11306   */\n      iszero\n      tag_542\n      jumpi\n        /* \"#utility.yul\":11286:11304   */\n      tag_542\n      tag_448\n      jump\t// in\n    tag_542:\n        /* \"#utility.yul\":11324:11344   */\n      mul\n      swap4\n        /* \"#utility.yul\":10448:11350   */\n      swap3\n      pop\n      pop\n      pop\n      jump\t// out\n        /* \"#utility.yul\":11355:11495   */\n    tag_195:\n        /* \"#utility.yul\":11413:11418   */\n      0x00\n        /* \"#utility.yul\":11442:11489   */\n      tag_418\n        /* \"#utility.yul\":11483:11487   */\n      0xff\n        /* \"#utility.yul\":11473:11481   */\n      dup5\n        /* \"#utility.yul\":11469:11488   */\n      and\n        /* \"#utility.yul\":11463:11467   */\n      dup4\n        /* \"#utility.yul\":11442:11489   */\n      tag_450\n      jump\t// in\n        /* \"#utility.yul\":11500:11628   */\n    tag_198:\n        /* \"#utility.yul\":11567:11576   */\n      dup2\n      dup2\n      sub\n        /* \"#utility.yul\":11588:11599   */\n      dup2\n      dup2\n      gt\n        /* \"#utility.yul\":11585:11622   */\n      iszero\n      tag_360\n      jumpi\n        /* \"#utility.yul\":11602:11620   */\n      tag_360\n      tag_448\n      jump\t// in\n        /* \"#utility.yul\":12009:12286   */\n    tag_204:\n        /* \"#utility.yul\":12076:12082   */\n      0x00\n        /* \"#utility.yul\":12129:12131   */\n      0x20\n        /* \"#utility.yul\":12117:12126   */\n      dup3\n        /* \"#utility.yul\":12108:12115   */\n      dup5\n        /* \"#utility.yul\":12104:12127   */\n      sub\n        /* \"#utility.yul\":12100:12132   */\n      slt\n        /* \"#utility.yul\":12097:12149   */\n      iszero\n      tag_550\n      jumpi\n        /* \"#utility.yul\":12145:12146   */\n      0x00\n        /* \"#utility.yul\":12142:12143   */\n      0x00\n        /* \"#utility.yul\":12135:12147   */\n      revert\n        /* \"#utility.yul\":12097:12149   */\n    tag_550:\n        /* \"#utility.yul\":12177:12186   */\n      dup2\n        /* \"#utility.yul\":12171:12187   */\n      mload\n        /* \"#utility.yul\":12230:12235   */\n      dup1\n        /* \"#utility.yul\":12223:12236   */\n      iszero\n        /* \"#utility.yul\":12216:12237   */\n      iszero\n        /* \"#utility.yul\":12209:12214   */\n      dup2\n        /* \"#utility.yul\":12206:12238   */\n      eq\n        /* \"#utility.yul\":12196:12256   */\n      tag_418\n      jumpi\n        /* \"#utility.yul\":12252:12253   */\n      0x00\n        /* \"#utility.yul\":12249:12250   */\n      0x00\n        /* \"#utility.yul\":12242:12254   */\n      revert\n        /* \"#utility.yul\":13231:13366   */\n    tag_226:\n        /* \"#utility.yul\":13270:13273   */\n      0x00\n        /* \"#utility.yul\":13291:13308   */\n      0x01\n      dup3\n      add\n        /* \"#utility.yul\":13288:13331   */\n      tag_557\n      jumpi\n        /* \"#utility.yul\":13311:13329   */\n      tag_557\n      tag_448\n      jump\t// in\n    tag_557:\n      pop\n        /* \"#utility.yul\":13358:13359   */\n      0x01\n        /* \"#utility.yul\":13347:13360   */\n      add\n      swap1\n        /* \"#utility.yul\":13231:13366   */\n      jump\t// out\n        /* \"#utility.yul\":13371:13498   */\n    tag_238:\n        /* \"#utility.yul\":13432:13442   */\n      0x4e487b71\n        /* \"#utility.yul\":13427:13430   */\n      0xe0\n        /* \"#utility.yul\":13423:13443   */\n      shl\n        /* \"#utility.yul\":13420:13421   */\n      0x00\n        /* \"#utility.yul\":13413:13444   */\n      mstore\n        /* \"#utility.yul\":13463:13467   */\n      0x32\n        /* \"#utility.yul\":13460:13461   */\n      0x04\n        /* \"#utility.yul\":13453:13468   */\n      mstore\n        /* \"#utility.yul\":13487:13491   */\n      0x24\n        /* \"#utility.yul\":13484:13485   */\n      0x00\n        /* \"#utility.yul\":13477:13492   */\n      revert\n        /* \"#utility.yul\":14654:15172   */\n    tag_452:\n        /* \"#utility.yul\":14756:14758   */\n      0x1f\n        /* \"#utility.yul\":14751:14754   */\n      dup3\n        /* \"#utility.yul\":14748:14759   */\n      gt\n        /* \"#utility.yul\":14745:15166   */\n      iszero\n      tag_176\n      jumpi\n        /* \"#utility.yul\":14792:14797   */\n      dup1\n        /* \"#utility.yul\":14789:14790   */\n      0x00\n        /* \"#utility.yul\":14782:14798   */\n      mstore\n        /* \"#utility.yul\":14836:14840   */\n      0x20\n        /* \"#utility.yul\":14833:14834   */\n      0x00\n        /* \"#utility.yul\":14823:14841   */\n      keccak256\n        /* \"#utility.yul\":14906:14908   */\n      0x1f\n        /* \"#utility.yul\":14894:14904   */\n      dup5\n        /* \"#utility.yul\":14890:14909   */\n      add\n        /* \"#utility.yul\":14887:14888   */\n      0x05\n        /* \"#utility.yul\":14883:14910   */\n      shr\n        /* \"#utility.yul\":14877:14881   */\n      dup2\n        /* \"#utility.yul\":14873:14911   */\n      add\n        /* \"#utility.yul\":14942:14946   */\n      0x20\n        /* \"#utility.yul\":14930:14940   */\n      dup6\n        /* \"#utility.yul\":14927:14947   */\n      lt\n        /* \"#utility.yul\":14924:14971   */\n      iszero\n      tag_565\n      jumpi\n      pop\n        /* \"#utility.yul\":14965:14969   */\n      dup1\n        /* \"#utility.yul\":14924:14971   */\n    tag_565:\n        /* \"#utility.yul\":15020:15022   */\n      0x1f\n        /* \"#utility.yul\":15015:15018   */\n      dup5\n        /* \"#utility.yul\":15011:15023   */\n      add\n        /* \"#utility.yul\":15008:15009   */\n      0x05\n        /* \"#utility.yul\":15004:15024   */\n      shr\n        /* \"#utility.yul\":14998:15002   */\n      dup3\n        /* \"#utility.yul\":14994:15025   */\n      add\n        /* \"#utility.yul\":14984:15025   */\n      swap2\n      pop\n        /* \"#utility.yul\":15075:15156   */\n    tag_566:\n        /* \"#utility.yul\":15093:15095   */\n      dup2\n        /* \"#utility.yul\":15086:15091   */\n      dup2\n        /* \"#utility.yul\":15083:15096   */\n      lt\n        /* \"#utility.yul\":15075:15156   */\n      iszero\n      tag_568\n      jumpi\n        /* \"#utility.yul\":15152:15153   */\n      0x00\n        /* \"#utility.yul\":15138:15154   */\n      dup2\n      sstore\n        /* \"#utility.yul\":15119:15120   */\n      0x01\n        /* \"#utility.yul\":15108:15121   */\n      add\n        /* \"#utility.yul\":15075:15156   */\n      jump(tag_566)\n    tag_568:\n        /* \"#utility.yul\":15079:15082   */\n      pop\n      pop\n        /* \"#utility.yul\":14654:15172   */\n      pop\n      pop\n      pop\n      jump\t// out\n        /* \"#utility.yul\":15348:16647   */\n    tag_255:\n        /* \"#utility.yul\":15474:15477   */\n      dup2\n        /* \"#utility.yul\":15468:15478   */\n      mload\n        /* \"#utility.yul\":15501:15519   */\n      0xffffffffffffffff\n        /* \"#utility.yul\":15493:15499   */\n      dup2\n        /* \"#utility.yul\":15490:15520   */\n      gt\n        /* \"#utility.yul\":15487:15543   */\n      iszero\n      tag_572\n      jumpi\n        /* \"#utility.yul\":15523:15541   */\n      tag_572\n      tag_229\n      jump\t// in\n    tag_572:\n        /* \"#utility.yul\":15552:15649   */\n      tag_573\n        /* \"#utility.yul\":15642:15648   */\n      dup2\n        /* \"#utility.yul\":15602:15640   */\n      tag_574\n        /* \"#utility.yul\":15634:15638   */\n      dup5\n        /* \"#utility.yul\":15628:15639   */\n      sload\n        /* \"#utility.yul\":15602:15640   */\n      tag_135\n      jump\t// in\n    tag_574:\n        /* \"#utility.yul\":15596:15600   */\n      dup5\n        /* \"#utility.yul\":15552:15649   */\n      tag_452\n      jump\t// in\n    tag_573:\n        /* \"#utility.yul\":15698:15702   */\n      0x20\n        /* \"#utility.yul\":15729:15731   */\n      0x1f\n        /* \"#utility.yul\":15718:15732   */\n      dup3\n      gt\n        /* \"#utility.yul\":15746:15747   */\n      0x01\n        /* \"#utility.yul\":15741:16390   */\n      dup2\n      eq\n      tag_576\n      jumpi\n        /* \"#utility.yul\":16434:16435   */\n      0x00\n        /* \"#utility.yul\":16451:16457   */\n      dup4\n        /* \"#utility.yul\":16448:16537   */\n      iszero\n      tag_577\n      jumpi\n      pop\n        /* \"#utility.yul\":16503:16522   */\n      dup5\n      dup3\n      add\n        /* \"#utility.yul\":16497:16523   */\n      mload\n        /* \"#utility.yul\":16448:16537   */\n    tag_577:\n      not(0x00)\n        /* \"#utility.yul\":15305:15306   */\n      0x03\n        /* \"#utility.yul\":15301:15312   */\n      dup6\n      swap1\n      shl\n        /* \"#utility.yul\":15297:15321   */\n      shr\n        /* \"#utility.yul\":15293:15322   */\n      not\n        /* \"#utility.yul\":15283:15323   */\n      and\n        /* \"#utility.yul\":15329:15330   */\n      0x01\n        /* \"#utility.yul\":15325:15336   */\n      dup5\n      swap1\n      shl\n        /* \"#utility.yul\":15280:15337   */\n      or\n        /* \"#utility.yul\":16550:16631   */\n      dup5\n      sstore\n        /* \"#utility.yul\":15711:16641   */\n      jump(tag_568)\n        /* \"#utility.yul\":15741:16390   */\n    tag_576:\n        /* \"#utility.yul\":14601:14602   */\n      0x00\n        /* \"#utility.yul\":14594:14608   */\n      dup5\n      dup2\n      mstore\n        /* \"#utility.yul\":14638:14642   */\n      0x20\n        /* \"#utility.yul\":14625:14643   */\n      dup2\n      keccak256\n      not(0x1f)\n        /* \"#utility.yul\":15777:15797   */\n      dup6\n      and\n      swap2\n        /* \"#utility.yul\":15895:16117   */\n    tag_580:\n        /* \"#utility.yul\":15909:15916   */\n      dup3\n        /* \"#utility.yul\":15906:15907   */\n      dup2\n        /* \"#utility.yul\":15903:15917   */\n      lt\n        /* \"#utility.yul\":15895:16117   */\n      iszero\n      tag_582\n      jumpi\n        /* \"#utility.yul\":15991:16010   */\n      dup8\n      dup6\n      add\n        /* \"#utility.yul\":15985:16011   */\n      mload\n        /* \"#utility.yul\":15970:16012   */\n      dup3\n      sstore\n        /* \"#utility.yul\":16098:16102   */\n      0x20\n        /* \"#utility.yul\":16083:16103   */\n      swap5\n      dup6\n      add\n      swap5\n        /* \"#utility.yul\":16051:16052   */\n      0x01\n        /* \"#utility.yul\":16039:16053   */\n      swap1\n      swap3\n      add\n      swap2\n        /* \"#utility.yul\":15925:15937   */\n      add\n        /* \"#utility.yul\":15895:16117   */\n      jump(tag_580)\n    tag_582:\n        /* \"#utility.yul\":15899:15902   */\n      pop\n        /* \"#utility.yul\":16145:16151   */\n      dup5\n        /* \"#utility.yul\":16136:16143   */\n      dup3\n        /* \"#utility.yul\":16133:16152   */\n      lt\n        /* \"#utility.yul\":16130:16331   */\n      iszero\n      tag_583\n      jumpi\n        /* \"#utility.yul\":16206:16225   */\n      dup7\n      dup5\n      add\n        /* \"#utility.yul\":16200:16226   */\n      mload\n      not(0x00)\n        /* \"#utility.yul\":16289:16290   */\n      0x03\n        /* \"#utility.yul\":16285:16299   */\n      dup8\n      swap1\n      shl\n        /* \"#utility.yul\":16301:16304   */\n      0xf8\n        /* \"#utility.yul\":16281:16305   */\n      and\n        /* \"#utility.yul\":16277:16314   */\n      shr\n        /* \"#utility.yul\":16273:16315   */\n      not\n        /* \"#utility.yul\":16258:16316   */\n      and\n        /* \"#utility.yul\":16243:16317   */\n      dup2\n      sstore\n        /* \"#utility.yul\":16130:16331   */\n    tag_583:\n      pop\n      pop\n      pop\n      pop\n        /* \"#utility.yul\":16377:16378   */\n      0x01\n        /* \"#utility.yul\":16361:16375   */\n      swap1\n      dup2\n      shl\n        /* \"#utility.yul\":16357:16379   */\n      add\n        /* \"#utility.yul\":16344:16380   */\n      swap1\n      sstore\n      pop\n        /* \"#utility.yul\":15348:16647   */\n      jump\t// out\n        /* \"#utility.yul\":16652:16943   */\n    tag_262:\n        /* \"#utility.yul\":16829:16831   */\n      0x40\n        /* \"#utility.yul\":16818:16827   */\n      dup2\n        /* \"#utility.yul\":16811:16832   */\n      mstore\n        /* \"#utility.yul\":16792:16796   */\n      0x00\n        /* \"#utility.yul\":16849:16894   */\n      tag_585\n        /* \"#utility.yul\":16890:16892   */\n      0x40\n        /* \"#utility.yul\":16879:16888   */\n      dup4\n        /* \"#utility.yul\":16875:16893   */\n      add\n        /* \"#utility.yul\":16867:16873   */\n      dup6\n        /* \"#utility.yul\":16849:16894   */\n      tag_444\n      jump\t// in\n    tag_585:\n        /* \"#utility.yul\":16841:16894   */\n      swap1\n      pop\n        /* \"#utility.yul\":16930:16936   */\n      dup3\n        /* \"#utility.yul\":16925:16927   */\n      0x20\n        /* \"#utility.yul\":16914:16923   */\n      dup4\n        /* \"#utility.yul\":16910:16928   */\n      add\n        /* \"#utility.yul\":16903:16937   */\n      mstore\n        /* \"#utility.yul\":16652:16943   */\n      swap4\n      swap3\n      pop\n      pop\n      pop\n      jump\t// out\n        /* \"#utility.yul\":17952:18253   */\n    tag_296:\n        /* \"#utility.yul\":18081:18084   */\n      0x00\n        /* \"#utility.yul\":18119:18125   */\n      dup3\n        /* \"#utility.yul\":18113:18126   */\n      mload\n        /* \"#utility.yul\":18165:18171   */\n      dup1\n        /* \"#utility.yul\":18158:18162   */\n      0x20\n        /* \"#utility.yul\":18150:18156   */\n      dup6\n        /* \"#utility.yul\":18146:18163   */\n      add\n        /* \"#utility.yul\":18141:18144   */\n      dup5\n        /* \"#utility.yul\":18135:18172   */\n      mcopy\n        /* \"#utility.yul\":18227:18228   */\n      0x00\n        /* \"#utility.yul\":18191:18207   */\n      swap3\n      add\n        /* \"#utility.yul\":18216:18229   */\n      swap2\n      dup3\n      mstore\n      pop\n        /* \"#utility.yul\":18191:18207   */\n      swap2\n        /* \"#utility.yul\":17952:18253   */\n      swap1\n      pop\n      jump\t// out\n        /* \"#utility.yul\":18943:19160   */\n    tag_325:\n        /* \"#utility.yul\":18983:18984   */\n      0x00\n        /* \"#utility.yul\":19009:19010   */\n      dup3\n        /* \"#utility.yul\":18999:19131   */\n      tag_593\n      jumpi\n        /* \"#utility.yul\":19053:19063   */\n      0x4e487b71\n        /* \"#utility.yul\":19048:19051   */\n      0xe0\n        /* \"#utility.yul\":19044:19064   */\n      shl\n        /* \"#utility.yul\":19041:19042   */\n      0x00\n        /* \"#utility.yul\":19034:19065   */\n      mstore\n        /* \"#utility.yul\":19088:19092   */\n      0x12\n        /* \"#utility.yul\":19085:19086   */\n      0x04\n        /* \"#utility.yul\":19078:19093   */\n      mstore\n        /* \"#utility.yul\":19116:19120   */\n      0x24\n        /* \"#utility.yul\":19113:19114   */\n      0x00\n        /* \"#utility.yul\":19106:19121   */\n      revert\n        /* \"#utility.yul\":18999:19131   */\n    tag_593:\n      pop\n        /* \"#utility.yul\":19145:19154   */\n      div\n      swap1\n        /* \"#utility.yul\":18943:19160   */\n      jump\t// out\n\n    auxdata: 0xa26469706673582212208cbb73a194afcaa388b3fa7582fb314b6aa9ff7436fa4134d01d4e8bb1769c1264736f6c634300081f0033\n}\n\nsub_1: assembly {\n        /* \"src/GovernanceToken.sol\":119:926  contract GovernanceToken is ERC20 {... */\n      mstore(0x40, 0x80)\n        /* \"src/GovernanceToken.sol\":420:582  constructor(string memory name, string memory symbol) ERC20(name, symbol) {... */\n      callvalue\n      dup1\n      iszero\n      tag_1\n      jumpi\n      revert(0x00, 0x00)\n    tag_1:\n      pop\n      mload(0x40)\n      sub(codesize, bytecodeSize)\n      dup1\n      bytecodeSize\n      dup4\n      codecopy\n      dup2\n      add\n      0x40\n      dup2\n      swap1\n      mstore\n      tag_2\n      swap2\n      tag_3\n      jump\t// in\n    tag_2:\n        /* \"src/GovernanceToken.sol\":480:484  name */\n      dup2\n        /* \"src/GovernanceToken.sol\":486:492  symbol */\n      dup2\n        /* \"@openzeppelin/contracts/token/ERC20/ERC20.sol\":1648:1653  _name */\n      0x03\n        /* \"@openzeppelin/contracts/token/ERC20/ERC20.sol\":1648:1661  _name = name_ */\n      tag_7\n        /* \"src/GovernanceToken.sol\":480:484  name */\n      dup4\n        /* \"@openzeppelin/contracts/token/ERC20/ERC20.sol\":1648:1653  _name */\n      dup3\n        /* \"@openzeppelin/contracts/token/ERC20/ERC20.sol\":1648:1661  _name = name_ */\n      tag_8\n      jump\t// in\n    tag_7:\n      pop\n        /* \"@openzeppelin/contracts/token/ERC20/ERC20.sol\":1671:1678  _symbol */\n      0x04\n        /* \"@openzeppelin/contracts/token/ERC20/ERC20.sol\":1671:1688  _symbol = symbol_ */\n      tag_9\n        /* \"@openzeppelin/contracts/token/ERC20/ERC20.sol\":1681:1688  symbol_ */\n      dup3\n        /* \"@openzeppelin/contracts/token/ERC20/ERC20.sol\":1671:1678  _symbol */\n      dup3\n        /* \"@openzeppelin/contracts/token/ERC20/ERC20.sol\":1671:1688  _symbol = symbol_ */\n      tag_8\n      jump\t// in\n    tag_9:\n      pop\n      pop\n        /* \"src/GovernanceToken.sol\":505:519  votingContract */\n      0x05\n        /* \"src/GovernanceToken.sol\":505:532  votingContract = msg.sender */\n      dup1\n      sload\n      not(sub(shl(0xa0, 0x01), 0x01))\n      and\n        /* \"src/GovernanceToken.sol\":522:532  msg.sender */\n      caller\n        /* \"src/GovernanceToken.sol\":505:532  votingContract = msg.sender */\n      or\n      swap1\n      sstore\n      pop\n        /* \"src/GovernanceToken.sol\":119:926  contract GovernanceToken is ERC20 {... */\n      tag_18\n      swap2\n      pop\n      pop\n      jump\n        /* \"#utility.yul\":14:141   */\n    tag_12:\n        /* \"#utility.yul\":75:85   */\n      0x4e487b71\n        /* \"#utility.yul\":70:73   */\n      0xe0\n        /* \"#utility.yul\":66:86   */\n      shl\n        /* \"#utility.yul\":63:64   */\n      0x00\n        /* \"#utility.yul\":56:87   */\n      mstore\n        /* \"#utility.yul\":106:110   */\n      0x41\n        /* \"#utility.yul\":103:104   */\n      0x04\n        /* \"#utility.yul\":96:111   */\n      mstore\n        /* \"#utility.yul\":130:134   */\n      0x24\n        /* \"#utility.yul\":127:128   */\n      0x00\n        /* \"#utility.yul\":120:135   */\n      revert\n        /* \"#utility.yul\":146:869   */\n    tag_13:\n        /* \"#utility.yul\":200:205   */\n      0x00\n        /* \"#utility.yul\":253:256   */\n      dup3\n        /* \"#utility.yul\":246:250   */\n      0x1f\n        /* \"#utility.yul\":238:244   */\n      dup4\n        /* \"#utility.yul\":234:251   */\n      add\n        /* \"#utility.yul\":230:257   */\n      slt\n        /* \"#utility.yul\":220:275   */\n      tag_21\n      jumpi\n        /* \"#utility.yul\":271:272   */\n      0x00\n        /* \"#utility.yul\":268:269   */\n      0x00\n        /* \"#utility.yul\":261:273   */\n      revert\n        /* \"#utility.yul\":220:275   */\n    tag_21:\n        /* \"#utility.yul\":298:311   */\n      dup2\n      mload\n      sub(shl(0x40, 0x01), 0x01)\n        /* \"#utility.yul\":323:353   */\n      dup2\n      gt\n        /* \"#utility.yul\":320:376   */\n      iszero\n      tag_23\n      jumpi\n        /* \"#utility.yul\":356:374   */\n      tag_23\n      tag_12\n      jump\t// in\n    tag_23:\n        /* \"#utility.yul\":405:407   */\n      0x40\n        /* \"#utility.yul\":399:408   */\n      mload\n        /* \"#utility.yul\":497:499   */\n      0x1f\n        /* \"#utility.yul\":459:476   */\n      dup3\n      add\n      not(0x1f)\n        /* \"#utility.yul\":455:486   */\n      swap1\n      dup2\n      and\n        /* \"#utility.yul\":488:490   */\n      0x3f\n        /* \"#utility.yul\":451:491   */\n      add\n        /* \"#utility.yul\":447:501   */\n      and\n        /* \"#utility.yul\":435:502   */\n      dup2\n      add\n      sub(shl(0x40, 0x01), 0x01)\n        /* \"#utility.yul\":517:551   */\n      dup2\n      gt\n        /* \"#utility.yul\":553:575   */\n      dup3\n      dup3\n      lt\n        /* \"#utility.yul\":514:576   */\n      or\n        /* \"#utility.yul\":511:599   */\n      iszero\n      tag_25\n      jumpi\n        /* \"#utility.yul\":579:597   */\n      tag_25\n      tag_12\n      jump\t// in\n    tag_25:\n        /* \"#utility.yul\":615:617   */\n      0x40\n        /* \"#utility.yul\":608:630   */\n      mstore\n        /* \"#utility.yul\":639:661   */\n      dup2\n      dup2\n      mstore\n        /* \"#utility.yul\":680:699   */\n      dup4\n      dup3\n      add\n        /* \"#utility.yul\":701:705   */\n      0x20\n        /* \"#utility.yul\":676:706   */\n      add\n        /* \"#utility.yul\":673:712   */\n      dup6\n      lt\n        /* \"#utility.yul\":670:729   */\n      iszero\n      tag_26\n      jumpi\n        /* \"#utility.yul\":725:726   */\n      0x00\n        /* \"#utility.yul\":722:723   */\n      0x00\n        /* \"#utility.yul\":715:727   */\n      revert\n        /* \"#utility.yul\":670:729   */\n    tag_26:\n        /* \"#utility.yul\":782:788   */\n      dup2\n        /* \"#utility.yul\":775:779   */\n      0x20\n        /* \"#utility.yul\":767:773   */\n      dup6\n        /* \"#utility.yul\":763:780   */\n      add\n        /* \"#utility.yul\":756:760   */\n      0x20\n        /* \"#utility.yul\":748:754   */\n      dup4\n        /* \"#utility.yul\":744:761   */\n      add\n        /* \"#utility.yul\":738:789   */\n      mcopy\n        /* \"#utility.yul\":837:838   */\n      0x00\n        /* \"#utility.yul\":809:828   */\n      swap2\n      dup2\n      add\n        /* \"#utility.yul\":830:834   */\n      0x20\n        /* \"#utility.yul\":805:835   */\n      add\n        /* \"#utility.yul\":798:839   */\n      swap2\n      swap1\n      swap2\n      mstore\n        /* \"#utility.yul\":813:819   */\n      swap4\n        /* \"#utility.yul\":146:869   */\n      swap3\n      pop\n      pop\n      pop\n      jump\t// out\n        /* \"#utility.yul\":874:1431   */\n    tag_3:\n        /* \"#utility.yul\":973:979   */\n      0x00\n        /* \"#utility.yul\":981:987   */\n      0x00\n        /* \"#utility.yul\":1034:1036   */\n      0x40\n        /* \"#utility.yul\":1022:1031   */\n      dup4\n        /* \"#utility.yul\":1013:1020   */\n      dup6\n        /* \"#utility.yul\":1009:1032   */\n      sub\n        /* \"#utility.yul\":1005:1037   */\n      slt\n        /* \"#utility.yul\":1002:1054   */\n      iszero\n      tag_28\n      jumpi\n        /* \"#utility.yul\":1050:1051   */\n      0x00\n        /* \"#utility.yul\":1047:1048   */\n      0x00\n        /* \"#utility.yul\":1040:1052   */\n      revert\n        /* \"#utility.yul\":1002:1054   */\n    tag_28:\n        /* \"#utility.yul\":1077:1093   */\n      dup3\n      mload\n      sub(shl(0x40, 0x01), 0x01)\n        /* \"#utility.yul\":1105:1135   */\n      dup2\n      gt\n        /* \"#utility.yul\":1102:1152   */\n      iszero\n      tag_29\n      jumpi\n        /* \"#utility.yul\":1148:1149   */\n      0x00\n        /* \"#utility.yul\":1145:1146   */\n      0x00\n        /* \"#utility.yul\":1138:1150   */\n      revert\n        /* \"#utility.yul\":1102:1152   */\n    tag_29:\n        /* \"#utility.yul\":1171:1232   */\n      tag_30\n        /* \"#utility.yul\":1224:1231   */\n      dup6\n        /* \"#utility.yul\":1215:1221   */\n      dup3\n        /* \"#utility.yul\":1204:1213   */\n      dup7\n        /* \"#utility.yul\":1200:1222   */\n      add\n        /* \"#utility.yul\":1171:1232   */\n      tag_13\n      jump\t// in\n    tag_30:\n        /* \"#utility.yul\":1278:1280   */\n      0x20\n        /* \"#utility.yul\":1263:1281   */\n      dup6\n      add\n        /* \"#utility.yul\":1257:1282   */\n      mload\n        /* \"#utility.yul\":1161:1232   */\n      swap1\n      swap4\n      pop\n        /* \"#utility.yul\":1257:1282   */\n      swap1\n      pop\n      sub(shl(0x40, 0x01), 0x01)\n        /* \"#utility.yul\":1294:1326   */\n      dup2\n      gt\n        /* \"#utility.yul\":1291:1343   */\n      iszero\n      tag_31\n      jumpi\n        /* \"#utility.yul\":1339:1340   */\n      0x00\n        /* \"#utility.yul\":1336:1337   */\n      0x00\n        /* \"#utility.yul\":1329:1341   */\n      revert\n        /* \"#utility.yul\":1291:1343   */\n    tag_31:\n        /* \"#utility.yul\":1362:1425   */\n      tag_32\n        /* \"#utility.yul\":1417:1424   */\n      dup6\n        /* \"#utility.yul\":1406:1414   */\n      dup3\n        /* \"#utility.yul\":1395:1404   */\n      dup7\n        /* \"#utility.yul\":1391:1415   */\n      add\n        /* \"#utility.yul\":1362:1425   */\n      tag_13\n      jump\t// in\n    tag_32:\n        /* \"#utility.yul\":1352:1425   */\n      swap2\n      pop\n      pop\n        /* \"#utility.yul\":874:1431   */\n      swap3\n      pop\n      swap3\n      swap1\n      pop\n      jump\t// out\n        /* \"#utility.yul\":1436:1816   */\n    tag_14:\n        /* \"#utility.yul\":1515:1516   */\n      0x01\n        /* \"#utility.yul\":1511:1523   */\n      dup2\n      dup2\n      shr\n      swap1\n        /* \"#utility.yul\":1558:1570   */\n      dup3\n      and\n      dup1\n        /* \"#utility.yul\":1579:1640   */\n      tag_34\n      jumpi\n        /* \"#utility.yul\":1633:1637   */\n      0x7f\n        /* \"#utility.yul\":1625:1631   */\n      dup3\n        /* \"#utility.yul\":1621:1638   */\n      and\n        /* \"#utility.yul\":1611:1638   */\n      swap2\n      pop\n        /* \"#utility.yul\":1579:1640   */\n    tag_34:\n        /* \"#utility.yul\":1686:1688   */\n      0x20\n        /* \"#utility.yul\":1678:1684   */\n      dup3\n        /* \"#utility.yul\":1675:1689   */\n      lt\n        /* \"#utility.yul\":1655:1673   */\n      dup2\n        /* \"#utility.yul\":1652:1690   */\n      sub\n        /* \"#utility.yul\":1649:1810   */\n      tag_35\n      jumpi\n        /* \"#utility.yul\":1732:1742   */\n      0x4e487b71\n        /* \"#utility.yul\":1727:1730   */\n      0xe0\n        /* \"#utility.yul\":1723:1743   */\n      shl\n        /* \"#utility.yul\":1720:1721   */\n      0x00\n        /* \"#utility.yul\":1713:1744   */\n      mstore\n        /* \"#utility.yul\":1767:1771   */\n      0x22\n        /* \"#utility.yul\":1764:1765   */\n      0x04\n        /* \"#utility.yul\":1757:1772   */\n      mstore\n        /* \"#utility.yul\":1795:1799   */\n      0x24\n        /* \"#utility.yul\":1792:1793   */\n      0x00\n        /* \"#utility.yul\":1785:1800   */\n      revert\n        /* \"#utility.yul\":1649:1810   */\n    tag_35:\n      pop\n        /* \"#utility.yul\":1436:1816   */\n      swap2\n      swap1\n      pop\n      jump\t// out\n        /* \"#utility.yul\":1947:2465   */\n    tag_16:\n        /* \"#utility.yul\":2049:2051   */\n      0x1f\n        /* \"#utility.yul\":2044:2047   */\n      dup3\n        /* \"#utility.yul\":2041:2052   */\n      gt\n        /* \"#utility.yul\":2038:2459   */\n      iszero\n      tag_38\n      jumpi\n        /* \"#utility.yul\":2085:2090   */\n      dup1\n        /* \"#utility.yul\":2082:2083   */\n      0x00\n        /* \"#utility.yul\":2075:2091   */\n      mstore\n        /* \"#utility.yul\":2129:2133   */\n      0x20\n        /* \"#utility.yul\":2126:2127   */\n      0x00\n        /* \"#utility.yul\":2116:2134   */\n      keccak256\n        /* \"#utility.yul\":2199:2201   */\n      0x1f\n        /* \"#utility.yul\":2187:2197   */\n      dup5\n        /* \"#utility.yul\":2183:2202   */\n      add\n        /* \"#utility.yul\":2180:2181   */\n      0x05\n        /* \"#utility.yul\":2176:2203   */\n      shr\n        /* \"#utility.yul\":2170:2174   */\n      dup2\n        /* \"#utility.yul\":2166:2204   */\n      add\n        /* \"#utility.yul\":2235:2239   */\n      0x20\n        /* \"#utility.yul\":2223:2233   */\n      dup6\n        /* \"#utility.yul\":2220:2240   */\n      lt\n        /* \"#utility.yul\":2217:2264   */\n      iszero\n      tag_39\n      jumpi\n      pop\n        /* \"#utility.yul\":2258:2262   */\n      dup1\n        /* \"#utility.yul\":2217:2264   */\n    tag_39:\n        /* \"#utility.yul\":2313:2315   */\n      0x1f\n        /* \"#utility.yul\":2308:2311   */\n      dup5\n        /* \"#utility.yul\":2304:2316   */\n      add\n        /* \"#utility.yul\":2301:2302   */\n      0x05\n        /* \"#utility.yul\":2297:2317   */\n      shr\n        /* \"#utility.yul\":2291:2295   */\n      dup3\n        /* \"#utility.yul\":2287:2318   */\n      add\n        /* \"#utility.yul\":2277:2318   */\n      swap2\n      pop\n        /* \"#utility.yul\":2368:2449   */\n    tag_40:\n        /* \"#utility.yul\":2386:2388   */\n      dup2\n        /* \"#utility.yul\":2379:2384   */\n      dup2\n        /* \"#utility.yul\":2376:2389   */\n      lt\n        /* \"#utility.yul\":2368:2449   */\n      iszero\n      tag_42\n      jumpi\n        /* \"#utility.yul\":2445:2446   */\n      0x00\n        /* \"#utility.yul\":2431:2447   */\n      dup2\n      sstore\n        /* \"#utility.yul\":2412:2413   */\n      0x01\n        /* \"#utility.yul\":2401:2414   */\n      add\n        /* \"#utility.yul\":2368:2449   */\n      jump(tag_40)\n    tag_42:\n        /* \"#utility.yul\":2372:2375   */\n      pop\n      pop\n        /* \"#utility.yul\":2038:2459   */\n    tag_38:\n        /* \"#utility.yul\":1947:2465   */\n      pop\n      pop\n      pop\n      jump\t// out\n        /* \"#utility.yul\":2641:3940   */\n    tag_8:\n        /* \"#utility.yul\":2761:2771   */\n      dup2\n      mload\n      sub(shl(0x40, 0x01), 0x01)\n        /* \"#utility.yul\":2783:2813   */\n      dup2\n      gt\n        /* \"#utility.yul\":2780:2836   */\n      iszero\n      tag_46\n      jumpi\n        /* \"#utility.yul\":2816:2834   */\n      tag_46\n      tag_12\n      jump\t// in\n    tag_46:\n        /* \"#utility.yul\":2845:2942   */\n      tag_47\n        /* \"#utility.yul\":2935:2941   */\n      dup2\n        /* \"#utility.yul\":2895:2933   */\n      tag_48\n        /* \"#utility.yul\":2927:2931   */\n      dup5\n        /* \"#utility.yul\":2921:2932   */\n      sload\n        /* \"#utility.yul\":2895:2933   */\n      tag_14\n      jump\t// in\n    tag_48:\n        /* \"#utility.yul\":2889:2893   */\n      dup5\n        /* \"#utility.yul\":2845:2942   */\n      tag_16\n      jump\t// in\n    tag_47:\n        /* \"#utility.yul\":2991:2995   */\n      0x20\n        /* \"#utility.yul\":3022:3024   */\n      0x1f\n        /* \"#utility.yul\":3011:3025   */\n      dup3\n      gt\n        /* \"#utility.yul\":3039:3040   */\n      0x01\n        /* \"#utility.yul\":3034:3683   */\n      dup2\n      eq\n      tag_50\n      jumpi\n        /* \"#utility.yul\":3727:3728   */\n      0x00\n        /* \"#utility.yul\":3744:3750   */\n      dup4\n        /* \"#utility.yul\":3741:3830   */\n      iszero\n      tag_51\n      jumpi\n      pop\n        /* \"#utility.yul\":3796:3815   */\n      dup5\n      dup3\n      add\n        /* \"#utility.yul\":3790:3816   */\n      mload\n        /* \"#utility.yul\":3741:3830   */\n    tag_51:\n      not(0x00)\n        /* \"#utility.yul\":2598:2599   */\n      0x03\n        /* \"#utility.yul\":2594:2605   */\n      dup6\n      swap1\n      shl\n        /* \"#utility.yul\":2590:2614   */\n      shr\n        /* \"#utility.yul\":2586:2615   */\n      not\n        /* \"#utility.yul\":2576:2616   */\n      and\n        /* \"#utility.yul\":2622:2623   */\n      0x01\n        /* \"#utility.yul\":2618:2629   */\n      dup5\n      swap1\n      shl\n        /* \"#utility.yul\":2573:2630   */\n      or\n        /* \"#utility.yul\":3843:3924   */\n      dup5\n      sstore\n        /* \"#utility.yul\":3004:3934   */\n      jump(tag_42)\n        /* \"#utility.yul\":3034:3683   */\n    tag_50:\n        /* \"#utility.yul\":1894:1895   */\n      0x00\n        /* \"#utility.yul\":1887:1901   */\n      dup5\n      dup2\n      mstore\n        /* \"#utility.yul\":1931:1935   */\n      0x20\n        /* \"#utility.yul\":1918:1936   */\n      dup2\n      keccak256\n      not(0x1f)\n        /* \"#utility.yul\":3070:3090   */\n      dup6\n      and\n      swap2\n        /* \"#utility.yul\":3188:3410   */\n    tag_54:\n        /* \"#utility.yul\":3202:3209   */\n      dup3\n        /* \"#utility.yul\":3199:3200   */\n      dup2\n        /* \"#utility.yul\":3196:3210   */\n      lt\n        /* \"#utility.yul\":3188:3410   */\n      iszero\n      tag_56\n      jumpi\n        /* \"#utility.yul\":3284:3303   */\n      dup8\n      dup6\n      add\n        /* \"#utility.yul\":3278:3304   */\n      mload\n        /* \"#utility.yul\":3263:3305   */\n      dup3\n      sstore\n        /* \"#utility.yul\":3391:3395   */\n      0x20\n        /* \"#utility.yul\":3376:3396   */\n      swap5\n      dup6\n      add\n      swap5\n        /* \"#utility.yul\":3344:3345   */\n      0x01\n        /* \"#utility.yul\":3332:3346   */\n      swap1\n      swap3\n      add\n      swap2\n        /* \"#utility.yul\":3218:3230   */\n      add\n        /* \"#utility.yul\":3188:3410   */\n      jump(tag_54)\n    tag_56:\n        /* \"#utility.yul\":3192:3195   */\n      pop\n        /* \"#utility.yul\":3438:3444   */\n      dup5\n        /* \"#utility.yul\":3429:3436   */\n      dup3\n        /* \"#utility.yul\":3426:3445   */\n      lt\n        /* \"#utility.yul\":3423:3624   */\n      iszero\n      tag_57\n      jumpi\n        /* \"#utility.yul\":3499:3518   */\n      dup7\n      dup5\n      add\n        /* \"#utility.yul\":3493:3519   */\n      mload\n      not(0x00)\n        /* \"#utility.yul\":3582:3583   */\n      0x03\n        /* \"#utility.yul\":3578:3592   */\n      dup8\n      swap1\n      shl\n        /* \"#utility.yul\":3594:3597   */\n      0xf8\n        /* \"#utility.yul\":3574:3598   */\n      and\n        /* \"#utility.yul\":3570:3607   */\n      shr\n        /* \"#utility.yul\":3566:3608   */\n      not\n        /* \"#utility.yul\":3551:3609   */\n      and\n        /* \"#utility.yul\":3536:3610   */\n      dup2\n      sstore\n        /* \"#utility.yul\":3423:3624   */\n    tag_57:\n      pop\n      pop\n      pop\n      pop\n        /* \"#utility.yul\":3670:3671   */\n      0x01\n        /* \"#utility.yul\":3654:3668   */\n      swap1\n      dup2\n      shl\n        /* \"#utility.yul\":3650:3672   */\n      add\n        /* \"#utility.yul\":3637:3673   */\n      swap1\n      sstore\n      pop\n        /* \"#utility.yul\":2641:3940   */\n      jump\t// out\n    tag_18:\n        /* \"src/GovernanceToken.sol\":119:926  contract GovernanceToken is ERC20 {... */\n      dataSize(sub_0)\n      dup1\n      dataOffset(sub_0)\n      0x00\n      codecopy\n      0x00\n      return\n    stop\n\n    sub_0: assembly {\n            /* \"src/GovernanceToken.sol\":119:926  contract GovernanceToken is ERC20 {... */\n          mstore(0x40, 0x80)\n          callvalue\n          dup1\n          iszero\n          tag_1\n          jumpi\n          revert(0x00, 0x00)\n        tag_1:\n          pop\n          jumpi(tag_2, lt(calldatasize, 0x04))\n          shr(0xe0, calldataload(0x00))\n          dup1\n          0x70a08231\n          gt\n          tag_15\n          jumpi\n          dup1\n          0x70a08231\n          eq\n          tag_9\n          jumpi\n          dup1\n          0x95d89b41\n          eq\n          tag_10\n          jumpi\n          dup1\n          0x9dc29fac\n          eq\n          tag_11\n          jumpi\n          dup1\n          0xa9059cbb\n          eq\n          tag_12\n          jumpi\n          dup1\n          0xc1fc006a\n          eq\n          tag_13\n          jumpi\n          dup1\n          0xdd62ed3e\n          eq\n          tag_14\n          jumpi\n          revert(0x00, 0x00)\n        tag_15:\n          dup1\n          0x06fdde03\n          eq\n          tag_3\n          jumpi\n          dup1\n          0x095ea7b3\n          eq\n          tag_4\n          jumpi\n          dup1\n          0x18160ddd\n          eq\n          tag_5\n          jumpi\n          dup1\n          0x23b872dd\n          eq\n          tag_6\n          jumpi\n          dup1\n          0x313ce567\n          eq\n          tag_7\n          jumpi\n          dup1\n          0x40c10f19\n          eq\n          tag_8\n          jumpi\n        tag_2:\n          revert(0x00, 0x00)\n            /* \"@openzeppelin/contracts/token/ERC20/ERC20.sol\":1760:1849  function name() public view virtual returns (string memory) {... */\n        tag_3:\n          tag_16\n          tag_17\n          jump\t// in\n        tag_16:\n          mload(0x40)\n          tag_18\n          swap2\n          swap1\n          tag_19\n          jump\t// in\n        tag_18:\n          mload(0x40)\n          dup1\n          swap2\n          sub\n          swap1\n          return\n            /* \"@openzeppelin/contracts/token/ERC20/ERC20.sol\":3902:4088  function approve(address spender, uint256 value) public virtual returns (bool) {... */\n        tag_4:\n          tag_20\n          tag_21\n          calldatasize\n          0x04\n          tag_22\n          jump\t// in\n        tag_21:\n          tag_23\n          jump\t// in\n        tag_20:\n          mload(0x40)\n            /* \"#utility.yul\":1085:1099   */\n          swap1\n          iszero\n            /* \"#utility.yul\":1078:1100   */\n          iszero\n            /* \"#utility.yul\":1060:1101   */\n          dup2\n          mstore\n            /* \"#utility.yul\":1048:1050   */\n          0x20\n            /* \"#utility.yul\":1033:1051   */\n          add\n            /* \"@openzeppelin/contracts/token/ERC20/ERC20.sol\":3902:4088  function approve(address spender, uint256 value) public virtual returns (bool) {... */\n          tag_18\n            /* \"#utility.yul\":920:1107   */\n          jump\n            /* \"@openzeppelin/contracts/token/ERC20/ERC20.sol\":2803:2900  function totalSupply() public view virtual returns (uint256) {... */\n        tag_5:\n            /* \"@openzeppelin/contracts/token/ERC20/ERC20.sol\":2881:2893  _totalSupply */\n          sload(0x02)\n            /* \"@openzeppelin/contracts/token/ERC20/ERC20.sol\":2803:2900  function totalSupply() public view virtual returns (uint256) {... */\n        tag_26:\n          mload(0x40)\n            /* \"#utility.yul\":1258:1283   */\n          swap1\n          dup2\n          mstore\n            /* \"#utility.yul\":1246:1248   */\n          0x20\n            /* \"#utility.yul\":1231:1249   */\n          add\n            /* \"@openzeppelin/contracts/token/ERC20/ERC20.sol\":2803:2900  function totalSupply() public view virtual returns (uint256) {... */\n          tag_18\n            /* \"#utility.yul\":1112:1289   */\n          jump\n            /* \"@openzeppelin/contracts/token/ERC20/ERC20.sol\":4680:4924  function transferFrom(address from, address to, uint256 value) public virtual returns (bool) {... */\n        tag_6:\n          tag_20\n          tag_31\n          calldatasize\n          0x04\n          tag_32\n          jump\t// in\n        tag_31:\n          tag_33\n          jump\t// in\n            /* \"@openzeppelin/contracts/token/ERC20/ERC20.sol\":2688:2770  function decimals() public view virtual returns (uint8) {... */\n        tag_7:\n          mload(0x40)\n            /* \"@openzeppelin/contracts/token/ERC20/ERC20.sol\":2761:2763  18 */\n          0x12\n            /* \"#utility.yul\":1815:1851   */\n          dup2\n          mstore\n            /* \"#utility.yul\":1803:1805   */\n          0x20\n            /* \"#utility.yul\":1788:1806   */\n          add\n            /* \"@openzeppelin/contracts/token/ERC20/ERC20.sol\":2688:2770  function decimals() public view virtual returns (uint8) {... */\n          tag_18\n            /* \"#utility.yul\":1673:1857   */\n          jump\n            /* \"src/GovernanceToken.sol\":640:738  function mint(address to, uint256 amount) external onlyVoting {... */\n        tag_8:\n          tag_39\n          tag_40\n          calldatasize\n          0x04\n          tag_22\n          jump\t// in\n        tag_40:\n          tag_41\n          jump\t// in\n        tag_39:\n          stop\n            /* \"@openzeppelin/contracts/token/ERC20/ERC20.sol\":2933:3049  function balanceOf(address account) public view virtual returns (uint256) {... */\n        tag_9:\n          tag_26\n          tag_43\n          calldatasize\n          0x04\n          tag_44\n          jump\t// in\n        tag_43:\n          sub(shl(0xa0, 0x01), 0x01)\n            /* \"@openzeppelin/contracts/token/ERC20/ERC20.sol\":3024:3042  _balances[account] */\n          and\n            /* \"@openzeppelin/contracts/token/ERC20/ERC20.sol\":2998:3005  uint256 */\n          0x00\n            /* \"@openzeppelin/contracts/token/ERC20/ERC20.sol\":3024:3042  _balances[account] */\n          swap1\n          dup2\n          mstore\n          0x20\n          dup2\n          swap1\n          mstore\n          0x40\n          swap1\n          keccak256\n          sload\n          swap1\n            /* \"@openzeppelin/contracts/token/ERC20/ERC20.sol\":2933:3049  function balanceOf(address account) public view virtual returns (uint256) {... */\n          jump\n            /* \"@openzeppelin/contracts/token/ERC20/ERC20.sol\":1962:2055  function symbol() public view virtual returns (string memory) {... */\n        tag_10:\n          tag_16\n          tag_48\n          jump\t// in\n            /* \"src/GovernanceToken.sol\":821:923  function burn(address from, uint256 amount) external onlyVoting {... */\n        tag_11:\n          tag_39\n          tag_51\n          calldatasize\n          0x04\n          tag_22\n          jump\t// in\n        tag_51:\n          tag_52\n          jump\t// in\n            /* \"@openzeppelin/contracts/token/ERC20/ERC20.sol\":3244:3422  function transfer(address to, uint256 value) public virtual returns (bool) {... */\n        tag_12:\n          tag_20\n          tag_54\n          calldatasize\n          0x04\n          tag_22\n          jump\t// in\n        tag_54:\n          tag_55\n          jump\t// in\n            /* \"src/GovernanceToken.sol\":160:189  address public votingContract */\n        tag_13:\n          sload(0x05)\n          tag_57\n          swap1\n          sub(shl(0xa0, 0x01), 0x01)\n          and\n          dup2\n          jump\n        tag_57:\n          mload(0x40)\n          sub(shl(0xa0, 0x01), 0x01)\n            /* \"#utility.yul\":2217:2249   */\n          swap1\n          swap2\n          and\n            /* \"#utility.yul\":2199:2250   */\n          dup2\n          mstore\n            /* \"#utility.yul\":2187:2189   */\n          0x20\n            /* \"#utility.yul\":2172:2190   */\n          add\n            /* \"src/GovernanceToken.sol\":160:189  address public votingContract */\n          tag_18\n            /* \"#utility.yul\":2053:2256   */\n          jump\n            /* \"@openzeppelin/contracts/token/ERC20/ERC20.sol\":3455:3595  function allowance(address owner, address spender) public view virtual returns (uint256) {... */\n        tag_14:\n          tag_26\n          tag_62\n          calldatasize\n          0x04\n          tag_63\n          jump\t// in\n        tag_62:\n          sub(shl(0xa0, 0x01), 0x01)\n            /* \"@openzeppelin/contracts/token/ERC20/ERC20.sol\":3561:3579  _allowances[owner] */\n          swap2\n          dup3\n          and\n            /* \"@openzeppelin/contracts/token/ERC20/ERC20.sol\":3535:3542  uint256 */\n          0x00\n            /* \"@openzeppelin/contracts/token/ERC20/ERC20.sol\":3561:3579  _allowances[owner] */\n          swap1\n          dup2\n          mstore\n            /* \"@openzeppelin/contracts/token/ERC20/ERC20.sol\":3561:3572  _allowances */\n          0x01\n            /* \"@openzeppelin/contracts/token/ERC20/ERC20.sol\":3561:3579  _allowances[owner] */\n          0x20\n          swap1\n          dup2\n          mstore\n          0x40\n          dup1\n          dup4\n          keccak256\n            /* \"@openzeppelin/contracts/token/ERC20/ERC20.sol\":3561:3588  _allowances[owner][spender] */\n          swap4\n          swap1\n          swap5\n          and\n          dup3\n          mstore\n          swap2\n          swap1\n          swap2\n          mstore\n          keccak256\n          sload\n          swap1\n            /* \"@openzeppelin/contracts/token/ERC20/ERC20.sol\":3455:3595  function allowance(address owner, address spender) public view virtual returns (uint256) {... */\n          jump\n            /* \"@openzeppelin/contracts/token/ERC20/ERC20.sol\":1760:1849  function name() public view virtual returns (string memory) {... */\n        tag_17:\n            /* \"@openzeppelin/contracts/token/ERC20/ERC20.sol\":1805:1818  string memory */\n          0x60\n            /* \"@openzeppelin/contracts/token/ERC20/ERC20.sol\":1837:1842  _name */\n          0x03\n            /* \"@openzeppelin/contracts/token/ERC20/ERC20.sol\":1830:1842  return _name */\n          dup1\n          sload\n          tag_67\n          swap1\n          tag_68\n          jump\t// in\n        tag_67:\n          dup1\n          0x1f\n          add\n          0x20\n          dup1\n          swap2\n          div\n          mul\n          0x20\n          add\n          mload(0x40)\n          swap1\n          dup2\n          add\n          0x40\n          mstore\n          dup1\n          swap3\n          swap2\n          swap1\n          dup2\n          dup2\n          mstore\n          0x20\n          add\n          dup3\n          dup1\n          sload\n          tag_69\n          swap1\n          tag_68\n          jump\t// in\n        tag_69:\n          dup1\n          iszero\n          tag_70\n          jumpi\n          dup1\n          0x1f\n          lt\n          tag_71\n          jumpi\n          0x0100\n          dup1\n          dup4\n          sload\n          div\n          mul\n          dup4\n          mstore\n          swap2\n          0x20\n          add\n          swap2\n          jump(tag_70)\n        tag_71:\n          dup3\n          add\n          swap2\n          swap1\n          0x00\n          mstore\n          keccak256(0x00, 0x20)\n          swap1\n        tag_72:\n          dup2\n          sload\n          dup2\n          mstore\n          swap1\n          0x01\n          add\n          swap1\n          0x20\n          add\n          dup1\n          dup4\n          gt\n          tag_72\n          jumpi\n          dup3\n          swap1\n          sub\n          0x1f\n          and\n          dup3\n          add\n          swap2\n        tag_70:\n          pop\n          pop\n          pop\n          pop\n          pop\n          swap1\n          pop\n            /* \"@openzeppelin/contracts/token/ERC20/ERC20.sol\":1760:1849  function name() public view virtual returns (string memory) {... */\n          swap1\n          jump\t// out\n            /* \"@openzeppelin/contracts/token/ERC20/ERC20.sol\":3902:4088  function approve(address spender, uint256 value) public virtual returns (bool) {... */\n        tag_23:\n            /* \"@openzeppelin/contracts/token/ERC20/ERC20.sol\":3975:3979  bool */\n          0x00\n            /* \"@openzeppelin/contracts/utils/Context.sol\":735:745  msg.sender */\n          caller\n            /* \"@openzeppelin/contracts/token/ERC20/ERC20.sol\":4029:4060  _approve(owner, spender, value) */\n          tag_76\n            /* \"@openzeppelin/contracts/utils/Context.sol\":735:745  msg.sender */\n          dup2\n            /* \"@openzeppelin/contracts/token/ERC20/ERC20.sol\":4045:4052  spender */\n          dup6\n            /* \"@openzeppelin/contracts/token/ERC20/ERC20.sol\":4054:4059  value */\n          dup6\n            /* \"@openzeppelin/contracts/token/ERC20/ERC20.sol\":4029:4037  _approve */\n          tag_77\n            /* \"@openzeppelin/contracts/token/ERC20/ERC20.sol\":4029:4060  _approve(owner, spender, value) */\n          jump\t// in\n        tag_76:\n            /* \"@openzeppelin/contracts/token/ERC20/ERC20.sol\":4077:4081  true */\n          0x01\n            /* \"@openzeppelin/contracts/token/ERC20/ERC20.sol\":4070:4081  return true */\n          swap2\n          pop\n          pop\n            /* \"@openzeppelin/contracts/token/ERC20/ERC20.sol\":3902:4088  function approve(address spender, uint256 value) public virtual returns (bool) {... */\n        tag_73:\n          swap3\n          swap2\n          pop\n          pop\n          jump\t// out\n            /* \"@openzeppelin/contracts/token/ERC20/ERC20.sol\":4680:4924  function transferFrom(address from, address to, uint256 value) public virtual returns (bool) {... */\n        tag_33:\n            /* \"@openzeppelin/contracts/token/ERC20/ERC20.sol\":4767:4771  bool */\n          0x00\n            /* \"@openzeppelin/contracts/utils/Context.sol\":735:745  msg.sender */\n          caller\n            /* \"@openzeppelin/contracts/token/ERC20/ERC20.sol\":4823:4860  _spendAllowance(from, spender, value) */\n          tag_81\n            /* \"@openzeppelin/contracts/token/ERC20/ERC20.sol\":4839:4843  from */\n          dup6\n            /* \"@openzeppelin/contracts/utils/Context.sol\":735:745  msg.sender */\n          dup3\n            /* \"@openzeppelin/contracts/token/ERC20/ERC20.sol\":4854:4859  value */\n          dup6\n            /* \"@openzeppelin/contracts/token/ERC20/ERC20.sol\":4823:4838  _spendAllowance */\n          tag_82\n            /* \"@openzeppelin/contracts/token/ERC20/ERC20.sol\":4823:4860  _spendAllowance(from, spender, value) */\n          jump\t// in\n        tag_81:\n            /* \"@openzeppelin/contracts/token/ERC20/ERC20.sol\":4870:4896  _transfer(from, to, value) */\n          tag_83\n            /* \"@openzeppelin/contracts/token/ERC20/ERC20.sol\":4880:4884  from */\n          dup6\n            /* \"@openzeppelin/contracts/token/ERC20/ERC20.sol\":4886:4888  to */\n          dup6\n            /* \"@openzeppelin/contracts/token/ERC20/ERC20.sol\":4890:4895  value */\n          dup6\n            /* \"@openzeppelin/contracts/token/ERC20/ERC20.sol\":4870:4879  _transfer */\n          tag_84\n            /* \"@openzeppelin/contracts/token/ERC20/ERC20.sol\":4870:4896  _transfer(from, to, value) */\n          jump\t// in\n        tag_83:\n          pop\n            /* \"@openzeppelin/contracts/token/ERC20/ERC20.sol\":4913:4917  true */\n          0x01\n          swap5\n            /* \"@openzeppelin/contracts/token/ERC20/ERC20.sol\":4680:4924  function transferFrom(address from, address to, uint256 value) public virtual returns (bool) {... */\n          swap4\n          pop\n          pop\n          pop\n          pop\n          jump\t// out\n            /* \"src/GovernanceToken.sol\":640:738  function mint(address to, uint256 amount) external onlyVoting {... */\n        tag_41:\n            /* \"src/GovernanceToken.sol\":331:345  votingContract */\n          and(sub(shl(0xa0, 0x01), 0x01), sload(0x05))\n            /* \"src/GovernanceToken.sol\":317:327  msg.sender */\n          caller\n            /* \"src/GovernanceToken.sol\":317:345  msg.sender == votingContract */\n          eq\n            /* \"src/GovernanceToken.sol\":309:392  require(msg.sender == votingContract, \"No autorizado: solo el sistema de votacion\") */\n          tag_87\n          jumpi\n          mload(0x40)\n          shl(0xe5, 0x461bcd)\n          dup2\n          mstore\n          0x04\n          add\n          tag_88\n          swap1\n          tag_89\n          jump\t// in\n        tag_88:\n          mload(0x40)\n          dup1\n          swap2\n          sub\n          swap1\n          revert\n        tag_87:\n            /* \"src/GovernanceToken.sol\":713:730  _mint(to, amount) */\n          tag_91\n            /* \"src/GovernanceToken.sol\":719:721  to */\n          dup3\n            /* \"src/GovernanceToken.sol\":723:729  amount */\n          dup3\n            /* \"src/GovernanceToken.sol\":713:718  _mint */\n          tag_92\n            /* \"src/GovernanceToken.sol\":713:730  _mint(to, amount) */\n          jump\t// in\n        tag_91:\n            /* \"src/GovernanceToken.sol\":640:738  function mint(address to, uint256 amount) external onlyVoting {... */\n          pop\n          pop\n          jump\t// out\n            /* \"@openzeppelin/contracts/token/ERC20/ERC20.sol\":1962:2055  function symbol() public view virtual returns (string memory) {... */\n        tag_48:\n            /* \"@openzeppelin/contracts/token/ERC20/ERC20.sol\":2009:2022  string memory */\n          0x60\n            /* \"@openzeppelin/contracts/token/ERC20/ERC20.sol\":2041:2048  _symbol */\n          0x04\n            /* \"@openzeppelin/contracts/token/ERC20/ERC20.sol\":2034:2048  return _symbol */\n          dup1\n          sload\n          tag_67\n          swap1\n          tag_68\n          jump\t// in\n            /* \"src/GovernanceToken.sol\":821:923  function burn(address from, uint256 amount) external onlyVoting {... */\n        tag_52:\n            /* \"src/GovernanceToken.sol\":331:345  votingContract */\n          and(sub(shl(0xa0, 0x01), 0x01), sload(0x05))\n            /* \"src/GovernanceToken.sol\":317:327  msg.sender */\n          caller\n            /* \"src/GovernanceToken.sol\":317:345  msg.sender == votingContract */\n          eq\n            /* \"src/GovernanceToken.sol\":309:392  require(msg.sender == votingContract, \"No autorizado: solo el sistema de votacion\") */\n          tag_101\n          jumpi\n          mload(0x40)\n          shl(0xe5, 0x461bcd)\n          dup2\n          mstore\n          0x04\n          add\n          tag_88\n          swap1\n          tag_89\n          jump\t// in\n        tag_101:\n            /* \"src/GovernanceToken.sol\":896:915  _burn(from, amount) */\n          tag_91\n            /* \"src/GovernanceToken.sol\":902:906  from */\n          dup3\n            /* \"src/GovernanceToken.sol\":908:914  amount */\n          dup3\n            /* \"src/GovernanceToken.sol\":896:901  _burn */\n          tag_105\n            /* \"src/GovernanceToken.sol\":896:915  _burn(from, amount) */\n          jump\t// in\n            /* \"@openzeppelin/contracts/token/ERC20/ERC20.sol\":3244:3422  function transfer(address to, uint256 value) public virtual returns (bool) {... */\n        tag_55:\n            /* \"@openzeppelin/contracts/token/ERC20/ERC20.sol\":3313:3317  bool */\n          0x00\n            /* \"@openzeppelin/contracts/utils/Context.sol\":735:745  msg.sender */\n          caller\n            /* \"@openzeppelin/contracts/token/ERC20/ERC20.sol\":3367:3394  _transfer(owner, to, value) */\n          tag_76\n            /* \"@openzeppelin/contracts/utils/Context.sol\":735:745  msg.sender */\n          dup2\n            /* \"@openzeppelin/contracts/token/ERC20/ERC20.sol\":3384:3386  to */\n          dup6\n            /* \"@openzeppelin/contracts/token/ERC20/ERC20.sol\":3388:3393  value */\n          dup6\n            /* \"@openzeppelin/contracts/token/ERC20/ERC20.sol\":3367:3376  _transfer */\n          tag_84\n            /* \"@openzeppelin/contracts/token/ERC20/ERC20.sol\":3367:3394  _transfer(owner, to, value) */\n          jump\t// in\n            /* \"@openzeppelin/contracts/token/ERC20/ERC20.sol\":8630:8758  function _approve(address owner, address spender, uint256 value) internal {... */\n        tag_77:\n            /* \"@openzeppelin/contracts/token/ERC20/ERC20.sol\":8714:8751  _approve(owner, spender, value, true) */\n          tag_112\n            /* \"@openzeppelin/contracts/token/ERC20/ERC20.sol\":8723:8728  owner */\n          dup4\n            /* \"@openzeppelin/contracts/token/ERC20/ERC20.sol\":8730:8737  spender */\n          dup4\n            /* \"@openzeppelin/contracts/token/ERC20/ERC20.sol\":8739:8744  value */\n          dup4\n            /* \"@openzeppelin/contracts/token/ERC20/ERC20.sol\":8746:8750  true */\n          0x01\n            /* \"@openzeppelin/contracts/token/ERC20/ERC20.sol\":8714:8722  _approve */\n          tag_113\n            /* \"@openzeppelin/contracts/token/ERC20/ERC20.sol\":8714:8751  _approve(owner, spender, value, true) */\n          jump\t// in\n        tag_112:\n            /* \"@openzeppelin/contracts/token/ERC20/ERC20.sol\":8630:8758  function _approve(address owner, address spender, uint256 value) internal {... */\n          pop\n          pop\n          pop\n          jump\t// out\n            /* \"@openzeppelin/contracts/token/ERC20/ERC20.sol\":10321:10797  function _spendAllowance(address owner, address spender, uint256 value) internal virtual {... */\n        tag_82:\n          sub(shl(0xa0, 0x01), 0x01)\n            /* \"@openzeppelin/contracts/token/ERC20/ERC20.sol\":3561:3579  _allowances[owner] */\n          dup4\n          dup2\n          and\n            /* \"@openzeppelin/contracts/token/ERC20/ERC20.sol\":10420:10444  uint256 currentAllowance */\n          0x00\n            /* \"@openzeppelin/contracts/token/ERC20/ERC20.sol\":3561:3579  _allowances[owner] */\n          swap1\n          dup2\n          mstore\n            /* \"@openzeppelin/contracts/token/ERC20/ERC20.sol\":3561:3572  _allowances */\n          0x01\n            /* \"@openzeppelin/contracts/token/ERC20/ERC20.sol\":3561:3579  _allowances[owner] */\n          0x20\n          swap1\n          dup2\n          mstore\n          0x40\n          dup1\n          dup4\n          keccak256\n            /* \"@openzeppelin/contracts/token/ERC20/ERC20.sol\":3561:3588  _allowances[owner][spender] */\n          swap4\n          dup7\n          and\n          dup4\n          mstore\n          swap3\n          swap1\n          mstore\n          keccak256\n          sload\n          not(0x00)\n            /* \"@openzeppelin/contracts/token/ERC20/ERC20.sol\":10486:10522  currentAllowance < type(uint256).max */\n          dup2\n          lt\n            /* \"@openzeppelin/contracts/token/ERC20/ERC20.sol\":10482:10791  if (currentAllowance < type(uint256).max) {... */\n          iszero\n          tag_120\n          jumpi\n            /* \"@openzeppelin/contracts/token/ERC20/ERC20.sol\":10561:10566  value */\n          dup2\n            /* \"@openzeppelin/contracts/token/ERC20/ERC20.sol\":10542:10558  currentAllowance */\n          dup2\n            /* \"@openzeppelin/contracts/token/ERC20/ERC20.sol\":10542:10566  currentAllowance < value */\n          lt\n            /* \"@openzeppelin/contracts/token/ERC20/ERC20.sol\":10538:10668  if (currentAllowance < value) {... */\n          iszero\n          tag_117\n          jumpi\n            /* \"@openzeppelin/contracts/token/ERC20/ERC20.sol\":10593:10653  ERC20InsufficientAllowance(spender, currentAllowance, value) */\n          mload(0x40)\n          shl(0xe1, 0x7dc7a0d9)\n          dup2\n          mstore\n          sub(shl(0xa0, 0x01), 0x01)\n            /* \"#utility.yul\":3542:3574   */\n          dup5\n          and\n            /* \"@openzeppelin/contracts/token/ERC20/ERC20.sol\":10593:10653  ERC20InsufficientAllowance(spender, currentAllowance, value) */\n          0x04\n          dup3\n          add\n            /* \"#utility.yul\":3524:3575   */\n          mstore\n            /* \"#utility.yul\":3591:3609   */\n          0x24\n          dup2\n          add\n            /* \"#utility.yul\":3584:3618   */\n          dup3\n          swap1\n          mstore\n            /* \"#utility.yul\":3634:3652   */\n          0x44\n          dup2\n          add\n            /* \"#utility.yul\":3627:3661   */\n          dup4\n          swap1\n          mstore\n            /* \"#utility.yul\":3497:3515   */\n          0x64\n          add\n            /* \"@openzeppelin/contracts/token/ERC20/ERC20.sol\":10593:10653  ERC20InsufficientAllowance(spender, currentAllowance, value) */\n          tag_88\n            /* \"#utility.yul\":3322:3667   */\n          jump\n            /* \"@openzeppelin/contracts/token/ERC20/ERC20.sol\":10538:10668  if (currentAllowance < value) {... */\n        tag_117:\n            /* \"@openzeppelin/contracts/token/ERC20/ERC20.sol\":10709:10766  _approve(owner, spender, currentAllowance - value, false) */\n          tag_120\n            /* \"@openzeppelin/contracts/token/ERC20/ERC20.sol\":10718:10723  owner */\n          dup5\n            /* \"@openzeppelin/contracts/token/ERC20/ERC20.sol\":10725:10732  spender */\n          dup5\n            /* \"@openzeppelin/contracts/token/ERC20/ERC20.sol\":10753:10758  value */\n          dup5\n            /* \"@openzeppelin/contracts/token/ERC20/ERC20.sol\":10734:10750  currentAllowance */\n          dup5\n            /* \"@openzeppelin/contracts/token/ERC20/ERC20.sol\":10734:10758  currentAllowance - value */\n          sub\n            /* \"@openzeppelin/contracts/token/ERC20/ERC20.sol\":10760:10765  false */\n          0x00\n            /* \"@openzeppelin/contracts/token/ERC20/ERC20.sol\":10709:10717  _approve */\n          tag_113\n            /* \"@openzeppelin/contracts/token/ERC20/ERC20.sol\":10709:10766  _approve(owner, spender, currentAllowance - value, false) */\n          jump\t// in\n        tag_120:\n            /* \"@openzeppelin/contracts/token/ERC20/ERC20.sol\":10410:10797  {... */\n          pop\n            /* \"@openzeppelin/contracts/token/ERC20/ERC20.sol\":10321:10797  function _spendAllowance(address owner, address spender, uint256 value) internal virtual {... */\n          pop\n          pop\n          pop\n          jump\t// out\n            /* \"@openzeppelin/contracts/token/ERC20/ERC20.sol\":5297:5597  function _transfer(address from, address to, uint256 value) internal {... */\n        tag_84:\n          sub(shl(0xa0, 0x01), 0x01)\n            /* \"@openzeppelin/contracts/token/ERC20/ERC20.sol\":5380:5398  from == address(0) */\n          dup4\n          and\n            /* \"@openzeppelin/contracts/token/ERC20/ERC20.sol\":5376:5462  if (from == address(0)) {... */\n          tag_122\n          jumpi\n            /* \"@openzeppelin/contracts/token/ERC20/ERC20.sol\":5421:5451  ERC20InvalidSender(address(0)) */\n          mload(0x40)\n          shl(0xe1, 0x4b637e8f)\n          dup2\n          mstore\n            /* \"@openzeppelin/contracts/token/ERC20/ERC20.sol\":5448:5449  0 */\n          0x00\n            /* \"@openzeppelin/contracts/token/ERC20/ERC20.sol\":5421:5451  ERC20InvalidSender(address(0)) */\n          0x04\n          dup3\n          add\n            /* \"#utility.yul\":2199:2250   */\n          mstore\n            /* \"#utility.yul\":2172:2190   */\n          0x24\n          add\n            /* \"@openzeppelin/contracts/token/ERC20/ERC20.sol\":5421:5451  ERC20InvalidSender(address(0)) */\n          tag_88\n            /* \"#utility.yul\":2053:2256   */\n          jump\n            /* \"@openzeppelin/contracts/token/ERC20/ERC20.sol\":5376:5462  if (from == address(0)) {... */\n        tag_122:\n          sub(shl(0xa0, 0x01), 0x01)\n            /* \"@openzeppelin/contracts/token/ERC20/ERC20.sol\":5475:5491  to == address(0) */\n          dup3\n          and\n            /* \"@openzeppelin/contracts/token/ERC20/ERC20.sol\":5471:5557  if (to == address(0)) {... */\n          tag_124\n          jumpi\n            /* \"@openzeppelin/contracts/token/ERC20/ERC20.sol\":5514:5546  ERC20InvalidReceiver(address(0)) */\n          mload(0x40)\n          shl(0xe0, 0xec442f05)\n          dup2\n          mstore\n            /* \"@openzeppelin/contracts/token/ERC20/ERC20.sol\":5543:5544  0 */\n          0x00\n            /* \"@openzeppelin/contracts/token/ERC20/ERC20.sol\":5514:5546  ERC20InvalidReceiver(address(0)) */\n          0x04\n          dup3\n          add\n            /* \"#utility.yul\":2199:2250   */\n          mstore\n            /* \"#utility.yul\":2172:2190   */\n          0x24\n          add\n            /* \"@openzeppelin/contracts/token/ERC20/ERC20.sol\":5514:5546  ERC20InvalidReceiver(address(0)) */\n          tag_88\n            /* \"#utility.yul\":2053:2256   */\n          jump\n            /* \"@openzeppelin/contracts/token/ERC20/ERC20.sol\":5471:5557  if (to == address(0)) {... */\n        tag_124:\n            /* \"@openzeppelin/contracts/token/ERC20/ERC20.sol\":5566:5590  _update(from, to, value) */\n          tag_112\n            /* \"@openzeppelin/contracts/token/ERC20/ERC20.sol\":5574:5578  from */\n          dup4\n            /* \"@openzeppelin/contracts/token/ERC20/ERC20.sol\":5580:5582  to */\n          dup4\n            /* \"@openzeppelin/contracts/token/ERC20/ERC20.sol\":5584:5589  value */\n          dup4\n            /* \"@openzeppelin/contracts/token/ERC20/ERC20.sol\":5566:5573  _update */\n          tag_127\n            /* \"@openzeppelin/contracts/token/ERC20/ERC20.sol\":5566:5590  _update(from, to, value) */\n          jump\t// in\n            /* \"@openzeppelin/contracts/token/ERC20/ERC20.sol\":7362:7570  function _mint(address account, uint256 value) internal {... */\n        tag_92:\n          sub(shl(0xa0, 0x01), 0x01)\n            /* \"@openzeppelin/contracts/token/ERC20/ERC20.sol\":7432:7453  account == address(0) */\n          dup3\n          and\n            /* \"@openzeppelin/contracts/token/ERC20/ERC20.sol\":7428:7519  if (account == address(0)) {... */\n          tag_129\n          jumpi\n            /* \"@openzeppelin/contracts/token/ERC20/ERC20.sol\":7476:7508  ERC20InvalidReceiver(address(0)) */\n          mload(0x40)\n          shl(0xe0, 0xec442f05)\n          dup2\n          mstore\n            /* \"@openzeppelin/contracts/token/ERC20/ERC20.sol\":7505:7506  0 */\n          0x00\n            /* \"@openzeppelin/contracts/token/ERC20/ERC20.sol\":7476:7508  ERC20InvalidReceiver(address(0)) */\n          0x04\n          dup3\n          add\n            /* \"#utility.yul\":2199:2250   */\n          mstore\n            /* \"#utility.yul\":2172:2190   */\n          0x24\n          add\n            /* \"@openzeppelin/contracts/token/ERC20/ERC20.sol\":7476:7508  ERC20InvalidReceiver(address(0)) */\n          tag_88\n            /* \"#utility.yul\":2053:2256   */\n          jump\n            /* \"@openzeppelin/contracts/token/ERC20/ERC20.sol\":7428:7519  if (account == address(0)) {... */\n        tag_129:\n            /* \"@openzeppelin/contracts/token/ERC20/ERC20.sol\":7528:7563  _update(address(0), account, value) */\n          tag_91\n            /* \"@openzeppelin/contracts/token/ERC20/ERC20.sol\":7544:7545  0 */\n          0x00\n            /* \"@openzeppelin/contracts/token/ERC20/ERC20.sol\":7548:7555  account */\n          dup4\n            /* \"@openzeppelin/contracts/token/ERC20/ERC20.sol\":7557:7562  value */\n          dup4\n            /* \"@openzeppelin/contracts/token/ERC20/ERC20.sol\":7528:7535  _update */\n          tag_127\n            /* \"@openzeppelin/contracts/token/ERC20/ERC20.sol\":7528:7563  _update(address(0), account, value) */\n          jump\t// in\n            /* \"@openzeppelin/contracts/token/ERC20/ERC20.sol\":7888:8094  function _burn(address account, uint256 value) internal {... */\n        tag_105:\n          sub(shl(0xa0, 0x01), 0x01)\n            /* \"@openzeppelin/contracts/token/ERC20/ERC20.sol\":7958:7979  account == address(0) */\n          dup3\n          and\n            /* \"@openzeppelin/contracts/token/ERC20/ERC20.sol\":7954:8043  if (account == address(0)) {... */\n          tag_133\n          jumpi\n            /* \"@openzeppelin/contracts/token/ERC20/ERC20.sol\":8002:8032  ERC20InvalidSender(address(0)) */\n          mload(0x40)\n          shl(0xe1, 0x4b637e8f)\n          dup2\n          mstore\n            /* \"@openzeppelin/contracts/token/ERC20/ERC20.sol\":8029:8030  0 */\n          0x00\n            /* \"@openzeppelin/contracts/token/ERC20/ERC20.sol\":8002:8032  ERC20InvalidSender(address(0)) */\n          0x04\n          dup3\n          add\n            /* \"#utility.yul\":2199:2250   */\n          mstore\n            /* \"#utility.yul\":2172:2190   */\n          0x24\n          add\n            /* \"@openzeppelin/contracts/token/ERC20/ERC20.sol\":8002:8032  ERC20InvalidSender(address(0)) */\n          tag_88\n            /* \"#utility.yul\":2053:2256   */\n          jump\n            /* \"@openzeppelin/contracts/token/ERC20/ERC20.sol\":7954:8043  if (account == address(0)) {... */\n        tag_133:\n            /* \"@openzeppelin/contracts/token/ERC20/ERC20.sol\":8052:8087  _update(account, address(0), value) */\n          tag_91\n            /* \"@openzeppelin/contracts/token/ERC20/ERC20.sol\":8060:8067  account */\n          dup3\n            /* \"@openzeppelin/contracts/token/ERC20/ERC20.sol\":8077:8078  0 */\n          0x00\n            /* \"@openzeppelin/contracts/token/ERC20/ERC20.sol\":8081:8086  value */\n          dup4\n            /* \"@openzeppelin/contracts/token/ERC20/ERC20.sol\":8052:8059  _update */\n          tag_127\n            /* \"@openzeppelin/contracts/token/ERC20/ERC20.sol\":8052:8087  _update(account, address(0), value) */\n          jump\t// in\n            /* \"@openzeppelin/contracts/token/ERC20/ERC20.sol\":9607:10039  function _approve(address owner, address spender, uint256 value, bool emitEvent) internal virtual {... */\n        tag_113:\n          sub(shl(0xa0, 0x01), 0x01)\n            /* \"@openzeppelin/contracts/token/ERC20/ERC20.sol\":9719:9738  owner == address(0) */\n          dup5\n          and\n            /* \"@openzeppelin/contracts/token/ERC20/ERC20.sol\":9715:9804  if (owner == address(0)) {... */\n          tag_137\n          jumpi\n            /* \"@openzeppelin/contracts/token/ERC20/ERC20.sol\":9761:9793  ERC20InvalidApprover(address(0)) */\n          mload(0x40)\n          shl(0xe0, 0xe602df05)\n          dup2\n          mstore\n            /* \"@openzeppelin/contracts/token/ERC20/ERC20.sol\":9790:9791  0 */\n          0x00\n            /* \"@openzeppelin/contracts/token/ERC20/ERC20.sol\":9761:9793  ERC20InvalidApprover(address(0)) */\n          0x04\n          dup3\n          add\n            /* \"#utility.yul\":2199:2250   */\n          mstore\n            /* \"#utility.yul\":2172:2190   */\n          0x24\n          add\n            /* \"@openzeppelin/contracts/token/ERC20/ERC20.sol\":9761:9793  ERC20InvalidApprover(address(0)) */\n          tag_88\n            /* \"#utility.yul\":2053:2256   */\n          jump\n            /* \"@openzeppelin/contracts/token/ERC20/ERC20.sol\":9715:9804  if (owner == address(0)) {... */\n        tag_137:\n          sub(shl(0xa0, 0x01), 0x01)\n            /* \"@openzeppelin/contracts/token/ERC20/ERC20.sol\":9817:9838  spender == address(0) */\n          dup4\n          and\n            /* \"@openzeppelin/contracts/token/ERC20/ERC20.sol\":9813:9903  if (spender == address(0)) {... */\n          tag_139\n          jumpi\n            /* \"@openzeppelin/contracts/token/ERC20/ERC20.sol\":9861:9892  ERC20InvalidSpender(address(0)) */\n          mload(0x40)\n          shl(0xe1, 0x4a1406b1)\n          dup2\n          mstore\n            /* \"@openzeppelin/contracts/token/ERC20/ERC20.sol\":9889:9890  0 */\n          0x00\n            /* \"@openzeppelin/contracts/token/ERC20/ERC20.sol\":9861:9892  ERC20InvalidSpender(address(0)) */\n          0x04\n          dup3\n          add\n            /* \"#utility.yul\":2199:2250   */\n          mstore\n            /* \"#utility.yul\":2172:2190   */\n          0x24\n          add\n            /* \"@openzeppelin/contracts/token/ERC20/ERC20.sol\":9861:9892  ERC20InvalidSpender(address(0)) */\n          tag_88\n            /* \"#utility.yul\":2053:2256   */\n          jump\n            /* \"@openzeppelin/contracts/token/ERC20/ERC20.sol\":9813:9903  if (spender == address(0)) {... */\n        tag_139:\n          sub(shl(0xa0, 0x01), 0x01)\n            /* \"@openzeppelin/contracts/token/ERC20/ERC20.sol\":9912:9930  _allowances[owner] */\n          dup1\n          dup6\n          and\n          0x00\n          swap1\n          dup2\n          mstore\n            /* \"@openzeppelin/contracts/token/ERC20/ERC20.sol\":9912:9923  _allowances */\n          0x01\n            /* \"@openzeppelin/contracts/token/ERC20/ERC20.sol\":9912:9930  _allowances[owner] */\n          0x20\n          swap1\n          dup2\n          mstore\n          0x40\n          dup1\n          dup4\n          keccak256\n            /* \"@openzeppelin/contracts/token/ERC20/ERC20.sol\":9912:9939  _allowances[owner][spender] */\n          swap4\n          dup8\n          and\n          dup4\n          mstore\n          swap3\n          swap1\n          mstore\n          keccak256\n            /* \"@openzeppelin/contracts/token/ERC20/ERC20.sol\":9912:9947  _allowances[owner][spender] = value */\n          dup3\n          swap1\n          sstore\n            /* \"@openzeppelin/contracts/token/ERC20/ERC20.sol\":9957:10033  if (emitEvent) {... */\n          dup1\n          iszero\n          tag_120\n          jumpi\n            /* \"@openzeppelin/contracts/token/ERC20/ERC20.sol\":10007:10014  spender */\n          dup3\n          sub(shl(0xa0, 0x01), 0x01)\n            /* \"@openzeppelin/contracts/token/ERC20/ERC20.sol\":9991:10022  Approval(owner, spender, value) */\n          and\n            /* \"@openzeppelin/contracts/token/ERC20/ERC20.sol\":10000:10005  owner */\n          dup5\n          sub(shl(0xa0, 0x01), 0x01)\n            /* \"@openzeppelin/contracts/token/ERC20/ERC20.sol\":9991:10022  Approval(owner, spender, value) */\n          and\n          0x8c5be1e5ebec7d5bd14f71427d1e84f3dd0314c0f7b2291e5b200ac8c7c3b925\n            /* \"@openzeppelin/contracts/token/ERC20/ERC20.sol\":10016:10021  value */\n          dup5\n            /* \"@openzeppelin/contracts/token/ERC20/ERC20.sol\":9991:10022  Approval(owner, spender, value) */\n          mload(0x40)\n          tag_142\n          swap2\n            /* \"#utility.yul\":1258:1283   */\n          dup2\n          mstore\n            /* \"#utility.yul\":1246:1248   */\n          0x20\n            /* \"#utility.yul\":1231:1249   */\n          add\n          swap1\n            /* \"#utility.yul\":1112:1289   */\n          jump\n            /* \"@openzeppelin/contracts/token/ERC20/ERC20.sol\":9991:10022  Approval(owner, spender, value) */\n        tag_142:\n          mload(0x40)\n          dup1\n          swap2\n          sub\n          swap1\n          log3\n            /* \"@openzeppelin/contracts/token/ERC20/ERC20.sol\":9607:10039  function _approve(address owner, address spender, uint256 value, bool emitEvent) internal virtual {... */\n          pop\n          pop\n          pop\n          pop\n          jump\t// out\n            /* \"@openzeppelin/contracts/token/ERC20/ERC20.sol\":5912:7019  function _update(address from, address to, uint256 value) internal virtual {... */\n        tag_127:\n          sub(shl(0xa0, 0x01), 0x01)\n            /* \"@openzeppelin/contracts/token/ERC20/ERC20.sol\":6001:6019  from == address(0) */\n          dup4\n          and\n            /* \"@openzeppelin/contracts/token/ERC20/ERC20.sol\":5997:6537  if (from == address(0)) {... */\n          tag_144\n          jumpi\n            /* \"@openzeppelin/contracts/token/ERC20/ERC20.sol\":6153:6158  value */\n          dup1\n            /* \"@openzeppelin/contracts/token/ERC20/ERC20.sol\":6137:6149  _totalSupply */\n          0x02\n          0x00\n            /* \"@openzeppelin/contracts/token/ERC20/ERC20.sol\":6137:6158  _totalSupply += value */\n          dup3\n          dup3\n          sload\n          tag_145\n          swap2\n          swap1\n          tag_146\n          jump\t// in\n        tag_145:\n          swap1\n          swap2\n          sstore\n          pop\n            /* \"@openzeppelin/contracts/token/ERC20/ERC20.sol\":5997:6537  if (from == address(0)) {... */\n          tag_147\n          swap1\n          pop\n          jump\n        tag_144:\n          sub(shl(0xa0, 0x01), 0x01)\n            /* \"@openzeppelin/contracts/token/ERC20/ERC20.sol\":6211:6226  _balances[from] */\n          dup4\n          and\n            /* \"@openzeppelin/contracts/token/ERC20/ERC20.sol\":6189:6208  uint256 fromBalance */\n          0x00\n            /* \"@openzeppelin/contracts/token/ERC20/ERC20.sol\":6211:6226  _balances[from] */\n          swap1\n          dup2\n          mstore\n          0x20\n          dup2\n          swap1\n          mstore\n          0x40\n          swap1\n          keccak256\n          sload\n            /* \"@openzeppelin/contracts/token/ERC20/ERC20.sol\":6244:6263  fromBalance < value */\n          dup2\n          dup2\n          lt\n            /* \"@openzeppelin/contracts/token/ERC20/ERC20.sol\":6240:6355  if (fromBalance < value) {... */\n          iszero\n          tag_148\n          jumpi\n            /* \"@openzeppelin/contracts/token/ERC20/ERC20.sol\":6290:6340  ERC20InsufficientBalance(from, fromBalance, value) */\n          mload(0x40)\n          shl(0xe2, 0x391434e3)\n          dup2\n          mstore\n          sub(shl(0xa0, 0x01), 0x01)\n            /* \"#utility.yul\":3542:3574   */\n          dup6\n          and\n            /* \"@openzeppelin/contracts/token/ERC20/ERC20.sol\":6290:6340  ERC20InsufficientBalance(from, fromBalance, value) */\n          0x04\n          dup3\n          add\n            /* \"#utility.yul\":3524:3575   */\n          mstore\n            /* \"#utility.yul\":3591:3609   */\n          0x24\n          dup2\n          add\n            /* \"#utility.yul\":3584:3618   */\n          dup3\n          swap1\n          mstore\n            /* \"#utility.yul\":3634:3652   */\n          0x44\n          dup2\n          add\n            /* \"#utility.yul\":3627:3661   */\n          dup4\n          swap1\n          mstore\n            /* \"#utility.yul\":3497:3515   */\n          0x64\n          add\n            /* \"@openzeppelin/contracts/token/ERC20/ERC20.sol\":6290:6340  ERC20InsufficientBalance(from, fromBalance, value) */\n          tag_88\n            /* \"#utility.yul\":3322:3667   */\n          jump\n            /* \"@openzeppelin/contracts/token/ERC20/ERC20.sol\":6240:6355  if (fromBalance < value) {... */\n        tag_148:\n          sub(shl(0xa0, 0x01), 0x01)\n            /* \"@openzeppelin/contracts/token/ERC20/ERC20.sol\":6475:6490  _balances[from] */\n          dup5\n          and\n            /* \"@openzeppelin/contracts/token/ERC20/ERC20.sol\":6475:6484  _balances */\n          0x00\n            /* \"@openzeppelin/contracts/token/ERC20/ERC20.sol\":6475:6490  _balances[from] */\n          swap1\n          dup2\n          mstore\n          0x20\n          dup2\n          swap1\n          mstore\n          0x40\n          swap1\n          keccak256\n            /* \"@openzeppelin/contracts/token/ERC20/ERC20.sol\":6493:6512  fromBalance - value */\n          swap1\n          dup3\n          swap1\n          sub\n            /* \"@openzeppelin/contracts/token/ERC20/ERC20.sol\":6475:6512  _balances[from] = fromBalance - value */\n          swap1\n          sstore\n            /* \"@openzeppelin/contracts/token/ERC20/ERC20.sol\":5997:6537  if (from == address(0)) {... */\n        tag_147:\n          sub(shl(0xa0, 0x01), 0x01)\n            /* \"@openzeppelin/contracts/token/ERC20/ERC20.sol\":6551:6567  to == address(0) */\n          dup3\n          and\n            /* \"@openzeppelin/contracts/token/ERC20/ERC20.sol\":6547:6972  if (to == address(0)) {... */\n          tag_150\n          jumpi\n            /* \"@openzeppelin/contracts/token/ERC20/ERC20.sol\":6714:6726  _totalSupply */\n          0x02\n            /* \"@openzeppelin/contracts/token/ERC20/ERC20.sol\":6714:6735  _totalSupply -= value */\n          dup1\n          sload\n          dup3\n          swap1\n          sub\n          swap1\n          sstore\n            /* \"@openzeppelin/contracts/token/ERC20/ERC20.sol\":6547:6972  if (to == address(0)) {... */\n          jump(tag_151)\n        tag_150:\n          sub(shl(0xa0, 0x01), 0x01)\n            /* \"@openzeppelin/contracts/token/ERC20/ERC20.sol\":6925:6938  _balances[to] */\n          dup3\n          and\n            /* \"@openzeppelin/contracts/token/ERC20/ERC20.sol\":6925:6934  _balances */\n          0x00\n            /* \"@openzeppelin/contracts/token/ERC20/ERC20.sol\":6925:6938  _balances[to] */\n          swap1\n          dup2\n          mstore\n          0x20\n          dup2\n          swap1\n          mstore\n          0x40\n          swap1\n          keccak256\n            /* \"@openzeppelin/contracts/token/ERC20/ERC20.sol\":6925:6947  _balances[to] += value */\n          dup1\n          sload\n          dup3\n          add\n          swap1\n          sstore\n            /* \"@openzeppelin/contracts/token/ERC20/ERC20.sol\":6547:6972  if (to == address(0)) {... */\n        tag_151:\n            /* \"@openzeppelin/contracts/token/ERC20/ERC20.sol\":7002:7004  to */\n          dup2\n          sub(shl(0xa0, 0x01), 0x01)\n            /* \"@openzeppelin/contracts/token/ERC20/ERC20.sol\":6987:7012  Transfer(from, to, value) */\n          and\n            /* \"@openzeppelin/contracts/token/ERC20/ERC20.sol\":6996:7000  from */\n          dup4\n          sub(shl(0xa0, 0x01), 0x01)\n            /* \"@openzeppelin/contracts/token/ERC20/ERC20.sol\":6987:7012  Transfer(from, to, value) */\n          and\n          0xddf252ad1be2c89b69c2b068fc378daa952ba7f163c4a11628f55a4df523b3ef\n            /* \"@openzeppelin/contracts/token/ERC20/ERC20.sol\":7006:7011  value */\n          dup4\n            /* \"@openzeppelin/contracts/token/ERC20/ERC20.sol\":6987:7012  Transfer(from, to, value) */\n          mload(0x40)\n          tag_152\n          swap2\n            /* \"#utility.yul\":1258:1283   */\n          dup2\n          mstore\n            /* \"#utility.yul\":1246:1248   */\n          0x20\n            /* \"#utility.yul\":1231:1249   */\n          add\n          swap1\n            /* \"#utility.yul\":1112:1289   */\n          jump\n            /* \"@openzeppelin/contracts/token/ERC20/ERC20.sol\":6987:7012  Transfer(from, to, value) */\n        tag_152:\n          mload(0x40)\n          dup1\n          swap2\n          sub\n          swap1\n          log3\n            /* \"@openzeppelin/contracts/token/ERC20/ERC20.sol\":5912:7019  function _update(address from, address to, uint256 value) internal virtual {... */\n          pop\n          pop\n          pop\n          jump\t// out\n            /* \"#utility.yul\":14:432   */\n        tag_19:\n            /* \"#utility.yul\":163:165   */\n          0x20\n            /* \"#utility.yul\":152:161   */\n          dup2\n            /* \"#utility.yul\":145:166   */\n          mstore\n            /* \"#utility.yul\":126:130   */\n          0x00\n            /* \"#utility.yul\":195:201   */\n          dup3\n            /* \"#utility.yul\":189:202   */\n          mload\n            /* \"#utility.yul\":238:244   */\n          dup1\n            /* \"#utility.yul\":233:235   */\n          0x20\n            /* \"#utility.yul\":222:231   */\n          dup5\n            /* \"#utility.yul\":218:236   */\n          add\n            /* \"#utility.yul\":211:245   */\n          mstore\n            /* \"#utility.yul\":297:303   */\n          dup1\n            /* \"#utility.yul\":292:294   */\n          0x20\n            /* \"#utility.yul\":284:290   */\n          dup6\n            /* \"#utility.yul\":280:295   */\n          add\n            /* \"#utility.yul\":275:277   */\n          0x40\n            /* \"#utility.yul\":264:273   */\n          dup6\n            /* \"#utility.yul\":260:278   */\n          add\n            /* \"#utility.yul\":254:304   */\n          mcopy\n            /* \"#utility.yul\":353:354   */\n          0x00\n            /* \"#utility.yul\":348:350   */\n          0x40\n            /* \"#utility.yul\":339:345   */\n          dup3\n            /* \"#utility.yul\":328:337   */\n          dup6\n            /* \"#utility.yul\":324:346   */\n          add\n            /* \"#utility.yul\":320:351   */\n          add\n            /* \"#utility.yul\":313:355   */\n          mstore\n            /* \"#utility.yul\":423:425   */\n          0x40\n            /* \"#utility.yul\":416:418   */\n          0x1f\n            /* \"#utility.yul\":412:419   */\n          not\n            /* \"#utility.yul\":407:409   */\n          0x1f\n            /* \"#utility.yul\":399:405   */\n          dup4\n            /* \"#utility.yul\":395:410   */\n          add\n            /* \"#utility.yul\":391:420   */\n          and\n            /* \"#utility.yul\":380:389   */\n          dup5\n            /* \"#utility.yul\":376:421   */\n          add\n            /* \"#utility.yul\":372:426   */\n          add\n            /* \"#utility.yul\":364:426   */\n          swap2\n          pop\n          pop\n            /* \"#utility.yul\":14:432   */\n          swap3\n          swap2\n          pop\n          pop\n          jump\t// out\n            /* \"#utility.yul\":437:610   */\n        tag_153:\n            /* \"#utility.yul\":505:525   */\n          dup1\n          calldataload\n          sub(shl(0xa0, 0x01), 0x01)\n            /* \"#utility.yul\":554:585   */\n          dup2\n          and\n            /* \"#utility.yul\":544:586   */\n          dup2\n          eq\n            /* \"#utility.yul\":534:604   */\n          tag_157\n          jumpi\n            /* \"#utility.yul\":600:601   */\n          0x00\n            /* \"#utility.yul\":597:598   */\n          0x00\n            /* \"#utility.yul\":590:602   */\n          revert\n            /* \"#utility.yul\":534:604   */\n        tag_157:\n            /* \"#utility.yul\":437:610   */\n          swap2\n          swap1\n          pop\n          jump\t// out\n            /* \"#utility.yul\":615:915   */\n        tag_22:\n            /* \"#utility.yul\":683:689   */\n          0x00\n            /* \"#utility.yul\":691:697   */\n          0x00\n            /* \"#utility.yul\":744:746   */\n          0x40\n            /* \"#utility.yul\":732:741   */\n          dup4\n            /* \"#utility.yul\":723:730   */\n          dup6\n            /* \"#utility.yul\":719:742   */\n          sub\n            /* \"#utility.yul\":715:747   */\n          slt\n            /* \"#utility.yul\":712:764   */\n          iszero\n          tag_159\n          jumpi\n            /* \"#utility.yul\":760:761   */\n          0x00\n            /* \"#utility.yul\":757:758   */\n          0x00\n            /* \"#utility.yul\":750:762   */\n          revert\n            /* \"#utility.yul\":712:764   */\n        tag_159:\n            /* \"#utility.yul\":783:812   */\n          tag_160\n            /* \"#utility.yul\":802:811   */\n          dup4\n            /* \"#utility.yul\":783:812   */\n          tag_153\n          jump\t// in\n        tag_160:\n            /* \"#utility.yul\":773:812   */\n          swap5\n            /* \"#utility.yul\":881:883   */\n          0x20\n            /* \"#utility.yul\":866:884   */\n          swap4\n          swap1\n          swap4\n          add\n            /* \"#utility.yul\":853:885   */\n          calldataload\n          swap4\n          pop\n          pop\n          pop\n            /* \"#utility.yul\":615:915   */\n          jump\t// out\n            /* \"#utility.yul\":1294:1668   */\n        tag_32:\n            /* \"#utility.yul\":1371:1377   */\n          0x00\n            /* \"#utility.yul\":1379:1385   */\n          0x00\n            /* \"#utility.yul\":1387:1393   */\n          0x00\n            /* \"#utility.yul\":1440:1442   */\n          0x60\n            /* \"#utility.yul\":1428:1437   */\n          dup5\n            /* \"#utility.yul\":1419:1426   */\n          dup7\n            /* \"#utility.yul\":1415:1438   */\n          sub\n            /* \"#utility.yul\":1411:1443   */\n          slt\n            /* \"#utility.yul\":1408:1460   */\n          iszero\n          tag_164\n          jumpi\n            /* \"#utility.yul\":1456:1457   */\n          0x00\n            /* \"#utility.yul\":1453:1454   */\n          0x00\n            /* \"#utility.yul\":1446:1458   */\n          revert\n            /* \"#utility.yul\":1408:1460   */\n        tag_164:\n            /* \"#utility.yul\":1479:1508   */\n          tag_165\n            /* \"#utility.yul\":1498:1507   */\n          dup5\n            /* \"#utility.yul\":1479:1508   */\n          tag_153\n          jump\t// in\n        tag_165:\n            /* \"#utility.yul\":1469:1508   */\n          swap3\n          pop\n            /* \"#utility.yul\":1527:1565   */\n          tag_166\n            /* \"#utility.yul\":1561:1563   */\n          0x20\n            /* \"#utility.yul\":1550:1559   */\n          dup6\n            /* \"#utility.yul\":1546:1564   */\n          add\n            /* \"#utility.yul\":1527:1565   */\n          tag_153\n          jump\t// in\n        tag_166:\n            /* \"#utility.yul\":1294:1668   */\n          swap3\n          swap6\n            /* \"#utility.yul\":1517:1565   */\n          swap3\n          swap5\n          pop\n          pop\n          pop\n            /* \"#utility.yul\":1634:1636   */\n          0x40\n            /* \"#utility.yul\":1619:1637   */\n          swap2\n          swap1\n          swap2\n          add\n            /* \"#utility.yul\":1606:1638   */\n          calldataload\n          swap1\n            /* \"#utility.yul\":1294:1668   */\n          jump\t// out\n            /* \"#utility.yul\":1862:2048   */\n        tag_44:\n            /* \"#utility.yul\":1921:1927   */\n          0x00\n            /* \"#utility.yul\":1974:1976   */\n          0x20\n            /* \"#utility.yul\":1962:1971   */\n          dup3\n            /* \"#utility.yul\":1953:1960   */\n          dup5\n            /* \"#utility.yul\":1949:1972   */\n          sub\n            /* \"#utility.yul\":1945:1977   */\n          slt\n            /* \"#utility.yul\":1942:1994   */\n          iszero\n          tag_169\n          jumpi\n            /* \"#utility.yul\":1990:1991   */\n          0x00\n            /* \"#utility.yul\":1987:1988   */\n          0x00\n            /* \"#utility.yul\":1980:1992   */\n          revert\n            /* \"#utility.yul\":1942:1994   */\n        tag_169:\n            /* \"#utility.yul\":2013:2042   */\n          tag_170\n            /* \"#utility.yul\":2032:2041   */\n          dup3\n            /* \"#utility.yul\":2013:2042   */\n          tag_153\n          jump\t// in\n        tag_170:\n            /* \"#utility.yul\":2003:2042   */\n          swap4\n            /* \"#utility.yul\":1862:2048   */\n          swap3\n          pop\n          pop\n          pop\n          jump\t// out\n            /* \"#utility.yul\":2261:2521   */\n        tag_63:\n            /* \"#utility.yul\":2329:2335   */\n          0x00\n            /* \"#utility.yul\":2337:2343   */\n          0x00\n            /* \"#utility.yul\":2390:2392   */\n          0x40\n            /* \"#utility.yul\":2378:2387   */\n          dup4\n            /* \"#utility.yul\":2369:2376   */\n          dup6\n            /* \"#utility.yul\":2365:2388   */\n          sub\n            /* \"#utility.yul\":2361:2393   */\n          slt\n            /* \"#utility.yul\":2358:2410   */\n          iszero\n          tag_173\n          jumpi\n            /* \"#utility.yul\":2406:2407   */\n          0x00\n            /* \"#utility.yul\":2403:2404   */\n          0x00\n            /* \"#utility.yul\":2396:2408   */\n          revert\n            /* \"#utility.yul\":2358:2410   */\n        tag_173:\n            /* \"#utility.yul\":2429:2458   */\n          tag_174\n            /* \"#utility.yul\":2448:2457   */\n          dup4\n            /* \"#utility.yul\":2429:2458   */\n          tag_153\n          jump\t// in\n        tag_174:\n            /* \"#utility.yul\":2419:2458   */\n          swap2\n          pop\n            /* \"#utility.yul\":2477:2515   */\n          tag_175\n            /* \"#utility.yul\":2511:2513   */\n          0x20\n            /* \"#utility.yul\":2500:2509   */\n          dup5\n            /* \"#utility.yul\":2496:2514   */\n          add\n            /* \"#utility.yul\":2477:2515   */\n          tag_153\n          jump\t// in\n        tag_175:\n            /* \"#utility.yul\":2467:2515   */\n          swap1\n          pop\n            /* \"#utility.yul\":2261:2521   */\n          swap3\n          pop\n          swap3\n          swap1\n          pop\n          jump\t// out\n            /* \"#utility.yul\":2526:2906   */\n        tag_68:\n            /* \"#utility.yul\":2605:2606   */\n          0x01\n            /* \"#utility.yul\":2601:2613   */\n          dup2\n          dup2\n          shr\n          swap1\n            /* \"#utility.yul\":2648:2660   */\n          dup3\n          and\n          dup1\n            /* \"#utility.yul\":2669:2730   */\n          tag_177\n          jumpi\n            /* \"#utility.yul\":2723:2727   */\n          0x7f\n            /* \"#utility.yul\":2715:2721   */\n          dup3\n            /* \"#utility.yul\":2711:2728   */\n          and\n            /* \"#utility.yul\":2701:2728   */\n          swap2\n          pop\n            /* \"#utility.yul\":2669:2730   */\n        tag_177:\n            /* \"#utility.yul\":2776:2778   */\n          0x20\n            /* \"#utility.yul\":2768:2774   */\n          dup3\n            /* \"#utility.yul\":2765:2779   */\n          lt\n            /* \"#utility.yul\":2745:2763   */\n          dup2\n            /* \"#utility.yul\":2742:2780   */\n          sub\n            /* \"#utility.yul\":2739:2900   */\n          tag_178\n          jumpi\n            /* \"#utility.yul\":2822:2832   */\n          0x4e487b71\n            /* \"#utility.yul\":2817:2820   */\n          0xe0\n            /* \"#utility.yul\":2813:2833   */\n          shl\n            /* \"#utility.yul\":2810:2811   */\n          0x00\n            /* \"#utility.yul\":2803:2834   */\n          mstore\n            /* \"#utility.yul\":2857:2861   */\n          0x22\n            /* \"#utility.yul\":2854:2855   */\n          0x04\n            /* \"#utility.yul\":2847:2862   */\n          mstore\n            /* \"#utility.yul\":2885:2889   */\n          0x24\n            /* \"#utility.yul\":2882:2883   */\n          0x00\n            /* \"#utility.yul\":2875:2890   */\n          revert\n            /* \"#utility.yul\":2739:2900   */\n        tag_178:\n          pop\n            /* \"#utility.yul\":2526:2906   */\n          swap2\n          swap1\n          pop\n          jump\t// out\n            /* \"#utility.yul\":2911:3317   */\n        tag_89:\n            /* \"#utility.yul\":3113:3115   */\n          0x20\n            /* \"#utility.yul\":3095:3116   */\n          dup1\n          dup3\n          mstore\n            /* \"#utility.yul\":3152:3154   */\n          0x2a\n            /* \"#utility.yul\":3132:3150   */\n          swap1\n          dup3\n          add\n            /* \"#utility.yul\":3125:3155   */\n          mstore\n            /* \"#utility.yul\":3191:3225   */\n          0x4e6f206175746f72697a61646f3a20736f6c6f20656c2073697374656d612064\n            /* \"#utility.yul\":3186:3188   */\n          0x40\n            /* \"#utility.yul\":3171:3189   */\n          dup3\n          add\n            /* \"#utility.yul\":3164:3226   */\n          mstore\n          shl(0xb1, 0x32903b37ba30b1b4b7b7)\n            /* \"#utility.yul\":3257:3259   */\n          0x60\n            /* \"#utility.yul\":3242:3260   */\n          dup3\n          add\n            /* \"#utility.yul\":3235:3275   */\n          mstore\n            /* \"#utility.yul\":3307:3310   */\n          0x80\n            /* \"#utility.yul\":3292:3311   */\n          add\n          swap1\n            /* \"#utility.yul\":2911:3317   */\n          jump\t// out\n            /* \"#utility.yul\":3672:3894   */\n        tag_146:\n            /* \"#utility.yul\":3737:3746   */\n          dup1\n          dup3\n          add\n            /* \"#utility.yul\":3758:3768   */\n          dup1\n          dup3\n          gt\n            /* \"#utility.yul\":3755:3888   */\n          iszero\n          tag_73\n          jumpi\n            /* \"#utility.yul\":3810:3820   */\n          0x4e487b71\n            /* \"#utility.yul\":3805:3808   */\n          0xe0\n            /* \"#utility.yul\":3801:3821   */\n          shl\n            /* \"#utility.yul\":3798:3799   */\n          0x00\n            /* \"#utility.yul\":3791:3822   */\n          mstore\n            /* \"#utility.yul\":3845:3849   */\n          0x11\n            /* \"#utility.yul\":3842:3843   */\n          0x04\n            /* \"#utility.yul\":3835:3850   */\n          mstore\n            /* \"#utility.yul\":3873:3877   */\n          0x24\n            /* \"#utility.yul\":3870:3871   */\n          0x00\n            /* \"#utility.yul\":3863:3878   */\n          revert\n\n        auxdata: 0xa2646970667358221220c8adfbed651297e45261e9e98487e0266ccd75226d91c9eb754095a73c67f3af64736f6c634300081f0033\n    }\n}\n",
				"bytecode": {
					"linkReferences": {},
					"object": "608060405234801561000f575f5ffd5b50604051612f13380380612f1383398101604081905261002e916100da565b5f80546001600160a01b031916331790556002829055604051610050906100cd565b6040808252600990820152682220a7902a37b5b2b760b91b60608201526080602082018190526003908201526211159560ea1b60a082015260c001604051809103905ff0801580156100a4573d5f5f3e3d5ffd5b50600180546001600160a01b0319166001600160a01b0392909216919091179055506100fc9050565b610b2d806123e683390190565b5f5f604083850312156100eb575f5ffd5b505080516020909101519092909150565b6122dd806101095f395ff3fe608060405260043610610147575f3560e01c80639ab3f7a6116100b3578063c78da39a1161006d578063c78da39a146103a5578063d0febe4c146103ba578063da52a95f146103c2578063e0a8f6f5146103d7578063fc0c546a146103f6578063fffefd9114610415575f5ffd5b80639ab3f7a61461030c578063a80db6fc1461032b578063a95824b41461033f578063affc067014610358578063bc903cb814610360578063c631b29214610391575f5ffd5b80634ece90a8116101045780634ece90a81461022d5780636c11bcd31461025e5780637b0472f01461027d5780638da5cb5b1461029c5780638e08a50b146102ba578063929066f5146102ce575f5ffd5b8063013cf08b1461014b57806305d0f15b146101885780632e60338a146101ab5780633ac0feac146101e15780633d571e97146102025780634e76a84614610218575b5f5ffd5b348015610156575f5ffd5b5061016a610165366004611c2d565b61041d565b60405161017f99989796959493929190611ca6565b60405180910390f35b348015610193575f5ffd5b5061019d60025481565b60405190815260200161017f565b3480156101b6575f5ffd5b5061019d6101c5366004611d3c565b600960209081525f928352604080842090915290825290205481565b3480156101ec575f5ffd5b506101f5610584565b60405161017f9190611d66565b34801561020d575f5ffd5b50610216610596565b005b348015610223575f5ffd5b5061019d60055481565b348015610238575f5ffd5b506001546001600160a01b03165b6040516001600160a01b03909116815260200161017f565b348015610269575f5ffd5b50610216610278366004611c2d565b610619565b348015610288575f5ffd5b50610216610297366004611da8565b6107c6565b3480156102a7575f5ffd5b505f54610246906001600160a01b031681565b3480156102c5575f5ffd5b506101f5610a6a565b3480156102d9575f5ffd5b506102fc6102e8366004611dc8565b600b6020525f908152604090205460ff1681565b604051901515815260200161017f565b348015610317575f5ffd5b5061019d610326366004611e80565b610ba5565b348015610336575f5ffd5b506101f5610e38565b34801561034a575f5ffd5b506004546102fc9060ff1681565b610216610e44565b34801561036b575f5ffd5b5061037f61037a366004611c2d565b610ee7565b60405161017f96959493929190611efe565b34801561039c575f5ffd5b506102166110a0565b3480156103b0575f5ffd5b5061019d60035481565b6102166112f5565b3480156103cd575f5ffd5b5061019d60065481565b3480156103e2575f5ffd5b506102166103f1366004611c2d565b6113bf565b348015610401575f5ffd5b50600154610246906001600160a01b031681565b6102166114f8565b60086020525f908152604090208054819061043790611f5a565b80601f016020809104026020016040519081016040528092919081815260200182805461046390611f5a565b80156104ae5780601f10610485576101008083540402835291602001916104ae565b820191905f5260205f20905b81548152906001019060200180831161049157829003601f168201915b5050505050908060010180546104c390611f5a565b80601f01602080910402602001604051908101604052809291908181526020018280546104ef90611f5a565b801561053a5780601f106105115761010080835404028352916020019161053a565b820191905f5260205f20905b81548152906001019060200180831161051d57829003601f168201915b5050506002840154600385015460048601546005870154600690970154959692956001600160a01b03808416965060ff600160a01b94859004811696509294939082169291041689565b606061059160015f611625565b905090565b335f908152600b602052604090205460ff166105ee5760405162461bcd60e51b81526020600482015260126024820152714e6f206573207061727469636970616e746560701b60448201526064015b60405180910390fd5b335f908152600b60205260408120805460ff19169055600580549161061283611fa6565b9190505550565b6001546040516370a0823160e01b815233600482015282916001600160a01b0316906370a0823190602401602060405180830381865afa15801561065f573d5f5f3e3d5ffd5b505050506040513d601f19601f820116820180604052508101906106839190611fbb565b10156106c85760405162461bcd60e51b8152602060048201526014602482015273466f6e646f7320696e737566696369656e74657360601b60448201526064016105e5565b5f600254826106d79190611fd2565b600154604051632770a7eb60e21b8152336004820152602481018590529192506001600160a01b031690639dc29fac906044015f604051808303815f87803b158015610721575f5ffd5b505af1158015610733573d5f5f3e3d5ffd5b50506040515f925033915083908381818185875af1925050503d805f8114610776576040519150601f19603f3d011682016040523d82523d5f602084013e61077b565b606091505b50509050806107c15760405162461bcd60e51b81526020600482015260126024820152714572726f7220656e207265656d626f6c736f60701b60448201526064016105e5565b505050565b60045460ff1680156107e65750335f908152600b602052604090205460ff165b6108235760405162461bcd60e51b815260206004820152600e60248201526d273790383ab2b232903b37ba30b960911b60448201526064016105e5565b5f828152600860205260408120906003820154600160a01b900460ff16600281111561085157610851611c72565b1461088a5760405162461bcd60e51b81526020600482015260096024820152684e6f2061637469766160b81b60448201526064016105e5565b5f838152600960209081526040808320338452909152812054906108ae8483611fe9565b90505f6108bc6002846120df565b6108c76002846120df565b6108d191906120ed565b6001546040516323b872dd60e01b8152336004820152306024820152604481018390529192506001600160a01b0316906323b872dd906064016020604051808303815f875af1158015610926573d5f5f3e3d5ffd5b505050506040513d601f19601f8201168201806040525081019061094a9190612100565b6109865760405162461bcd60e51b815260206004820152600d60248201526c46616c746120617070726f766560981b60448201526064016105e5565b825f036109bb575f868152600a602090815260408220805460018101825590835291200180546001600160a01b031916331790555b5f86815260096020908152604080832033845290915281208390556004850180548792906109ea908490611fe9565b9250508190555080846005015f828254610a049190611fe9565b90915550506040805186815260208101839052339188917f0271f53eebbe20450d9578f28ec279231556c34545b30e2278d754ffd39cd63c910160405180910390a36006840154600160a01b900460ff16610a6257610a62866117ba565b505050505050565b60045460609060ff16610ab25760405162461bcd60e51b815260206004820152601060248201526f566f746163696f6e206365727261646160801b60448201526064016105e5565b5f805b600754811015610af5575f81815260086020526040902060060154600160a01b900460ff1615610aed5781610ae98161211f565b9250505b600101610ab5565b505f8167ffffffffffffffff811115610b1057610b10611de1565b604051908082528060200260200182016040528015610b39578160200160208202803683370190505b5090505f805b600754811015610b9c575f81815260086020526040902060060154600160a01b900460ff1615610b9457808383610b758161211f565b945081518110610b8757610b87612137565b6020026020010181815250505b600101610b3f565b50909392505050565b6004545f9060ff16610be35760405162461bcd60e51b81526020600482015260076024820152664365727261646160c81b60448201526064016105e5565b335f908152600b602052604090205460ff16610c365760405162461bcd60e51b8152602060048201526012602482015271536f6c6f207061727469636970616e74657360701b60448201526064016105e5565b610c506001600160a01b03831663986cc31160e01b611a47565b610c8d5760405162461bcd60e51b815260206004820152600e60248201526d4552433136352066616c6c69646f60901b60448201526064016105e5565b600780545f9182610c9d8361211f565b909155506040805161012081018252888152602081018890529081018690526001600160a01b0385166060820152909150841590608081015f81525f60208083018290526040808401839052336060850152851515608090940193909352858252600890522081518190610d119082612196565b5060208201516001820190610d269082612196565b50604082015160028083019190915560608301516003830180546001600160a01b039092166001600160a01b031983168117825560808601519391926001600160a81b0319161790600160a01b908490811115610d8557610d85611c72565b021790555060a0820151600482015560c0820151600582015560e082015160069091018054610100909301511515600160a01b026001600160a81b03199093166001600160a01b039092169190911791909117905580610df45760068054905f610dee8361211f565b91905055505b817ff5dc0da9afa6d080780a49fd8c680f03d2ddf3c067cd6d0c85360c096644d2d38887604051610e26929190612251565b60405180910390a25095945050505050565b60606105915f5f611625565b5f546001600160a01b03163314610e8c5760405162461bcd60e51b815260206004820152600c60248201526b29b7b6379031b932b0b237b960a11b60448201526064016105e5565b6004805460ff19166001179055600380543491905f90610ead908490611fe9565b90915550506040513481527fe0a358d4a766346f1ece85d22e2197435d610d9638874a0fd6746e58a1b1f58a9060200160405180910390a1565b60045460609081905f9081908190819060ff16610f395760405162461bcd60e51b815260206004820152601060248201526f566f746163696f6e206365727261646160801b60448201526064016105e5565b5f87815260086020526040902060028101546003820154600483015483548493600185019390926001600160a01b03821692600160a01b90920460ff16918690610f8290611f5a565b80601f0160208091040260200160405190810160405280929190818152602001828054610fae90611f5a565b8015610ff95780601f10610fd057610100808354040283529160200191610ff9565b820191905f5260205f20905b815481529060010190602001808311610fdc57829003601f168201915b5050505050955084805461100c90611f5a565b80601f016020809104026020016040519081016040528092919081815260200182805461103890611f5a565b80156110835780601f1061105a57610100808354040283529160200191611083565b820191905f5260205f20905b81548152906001019060200180831161106657829003601f168201915b505050505094509650965096509650965096505091939550919395565b5f546001600160a01b0316331480156110bb575060045460ff165b6110f45760405162461bcd60e51b815260206004820152600a60248201526929b7b6379037bbb732b960b11b60448201526064016105e5565b6004805460ff191690555f5b60075481101561124d575f8181526008602052604090206006810154600160a01b900460ff16156111ec5760038101546004820154600583015460405160248101869052604481019290925260648201525f916001600160a01b031690620186a09060840160408051601f198184030181529181526020820180516001600160e01b031663986cc31160e01b1790525161119a9190612272565b5f604051808303815f8787f1925050503d805f81146111d4576040519150601f19603f3d011682016040523d82523d5f602084013e6111d9565b606091505b505090506111e683611a69565b50611244565b5f6003820154600160a01b900460ff16600281111561120d5761120d611c72565b036112445760038101805460ff60a01b1916600160a11b17905560068054905f61123683611fa6565b919050555061124482611a69565b50600101611100565b50600380545f90915580156112f2575f80546040516001600160a01b039091169083908381818185875af1925050503d805f81146112a6576040519150601f19603f3d011682016040523d82523d5f602084013e6112ab565b606091505b50509050806112f05760405162461bcd60e51b815260206004820152601160248201527022b93937b9103634b8bab4b230b1b4b7b760791b60448201526064016105e5565b505b50565b335f908152600b602052604090205460ff166113405760405162461bcd60e51b815260206004820152600a602482015269496e736372696261736560b01b60448201526064016105e5565b6001546002546001600160a01b03909116906340c10f199033906113649034612288565b6040516001600160e01b031960e085901b1681526001600160a01b03909216600483015260248201526044015f604051808303815f87803b1580156113a7575f5ffd5b505af11580156113b9573d5f5f3e3d5ffd5b50505050565b60045460ff166113fb5760405162461bcd60e51b81526020600482015260076024820152664365727261646160c81b60448201526064016105e5565b5f81815260086020526040902060068101546001600160a01b031633146114545760405162461bcd60e51b815260206004820152600d60248201526c29b7b6379032b61030baba37b960991b60448201526064016105e5565b5f6003820154600160a01b900460ff16600281111561147557611475611c72565b146114b25760405162461bcd60e51b815260206004820152600d60248201526c59612066696e616c697a61646160981b60448201526064016105e5565b60038101805460ff60a01b1916600160a11b1790556006810154600160a01b900460ff166114ef5760068054905f6114e983611fa6565b91905055505b6112f082611a69565b60025434101561153b5760405162461bcd60e51b815260206004820152600e60248201526d26b4b734b6b79018903a37b5b2b760911b60448201526064016105e5565b335f908152600b602052604090205460ff1661157e57335f908152600b60205260408120805460ff1916600117905560058054916115788361211f565b91905055505b5f6002543461158d9190612288565b6001546040516340c10f1960e01b8152336004820152602481018390529192506001600160a01b0316906340c10f19906044015f604051808303815f87803b1580156115d7575f5ffd5b505af11580156115e9573d5f5f3e3d5ffd5b50506040518381523392507f287ab65235aa9a0baeed5b973fda48c77ebdc6f3dd931cfda1c082c0aecc1e73915060200160405180910390a250565b60605f805b6007548110156116b85784600281111561164657611646611c72565b5f82815260086020526040902060030154600160a01b900460ff16600281111561167257611672611c72565b14801561169d57505f8181526008602052604090206006015460ff600160a01b909104161515841515145b156116b057816116ac8161211f565b9250505b60010161162a565b505f8167ffffffffffffffff8111156116d3576116d3611de1565b6040519080825280602002602001820160405280156116fc578160200160208202803683370190505b5090505f805b6007548110156117ad5786600281111561171e5761171e611c72565b5f82815260086020526040902060030154600160a01b900460ff16600281111561174a5761174a611c72565b14801561177557505f8181526008602052604090206006015460ff600160a01b909104161515861515145b156117a5578083836117868161211f565b94508151811061179857611798612137565b6020026020010181815250505b600101611702565b5090925050505b92915050565b5f81815260086020526040812060035460028201549192916117dd90600a611fd2565b6117e79190612288565b6117f2906002611fe9565b90505f600a6006546005546118079190611fe9565b6118119084611fd2565b61181b9190612288565b90508083600401541180156118365750826002015460035410155b156113b95760038301805460ff60a01b1916600160a01b17905560068054905f61185f83611fa6565b919050555060025483600501546118769190611fd2565b60035f8282546118869190611fe9565b90915550506002830154600380545f906118a19084906120ed565b90915550506001546005840154604051632770a7eb60e21b815230600482015260248101919091526001600160a01b0390911690639dc29fac906044015f604051808303815f87803b1580156118f5575f5ffd5b505af1158015611907573d5f5f3e3d5ffd5b50505050600383015460028401546004850154600586015460405160248101899052604481019290925260648201525f926001600160a01b031691620186a09160840160408051601f198184030181529181526020820180516001600160e01b031663986cc31160e01b1790525161197f9190612272565b5f60405180830381858888f193505050503d805f81146119ba576040519150601f19603f3d011682016040523d82523d5f602084013e6119bf565b606091505b5050905080611a025760405162461bcd60e51b815260206004820152600f60248201526e456a65637563696f6e2066616c6c6f60881b60448201526064016105e5565b847fc6a4fd4a703d2a2fe3167ce7f6d62bf96458b7e55042cfaa85d5c7ef3ac56eea8560020154604051611a3891815260200190565b60405180910390a25050505050565b5f611a5183611b87565b8015611a625750611a628383611bd5565b9392505050565b5f818152600a60205260408120905b81548110156107c1575f828281548110611a9457611a94612137565b5f9182526020808320909101548683526009825260408084206001600160a01b03909216808552919092529120549091508015611b7d575f611ad68280611fd2565b5f8781526009602090815260408083206001600160a01b038089168552925280832092909255600154915163a9059cbb60e01b8152929350169063a9059cbb90611b3a90869085906004016001600160a01b03929092168252602082015260400190565b6020604051808303815f875af1158015611b56573d5f5f3e3d5ffd5b505050506040513d601f19601f82011682018060405250810190611b7a9190612100565b50505b5050600101611a78565b5f611b99826301ffc9a760e01b611bd5565b15611bc9575f80611bb2846001600160e01b0319611bf9565b91509150818015611bc1575080155b949350505050565b505f919050565b919050565b5f5f5f611be28585611bf9565b91509150818015611bf05750805b95945050505050565b6301ffc9a760e01b5f818152600483905290819060208260248188617530fa92505f511515601f3d11169150509250929050565b5f60208284031215611c3d575f5ffd5b5035919050565b5f81518084528060208401602086015e5f602082860101526020601f19601f83011685010191505092915050565b634e487b7160e01b5f52602160045260245ffd5b60038110611ca257634e487b7160e01b5f52602160045260245ffd5b9052565b61012081525f611cba61012083018c611c44565b8281036020840152611ccc818c611c44565b604084018b90526001600160a01b038a1660608501529150611cf390506080830188611c86565b60a082019590955260c08101939093526001600160a01b039190911660e083015215156101009091015295945050505050565b80356001600160a01b0381168114611bd0575f5ffd5b5f5f60408385031215611d4d575f5ffd5b82359150611d5d60208401611d26565b90509250929050565b602080825282518282018190525f918401906040840190835b81811015611d9d578351835260209384019390920191600101611d7f565b509095945050505050565b5f5f60408385031215611db9575f5ffd5b50508035926020909101359150565b5f60208284031215611dd8575f5ffd5b611a6282611d26565b634e487b7160e01b5f52604160045260245ffd5b5f82601f830112611e04575f5ffd5b813567ffffffffffffffff811115611e1e57611e1e611de1565b604051601f8201601f19908116603f0116810167ffffffffffffffff81118282101715611e4d57611e4d611de1565b604052818152838201602001851015611e64575f5ffd5b816020850160208301375f918101602001919091529392505050565b5f5f5f5f60808587031215611e93575f5ffd5b843567ffffffffffffffff811115611ea9575f5ffd5b611eb587828801611df5565b945050602085013567ffffffffffffffff811115611ed1575f5ffd5b611edd87828801611df5565b93505060408501359150611ef360608601611d26565b905092959194509250565b60c081525f611f1060c0830189611c44565b8281036020840152611f228189611c44565b604084018890526001600160a01b03871660608501529150611f4990506080830185611c86565b8260a0830152979650505050505050565b600181811c90821680611f6e57607f821691505b602082108103611f8c57634e487b7160e01b5f52602260045260245ffd5b50919050565b634e487b7160e01b5f52601160045260245ffd5b5f81611fb457611fb4611f92565b505f190190565b5f60208284031215611fcb575f5ffd5b5051919050565b80820281158282048414176117b4576117b4611f92565b808201808211156117b4576117b4611f92565b6001815b60018411156120375780850481111561201b5761201b611f92565b600184161561202957908102905b60019390931c928002612000565b935093915050565b5f8261204d575060016117b4565b8161205957505f6117b4565b816001811461206f576002811461207957612095565b60019150506117b4565b60ff84111561208a5761208a611f92565b50506001821b6117b4565b5060208310610133831016604e8410600b84101617156120b8575081810a6117b4565b6120c45f198484611ffc565b805f19048211156120d7576120d7611f92565b029392505050565b5f611a6260ff84168361203f565b818103818111156117b4576117b4611f92565b5f60208284031215612110575f5ffd5b81518015158114611a62575f5ffd5b5f6001820161213057612130611f92565b5060010190565b634e487b7160e01b5f52603260045260245ffd5b601f8211156107c157805f5260205f20601f840160051c810160208510156121705750805b601f840160051c820191505b8181101561218f575f815560010161217c565b5050505050565b815167ffffffffffffffff8111156121b0576121b0611de1565b6121c4816121be8454611f5a565b8461214b565b6020601f8211600181146121f6575f83156121df5750848201515b5f19600385901b1c1916600184901b17845561218f565b5f84815260208120601f198516915b828110156122255787850151825560209485019460019092019101612205565b508482101561224257868401515f19600387901b60f8161c191681555b50505050600190811b01905550565b604081525f6122636040830185611c44565b90508260208301529392505050565b5f82518060208501845e5f920191825250919050565b5f826122a257634e487b7160e01b5f52601260045260245ffd5b50049056fea26469706673582212208cbb73a194afcaa388b3fa7582fb314b6aa9ff7436fa4134d01d4e8bb1769c1264736f6c634300081f0033608060405234801561000f575f5ffd5b50604051610b2d380380610b2d83398101604081905261002e91610103565b8181600361003c83826101ec565b50600461004982826101ec565b5050600580546001600160a01b03191633179055506102a6915050565b634e487b7160e01b5f52604160045260245ffd5b5f82601f830112610089575f5ffd5b81516001600160401b038111156100a2576100a2610066565b604051601f8201601f19908116603f011681016001600160401b03811182821017156100d0576100d0610066565b6040528181528382016020018510156100e7575f5ffd5b8160208501602083015e5f918101602001919091529392505050565b5f5f60408385031215610114575f5ffd5b82516001600160401b03811115610129575f5ffd5b6101358582860161007a565b602085015190935090506001600160401b03811115610152575f5ffd5b61015e8582860161007a565b9150509250929050565b600181811c9082168061017c57607f821691505b60208210810361019a57634e487b7160e01b5f52602260045260245ffd5b50919050565b601f8211156101e757805f5260205f20601f840160051c810160208510156101c55750805b601f840160051c820191505b818110156101e4575f81556001016101d1565b50505b505050565b81516001600160401b0381111561020557610205610066565b610219816102138454610168565b846101a0565b6020601f82116001811461024b575f83156102345750848201515b5f19600385901b1c1916600184901b1784556101e4565b5f84815260208120601f198516915b8281101561027a578785015182556020948501946001909201910161025a565b508482101561029757868401515f19600387901b60f8161c191681555b50505050600190811b01905550565b61087a806102b35f395ff3fe608060405234801561000f575f5ffd5b50600436106100b1575f3560e01c806370a082311161006e57806370a082311461013f57806395d89b41146101675780639dc29fac1461016f578063a9059cbb14610182578063c1fc006a14610195578063dd62ed3e146101c0575f5ffd5b806306fdde03146100b5578063095ea7b3146100d357806318160ddd146100f657806323b872dd14610108578063313ce5671461011b57806340c10f191461012a575b5f5ffd5b6100bd6101f8565b6040516100ca91906106a0565b60405180910390f35b6100e66100e13660046106f0565b610288565b60405190151581526020016100ca565b6002545b6040519081526020016100ca565b6100e6610116366004610718565b6102a1565b604051601281526020016100ca565b61013d6101383660046106f0565b6102c4565b005b6100fa61014d366004610752565b6001600160a01b03165f9081526020819052604090205490565b6100bd610305565b61013d61017d3660046106f0565b610314565b6100e66101903660046106f0565b610348565b6005546101a8906001600160a01b031681565b6040516001600160a01b0390911681526020016100ca565b6100fa6101ce366004610772565b6001600160a01b039182165f90815260016020908152604080832093909416825291909152205490565b606060038054610207906107a3565b80601f0160208091040260200160405190810160405280929190818152602001828054610233906107a3565b801561027e5780601f106102555761010080835404028352916020019161027e565b820191905f5260205f20905b81548152906001019060200180831161026157829003601f168201915b5050505050905090565b5f33610295818585610355565b60019150505b92915050565b5f336102ae858285610367565b6102b98585856103e3565b506001949350505050565b6005546001600160a01b031633146102f75760405162461bcd60e51b81526004016102ee906107db565b60405180910390fd5b6103018282610440565b5050565b606060048054610207906107a3565b6005546001600160a01b0316331461033e5760405162461bcd60e51b81526004016102ee906107db565b6103018282610474565b5f336102958185856103e3565b61036283838360016104a8565b505050565b6001600160a01b038381165f908152600160209081526040808320938616835292905220545f198110156103dd57818110156103cf57604051637dc7a0d960e11b81526001600160a01b038416600482015260248101829052604481018390526064016102ee565b6103dd84848484035f6104a8565b50505050565b6001600160a01b03831661040c57604051634b637e8f60e11b81525f60048201526024016102ee565b6001600160a01b0382166104355760405163ec442f0560e01b81525f60048201526024016102ee565b61036283838361057a565b6001600160a01b0382166104695760405163ec442f0560e01b81525f60048201526024016102ee565b6103015f838361057a565b6001600160a01b03821661049d57604051634b637e8f60e11b81525f60048201526024016102ee565b610301825f8361057a565b6001600160a01b0384166104d15760405163e602df0560e01b81525f60048201526024016102ee565b6001600160a01b0383166104fa57604051634a1406b160e11b81525f60048201526024016102ee565b6001600160a01b038085165f90815260016020908152604080832093871683529290522082905580156103dd57826001600160a01b0316846001600160a01b03167f8c5be1e5ebec7d5bd14f71427d1e84f3dd0314c0f7b2291e5b200ac8c7c3b9258460405161056c91815260200190565b60405180910390a350505050565b6001600160a01b0383166105a4578060025f8282546105999190610825565b909155506106149050565b6001600160a01b0383165f90815260208190526040902054818110156105f65760405163391434e360e21b81526001600160a01b038516600482015260248101829052604481018390526064016102ee565b6001600160a01b0384165f9081526020819052604090209082900390555b6001600160a01b0382166106305760028054829003905561064e565b6001600160a01b0382165f9081526020819052604090208054820190555b816001600160a01b0316836001600160a01b03167fddf252ad1be2c89b69c2b068fc378daa952ba7f163c4a11628f55a4df523b3ef8360405161069391815260200190565b60405180910390a3505050565b602081525f82518060208401528060208501604085015e5f604082850101526040601f19601f83011684010191505092915050565b80356001600160a01b03811681146106eb575f5ffd5b919050565b5f5f60408385031215610701575f5ffd5b61070a836106d5565b946020939093013593505050565b5f5f5f6060848603121561072a575f5ffd5b610733846106d5565b9250610741602085016106d5565b929592945050506040919091013590565b5f60208284031215610762575f5ffd5b61076b826106d5565b9392505050565b5f5f60408385031215610783575f5ffd5b61078c836106d5565b915061079a602084016106d5565b90509250929050565b600181811c908216806107b757607f821691505b6020821081036107d557634e487b7160e01b5f52602260045260245ffd5b50919050565b6020808252602a908201527f4e6f206175746f72697a61646f3a20736f6c6f20656c2073697374656d61206460408201526932903b37ba30b1b4b7b760b11b606082015260800190565b8082018082111561029b57634e487b7160e01b5f52601160045260245ffdfea2646970667358221220c8adfbed651297e45261e9e98487e0266ccd75226d91c9eb754095a73c67f3af64736f6c634300081f0033",
					"opcodes": "PUSH1 0x80 PUSH1 0x40 MSTORE CALLVALUE DUP1 ISZERO PUSH2 0xF JUMPI PUSH0 PUSH0 REVERT JUMPDEST POP PUSH1 0x40 MLOAD PUSH2 0x2F13 CODESIZE SUB DUP1 PUSH2 0x2F13 DUP4 CODECOPY DUP2 ADD PUSH1 0x40 DUP2 SWAP1 MSTORE PUSH2 0x2E SWAP2 PUSH2 0xDA JUMP JUMPDEST PUSH0 DUP1 SLOAD PUSH1 0x1 PUSH1 0x1 PUSH1 0xA0 SHL SUB NOT AND CALLER OR SWAP1 SSTORE PUSH1 0x2 DUP3 SWAP1 SSTORE PUSH1 0x40 MLOAD PUSH2 0x50 SWAP1 PUSH2 0xCD JUMP JUMPDEST PUSH1 0x40 DUP1 DUP3 MSTORE PUSH1 0x9 SWAP1 DUP3 ADD MSTORE PUSH9 0x2220A7902A37B5B2B7 PUSH1 0xB9 SHL PUSH1 0x60 DUP3 ADD MSTORE PUSH1 0x80 PUSH1 0x20 DUP3 ADD DUP2 SWAP1 MSTORE PUSH1 0x3 SWAP1 DUP3 ADD MSTORE PUSH3 0x111595 PUSH1 0xEA SHL PUSH1 0xA0 DUP3 ADD MSTORE PUSH1 0xC0 ADD PUSH1 0x40 MLOAD DUP1 SWAP2 SUB SWAP1 PUSH0 CREATE DUP1 ISZERO DUP1 ISZERO PUSH2 0xA4 JUMPI RETURNDATASIZE PUSH0 PUSH0 RETURNDATACOPY RETURNDATASIZE PUSH0 REVERT JUMPDEST POP PUSH1 0x1 DUP1 SLOAD PUSH1 0x1 PUSH1 0x1 PUSH1 0xA0 SHL SUB NOT AND PUSH1 0x1 PUSH1 0x1 PUSH1 0xA0 SHL SUB SWAP3 SWAP1 SWAP3 AND SWAP2 SWAP1 SWAP2 OR SWAP1 SSTORE POP PUSH2 0xFC SWAP1 POP JUMP JUMPDEST PUSH2 0xB2D DUP1 PUSH2 0x23E6 DUP4 CODECOPY ADD SWAP1 JUMP JUMPDEST PUSH0 PUSH0 PUSH1 0x40 DUP4 DUP6 SUB SLT ISZERO PUSH2 0xEB JUMPI PUSH0 PUSH0 REVERT JUMPDEST POP POP DUP1 MLOAD PUSH1 0x20 SWAP1 SWAP2 ADD MLOAD SWAP1 SWAP3 SWAP1 SWAP2 POP JUMP JUMPDEST PUSH2 0x22DD DUP1 PUSH2 0x109 PUSH0 CODECOPY PUSH0 RETURN INVALID PUSH1 0x80 PUSH1 0x40 MSTORE PUSH1 0x4 CALLDATASIZE LT PUSH2 0x147 JUMPI PUSH0 CALLDATALOAD PUSH1 0xE0 SHR DUP1 PUSH4 0x9AB3F7A6 GT PUSH2 0xB3 JUMPI DUP1 PUSH4 0xC78DA39A GT PUSH2 0x6D JUMPI DUP1 PUSH4 0xC78DA39A EQ PUSH2 0x3A5 JUMPI DUP1 PUSH4 0xD0FEBE4C EQ PUSH2 0x3BA JUMPI DUP1 PUSH4 0xDA52A95F EQ PUSH2 0x3C2 JUMPI DUP1 PUSH4 0xE0A8F6F5 EQ PUSH2 0x3D7 JUMPI DUP1 PUSH4 0xFC0C546A EQ PUSH2 0x3F6 JUMPI DUP1 PUSH4 0xFFFEFD91 EQ PUSH2 0x415 JUMPI PUSH0 PUSH0 REVERT JUMPDEST DUP1 PUSH4 0x9AB3F7A6 EQ PUSH2 0x30C JUMPI DUP1 PUSH4 0xA80DB6FC EQ PUSH2 0x32B JUMPI DUP1 PUSH4 0xA95824B4 EQ PUSH2 0x33F JUMPI DUP1 PUSH4 0xAFFC0670 EQ PUSH2 0x358 JUMPI DUP1 PUSH4 0xBC903CB8 EQ PUSH2 0x360 JUMPI DUP1 PUSH4 0xC631B292 EQ PUSH2 0x391 JUMPI PUSH0 PUSH0 REVERT JUMPDEST DUP1 PUSH4 0x4ECE90A8 GT PUSH2 0x104 JUMPI DUP1 PUSH4 0x4ECE90A8 EQ PUSH2 0x22D JUMPI DUP1 PUSH4 0x6C11BCD3 EQ PUSH2 0x25E JUMPI DUP1 PUSH4 0x7B0472F0 EQ PUSH2 0x27D JUMPI DUP1 PUSH4 0x8DA5CB5B EQ PUSH2 0x29C JUMPI DUP1 PUSH4 0x8E08A50B EQ PUSH2 0x2BA JUMPI DUP1 PUSH4 0x929066F5 EQ PUSH2 0x2CE JUMPI PUSH0 PUSH0 REVERT JUMPDEST DUP1 PUSH4 0x13CF08B EQ PUSH2 0x14B JUMPI DUP1 PUSH4 0x5D0F15B EQ PUSH2 0x188 JUMPI DUP1 PUSH4 0x2E60338A EQ PUSH2 0x1AB JUMPI DUP1 PUSH4 0x3AC0FEAC EQ PUSH2 0x1E1 JUMPI DUP1 PUSH4 0x3D571E97 EQ PUSH2 0x202 JUMPI DUP1 PUSH4 0x4E76A846 EQ PUSH2 0x218 JUMPI JUMPDEST PUSH0 PUSH0 REVERT JUMPDEST CALLVALUE DUP1 ISZERO PUSH2 0x156 JUMPI PUSH0 PUSH0 REVERT JUMPDEST POP PUSH2 0x16A PUSH2 0x165 CALLDATASIZE PUSH1 0x4 PUSH2 0x1C2D JUMP JUMPDEST PUSH2 0x41D JUMP JUMPDEST PUSH1 0x40 MLOAD PUSH2 0x17F SWAP10 SWAP9 SWAP8 SWAP7 SWAP6 SWAP5 SWAP4 SWAP3 SWAP2 SWAP1 PUSH2 0x1CA6 JUMP JUMPDEST PUSH1 0x40 MLOAD DUP1 SWAP2 SUB SWAP1 RETURN JUMPDEST CALLVALUE DUP1 ISZERO PUSH2 0x193 JUMPI PUSH0 PUSH0 REVERT JUMPDEST POP PUSH2 0x19D PUSH1 0x2 SLOAD DUP2 JUMP JUMPDEST PUSH1 0x40 MLOAD SWAP1 DUP2 MSTORE PUSH1 0x20 ADD PUSH2 0x17F JUMP JUMPDEST CALLVALUE DUP1 ISZERO PUSH2 0x1B6 JUMPI PUSH0 PUSH0 REVERT JUMPDEST POP PUSH2 0x19D PUSH2 0x1C5 CALLDATASIZE PUSH1 0x4 PUSH2 0x1D3C JUMP JUMPDEST PUSH1 0x9 PUSH1 0x20 SWAP1 DUP2 MSTORE PUSH0 SWAP3 DUP4 MSTORE PUSH1 0x40 DUP1 DUP5 KECCAK256 SWAP1 SWAP2 MSTORE SWAP1 DUP3 MSTORE SWAP1 KECCAK256 SLOAD DUP2 JUMP JUMPDEST CALLVALUE DUP1 ISZERO PUSH2 0x1EC JUMPI PUSH0 PUSH0 REVERT JUMPDEST POP PUSH2 0x1F5 PUSH2 0x584 JUMP JUMPDEST PUSH1 0x40 MLOAD PUSH2 0x17F SWAP2 SWAP1 PUSH2 0x1D66 JUMP JUMPDEST CALLVALUE DUP1 ISZERO PUSH2 0x20D JUMPI PUSH0 PUSH0 REVERT JUMPDEST POP PUSH2 0x216 PUSH2 0x596 JUMP JUMPDEST STOP JUMPDEST CALLVALUE DUP1 ISZERO PUSH2 0x223 JUMPI PUSH0 PUSH0 REVERT JUMPDEST POP PUSH2 0x19D PUSH1 0x5 SLOAD DUP2 JUMP JUMPDEST CALLVALUE DUP1 ISZERO PUSH2 0x238 JUMPI PUSH0 PUSH0 REVERT JUMPDEST POP PUSH1 0x1 SLOAD PUSH1 0x1 PUSH1 0x1 PUSH1 0xA0 SHL SUB AND JUMPDEST PUSH1 0x40 MLOAD PUSH1 0x1 PUSH1 0x1 PUSH1 0xA0 SHL SUB SWAP1 SWAP2 AND DUP2 MSTORE PUSH1 0x20 ADD PUSH2 0x17F JUMP JUMPDEST CALLVALUE DUP1 ISZERO PUSH2 0x269 JUMPI PUSH0 PUSH0 REVERT JUMPDEST POP PUSH2 0x216 PUSH2 0x278 CALLDATASIZE PUSH1 0x4 PUSH2 0x1C2D JUMP JUMPDEST PUSH2 0x619 JUMP JUMPDEST CALLVALUE DUP1 ISZERO PUSH2 0x288 JUMPI PUSH0 PUSH0 REVERT JUMPDEST POP PUSH2 0x216 PUSH2 0x297 CALLDATASIZE PUSH1 0x4 PUSH2 0x1DA8 JUMP JUMPDEST PUSH2 0x7C6 JUMP JUMPDEST CALLVALUE DUP1 ISZERO PUSH2 0x2A7 JUMPI PUSH0 PUSH0 REVERT JUMPDEST POP PUSH0 SLOAD PUSH2 0x246 SWAP1 PUSH1 0x1 PUSH1 0x1 PUSH1 0xA0 SHL SUB AND DUP2 JUMP JUMPDEST CALLVALUE DUP1 ISZERO PUSH2 0x2C5 JUMPI PUSH0 PUSH0 REVERT JUMPDEST POP PUSH2 0x1F5 PUSH2 0xA6A JUMP JUMPDEST CALLVALUE DUP1 ISZERO PUSH2 0x2D9 JUMPI PUSH0 PUSH0 REVERT JUMPDEST POP PUSH2 0x2FC PUSH2 0x2E8 CALLDATASIZE PUSH1 0x4 PUSH2 0x1DC8 JUMP JUMPDEST PUSH1 0xB PUSH1 0x20 MSTORE PUSH0 SWAP1 DUP2 MSTORE PUSH1 0x40 SWAP1 KECCAK256 SLOAD PUSH1 0xFF AND DUP2 JUMP JUMPDEST PUSH1 0x40 MLOAD SWAP1 ISZERO ISZERO DUP2 MSTORE PUSH1 0x20 ADD PUSH2 0x17F JUMP JUMPDEST CALLVALUE DUP1 ISZERO PUSH2 0x317 JUMPI PUSH0 PUSH0 REVERT JUMPDEST POP PUSH2 0x19D PUSH2 0x326 CALLDATASIZE PUSH1 0x4 PUSH2 0x1E80 JUMP JUMPDEST PUSH2 0xBA5 JUMP JUMPDEST CALLVALUE DUP1 ISZERO PUSH2 0x336 JUMPI PUSH0 PUSH0 REVERT JUMPDEST POP PUSH2 0x1F5 PUSH2 0xE38 JUMP JUMPDEST CALLVALUE DUP1 ISZERO PUSH2 0x34A JUMPI PUSH0 PUSH0 REVERT JUMPDEST POP PUSH1 0x4 SLOAD PUSH2 0x2FC SWAP1 PUSH1 0xFF AND DUP2 JUMP JUMPDEST PUSH2 0x216 PUSH2 0xE44 JUMP JUMPDEST CALLVALUE DUP1 ISZERO PUSH2 0x36B JUMPI PUSH0 PUSH0 REVERT JUMPDEST POP PUSH2 0x37F PUSH2 0x37A CALLDATASIZE PUSH1 0x4 PUSH2 0x1C2D JUMP JUMPDEST PUSH2 0xEE7 JUMP JUMPDEST PUSH1 0x40 MLOAD PUSH2 0x17F SWAP7 SWAP6 SWAP5 SWAP4 SWAP3 SWAP2 SWAP1 PUSH2 0x1EFE JUMP JUMPDEST CALLVALUE DUP1 ISZERO PUSH2 0x39C JUMPI PUSH0 PUSH0 REVERT JUMPDEST POP PUSH2 0x216 PUSH2 0x10A0 JUMP JUMPDEST CALLVALUE DUP1 ISZERO PUSH2 0x3B0 JUMPI PUSH0 PUSH0 REVERT JUMPDEST POP PUSH2 0x19D PUSH1 0x3 SLOAD DUP2 JUMP JUMPDEST PUSH2 0x216 PUSH2 0x12F5 JUMP JUMPDEST CALLVALUE DUP1 ISZERO PUSH2 0x3CD JUMPI PUSH0 PUSH0 REVERT JUMPDEST POP PUSH2 0x19D PUSH1 0x6 SLOAD DUP2 JUMP JUMPDEST CALLVALUE DUP1 ISZERO PUSH2 0x3E2 JUMPI PUSH0 PUSH0 REVERT JUMPDEST POP PUSH2 0x216 PUSH2 0x3F1 CALLDATASIZE PUSH1 0x4 PUSH2 0x1C2D JUMP JUMPDEST PUSH2 0x13BF JUMP JUMPDEST CALLVALUE DUP1 ISZERO PUSH2 0x401 JUMPI PUSH0 PUSH0 REVERT JUMPDEST POP PUSH1 0x1 SLOAD PUSH2 0x246 SWAP1 PUSH1 0x1 PUSH1 0x1 PUSH1 0xA0 SHL SUB AND DUP2 JUMP JUMPDEST PUSH2 0x216 PUSH2 0x14F8 JUMP JUMPDEST PUSH1 0x8 PUSH1 0x20 MSTORE PUSH0 SWAP1 DUP2 MSTORE PUSH1 0x40 SWAP1 KECCAK256 DUP1 SLOAD DUP2 SWAP1 PUSH2 0x437 SWAP1 PUSH2 0x1F5A JUMP JUMPDEST DUP1 PUSH1 0x1F ADD PUSH1 0x20 DUP1 SWAP2 DIV MUL PUSH1 0x20 ADD PUSH1 0x40 MLOAD SWAP1 DUP2 ADD PUSH1 0x40 MSTORE DUP1 SWAP3 SWAP2 SWAP1 DUP2 DUP2 MSTORE PUSH1 0x20 ADD DUP3 DUP1 SLOAD PUSH2 0x463 SWAP1 PUSH2 0x1F5A JUMP JUMPDEST DUP1 ISZERO PUSH2 0x4AE JUMPI DUP1 PUSH1 0x1F LT PUSH2 0x485 JUMPI PUSH2 0x100 DUP1 DUP4 SLOAD DIV MUL DUP4 MSTORE SWAP2 PUSH1 0x20 ADD SWAP2 PUSH2 0x4AE JUMP JUMPDEST DUP3 ADD SWAP2 SWAP1 PUSH0 MSTORE PUSH1 0x20 PUSH0 KECCAK256 SWAP1 JUMPDEST DUP2 SLOAD DUP2 MSTORE SWAP1 PUSH1 0x1 ADD SWAP1 PUSH1 0x20 ADD DUP1 DUP4 GT PUSH2 0x491 JUMPI DUP3 SWAP1 SUB PUSH1 0x1F AND DUP3 ADD SWAP2 JUMPDEST POP POP POP POP POP SWAP1 DUP1 PUSH1 0x1 ADD DUP1 SLOAD PUSH2 0x4C3 SWAP1 PUSH2 0x1F5A JUMP JUMPDEST DUP1 PUSH1 0x1F ADD PUSH1 0x20 DUP1 SWAP2 DIV MUL PUSH1 0x20 ADD PUSH1 0x40 MLOAD SWAP1 DUP2 ADD PUSH1 0x40 MSTORE DUP1 SWAP3 SWAP2 SWAP1 DUP2 DUP2 MSTORE PUSH1 0x20 ADD DUP3 DUP1 SLOAD PUSH2 0x4EF SWAP1 PUSH2 0x1F5A JUMP JUMPDEST DUP1 ISZERO PUSH2 0x53A JUMPI DUP1 PUSH1 0x1F LT PUSH2 0x511 JUMPI PUSH2 0x100 DUP1 DUP4 SLOAD DIV MUL DUP4 MSTORE SWAP2 PUSH1 0x20 ADD SWAP2 PUSH2 0x53A JUMP JUMPDEST DUP3 ADD SWAP2 SWAP1 PUSH0 MSTORE PUSH1 0x20 PUSH0 KECCAK256 SWAP1 JUMPDEST DUP2 SLOAD DUP2 MSTORE SWAP1 PUSH1 0x1 ADD SWAP1 PUSH1 0x20 ADD DUP1 DUP4 GT PUSH2 0x51D JUMPI DUP3 SWAP1 SUB PUSH1 0x1F AND DUP3 ADD SWAP2 JUMPDEST POP POP POP PUSH1 0x2 DUP5 ADD SLOAD PUSH1 0x3 DUP6 ADD SLOAD PUSH1 0x4 DUP7 ADD SLOAD PUSH1 0x5 DUP8 ADD SLOAD PUSH1 0x6 SWAP1 SWAP8 ADD SLOAD SWAP6 SWAP7 SWAP3 SWAP6 PUSH1 0x1 PUSH1 0x1 PUSH1 0xA0 SHL SUB DUP1 DUP5 AND SWAP7 POP PUSH1 0xFF PUSH1 0x1 PUSH1 0xA0 SHL SWAP5 DUP6 SWAP1 DIV DUP2 AND SWAP7 POP SWAP3 SWAP5 SWAP4 SWAP1 DUP3 AND SWAP3 SWAP2 DIV AND DUP10 JUMP JUMPDEST PUSH1 0x60 PUSH2 0x591 PUSH1 0x1 PUSH0 PUSH2 0x1625 JUMP JUMPDEST SWAP1 POP SWAP1 JUMP JUMPDEST CALLER PUSH0 SWAP1 DUP2 MSTORE PUSH1 0xB PUSH1 0x20 MSTORE PUSH1 0x40 SWAP1 KECCAK256 SLOAD PUSH1 0xFF AND PUSH2 0x5EE JUMPI PUSH1 0x40 MLOAD PUSH3 0x461BCD PUSH1 0xE5 SHL DUP2 MSTORE PUSH1 0x20 PUSH1 0x4 DUP3 ADD MSTORE PUSH1 0x12 PUSH1 0x24 DUP3 ADD MSTORE PUSH18 0x4E6F206573207061727469636970616E7465 PUSH1 0x70 SHL PUSH1 0x44 DUP3 ADD MSTORE PUSH1 0x64 ADD JUMPDEST PUSH1 0x40 MLOAD DUP1 SWAP2 SUB SWAP1 REVERT JUMPDEST CALLER PUSH0 SWAP1 DUP2 MSTORE PUSH1 0xB PUSH1 0x20 MSTORE PUSH1 0x40 DUP2 KECCAK256 DUP1 SLOAD PUSH1 0xFF NOT AND SWAP1 SSTORE PUSH1 0x5 DUP1 SLOAD SWAP2 PUSH2 0x612 DUP4 PUSH2 0x1FA6 JUMP JUMPDEST SWAP2 SWAP1 POP SSTORE POP JUMP JUMPDEST PUSH1 0x1 SLOAD PUSH1 0x40 MLOAD PUSH4 0x70A08231 PUSH1 0xE0 SHL DUP2 MSTORE CALLER PUSH1 0x4 DUP3 ADD MSTORE DUP3 SWAP2 PUSH1 0x1 PUSH1 0x1 PUSH1 0xA0 SHL SUB AND SWAP1 PUSH4 0x70A08231 SWAP1 PUSH1 0x24 ADD PUSH1 0x20 PUSH1 0x40 MLOAD DUP1 DUP4 SUB DUP2 DUP7 GAS STATICCALL ISZERO DUP1 ISZERO PUSH2 0x65F JUMPI RETURNDATASIZE PUSH0 PUSH0 RETURNDATACOPY RETURNDATASIZE PUSH0 REVERT JUMPDEST POP POP POP POP PUSH1 0x40 MLOAD RETURNDATASIZE PUSH1 0x1F NOT PUSH1 0x1F DUP3 ADD AND DUP3 ADD DUP1 PUSH1 0x40 MSTORE POP DUP2 ADD SWAP1 PUSH2 0x683 SWAP2 SWAP1 PUSH2 0x1FBB JUMP JUMPDEST LT ISZERO PUSH2 0x6C8 JUMPI PUSH1 0x40 MLOAD PUSH3 0x461BCD PUSH1 0xE5 SHL DUP2 MSTORE PUSH1 0x20 PUSH1 0x4 DUP3 ADD MSTORE PUSH1 0x14 PUSH1 0x24 DUP3 ADD MSTORE PUSH20 0x466F6E646F7320696E737566696369656E746573 PUSH1 0x60 SHL PUSH1 0x44 DUP3 ADD MSTORE PUSH1 0x64 ADD PUSH2 0x5E5 JUMP JUMPDEST PUSH0 PUSH1 0x2 SLOAD DUP3 PUSH2 0x6D7 SWAP2 SWAP1 PUSH2 0x1FD2 JUMP JUMPDEST PUSH1 0x1 SLOAD PUSH1 0x40 MLOAD PUSH4 0x2770A7EB PUSH1 0xE2 SHL DUP2 MSTORE CALLER PUSH1 0x4 DUP3 ADD MSTORE PUSH1 0x24 DUP2 ADD DUP6 SWAP1 MSTORE SWAP2 SWAP3 POP PUSH1 0x1 PUSH1 0x1 PUSH1 0xA0 SHL SUB AND SWAP1 PUSH4 0x9DC29FAC SWAP1 PUSH1 0x44 ADD PUSH0 PUSH1 0x40 MLOAD DUP1 DUP4 SUB DUP2 PUSH0 DUP8 DUP1 EXTCODESIZE ISZERO DUP1 ISZERO PUSH2 0x721 JUMPI PUSH0 PUSH0 REVERT JUMPDEST POP GAS CALL ISZERO DUP1 ISZERO PUSH2 0x733 JUMPI RETURNDATASIZE PUSH0 PUSH0 RETURNDATACOPY RETURNDATASIZE PUSH0 REVERT JUMPDEST POP POP PUSH1 0x40 MLOAD PUSH0 SWAP3 POP CALLER SWAP2 POP DUP4 SWAP1 DUP4 DUP2 DUP2 DUP2 DUP6 DUP8 GAS CALL SWAP3 POP POP POP RETURNDATASIZE DUP1 PUSH0 DUP2 EQ PUSH2 0x776 JUMPI PUSH1 0x40 MLOAD SWAP2 POP PUSH1 0x1F NOT PUSH1 0x3F RETURNDATASIZE ADD AND DUP3 ADD PUSH1 0x40 MSTORE RETURNDATASIZE DUP3 MSTORE RETURNDATASIZE PUSH0 PUSH1 0x20 DUP5 ADD RETURNDATACOPY PUSH2 0x77B JUMP JUMPDEST PUSH1 0x60 SWAP2 POP JUMPDEST POP POP SWAP1 POP DUP1 PUSH2 0x7C1 JUMPI PUSH1 0x40 MLOAD PUSH3 0x461BCD PUSH1 0xE5 SHL DUP2 MSTORE PUSH1 0x20 PUSH1 0x4 DUP3 ADD MSTORE PUSH1 0x12 PUSH1 0x24 DUP3 ADD MSTORE PUSH18 0x4572726F7220656E207265656D626F6C736F PUSH1 0x70 SHL PUSH1 0x44 DUP3 ADD MSTORE PUSH1 0x64 ADD PUSH2 0x5E5 JUMP JUMPDEST POP POP POP JUMP JUMPDEST PUSH1 0x4 SLOAD PUSH1 0xFF AND DUP1 ISZERO PUSH2 0x7E6 JUMPI POP CALLER PUSH0 SWAP1 DUP2 MSTORE PUSH1 0xB PUSH1 0x20 MSTORE PUSH1 0x40 SWAP1 KECCAK256 SLOAD PUSH1 0xFF AND JUMPDEST PUSH2 0x823 JUMPI PUSH1 0x40 MLOAD PUSH3 0x461BCD PUSH1 0xE5 SHL DUP2 MSTORE PUSH1 0x20 PUSH1 0x4 DUP3 ADD MSTORE PUSH1 0xE PUSH1 0x24 DUP3 ADD MSTORE PUSH14 0x273790383AB2B232903B37BA30B9 PUSH1 0x91 SHL PUSH1 0x44 DUP3 ADD MSTORE PUSH1 0x64 ADD PUSH2 0x5E5 JUMP JUMPDEST PUSH0 DUP3 DUP2 MSTORE PUSH1 0x8 PUSH1 0x20 MSTORE PUSH1 0x40 DUP2 KECCAK256 SWAP1 PUSH1 0x3 DUP3 ADD SLOAD PUSH1 0x1 PUSH1 0xA0 SHL SWAP1 DIV PUSH1 0xFF AND PUSH1 0x2 DUP2 GT ISZERO PUSH2 0x851 JUMPI PUSH2 0x851 PUSH2 0x1C72 JUMP JUMPDEST EQ PUSH2 0x88A JUMPI PUSH1 0x40 MLOAD PUSH3 0x461BCD PUSH1 0xE5 SHL DUP2 MSTORE PUSH1 0x20 PUSH1 0x4 DUP3 ADD MSTORE PUSH1 0x9 PUSH1 0x24 DUP3 ADD MSTORE PUSH9 0x4E6F20616374697661 PUSH1 0xB8 SHL PUSH1 0x44 DUP3 ADD MSTORE PUSH1 0x64 ADD PUSH2 0x5E5 JUMP JUMPDEST PUSH0 DUP4 DUP2 MSTORE PUSH1 0x9 PUSH1 0x20 SWAP1 DUP2 MSTORE PUSH1 0x40 DUP1 DUP4 KECCAK256 CALLER DUP5 MSTORE SWAP1 SWAP2 MSTORE DUP2 KECCAK256 SLOAD SWAP1 PUSH2 0x8AE DUP5 DUP4 PUSH2 0x1FE9 JUMP JUMPDEST SWAP1 POP PUSH0 PUSH2 0x8BC PUSH1 0x2 DUP5 PUSH2 0x20DF JUMP JUMPDEST PUSH2 0x8C7 PUSH1 0x2 DUP5 PUSH2 0x20DF JUMP JUMPDEST PUSH2 0x8D1 SWAP2 SWAP1 PUSH2 0x20ED JUMP JUMPDEST PUSH1 0x1 SLOAD PUSH1 0x40 MLOAD PUSH4 0x23B872DD PUSH1 0xE0 SHL DUP2 MSTORE CALLER PUSH1 0x4 DUP3 ADD MSTORE ADDRESS PUSH1 0x24 DUP3 ADD MSTORE PUSH1 0x44 DUP2 ADD DUP4 SWAP1 MSTORE SWAP2 SWAP3 POP PUSH1 0x1 PUSH1 0x1 PUSH1 0xA0 SHL SUB AND SWAP1 PUSH4 0x23B872DD SWAP1 PUSH1 0x64 ADD PUSH1 0x20 PUSH1 0x40 MLOAD DUP1 DUP4 SUB DUP2 PUSH0 DUP8 GAS CALL ISZERO DUP1 ISZERO PUSH2 0x926 JUMPI RETURNDATASIZE PUSH0 PUSH0 RETURNDATACOPY RETURNDATASIZE PUSH0 REVERT JUMPDEST POP POP POP POP PUSH1 0x40 MLOAD RETURNDATASIZE PUSH1 0x1F NOT PUSH1 0x1F DUP3 ADD AND DUP3 ADD DUP1 PUSH1 0x40 MSTORE POP DUP2 ADD SWAP1 PUSH2 0x94A SWAP2 SWAP1 PUSH2 0x2100 JUMP JUMPDEST PUSH2 0x986 JUMPI PUSH1 0x40 MLOAD PUSH3 0x461BCD PUSH1 0xE5 SHL DUP2 MSTORE PUSH1 0x20 PUSH1 0x4 DUP3 ADD MSTORE PUSH1 0xD PUSH1 0x24 DUP3 ADD MSTORE PUSH13 0x46616C746120617070726F7665 PUSH1 0x98 SHL PUSH1 0x44 DUP3 ADD MSTORE PUSH1 0x64 ADD PUSH2 0x5E5 JUMP JUMPDEST DUP3 PUSH0 SUB PUSH2 0x9BB JUMPI PUSH0 DUP7 DUP2 MSTORE PUSH1 0xA PUSH1 0x20 SWAP1 DUP2 MSTORE PUSH1 0x40 DUP3 KECCAK256 DUP1 SLOAD PUSH1 0x1 DUP2 ADD DUP3 SSTORE SWAP1 DUP4 MSTORE SWAP2 KECCAK256 ADD DUP1 SLOAD PUSH1 0x1 PUSH1 0x1 PUSH1 0xA0 SHL SUB NOT AND CALLER OR SWAP1 SSTORE JUMPDEST PUSH0 DUP7 DUP2 MSTORE PUSH1 0x9 PUSH1 0x20 SWAP1 DUP2 MSTORE PUSH1 0x40 DUP1 DUP4 KECCAK256 CALLER DUP5 MSTORE SWAP1 SWAP2 MSTORE DUP2 KECCAK256 DUP4 SWAP1 SSTORE PUSH1 0x4 DUP6 ADD DUP1 SLOAD DUP8 SWAP3 SWAP1 PUSH2 0x9EA SWAP1 DUP5 SWAP1 PUSH2 0x1FE9 JUMP JUMPDEST SWAP3 POP POP DUP2 SWAP1 SSTORE POP DUP1 DUP5 PUSH1 0x5 ADD PUSH0 DUP3 DUP3 SLOAD PUSH2 0xA04 SWAP2 SWAP1 PUSH2 0x1FE9 JUMP JUMPDEST SWAP1 SWAP2 SSTORE POP POP PUSH1 0x40 DUP1 MLOAD DUP7 DUP2 MSTORE PUSH1 0x20 DUP2 ADD DUP4 SWAP1 MSTORE CALLER SWAP2 DUP9 SWAP2 PUSH32 0x271F53EEBBE20450D9578F28EC279231556C34545B30E2278D754FFD39CD63C SWAP2 ADD PUSH1 0x40 MLOAD DUP1 SWAP2 SUB SWAP1 LOG3 PUSH1 0x6 DUP5 ADD SLOAD PUSH1 0x1 PUSH1 0xA0 SHL SWAP1 DIV PUSH1 0xFF AND PUSH2 0xA62 JUMPI PUSH2 0xA62 DUP7 PUSH2 0x17BA JUMP JUMPDEST POP POP POP POP POP POP JUMP JUMPDEST PUSH1 0x4 SLOAD PUSH1 0x60 SWAP1 PUSH1 0xFF AND PUSH2 0xAB2 JUMPI PUSH1 0x40 MLOAD PUSH3 0x461BCD PUSH1 0xE5 SHL DUP2 MSTORE PUSH1 0x20 PUSH1 0x4 DUP3 ADD MSTORE PUSH1 0x10 PUSH1 0x24 DUP3 ADD MSTORE PUSH16 0x566F746163696F6E2063657272616461 PUSH1 0x80 SHL PUSH1 0x44 DUP3 ADD MSTORE PUSH1 0x64 ADD PUSH2 0x5E5 JUMP JUMPDEST PUSH0 DUP1 JUMPDEST PUSH1 0x7 SLOAD DUP2 LT ISZERO PUSH2 0xAF5 JUMPI PUSH0 DUP2 DUP2 MSTORE PUSH1 0x8 PUSH1 0x20 MSTORE PUSH1 0x40 SWAP1 KECCAK256 PUSH1 0x6 ADD SLOAD PUSH1 0x1 PUSH1 0xA0 SHL SWAP1 DIV PUSH1 0xFF AND ISZERO PUSH2 0xAED JUMPI DUP2 PUSH2 0xAE9 DUP2 PUSH2 0x211F JUMP JUMPDEST SWAP3 POP POP JUMPDEST PUSH1 0x1 ADD PUSH2 0xAB5 JUMP JUMPDEST POP PUSH0 DUP2 PUSH8 0xFFFFFFFFFFFFFFFF DUP2 GT ISZERO PUSH2 0xB10 JUMPI PUSH2 0xB10 PUSH2 0x1DE1 JUMP JUMPDEST PUSH1 0x40 MLOAD SWAP1 DUP1 DUP3 MSTORE DUP1 PUSH1 0x20 MUL PUSH1 0x20 ADD DUP3 ADD PUSH1 0x40 MSTORE DUP1 ISZERO PUSH2 0xB39 JUMPI DUP2 PUSH1 0x20 ADD PUSH1 0x20 DUP3 MUL DUP1 CALLDATASIZE DUP4 CALLDATACOPY ADD SWAP1 POP JUMPDEST POP SWAP1 POP PUSH0 DUP1 JUMPDEST PUSH1 0x7 SLOAD DUP2 LT ISZERO PUSH2 0xB9C JUMPI PUSH0 DUP2 DUP2 MSTORE PUSH1 0x8 PUSH1 0x20 MSTORE PUSH1 0x40 SWAP1 KECCAK256 PUSH1 0x6 ADD SLOAD PUSH1 0x1 PUSH1 0xA0 SHL SWAP1 DIV PUSH1 0xFF AND ISZERO PUSH2 0xB94 JUMPI DUP1 DUP4 DUP4 PUSH2 0xB75 DUP2 PUSH2 0x211F JUMP JUMPDEST SWAP5 POP DUP2 MLOAD DUP2 LT PUSH2 0xB87 JUMPI PUSH2 0xB87 PUSH2 0x2137 JUMP JUMPDEST PUSH1 0x20 MUL PUSH1 0x20 ADD ADD DUP2 DUP2 MSTORE POP POP JUMPDEST PUSH1 0x1 ADD PUSH2 0xB3F JUMP JUMPDEST POP SWAP1 SWAP4 SWAP3 POP POP POP JUMP JUMPDEST PUSH1 0x4 SLOAD PUSH0 SWAP1 PUSH1 0xFF AND PUSH2 0xBE3 JUMPI PUSH1 0x40 MLOAD PUSH3 0x461BCD PUSH1 0xE5 SHL DUP2 MSTORE PUSH1 0x20 PUSH1 0x4 DUP3 ADD MSTORE PUSH1 0x7 PUSH1 0x24 DUP3 ADD MSTORE PUSH7 0x43657272616461 PUSH1 0xC8 SHL PUSH1 0x44 DUP3 ADD MSTORE PUSH1 0x64 ADD PUSH2 0x5E5 JUMP JUMPDEST CALLER PUSH0 SWAP1 DUP2 MSTORE PUSH1 0xB PUSH1 0x20 MSTORE PUSH1 0x40 SWAP1 KECCAK256 SLOAD PUSH1 0xFF AND PUSH2 0xC36 JUMPI PUSH1 0x40 MLOAD PUSH3 0x461BCD PUSH1 0xE5 SHL DUP2 MSTORE PUSH1 0x20 PUSH1 0x4 DUP3 ADD MSTORE PUSH1 0x12 PUSH1 0x24 DUP3 ADD MSTORE PUSH18 0x536F6C6F207061727469636970616E746573 PUSH1 0x70 SHL PUSH1 0x44 DUP3 ADD MSTORE PUSH1 0x64 ADD PUSH2 0x5E5 JUMP JUMPDEST PUSH2 0xC50 PUSH1 0x1 PUSH1 0x1 PUSH1 0xA0 SHL SUB DUP4 AND PUSH4 0x986CC311 PUSH1 0xE0 SHL PUSH2 0x1A47 JUMP JUMPDEST PUSH2 0xC8D JUMPI PUSH1 0x40 MLOAD PUSH3 0x461BCD PUSH1 0xE5 SHL DUP2 MSTORE PUSH1 0x20 PUSH1 0x4 DUP3 ADD MSTORE PUSH1 0xE PUSH1 0x24 DUP3 ADD MSTORE PUSH14 0x4552433136352066616C6C69646F PUSH1 0x90 SHL PUSH1 0x44 DUP3 ADD MSTORE PUSH1 0x64 ADD PUSH2 0x5E5 JUMP JUMPDEST PUSH1 0x7 DUP1 SLOAD PUSH0 SWAP2 DUP3 PUSH2 0xC9D DUP4 PUSH2 0x211F JUMP JUMPDEST SWAP1 SWAP2 SSTORE POP PUSH1 0x40 DUP1 MLOAD PUSH2 0x120 DUP2 ADD DUP3 MSTORE DUP9 DUP2 MSTORE PUSH1 0x20 DUP2 ADD DUP9 SWAP1 MSTORE SWAP1 DUP2 ADD DUP7 SWAP1 MSTORE PUSH1 0x1 PUSH1 0x1 PUSH1 0xA0 SHL SUB DUP6 AND PUSH1 0x60 DUP3 ADD MSTORE SWAP1 SWAP2 POP DUP5 ISZERO SWAP1 PUSH1 0x80 DUP2 ADD PUSH0 DUP2 MSTORE PUSH0 PUSH1 0x20 DUP1 DUP4 ADD DUP3 SWAP1 MSTORE PUSH1 0x40 DUP1 DUP5 ADD DUP4 SWAP1 MSTORE CALLER PUSH1 0x60 DUP6 ADD MSTORE DUP6 ISZERO ISZERO PUSH1 0x80 SWAP1 SWAP5 ADD SWAP4 SWAP1 SWAP4 MSTORE DUP6 DUP3 MSTORE PUSH1 0x8 SWAP1 MSTORE KECCAK256 DUP2 MLOAD DUP2 SWAP1 PUSH2 0xD11 SWAP1 DUP3 PUSH2 0x2196 JUMP JUMPDEST POP PUSH1 0x20 DUP3 ADD MLOAD PUSH1 0x1 DUP3 ADD SWAP1 PUSH2 0xD26 SWAP1 DUP3 PUSH2 0x2196 JUMP JUMPDEST POP PUSH1 0x40 DUP3 ADD MLOAD PUSH1 0x2 DUP1 DUP4 ADD SWAP2 SWAP1 SWAP2 SSTORE PUSH1 0x60 DUP4 ADD MLOAD PUSH1 0x3 DUP4 ADD DUP1 SLOAD PUSH1 0x1 PUSH1 0x1 PUSH1 0xA0 SHL SUB SWAP1 SWAP3 AND PUSH1 0x1 PUSH1 0x1 PUSH1 0xA0 SHL SUB NOT DUP4 AND DUP2 OR DUP3 SSTORE PUSH1 0x80 DUP7 ADD MLOAD SWAP4 SWAP2 SWAP3 PUSH1 0x1 PUSH1 0x1 PUSH1 0xA8 SHL SUB NOT AND OR SWAP1 PUSH1 0x1 PUSH1 0xA0 SHL SWAP1 DUP5 SWAP1 DUP2 GT ISZERO PUSH2 0xD85 JUMPI PUSH2 0xD85 PUSH2 0x1C72 JUMP JUMPDEST MUL OR SWAP1 SSTORE POP PUSH1 0xA0 DUP3 ADD MLOAD PUSH1 0x4 DUP3 ADD SSTORE PUSH1 0xC0 DUP3 ADD MLOAD PUSH1 0x5 DUP3 ADD SSTORE PUSH1 0xE0 DUP3 ADD MLOAD PUSH1 0x6 SWAP1 SWAP2 ADD DUP1 SLOAD PUSH2 0x100 SWAP1 SWAP4 ADD MLOAD ISZERO ISZERO PUSH1 0x1 PUSH1 0xA0 SHL MUL PUSH1 0x1 PUSH1 0x1 PUSH1 0xA8 SHL SUB NOT SWAP1 SWAP4 AND PUSH1 0x1 PUSH1 0x1 PUSH1 0xA0 SHL SUB SWAP1 SWAP3 AND SWAP2 SWAP1 SWAP2 OR SWAP2 SWAP1 SWAP2 OR SWAP1 SSTORE DUP1 PUSH2 0xDF4 JUMPI PUSH1 0x6 DUP1 SLOAD SWAP1 PUSH0 PUSH2 0xDEE DUP4 PUSH2 0x211F JUMP JUMPDEST SWAP2 SWAP1 POP SSTORE POP JUMPDEST DUP2 PUSH32 0xF5DC0DA9AFA6D080780A49FD8C680F03D2DDF3C067CD6D0C85360C096644D2D3 DUP9 DUP8 PUSH1 0x40 MLOAD PUSH2 0xE26 SWAP3 SWAP2 SWAP1 PUSH2 0x2251 JUMP JUMPDEST PUSH1 0x40 MLOAD DUP1 SWAP2 SUB SWAP1 LOG2 POP SWAP6 SWAP5 POP POP POP POP POP JUMP JUMPDEST PUSH1 0x60 PUSH2 0x591 PUSH0 PUSH0 PUSH2 0x1625 JUMP JUMPDEST PUSH0 SLOAD PUSH1 0x1 PUSH1 0x1 PUSH1 0xA0 SHL SUB AND CALLER EQ PUSH2 0xE8C JUMPI PUSH1 0x40 MLOAD PUSH3 0x461BCD PUSH1 0xE5 SHL DUP2 MSTORE PUSH1 0x20 PUSH1 0x4 DUP3 ADD MSTORE PUSH1 0xC PUSH1 0x24 DUP3 ADD MSTORE PUSH12 0x29B7B6379031B932B0B237B9 PUSH1 0xA1 SHL PUSH1 0x44 DUP3 ADD MSTORE PUSH1 0x64 ADD PUSH2 0x5E5 JUMP JUMPDEST PUSH1 0x4 DUP1 SLOAD PUSH1 0xFF NOT AND PUSH1 0x1 OR SWAP1 SSTORE PUSH1 0x3 DUP1 SLOAD CALLVALUE SWAP2 SWAP1 PUSH0 SWAP1 PUSH2 0xEAD SWAP1 DUP5 SWAP1 PUSH2 0x1FE9 JUMP JUMPDEST SWAP1 SWAP2 SSTORE POP POP PUSH1 0x40 MLOAD CALLVALUE DUP2 MSTORE PUSH32 0xE0A358D4A766346F1ECE85D22E2197435D610D9638874A0FD6746E58A1B1F58A SWAP1 PUSH1 0x20 ADD PUSH1 0x40 MLOAD DUP1 SWAP2 SUB SWAP1 LOG1 JUMP JUMPDEST PUSH1 0x4 SLOAD PUSH1 0x60 SWAP1 DUP2 SWAP1 PUSH0 SWAP1 DUP2 SWAP1 DUP2 SWAP1 DUP2 SWAP1 PUSH1 0xFF AND PUSH2 0xF39 JUMPI PUSH1 0x40 MLOAD PUSH3 0x461BCD PUSH1 0xE5 SHL DUP2 MSTORE PUSH1 0x20 PUSH1 0x4 DUP3 ADD MSTORE PUSH1 0x10 PUSH1 0x24 DUP3 ADD MSTORE PUSH16 0x566F746163696F6E2063657272616461 PUSH1 0x80 SHL PUSH1 0x44 DUP3 ADD MSTORE PUSH1 0x64 ADD PUSH2 0x5E5 JUMP JUMPDEST PUSH0 DUP8 DUP2 MSTORE PUSH1 0x8 PUSH1 0x20 MSTORE PUSH1 0x40 SWAP1 KECCAK256 PUSH1 0x2 DUP2 ADD SLOAD PUSH1 0x3 DUP3 ADD SLOAD PUSH1 0x4 DUP4 ADD SLOAD DUP4 SLOAD DUP5 SWAP4 PUSH1 0x1 DUP6 ADD SWAP4 SWAP1 SWAP3 PUSH1 0x1 PUSH1 0x1 PUSH1 0xA0 SHL SUB DUP3 AND SWAP3 PUSH1 0x1 PUSH1 0xA0 SHL SWAP1 SWAP3 DIV PUSH1 0xFF AND SWAP2 DUP7 SWAP1 PUSH2 0xF82 SWAP1 PUSH2 0x1F5A JUMP JUMPDEST DUP1 PUSH1 0x1F ADD PUSH1 0x20 DUP1 SWAP2 DIV MUL PUSH1 0x20 ADD PUSH1 0x40 MLOAD SWAP1 DUP2 ADD PUSH1 0x40 MSTORE DUP1 SWAP3 SWAP2 SWAP1 DUP2 DUP2 MSTORE PUSH1 0x20 ADD DUP3 DUP1 SLOAD PUSH2 0xFAE SWAP1 PUSH2 0x1F5A JUMP JUMPDEST DUP1 ISZERO PUSH2 0xFF9 JUMPI DUP1 PUSH1 0x1F LT PUSH2 0xFD0 JUMPI PUSH2 0x100 DUP1 DUP4 SLOAD DIV MUL DUP4 MSTORE SWAP2 PUSH1 0x20 ADD SWAP2 PUSH2 0xFF9 JUMP JUMPDEST DUP3 ADD SWAP2 SWAP1 PUSH0 MSTORE PUSH1 0x20 PUSH0 KECCAK256 SWAP1 JUMPDEST DUP2 SLOAD DUP2 MSTORE SWAP1 PUSH1 0x1 ADD SWAP1 PUSH1 0x20 ADD DUP1 DUP4 GT PUSH2 0xFDC JUMPI DUP3 SWAP1 SUB PUSH1 0x1F AND DUP3 ADD SWAP2 JUMPDEST POP POP POP POP POP SWAP6 POP DUP5 DUP1 SLOAD PUSH2 0x100C SWAP1 PUSH2 0x1F5A JUMP JUMPDEST DUP1 PUSH1 0x1F ADD PUSH1 0x20 DUP1 SWAP2 DIV MUL PUSH1 0x20 ADD PUSH1 0x40 MLOAD SWAP1 DUP2 ADD PUSH1 0x40 MSTORE DUP1 SWAP3 SWAP2 SWAP1 DUP2 DUP2 MSTORE PUSH1 0x20 ADD DUP3 DUP1 SLOAD PUSH2 0x1038 SWAP1 PUSH2 0x1F5A JUMP JUMPDEST DUP1 ISZERO PUSH2 0x1083 JUMPI DUP1 PUSH1 0x1F LT PUSH2 0x105A JUMPI PUSH2 0x100 DUP1 DUP4 SLOAD DIV MUL DUP4 MSTORE SWAP2 PUSH1 0x20 ADD SWAP2 PUSH2 0x1083 JUMP JUMPDEST DUP3 ADD SWAP2 SWAP1 PUSH0 MSTORE PUSH1 0x20 PUSH0 KECCAK256 SWAP1 JUMPDEST DUP2 SLOAD DUP2 MSTORE SWAP1 PUSH1 0x1 ADD SWAP1 PUSH1 0x20 ADD DUP1 DUP4 GT PUSH2 0x1066 JUMPI DUP3 SWAP1 SUB PUSH1 0x1F AND DUP3 ADD SWAP2 JUMPDEST POP POP POP POP POP SWAP5 POP SWAP7 POP SWAP7 POP SWAP7 POP SWAP7 POP SWAP7 POP SWAP7 POP POP SWAP2 SWAP4 SWAP6 POP SWAP2 SWAP4 SWAP6 JUMP JUMPDEST PUSH0 SLOAD PUSH1 0x1 PUSH1 0x1 PUSH1 0xA0 SHL SUB AND CALLER EQ DUP1 ISZERO PUSH2 0x10BB JUMPI POP PUSH1 0x4 SLOAD PUSH1 0xFF AND JUMPDEST PUSH2 0x10F4 JUMPI PUSH1 0x40 MLOAD PUSH3 0x461BCD PUSH1 0xE5 SHL DUP2 MSTORE PUSH1 0x20 PUSH1 0x4 DUP3 ADD MSTORE PUSH1 0xA PUSH1 0x24 DUP3 ADD MSTORE PUSH10 0x29B7B6379037BBB732B9 PUSH1 0xB1 SHL PUSH1 0x44 DUP3 ADD MSTORE PUSH1 0x64 ADD PUSH2 0x5E5 JUMP JUMPDEST PUSH1 0x4 DUP1 SLOAD PUSH1 0xFF NOT AND SWAP1 SSTORE PUSH0 JUMPDEST PUSH1 0x7 SLOAD DUP2 LT ISZERO PUSH2 0x124D JUMPI PUSH0 DUP2 DUP2 MSTORE PUSH1 0x8 PUSH1 0x20 MSTORE PUSH1 0x40 SWAP1 KECCAK256 PUSH1 0x6 DUP2 ADD SLOAD PUSH1 0x1 PUSH1 0xA0 SHL SWAP1 DIV PUSH1 0xFF AND ISZERO PUSH2 0x11EC JUMPI PUSH1 0x3 DUP2 ADD SLOAD PUSH1 0x4 DUP3 ADD SLOAD PUSH1 0x5 DUP4 ADD SLOAD PUSH1 0x40 MLOAD PUSH1 0x24 DUP2 ADD DUP7 SWAP1 MSTORE PUSH1 0x44 DUP2 ADD SWAP3 SWAP1 SWAP3 MSTORE PUSH1 0x64 DUP3 ADD MSTORE PUSH0 SWAP2 PUSH1 0x1 PUSH1 0x1 PUSH1 0xA0 SHL SUB AND SWAP1 PUSH3 0x186A0 SWAP1 PUSH1 0x84 ADD PUSH1 0x40 DUP1 MLOAD PUSH1 0x1F NOT DUP2 DUP5 SUB ADD DUP2 MSTORE SWAP2 DUP2 MSTORE PUSH1 0x20 DUP3 ADD DUP1 MLOAD PUSH1 0x1 PUSH1 0x1 PUSH1 0xE0 SHL SUB AND PUSH4 0x986CC311 PUSH1 0xE0 SHL OR SWAP1 MSTORE MLOAD PUSH2 0x119A SWAP2 SWAP1 PUSH2 0x2272 JUMP JUMPDEST PUSH0 PUSH1 0x40 MLOAD DUP1 DUP4 SUB DUP2 PUSH0 DUP8 DUP8 CALL SWAP3 POP POP POP RETURNDATASIZE DUP1 PUSH0 DUP2 EQ PUSH2 0x11D4 JUMPI PUSH1 0x40 MLOAD SWAP2 POP PUSH1 0x1F NOT PUSH1 0x3F RETURNDATASIZE ADD AND DUP3 ADD PUSH1 0x40 MSTORE RETURNDATASIZE DUP3 MSTORE RETURNDATASIZE PUSH0 PUSH1 0x20 DUP5 ADD RETURNDATACOPY PUSH2 0x11D9 JUMP JUMPDEST PUSH1 0x60 SWAP2 POP JUMPDEST POP POP SWAP1 POP PUSH2 0x11E6 DUP4 PUSH2 0x1A69 JUMP JUMPDEST POP PUSH2 0x1244 JUMP JUMPDEST PUSH0 PUSH1 0x3 DUP3 ADD SLOAD PUSH1 0x1 PUSH1 0xA0 SHL SWAP1 DIV PUSH1 0xFF AND PUSH1 0x2 DUP2 GT ISZERO PUSH2 0x120D JUMPI PUSH2 0x120D PUSH2 0x1C72 JUMP JUMPDEST SUB PUSH2 0x1244 JUMPI PUSH1 0x3 DUP2 ADD DUP1 SLOAD PUSH1 0xFF PUSH1 0xA0 SHL NOT AND PUSH1 0x1 PUSH1 0xA1 SHL OR SWAP1 SSTORE PUSH1 0x6 DUP1 SLOAD SWAP1 PUSH0 PUSH2 0x1236 DUP4 PUSH2 0x1FA6 JUMP JUMPDEST SWAP2 SWAP1 POP SSTORE POP PUSH2 0x1244 DUP3 PUSH2 0x1A69 JUMP JUMPDEST POP PUSH1 0x1 ADD PUSH2 0x1100 JUMP JUMPDEST POP PUSH1 0x3 DUP1 SLOAD PUSH0 SWAP1 SWAP2 SSTORE DUP1 ISZERO PUSH2 0x12F2 JUMPI PUSH0 DUP1 SLOAD PUSH1 0x40 MLOAD PUSH1 0x1 PUSH1 0x1 PUSH1 0xA0 SHL SUB SWAP1 SWAP2 AND SWAP1 DUP4 SWAP1 DUP4 DUP2 DUP2 DUP2 DUP6 DUP8 GAS CALL SWAP3 POP POP POP RETURNDATASIZE DUP1 PUSH0 DUP2 EQ PUSH2 0x12A6 JUMPI PUSH1 0x40 MLOAD SWAP2 POP PUSH1 0x1F NOT PUSH1 0x3F RETURNDATASIZE ADD AND DUP3 ADD PUSH1 0x40 MSTORE RETURNDATASIZE DUP3 MSTORE RETURNDATASIZE PUSH0 PUSH1 0x20 DUP5 ADD RETURNDATACOPY PUSH2 0x12AB JUMP JUMPDEST PUSH1 0x60 SWAP2 POP JUMPDEST POP POP SWAP1 POP DUP1 PUSH2 0x12F0 JUMPI PUSH1 0x40 MLOAD PUSH3 0x461BCD PUSH1 0xE5 SHL DUP2 MSTORE PUSH1 0x20 PUSH1 0x4 DUP3 ADD MSTORE PUSH1 0x11 PUSH1 0x24 DUP3 ADD MSTORE PUSH17 0x22B93937B9103634B8BAB4B230B1B4B7B7 PUSH1 0x79 SHL PUSH1 0x44 DUP3 ADD MSTORE PUSH1 0x64 ADD PUSH2 0x5E5 JUMP JUMPDEST POP JUMPDEST POP JUMP JUMPDEST CALLER PUSH0 SWAP1 DUP2 MSTORE PUSH1 0xB PUSH1 0x20 MSTORE PUSH1 0x40 SWAP1 KECCAK256 SLOAD PUSH1 0xFF AND PUSH2 0x1340 JUMPI PUSH1 0x40 MLOAD PUSH3 0x461BCD PUSH1 0xE5 SHL DUP2 MSTORE PUSH1 0x20 PUSH1 0x4 DUP3 ADD MSTORE PUSH1 0xA PUSH1 0x24 DUP3 ADD MSTORE PUSH10 0x496E7363726962617365 PUSH1 0xB0 SHL PUSH1 0x44 DUP3 ADD MSTORE PUSH1 0x64 ADD PUSH2 0x5E5 JUMP JUMPDEST PUSH1 0x1 SLOAD PUSH1 0x2 SLOAD PUSH1 0x1 PUSH1 0x1 PUSH1 0xA0 SHL SUB SWAP1 SWAP2 AND SWAP1 PUSH4 0x40C10F19 SWAP1 CALLER SWAP1 PUSH2 0x1364 SWAP1 CALLVALUE PUSH2 0x2288 JUMP JUMPDEST PUSH1 0x40 MLOAD PUSH1 0x1 PUSH1 0x1 PUSH1 0xE0 SHL SUB NOT PUSH1 0xE0 DUP6 SWAP1 SHL AND DUP2 MSTORE PUSH1 0x1 PUSH1 0x1 PUSH1 0xA0 SHL SUB SWAP1 SWAP3 AND PUSH1 0x4 DUP4 ADD MSTORE PUSH1 0x24 DUP3 ADD MSTORE PUSH1 0x44 ADD PUSH0 PUSH1 0x40 MLOAD DUP1 DUP4 SUB DUP2 PUSH0 DUP8 DUP1 EXTCODESIZE ISZERO DUP1 ISZERO PUSH2 0x13A7 JUMPI PUSH0 PUSH0 REVERT JUMPDEST POP GAS CALL ISZERO DUP1 ISZERO PUSH2 0x13B9 JUMPI RETURNDATASIZE PUSH0 PUSH0 RETURNDATACOPY RETURNDATASIZE PUSH0 REVERT JUMPDEST POP POP POP POP JUMP JUMPDEST PUSH1 0x4 SLOAD PUSH1 0xFF AND PUSH2 0x13FB JUMPI PUSH1 0x40 MLOAD PUSH3 0x461BCD PUSH1 0xE5 SHL DUP2 MSTORE PUSH1 0x20 PUSH1 0x4 DUP3 ADD MSTORE PUSH1 0x7 PUSH1 0x24 DUP3 ADD MSTORE PUSH7 0x43657272616461 PUSH1 0xC8 SHL PUSH1 0x44 DUP3 ADD MSTORE PUSH1 0x64 ADD PUSH2 0x5E5 JUMP JUMPDEST PUSH0 DUP2 DUP2 MSTORE PUSH1 0x8 PUSH1 0x20 MSTORE PUSH1 0x40 SWAP1 KECCAK256 PUSH1 0x6 DUP2 ADD SLOAD PUSH1 0x1 PUSH1 0x1 PUSH1 0xA0 SHL SUB AND CALLER EQ PUSH2 0x1454 JUMPI PUSH1 0x40 MLOAD PUSH3 0x461BCD PUSH1 0xE5 SHL DUP2 MSTORE PUSH1 0x20 PUSH1 0x4 DUP3 ADD MSTORE PUSH1 0xD PUSH1 0x24 DUP3 ADD MSTORE PUSH13 0x29B7B6379032B61030BABA37B9 PUSH1 0x99 SHL PUSH1 0x44 DUP3 ADD MSTORE PUSH1 0x64 ADD PUSH2 0x5E5 JUMP JUMPDEST PUSH0 PUSH1 0x3 DUP3 ADD SLOAD PUSH1 0x1 PUSH1 0xA0 SHL SWAP1 DIV PUSH1 0xFF AND PUSH1 0x2 DUP2 GT ISZERO PUSH2 0x1475 JUMPI PUSH2 0x1475 PUSH2 0x1C72 JUMP JUMPDEST EQ PUSH2 0x14B2 JUMPI PUSH1 0x40 MLOAD PUSH3 0x461BCD PUSH1 0xE5 SHL DUP2 MSTORE PUSH1 0x20 PUSH1 0x4 DUP3 ADD MSTORE PUSH1 0xD PUSH1 0x24 DUP3 ADD MSTORE PUSH13 0x59612066696E616C697A616461 PUSH1 0x98 SHL PUSH1 0x44 DUP3 ADD MSTORE PUSH1 0x64 ADD PUSH2 0x5E5 JUMP JUMPDEST PUSH1 0x3 DUP2 ADD DUP1 SLOAD PUSH1 0xFF PUSH1 0xA0 SHL NOT AND PUSH1 0x1 PUSH1 0xA1 SHL OR SWAP1 SSTORE PUSH1 0x6 DUP2 ADD SLOAD PUSH1 0x1 PUSH1 0xA0 SHL SWAP1 DIV PUSH1 0xFF AND PUSH2 0x14EF JUMPI PUSH1 0x6 DUP1 SLOAD SWAP1 PUSH0 PUSH2 0x14E9 DUP4 PUSH2 0x1FA6 JUMP JUMPDEST SWAP2 SWAP1 POP SSTORE POP JUMPDEST PUSH2 0x12F0 DUP3 PUSH2 0x1A69 JUMP JUMPDEST PUSH1 0x2 SLOAD CALLVALUE LT ISZERO PUSH2 0x153B JUMPI PUSH1 0x40 MLOAD PUSH3 0x461BCD PUSH1 0xE5 SHL DUP2 MSTORE PUSH1 0x20 PUSH1 0x4 DUP3 ADD MSTORE PUSH1 0xE PUSH1 0x24 DUP3 ADD MSTORE PUSH14 0x26B4B734B6B79018903A37B5B2B7 PUSH1 0x91 SHL PUSH1 0x44 DUP3 ADD MSTORE PUSH1 0x64 ADD PUSH2 0x5E5 JUMP JUMPDEST CALLER PUSH0 SWAP1 DUP2 MSTORE PUSH1 0xB PUSH1 0x20 MSTORE PUSH1 0x40 SWAP1 KECCAK256 SLOAD PUSH1 0xFF AND PUSH2 0x157E JUMPI CALLER PUSH0 SWAP1 DUP2 MSTORE PUSH1 0xB PUSH1 0x20 MSTORE PUSH1 0x40 DUP2 KECCAK256 DUP1 SLOAD PUSH1 0xFF NOT AND PUSH1 0x1 OR SWAP1 SSTORE PUSH1 0x5 DUP1 SLOAD SWAP2 PUSH2 0x1578 DUP4 PUSH2 0x211F JUMP JUMPDEST SWAP2 SWAP1 POP SSTORE POP JUMPDEST PUSH0 PUSH1 0x2 SLOAD CALLVALUE PUSH2 0x158D SWAP2 SWAP1 PUSH2 0x2288 JUMP JUMPDEST PUSH1 0x1 SLOAD PUSH1 0x40 MLOAD PUSH4 0x40C10F19 PUSH1 0xE0 SHL DUP2 MSTORE CALLER PUSH1 0x4 DUP3 ADD MSTORE PUSH1 0x24 DUP2 ADD DUP4 SWAP1 MSTORE SWAP2 SWAP3 POP PUSH1 0x1 PUSH1 0x1 PUSH1 0xA0 SHL SUB AND SWAP1 PUSH4 0x40C10F19 SWAP1 PUSH1 0x44 ADD PUSH0 PUSH1 0x40 MLOAD DUP1 DUP4 SUB DUP2 PUSH0 DUP8 DUP1 EXTCODESIZE ISZERO DUP1 ISZERO PUSH2 0x15D7 JUMPI PUSH0 PUSH0 REVERT JUMPDEST POP GAS CALL ISZERO DUP1 ISZERO PUSH2 0x15E9 JUMPI RETURNDATASIZE PUSH0 PUSH0 RETURNDATACOPY RETURNDATASIZE PUSH0 REVERT JUMPDEST POP POP PUSH1 0x40 MLOAD DUP4 DUP2 MSTORE CALLER SWAP3 POP PUSH32 0x287AB65235AA9A0BAEED5B973FDA48C77EBDC6F3DD931CFDA1C082C0AECC1E73 SWAP2 POP PUSH1 0x20 ADD PUSH1 0x40 MLOAD DUP1 SWAP2 SUB SWAP1 LOG2 POP JUMP JUMPDEST PUSH1 0x60 PUSH0 DUP1 JUMPDEST PUSH1 0x7 SLOAD DUP2 LT ISZERO PUSH2 0x16B8 JUMPI DUP5 PUSH1 0x2 DUP2 GT ISZERO PUSH2 0x1646 JUMPI PUSH2 0x1646 PUSH2 0x1C72 JUMP JUMPDEST PUSH0 DUP3 DUP2 MSTORE PUSH1 0x8 PUSH1 0x20 MSTORE PUSH1 0x40 SWAP1 KECCAK256 PUSH1 0x3 ADD SLOAD PUSH1 0x1 PUSH1 0xA0 SHL SWAP1 DIV PUSH1 0xFF AND PUSH1 0x2 DUP2 GT ISZERO PUSH2 0x1672 JUMPI PUSH2 0x1672 PUSH2 0x1C72 JUMP JUMPDEST EQ DUP1 ISZERO PUSH2 0x169D JUMPI POP PUSH0 DUP2 DUP2 MSTORE PUSH1 0x8 PUSH1 0x20 MSTORE PUSH1 0x40 SWAP1 KECCAK256 PUSH1 0x6 ADD SLOAD PUSH1 0xFF PUSH1 0x1 PUSH1 0xA0 SHL SWAP1 SWAP2 DIV AND ISZERO ISZERO DUP5 ISZERO ISZERO EQ JUMPDEST ISZERO PUSH2 0x16B0 JUMPI DUP2 PUSH2 0x16AC DUP2 PUSH2 0x211F JUMP JUMPDEST SWAP3 POP POP JUMPDEST PUSH1 0x1 ADD PUSH2 0x162A JUMP JUMPDEST POP PUSH0 DUP2 PUSH8 0xFFFFFFFFFFFFFFFF DUP2 GT ISZERO PUSH2 0x16D3 JUMPI PUSH2 0x16D3 PUSH2 0x1DE1 JUMP JUMPDEST PUSH1 0x40 MLOAD SWAP1 DUP1 DUP3 MSTORE DUP1 PUSH1 0x20 MUL PUSH1 0x20 ADD DUP3 ADD PUSH1 0x40 MSTORE DUP1 ISZERO PUSH2 0x16FC JUMPI DUP2 PUSH1 0x20 ADD PUSH1 0x20 DUP3 MUL DUP1 CALLDATASIZE DUP4 CALLDATACOPY ADD SWAP1 POP JUMPDEST POP SWAP1 POP PUSH0 DUP1 JUMPDEST PUSH1 0x7 SLOAD DUP2 LT ISZERO PUSH2 0x17AD JUMPI DUP7 PUSH1 0x2 DUP2 GT ISZERO PUSH2 0x171E JUMPI PUSH2 0x171E PUSH2 0x1C72 JUMP JUMPDEST PUSH0 DUP3 DUP2 MSTORE PUSH1 0x8 PUSH1 0x20 MSTORE PUSH1 0x40 SWAP1 KECCAK256 PUSH1 0x3 ADD SLOAD PUSH1 0x1 PUSH1 0xA0 SHL SWAP1 DIV PUSH1 0xFF AND PUSH1 0x2 DUP2 GT ISZERO PUSH2 0x174A JUMPI PUSH2 0x174A PUSH2 0x1C72 JUMP JUMPDEST EQ DUP1 ISZERO PUSH2 0x1775 JUMPI POP PUSH0 DUP2 DUP2 MSTORE PUSH1 0x8 PUSH1 0x20 MSTORE PUSH1 0x40 SWAP1 KECCAK256 PUSH1 0x6 ADD SLOAD PUSH1 0xFF PUSH1 0x1 PUSH1 0xA0 SHL SWAP1 SWAP2 DIV AND ISZERO ISZERO DUP7 ISZERO ISZERO EQ JUMPDEST ISZERO PUSH2 0x17A5 JUMPI DUP1 DUP4 DUP4 PUSH2 0x1786 DUP2 PUSH2 0x211F JUMP JUMPDEST SWAP5 POP DUP2 MLOAD DUP2 LT PUSH2 0x1798 JUMPI PUSH2 0x1798 PUSH2 0x2137 JUMP JUMPDEST PUSH1 0x20 MUL PUSH1 0x20 ADD ADD DUP2 DUP2 MSTORE POP POP JUMPDEST PUSH1 0x1 ADD PUSH2 0x1702 JUMP JUMPDEST POP SWAP1 SWAP3 POP POP POP JUMPDEST SWAP3 SWAP2 POP POP JUMP JUMPDEST PUSH0 DUP2 DUP2 MSTORE PUSH1 0x8 PUSH1 0x20 MSTORE PUSH1 0x40 DUP2 KECCAK256 PUSH1 0x3 SLOAD PUSH1 0x2 DUP3 ADD SLOAD SWAP2 SWAP3 SWAP2 PUSH2 0x17DD SWAP1 PUSH1 0xA PUSH2 0x1FD2 JUMP JUMPDEST PUSH2 0x17E7 SWAP2 SWAP1 PUSH2 0x2288 JUMP JUMPDEST PUSH2 0x17F2 SWAP1 PUSH1 0x2 PUSH2 0x1FE9 JUMP JUMPDEST SWAP1 POP PUSH0 PUSH1 0xA PUSH1 0x6 SLOAD PUSH1 0x5 SLOAD PUSH2 0x1807 SWAP2 SWAP1 PUSH2 0x1FE9 JUMP JUMPDEST PUSH2 0x1811 SWAP1 DUP5 PUSH2 0x1FD2 JUMP JUMPDEST PUSH2 0x181B SWAP2 SWAP1 PUSH2 0x2288 JUMP JUMPDEST SWAP1 POP DUP1 DUP4 PUSH1 0x4 ADD SLOAD GT DUP1 ISZERO PUSH2 0x1836 JUMPI POP DUP3 PUSH1 0x2 ADD SLOAD PUSH1 0x3 SLOAD LT ISZERO JUMPDEST ISZERO PUSH2 0x13B9 JUMPI PUSH1 0x3 DUP4 ADD DUP1 SLOAD PUSH1 0xFF PUSH1 0xA0 SHL NOT AND PUSH1 0x1 PUSH1 0xA0 SHL OR SWAP1 SSTORE PUSH1 0x6 DUP1 SLOAD SWAP1 PUSH0 PUSH2 0x185F DUP4 PUSH2 0x1FA6 JUMP JUMPDEST SWAP2 SWAP1 POP SSTORE POP PUSH1 0x2 SLOAD DUP4 PUSH1 0x5 ADD SLOAD PUSH2 0x1876 SWAP2 SWAP1 PUSH2 0x1FD2 JUMP JUMPDEST PUSH1 0x3 PUSH0 DUP3 DUP3 SLOAD PUSH2 0x1886 SWAP2 SWAP1 PUSH2 0x1FE9 JUMP JUMPDEST SWAP1 SWAP2 SSTORE POP POP PUSH1 0x2 DUP4 ADD SLOAD PUSH1 0x3 DUP1 SLOAD PUSH0 SWAP1 PUSH2 0x18A1 SWAP1 DUP5 SWAP1 PUSH2 0x20ED JUMP JUMPDEST SWAP1 SWAP2 SSTORE POP POP PUSH1 0x1 SLOAD PUSH1 0x5 DUP5 ADD SLOAD PUSH1 0x40 MLOAD PUSH4 0x2770A7EB PUSH1 0xE2 SHL DUP2 MSTORE ADDRESS PUSH1 0x4 DUP3 ADD MSTORE PUSH1 0x24 DUP2 ADD SWAP2 SWAP1 SWAP2 MSTORE PUSH1 0x1 PUSH1 0x1 PUSH1 0xA0 SHL SUB SWAP1 SWAP2 AND SWAP1 PUSH4 0x9DC29FAC SWAP1 PUSH1 0x44 ADD PUSH0 PUSH1 0x40 MLOAD DUP1 DUP4 SUB DUP2 PUSH0 DUP8 DUP1 EXTCODESIZE ISZERO DUP1 ISZERO PUSH2 0x18F5 JUMPI PUSH0 PUSH0 REVERT JUMPDEST POP GAS CALL ISZERO DUP1 ISZERO PUSH2 0x1907 JUMPI RETURNDATASIZE PUSH0 PUSH0 RETURNDATACOPY RETURNDATASIZE PUSH0 REVERT JUMPDEST POP POP POP POP PUSH1 0x3 DUP4 ADD SLOAD PUSH1 0x2 DUP5 ADD SLOAD PUSH1 0x4 DUP6 ADD SLOAD PUSH1 0x5 DUP7 ADD SLOAD PUSH1 0x40 MLOAD PUSH1 0x24 DUP2 ADD DUP10 SWAP1 MSTORE PUSH1 0x44 DUP2 ADD SWAP3 SWAP1 SWAP3 MSTORE PUSH1 0x64 DUP3 ADD MSTORE PUSH0 SWAP3 PUSH1 0x1 PUSH1 0x1 PUSH1 0xA0 SHL SUB AND SWAP2 PUSH3 0x186A0 SWAP2 PUSH1 0x84 ADD PUSH1 0x40 DUP1 MLOAD PUSH1 0x1F NOT DUP2 DUP5 SUB ADD DUP2 MSTORE SWAP2 DUP2 MSTORE PUSH1 0x20 DUP3 ADD DUP1 MLOAD PUSH1 0x1 PUSH1 0x1 PUSH1 0xE0 SHL SUB AND PUSH4 0x986CC311 PUSH1 0xE0 SHL OR SWAP1 MSTORE MLOAD PUSH2 0x197F SWAP2 SWAP1 PUSH2 0x2272 JUMP JUMPDEST PUSH0 PUSH1 0x40 MLOAD DUP1 DUP4 SUB DUP2 DUP6 DUP9 DUP9 CALL SWAP4 POP POP POP POP RETURNDATASIZE DUP1 PUSH0 DUP2 EQ PUSH2 0x19BA JUMPI PUSH1 0x40 MLOAD SWAP2 POP PUSH1 0x1F NOT PUSH1 0x3F RETURNDATASIZE ADD AND DUP3 ADD PUSH1 0x40 MSTORE RETURNDATASIZE DUP3 MSTORE RETURNDATASIZE PUSH0 PUSH1 0x20 DUP5 ADD RETURNDATACOPY PUSH2 0x19BF JUMP JUMPDEST PUSH1 0x60 SWAP2 POP JUMPDEST POP POP SWAP1 POP DUP1 PUSH2 0x1A02 JUMPI PUSH1 0x40 MLOAD PUSH3 0x461BCD PUSH1 0xE5 SHL DUP2 MSTORE PUSH1 0x20 PUSH1 0x4 DUP3 ADD MSTORE PUSH1 0xF PUSH1 0x24 DUP3 ADD MSTORE PUSH15 0x456A65637563696F6E2066616C6C6F PUSH1 0x88 SHL PUSH1 0x44 DUP3 ADD MSTORE PUSH1 0x64 ADD PUSH2 0x5E5 JUMP JUMPDEST DUP5 PUSH32 0xC6A4FD4A703D2A2FE3167CE7F6D62BF96458B7E55042CFAA85D5C7EF3AC56EEA DUP6 PUSH1 0x2 ADD SLOAD PUSH1 0x40 MLOAD PUSH2 0x1A38 SWAP2 DUP2 MSTORE PUSH1 0x20 ADD SWAP1 JUMP JUMPDEST PUSH1 0x40 MLOAD DUP1 SWAP2 SUB SWAP1 LOG2 POP POP POP POP POP JUMP JUMPDEST PUSH0 PUSH2 0x1A51 DUP4 PUSH2 0x1B87 JUMP JUMPDEST DUP1 ISZERO PUSH2 0x1A62 JUMPI POP PUSH2 0x1A62 DUP4 DUP4 PUSH2 0x1BD5 JUMP JUMPDEST SWAP4 SWAP3 POP POP POP JUMP JUMPDEST PUSH0 DUP2 DUP2 MSTORE PUSH1 0xA PUSH1 0x20 MSTORE PUSH1 0x40 DUP2 KECCAK256 SWAP1 JUMPDEST DUP2 SLOAD DUP2 LT ISZERO PUSH2 0x7C1 JUMPI PUSH0 DUP3 DUP3 DUP2 SLOAD DUP2 LT PUSH2 0x1A94 JUMPI PUSH2 0x1A94 PUSH2 0x2137 JUMP JUMPDEST PUSH0 SWAP2 DUP3 MSTORE PUSH1 0x20 DUP1 DUP4 KECCAK256 SWAP1 SWAP2 ADD SLOAD DUP7 DUP4 MSTORE PUSH1 0x9 DUP3 MSTORE PUSH1 0x40 DUP1 DUP5 KECCAK256 PUSH1 0x1 PUSH1 0x1 PUSH1 0xA0 SHL SUB SWAP1 SWAP3 AND DUP1 DUP6 MSTORE SWAP2 SWAP1 SWAP3 MSTORE SWAP2 KECCAK256 SLOAD SWAP1 SWAP2 POP DUP1 ISZERO PUSH2 0x1B7D JUMPI PUSH0 PUSH2 0x1AD6 DUP3 DUP1 PUSH2 0x1FD2 JUMP JUMPDEST PUSH0 DUP8 DUP2 MSTORE PUSH1 0x9 PUSH1 0x20 SWAP1 DUP2 MSTORE PUSH1 0x40 DUP1 DUP4 KECCAK256 PUSH1 0x1 PUSH1 0x1 PUSH1 0xA0 SHL SUB DUP1 DUP10 AND DUP6 MSTORE SWAP3 MSTORE DUP1 DUP4 KECCAK256 SWAP3 SWAP1 SWAP3 SSTORE PUSH1 0x1 SLOAD SWAP2 MLOAD PUSH4 0xA9059CBB PUSH1 0xE0 SHL DUP2 MSTORE SWAP3 SWAP4 POP AND SWAP1 PUSH4 0xA9059CBB SWAP1 PUSH2 0x1B3A SWAP1 DUP7 SWAP1 DUP6 SWAP1 PUSH1 0x4 ADD PUSH1 0x1 PUSH1 0x1 PUSH1 0xA0 SHL SUB SWAP3 SWAP1 SWAP3 AND DUP3 MSTORE PUSH1 0x20 DUP3 ADD MSTORE PUSH1 0x40 ADD SWAP1 JUMP JUMPDEST PUSH1 0x20 PUSH1 0x40 MLOAD DUP1 DUP4 SUB DUP2 PUSH0 DUP8 GAS CALL ISZERO DUP1 ISZERO PUSH2 0x1B56 JUMPI RETURNDATASIZE PUSH0 PUSH0 RETURNDATACOPY RETURNDATASIZE PUSH0 REVERT JUMPDEST POP POP POP POP PUSH1 0x40 MLOAD RETURNDATASIZE PUSH1 0x1F NOT PUSH1 0x1F DUP3 ADD AND DUP3 ADD DUP1 PUSH1 0x40 MSTORE POP DUP2 ADD SWAP1 PUSH2 0x1B7A SWAP2 SWAP1 PUSH2 0x2100 JUMP JUMPDEST POP POP JUMPDEST POP POP PUSH1 0x1 ADD PUSH2 0x1A78 JUMP JUMPDEST PUSH0 PUSH2 0x1B99 DUP3 PUSH4 0x1FFC9A7 PUSH1 0xE0 SHL PUSH2 0x1BD5 JUMP JUMPDEST ISZERO PUSH2 0x1BC9 JUMPI PUSH0 DUP1 PUSH2 0x1BB2 DUP5 PUSH1 0x1 PUSH1 0x1 PUSH1 0xE0 SHL SUB NOT PUSH2 0x1BF9 JUMP JUMPDEST SWAP2 POP SWAP2 POP DUP2 DUP1 ISZERO PUSH2 0x1BC1 JUMPI POP DUP1 ISZERO JUMPDEST SWAP5 SWAP4 POP POP POP POP JUMP JUMPDEST POP PUSH0 SWAP2 SWAP1 POP JUMP JUMPDEST SWAP2 SWAP1 POP JUMP JUMPDEST PUSH0 PUSH0 PUSH0 PUSH2 0x1BE2 DUP6 DUP6 PUSH2 0x1BF9 JUMP JUMPDEST SWAP2 POP SWAP2 POP DUP2 DUP1 ISZERO PUSH2 0x1BF0 JUMPI POP DUP1 JUMPDEST SWAP6 SWAP5 POP POP POP POP POP JUMP JUMPDEST PUSH4 0x1FFC9A7 PUSH1 0xE0 SHL PUSH0 DUP2 DUP2 MSTORE PUSH1 0x4 DUP4 SWAP1 MSTORE SWAP1 DUP2 SWAP1 PUSH1 0x20 DUP3 PUSH1 0x24 DUP2 DUP9 PUSH2 0x7530 STATICCALL SWAP3 POP PUSH0 MLOAD ISZERO ISZERO PUSH1 0x1F RETURNDATASIZE GT AND SWAP2 POP POP SWAP3 POP SWAP3 SWAP1 POP JUMP JUMPDEST PUSH0 PUSH1 0x20 DUP3 DUP5 SUB SLT ISZERO PUSH2 0x1C3D JUMPI PUSH0 PUSH0 REVERT JUMPDEST POP CALLDATALOAD SWAP2 SWAP1 POP JUMP JUMPDEST PUSH0 DUP2 MLOAD DUP1 DUP5 MSTORE DUP1 PUSH1 0x20 DUP5 ADD PUSH1 0x20 DUP7 ADD MCOPY PUSH0 PUSH1 0x20 DUP3 DUP7 ADD ADD MSTORE PUSH1 0x20 PUSH1 0x1F NOT PUSH1 0x1F DUP4 ADD AND DUP6 ADD ADD SWAP2 POP POP SWAP3 SWAP2 POP POP JUMP JUMPDEST PUSH4 0x4E487B71 PUSH1 0xE0 SHL PUSH0 MSTORE PUSH1 0x21 PUSH1 0x4 MSTORE PUSH1 0x24 PUSH0 REVERT JUMPDEST PUSH1 0x3 DUP2 LT PUSH2 0x1CA2 JUMPI PUSH4 0x4E487B71 PUSH1 0xE0 SHL PUSH0 MSTORE PUSH1 0x21 PUSH1 0x4 MSTORE PUSH1 0x24 PUSH0 REVERT JUMPDEST SWAP1 MSTORE JUMP JUMPDEST PUSH2 0x120 DUP2 MSTORE PUSH0 PUSH2 0x1CBA PUSH2 0x120 DUP4 ADD DUP13 PUSH2 0x1C44 JUMP JUMPDEST DUP3 DUP2 SUB PUSH1 0x20 DUP5 ADD MSTORE PUSH2 0x1CCC DUP2 DUP13 PUSH2 0x1C44 JUMP JUMPDEST PUSH1 0x40 DUP5 ADD DUP12 SWAP1 MSTORE PUSH1 0x1 PUSH1 0x1 PUSH1 0xA0 SHL SUB DUP11 AND PUSH1 0x60 DUP6 ADD MSTORE SWAP2 POP PUSH2 0x1CF3 SWAP1 POP PUSH1 0x80 DUP4 ADD DUP9 PUSH2 0x1C86 JUMP JUMPDEST PUSH1 0xA0 DUP3 ADD SWAP6 SWAP1 SWAP6 MSTORE PUSH1 0xC0 DUP2 ADD SWAP4 SWAP1 SWAP4 MSTORE PUSH1 0x1 PUSH1 0x1 PUSH1 0xA0 SHL SUB SWAP2 SWAP1 SWAP2 AND PUSH1 0xE0 DUP4 ADD MSTORE ISZERO ISZERO PUSH2 0x100 SWAP1 SWAP2 ADD MSTORE SWAP6 SWAP5 POP POP POP POP POP JUMP JUMPDEST DUP1 CALLDATALOAD PUSH1 0x1 PUSH1 0x1 PUSH1 0xA0 SHL SUB DUP2 AND DUP2 EQ PUSH2 0x1BD0 JUMPI PUSH0 PUSH0 REVERT JUMPDEST PUSH0 PUSH0 PUSH1 0x40 DUP4 DUP6 SUB SLT ISZERO PUSH2 0x1D4D JUMPI PUSH0 PUSH0 REVERT JUMPDEST DUP3 CALLDATALOAD SWAP2 POP PUSH2 0x1D5D PUSH1 0x20 DUP5 ADD PUSH2 0x1D26 JUMP JUMPDEST SWAP1 POP SWAP3 POP SWAP3 SWAP1 POP JUMP JUMPDEST PUSH1 0x20 DUP1 DUP3 MSTORE DUP3 MLOAD DUP3 DUP3 ADD DUP2 SWAP1 MSTORE PUSH0 SWAP2 DUP5 ADD SWAP1 PUSH1 0x40 DUP5 ADD SWAP1 DUP4 JUMPDEST DUP2 DUP2 LT ISZERO PUSH2 0x1D9D JUMPI DUP4 MLOAD DUP4 MSTORE PUSH1 0x20 SWAP4 DUP5 ADD SWAP4 SWAP1 SWAP3 ADD SWAP2 PUSH1 0x1 ADD PUSH2 0x1D7F JUMP JUMPDEST POP SWAP1 SWAP6 SWAP5 POP POP POP POP POP JUMP JUMPDEST PUSH0 PUSH0 PUSH1 0x40 DUP4 DUP6 SUB SLT ISZERO PUSH2 0x1DB9 JUMPI PUSH0 PUSH0 REVERT JUMPDEST POP POP DUP1 CALLDATALOAD SWAP3 PUSH1 0x20 SWAP1 SWAP2 ADD CALLDATALOAD SWAP2 POP JUMP JUMPDEST PUSH0 PUSH1 0x20 DUP3 DUP5 SUB SLT ISZERO PUSH2 0x1DD8 JUMPI PUSH0 PUSH0 REVERT JUMPDEST PUSH2 0x1A62 DUP3 PUSH2 0x1D26 JUMP JUMPDEST PUSH4 0x4E487B71 PUSH1 0xE0 SHL PUSH0 MSTORE PUSH1 0x41 PUSH1 0x4 MSTORE PUSH1 0x24 PUSH0 REVERT JUMPDEST PUSH0 DUP3 PUSH1 0x1F DUP4 ADD SLT PUSH2 0x1E04 JUMPI PUSH0 PUSH0 REVERT JUMPDEST DUP2 CALLDATALOAD PUSH8 0xFFFFFFFFFFFFFFFF DUP2 GT ISZERO PUSH2 0x1E1E JUMPI PUSH2 0x1E1E PUSH2 0x1DE1 JUMP JUMPDEST PUSH1 0x40 MLOAD PUSH1 0x1F DUP3 ADD PUSH1 0x1F NOT SWAP1 DUP2 AND PUSH1 0x3F ADD AND DUP2 ADD PUSH8 0xFFFFFFFFFFFFFFFF DUP2 GT DUP3 DUP3 LT OR ISZERO PUSH2 0x1E4D JUMPI PUSH2 0x1E4D PUSH2 0x1DE1 JUMP JUMPDEST PUSH1 0x40 MSTORE DUP2 DUP2 MSTORE DUP4 DUP3 ADD PUSH1 0x20 ADD DUP6 LT ISZERO PUSH2 0x1E64 JUMPI PUSH0 PUSH0 REVERT JUMPDEST DUP2 PUSH1 0x20 DUP6 ADD PUSH1 0x20 DUP4 ADD CALLDATACOPY PUSH0 SWAP2 DUP2 ADD PUSH1 0x20 ADD SWAP2 SWAP1 SWAP2 MSTORE SWAP4 SWAP3 POP POP POP JUMP JUMPDEST PUSH0 PUSH0 PUSH0 PUSH0 PUSH1 0x80 DUP6 DUP8 SUB SLT ISZERO PUSH2 0x1E93 JUMPI PUSH0 PUSH0 REVERT JUMPDEST DUP5 CALLDATALOAD PUSH8 0xFFFFFFFFFFFFFFFF DUP2 GT ISZERO PUSH2 0x1EA9 JUMPI PUSH0 PUSH0 REVERT JUMPDEST PUSH2 0x1EB5 DUP8 DUP3 DUP9 ADD PUSH2 0x1DF5 JUMP JUMPDEST SWAP5 POP POP PUSH1 0x20 DUP6 ADD CALLDATALOAD PUSH8 0xFFFFFFFFFFFFFFFF DUP2 GT ISZERO PUSH2 0x1ED1 JUMPI PUSH0 PUSH0 REVERT JUMPDEST PUSH2 0x1EDD DUP8 DUP3 DUP9 ADD PUSH2 0x1DF5 JUMP JUMPDEST SWAP4 POP POP PUSH1 0x40 DUP6 ADD CALLDATALOAD SWAP2 POP PUSH2 0x1EF3 PUSH1 0x60 DUP7 ADD PUSH2 0x1D26 JUMP JUMPDEST SWAP1 POP SWAP3 SWAP6 SWAP2 SWAP5 POP SWAP3 POP JUMP JUMPDEST PUSH1 0xC0 DUP2 MSTORE PUSH0 PUSH2 0x1F10 PUSH1 0xC0 DUP4 ADD DUP10 PUSH2 0x1C44 JUMP JUMPDEST DUP3 DUP2 SUB PUSH1 0x20 DUP5 ADD MSTORE PUSH2 0x1F22 DUP2 DUP10 PUSH2 0x1C44 JUMP JUMPDEST PUSH1 0x40 DUP5 ADD DUP9 SWAP1 MSTORE PUSH1 0x1 PUSH1 0x1 PUSH1 0xA0 SHL SUB DUP8 AND PUSH1 0x60 DUP6 ADD MSTORE SWAP2 POP PUSH2 0x1F49 SWAP1 POP PUSH1 0x80 DUP4 ADD DUP6 PUSH2 0x1C86 JUMP JUMPDEST DUP3 PUSH1 0xA0 DUP4 ADD MSTORE SWAP8 SWAP7 POP POP POP POP POP POP POP JUMP JUMPDEST PUSH1 0x1 DUP2 DUP2 SHR SWAP1 DUP3 AND DUP1 PUSH2 0x1F6E JUMPI PUSH1 0x7F DUP3 AND SWAP2 POP JUMPDEST PUSH1 0x20 DUP3 LT DUP2 SUB PUSH2 0x1F8C JUMPI PUSH4 0x4E487B71 PUSH1 0xE0 SHL PUSH0 MSTORE PUSH1 0x22 PUSH1 0x4 MSTORE PUSH1 0x24 PUSH0 REVERT JUMPDEST POP SWAP2 SWAP1 POP JUMP JUMPDEST PUSH4 0x4E487B71 PUSH1 0xE0 SHL PUSH0 MSTORE PUSH1 0x11 PUSH1 0x4 MSTORE PUSH1 0x24 PUSH0 REVERT JUMPDEST PUSH0 DUP2 PUSH2 0x1FB4 JUMPI PUSH2 0x1FB4 PUSH2 0x1F92 JUMP JUMPDEST POP PUSH0 NOT ADD SWAP1 JUMP JUMPDEST PUSH0 PUSH1 0x20 DUP3 DUP5 SUB SLT ISZERO PUSH2 0x1FCB JUMPI PUSH0 PUSH0 REVERT JUMPDEST POP MLOAD SWAP2 SWAP1 POP JUMP JUMPDEST DUP1 DUP3 MUL DUP2 ISZERO DUP3 DUP3 DIV DUP5 EQ OR PUSH2 0x17B4 JUMPI PUSH2 0x17B4 PUSH2 0x1F92 JUMP JUMPDEST DUP1 DUP3 ADD DUP1 DUP3 GT ISZERO PUSH2 0x17B4 JUMPI PUSH2 0x17B4 PUSH2 0x1F92 JUMP JUMPDEST PUSH1 0x1 DUP2 JUMPDEST PUSH1 0x1 DUP5 GT ISZERO PUSH2 0x2037 JUMPI DUP1 DUP6 DIV DUP2 GT ISZERO PUSH2 0x201B JUMPI PUSH2 0x201B PUSH2 0x1F92 JUMP JUMPDEST PUSH1 0x1 DUP5 AND ISZERO PUSH2 0x2029 JUMPI SWAP1 DUP2 MUL SWAP1 JUMPDEST PUSH1 0x1 SWAP4 SWAP1 SWAP4 SHR SWAP3 DUP1 MUL PUSH2 0x2000 JUMP JUMPDEST SWAP4 POP SWAP4 SWAP2 POP POP JUMP JUMPDEST PUSH0 DUP3 PUSH2 0x204D JUMPI POP PUSH1 0x1 PUSH2 0x17B4 JUMP JUMPDEST DUP2 PUSH2 0x2059 JUMPI POP PUSH0 PUSH2 0x17B4 JUMP JUMPDEST DUP2 PUSH1 0x1 DUP2 EQ PUSH2 0x206F JUMPI PUSH1 0x2 DUP2 EQ PUSH2 0x2079 JUMPI PUSH2 0x2095 JUMP JUMPDEST PUSH1 0x1 SWAP2 POP POP PUSH2 0x17B4 JUMP JUMPDEST PUSH1 0xFF DUP5 GT ISZERO PUSH2 0x208A JUMPI PUSH2 0x208A PUSH2 0x1F92 JUMP JUMPDEST POP POP PUSH1 0x1 DUP3 SHL PUSH2 0x17B4 JUMP JUMPDEST POP PUSH1 0x20 DUP4 LT PUSH2 0x133 DUP4 LT AND PUSH1 0x4E DUP5 LT PUSH1 0xB DUP5 LT AND OR ISZERO PUSH2 0x20B8 JUMPI POP DUP2 DUP2 EXP PUSH2 0x17B4 JUMP JUMPDEST PUSH2 0x20C4 PUSH0 NOT DUP5 DUP5 PUSH2 0x1FFC JUMP JUMPDEST DUP1 PUSH0 NOT DIV DUP3 GT ISZERO PUSH2 0x20D7 JUMPI PUSH2 0x20D7 PUSH2 0x1F92 JUMP JUMPDEST MUL SWAP4 SWAP3 POP POP POP JUMP JUMPDEST PUSH0 PUSH2 0x1A62 PUSH1 0xFF DUP5 AND DUP4 PUSH2 0x203F JUMP JUMPDEST DUP2 DUP2 SUB DUP2 DUP2 GT ISZERO PUSH2 0x17B4 JUMPI PUSH2 0x17B4 PUSH2 0x1F92 JUMP JUMPDEST PUSH0 PUSH1 0x20 DUP3 DUP5 SUB SLT ISZERO PUSH2 0x2110 JUMPI PUSH0 PUSH0 REVERT JUMPDEST DUP2 MLOAD DUP1 ISZERO ISZERO DUP2 EQ PUSH2 0x1A62 JUMPI PUSH0 PUSH0 REVERT JUMPDEST PUSH0 PUSH1 0x1 DUP3 ADD PUSH2 0x2130 JUMPI PUSH2 0x2130 PUSH2 0x1F92 JUMP JUMPDEST POP PUSH1 0x1 ADD SWAP1 JUMP JUMPDEST PUSH4 0x4E487B71 PUSH1 0xE0 SHL PUSH0 MSTORE PUSH1 0x32 PUSH1 0x4 MSTORE PUSH1 0x24 PUSH0 REVERT JUMPDEST PUSH1 0x1F DUP3 GT ISZERO PUSH2 0x7C1 JUMPI DUP1 PUSH0 MSTORE PUSH1 0x20 PUSH0 KECCAK256 PUSH1 0x1F DUP5 ADD PUSH1 0x5 SHR DUP2 ADD PUSH1 0x20 DUP6 LT ISZERO PUSH2 0x2170 JUMPI POP DUP1 JUMPDEST PUSH1 0x1F DUP5 ADD PUSH1 0x5 SHR DUP3 ADD SWAP2 POP JUMPDEST DUP2 DUP2 LT ISZERO PUSH2 0x218F JUMPI PUSH0 DUP2 SSTORE PUSH1 0x1 ADD PUSH2 0x217C JUMP JUMPDEST POP POP POP POP POP JUMP JUMPDEST DUP2 MLOAD PUSH8 0xFFFFFFFFFFFFFFFF DUP2 GT ISZERO PUSH2 0x21B0 JUMPI PUSH2 0x21B0 PUSH2 0x1DE1 JUMP JUMPDEST PUSH2 0x21C4 DUP2 PUSH2 0x21BE DUP5 SLOAD PUSH2 0x1F5A JUMP JUMPDEST DUP5 PUSH2 0x214B JUMP JUMPDEST PUSH1 0x20 PUSH1 0x1F DUP3 GT PUSH1 0x1 DUP2 EQ PUSH2 0x21F6 JUMPI PUSH0 DUP4 ISZERO PUSH2 0x21DF JUMPI POP DUP5 DUP3 ADD MLOAD JUMPDEST PUSH0 NOT PUSH1 0x3 DUP6 SWAP1 SHL SHR NOT AND PUSH1 0x1 DUP5 SWAP1 SHL OR DUP5 SSTORE PUSH2 0x218F JUMP JUMPDEST PUSH0 DUP5 DUP2 MSTORE PUSH1 0x20 DUP2 KECCAK256 PUSH1 0x1F NOT DUP6 AND SWAP2 JUMPDEST DUP3 DUP2 LT ISZERO PUSH2 0x2225 JUMPI DUP8 DUP6 ADD MLOAD DUP3 SSTORE PUSH1 0x20 SWAP5 DUP6 ADD SWAP5 PUSH1 0x1 SWAP1 SWAP3 ADD SWAP2 ADD PUSH2 0x2205 JUMP JUMPDEST POP DUP5 DUP3 LT ISZERO PUSH2 0x2242 JUMPI DUP7 DUP5 ADD MLOAD PUSH0 NOT PUSH1 0x3 DUP8 SWAP1 SHL PUSH1 0xF8 AND SHR NOT AND DUP2 SSTORE JUMPDEST POP POP POP POP PUSH1 0x1 SWAP1 DUP2 SHL ADD SWAP1 SSTORE POP JUMP JUMPDEST PUSH1 0x40 DUP2 MSTORE PUSH0 PUSH2 0x2263 PUSH1 0x40 DUP4 ADD DUP6 PUSH2 0x1C44 JUMP JUMPDEST SWAP1 POP DUP3 PUSH1 0x20 DUP4 ADD MSTORE SWAP4 SWAP3 POP POP POP JUMP JUMPDEST PUSH0 DUP3 MLOAD DUP1 PUSH1 0x20 DUP6 ADD DUP5 MCOPY PUSH0 SWAP3 ADD SWAP2 DUP3 MSTORE POP SWAP2 SWAP1 POP JUMP JUMPDEST PUSH0 DUP3 PUSH2 0x22A2 JUMPI PUSH4 0x4E487B71 PUSH1 0xE0 SHL PUSH0 MSTORE PUSH1 0x12 PUSH1 0x4 MSTORE PUSH1 0x24 PUSH0 REVERT JUMPDEST POP DIV SWAP1 JUMP INVALID LOG2 PUSH5 0x6970667358 0x22 SLT KECCAK256 DUP13 0xBB PUSH20 0xA194AFCAA388B3FA7582FB314B6AA9FF7436FA41 CALLVALUE 0xD0 SAR 0x4E DUP12 0xB1 PUSH23 0x9C1264736F6C634300081F003360806040523480156100 0xF JUMPI PUSH0 PUSH0 REVERT JUMPDEST POP PUSH1 0x40 MLOAD PUSH2 0xB2D CODESIZE SUB DUP1 PUSH2 0xB2D DUP4 CODECOPY DUP2 ADD PUSH1 0x40 DUP2 SWAP1 MSTORE PUSH2 0x2E SWAP2 PUSH2 0x103 JUMP JUMPDEST DUP2 DUP2 PUSH1 0x3 PUSH2 0x3C DUP4 DUP3 PUSH2 0x1EC JUMP JUMPDEST POP PUSH1 0x4 PUSH2 0x49 DUP3 DUP3 PUSH2 0x1EC JUMP JUMPDEST POP POP PUSH1 0x5 DUP1 SLOAD PUSH1 0x1 PUSH1 0x1 PUSH1 0xA0 SHL SUB NOT AND CALLER OR SWAP1 SSTORE POP PUSH2 0x2A6 SWAP2 POP POP JUMP JUMPDEST PUSH4 0x4E487B71 PUSH1 0xE0 SHL PUSH0 MSTORE PUSH1 0x41 PUSH1 0x4 MSTORE PUSH1 0x24 PUSH0 REVERT JUMPDEST PUSH0 DUP3 PUSH1 0x1F DUP4 ADD SLT PUSH2 0x89 JUMPI PUSH0 PUSH0 REVERT JUMPDEST DUP2 MLOAD PUSH1 0x1 PUSH1 0x1 PUSH1 0x40 SHL SUB DUP2 GT ISZERO PUSH2 0xA2 JUMPI PUSH2 0xA2 PUSH2 0x66 JUMP JUMPDEST PUSH1 0x40 MLOAD PUSH1 0x1F DUP3 ADD PUSH1 0x1F NOT SWAP1 DUP2 AND PUSH1 0x3F ADD AND DUP2 ADD PUSH1 0x1 PUSH1 0x1 PUSH1 0x40 SHL SUB DUP2 GT DUP3 DUP3 LT OR ISZERO PUSH2 0xD0 JUMPI PUSH2 0xD0 PUSH2 0x66 JUMP JUMPDEST PUSH1 0x40 MSTORE DUP2 DUP2 MSTORE DUP4 DUP3 ADD PUSH1 0x20 ADD DUP6 LT ISZERO PUSH2 0xE7 JUMPI PUSH0 PUSH0 REVERT JUMPDEST DUP2 PUSH1 0x20 DUP6 ADD PUSH1 0x20 DUP4 ADD MCOPY PUSH0 SWAP2 DUP2 ADD PUSH1 0x20 ADD SWAP2 SWAP1 SWAP2 MSTORE SWAP4 SWAP3 POP POP POP JUMP JUMPDEST PUSH0 PUSH0 PUSH1 0x40 DUP4 DUP6 SUB SLT ISZERO PUSH2 0x114 JUMPI PUSH0 PUSH0 REVERT JUMPDEST DUP3 MLOAD PUSH1 0x1 PUSH1 0x1 PUSH1 0x40 SHL SUB DUP2 GT ISZERO PUSH2 0x129 JUMPI PUSH0 PUSH0 REVERT JUMPDEST PUSH2 0x135 DUP6 DUP3 DUP7 ADD PUSH2 0x7A JUMP JUMPDEST PUSH1 0x20 DUP6 ADD MLOAD SWAP1 SWAP4 POP SWAP1 POP PUSH1 0x1 PUSH1 0x1 PUSH1 0x40 SHL SUB DUP2 GT ISZERO PUSH2 0x152 JUMPI PUSH0 PUSH0 REVERT JUMPDEST PUSH2 0x15E DUP6 DUP3 DUP7 ADD PUSH2 0x7A JUMP JUMPDEST SWAP2 POP POP SWAP3 POP SWAP3 SWAP1 POP JUMP JUMPDEST PUSH1 0x1 DUP2 DUP2 SHR SWAP1 DUP3 AND DUP1 PUSH2 0x17C JUMPI PUSH1 0x7F DUP3 AND SWAP2 POP JUMPDEST PUSH1 0x20 DUP3 LT DUP2 SUB PUSH2 0x19A JUMPI PUSH4 0x4E487B71 PUSH1 0xE0 SHL PUSH0 MSTORE PUSH1 0x22 PUSH1 0x4 MSTORE PUSH1 0x24 PUSH0 REVERT JUMPDEST POP SWAP2 SWAP1 POP JUMP JUMPDEST PUSH1 0x1F DUP3 GT ISZERO PUSH2 0x1E7 JUMPI DUP1 PUSH0 MSTORE PUSH1 0x20 PUSH0 KECCAK256 PUSH1 0x1F DUP5 ADD PUSH1 0x5 SHR DUP2 ADD PUSH1 0x20 DUP6 LT ISZERO PUSH2 0x1C5 JUMPI POP DUP1 JUMPDEST PUSH1 0x1F DUP5 ADD PUSH1 0x5 SHR DUP3 ADD SWAP2 POP JUMPDEST DUP2 DUP2 LT ISZERO PUSH2 0x1E4 JUMPI PUSH0 DUP2 SSTORE PUSH1 0x1 ADD PUSH2 0x1D1 JUMP JUMPDEST POP POP JUMPDEST POP POP POP JUMP JUMPDEST DUP2 MLOAD PUSH1 0x1 PUSH1 0x1 PUSH1 0x40 SHL SUB DUP2 GT ISZERO PUSH2 0x205 JUMPI PUSH2 0x205 PUSH2 0x66 JUMP JUMPDEST PUSH2 0x219 DUP2 PUSH2 0x213 DUP5 SLOAD PUSH2 0x168 JUMP JUMPDEST DUP5 PUSH2 0x1A0 JUMP JUMPDEST PUSH1 0x20 PUSH1 0x1F DUP3 GT PUSH1 0x1 DUP2 EQ PUSH2 0x24B JUMPI PUSH0 DUP4 ISZERO PUSH2 0x234 JUMPI POP DUP5 DUP3 ADD MLOAD JUMPDEST PUSH0 NOT PUSH1 0x3 DUP6 SWAP1 SHL SHR NOT AND PUSH1 0x1 DUP5 SWAP1 SHL OR DUP5 SSTORE PUSH2 0x1E4 JUMP JUMPDEST PUSH0 DUP5 DUP2 MSTORE PUSH1 0x20 DUP2 KECCAK256 PUSH1 0x1F NOT DUP6 AND SWAP2 JUMPDEST DUP3 DUP2 LT ISZERO PUSH2 0x27A JUMPI DUP8 DUP6 ADD MLOAD DUP3 SSTORE PUSH1 0x20 SWAP5 DUP6 ADD SWAP5 PUSH1 0x1 SWAP1 SWAP3 ADD SWAP2 ADD PUSH2 0x25A JUMP JUMPDEST POP DUP5 DUP3 LT ISZERO PUSH2 0x297 JUMPI DUP7 DUP5 ADD MLOAD PUSH0 NOT PUSH1 0x3 DUP8 SWAP1 SHL PUSH1 0xF8 AND SHR NOT AND DUP2 SSTORE JUMPDEST POP POP POP POP PUSH1 0x1 SWAP1 DUP2 SHL ADD SWAP1 SSTORE POP JUMP JUMPDEST PUSH2 0x87A DUP1 PUSH2 0x2B3 PUSH0 CODECOPY PUSH0 RETURN INVALID PUSH1 0x80 PUSH1 0x40 MSTORE CALLVALUE DUP1 ISZERO PUSH2 0xF JUMPI PUSH0 PUSH0 REVERT JUMPDEST POP PUSH1 0x4 CALLDATASIZE LT PUSH2 0xB1 JUMPI PUSH0 CALLDATALOAD PUSH1 0xE0 SHR DUP1 PUSH4 0x70A08231 GT PUSH2 0x6E JUMPI DUP1 PUSH4 0x70A08231 EQ PUSH2 0x13F JUMPI DUP1 PUSH4 0x95D89B41 EQ PUSH2 0x167 JUMPI DUP1 PUSH4 0x9DC29FAC EQ PUSH2 0x16F JUMPI DUP1 PUSH4 0xA9059CBB EQ PUSH2 0x182 JUMPI DUP1 PUSH4 0xC1FC006A EQ PUSH2 0x195 JUMPI DUP1 PUSH4 0xDD62ED3E EQ PUSH2 0x1C0 JUMPI PUSH0 PUSH0 REVERT JUMPDEST DUP1 PUSH4 0x6FDDE03 EQ PUSH2 0xB5 JUMPI DUP1 PUSH4 0x95EA7B3 EQ PUSH2 0xD3 JUMPI DUP1 PUSH4 0x18160DDD EQ PUSH2 0xF6 JUMPI DUP1 PUSH4 0x23B872DD EQ PUSH2 0x108 JUMPI DUP1 PUSH4 0x313CE567 EQ PUSH2 0x11B JUMPI DUP1 PUSH4 0x40C10F19 EQ PUSH2 0x12A JUMPI JUMPDEST PUSH0 PUSH0 REVERT JUMPDEST PUSH2 0xBD PUSH2 0x1F8 JUMP JUMPDEST PUSH1 0x40 MLOAD PUSH2 0xCA SWAP2 SWAP1 PUSH2 0x6A0 JUMP JUMPDEST PUSH1 0x40 MLOAD DUP1 SWAP2 SUB SWAP1 RETURN JUMPDEST PUSH2 0xE6 PUSH2 0xE1 CALLDATASIZE PUSH1 0x4 PUSH2 0x6F0 JUMP JUMPDEST PUSH2 0x288 JUMP JUMPDEST PUSH1 0x40 MLOAD SWAP1 ISZERO ISZERO DUP2 MSTORE PUSH1 0x20 ADD PUSH2 0xCA JUMP JUMPDEST PUSH1 0x2 SLOAD JUMPDEST PUSH1 0x40 MLOAD SWAP1 DUP2 MSTORE PUSH1 0x20 ADD PUSH2 0xCA JUMP JUMPDEST PUSH2 0xE6 PUSH2 0x116 CALLDATASIZE PUSH1 0x4 PUSH2 0x718 JUMP JUMPDEST PUSH2 0x2A1 JUMP JUMPDEST PUSH1 0x40 MLOAD PUSH1 0x12 DUP2 MSTORE PUSH1 0x20 ADD PUSH2 0xCA JUMP JUMPDEST PUSH2 0x13D PUSH2 0x138 CALLDATASIZE PUSH1 0x4 PUSH2 0x6F0 JUMP JUMPDEST PUSH2 0x2C4 JUMP JUMPDEST STOP JUMPDEST PUSH2 0xFA PUSH2 0x14D CALLDATASIZE PUSH1 0x4 PUSH2 0x752 JUMP JUMPDEST PUSH1 0x1 PUSH1 0x1 PUSH1 0xA0 SHL SUB AND PUSH0 SWAP1 DUP2 MSTORE PUSH1 0x20 DUP2 SWAP1 MSTORE PUSH1 0x40 SWAP1 KECCAK256 SLOAD SWAP1 JUMP JUMPDEST PUSH2 0xBD PUSH2 0x305 JUMP JUMPDEST PUSH2 0x13D PUSH2 0x17D CALLDATASIZE PUSH1 0x4 PUSH2 0x6F0 JUMP JUMPDEST PUSH2 0x314 JUMP JUMPDEST PUSH2 0xE6 PUSH2 0x190 CALLDATASIZE PUSH1 0x4 PUSH2 0x6F0 JUMP JUMPDEST PUSH2 0x348 JUMP JUMPDEST PUSH1 0x5 SLOAD PUSH2 0x1A8 SWAP1 PUSH1 0x1 PUSH1 0x1 PUSH1 0xA0 SHL SUB AND DUP2 JUMP JUMPDEST PUSH1 0x40 MLOAD PUSH1 0x1 PUSH1 0x1 PUSH1 0xA0 SHL SUB SWAP1 SWAP2 AND DUP2 MSTORE PUSH1 0x20 ADD PUSH2 0xCA JUMP JUMPDEST PUSH2 0xFA PUSH2 0x1CE CALLDATASIZE PUSH1 0x4 PUSH2 0x772 JUMP JUMPDEST PUSH1 0x1 PUSH1 0x1 PUSH1 0xA0 SHL SUB SWAP2 DUP3 AND PUSH0 SWAP1 DUP2 MSTORE PUSH1 0x1 PUSH1 0x20 SWAP1 DUP2 MSTORE PUSH1 0x40 DUP1 DUP4 KECCAK256 SWAP4 SWAP1 SWAP5 AND DUP3 MSTORE SWAP2 SWAP1 SWAP2 MSTORE KECCAK256 SLOAD SWAP1 JUMP JUMPDEST PUSH1 0x60 PUSH1 0x3 DUP1 SLOAD PUSH2 0x207 SWAP1 PUSH2 0x7A3 JUMP JUMPDEST DUP1 PUSH1 0x1F ADD PUSH1 0x20 DUP1 SWAP2 DIV MUL PUSH1 0x20 ADD PUSH1 0x40 MLOAD SWAP1 DUP2 ADD PUSH1 0x40 MSTORE DUP1 SWAP3 SWAP2 SWAP1 DUP2 DUP2 MSTORE PUSH1 0x20 ADD DUP3 DUP1 SLOAD PUSH2 0x233 SWAP1 PUSH2 0x7A3 JUMP JUMPDEST DUP1 ISZERO PUSH2 0x27E JUMPI DUP1 PUSH1 0x1F LT PUSH2 0x255 JUMPI PUSH2 0x100 DUP1 DUP4 SLOAD DIV MUL DUP4 MSTORE SWAP2 PUSH1 0x20 ADD SWAP2 PUSH2 0x27E JUMP JUMPDEST DUP3 ADD SWAP2 SWAP1 PUSH0 MSTORE PUSH1 0x20 PUSH0 KECCAK256 SWAP1 JUMPDEST DUP2 SLOAD DUP2 MSTORE SWAP1 PUSH1 0x1 ADD SWAP1 PUSH1 0x20 ADD DUP1 DUP4 GT PUSH2 0x261 JUMPI DUP3 SWAP1 SUB PUSH1 0x1F AND DUP3 ADD SWAP2 JUMPDEST POP POP POP POP POP SWAP1 POP SWAP1 JUMP JUMPDEST PUSH0 CALLER PUSH2 0x295 DUP2 DUP6 DUP6 PUSH2 0x355 JUMP JUMPDEST PUSH1 0x1 SWAP2 POP POP JUMPDEST SWAP3 SWAP2 POP POP JUMP JUMPDEST PUSH0 CALLER PUSH2 0x2AE DUP6 DUP3 DUP6 PUSH2 0x367 JUMP JUMPDEST PUSH2 0x2B9 DUP6 DUP6 DUP6 PUSH2 0x3E3 JUMP JUMPDEST POP PUSH1 0x1 SWAP5 SWAP4 POP POP POP POP JUMP JUMPDEST PUSH1 0x5 SLOAD PUSH1 0x1 PUSH1 0x1 PUSH1 0xA0 SHL SUB AND CALLER EQ PUSH2 0x2F7 JUMPI PUSH1 0x40 MLOAD PUSH3 0x461BCD PUSH1 0xE5 SHL DUP2 MSTORE PUSH1 0x4 ADD PUSH2 0x2EE SWAP1 PUSH2 0x7DB JUMP JUMPDEST PUSH1 0x40 MLOAD DUP1 SWAP2 SUB SWAP1 REVERT JUMPDEST PUSH2 0x301 DUP3 DUP3 PUSH2 0x440 JUMP JUMPDEST POP POP JUMP JUMPDEST PUSH1 0x60 PUSH1 0x4 DUP1 SLOAD PUSH2 0x207 SWAP1 PUSH2 0x7A3 JUMP JUMPDEST PUSH1 0x5 SLOAD PUSH1 0x1 PUSH1 0x1 PUSH1 0xA0 SHL SUB AND CALLER EQ PUSH2 0x33E JUMPI PUSH1 0x40 MLOAD PUSH3 0x461BCD PUSH1 0xE5 SHL DUP2 MSTORE PUSH1 0x4 ADD PUSH2 0x2EE SWAP1 PUSH2 0x7DB JUMP JUMPDEST PUSH2 0x301 DUP3 DUP3 PUSH2 0x474 JUMP JUMPDEST PUSH0 CALLER PUSH2 0x295 DUP2 DUP6 DUP6 PUSH2 0x3E3 JUMP JUMPDEST PUSH2 0x362 DUP4 DUP4 DUP4 PUSH1 0x1 PUSH2 0x4A8 JUMP JUMPDEST POP POP POP JUMP JUMPDEST PUSH1 0x1 PUSH1 0x1 PUSH1 0xA0 SHL SUB DUP4 DUP2 AND PUSH0 SWAP1 DUP2 MSTORE PUSH1 0x1 PUSH1 0x20 SWAP1 DUP2 MSTORE PUSH1 0x40 DUP1 DUP4 KECCAK256 SWAP4 DUP7 AND DUP4 MSTORE SWAP3 SWAP1 MSTORE KECCAK256 SLOAD PUSH0 NOT DUP2 LT ISZERO PUSH2 0x3DD JUMPI DUP2 DUP2 LT ISZERO PUSH2 0x3CF JUMPI PUSH1 0x40 MLOAD PUSH4 0x7DC7A0D9 PUSH1 0xE1 SHL DUP2 MSTORE PUSH1 0x1 PUSH1 0x1 PUSH1 0xA0 SHL SUB DUP5 AND PUSH1 0x4 DUP3 ADD MSTORE PUSH1 0x24 DUP2 ADD DUP3 SWAP1 MSTORE PUSH1 0x44 DUP2 ADD DUP4 SWAP1 MSTORE PUSH1 0x64 ADD PUSH2 0x2EE JUMP JUMPDEST PUSH2 0x3DD DUP5 DUP5 DUP5 DUP5 SUB PUSH0 PUSH2 0x4A8 JUMP JUMPDEST POP POP POP POP JUMP JUMPDEST PUSH1 0x1 PUSH1 0x1 PUSH1 0xA0 SHL SUB DUP4 AND PUSH2 0x40C JUMPI PUSH1 0x40 MLOAD PUSH4 0x4B637E8F PUSH1 0xE1 SHL DUP2 MSTORE PUSH0 PUSH1 0x4 DUP3 ADD MSTORE PUSH1 0x24 ADD PUSH2 0x2EE JUMP JUMPDEST PUSH1 0x1 PUSH1 0x1 PUSH1 0xA0 SHL SUB DUP3 AND PUSH2 0x435 JUMPI PUSH1 0x40 MLOAD PUSH4 0xEC442F05 PUSH1 0xE0 SHL DUP2 MSTORE PUSH0 PUSH1 0x4 DUP3 ADD MSTORE PUSH1 0x24 ADD PUSH2 0x2EE JUMP JUMPDEST PUSH2 0x362 DUP4 DUP4 DUP4 PUSH2 0x57A JUMP JUMPDEST PUSH1 0x1 PUSH1 0x1 PUSH1 0xA0 SHL SUB DUP3 AND PUSH2 0x469 JUMPI PUSH1 0x40 MLOAD PUSH4 0xEC442F05 PUSH1 0xE0 SHL DUP2 MSTORE PUSH0 PUSH1 0x4 DUP3 ADD MSTORE PUSH1 0x24 ADD PUSH2 0x2EE JUMP JUMPDEST PUSH2 0x301 PUSH0 DUP4 DUP4 PUSH2 0x57A JUMP JUMPDEST PUSH1 0x1 PUSH1 0x1 PUSH1 0xA0 SHL SUB DUP3 AND PUSH2 0x49D JUMPI PUSH1 0x40 MLOAD PUSH4 0x4B637E8F PUSH1 0xE1 SHL DUP2 MSTORE PUSH0 PUSH1 0x4 DUP3 ADD MSTORE PUSH1 0x24 ADD PUSH2 0x2EE JUMP JUMPDEST PUSH2 0x301 DUP3 PUSH0 DUP4 PUSH2 0x57A JUMP JUMPDEST PUSH1 0x1 PUSH1 0x1 PUSH1 0xA0 SHL SUB DUP5 AND PUSH2 0x4D1 JUMPI PUSH1 0x40 MLOAD PUSH4 0xE602DF05 PUSH1 0xE0 SHL DUP2 MSTORE PUSH0 PUSH1 0x4 DUP3 ADD MSTORE PUSH1 0x24 ADD PUSH2 0x2EE JUMP JUMPDEST PUSH1 0x1 PUSH1 0x1 PUSH1 0xA0 SHL SUB DUP4 AND PUSH2 0x4FA JUMPI PUSH1 0x40 MLOAD PUSH4 0x4A1406B1 PUSH1 0xE1 SHL DUP2 MSTORE PUSH0 PUSH1 0x4 DUP3 ADD MSTORE PUSH1 0x24 ADD PUSH2 0x2EE JUMP JUMPDEST PUSH1 0x1 PUSH1 0x1 PUSH1 0xA0 SHL SUB DUP1 DUP6 AND PUSH0 SWAP1 DUP2 MSTORE PUSH1 0x1 PUSH1 0x20 SWAP1 DUP2 MSTORE PUSH1 0x40 DUP1 DUP4 KECCAK256 SWAP4 DUP8 AND DUP4 MSTORE SWAP3 SWAP1 MSTORE KECCAK256 DUP3 SWAP1 SSTORE DUP1 ISZERO PUSH2 0x3DD JUMPI DUP3 PUSH1 0x1 PUSH1 0x1 PUSH1 0xA0 SHL SUB AND DUP5 PUSH1 0x1 PUSH1 0x1 PUSH1 0xA0 SHL SUB AND PUSH32 0x8C5BE1E5EBEC7D5BD14F71427D1E84F3DD0314C0F7B2291E5B200AC8C7C3B925 DUP5 PUSH1 0x40 MLOAD PUSH2 0x56C SWAP2 DUP2 MSTORE PUSH1 0x20 ADD SWAP1 JUMP JUMPDEST PUSH1 0x40 MLOAD DUP1 SWAP2 SUB SWAP1 LOG3 POP POP POP POP JUMP JUMPDEST PUSH1 0x1 PUSH1 0x1 PUSH1 0xA0 SHL SUB DUP4 AND PUSH2 0x5A4 JUMPI DUP1 PUSH1 0x2 PUSH0 DUP3 DUP3 SLOAD PUSH2 0x599 SWAP2 SWAP1 PUSH2 0x825 JUMP JUMPDEST SWAP1 SWAP2 SSTORE POP PUSH2 0x614 SWAP1 POP JUMP JUMPDEST PUSH1 0x1 PUSH1 0x1 PUSH1 0xA0 SHL SUB DUP4 AND PUSH0 SWAP1 DUP2 MSTORE PUSH1 0x20 DUP2 SWAP1 MSTORE PUSH1 0x40 SWAP1 KECCAK256 SLOAD DUP2 DUP2 LT ISZERO PUSH2 0x5F6 JUMPI PUSH1 0x40 MLOAD PUSH4 0x391434E3 PUSH1 0xE2 SHL DUP2 MSTORE PUSH1 0x1 PUSH1 0x1 PUSH1 0xA0 SHL SUB DUP6 AND PUSH1 0x4 DUP3 ADD MSTORE PUSH1 0x24 DUP2 ADD DUP3 SWAP1 MSTORE PUSH1 0x44 DUP2 ADD DUP4 SWAP1 MSTORE PUSH1 0x64 ADD PUSH2 0x2EE JUMP JUMPDEST PUSH1 0x1 PUSH1 0x1 PUSH1 0xA0 SHL SUB DUP5 AND PUSH0 SWAP1 DUP2 MSTORE PUSH1 0x20 DUP2 SWAP1 MSTORE PUSH1 0x40 SWAP1 KECCAK256 SWAP1 DUP3 SWAP1 SUB SWAP1 SSTORE JUMPDEST PUSH1 0x1 PUSH1 0x1 PUSH1 0xA0 SHL SUB DUP3 AND PUSH2 0x630 JUMPI PUSH1 0x2 DUP1 SLOAD DUP3 SWAP1 SUB SWAP1 SSTORE PUSH2 0x64E JUMP JUMPDEST PUSH1 0x1 PUSH1 0x1 PUSH1 0xA0 SHL SUB DUP3 AND PUSH0 SWAP1 DUP2 MSTORE PUSH1 0x20 DUP2 SWAP1 MSTORE PUSH1 0x40 SWAP1 KECCAK256 DUP1 SLOAD DUP3 ADD SWAP1 SSTORE JUMPDEST DUP2 PUSH1 0x1 PUSH1 0x1 PUSH1 0xA0 SHL SUB AND DUP4 PUSH1 0x1 PUSH1 0x1 PUSH1 0xA0 SHL SUB AND PUSH32 0xDDF252AD1BE2C89B69C2B068FC378DAA952BA7F163C4A11628F55A4DF523B3EF DUP4 PUSH1 0x40 MLOAD PUSH2 0x693 SWAP2 DUP2 MSTORE PUSH1 0x20 ADD SWAP1 JUMP JUMPDEST PUSH1 0x40 MLOAD DUP1 SWAP2 SUB SWAP1 LOG3 POP POP POP JUMP JUMPDEST PUSH1 0x20 DUP2 MSTORE PUSH0 DUP3 MLOAD DUP1 PUSH1 0x20 DUP5 ADD MSTORE DUP1 PUSH1 0x20 DUP6 ADD PUSH1 0x40 DUP6 ADD MCOPY PUSH0 PUSH1 0x40 DUP3 DUP6 ADD ADD MSTORE PUSH1 0x40 PUSH1 0x1F NOT PUSH1 0x1F DUP4 ADD AND DUP5 ADD ADD SWAP2 POP POP SWAP3 SWAP2 POP POP JUMP JUMPDEST DUP1 CALLDATALOAD PUSH1 0x1 PUSH1 0x1 PUSH1 0xA0 SHL SUB DUP2 AND DUP2 EQ PUSH2 0x6EB JUMPI PUSH0 PUSH0 REVERT JUMPDEST SWAP2 SWAP1 POP JUMP JUMPDEST PUSH0 PUSH0 PUSH1 0x40 DUP4 DUP6 SUB SLT ISZERO PUSH2 0x701 JUMPI PUSH0 PUSH0 REVERT JUMPDEST PUSH2 0x70A DUP4 PUSH2 0x6D5 JUMP JUMPDEST SWAP5 PUSH1 0x20 SWAP4 SWAP1 SWAP4 ADD CALLDATALOAD SWAP4 POP POP POP JUMP JUMPDEST PUSH0 PUSH0 PUSH0 PUSH1 0x60 DUP5 DUP7 SUB SLT ISZERO PUSH2 0x72A JUMPI PUSH0 PUSH0 REVERT JUMPDEST PUSH2 0x733 DUP5 PUSH2 0x6D5 JUMP JUMPDEST SWAP3 POP PUSH2 0x741 PUSH1 0x20 DUP6 ADD PUSH2 0x6D5 JUMP JUMPDEST SWAP3 SWAP6 SWAP3 SWAP5 POP POP POP PUSH1 0x40 SWAP2 SWAP1 SWAP2 ADD CALLDATALOAD SWAP1 JUMP JUMPDEST PUSH0 PUSH1 0x20 DUP3 DUP5 SUB SLT ISZERO PUSH2 0x762 JUMPI PUSH0 PUSH0 REVERT JUMPDEST PUSH2 0x76B DUP3 PUSH2 0x6D5 JUMP JUMPDEST SWAP4 SWAP3 POP POP POP JUMP JUMPDEST PUSH0 PUSH0 PUSH1 0x40 DUP4 DUP6 SUB SLT ISZERO PUSH2 0x783 JUMPI PUSH0 PUSH0 REVERT JUMPDEST PUSH2 0x78C DUP4 PUSH2 0x6D5 JUMP JUMPDEST SWAP2 POP PUSH2 0x79A PUSH1 0x20 DUP5 ADD PUSH2 0x6D5 JUMP JUMPDEST SWAP1 POP SWAP3 POP SWAP3 SWAP1 POP JUMP JUMPDEST PUSH1 0x1 DUP2 DUP2 SHR SWAP1 DUP3 AND DUP1 PUSH2 0x7B7 JUMPI PUSH1 0x7F DUP3 AND SWAP2 POP JUMPDEST PUSH1 0x20 DUP3 LT DUP2 SUB PUSH2 0x7D5 JUMPI PUSH4 0x4E487B71 PUSH1 0xE0 SHL PUSH0 MSTORE PUSH1 0x22 PUSH1 0x4 MSTORE PUSH1 0x24 PUSH0 REVERT JUMPDEST POP SWAP2 SWAP1 POP JUMP JUMPDEST PUSH1 0x20 DUP1 DUP3 MSTORE PUSH1 0x2A SWAP1 DUP3 ADD MSTORE PUSH32 0x4E6F206175746F72697A61646F3A20736F6C6F20656C2073697374656D612064 PUSH1 0x40 DUP3 ADD MSTORE PUSH10 0x32903B37BA30B1B4B7B7 PUSH1 0xB1 SHL PUSH1 0x60 DUP3 ADD MSTORE PUSH1 0x80 ADD SWAP1 JUMP JUMPDEST DUP1 DUP3 ADD DUP1 DUP3 GT ISZERO PUSH2 0x29B JUMPI PUSH4 0x4E487B71 PUSH1 0xE0 SHL PUSH0 MSTORE PUSH1 0x11 PUSH1 0x4 MSTORE PUSH1 0x24 PUSH0 REVERT INVALID LOG2 PUSH5 0x6970667358 0x22 SLT KECCAK256 0xC8 0xAD EXTSTATICCALL 0xED PUSH6 0x1297E45261E9 0xE9 DUP5 DUP8 RJUMP 0x266C 0xCD PUSH22 0x226D91C9EB754095A73C67F3AF64736F6C634300081F STOP CALLER "
				},
				"gasEstimates": {
					"creation": {
						"codeDepositCost": "1785000",
						"executionCost": "infinite",
						"totalCost": "infinite"
					},
					"external": {
						"addParticipant()": "infinite",
						"addProposal(string,string,uint256,address)": "infinite",
						"buyTokens()": "infinite",
						"cancelProposal(uint256)": "infinite",
						"closeVoting()": "infinite",
						"getApprovedProposals()": "infinite",
						"getERC20()": "2342",
						"getPendingProposals()": "infinite",
						"getProposalInfo(uint256)": "infinite",
						"getSignalingProposals()": "infinite",
						"isParticipant(address)": "2661",
						"numParticipants()": "2428",
						"numPendingProposals()": "2360",
						"openVoting()": "51934",
						"owner()": "2424",
						"proposals(uint256)": "infinite",
						"removeParticipant()": "51008",
						"sellTokens(uint256)": "infinite",
						"stake(uint256,uint256)": "infinite",
						"token()": "2446",
						"tokenPriceWei()": "2340",
						"totalBudget()": "2316",
						"userVotesInProposal(uint256,address)": "2681",
						"votingOpen()": "2376"
					},
					"internal": {
						"_checkAndExecuteProposal(uint256)": "infinite",
						"_getProposalsByStatus(enum QuadraticVoting.ProposalStatus,bool)": "infinite",
						"_returnTokensToVoters(uint256)": "infinite"
					}
				},
				"methodIdentifiers": {
					"addParticipant()": "fffefd91",
					"addProposal(string,string,uint256,address)": "9ab3f7a6",
					"buyTokens()": "d0febe4c",
					"cancelProposal(uint256)": "e0a8f6f5",
					"closeVoting()": "c631b292",
					"getApprovedProposals()": "3ac0feac",
					"getERC20()": "4ece90a8",
					"getPendingProposals()": "a80db6fc",
					"getProposalInfo(uint256)": "bc903cb8",
					"getSignalingProposals()": "8e08a50b",
					"isParticipant(address)": "929066f5",
					"numParticipants()": "4e76a846",
					"numPendingProposals()": "da52a95f",
					"openVoting()": "affc0670",
					"owner()": "8da5cb5b",
					"proposals(uint256)": "013cf08b",
					"removeParticipant()": "3d571e97",
					"sellTokens(uint256)": "6c11bcd3",
					"stake(uint256,uint256)": "7b0472f0",
					"token()": "fc0c546a",
					"tokenPriceWei()": "05d0f15b",
					"totalBudget()": "c78da39a",
					"userVotesInProposal(uint256,address)": "2e60338a",
					"votingOpen()": "a95824b4"
				}
			},
			"storageLayout": {
				"storage": [
					{
						"astId": 1134,
						"contract": "src/QuadraticVoting.sol:QuadraticVoting",
						"label": "owner",
						"offset": 0,
						"slot": "0",
						"type": "t_address"
					},
					{
						"astId": 1137,
						"contract": "src/QuadraticVoting.sol:QuadraticVoting",
						"label": "token",
						"offset": 0,
						"slot": "1",
						"type": "t_contract(GovernanceToken)1074"
					},
					{
						"astId": 1139,
						"contract": "src/QuadraticVoting.sol:QuadraticVoting",
						"label": "tokenPriceWei",
						"offset": 0,
						"slot": "2",
						"type": "t_uint256"
					},
					{
						"astId": 1141,
						"contract": "src/QuadraticVoting.sol:QuadraticVoting",
						"label": "totalBudget",
						"offset": 0,
						"slot": "3",
						"type": "t_uint256"
					},
					{
						"astId": 1143,
						"contract": "src/QuadraticVoting.sol:QuadraticVoting",
						"label": "votingOpen",
						"offset": 0,
						"slot": "4",
						"type": "t_bool"
					},
					{
						"astId": 1145,
						"contract": "src/QuadraticVoting.sol:QuadraticVoting",
						"label": "numParticipants",
						"offset": 0,
						"slot": "5",
						"type": "t_uint256"
					},
					{
						"astId": 1147,
						"contract": "src/QuadraticVoting.sol:QuadraticVoting",
						"label": "numPendingProposals",
						"offset": 0,
						"slot": "6",
						"type": "t_uint256"
					},
					{
						"astId": 1149,
						"contract": "src/QuadraticVoting.sol:QuadraticVoting",
						"label": "nextProposalId",
						"offset": 0,
						"slot": "7",
						"type": "t_uint256"
					},
					{
						"astId": 1178,
						"contract": "src/QuadraticVoting.sol:QuadraticVoting",
						"label": "proposals",
						"offset": 0,
						"slot": "8",
						"type": "t_mapping(t_uint256,t_struct(Proposal)1173_storage)"
					},
					{
						"astId": 1184,
						"contract": "src/QuadraticVoting.sol:QuadraticVoting",
						"label": "userVotesInProposal",
						"offset": 0,
						"slot": "9",
						"type": "t_mapping(t_uint256,t_mapping(t_address,t_uint256))"
					},
					{
						"astId": 1189,
						"contract": "src/QuadraticVoting.sol:QuadraticVoting",
						"label": "proposalVoters",
						"offset": 0,
						"slot": "10",
						"type": "t_mapping(t_uint256,t_array(t_address)dyn_storage)"
					},
					{
						"astId": 1193,
						"contract": "src/QuadraticVoting.sol:QuadraticVoting",
						"label": "isParticipant",
						"offset": 0,
						"slot": "11",
						"type": "t_mapping(t_address,t_bool)"
					}
				],
				"types": {
					"t_address": {
						"encoding": "inplace",
						"label": "address",
						"numberOfBytes": "20"
					},
					"t_array(t_address)dyn_storage": {
						"base": "t_address",
						"encoding": "dynamic_array",
						"label": "address[]",
						"numberOfBytes": "32"
					},
					"t_bool": {
						"encoding": "inplace",
						"label": "bool",
						"numberOfBytes": "1"
					},
					"t_contract(GovernanceToken)1074": {
						"encoding": "inplace",
						"label": "contract GovernanceToken",
						"numberOfBytes": "20"
					},
					"t_enum(ProposalStatus)1153": {
						"encoding": "inplace",
						"label": "enum QuadraticVoting.ProposalStatus",
						"numberOfBytes": "1"
					},
					"t_mapping(t_address,t_bool)": {
						"encoding": "mapping",
						"key": "t_address",
						"label": "mapping(address => bool)",
						"numberOfBytes": "32",
						"value": "t_bool"
					},
					"t_mapping(t_address,t_uint256)": {
						"encoding": "mapping",
						"key": "t_address",
						"label": "mapping(address => uint256)",
						"numberOfBytes": "32",
						"value": "t_uint256"
					},
					"t_mapping(t_uint256,t_array(t_address)dyn_storage)": {
						"encoding": "mapping",
						"key": "t_uint256",
						"label": "mapping(uint256 => address[])",
						"numberOfBytes": "32",
						"value": "t_array(t_address)dyn_storage"
					},
					"t_mapping(t_uint256,t_mapping(t_address,t_uint256))": {
						"encoding": "mapping",
						"key": "t_uint256",
						"label": "mapping(uint256 => mapping(address => uint256))",
						"numberOfBytes": "32",
						"value": "t_mapping(t_address,t_uint256)"
					},
					"t_mapping(t_uint256,t_struct(Proposal)1173_storage)": {
						"encoding": "mapping",
						"key": "t_uint256",
						"label": "mapping(uint256 => struct QuadraticVoting.Proposal)",
						"numberOfBytes": "32",
						"value": "t_struct(Proposal)1173_storage"
					},
					"t_string_storage": {
						"encoding": "bytes",
						"label": "string",
						"numberOfBytes": "32"
					},
					"t_struct(Proposal)1173_storage": {
						"encoding": "inplace",
						"label": "struct QuadraticVoting.Proposal",
						"members": [
							{
								"astId": 1155,
								"contract": "src/QuadraticVoting.sol:QuadraticVoting",
								"label": "title",
								"offset": 0,
								"slot": "0",
								"type": "t_string_storage"
							},
							{
								"astId": 1157,
								"contract": "src/QuadraticVoting.sol:QuadraticVoting",
								"label": "description",
								"offset": 0,
								"slot": "1",
								"type": "t_string_storage"
							},
							{
								"astId": 1159,
								"contract": "src/QuadraticVoting.sol:QuadraticVoting",
								"label": "requiredBudget",
								"offset": 0,
								"slot": "2",
								"type": "t_uint256"
							},
							{
								"astId": 1161,
								"contract": "src/QuadraticVoting.sol:QuadraticVoting",
								"label": "executableContract",
								"offset": 0,
								"slot": "3",
								"type": "t_address"
							},
							{
								"astId": 1164,
								"contract": "src/QuadraticVoting.sol:QuadraticVoting",
								"label": "status",
								"offset": 20,
								"slot": "3",
								"type": "t_enum(ProposalStatus)1153"
							},
							{
								"astId": 1166,
								"contract": "src/QuadraticVoting.sol:QuadraticVoting",
								"label": "totalVotes",
								"offset": 0,
								"slot": "4",
								"type": "t_uint256"
							},
							{
								"astId": 1168,
								"contract": "src/QuadraticVoting.sol:QuadraticVoting",
								"label": "totalTokensStaked",
								"offset": 0,
								"slot": "5",
								"type": "t_uint256"
							},
							{
								"astId": 1170,
								"contract": "src/QuadraticVoting.sol:QuadraticVoting",
								"label": "creator",
								"offset": 0,
								"slot": "6",
								"type": "t_address"
							},
							{
								"astId": 1172,
								"contract": "src/QuadraticVoting.sol:QuadraticVoting",
								"label": "isSignaling",
								"offset": 20,
								"slot": "6",
								"type": "t_bool"
							}
						],
						"numberOfBytes": "224"
					},
					"t_uint256": {
						"encoding": "inplace",
						"label": "uint256",
						"numberOfBytes": "32"
					}
				}
			},
			"userdoc": {
				"kind": "user",
				"methods": {},
				"version": 1
			}
		}
	}
}