{
	"src/GovernanceToken.sol": {
		"GovernanceToken": {
			"abi": [
				{
					"inputs": [
						{
							"internalType": "string",
							"name": "name",
							"type": "string"
						},
						{
							"internalType": "string",
							"name": "symbol",
							"type": "string"
						}
					],
					"stateMutability": "nonpayable",
					"type": "constructor"
				},
				{
					"inputs": [
						{
							"internalType": "address",
							"name": "spender",
							"type": "address"
						},
						{
							"internalType": "uint256",
							"name": "allowance",
							"type": "uint256"
						},
						{
							"internalType": "uint256",
							"name": "needed",
							"type": "uint256"
						}
					],
					"name": "ERC20InsufficientAllowance",
					"type": "error"
				},
				{
					"inputs": [
						{
							"internalType": "address",
							"name": "sender",
							"type": "address"
						},
						{
							"internalType": "uint256",
							"name": "balance",
							"type": "uint256"
						},
						{
							"internalType": "uint256",
							"name": "needed",
							"type": "uint256"
						}
					],
					"name": "ERC20InsufficientBalance",
					"type": "error"
				},
				{
					"inputs": [
						{
							"internalType": "address",
							"name": "approver",
							"type": "address"
						}
					],
					"name": "ERC20InvalidApprover",
					"type": "error"
				},
				{
					"inputs": [
						{
							"internalType": "address",
							"name": "receiver",
							"type": "address"
						}
					],
					"name": "ERC20InvalidReceiver",
					"type": "error"
				},
				{
					"inputs": [
						{
							"internalType": "address",
							"name": "sender",
							"type": "address"
						}
					],
					"name": "ERC20InvalidSender",
					"type": "error"
				},
				{
					"inputs": [
						{
							"internalType": "address",
							"name": "spender",
							"type": "address"
						}
					],
					"name": "ERC20InvalidSpender",
					"type": "error"
				},
				{
					"anonymous": false,
					"inputs": [
						{
							"indexed": true,
							"internalType": "address",
							"name": "owner",
							"type": "address"
						},
						{
							"indexed": true,
							"internalType": "address",
							"name": "spender",
							"type": "address"
						},
						{
							"indexed": false,
							"internalType": "uint256",
							"name": "value",
							"type": "uint256"
						}
					],
					"name": "Approval",
					"type": "event"
				},
				{
					"anonymous": false,
					"inputs": [
						{
							"indexed": true,
							"internalType": "address",
							"name": "from",
							"type": "address"
						},
						{
							"indexed": true,
							"internalType": "address",
							"name": "to",
							"type": "address"
						},
						{
							"indexed": false,
							"internalType": "uint256",
							"name": "value",
							"type": "uint256"
						}
					],
					"name": "Transfer",
					"type": "event"
				},
				{
					"inputs": [
						{
							"internalType": "address",
							"name": "owner",
							"type": "address"
						},
						{
							"internalType": "address",
							"name": "spender",
							"type": "address"
						}
					],
					"name": "allowance",
					"outputs": [
						{
							"internalType": "uint256",
							"name": "",
							"type": "uint256"
						}
					],
					"stateMutability": "view",
					"type": "function"
				},
				{
					"inputs": [
						{
							"internalType": "address",
							"name": "spender",
							"type": "address"
						},
						{
							"internalType": "uint256",
							"name": "value",
							"type": "uint256"
						}
					],
					"name": "approve",
					"outputs": [
						{
							"internalType": "bool",
							"name": "",
							"type": "bool"
						}
					],
					"stateMutability": "nonpayable",
					"type": "function"
				},
				{
					"inputs": [
						{
							"internalType": "address",
							"name": "account",
							"type": "address"
						}
					],
					"name": "balanceOf",
					"outputs": [
						{
							"internalType": "uint256",
							"name": "",
							"type": "uint256"
						}
					],
					"stateMutability": "view",
					"type": "function"
				},
				{
					"inputs": [
						{
							"internalType": "address",
							"name": "from",
							"type": "address"
						},
						{
							"internalType": "uint256",
							"name": "amount",
							"type": "uint256"
						}
					],
					"name": "burn",
					"outputs": [],
					"stateMutability": "nonpayable",
					"type": "function"
				},
				{
					"inputs": [],
					"name": "decimals",
					"outputs": [
						{
							"internalType": "uint8",
							"name": "",
							"type": "uint8"
						}
					],
					"stateMutability": "view",
					"type": "function"
				},
				{
					"inputs": [
						{
							"internalType": "address",
							"name": "to",
							"type": "address"
						},
						{
							"internalType": "uint256",
							"name": "amount",
							"type": "uint256"
						}
					],
					"name": "mint",
					"outputs": [],
					"stateMutability": "nonpayable",
					"type": "function"
				},
				{
					"inputs": [],
					"name": "name",
					"outputs": [
						{
							"internalType": "string",
							"name": "",
							"type": "string"
						}
					],
					"stateMutability": "view",
					"type": "function"
				},
				{
					"inputs": [],
					"name": "symbol",
					"outputs": [
						{
							"internalType": "string",
							"name": "",
							"type": "string"
						}
					],
					"stateMutability": "view",
					"type": "function"
				},
				{
					"inputs": [],
					"name": "totalSupply",
					"outputs": [
						{
							"internalType": "uint256",
							"name": "",
							"type": "uint256"
						}
					],
					"stateMutability": "view",
					"type": "function"
				},
				{
					"inputs": [
						{
							"internalType": "address",
							"name": "to",
							"type": "address"
						},
						{
							"internalType": "uint256",
							"name": "value",
							"type": "uint256"
						}
					],
					"name": "transfer",
					"outputs": [
						{
							"internalType": "bool",
							"name": "",
							"type": "bool"
						}
					],
					"stateMutability": "nonpayable",
					"type": "function"
				},
				{
					"inputs": [
						{
							"internalType": "address",
							"name": "from",
							"type": "address"
						},
						{
							"internalType": "address",
							"name": "to",
							"type": "address"
						},
						{
							"internalType": "uint256",
							"name": "value",
							"type": "uint256"
						}
					],
					"name": "transferFrom",
					"outputs": [
						{
							"internalType": "bool",
							"name": "",
							"type": "bool"
						}
					],
					"stateMutability": "nonpayable",
					"type": "function"
				},
				{
					"inputs": [],
					"name": "votingContract",
					"outputs": [
						{
							"internalType": "address",
							"name": "",
							"type": "address"
						}
					],
					"stateMutability": "view",
					"type": "function"
				}
			],
			"devdoc": {
				"errors": {
					"ERC20InsufficientAllowance(address,uint256,uint256)": [
						{
							"details": "Indicates a failure with the `spender`’s `allowance`. Used in transfers.",
							"params": {
								"allowance": "Amount of tokens a `spender` is allowed to operate with.",
								"needed": "Minimum amount required to perform a transfer.",
								"spender": "Address that may be allowed to operate on tokens without being their owner."
							}
						}
					],
					"ERC20InsufficientBalance(address,uint256,uint256)": [
						{
							"details": "Indicates an error related to the current `balance` of a `sender`. Used in transfers.",
							"params": {
								"balance": "Current balance for the interacting account.",
								"needed": "Minimum amount required to perform a transfer.",
								"sender": "Address whose tokens are being transferred."
							}
						}
					],
					"ERC20InvalidApprover(address)": [
						{
							"details": "Indicates a failure with the `approver` of a token to be approved. Used in approvals.",
							"params": {
								"approver": "Address initiating an approval operation."
							}
						}
					],
					"ERC20InvalidReceiver(address)": [
						{
							"details": "Indicates a failure with the token `receiver`. Used in transfers.",
							"params": {
								"receiver": "Address to which tokens are being transferred."
							}
						}
					],
					"ERC20InvalidSender(address)": [
						{
							"details": "Indicates a failure with the token `sender`. Used in transfers.",
							"params": {
								"sender": "Address whose tokens are being transferred."
							}
						}
					],
					"ERC20InvalidSpender(address)": [
						{
							"details": "Indicates a failure with the `spender` to be approved. Used in approvals.",
							"params": {
								"spender": "Address that may be allowed to operate on tokens without being their owner."
							}
						}
					]
				},
				"events": {
					"Approval(address,address,uint256)": {
						"details": "Emitted when the allowance of a `spender` for an `owner` is set by a call to {approve}. `value` is the new allowance."
					},
					"Transfer(address,address,uint256)": {
						"details": "Emitted when `value` tokens are moved from one account (`from`) to another (`to`). Note that `value` may be zero."
					}
				},
				"kind": "dev",
				"methods": {
					"allowance(address,address)": {
						"details": "Returns the remaining number of tokens that `spender` will be allowed to spend on behalf of `owner` through {transferFrom}. This is zero by default. This value changes when {approve} or {transferFrom} are called."
					},
					"approve(address,uint256)": {
						"details": "See {IERC20-approve}. NOTE: If `value` is the maximum `uint256`, the allowance is not updated on `transferFrom`. This is semantically equivalent to an infinite approval. Requirements: - `spender` cannot be the zero address."
					},
					"balanceOf(address)": {
						"details": "Returns the value of tokens owned by `account`."
					},
					"decimals()": {
						"details": "Returns the number of decimals used to get its user representation. For example, if `decimals` equals `2`, a balance of `505` tokens should be displayed to a user as `5.05` (`505 / 10 ** 2`). Tokens usually opt for a value of 18, imitating the relationship between Ether and Wei. This is the default value returned by this function, unless it's overridden. NOTE: This information is only used for _display_ purposes: it in no way affects any of the arithmetic of the contract, including {IERC20-balanceOf} and {IERC20-transfer}."
					},
					"name()": {
						"details": "Returns the name of the token."
					},
					"symbol()": {
						"details": "Returns the symbol of the token, usually a shorter version of the name."
					},
					"totalSupply()": {
						"details": "Returns the value of tokens in existence."
					},
					"transfer(address,uint256)": {
						"details": "See {IERC20-transfer}. Requirements: - `to` cannot be the zero address. - the caller must have a balance of at least `value`."
					},
					"transferFrom(address,address,uint256)": {
						"details": "See {IERC20-transferFrom}. Skips emitting an {Approval} event indicating an allowance update. This is not required by the ERC. See {xref-ERC20-_approve-address-address-uint256-bool-}[_approve]. NOTE: Does not update the allowance if the current allowance is the maximum `uint256`. Requirements: - `from` and `to` cannot be the zero address. - `from` must have a balance of at least `value`. - the caller must have allowance for ``from``'s tokens of at least `value`."
					}
				},
				"version": 1
			},
			"evm": {
				"assembly": "    /* \"src/GovernanceToken.sol\":119:926  contract GovernanceToken is ERC20 {... */\n  mstore(0x40, 0x80)\n    /* \"src/GovernanceToken.sol\":420:582  constructor(string memory name, string memory symbol) ERC20(name, symbol) {... */\n  callvalue\n  dup1\n  iszero\n  tag_1\n  jumpi\n  revert(0x00, 0x00)\ntag_1:\n  pop\n  mload(0x40)\n  sub(codesize, bytecodeSize)\n  dup1\n  bytecodeSize\n  dup4\n  codecopy\n  dup2\n  add\n  0x40\n  dup2\n  swap1\n  mstore\n  tag_2\n  swap2\n  tag_3\n  jump\t// in\ntag_2:\n    /* \"src/GovernanceToken.sol\":480:484  name */\n  dup2\n    /* \"src/GovernanceToken.sol\":486:492  symbol */\n  dup2\n    /* \"@openzeppelin/contracts/token/ERC20/ERC20.sol\":1648:1653  _name */\n  0x03\n    /* \"@openzeppelin/contracts/token/ERC20/ERC20.sol\":1648:1661  _name = name_ */\n  tag_7\n    /* \"src/GovernanceToken.sol\":480:484  name */\n  dup4\n    /* \"@openzeppelin/contracts/token/ERC20/ERC20.sol\":1648:1653  _name */\n  dup3\n    /* \"@openzeppelin/contracts/token/ERC20/ERC20.sol\":1648:1661  _name = name_ */\n  tag_8\n  jump\t// in\ntag_7:\n  pop\n    /* \"@openzeppelin/contracts/token/ERC20/ERC20.sol\":1671:1678  _symbol */\n  0x04\n    /* \"@openzeppelin/contracts/token/ERC20/ERC20.sol\":1671:1688  _symbol = symbol_ */\n  tag_9\n    /* \"@openzeppelin/contracts/token/ERC20/ERC20.sol\":1681:1688  symbol_ */\n  dup3\n    /* \"@openzeppelin/contracts/token/ERC20/ERC20.sol\":1671:1678  _symbol */\n  dup3\n    /* \"@openzeppelin/contracts/token/ERC20/ERC20.sol\":1671:1688  _symbol = symbol_ */\n  tag_8\n  jump\t// in\ntag_9:\n  pop\n  pop\n    /* \"src/GovernanceToken.sol\":505:519  votingContract */\n  0x05\n    /* \"src/GovernanceToken.sol\":505:532  votingContract = msg.sender */\n  dup1\n  sload\n  not(sub(shl(0xa0, 0x01), 0x01))\n  and\n    /* \"src/GovernanceToken.sol\":522:532  msg.sender */\n  caller\n    /* \"src/GovernanceToken.sol\":505:532  votingContract = msg.sender */\n  or\n  swap1\n  sstore\n  pop\n    /* \"src/GovernanceToken.sol\":119:926  contract GovernanceToken is ERC20 {... */\n  tag_18\n  swap2\n  pop\n  pop\n  jump\n    /* \"#utility.yul\":14:141   */\ntag_12:\n    /* \"#utility.yul\":75:85   */\n  0x4e487b71\n    /* \"#utility.yul\":70:73   */\n  0xe0\n    /* \"#utility.yul\":66:86   */\n  shl\n    /* \"#utility.yul\":63:64   */\n  0x00\n    /* \"#utility.yul\":56:87   */\n  mstore\n    /* \"#utility.yul\":106:110   */\n  0x41\n    /* \"#utility.yul\":103:104   */\n  0x04\n    /* \"#utility.yul\":96:111   */\n  mstore\n    /* \"#utility.yul\":130:134   */\n  0x24\n    /* \"#utility.yul\":127:128   */\n  0x00\n    /* \"#utility.yul\":120:135   */\n  revert\n    /* \"#utility.yul\":146:869   */\ntag_13:\n    /* \"#utility.yul\":200:205   */\n  0x00\n    /* \"#utility.yul\":253:256   */\n  dup3\n    /* \"#utility.yul\":246:250   */\n  0x1f\n    /* \"#utility.yul\":238:244   */\n  dup4\n    /* \"#utility.yul\":234:251   */\n  add\n    /* \"#utility.yul\":230:257   */\n  slt\n    /* \"#utility.yul\":220:275   */\n  tag_21\n  jumpi\n    /* \"#utility.yul\":271:272   */\n  0x00\n    /* \"#utility.yul\":268:269   */\n  0x00\n    /* \"#utility.yul\":261:273   */\n  revert\n    /* \"#utility.yul\":220:275   */\ntag_21:\n    /* \"#utility.yul\":298:311   */\n  dup2\n  mload\n  sub(shl(0x40, 0x01), 0x01)\n    /* \"#utility.yul\":323:353   */\n  dup2\n  gt\n    /* \"#utility.yul\":320:376   */\n  iszero\n  tag_23\n  jumpi\n    /* \"#utility.yul\":356:374   */\n  tag_23\n  tag_12\n  jump\t// in\ntag_23:\n    /* \"#utility.yul\":405:407   */\n  0x40\n    /* \"#utility.yul\":399:408   */\n  mload\n    /* \"#utility.yul\":497:499   */\n  0x1f\n    /* \"#utility.yul\":459:476   */\n  dup3\n  add\n  not(0x1f)\n    /* \"#utility.yul\":455:486   */\n  swap1\n  dup2\n  and\n    /* \"#utility.yul\":488:490   */\n  0x3f\n    /* \"#utility.yul\":451:491   */\n  add\n    /* \"#utility.yul\":447:501   */\n  and\n    /* \"#utility.yul\":435:502   */\n  dup2\n  add\n  sub(shl(0x40, 0x01), 0x01)\n    /* \"#utility.yul\":517:551   */\n  dup2\n  gt\n    /* \"#utility.yul\":553:575   */\n  dup3\n  dup3\n  lt\n    /* \"#utility.yul\":514:576   */\n  or\n    /* \"#utility.yul\":511:599   */\n  iszero\n  tag_25\n  jumpi\n    /* \"#utility.yul\":579:597   */\n  tag_25\n  tag_12\n  jump\t// in\ntag_25:\n    /* \"#utility.yul\":615:617   */\n  0x40\n    /* \"#utility.yul\":608:630   */\n  mstore\n    /* \"#utility.yul\":639:661   */\n  dup2\n  dup2\n  mstore\n    /* \"#utility.yul\":680:699   */\n  dup4\n  dup3\n  add\n    /* \"#utility.yul\":701:705   */\n  0x20\n    /* \"#utility.yul\":676:706   */\n  add\n    /* \"#utility.yul\":673:712   */\n  dup6\n  lt\n    /* \"#utility.yul\":670:729   */\n  iszero\n  tag_26\n  jumpi\n    /* \"#utility.yul\":725:726   */\n  0x00\n    /* \"#utility.yul\":722:723   */\n  0x00\n    /* \"#utility.yul\":715:727   */\n  revert\n    /* \"#utility.yul\":670:729   */\ntag_26:\n    /* \"#utility.yul\":782:788   */\n  dup2\n    /* \"#utility.yul\":775:779   */\n  0x20\n    /* \"#utility.yul\":767:773   */\n  dup6\n    /* \"#utility.yul\":763:780   */\n  add\n    /* \"#utility.yul\":756:760   */\n  0x20\n    /* \"#utility.yul\":748:754   */\n  dup4\n    /* \"#utility.yul\":744:761   */\n  add\n    /* \"#utility.yul\":738:789   */\n  mcopy\n    /* \"#utility.yul\":837:838   */\n  0x00\n    /* \"#utility.yul\":809:828   */\n  swap2\n  dup2\n  add\n    /* \"#utility.yul\":830:834   */\n  0x20\n    /* \"#utility.yul\":805:835   */\n  add\n    /* \"#utility.yul\":798:839   */\n  swap2\n  swap1\n  swap2\n  mstore\n    /* \"#utility.yul\":813:819   */\n  swap4\n    /* \"#utility.yul\":146:869   */\n  swap3\n  pop\n  pop\n  pop\n  jump\t// out\n    /* \"#utility.yul\":874:1431   */\ntag_3:\n    /* \"#utility.yul\":973:979   */\n  0x00\n    /* \"#utility.yul\":981:987   */\n  0x00\n    /* \"#utility.yul\":1034:1036   */\n  0x40\n    /* \"#utility.yul\":1022:1031   */\n  dup4\n    /* \"#utility.yul\":1013:1020   */\n  dup6\n    /* \"#utility.yul\":1009:1032   */\n  sub\n    /* \"#utility.yul\":1005:1037   */\n  slt\n    /* \"#utility.yul\":1002:1054   */\n  iszero\n  tag_28\n  jumpi\n    /* \"#utility.yul\":1050:1051   */\n  0x00\n    /* \"#utility.yul\":1047:1048   */\n  0x00\n    /* \"#utility.yul\":1040:1052   */\n  revert\n    /* \"#utility.yul\":1002:1054   */\ntag_28:\n    /* \"#utility.yul\":1077:1093   */\n  dup3\n  mload\n  sub(shl(0x40, 0x01), 0x01)\n    /* \"#utility.yul\":1105:1135   */\n  dup2\n  gt\n    /* \"#utility.yul\":1102:1152   */\n  iszero\n  tag_29\n  jumpi\n    /* \"#utility.yul\":1148:1149   */\n  0x00\n    /* \"#utility.yul\":1145:1146   */\n  0x00\n    /* \"#utility.yul\":1138:1150   */\n  revert\n    /* \"#utility.yul\":1102:1152   */\ntag_29:\n    /* \"#utility.yul\":1171:1232   */\n  tag_30\n    /* \"#utility.yul\":1224:1231   */\n  dup6\n    /* \"#utility.yul\":1215:1221   */\n  dup3\n    /* \"#utility.yul\":1204:1213   */\n  dup7\n    /* \"#utility.yul\":1200:1222   */\n  add\n    /* \"#utility.yul\":1171:1232   */\n  tag_13\n  jump\t// in\ntag_30:\n    /* \"#utility.yul\":1278:1280   */\n  0x20\n    /* \"#utility.yul\":1263:1281   */\n  dup6\n  add\n    /* \"#utility.yul\":1257:1282   */\n  mload\n    /* \"#utility.yul\":1161:1232   */\n  swap1\n  swap4\n  pop\n    /* \"#utility.yul\":1257:1282   */\n  swap1\n  pop\n  sub(shl(0x40, 0x01), 0x01)\n    /* \"#utility.yul\":1294:1326   */\n  dup2\n  gt\n    /* \"#utility.yul\":1291:1343   */\n  iszero\n  tag_31\n  jumpi\n    /* \"#utility.yul\":1339:1340   */\n  0x00\n    /* \"#utility.yul\":1336:1337   */\n  0x00\n    /* \"#utility.yul\":1329:1341   */\n  revert\n    /* \"#utility.yul\":1291:1343   */\ntag_31:\n    /* \"#utility.yul\":1362:1425   */\n  tag_32\n    /* \"#utility.yul\":1417:1424   */\n  dup6\n    /* \"#utility.yul\":1406:1414   */\n  dup3\n    /* \"#utility.yul\":1395:1404   */\n  dup7\n    /* \"#utility.yul\":1391:1415   */\n  add\n    /* \"#utility.yul\":1362:1425   */\n  tag_13\n  jump\t// in\ntag_32:\n    /* \"#utility.yul\":1352:1425   */\n  swap2\n  pop\n  pop\n    /* \"#utility.yul\":874:1431   */\n  swap3\n  pop\n  swap3\n  swap1\n  pop\n  jump\t// out\n    /* \"#utility.yul\":1436:1816   */\ntag_14:\n    /* \"#utility.yul\":1515:1516   */\n  0x01\n    /* \"#utility.yul\":1511:1523   */\n  dup2\n  dup2\n  shr\n  swap1\n    /* \"#utility.yul\":1558:1570   */\n  dup3\n  and\n  dup1\n    /* \"#utility.yul\":1579:1640   */\n  tag_34\n  jumpi\n    /* \"#utility.yul\":1633:1637   */\n  0x7f\n    /* \"#utility.yul\":1625:1631   */\n  dup3\n    /* \"#utility.yul\":1621:1638   */\n  and\n    /* \"#utility.yul\":1611:1638   */\n  swap2\n  pop\n    /* \"#utility.yul\":1579:1640   */\ntag_34:\n    /* \"#utility.yul\":1686:1688   */\n  0x20\n    /* \"#utility.yul\":1678:1684   */\n  dup3\n    /* \"#utility.yul\":1675:1689   */\n  lt\n    /* \"#utility.yul\":1655:1673   */\n  dup2\n    /* \"#utility.yul\":1652:1690   */\n  sub\n    /* \"#utility.yul\":1649:1810   */\n  tag_35\n  jumpi\n    /* \"#utility.yul\":1732:1742   */\n  0x4e487b71\n    /* \"#utility.yul\":1727:1730   */\n  0xe0\n    /* \"#utility.yul\":1723:1743   */\n  shl\n    /* \"#utility.yul\":1720:1721   */\n  0x00\n    /* \"#utility.yul\":1713:1744   */\n  mstore\n    /* \"#utility.yul\":1767:1771   */\n  0x22\n    /* \"#utility.yul\":1764:1765   */\n  0x04\n    /* \"#utility.yul\":1757:1772   */\n  mstore\n    /* \"#utility.yul\":1795:1799   */\n  0x24\n    /* \"#utility.yul\":1792:1793   */\n  0x00\n    /* \"#utility.yul\":1785:1800   */\n  revert\n    /* \"#utility.yul\":1649:1810   */\ntag_35:\n  pop\n    /* \"#utility.yul\":1436:1816   */\n  swap2\n  swap1\n  pop\n  jump\t// out\n    /* \"#utility.yul\":1947:2465   */\ntag_16:\n    /* \"#utility.yul\":2049:2051   */\n  0x1f\n    /* \"#utility.yul\":2044:2047   */\n  dup3\n    /* \"#utility.yul\":2041:2052   */\n  gt\n    /* \"#utility.yul\":2038:2459   */\n  iszero\n  tag_38\n  jumpi\n    /* \"#utility.yul\":2085:2090   */\n  dup1\n    /* \"#utility.yul\":2082:2083   */\n  0x00\n    /* \"#utility.yul\":2075:2091   */\n  mstore\n    /* \"#utility.yul\":2129:2133   */\n  0x20\n    /* \"#utility.yul\":2126:2127   */\n  0x00\n    /* \"#utility.yul\":2116:2134   */\n  keccak256\n    /* \"#utility.yul\":2199:2201   */\n  0x1f\n    /* \"#utility.yul\":2187:2197   */\n  dup5\n    /* \"#utility.yul\":2183:2202   */\n  add\n    /* \"#utility.yul\":2180:2181   */\n  0x05\n    /* \"#utility.yul\":2176:2203   */\n  shr\n    /* \"#utility.yul\":2170:2174   */\n  dup2\n    /* \"#utility.yul\":2166:2204   */\n  add\n    /* \"#utility.yul\":2235:2239   */\n  0x20\n    /* \"#utility.yul\":2223:2233   */\n  dup6\n    /* \"#utility.yul\":2220:2240   */\n  lt\n    /* \"#utility.yul\":2217:2264   */\n  iszero\n  tag_39\n  jumpi\n  pop\n    /* \"#utility.yul\":2258:2262   */\n  dup1\n    /* \"#utility.yul\":2217:2264   */\ntag_39:\n    /* \"#utility.yul\":2313:2315   */\n  0x1f\n    /* \"#utility.yul\":2308:2311   */\n  dup5\n    /* \"#utility.yul\":2304:2316   */\n  add\n    /* \"#utility.yul\":2301:2302   */\n  0x05\n    /* \"#utility.yul\":2297:2317   */\n  shr\n    /* \"#utility.yul\":2291:2295   */\n  dup3\n    /* \"#utility.yul\":2287:2318   */\n  add\n    /* \"#utility.yul\":2277:2318   */\n  swap2\n  pop\n    /* \"#utility.yul\":2368:2449   */\ntag_40:\n    /* \"#utility.yul\":2386:2388   */\n  dup2\n    /* \"#utility.yul\":2379:2384   */\n  dup2\n    /* \"#utility.yul\":2376:2389   */\n  lt\n    /* \"#utility.yul\":2368:2449   */\n  iszero\n  tag_42\n  jumpi\n    /* \"#utility.yul\":2445:2446   */\n  0x00\n    /* \"#utility.yul\":2431:2447   */\n  dup2\n  sstore\n    /* \"#utility.yul\":2412:2413   */\n  0x01\n    /* \"#utility.yul\":2401:2414   */\n  add\n    /* \"#utility.yul\":2368:2449   */\n  jump(tag_40)\ntag_42:\n    /* \"#utility.yul\":2372:2375   */\n  pop\n  pop\n    /* \"#utility.yul\":2038:2459   */\ntag_38:\n    /* \"#utility.yul\":1947:2465   */\n  pop\n  pop\n  pop\n  jump\t// out\n    /* \"#utility.yul\":2641:3940   */\ntag_8:\n    /* \"#utility.yul\":2761:2771   */\n  dup2\n  mload\n  sub(shl(0x40, 0x01), 0x01)\n    /* \"#utility.yul\":2783:2813   */\n  dup2\n  gt\n    /* \"#utility.yul\":2780:2836   */\n  iszero\n  tag_46\n  jumpi\n    /* \"#utility.yul\":2816:2834   */\n  tag_46\n  tag_12\n  jump\t// in\ntag_46:\n    /* \"#utility.yul\":2845:2942   */\n  tag_47\n    /* \"#utility.yul\":2935:2941   */\n  dup2\n    /* \"#utility.yul\":2895:2933   */\n  tag_48\n    /* \"#utility.yul\":2927:2931   */\n  dup5\n    /* \"#utility.yul\":2921:2932   */\n  sload\n    /* \"#utility.yul\":2895:2933   */\n  tag_14\n  jump\t// in\ntag_48:\n    /* \"#utility.yul\":2889:2893   */\n  dup5\n    /* \"#utility.yul\":2845:2942   */\n  tag_16\n  jump\t// in\ntag_47:\n    /* \"#utility.yul\":2991:2995   */\n  0x20\n    /* \"#utility.yul\":3022:3024   */\n  0x1f\n    /* \"#utility.yul\":3011:3025   */\n  dup3\n  gt\n    /* \"#utility.yul\":3039:3040   */\n  0x01\n    /* \"#utility.yul\":3034:3683   */\n  dup2\n  eq\n  tag_50\n  jumpi\n    /* \"#utility.yul\":3727:3728   */\n  0x00\n    /* \"#utility.yul\":3744:3750   */\n  dup4\n    /* \"#utility.yul\":3741:3830   */\n  iszero\n  tag_51\n  jumpi\n  pop\n    /* \"#utility.yul\":3796:3815   */\n  dup5\n  dup3\n  add\n    /* \"#utility.yul\":3790:3816   */\n  mload\n    /* \"#utility.yul\":3741:3830   */\ntag_51:\n  not(0x00)\n    /* \"#utility.yul\":2598:2599   */\n  0x03\n    /* \"#utility.yul\":2594:2605   */\n  dup6\n  swap1\n  shl\n    /* \"#utility.yul\":2590:2614   */\n  shr\n    /* \"#utility.yul\":2586:2615   */\n  not\n    /* \"#utility.yul\":2576:2616   */\n  and\n    /* \"#utility.yul\":2622:2623   */\n  0x01\n    /* \"#utility.yul\":2618:2629   */\n  dup5\n  swap1\n  shl\n    /* \"#utility.yul\":2573:2630   */\n  or\n    /* \"#utility.yul\":3843:3924   */\n  dup5\n  sstore\n    /* \"#utility.yul\":3004:3934   */\n  jump(tag_42)\n    /* \"#utility.yul\":3034:3683   */\ntag_50:\n    /* \"#utility.yul\":1894:1895   */\n  0x00\n    /* \"#utility.yul\":1887:1901   */\n  dup5\n  dup2\n  mstore\n    /* \"#utility.yul\":1931:1935   */\n  0x20\n    /* \"#utility.yul\":1918:1936   */\n  dup2\n  keccak256\n  not(0x1f)\n    /* \"#utility.yul\":3070:3090   */\n  dup6\n  and\n  swap2\n    /* \"#utility.yul\":3188:3410   */\ntag_54:\n    /* \"#utility.yul\":3202:3209   */\n  dup3\n    /* \"#utility.yul\":3199:3200   */\n  dup2\n    /* \"#utility.yul\":3196:3210   */\n  lt\n    /* \"#utility.yul\":3188:3410   */\n  iszero\n  tag_56\n  jumpi\n    /* \"#utility.yul\":3284:3303   */\n  dup8\n  dup6\n  add\n    /* \"#utility.yul\":3278:3304   */\n  mload\n    /* \"#utility.yul\":3263:3305   */\n  dup3\n  sstore\n    /* \"#utility.yul\":3391:3395   */\n  0x20\n    /* \"#utility.yul\":3376:3396   */\n  swap5\n  dup6\n  add\n  swap5\n    /* \"#utility.yul\":3344:3345   */\n  0x01\n    /* \"#utility.yul\":3332:3346   */\n  swap1\n  swap3\n  add\n  swap2\n    /* \"#utility.yul\":3218:3230   */\n  add\n    /* \"#utility.yul\":3188:3410   */\n  jump(tag_54)\ntag_56:\n    /* \"#utility.yul\":3192:3195   */\n  pop\n    /* \"#utility.yul\":3438:3444   */\n  dup5\n    /* \"#utility.yul\":3429:3436   */\n  dup3\n    /* \"#utility.yul\":3426:3445   */\n  lt\n    /* \"#utility.yul\":3423:3624   */\n  iszero\n  tag_57\n  jumpi\n    /* \"#utility.yul\":3499:3518   */\n  dup7\n  dup5\n  add\n    /* \"#utility.yul\":3493:3519   */\n  mload\n  not(0x00)\n    /* \"#utility.yul\":3582:3583   */\n  0x03\n    /* \"#utility.yul\":3578:3592   */\n  dup8\n  swap1\n  shl\n    /* \"#utility.yul\":3594:3597   */\n  0xf8\n    /* \"#utility.yul\":3574:3598   */\n  and\n    /* \"#utility.yul\":3570:3607   */\n  shr\n    /* \"#utility.yul\":3566:3608   */\n  not\n    /* \"#utility.yul\":3551:3609   */\n  and\n    /* \"#utility.yul\":3536:3610   */\n  dup2\n  sstore\n    /* \"#utility.yul\":3423:3624   */\ntag_57:\n  pop\n  pop\n  pop\n  pop\n    /* \"#utility.yul\":3670:3671   */\n  0x01\n    /* \"#utility.yul\":3654:3668   */\n  swap1\n  dup2\n  shl\n    /* \"#utility.yul\":3650:3672   */\n  add\n    /* \"#utility.yul\":3637:3673   */\n  swap1\n  sstore\n  pop\n    /* \"#utility.yul\":2641:3940   */\n  jump\t// out\ntag_18:\n    /* \"src/GovernanceToken.sol\":119:926  contract GovernanceToken is ERC20 {... */\n  dataSize(sub_0)\n  dup1\n  dataOffset(sub_0)\n  0x00\n  codecopy\n  0x00\n  return\nstop\n\nsub_0: assembly {\n        /* \"src/GovernanceToken.sol\":119:926  contract GovernanceToken is ERC20 {... */\n      mstore(0x40, 0x80)\n      callvalue\n      dup1\n      iszero\n      tag_1\n      jumpi\n      revert(0x00, 0x00)\n    tag_1:\n      pop\n      jumpi(tag_2, lt(calldatasize, 0x04))\n      shr(0xe0, calldataload(0x00))\n      dup1\n      0x70a08231\n      gt\n      tag_15\n      jumpi\n      dup1\n      0x70a08231\n      eq\n      tag_9\n      jumpi\n      dup1\n      0x95d89b41\n      eq\n      tag_10\n      jumpi\n      dup1\n      0x9dc29fac\n      eq\n      tag_11\n      jumpi\n      dup1\n      0xa9059cbb\n      eq\n      tag_12\n      jumpi\n      dup1\n      0xc1fc006a\n      eq\n      tag_13\n      jumpi\n      dup1\n      0xdd62ed3e\n      eq\n      tag_14\n      jumpi\n      revert(0x00, 0x00)\n    tag_15:\n      dup1\n      0x06fdde03\n      eq\n      tag_3\n      jumpi\n      dup1\n      0x095ea7b3\n      eq\n      tag_4\n      jumpi\n      dup1\n      0x18160ddd\n      eq\n      tag_5\n      jumpi\n      dup1\n      0x23b872dd\n      eq\n      tag_6\n      jumpi\n      dup1\n      0x313ce567\n      eq\n      tag_7\n      jumpi\n      dup1\n      0x40c10f19\n      eq\n      tag_8\n      jumpi\n    tag_2:\n      revert(0x00, 0x00)\n        /* \"@openzeppelin/contracts/token/ERC20/ERC20.sol\":1760:1849  function name() public view virtual returns (string memory) {... */\n    tag_3:\n      tag_16\n      tag_17\n      jump\t// in\n    tag_16:\n      mload(0x40)\n      tag_18\n      swap2\n      swap1\n      tag_19\n      jump\t// in\n    tag_18:\n      mload(0x40)\n      dup1\n      swap2\n      sub\n      swap1\n      return\n        /* \"@openzeppelin/contracts/token/ERC20/ERC20.sol\":3902:4088  function approve(address spender, uint256 value) public virtual returns (bool) {... */\n    tag_4:\n      tag_20\n      tag_21\n      calldatasize\n      0x04\n      tag_22\n      jump\t// in\n    tag_21:\n      tag_23\n      jump\t// in\n    tag_20:\n      mload(0x40)\n        /* \"#utility.yul\":1085:1099   */\n      swap1\n      iszero\n        /* \"#utility.yul\":1078:1100   */\n      iszero\n        /* \"#utility.yul\":1060:1101   */\n      dup2\n      mstore\n        /* \"#utility.yul\":1048:1050   */\n      0x20\n        /* \"#utility.yul\":1033:1051   */\n      add\n        /* \"@openzeppelin/contracts/token/ERC20/ERC20.sol\":3902:4088  function approve(address spender, uint256 value) public virtual returns (bool) {... */\n      tag_18\n        /* \"#utility.yul\":920:1107   */\n      jump\n        /* \"@openzeppelin/contracts/token/ERC20/ERC20.sol\":2803:2900  function totalSupply() public view virtual returns (uint256) {... */\n    tag_5:\n        /* \"@openzeppelin/contracts/token/ERC20/ERC20.sol\":2881:2893  _totalSupply */\n      sload(0x02)\n        /* \"@openzeppelin/contracts/token/ERC20/ERC20.sol\":2803:2900  function totalSupply() public view virtual returns (uint256) {... */\n    tag_26:\n      mload(0x40)\n        /* \"#utility.yul\":1258:1283   */\n      swap1\n      dup2\n      mstore\n        /* \"#utility.yul\":1246:1248   */\n      0x20\n        /* \"#utility.yul\":1231:1249   */\n      add\n        /* \"@openzeppelin/contracts/token/ERC20/ERC20.sol\":2803:2900  function totalSupply() public view virtual returns (uint256) {... */\n      tag_18\n        /* \"#utility.yul\":1112:1289   */\n      jump\n        /* \"@openzeppelin/contracts/token/ERC20/ERC20.sol\":4680:4924  function transferFrom(address from, address to, uint256 value) public virtual returns (bool) {... */\n    tag_6:\n      tag_20\n      tag_31\n      calldatasize\n      0x04\n      tag_32\n      jump\t// in\n    tag_31:\n      tag_33\n      jump\t// in\n        /* \"@openzeppelin/contracts/token/ERC20/ERC20.sol\":2688:2770  function decimals() public view virtual returns (uint8) {... */\n    tag_7:\n      mload(0x40)\n        /* \"@openzeppelin/contracts/token/ERC20/ERC20.sol\":2761:2763  18 */\n      0x12\n        /* \"#utility.yul\":1815:1851   */\n      dup2\n      mstore\n        /* \"#utility.yul\":1803:1805   */\n      0x20\n        /* \"#utility.yul\":1788:1806   */\n      add\n        /* \"@openzeppelin/contracts/token/ERC20/ERC20.sol\":2688:2770  function decimals() public view virtual returns (uint8) {... */\n      tag_18\n        /* \"#utility.yul\":1673:1857   */\n      jump\n        /* \"src/GovernanceToken.sol\":640:738  function mint(address to, uint256 amount) external onlyVoting {... */\n    tag_8:\n      tag_39\n      tag_40\n      calldatasize\n      0x04\n      tag_22\n      jump\t// in\n    tag_40:\n      tag_41\n      jump\t// in\n    tag_39:\n      stop\n        /* \"@openzeppelin/contracts/token/ERC20/ERC20.sol\":2933:3049  function balanceOf(address account) public view virtual returns (uint256) {... */\n    tag_9:\n      tag_26\n      tag_43\n      calldatasize\n      0x04\n      tag_44\n      jump\t// in\n    tag_43:\n      sub(shl(0xa0, 0x01), 0x01)\n        /* \"@openzeppelin/contracts/token/ERC20/ERC20.sol\":3024:3042  _balances[account] */\n      and\n        /* \"@openzeppelin/contracts/token/ERC20/ERC20.sol\":2998:3005  uint256 */\n      0x00\n        /* \"@openzeppelin/contracts/token/ERC20/ERC20.sol\":3024:3042  _balances[account] */\n      swap1\n      dup2\n      mstore\n      0x20\n      dup2\n      swap1\n      mstore\n      0x40\n      swap1\n      keccak256\n      sload\n      swap1\n        /* \"@openzeppelin/contracts/token/ERC20/ERC20.sol\":2933:3049  function balanceOf(address account) public view virtual returns (uint256) {... */\n      jump\n        /* \"@openzeppelin/contracts/token/ERC20/ERC20.sol\":1962:2055  function symbol() public view virtual returns (string memory) {... */\n    tag_10:\n      tag_16\n      tag_48\n      jump\t// in\n        /* \"src/GovernanceToken.sol\":821:923  function burn(address from, uint256 amount) external onlyVoting {... */\n    tag_11:\n      tag_39\n      tag_51\n      calldatasize\n      0x04\n      tag_22\n      jump\t// in\n    tag_51:\n      tag_52\n      jump\t// in\n        /* \"@openzeppelin/contracts/token/ERC20/ERC20.sol\":3244:3422  function transfer(address to, uint256 value) public virtual returns (bool) {... */\n    tag_12:\n      tag_20\n      tag_54\n      calldatasize\n      0x04\n      tag_22\n      jump\t// in\n    tag_54:\n      tag_55\n      jump\t// in\n        /* \"src/GovernanceToken.sol\":160:189  address public votingContract */\n    tag_13:\n      sload(0x05)\n      tag_57\n      swap1\n      sub(shl(0xa0, 0x01), 0x01)\n      and\n      dup2\n      jump\n    tag_57:\n      mload(0x40)\n      sub(shl(0xa0, 0x01), 0x01)\n        /* \"#utility.yul\":2217:2249   */\n      swap1\n      swap2\n      and\n        /* \"#utility.yul\":2199:2250   */\n      dup2\n      mstore\n        /* \"#utility.yul\":2187:2189   */\n      0x20\n        /* \"#utility.yul\":2172:2190   */\n      add\n        /* \"src/GovernanceToken.sol\":160:189  address public votingContract */\n      tag_18\n        /* \"#utility.yul\":2053:2256   */\n      jump\n        /* \"@openzeppelin/contracts/token/ERC20/ERC20.sol\":3455:3595  function allowance(address owner, address spender) public view virtual returns (uint256) {... */\n    tag_14:\n      tag_26\n      tag_62\n      calldatasize\n      0x04\n      tag_63\n      jump\t// in\n    tag_62:\n      sub(shl(0xa0, 0x01), 0x01)\n        /* \"@openzeppelin/contracts/token/ERC20/ERC20.sol\":3561:3579  _allowances[owner] */\n      swap2\n      dup3\n      and\n        /* \"@openzeppelin/contracts/token/ERC20/ERC20.sol\":3535:3542  uint256 */\n      0x00\n        /* \"@openzeppelin/contracts/token/ERC20/ERC20.sol\":3561:3579  _allowances[owner] */\n      swap1\n      dup2\n      mstore\n        /* \"@openzeppelin/contracts/token/ERC20/ERC20.sol\":3561:3572  _allowances */\n      0x01\n        /* \"@openzeppelin/contracts/token/ERC20/ERC20.sol\":3561:3579  _allowances[owner] */\n      0x20\n      swap1\n      dup2\n      mstore\n      0x40\n      dup1\n      dup4\n      keccak256\n        /* \"@openzeppelin/contracts/token/ERC20/ERC20.sol\":3561:3588  _allowances[owner][spender] */\n      swap4\n      swap1\n      swap5\n      and\n      dup3\n      mstore\n      swap2\n      swap1\n      swap2\n      mstore\n      keccak256\n      sload\n      swap1\n        /* \"@openzeppelin/contracts/token/ERC20/ERC20.sol\":3455:3595  function allowance(address owner, address spender) public view virtual returns (uint256) {... */\n      jump\n        /* \"@openzeppelin/contracts/token/ERC20/ERC20.sol\":1760:1849  function name() public view virtual returns (string memory) {... */\n    tag_17:\n        /* \"@openzeppelin/contracts/token/ERC20/ERC20.sol\":1805:1818  string memory */\n      0x60\n        /* \"@openzeppelin/contracts/token/ERC20/ERC20.sol\":1837:1842  _name */\n      0x03\n        /* \"@openzeppelin/contracts/token/ERC20/ERC20.sol\":1830:1842  return _name */\n      dup1\n      sload\n      tag_67\n      swap1\n      tag_68\n      jump\t// in\n    tag_67:\n      dup1\n      0x1f\n      add\n      0x20\n      dup1\n      swap2\n      div\n      mul\n      0x20\n      add\n      mload(0x40)\n      swap1\n      dup2\n      add\n      0x40\n      mstore\n      dup1\n      swap3\n      swap2\n      swap1\n      dup2\n      dup2\n      mstore\n      0x20\n      add\n      dup3\n      dup1\n      sload\n      tag_69\n      swap1\n      tag_68\n      jump\t// in\n    tag_69:\n      dup1\n      iszero\n      tag_70\n      jumpi\n      dup1\n      0x1f\n      lt\n      tag_71\n      jumpi\n      0x0100\n      dup1\n      dup4\n      sload\n      div\n      mul\n      dup4\n      mstore\n      swap2\n      0x20\n      add\n      swap2\n      jump(tag_70)\n    tag_71:\n      dup3\n      add\n      swap2\n      swap1\n      0x00\n      mstore\n      keccak256(0x00, 0x20)\n      swap1\n    tag_72:\n      dup2\n      sload\n      dup2\n      mstore\n      swap1\n      0x01\n      add\n      swap1\n      0x20\n      add\n      dup1\n      dup4\n      gt\n      tag_72\n      jumpi\n      dup3\n      swap1\n      sub\n      0x1f\n      and\n      dup3\n      add\n      swap2\n    tag_70:\n      pop\n      pop\n      pop\n      pop\n      pop\n      swap1\n      pop\n        /* \"@openzeppelin/contracts/token/ERC20/ERC20.sol\":1760:1849  function name() public view virtual returns (string memory) {... */\n      swap1\n      jump\t// out\n        /* \"@openzeppelin/contracts/token/ERC20/ERC20.sol\":3902:4088  function approve(address spender, uint256 value) public virtual returns (bool) {... */\n    tag_23:\n        /* \"@openzeppelin/contracts/token/ERC20/ERC20.sol\":3975:3979  bool */\n      0x00\n        /* \"@openzeppelin/contracts/utils/Context.sol\":735:745  msg.sender */\n      caller\n        /* \"@openzeppelin/contracts/token/ERC20/ERC20.sol\":4029:4060  _approve(owner, spender, value) */\n      tag_76\n        /* \"@openzeppelin/contracts/utils/Context.sol\":735:745  msg.sender */\n      dup2\n        /* \"@openzeppelin/contracts/token/ERC20/ERC20.sol\":4045:4052  spender */\n      dup6\n        /* \"@openzeppelin/contracts/token/ERC20/ERC20.sol\":4054:4059  value */\n      dup6\n        /* \"@openzeppelin/contracts/token/ERC20/ERC20.sol\":4029:4037  _approve */\n      tag_77\n        /* \"@openzeppelin/contracts/token/ERC20/ERC20.sol\":4029:4060  _approve(owner, spender, value) */\n      jump\t// in\n    tag_76:\n        /* \"@openzeppelin/contracts/token/ERC20/ERC20.sol\":4077:4081  true */\n      0x01\n        /* \"@openzeppelin/contracts/token/ERC20/ERC20.sol\":4070:4081  return true */\n      swap2\n      pop\n      pop\n        /* \"@openzeppelin/contracts/token/ERC20/ERC20.sol\":3902:4088  function approve(address spender, uint256 value) public virtual returns (bool) {... */\n    tag_73:\n      swap3\n      swap2\n      pop\n      pop\n      jump\t// out\n        /* \"@openzeppelin/contracts/token/ERC20/ERC20.sol\":4680:4924  function transferFrom(address from, address to, uint256 value) public virtual returns (bool) {... */\n    tag_33:\n        /* \"@openzeppelin/contracts/token/ERC20/ERC20.sol\":4767:4771  bool */\n      0x00\n        /* \"@openzeppelin/contracts/utils/Context.sol\":735:745  msg.sender */\n      caller\n        /* \"@openzeppelin/contracts/token/ERC20/ERC20.sol\":4823:4860  _spendAllowance(from, spender, value) */\n      tag_81\n        /* \"@openzeppelin/contracts/token/ERC20/ERC20.sol\":4839:4843  from */\n      dup6\n        /* \"@openzeppelin/contracts/utils/Context.sol\":735:745  msg.sender */\n      dup3\n        /* \"@openzeppelin/contracts/token/ERC20/ERC20.sol\":4854:4859  value */\n      dup6\n        /* \"@openzeppelin/contracts/token/ERC20/ERC20.sol\":4823:4838  _spendAllowance */\n      tag_82\n        /* \"@openzeppelin/contracts/token/ERC20/ERC20.sol\":4823:4860  _spendAllowance(from, spender, value) */\n      jump\t// in\n    tag_81:\n        /* \"@openzeppelin/contracts/token/ERC20/ERC20.sol\":4870:4896  _transfer(from, to, value) */\n      tag_83\n        /* \"@openzeppelin/contracts/token/ERC20/ERC20.sol\":4880:4884  from */\n      dup6\n        /* \"@openzeppelin/contracts/token/ERC20/ERC20.sol\":4886:4888  to */\n      dup6\n        /* \"@openzeppelin/contracts/token/ERC20/ERC20.sol\":4890:4895  value */\n      dup6\n        /* \"@openzeppelin/contracts/token/ERC20/ERC20.sol\":4870:4879  _transfer */\n      tag_84\n        /* \"@openzeppelin/contracts/token/ERC20/ERC20.sol\":4870:4896  _transfer(from, to, value) */\n      jump\t// in\n    tag_83:\n      pop\n        /* \"@openzeppelin/contracts/token/ERC20/ERC20.sol\":4913:4917  true */\n      0x01\n      swap5\n        /* \"@openzeppelin/contracts/token/ERC20/ERC20.sol\":4680:4924  function transferFrom(address from, address to, uint256 value) public virtual returns (bool) {... */\n      swap4\n      pop\n      pop\n      pop\n      pop\n      jump\t// out\n        /* \"src/GovernanceToken.sol\":640:738  function mint(address to, uint256 amount) external onlyVoting {... */\n    tag_41:\n        /* \"src/GovernanceToken.sol\":331:345  votingContract */\n      and(sub(shl(0xa0, 0x01), 0x01), sload(0x05))\n        /* \"src/GovernanceToken.sol\":317:327  msg.sender */\n      caller\n        /* \"src/GovernanceToken.sol\":317:345  msg.sender == votingContract */\n      eq\n        /* \"src/GovernanceToken.sol\":309:392  require(msg.sender == votingContract, \"No autorizado: solo el sistema de votacion\") */\n      tag_87\n      jumpi\n      mload(0x40)\n      shl(0xe5, 0x461bcd)\n      dup2\n      mstore\n      0x04\n      add\n      tag_88\n      swap1\n      tag_89\n      jump\t// in\n    tag_88:\n      mload(0x40)\n      dup1\n      swap2\n      sub\n      swap1\n      revert\n    tag_87:\n        /* \"src/GovernanceToken.sol\":713:730  _mint(to, amount) */\n      tag_91\n        /* \"src/GovernanceToken.sol\":719:721  to */\n      dup3\n        /* \"src/GovernanceToken.sol\":723:729  amount */\n      dup3\n        /* \"src/GovernanceToken.sol\":713:718  _mint */\n      tag_92\n        /* \"src/GovernanceToken.sol\":713:730  _mint(to, amount) */\n      jump\t// in\n    tag_91:\n        /* \"src/GovernanceToken.sol\":640:738  function mint(address to, uint256 amount) external onlyVoting {... */\n      pop\n      pop\n      jump\t// out\n        /* \"@openzeppelin/contracts/token/ERC20/ERC20.sol\":1962:2055  function symbol() public view virtual returns (string memory) {... */\n    tag_48:\n        /* \"@openzeppelin/contracts/token/ERC20/ERC20.sol\":2009:2022  string memory */\n      0x60\n        /* \"@openzeppelin/contracts/token/ERC20/ERC20.sol\":2041:2048  _symbol */\n      0x04\n        /* \"@openzeppelin/contracts/token/ERC20/ERC20.sol\":2034:2048  return _symbol */\n      dup1\n      sload\n      tag_67\n      swap1\n      tag_68\n      jump\t// in\n        /* \"src/GovernanceToken.sol\":821:923  function burn(address from, uint256 amount) external onlyVoting {... */\n    tag_52:\n        /* \"src/GovernanceToken.sol\":331:345  votingContract */\n      and(sub(shl(0xa0, 0x01), 0x01), sload(0x05))\n        /* \"src/GovernanceToken.sol\":317:327  msg.sender */\n      caller\n        /* \"src/GovernanceToken.sol\":317:345  msg.sender == votingContract */\n      eq\n        /* \"src/GovernanceToken.sol\":309:392  require(msg.sender == votingContract, \"No autorizado: solo el sistema de votacion\") */\n      tag_101\n      jumpi\n      mload(0x40)\n      shl(0xe5, 0x461bcd)\n      dup2\n      mstore\n      0x04\n      add\n      tag_88\n      swap1\n      tag_89\n      jump\t// in\n    tag_101:\n        /* \"src/GovernanceToken.sol\":896:915  _burn(from, amount) */\n      tag_91\n        /* \"src/GovernanceToken.sol\":902:906  from */\n      dup3\n        /* \"src/GovernanceToken.sol\":908:914  amount */\n      dup3\n        /* \"src/GovernanceToken.sol\":896:901  _burn */\n      tag_105\n        /* \"src/GovernanceToken.sol\":896:915  _burn(from, amount) */\n      jump\t// in\n        /* \"@openzeppelin/contracts/token/ERC20/ERC20.sol\":3244:3422  function transfer(address to, uint256 value) public virtual returns (bool) {... */\n    tag_55:\n        /* \"@openzeppelin/contracts/token/ERC20/ERC20.sol\":3313:3317  bool */\n      0x00\n        /* \"@openzeppelin/contracts/utils/Context.sol\":735:745  msg.sender */\n      caller\n        /* \"@openzeppelin/contracts/token/ERC20/ERC20.sol\":3367:3394  _transfer(owner, to, value) */\n      tag_76\n        /* \"@openzeppelin/contracts/utils/Context.sol\":735:745  msg.sender */\n      dup2\n        /* \"@openzeppelin/contracts/token/ERC20/ERC20.sol\":3384:3386  to */\n      dup6\n        /* \"@openzeppelin/contracts/token/ERC20/ERC20.sol\":3388:3393  value */\n      dup6\n        /* \"@openzeppelin/contracts/token/ERC20/ERC20.sol\":3367:3376  _transfer */\n      tag_84\n        /* \"@openzeppelin/contracts/token/ERC20/ERC20.sol\":3367:3394  _transfer(owner, to, value) */\n      jump\t// in\n        /* \"@openzeppelin/contracts/token/ERC20/ERC20.sol\":8630:8758  function _approve(address owner, address spender, uint256 value) internal {... */\n    tag_77:\n        /* \"@openzeppelin/contracts/token/ERC20/ERC20.sol\":8714:8751  _approve(owner, spender, value, true) */\n      tag_112\n        /* \"@openzeppelin/contracts/token/ERC20/ERC20.sol\":8723:8728  owner */\n      dup4\n        /* \"@openzeppelin/contracts/token/ERC20/ERC20.sol\":8730:8737  spender */\n      dup4\n        /* \"@openzeppelin/contracts/token/ERC20/ERC20.sol\":8739:8744  value */\n      dup4\n        /* \"@openzeppelin/contracts/token/ERC20/ERC20.sol\":8746:8750  true */\n      0x01\n        /* \"@openzeppelin/contracts/token/ERC20/ERC20.sol\":8714:8722  _approve */\n      tag_113\n        /* \"@openzeppelin/contracts/token/ERC20/ERC20.sol\":8714:8751  _approve(owner, spender, value, true) */\n      jump\t// in\n    tag_112:\n        /* \"@openzeppelin/contracts/token/ERC20/ERC20.sol\":8630:8758  function _approve(address owner, address spender, uint256 value) internal {... */\n      pop\n      pop\n      pop\n      jump\t// out\n        /* \"@openzeppelin/contracts/token/ERC20/ERC20.sol\":10321:10797  function _spendAllowance(address owner, address spender, uint256 value) internal virtual {... */\n    tag_82:\n      sub(shl(0xa0, 0x01), 0x01)\n        /* \"@openzeppelin/contracts/token/ERC20/ERC20.sol\":3561:3579  _allowances[owner] */\n      dup4\n      dup2\n      and\n        /* \"@openzeppelin/contracts/token/ERC20/ERC20.sol\":10420:10444  uint256 currentAllowance */\n      0x00\n        /* \"@openzeppelin/contracts/token/ERC20/ERC20.sol\":3561:3579  _allowances[owner] */\n      swap1\n      dup2\n      mstore\n        /* \"@openzeppelin/contracts/token/ERC20/ERC20.sol\":3561:3572  _allowances */\n      0x01\n        /* \"@openzeppelin/contracts/token/ERC20/ERC20.sol\":3561:3579  _allowances[owner] */\n      0x20\n      swap1\n      dup2\n      mstore\n      0x40\n      dup1\n      dup4\n      keccak256\n        /* \"@openzeppelin/contracts/token/ERC20/ERC20.sol\":3561:3588  _allowances[owner][spender] */\n      swap4\n      dup7\n      and\n      dup4\n      mstore\n      swap3\n      swap1\n      mstore\n      keccak256\n      sload\n      not(0x00)\n        /* \"@openzeppelin/contracts/token/ERC20/ERC20.sol\":10486:10522  currentAllowance < type(uint256).max */\n      dup2\n      lt\n        /* \"@openzeppelin/contracts/token/ERC20/ERC20.sol\":10482:10791  if (currentAllowance < type(uint256).max) {... */\n      iszero\n      tag_120\n      jumpi\n        /* \"@openzeppelin/contracts/token/ERC20/ERC20.sol\":10561:10566  value */\n      dup2\n        /* \"@openzeppelin/contracts/token/ERC20/ERC20.sol\":10542:10558  currentAllowance */\n      dup2\n        /* \"@openzeppelin/contracts/token/ERC20/ERC20.sol\":10542:10566  currentAllowance < value */\n      lt\n        /* \"@openzeppelin/contracts/token/ERC20/ERC20.sol\":10538:10668  if (currentAllowance < value) {... */\n      iszero\n      tag_117\n      jumpi\n        /* \"@openzeppelin/contracts/token/ERC20/ERC20.sol\":10593:10653  ERC20InsufficientAllowance(spender, currentAllowance, value) */\n      mload(0x40)\n      shl(0xe1, 0x7dc7a0d9)\n      dup2\n      mstore\n      sub(shl(0xa0, 0x01), 0x01)\n        /* \"#utility.yul\":3542:3574   */\n      dup5\n      and\n        /* \"@openzeppelin/contracts/token/ERC20/ERC20.sol\":10593:10653  ERC20InsufficientAllowance(spender, currentAllowance, value) */\n      0x04\n      dup3\n      add\n        /* \"#utility.yul\":3524:3575   */\n      mstore\n        /* \"#utility.yul\":3591:3609   */\n      0x24\n      dup2\n      add\n        /* \"#utility.yul\":3584:3618   */\n      dup3\n      swap1\n      mstore\n        /* \"#utility.yul\":3634:3652   */\n      0x44\n      dup2\n      add\n        /* \"#utility.yul\":3627:3661   */\n      dup4\n      swap1\n      mstore\n        /* \"#utility.yul\":3497:3515   */\n      0x64\n      add\n        /* \"@openzeppelin/contracts/token/ERC20/ERC20.sol\":10593:10653  ERC20InsufficientAllowance(spender, currentAllowance, value) */\n      tag_88\n        /* \"#utility.yul\":3322:3667   */\n      jump\n        /* \"@openzeppelin/contracts/token/ERC20/ERC20.sol\":10538:10668  if (currentAllowance < value) {... */\n    tag_117:\n        /* \"@openzeppelin/contracts/token/ERC20/ERC20.sol\":10709:10766  _approve(owner, spender, currentAllowance - value, false) */\n      tag_120\n        /* \"@openzeppelin/contracts/token/ERC20/ERC20.sol\":10718:10723  owner */\n      dup5\n        /* \"@openzeppelin/contracts/token/ERC20/ERC20.sol\":10725:10732  spender */\n      dup5\n        /* \"@openzeppelin/contracts/token/ERC20/ERC20.sol\":10753:10758  value */\n      dup5\n        /* \"@openzeppelin/contracts/token/ERC20/ERC20.sol\":10734:10750  currentAllowance */\n      dup5\n        /* \"@openzeppelin/contracts/token/ERC20/ERC20.sol\":10734:10758  currentAllowance - value */\n      sub\n        /* \"@openzeppelin/contracts/token/ERC20/ERC20.sol\":10760:10765  false */\n      0x00\n        /* \"@openzeppelin/contracts/token/ERC20/ERC20.sol\":10709:10717  _approve */\n      tag_113\n        /* \"@openzeppelin/contracts/token/ERC20/ERC20.sol\":10709:10766  _approve(owner, spender, currentAllowance - value, false) */\n      jump\t// in\n    tag_120:\n        /* \"@openzeppelin/contracts/token/ERC20/ERC20.sol\":10410:10797  {... */\n      pop\n        /* \"@openzeppelin/contracts/token/ERC20/ERC20.sol\":10321:10797  function _spendAllowance(address owner, address spender, uint256 value) internal virtual {... */\n      pop\n      pop\n      pop\n      jump\t// out\n        /* \"@openzeppelin/contracts/token/ERC20/ERC20.sol\":5297:5597  function _transfer(address from, address to, uint256 value) internal {... */\n    tag_84:\n      sub(shl(0xa0, 0x01), 0x01)\n        /* \"@openzeppelin/contracts/token/ERC20/ERC20.sol\":5380:5398  from == address(0) */\n      dup4\n      and\n        /* \"@openzeppelin/contracts/token/ERC20/ERC20.sol\":5376:5462  if (from == address(0)) {... */\n      tag_122\n      jumpi\n        /* \"@openzeppelin/contracts/token/ERC20/ERC20.sol\":5421:5451  ERC20InvalidSender(address(0)) */\n      mload(0x40)\n      shl(0xe1, 0x4b637e8f)\n      dup2\n      mstore\n        /* \"@openzeppelin/contracts/token/ERC20/ERC20.sol\":5448:5449  0 */\n      0x00\n        /* \"@openzeppelin/contracts/token/ERC20/ERC20.sol\":5421:5451  ERC20InvalidSender(address(0)) */\n      0x04\n      dup3\n      add\n        /* \"#utility.yul\":2199:2250   */\n      mstore\n        /* \"#utility.yul\":2172:2190   */\n      0x24\n      add\n        /* \"@openzeppelin/contracts/token/ERC20/ERC20.sol\":5421:5451  ERC20InvalidSender(address(0)) */\n      tag_88\n        /* \"#utility.yul\":2053:2256   */\n      jump\n        /* \"@openzeppelin/contracts/token/ERC20/ERC20.sol\":5376:5462  if (from == address(0)) {... */\n    tag_122:\n      sub(shl(0xa0, 0x01), 0x01)\n        /* \"@openzeppelin/contracts/token/ERC20/ERC20.sol\":5475:5491  to == address(0) */\n      dup3\n      and\n        /* \"@openzeppelin/contracts/token/ERC20/ERC20.sol\":5471:5557  if (to == address(0)) {... */\n      tag_124\n      jumpi\n        /* \"@openzeppelin/contracts/token/ERC20/ERC20.sol\":5514:5546  ERC20InvalidReceiver(address(0)) */\n      mload(0x40)\n      shl(0xe0, 0xec442f05)\n      dup2\n      mstore\n        /* \"@openzeppelin/contracts/token/ERC20/ERC20.sol\":5543:5544  0 */\n      0x00\n        /* \"@openzeppelin/contracts/token/ERC20/ERC20.sol\":5514:5546  ERC20InvalidReceiver(address(0)) */\n      0x04\n      dup3\n      add\n        /* \"#utility.yul\":2199:2250   */\n      mstore\n        /* \"#utility.yul\":2172:2190   */\n      0x24\n      add\n        /* \"@openzeppelin/contracts/token/ERC20/ERC20.sol\":5514:5546  ERC20InvalidReceiver(address(0)) */\n      tag_88\n        /* \"#utility.yul\":2053:2256   */\n      jump\n        /* \"@openzeppelin/contracts/token/ERC20/ERC20.sol\":5471:5557  if (to == address(0)) {... */\n    tag_124:\n        /* \"@openzeppelin/contracts/token/ERC20/ERC20.sol\":5566:5590  _update(from, to, value) */\n      tag_112\n        /* \"@openzeppelin/contracts/token/ERC20/ERC20.sol\":5574:5578  from */\n      dup4\n        /* \"@openzeppelin/contracts/token/ERC20/ERC20.sol\":5580:5582  to */\n      dup4\n        /* \"@openzeppelin/contracts/token/ERC20/ERC20.sol\":5584:5589  value */\n      dup4\n        /* \"@openzeppelin/contracts/token/ERC20/ERC20.sol\":5566:5573  _update */\n      tag_127\n        /* \"@openzeppelin/contracts/token/ERC20/ERC20.sol\":5566:5590  _update(from, to, value) */\n      jump\t// in\n        /* \"@openzeppelin/contracts/token/ERC20/ERC20.sol\":7362:7570  function _mint(address account, uint256 value) internal {... */\n    tag_92:\n      sub(shl(0xa0, 0x01), 0x01)\n        /* \"@openzeppelin/contracts/token/ERC20/ERC20.sol\":7432:7453  account == address(0) */\n      dup3\n      and\n        /* \"@openzeppelin/contracts/token/ERC20/ERC20.sol\":7428:7519  if (account == address(0)) {... */\n      tag_129\n      jumpi\n        /* \"@openzeppelin/contracts/token/ERC20/ERC20.sol\":7476:7508  ERC20InvalidReceiver(address(0)) */\n      mload(0x40)\n      shl(0xe0, 0xec442f05)\n      dup2\n      mstore\n        /* \"@openzeppelin/contracts/token/ERC20/ERC20.sol\":7505:7506  0 */\n      0x00\n        /* \"@openzeppelin/contracts/token/ERC20/ERC20.sol\":7476:7508  ERC20InvalidReceiver(address(0)) */\n      0x04\n      dup3\n      add\n        /* \"#utility.yul\":2199:2250   */\n      mstore\n        /* \"#utility.yul\":2172:2190   */\n      0x24\n      add\n        /* \"@openzeppelin/contracts/token/ERC20/ERC20.sol\":7476:7508  ERC20InvalidReceiver(address(0)) */\n      tag_88\n        /* \"#utility.yul\":2053:2256   */\n      jump\n        /* \"@openzeppelin/contracts/token/ERC20/ERC20.sol\":7428:7519  if (account == address(0)) {... */\n    tag_129:\n        /* \"@openzeppelin/contracts/token/ERC20/ERC20.sol\":7528:7563  _update(address(0), account, value) */\n      tag_91\n        /* \"@openzeppelin/contracts/token/ERC20/ERC20.sol\":7544:7545  0 */\n      0x00\n        /* \"@openzeppelin/contracts/token/ERC20/ERC20.sol\":7548:7555  account */\n      dup4\n        /* \"@openzeppelin/contracts/token/ERC20/ERC20.sol\":7557:7562  value */\n      dup4\n        /* \"@openzeppelin/contracts/token/ERC20/ERC20.sol\":7528:7535  _update */\n      tag_127\n        /* \"@openzeppelin/contracts/token/ERC20/ERC20.sol\":7528:7563  _update(address(0), account, value) */\n      jump\t// in\n        /* \"@openzeppelin/contracts/token/ERC20/ERC20.sol\":7888:8094  function _burn(address account, uint256 value) internal {... */\n    tag_105:\n      sub(shl(0xa0, 0x01), 0x01)\n        /* \"@openzeppelin/contracts/token/ERC20/ERC20.sol\":7958:7979  account == address(0) */\n      dup3\n      and\n        /* \"@openzeppelin/contracts/token/ERC20/ERC20.sol\":7954:8043  if (account == address(0)) {... */\n      tag_133\n      jumpi\n        /* \"@openzeppelin/contracts/token/ERC20/ERC20.sol\":8002:8032  ERC20InvalidSender(address(0)) */\n      mload(0x40)\n      shl(0xe1, 0x4b637e8f)\n      dup2\n      mstore\n        /* \"@openzeppelin/contracts/token/ERC20/ERC20.sol\":8029:8030  0 */\n      0x00\n        /* \"@openzeppelin/contracts/token/ERC20/ERC20.sol\":8002:8032  ERC20InvalidSender(address(0)) */\n      0x04\n      dup3\n      add\n        /* \"#utility.yul\":2199:2250   */\n      mstore\n        /* \"#utility.yul\":2172:2190   */\n      0x24\n      add\n        /* \"@openzeppelin/contracts/token/ERC20/ERC20.sol\":8002:8032  ERC20InvalidSender(address(0)) */\n      tag_88\n        /* \"#utility.yul\":2053:2256   */\n      jump\n        /* \"@openzeppelin/contracts/token/ERC20/ERC20.sol\":7954:8043  if (account == address(0)) {... */\n    tag_133:\n        /* \"@openzeppelin/contracts/token/ERC20/ERC20.sol\":8052:8087  _update(account, address(0), value) */\n      tag_91\n        /* \"@openzeppelin/contracts/token/ERC20/ERC20.sol\":8060:8067  account */\n      dup3\n        /* \"@openzeppelin/contracts/token/ERC20/ERC20.sol\":8077:8078  0 */\n      0x00\n        /* \"@openzeppelin/contracts/token/ERC20/ERC20.sol\":8081:8086  value */\n      dup4\n        /* \"@openzeppelin/contracts/token/ERC20/ERC20.sol\":8052:8059  _update */\n      tag_127\n        /* \"@openzeppelin/contracts/token/ERC20/ERC20.sol\":8052:8087  _update(account, address(0), value) */\n      jump\t// in\n        /* \"@openzeppelin/contracts/token/ERC20/ERC20.sol\":9607:10039  function _approve(address owner, address spender, uint256 value, bool emitEvent) internal virtual {... */\n    tag_113:\n      sub(shl(0xa0, 0x01), 0x01)\n        /* \"@openzeppelin/contracts/token/ERC20/ERC20.sol\":9719:9738  owner == address(0) */\n      dup5\n      and\n        /* \"@openzeppelin/contracts/token/ERC20/ERC20.sol\":9715:9804  if (owner == address(0)) {... */\n      tag_137\n      jumpi\n        /* \"@openzeppelin/contracts/token/ERC20/ERC20.sol\":9761:9793  ERC20InvalidApprover(address(0)) */\n      mload(0x40)\n      shl(0xe0, 0xe602df05)\n      dup2\n      mstore\n        /* \"@openzeppelin/contracts/token/ERC20/ERC20.sol\":9790:9791  0 */\n      0x00\n        /* \"@openzeppelin/contracts/token/ERC20/ERC20.sol\":9761:9793  ERC20InvalidApprover(address(0)) */\n      0x04\n      dup3\n      add\n        /* \"#utility.yul\":2199:2250   */\n      mstore\n        /* \"#utility.yul\":2172:2190   */\n      0x24\n      add\n        /* \"@openzeppelin/contracts/token/ERC20/ERC20.sol\":9761:9793  ERC20InvalidApprover(address(0)) */\n      tag_88\n        /* \"#utility.yul\":2053:2256   */\n      jump\n        /* \"@openzeppelin/contracts/token/ERC20/ERC20.sol\":9715:9804  if (owner == address(0)) {... */\n    tag_137:\n      sub(shl(0xa0, 0x01), 0x01)\n        /* \"@openzeppelin/contracts/token/ERC20/ERC20.sol\":9817:9838  spender == address(0) */\n      dup4\n      and\n        /* \"@openzeppelin/contracts/token/ERC20/ERC20.sol\":9813:9903  if (spender == address(0)) {... */\n      tag_139\n      jumpi\n        /* \"@openzeppelin/contracts/token/ERC20/ERC20.sol\":9861:9892  ERC20InvalidSpender(address(0)) */\n      mload(0x40)\n      shl(0xe1, 0x4a1406b1)\n      dup2\n      mstore\n        /* \"@openzeppelin/contracts/token/ERC20/ERC20.sol\":9889:9890  0 */\n      0x00\n        /* \"@openzeppelin/contracts/token/ERC20/ERC20.sol\":9861:9892  ERC20InvalidSpender(address(0)) */\n      0x04\n      dup3\n      add\n        /* \"#utility.yul\":2199:2250   */\n      mstore\n        /* \"#utility.yul\":2172:2190   */\n      0x24\n      add\n        /* \"@openzeppelin/contracts/token/ERC20/ERC20.sol\":9861:9892  ERC20InvalidSpender(address(0)) */\n      tag_88\n        /* \"#utility.yul\":2053:2256   */\n      jump\n        /* \"@openzeppelin/contracts/token/ERC20/ERC20.sol\":9813:9903  if (spender == address(0)) {... */\n    tag_139:\n      sub(shl(0xa0, 0x01), 0x01)\n        /* \"@openzeppelin/contracts/token/ERC20/ERC20.sol\":9912:9930  _allowances[owner] */\n      dup1\n      dup6\n      and\n      0x00\n      swap1\n      dup2\n      mstore\n        /* \"@openzeppelin/contracts/token/ERC20/ERC20.sol\":9912:9923  _allowances */\n      0x01\n        /* \"@openzeppelin/contracts/token/ERC20/ERC20.sol\":9912:9930  _allowances[owner] */\n      0x20\n      swap1\n      dup2\n      mstore\n      0x40\n      dup1\n      dup4\n      keccak256\n        /* \"@openzeppelin/contracts/token/ERC20/ERC20.sol\":9912:9939  _allowances[owner][spender] */\n      swap4\n      dup8\n      and\n      dup4\n      mstore\n      swap3\n      swap1\n      mstore\n      keccak256\n        /* \"@openzeppelin/contracts/token/ERC20/ERC20.sol\":9912:9947  _allowances[owner][spender] = value */\n      dup3\n      swap1\n      sstore\n        /* \"@openzeppelin/contracts/token/ERC20/ERC20.sol\":9957:10033  if (emitEvent) {... */\n      dup1\n      iszero\n      tag_120\n      jumpi\n        /* \"@openzeppelin/contracts/token/ERC20/ERC20.sol\":10007:10014  spender */\n      dup3\n      sub(shl(0xa0, 0x01), 0x01)\n        /* \"@openzeppelin/contracts/token/ERC20/ERC20.sol\":9991:10022  Approval(owner, spender, value) */\n      and\n        /* \"@openzeppelin/contracts/token/ERC20/ERC20.sol\":10000:10005  owner */\n      dup5\n      sub(shl(0xa0, 0x01), 0x01)\n        /* \"@openzeppelin/contracts/token/ERC20/ERC20.sol\":9991:10022  Approval(owner, spender, value) */\n      and\n      0x8c5be1e5ebec7d5bd14f71427d1e84f3dd0314c0f7b2291e5b200ac8c7c3b925\n        /* \"@openzeppelin/contracts/token/ERC20/ERC20.sol\":10016:10021  value */\n      dup5\n        /* \"@openzeppelin/contracts/token/ERC20/ERC20.sol\":9991:10022  Approval(owner, spender, value) */\n      mload(0x40)\n      tag_142\n      swap2\n        /* \"#utility.yul\":1258:1283   */\n      dup2\n      mstore\n        /* \"#utility.yul\":1246:1248   */\n      0x20\n        /* \"#utility.yul\":1231:1249   */\n      add\n      swap1\n        /* \"#utility.yul\":1112:1289   */\n      jump\n        /* \"@openzeppelin/contracts/token/ERC20/ERC20.sol\":9991:10022  Approval(owner, spender, value) */\n    tag_142:\n      mload(0x40)\n      dup1\n      swap2\n      sub\n      swap1\n      log3\n        /* \"@openzeppelin/contracts/token/ERC20/ERC20.sol\":9607:10039  function _approve(address owner, address spender, uint256 value, bool emitEvent) internal virtual {... */\n      pop\n      pop\n      pop\n      pop\n      jump\t// out\n        /* \"@openzeppelin/contracts/token/ERC20/ERC20.sol\":5912:7019  function _update(address from, address to, uint256 value) internal virtual {... */\n    tag_127:\n      sub(shl(0xa0, 0x01), 0x01)\n        /* \"@openzeppelin/contracts/token/ERC20/ERC20.sol\":6001:6019  from == address(0) */\n      dup4\n      and\n        /* \"@openzeppelin/contracts/token/ERC20/ERC20.sol\":5997:6537  if (from == address(0)) {... */\n      tag_144\n      jumpi\n        /* \"@openzeppelin/contracts/token/ERC20/ERC20.sol\":6153:6158  value */\n      dup1\n        /* \"@openzeppelin/contracts/token/ERC20/ERC20.sol\":6137:6149  _totalSupply */\n      0x02\n      0x00\n        /* \"@openzeppelin/contracts/token/ERC20/ERC20.sol\":6137:6158  _totalSupply += value */\n      dup3\n      dup3\n      sload\n      tag_145\n      swap2\n      swap1\n      tag_146\n      jump\t// in\n    tag_145:\n      swap1\n      swap2\n      sstore\n      pop\n        /* \"@openzeppelin/contracts/token/ERC20/ERC20.sol\":5997:6537  if (from == address(0)) {... */\n      tag_147\n      swap1\n      pop\n      jump\n    tag_144:\n      sub(shl(0xa0, 0x01), 0x01)\n        /* \"@openzeppelin/contracts/token/ERC20/ERC20.sol\":6211:6226  _balances[from] */\n      dup4\n      and\n        /* \"@openzeppelin/contracts/token/ERC20/ERC20.sol\":6189:6208  uint256 fromBalance */\n      0x00\n        /* \"@openzeppelin/contracts/token/ERC20/ERC20.sol\":6211:6226  _balances[from] */\n      swap1\n      dup2\n      mstore\n      0x20\n      dup2\n      swap1\n      mstore\n      0x40\n      swap1\n      keccak256\n      sload\n        /* \"@openzeppelin/contracts/token/ERC20/ERC20.sol\":6244:6263  fromBalance < value */\n      dup2\n      dup2\n      lt\n        /* \"@openzeppelin/contracts/token/ERC20/ERC20.sol\":6240:6355  if (fromBalance < value) {... */\n      iszero\n      tag_148\n      jumpi\n        /* \"@openzeppelin/contracts/token/ERC20/ERC20.sol\":6290:6340  ERC20InsufficientBalance(from, fromBalance, value) */\n      mload(0x40)\n      shl(0xe2, 0x391434e3)\n      dup2\n      mstore\n      sub(shl(0xa0, 0x01), 0x01)\n        /* \"#utility.yul\":3542:3574   */\n      dup6\n      and\n        /* \"@openzeppelin/contracts/token/ERC20/ERC20.sol\":6290:6340  ERC20InsufficientBalance(from, fromBalance, value) */\n      0x04\n      dup3\n      add\n        /* \"#utility.yul\":3524:3575   */\n      mstore\n        /* \"#utility.yul\":3591:3609   */\n      0x24\n      dup2\n      add\n        /* \"#utility.yul\":3584:3618   */\n      dup3\n      swap1\n      mstore\n        /* \"#utility.yul\":3634:3652   */\n      0x44\n      dup2\n      add\n        /* \"#utility.yul\":3627:3661   */\n      dup4\n      swap1\n      mstore\n        /* \"#utility.yul\":3497:3515   */\n      0x64\n      add\n        /* \"@openzeppelin/contracts/token/ERC20/ERC20.sol\":6290:6340  ERC20InsufficientBalance(from, fromBalance, value) */\n      tag_88\n        /* \"#utility.yul\":3322:3667   */\n      jump\n        /* \"@openzeppelin/contracts/token/ERC20/ERC20.sol\":6240:6355  if (fromBalance < value) {... */\n    tag_148:\n      sub(shl(0xa0, 0x01), 0x01)\n        /* \"@openzeppelin/contracts/token/ERC20/ERC20.sol\":6475:6490  _balances[from] */\n      dup5\n      and\n        /* \"@openzeppelin/contracts/token/ERC20/ERC20.sol\":6475:6484  _balances */\n      0x00\n        /* \"@openzeppelin/contracts/token/ERC20/ERC20.sol\":6475:6490  _balances[from] */\n      swap1\n      dup2\n      mstore\n      0x20\n      dup2\n      swap1\n      mstore\n      0x40\n      swap1\n      keccak256\n        /* \"@openzeppelin/contracts/token/ERC20/ERC20.sol\":6493:6512  fromBalance - value */\n      swap1\n      dup3\n      swap1\n      sub\n        /* \"@openzeppelin/contracts/token/ERC20/ERC20.sol\":6475:6512  _balances[from] = fromBalance - value */\n      swap1\n      sstore\n        /* \"@openzeppelin/contracts/token/ERC20/ERC20.sol\":5997:6537  if (from == address(0)) {... */\n    tag_147:\n      sub(shl(0xa0, 0x01), 0x01)\n        /* \"@openzeppelin/contracts/token/ERC20/ERC20.sol\":6551:6567  to == address(0) */\n      dup3\n      and\n        /* \"@openzeppelin/contracts/token/ERC20/ERC20.sol\":6547:6972  if (to == address(0)) {... */\n      tag_150\n      jumpi\n        /* \"@openzeppelin/contracts/token/ERC20/ERC20.sol\":6714:6726  _totalSupply */\n      0x02\n        /* \"@openzeppelin/contracts/token/ERC20/ERC20.sol\":6714:6735  _totalSupply -= value */\n      dup1\n      sload\n      dup3\n      swap1\n      sub\n      swap1\n      sstore\n        /* \"@openzeppelin/contracts/token/ERC20/ERC20.sol\":6547:6972  if (to == address(0)) {... */\n      jump(tag_151)\n    tag_150:\n      sub(shl(0xa0, 0x01), 0x01)\n        /* \"@openzeppelin/contracts/token/ERC20/ERC20.sol\":6925:6938  _balances[to] */\n      dup3\n      and\n        /* \"@openzeppelin/contracts/token/ERC20/ERC20.sol\":6925:6934  _balances */\n      0x00\n        /* \"@openzeppelin/contracts/token/ERC20/ERC20.sol\":6925:6938  _balances[to] */\n      swap1\n      dup2\n      mstore\n      0x20\n      dup2\n      swap1\n      mstore\n      0x40\n      swap1\n      keccak256\n        /* \"@openzeppelin/contracts/token/ERC20/ERC20.sol\":6925:6947  _balances[to] += value */\n      dup1\n      sload\n      dup3\n      add\n      swap1\n      sstore\n        /* \"@openzeppelin/contracts/token/ERC20/ERC20.sol\":6547:6972  if (to == address(0)) {... */\n    tag_151:\n        /* \"@openzeppelin/contracts/token/ERC20/ERC20.sol\":7002:7004  to */\n      dup2\n      sub(shl(0xa0, 0x01), 0x01)\n        /* \"@openzeppelin/contracts/token/ERC20/ERC20.sol\":6987:7012  Transfer(from, to, value) */\n      and\n        /* \"@openzeppelin/contracts/token/ERC20/ERC20.sol\":6996:7000  from */\n      dup4\n      sub(shl(0xa0, 0x01), 0x01)\n        /* \"@openzeppelin/contracts/token/ERC20/ERC20.sol\":6987:7012  Transfer(from, to, value) */\n      and\n      0xddf252ad1be2c89b69c2b068fc378daa952ba7f163c4a11628f55a4df523b3ef\n        /* \"@openzeppelin/contracts/token/ERC20/ERC20.sol\":7006:7011  value */\n      dup4\n        /* \"@openzeppelin/contracts/token/ERC20/ERC20.sol\":6987:7012  Transfer(from, to, value) */\n      mload(0x40)\n      tag_152\n      swap2\n        /* \"#utility.yul\":1258:1283   */\n      dup2\n      mstore\n        /* \"#utility.yul\":1246:1248   */\n      0x20\n        /* \"#utility.yul\":1231:1249   */\n      add\n      swap1\n        /* \"#utility.yul\":1112:1289   */\n      jump\n        /* \"@openzeppelin/contracts/token/ERC20/ERC20.sol\":6987:7012  Transfer(from, to, value) */\n    tag_152:\n      mload(0x40)\n      dup1\n      swap2\n      sub\n      swap1\n      log3\n        /* \"@openzeppelin/contracts/token/ERC20/ERC20.sol\":5912:7019  function _update(address from, address to, uint256 value) internal virtual {... */\n      pop\n      pop\n      pop\n      jump\t// out\n        /* \"#utility.yul\":14:432   */\n    tag_19:\n        /* \"#utility.yul\":163:165   */\n      0x20\n        /* \"#utility.yul\":152:161   */\n      dup2\n        /* \"#utility.yul\":145:166   */\n      mstore\n        /* \"#utility.yul\":126:130   */\n      0x00\n        /* \"#utility.yul\":195:201   */\n      dup3\n        /* \"#utility.yul\":189:202   */\n      mload\n        /* \"#utility.yul\":238:244   */\n      dup1\n        /* \"#utility.yul\":233:235   */\n      0x20\n        /* \"#utility.yul\":222:231   */\n      dup5\n        /* \"#utility.yul\":218:236   */\n      add\n        /* \"#utility.yul\":211:245   */\n      mstore\n        /* \"#utility.yul\":297:303   */\n      dup1\n        /* \"#utility.yul\":292:294   */\n      0x20\n        /* \"#utility.yul\":284:290   */\n      dup6\n        /* \"#utility.yul\":280:295   */\n      add\n        /* \"#utility.yul\":275:277   */\n      0x40\n        /* \"#utility.yul\":264:273   */\n      dup6\n        /* \"#utility.yul\":260:278   */\n      add\n        /* \"#utility.yul\":254:304   */\n      mcopy\n        /* \"#utility.yul\":353:354   */\n      0x00\n        /* \"#utility.yul\":348:350   */\n      0x40\n        /* \"#utility.yul\":339:345   */\n      dup3\n        /* \"#utility.yul\":328:337   */\n      dup6\n        /* \"#utility.yul\":324:346   */\n      add\n        /* \"#utility.yul\":320:351   */\n      add\n        /* \"#utility.yul\":313:355   */\n      mstore\n        /* \"#utility.yul\":423:425   */\n      0x40\n        /* \"#utility.yul\":416:418   */\n      0x1f\n        /* \"#utility.yul\":412:419   */\n      not\n        /* \"#utility.yul\":407:409   */\n      0x1f\n        /* \"#utility.yul\":399:405   */\n      dup4\n        /* \"#utility.yul\":395:410   */\n      add\n        /* \"#utility.yul\":391:420   */\n      and\n        /* \"#utility.yul\":380:389   */\n      dup5\n        /* \"#utility.yul\":376:421   */\n      add\n        /* \"#utility.yul\":372:426   */\n      add\n        /* \"#utility.yul\":364:426   */\n      swap2\n      pop\n      pop\n        /* \"#utility.yul\":14:432   */\n      swap3\n      swap2\n      pop\n      pop\n      jump\t// out\n        /* \"#utility.yul\":437:610   */\n    tag_153:\n        /* \"#utility.yul\":505:525   */\n      dup1\n      calldataload\n      sub(shl(0xa0, 0x01), 0x01)\n        /* \"#utility.yul\":554:585   */\n      dup2\n      and\n        /* \"#utility.yul\":544:586   */\n      dup2\n      eq\n        /* \"#utility.yul\":534:604   */\n      tag_157\n      jumpi\n        /* \"#utility.yul\":600:601   */\n      0x00\n        /* \"#utility.yul\":597:598   */\n      0x00\n        /* \"#utility.yul\":590:602   */\n      revert\n        /* \"#utility.yul\":534:604   */\n    tag_157:\n        /* \"#utility.yul\":437:610   */\n      swap2\n      swap1\n      pop\n      jump\t// out\n        /* \"#utility.yul\":615:915   */\n    tag_22:\n        /* \"#utility.yul\":683:689   */\n      0x00\n        /* \"#utility.yul\":691:697   */\n      0x00\n        /* \"#utility.yul\":744:746   */\n      0x40\n        /* \"#utility.yul\":732:741   */\n      dup4\n        /* \"#utility.yul\":723:730   */\n      dup6\n        /* \"#utility.yul\":719:742   */\n      sub\n        /* \"#utility.yul\":715:747   */\n      slt\n        /* \"#utility.yul\":712:764   */\n      iszero\n      tag_159\n      jumpi\n        /* \"#utility.yul\":760:761   */\n      0x00\n        /* \"#utility.yul\":757:758   */\n      0x00\n        /* \"#utility.yul\":750:762   */\n      revert\n        /* \"#utility.yul\":712:764   */\n    tag_159:\n        /* \"#utility.yul\":783:812   */\n      tag_160\n        /* \"#utility.yul\":802:811   */\n      dup4\n        /* \"#utility.yul\":783:812   */\n      tag_153\n      jump\t// in\n    tag_160:\n        /* \"#utility.yul\":773:812   */\n      swap5\n        /* \"#utility.yul\":881:883   */\n      0x20\n        /* \"#utility.yul\":866:884   */\n      swap4\n      swap1\n      swap4\n      add\n        /* \"#utility.yul\":853:885   */\n      calldataload\n      swap4\n      pop\n      pop\n      pop\n        /* \"#utility.yul\":615:915   */\n      jump\t// out\n        /* \"#utility.yul\":1294:1668   */\n    tag_32:\n        /* \"#utility.yul\":1371:1377   */\n      0x00\n        /* \"#utility.yul\":1379:1385   */\n      0x00\n        /* \"#utility.yul\":1387:1393   */\n      0x00\n        /* \"#utility.yul\":1440:1442   */\n      0x60\n        /* \"#utility.yul\":1428:1437   */\n      dup5\n        /* \"#utility.yul\":1419:1426   */\n      dup7\n        /* \"#utility.yul\":1415:1438   */\n      sub\n        /* \"#utility.yul\":1411:1443   */\n      slt\n        /* \"#utility.yul\":1408:1460   */\n      iszero\n      tag_164\n      jumpi\n        /* \"#utility.yul\":1456:1457   */\n      0x00\n        /* \"#utility.yul\":1453:1454   */\n      0x00\n        /* \"#utility.yul\":1446:1458   */\n      revert\n        /* \"#utility.yul\":1408:1460   */\n    tag_164:\n        /* \"#utility.yul\":1479:1508   */\n      tag_165\n        /* \"#utility.yul\":1498:1507   */\n      dup5\n        /* \"#utility.yul\":1479:1508   */\n      tag_153\n      jump\t// in\n    tag_165:\n        /* \"#utility.yul\":1469:1508   */\n      swap3\n      pop\n        /* \"#utility.yul\":1527:1565   */\n      tag_166\n        /* \"#utility.yul\":1561:1563   */\n      0x20\n        /* \"#utility.yul\":1550:1559   */\n      dup6\n        /* \"#utility.yul\":1546:1564   */\n      add\n        /* \"#utility.yul\":1527:1565   */\n      tag_153\n      jump\t// in\n    tag_166:\n        /* \"#utility.yul\":1294:1668   */\n      swap3\n      swap6\n        /* \"#utility.yul\":1517:1565   */\n      swap3\n      swap5\n      pop\n      pop\n      pop\n        /* \"#utility.yul\":1634:1636   */\n      0x40\n        /* \"#utility.yul\":1619:1637   */\n      swap2\n      swap1\n      swap2\n      add\n        /* \"#utility.yul\":1606:1638   */\n      calldataload\n      swap1\n        /* \"#utility.yul\":1294:1668   */\n      jump\t// out\n        /* \"#utility.yul\":1862:2048   */\n    tag_44:\n        /* \"#utility.yul\":1921:1927   */\n      0x00\n        /* \"#utility.yul\":1974:1976   */\n      0x20\n        /* \"#utility.yul\":1962:1971   */\n      dup3\n        /* \"#utility.yul\":1953:1960   */\n      dup5\n        /* \"#utility.yul\":1949:1972   */\n      sub\n        /* \"#utility.yul\":1945:1977   */\n      slt\n        /* \"#utility.yul\":1942:1994   */\n      iszero\n      tag_169\n      jumpi\n        /* \"#utility.yul\":1990:1991   */\n      0x00\n        /* \"#utility.yul\":1987:1988   */\n      0x00\n        /* \"#utility.yul\":1980:1992   */\n      revert\n        /* \"#utility.yul\":1942:1994   */\n    tag_169:\n        /* \"#utility.yul\":2013:2042   */\n      tag_170\n        /* \"#utility.yul\":2032:2041   */\n      dup3\n        /* \"#utility.yul\":2013:2042   */\n      tag_153\n      jump\t// in\n    tag_170:\n        /* \"#utility.yul\":2003:2042   */\n      swap4\n        /* \"#utility.yul\":1862:2048   */\n      swap3\n      pop\n      pop\n      pop\n      jump\t// out\n        /* \"#utility.yul\":2261:2521   */\n    tag_63:\n        /* \"#utility.yul\":2329:2335   */\n      0x00\n        /* \"#utility.yul\":2337:2343   */\n      0x00\n        /* \"#utility.yul\":2390:2392   */\n      0x40\n        /* \"#utility.yul\":2378:2387   */\n      dup4\n        /* \"#utility.yul\":2369:2376   */\n      dup6\n        /* \"#utility.yul\":2365:2388   */\n      sub\n        /* \"#utility.yul\":2361:2393   */\n      slt\n        /* \"#utility.yul\":2358:2410   */\n      iszero\n      tag_173\n      jumpi\n        /* \"#utility.yul\":2406:2407   */\n      0x00\n        /* \"#utility.yul\":2403:2404   */\n      0x00\n        /* \"#utility.yul\":2396:2408   */\n      revert\n        /* \"#utility.yul\":2358:2410   */\n    tag_173:\n        /* \"#utility.yul\":2429:2458   */\n      tag_174\n        /* \"#utility.yul\":2448:2457   */\n      dup4\n        /* \"#utility.yul\":2429:2458   */\n      tag_153\n      jump\t// in\n    tag_174:\n        /* \"#utility.yul\":2419:2458   */\n      swap2\n      pop\n        /* \"#utility.yul\":2477:2515   */\n      tag_175\n        /* \"#utility.yul\":2511:2513   */\n      0x20\n        /* \"#utility.yul\":2500:2509   */\n      dup5\n        /* \"#utility.yul\":2496:2514   */\n      add\n        /* \"#utility.yul\":2477:2515   */\n      tag_153\n      jump\t// in\n    tag_175:\n        /* \"#utility.yul\":2467:2515   */\n      swap1\n      pop\n        /* \"#utility.yul\":2261:2521   */\n      swap3\n      pop\n      swap3\n      swap1\n      pop\n      jump\t// out\n        /* \"#utility.yul\":2526:2906   */\n    tag_68:\n        /* \"#utility.yul\":2605:2606   */\n      0x01\n        /* \"#utility.yul\":2601:2613   */\n      dup2\n      dup2\n      shr\n      swap1\n        /* \"#utility.yul\":2648:2660   */\n      dup3\n      and\n      dup1\n        /* \"#utility.yul\":2669:2730   */\n      tag_177\n      jumpi\n        /* \"#utility.yul\":2723:2727   */\n      0x7f\n        /* \"#utility.yul\":2715:2721   */\n      dup3\n        /* \"#utility.yul\":2711:2728   */\n      and\n        /* \"#utility.yul\":2701:2728   */\n      swap2\n      pop\n        /* \"#utility.yul\":2669:2730   */\n    tag_177:\n        /* \"#utility.yul\":2776:2778   */\n      0x20\n        /* \"#utility.yul\":2768:2774   */\n      dup3\n        /* \"#utility.yul\":2765:2779   */\n      lt\n        /* \"#utility.yul\":2745:2763   */\n      dup2\n        /* \"#utility.yul\":2742:2780   */\n      sub\n        /* \"#utility.yul\":2739:2900   */\n      tag_178\n      jumpi\n        /* \"#utility.yul\":2822:2832   */\n      0x4e487b71\n        /* \"#utility.yul\":2817:2820   */\n      0xe0\n        /* \"#utility.yul\":2813:2833   */\n      shl\n        /* \"#utility.yul\":2810:2811   */\n      0x00\n        /* \"#utility.yul\":2803:2834   */\n      mstore\n        /* \"#utility.yul\":2857:2861   */\n      0x22\n        /* \"#utility.yul\":2854:2855   */\n      0x04\n        /* \"#utility.yul\":2847:2862   */\n      mstore\n        /* \"#utility.yul\":2885:2889   */\n      0x24\n        /* \"#utility.yul\":2882:2883   */\n      0x00\n        /* \"#utility.yul\":2875:2890   */\n      revert\n        /* \"#utility.yul\":2739:2900   */\n    tag_178:\n      pop\n        /* \"#utility.yul\":2526:2906   */\n      swap2\n      swap1\n      pop\n      jump\t// out\n        /* \"#utility.yul\":2911:3317   */\n    tag_89:\n        /* \"#utility.yul\":3113:3115   */\n      0x20\n        /* \"#utility.yul\":3095:3116   */\n      dup1\n      dup3\n      mstore\n        /* \"#utility.yul\":3152:3154   */\n      0x2a\n        /* \"#utility.yul\":3132:3150   */\n      swap1\n      dup3\n      add\n        /* \"#utility.yul\":3125:3155   */\n      mstore\n        /* \"#utility.yul\":3191:3225   */\n      0x4e6f206175746f72697a61646f3a20736f6c6f20656c2073697374656d612064\n        /* \"#utility.yul\":3186:3188   */\n      0x40\n        /* \"#utility.yul\":3171:3189   */\n      dup3\n      add\n        /* \"#utility.yul\":3164:3226   */\n      mstore\n      shl(0xb1, 0x32903b37ba30b1b4b7b7)\n        /* \"#utility.yul\":3257:3259   */\n      0x60\n        /* \"#utility.yul\":3242:3260   */\n      dup3\n      add\n        /* \"#utility.yul\":3235:3275   */\n      mstore\n        /* \"#utility.yul\":3307:3310   */\n      0x80\n        /* \"#utility.yul\":3292:3311   */\n      add\n      swap1\n        /* \"#utility.yul\":2911:3317   */\n      jump\t// out\n        /* \"#utility.yul\":3672:3894   */\n    tag_146:\n        /* \"#utility.yul\":3737:3746   */\n      dup1\n      dup3\n      add\n        /* \"#utility.yul\":3758:3768   */\n      dup1\n      dup3\n      gt\n        /* \"#utility.yul\":3755:3888   */\n      iszero\n      tag_73\n      jumpi\n        /* \"#utility.yul\":3810:3820   */\n      0x4e487b71\n        /* \"#utility.yul\":3805:3808   */\n      0xe0\n        /* \"#utility.yul\":3801:3821   */\n      shl\n        /* \"#utility.yul\":3798:3799   */\n      0x00\n        /* \"#utility.yul\":3791:3822   */\n      mstore\n        /* \"#utility.yul\":3845:3849   */\n      0x11\n        /* \"#utility.yul\":3842:3843   */\n      0x04\n        /* \"#utility.yul\":3835:3850   */\n      mstore\n        /* \"#utility.yul\":3873:3877   */\n      0x24\n        /* \"#utility.yul\":3870:3871   */\n      0x00\n        /* \"#utility.yul\":3863:3878   */\n      revert\n\n    auxdata: 0xa2646970667358221220c8adfbed651297e45261e9e98487e0266ccd75226d91c9eb754095a73c67f3af64736f6c634300081f0033\n}\n",
				"bytecode": {
					"linkReferences": {},
					"object": "608060405234801561000f575f5ffd5b50604051610b2d380380610b2d83398101604081905261002e91610103565b8181600361003c83826101ec565b50600461004982826101ec565b5050600580546001600160a01b03191633179055506102a6915050565b634e487b7160e01b5f52604160045260245ffd5b5f82601f830112610089575f5ffd5b81516001600160401b038111156100a2576100a2610066565b604051601f8201601f19908116603f011681016001600160401b03811182821017156100d0576100d0610066565b6040528181528382016020018510156100e7575f5ffd5b8160208501602083015e5f918101602001919091529392505050565b5f5f60408385031215610114575f5ffd5b82516001600160401b03811115610129575f5ffd5b6101358582860161007a565b602085015190935090506001600160401b03811115610152575f5ffd5b61015e8582860161007a565b9150509250929050565b600181811c9082168061017c57607f821691505b60208210810361019a57634e487b7160e01b5f52602260045260245ffd5b50919050565b601f8211156101e757805f5260205f20601f840160051c810160208510156101c55750805b601f840160051c820191505b818110156101e4575f81556001016101d1565b50505b505050565b81516001600160401b0381111561020557610205610066565b610219816102138454610168565b846101a0565b6020601f82116001811461024b575f83156102345750848201515b5f19600385901b1c1916600184901b1784556101e4565b5f84815260208120601f198516915b8281101561027a578785015182556020948501946001909201910161025a565b508482101561029757868401515f19600387901b60f8161c191681555b50505050600190811b01905550565b61087a806102b35f395ff3fe608060405234801561000f575f5ffd5b50600436106100b1575f3560e01c806370a082311161006e57806370a082311461013f57806395d89b41146101675780639dc29fac1461016f578063a9059cbb14610182578063c1fc006a14610195578063dd62ed3e146101c0575f5ffd5b806306fdde03146100b5578063095ea7b3146100d357806318160ddd146100f657806323b872dd14610108578063313ce5671461011b57806340c10f191461012a575b5f5ffd5b6100bd6101f8565b6040516100ca91906106a0565b60405180910390f35b6100e66100e13660046106f0565b610288565b60405190151581526020016100ca565b6002545b6040519081526020016100ca565b6100e6610116366004610718565b6102a1565b604051601281526020016100ca565b61013d6101383660046106f0565b6102c4565b005b6100fa61014d366004610752565b6001600160a01b03165f9081526020819052604090205490565b6100bd610305565b61013d61017d3660046106f0565b610314565b6100e66101903660046106f0565b610348565b6005546101a8906001600160a01b031681565b6040516001600160a01b0390911681526020016100ca565b6100fa6101ce366004610772565b6001600160a01b039182165f90815260016020908152604080832093909416825291909152205490565b606060038054610207906107a3565b80601f0160208091040260200160405190810160405280929190818152602001828054610233906107a3565b801561027e5780601f106102555761010080835404028352916020019161027e565b820191905f5260205f20905b81548152906001019060200180831161026157829003601f168201915b5050505050905090565b5f33610295818585610355565b60019150505b92915050565b5f336102ae858285610367565b6102b98585856103e3565b506001949350505050565b6005546001600160a01b031633146102f75760405162461bcd60e51b81526004016102ee906107db565b60405180910390fd5b6103018282610440565b5050565b606060048054610207906107a3565b6005546001600160a01b0316331461033e5760405162461bcd60e51b81526004016102ee906107db565b6103018282610474565b5f336102958185856103e3565b61036283838360016104a8565b505050565b6001600160a01b038381165f908152600160209081526040808320938616835292905220545f198110156103dd57818110156103cf57604051637dc7a0d960e11b81526001600160a01b038416600482015260248101829052604481018390526064016102ee565b6103dd84848484035f6104a8565b50505050565b6001600160a01b03831661040c57604051634b637e8f60e11b81525f60048201526024016102ee565b6001600160a01b0382166104355760405163ec442f0560e01b81525f60048201526024016102ee565b61036283838361057a565b6001600160a01b0382166104695760405163ec442f0560e01b81525f60048201526024016102ee565b6103015f838361057a565b6001600160a01b03821661049d57604051634b637e8f60e11b81525f60048201526024016102ee565b610301825f8361057a565b6001600160a01b0384166104d15760405163e602df0560e01b81525f60048201526024016102ee565b6001600160a01b0383166104fa57604051634a1406b160e11b81525f60048201526024016102ee565b6001600160a01b038085165f90815260016020908152604080832093871683529290522082905580156103dd57826001600160a01b0316846001600160a01b03167f8c5be1e5ebec7d5bd14f71427d1e84f3dd0314c0f7b2291e5b200ac8c7c3b9258460405161056c91815260200190565b60405180910390a350505050565b6001600160a01b0383166105a4578060025f8282546105999190610825565b909155506106149050565b6001600160a01b0383165f90815260208190526040902054818110156105f65760405163391434e360e21b81526001600160a01b038516600482015260248101829052604481018390526064016102ee565b6001600160a01b0384165f9081526020819052604090209082900390555b6001600160a01b0382166106305760028054829003905561064e565b6001600160a01b0382165f9081526020819052604090208054820190555b816001600160a01b0316836001600160a01b03167fddf252ad1be2c89b69c2b068fc378daa952ba7f163c4a11628f55a4df523b3ef8360405161069391815260200190565b60405180910390a3505050565b602081525f82518060208401528060208501604085015e5f604082850101526040601f19601f83011684010191505092915050565b80356001600160a01b03811681146106eb575f5ffd5b919050565b5f5f60408385031215610701575f5ffd5b61070a836106d5565b946020939093013593505050565b5f5f5f6060848603121561072a575f5ffd5b610733846106d5565b9250610741602085016106d5565b929592945050506040919091013590565b5f60208284031215610762575f5ffd5b61076b826106d5565b9392505050565b5f5f60408385031215610783575f5ffd5b61078c836106d5565b915061079a602084016106d5565b90509250929050565b600181811c908216806107b757607f821691505b6020821081036107d557634e487b7160e01b5f52602260045260245ffd5b50919050565b6020808252602a908201527f4e6f206175746f72697a61646f3a20736f6c6f20656c2073697374656d61206460408201526932903b37ba30b1b4b7b760b11b606082015260800190565b8082018082111561029b57634e487b7160e01b5f52601160045260245ffdfea2646970667358221220c8adfbed651297e45261e9e98487e0266ccd75226d91c9eb754095a73c67f3af64736f6c634300081f0033",
					"opcodes": "PUSH1 0x80 PUSH1 0x40 MSTORE CALLVALUE DUP1 ISZERO PUSH2 0xF JUMPI PUSH0 PUSH0 REVERT JUMPDEST POP PUSH1 0x40 MLOAD PUSH2 0xB2D CODESIZE SUB DUP1 PUSH2 0xB2D DUP4 CODECOPY DUP2 ADD PUSH1 0x40 DUP2 SWAP1 MSTORE PUSH2 0x2E SWAP2 PUSH2 0x103 JUMP JUMPDEST DUP2 DUP2 PUSH1 0x3 PUSH2 0x3C DUP4 DUP3 PUSH2 0x1EC JUMP JUMPDEST POP PUSH1 0x4 PUSH2 0x49 DUP3 DUP3 PUSH2 0x1EC JUMP JUMPDEST POP POP PUSH1 0x5 DUP1 SLOAD PUSH1 0x1 PUSH1 0x1 PUSH1 0xA0 SHL SUB NOT AND CALLER OR SWAP1 SSTORE POP PUSH2 0x2A6 SWAP2 POP POP JUMP JUMPDEST PUSH4 0x4E487B71 PUSH1 0xE0 SHL PUSH0 MSTORE PUSH1 0x41 PUSH1 0x4 MSTORE PUSH1 0x24 PUSH0 REVERT JUMPDEST PUSH0 DUP3 PUSH1 0x1F DUP4 ADD SLT PUSH2 0x89 JUMPI PUSH0 PUSH0 REVERT JUMPDEST DUP2 MLOAD PUSH1 0x1 PUSH1 0x1 PUSH1 0x40 SHL SUB DUP2 GT ISZERO PUSH2 0xA2 JUMPI PUSH2 0xA2 PUSH2 0x66 JUMP JUMPDEST PUSH1 0x40 MLOAD PUSH1 0x1F DUP3 ADD PUSH1 0x1F NOT SWAP1 DUP2 AND PUSH1 0x3F ADD AND DUP2 ADD PUSH1 0x1 PUSH1 0x1 PUSH1 0x40 SHL SUB DUP2 GT DUP3 DUP3 LT OR ISZERO PUSH2 0xD0 JUMPI PUSH2 0xD0 PUSH2 0x66 JUMP JUMPDEST PUSH1 0x40 MSTORE DUP2 DUP2 MSTORE DUP4 DUP3 ADD PUSH1 0x20 ADD DUP6 LT ISZERO PUSH2 0xE7 JUMPI PUSH0 PUSH0 REVERT JUMPDEST DUP2 PUSH1 0x20 DUP6 ADD PUSH1 0x20 DUP4 ADD MCOPY PUSH0 SWAP2 DUP2 ADD PUSH1 0x20 ADD SWAP2 SWAP1 SWAP2 MSTORE SWAP4 SWAP3 POP POP POP JUMP JUMPDEST PUSH0 PUSH0 PUSH1 0x40 DUP4 DUP6 SUB SLT ISZERO PUSH2 0x114 JUMPI PUSH0 PUSH0 REVERT JUMPDEST DUP3 MLOAD PUSH1 0x1 PUSH1 0x1 PUSH1 0x40 SHL SUB DUP2 GT ISZERO PUSH2 0x129 JUMPI PUSH0 PUSH0 REVERT JUMPDEST PUSH2 0x135 DUP6 DUP3 DUP7 ADD PUSH2 0x7A JUMP JUMPDEST PUSH1 0x20 DUP6 ADD MLOAD SWAP1 SWAP4 POP SWAP1 POP PUSH1 0x1 PUSH1 0x1 PUSH1 0x40 SHL SUB DUP2 GT ISZERO PUSH2 0x152 JUMPI PUSH0 PUSH0 REVERT JUMPDEST PUSH2 0x15E DUP6 DUP3 DUP7 ADD PUSH2 0x7A JUMP JUMPDEST SWAP2 POP POP SWAP3 POP SWAP3 SWAP1 POP JUMP JUMPDEST PUSH1 0x1 DUP2 DUP2 SHR SWAP1 DUP3 AND DUP1 PUSH2 0x17C JUMPI PUSH1 0x7F DUP3 AND SWAP2 POP JUMPDEST PUSH1 0x20 DUP3 LT DUP2 SUB PUSH2 0x19A JUMPI PUSH4 0x4E487B71 PUSH1 0xE0 SHL PUSH0 MSTORE PUSH1 0x22 PUSH1 0x4 MSTORE PUSH1 0x24 PUSH0 REVERT JUMPDEST POP SWAP2 SWAP1 POP JUMP JUMPDEST PUSH1 0x1F DUP3 GT ISZERO PUSH2 0x1E7 JUMPI DUP1 PUSH0 MSTORE PUSH1 0x20 PUSH0 KECCAK256 PUSH1 0x1F DUP5 ADD PUSH1 0x5 SHR DUP2 ADD PUSH1 0x20 DUP6 LT ISZERO PUSH2 0x1C5 JUMPI POP DUP1 JUMPDEST PUSH1 0x1F DUP5 ADD PUSH1 0x5 SHR DUP3 ADD SWAP2 POP JUMPDEST DUP2 DUP2 LT ISZERO PUSH2 0x1E4 JUMPI PUSH0 DUP2 SSTORE PUSH1 0x1 ADD PUSH2 0x1D1 JUMP JUMPDEST POP POP JUMPDEST POP POP POP JUMP JUMPDEST DUP2 MLOAD PUSH1 0x1 PUSH1 0x1 PUSH1 0x40 SHL SUB DUP2 GT ISZERO PUSH2 0x205 JUMPI PUSH2 0x205 PUSH2 0x66 JUMP JUMPDEST PUSH2 0x219 DUP2 PUSH2 0x213 DUP5 SLOAD PUSH2 0x168 JUMP JUMPDEST DUP5 PUSH2 0x1A0 JUMP JUMPDEST PUSH1 0x20 PUSH1 0x1F DUP3 GT PUSH1 0x1 DUP2 EQ PUSH2 0x24B JUMPI PUSH0 DUP4 ISZERO PUSH2 0x234 JUMPI POP DUP5 DUP3 ADD MLOAD JUMPDEST PUSH0 NOT PUSH1 0x3 DUP6 SWAP1 SHL SHR NOT AND PUSH1 0x1 DUP5 SWAP1 SHL OR DUP5 SSTORE PUSH2 0x1E4 JUMP JUMPDEST PUSH0 DUP5 DUP2 MSTORE PUSH1 0x20 DUP2 KECCAK256 PUSH1 0x1F NOT DUP6 AND SWAP2 JUMPDEST DUP3 DUP2 LT ISZERO PUSH2 0x27A JUMPI DUP8 DUP6 ADD MLOAD DUP3 SSTORE PUSH1 0x20 SWAP5 DUP6 ADD SWAP5 PUSH1 0x1 SWAP1 SWAP3 ADD SWAP2 ADD PUSH2 0x25A JUMP JUMPDEST POP DUP5 DUP3 LT ISZERO PUSH2 0x297 JUMPI DUP7 DUP5 ADD MLOAD PUSH0 NOT PUSH1 0x3 DUP8 SWAP1 SHL PUSH1 0xF8 AND SHR NOT AND DUP2 SSTORE JUMPDEST POP POP POP POP PUSH1 0x1 SWAP1 DUP2 SHL ADD SWAP1 SSTORE POP JUMP JUMPDEST PUSH2 0x87A DUP1 PUSH2 0x2B3 PUSH0 CODECOPY PUSH0 RETURN INVALID PUSH1 0x80 PUSH1 0x40 MSTORE CALLVALUE DUP1 ISZERO PUSH2 0xF JUMPI PUSH0 PUSH0 REVERT JUMPDEST POP PUSH1 0x4 CALLDATASIZE LT PUSH2 0xB1 JUMPI PUSH0 CALLDATALOAD PUSH1 0xE0 SHR DUP1 PUSH4 0x70A08231 GT PUSH2 0x6E JUMPI DUP1 PUSH4 0x70A08231 EQ PUSH2 0x13F JUMPI DUP1 PUSH4 0x95D89B41 EQ PUSH2 0x167 JUMPI DUP1 PUSH4 0x9DC29FAC EQ PUSH2 0x16F JUMPI DUP1 PUSH4 0xA9059CBB EQ PUSH2 0x182 JUMPI DUP1 PUSH4 0xC1FC006A EQ PUSH2 0x195 JUMPI DUP1 PUSH4 0xDD62ED3E EQ PUSH2 0x1C0 JUMPI PUSH0 PUSH0 REVERT JUMPDEST DUP1 PUSH4 0x6FDDE03 EQ PUSH2 0xB5 JUMPI DUP1 PUSH4 0x95EA7B3 EQ PUSH2 0xD3 JUMPI DUP1 PUSH4 0x18160DDD EQ PUSH2 0xF6 JUMPI DUP1 PUSH4 0x23B872DD EQ PUSH2 0x108 JUMPI DUP1 PUSH4 0x313CE567 EQ PUSH2 0x11B JUMPI DUP1 PUSH4 0x40C10F19 EQ PUSH2 0x12A JUMPI JUMPDEST PUSH0 PUSH0 REVERT JUMPDEST PUSH2 0xBD PUSH2 0x1F8 JUMP JUMPDEST PUSH1 0x40 MLOAD PUSH2 0xCA SWAP2 SWAP1 PUSH2 0x6A0 JUMP JUMPDEST PUSH1 0x40 MLOAD DUP1 SWAP2 SUB SWAP1 RETURN JUMPDEST PUSH2 0xE6 PUSH2 0xE1 CALLDATASIZE PUSH1 0x4 PUSH2 0x6F0 JUMP JUMPDEST PUSH2 0x288 JUMP JUMPDEST PUSH1 0x40 MLOAD SWAP1 ISZERO ISZERO DUP2 MSTORE PUSH1 0x20 ADD PUSH2 0xCA JUMP JUMPDEST PUSH1 0x2 SLOAD JUMPDEST PUSH1 0x40 MLOAD SWAP1 DUP2 MSTORE PUSH1 0x20 ADD PUSH2 0xCA JUMP JUMPDEST PUSH2 0xE6 PUSH2 0x116 CALLDATASIZE PUSH1 0x4 PUSH2 0x718 JUMP JUMPDEST PUSH2 0x2A1 JUMP JUMPDEST PUSH1 0x40 MLOAD PUSH1 0x12 DUP2 MSTORE PUSH1 0x20 ADD PUSH2 0xCA JUMP JUMPDEST PUSH2 0x13D PUSH2 0x138 CALLDATASIZE PUSH1 0x4 PUSH2 0x6F0 JUMP JUMPDEST PUSH2 0x2C4 JUMP JUMPDEST STOP JUMPDEST PUSH2 0xFA PUSH2 0x14D CALLDATASIZE PUSH1 0x4 PUSH2 0x752 JUMP JUMPDEST PUSH1 0x1 PUSH1 0x1 PUSH1 0xA0 SHL SUB AND PUSH0 SWAP1 DUP2 MSTORE PUSH1 0x20 DUP2 SWAP1 MSTORE PUSH1 0x40 SWAP1 KECCAK256 SLOAD SWAP1 JUMP JUMPDEST PUSH2 0xBD PUSH2 0x305 JUMP JUMPDEST PUSH2 0x13D PUSH2 0x17D CALLDATASIZE PUSH1 0x4 PUSH2 0x6F0 JUMP JUMPDEST PUSH2 0x314 JUMP JUMPDEST PUSH2 0xE6 PUSH2 0x190 CALLDATASIZE PUSH1 0x4 PUSH2 0x6F0 JUMP JUMPDEST PUSH2 0x348 JUMP JUMPDEST PUSH1 0x5 SLOAD PUSH2 0x1A8 SWAP1 PUSH1 0x1 PUSH1 0x1 PUSH1 0xA0 SHL SUB AND DUP2 JUMP JUMPDEST PUSH1 0x40 MLOAD PUSH1 0x1 PUSH1 0x1 PUSH1 0xA0 SHL SUB SWAP1 SWAP2 AND DUP2 MSTORE PUSH1 0x20 ADD PUSH2 0xCA JUMP JUMPDEST PUSH2 0xFA PUSH2 0x1CE CALLDATASIZE PUSH1 0x4 PUSH2 0x772 JUMP JUMPDEST PUSH1 0x1 PUSH1 0x1 PUSH1 0xA0 SHL SUB SWAP2 DUP3 AND PUSH0 SWAP1 DUP2 MSTORE PUSH1 0x1 PUSH1 0x20 SWAP1 DUP2 MSTORE PUSH1 0x40 DUP1 DUP4 KECCAK256 SWAP4 SWAP1 SWAP5 AND DUP3 MSTORE SWAP2 SWAP1 SWAP2 MSTORE KECCAK256 SLOAD SWAP1 JUMP JUMPDEST PUSH1 0x60 PUSH1 0x3 DUP1 SLOAD PUSH2 0x207 SWAP1 PUSH2 0x7A3 JUMP JUMPDEST DUP1 PUSH1 0x1F ADD PUSH1 0x20 DUP1 SWAP2 DIV MUL PUSH1 0x20 ADD PUSH1 0x40 MLOAD SWAP1 DUP2 ADD PUSH1 0x40 MSTORE DUP1 SWAP3 SWAP2 SWAP1 DUP2 DUP2 MSTORE PUSH1 0x20 ADD DUP3 DUP1 SLOAD PUSH2 0x233 SWAP1 PUSH2 0x7A3 JUMP JUMPDEST DUP1 ISZERO PUSH2 0x27E JUMPI DUP1 PUSH1 0x1F LT PUSH2 0x255 JUMPI PUSH2 0x100 DUP1 DUP4 SLOAD DIV MUL DUP4 MSTORE SWAP2 PUSH1 0x20 ADD SWAP2 PUSH2 0x27E JUMP JUMPDEST DUP3 ADD SWAP2 SWAP1 PUSH0 MSTORE PUSH1 0x20 PUSH0 KECCAK256 SWAP1 JUMPDEST DUP2 SLOAD DUP2 MSTORE SWAP1 PUSH1 0x1 ADD SWAP1 PUSH1 0x20 ADD DUP1 DUP4 GT PUSH2 0x261 JUMPI DUP3 SWAP1 SUB PUSH1 0x1F AND DUP3 ADD SWAP2 JUMPDEST POP POP POP POP POP SWAP1 POP SWAP1 JUMP JUMPDEST PUSH0 CALLER PUSH2 0x295 DUP2 DUP6 DUP6 PUSH2 0x355 JUMP JUMPDEST PUSH1 0x1 SWAP2 POP POP JUMPDEST SWAP3 SWAP2 POP POP JUMP JUMPDEST PUSH0 CALLER PUSH2 0x2AE DUP6 DUP3 DUP6 PUSH2 0x367 JUMP JUMPDEST PUSH2 0x2B9 DUP6 DUP6 DUP6 PUSH2 0x3E3 JUMP JUMPDEST POP PUSH1 0x1 SWAP5 SWAP4 POP POP POP POP JUMP JUMPDEST PUSH1 0x5 SLOAD PUSH1 0x1 PUSH1 0x1 PUSH1 0xA0 SHL SUB AND CALLER EQ PUSH2 0x2F7 JUMPI PUSH1 0x40 MLOAD PUSH3 0x461BCD PUSH1 0xE5 SHL DUP2 MSTORE PUSH1 0x4 ADD PUSH2 0x2EE SWAP1 PUSH2 0x7DB JUMP JUMPDEST PUSH1 0x40 MLOAD DUP1 SWAP2 SUB SWAP1 REVERT JUMPDEST PUSH2 0x301 DUP3 DUP3 PUSH2 0x440 JUMP JUMPDEST POP POP JUMP JUMPDEST PUSH1 0x60 PUSH1 0x4 DUP1 SLOAD PUSH2 0x207 SWAP1 PUSH2 0x7A3 JUMP JUMPDEST PUSH1 0x5 SLOAD PUSH1 0x1 PUSH1 0x1 PUSH1 0xA0 SHL SUB AND CALLER EQ PUSH2 0x33E JUMPI PUSH1 0x40 MLOAD PUSH3 0x461BCD PUSH1 0xE5 SHL DUP2 MSTORE PUSH1 0x4 ADD PUSH2 0x2EE SWAP1 PUSH2 0x7DB JUMP JUMPDEST PUSH2 0x301 DUP3 DUP3 PUSH2 0x474 JUMP JUMPDEST PUSH0 CALLER PUSH2 0x295 DUP2 DUP6 DUP6 PUSH2 0x3E3 JUMP JUMPDEST PUSH2 0x362 DUP4 DUP4 DUP4 PUSH1 0x1 PUSH2 0x4A8 JUMP JUMPDEST POP POP POP JUMP JUMPDEST PUSH1 0x1 PUSH1 0x1 PUSH1 0xA0 SHL SUB DUP4 DUP2 AND PUSH0 SWAP1 DUP2 MSTORE PUSH1 0x1 PUSH1 0x20 SWAP1 DUP2 MSTORE PUSH1 0x40 DUP1 DUP4 KECCAK256 SWAP4 DUP7 AND DUP4 MSTORE SWAP3 SWAP1 MSTORE KECCAK256 SLOAD PUSH0 NOT DUP2 LT ISZERO PUSH2 0x3DD JUMPI DUP2 DUP2 LT ISZERO PUSH2 0x3CF JUMPI PUSH1 0x40 MLOAD PUSH4 0x7DC7A0D9 PUSH1 0xE1 SHL DUP2 MSTORE PUSH1 0x1 PUSH1 0x1 PUSH1 0xA0 SHL SUB DUP5 AND PUSH1 0x4 DUP3 ADD MSTORE PUSH1 0x24 DUP2 ADD DUP3 SWAP1 MSTORE PUSH1 0x44 DUP2 ADD DUP4 SWAP1 MSTORE PUSH1 0x64 ADD PUSH2 0x2EE JUMP JUMPDEST PUSH2 0x3DD DUP5 DUP5 DUP5 DUP5 SUB PUSH0 PUSH2 0x4A8 JUMP JUMPDEST POP POP POP POP JUMP JUMPDEST PUSH1 0x1 PUSH1 0x1 PUSH1 0xA0 SHL SUB DUP4 AND PUSH2 0x40C JUMPI PUSH1 0x40 MLOAD PUSH4 0x4B637E8F PUSH1 0xE1 SHL DUP2 MSTORE PUSH0 PUSH1 0x4 DUP3 ADD MSTORE PUSH1 0x24 ADD PUSH2 0x2EE JUMP JUMPDEST PUSH1 0x1 PUSH1 0x1 PUSH1 0xA0 SHL SUB DUP3 AND PUSH2 0x435 JUMPI PUSH1 0x40 MLOAD PUSH4 0xEC442F05 PUSH1 0xE0 SHL DUP2 MSTORE PUSH0 PUSH1 0x4 DUP3 ADD MSTORE PUSH1 0x24 ADD PUSH2 0x2EE JUMP JUMPDEST PUSH2 0x362 DUP4 DUP4 DUP4 PUSH2 0x57A JUMP JUMPDEST PUSH1 0x1 PUSH1 0x1 PUSH1 0xA0 SHL SUB DUP3 AND PUSH2 0x469 JUMPI PUSH1 0x40 MLOAD PUSH4 0xEC442F05 PUSH1 0xE0 SHL DUP2 MSTORE PUSH0 PUSH1 0x4 DUP3 ADD MSTORE PUSH1 0x24 ADD PUSH2 0x2EE JUMP JUMPDEST PUSH2 0x301 PUSH0 DUP4 DUP4 PUSH2 0x57A JUMP JUMPDEST PUSH1 0x1 PUSH1 0x1 PUSH1 0xA0 SHL SUB DUP3 AND PUSH2 0x49D JUMPI PUSH1 0x40 MLOAD PUSH4 0x4B637E8F PUSH1 0xE1 SHL DUP2 MSTORE PUSH0 PUSH1 0x4 DUP3 ADD MSTORE PUSH1 0x24 ADD PUSH2 0x2EE JUMP JUMPDEST PUSH2 0x301 DUP3 PUSH0 DUP4 PUSH2 0x57A JUMP JUMPDEST PUSH1 0x1 PUSH1 0x1 PUSH1 0xA0 SHL SUB DUP5 AND PUSH2 0x4D1 JUMPI PUSH1 0x40 MLOAD PUSH4 0xE602DF05 PUSH1 0xE0 SHL DUP2 MSTORE PUSH0 PUSH1 0x4 DUP3 ADD MSTORE PUSH1 0x24 ADD PUSH2 0x2EE JUMP JUMPDEST PUSH1 0x1 PUSH1 0x1 PUSH1 0xA0 SHL SUB DUP4 AND PUSH2 0x4FA JUMPI PUSH1 0x40 MLOAD PUSH4 0x4A1406B1 PUSH1 0xE1 SHL DUP2 MSTORE PUSH0 PUSH1 0x4 DUP3 ADD MSTORE PUSH1 0x24 ADD PUSH2 0x2EE JUMP JUMPDEST PUSH1 0x1 PUSH1 0x1 PUSH1 0xA0 SHL SUB DUP1 DUP6 AND PUSH0 SWAP1 DUP2 MSTORE PUSH1 0x1 PUSH1 0x20 SWAP1 DUP2 MSTORE PUSH1 0x40 DUP1 DUP4 KECCAK256 SWAP4 DUP8 AND DUP4 MSTORE SWAP3 SWAP1 MSTORE KECCAK256 DUP3 SWAP1 SSTORE DUP1 ISZERO PUSH2 0x3DD JUMPI DUP3 PUSH1 0x1 PUSH1 0x1 PUSH1 0xA0 SHL SUB AND DUP5 PUSH1 0x1 PUSH1 0x1 PUSH1 0xA0 SHL SUB AND PUSH32 0x8C5BE1E5EBEC7D5BD14F71427D1E84F3DD0314C0F7B2291E5B200AC8C7C3B925 DUP5 PUSH1 0x40 MLOAD PUSH2 0x56C SWAP2 DUP2 MSTORE PUSH1 0x20 ADD SWAP1 JUMP JUMPDEST PUSH1 0x40 MLOAD DUP1 SWAP2 SUB SWAP1 LOG3 POP POP POP POP JUMP JUMPDEST PUSH1 0x1 PUSH1 0x1 PUSH1 0xA0 SHL SUB DUP4 AND PUSH2 0x5A4 JUMPI DUP1 PUSH1 0x2 PUSH0 DUP3 DUP3 SLOAD PUSH2 0x599 SWAP2 SWAP1 PUSH2 0x825 JUMP JUMPDEST SWAP1 SWAP2 SSTORE POP PUSH2 0x614 SWAP1 POP JUMP JUMPDEST PUSH1 0x1 PUSH1 0x1 PUSH1 0xA0 SHL SUB DUP4 AND PUSH0 SWAP1 DUP2 MSTORE PUSH1 0x20 DUP2 SWAP1 MSTORE PUSH1 0x40 SWAP1 KECCAK256 SLOAD DUP2 DUP2 LT ISZERO PUSH2 0x5F6 JUMPI PUSH1 0x40 MLOAD PUSH4 0x391434E3 PUSH1 0xE2 SHL DUP2 MSTORE PUSH1 0x1 PUSH1 0x1 PUSH1 0xA0 SHL SUB DUP6 AND PUSH1 0x4 DUP3 ADD MSTORE PUSH1 0x24 DUP2 ADD DUP3 SWAP1 MSTORE PUSH1 0x44 DUP2 ADD DUP4 SWAP1 MSTORE PUSH1 0x64 ADD PUSH2 0x2EE JUMP JUMPDEST PUSH1 0x1 PUSH1 0x1 PUSH1 0xA0 SHL SUB DUP5 AND PUSH0 SWAP1 DUP2 MSTORE PUSH1 0x20 DUP2 SWAP1 MSTORE PUSH1 0x40 SWAP1 KECCAK256 SWAP1 DUP3 SWAP1 SUB SWAP1 SSTORE JUMPDEST PUSH1 0x1 PUSH1 0x1 PUSH1 0xA0 SHL SUB DUP3 AND PUSH2 0x630 JUMPI PUSH1 0x2 DUP1 SLOAD DUP3 SWAP1 SUB SWAP1 SSTORE PUSH2 0x64E JUMP JUMPDEST PUSH1 0x1 PUSH1 0x1 PUSH1 0xA0 SHL SUB DUP3 AND PUSH0 SWAP1 DUP2 MSTORE PUSH1 0x20 DUP2 SWAP1 MSTORE PUSH1 0x40 SWAP1 KECCAK256 DUP1 SLOAD DUP3 ADD SWAP1 SSTORE JUMPDEST DUP2 PUSH1 0x1 PUSH1 0x1 PUSH1 0xA0 SHL SUB AND DUP4 PUSH1 0x1 PUSH1 0x1 PUSH1 0xA0 SHL SUB AND PUSH32 0xDDF252AD1BE2C89B69C2B068FC378DAA952BA7F163C4A11628F55A4DF523B3EF DUP4 PUSH1 0x40 MLOAD PUSH2 0x693 SWAP2 DUP2 MSTORE PUSH1 0x20 ADD SWAP1 JUMP JUMPDEST PUSH1 0x40 MLOAD DUP1 SWAP2 SUB SWAP1 LOG3 POP POP POP JUMP JUMPDEST PUSH1 0x20 DUP2 MSTORE PUSH0 DUP3 MLOAD DUP1 PUSH1 0x20 DUP5 ADD MSTORE DUP1 PUSH1 0x20 DUP6 ADD PUSH1 0x40 DUP6 ADD MCOPY PUSH0 PUSH1 0x40 DUP3 DUP6 ADD ADD MSTORE PUSH1 0x40 PUSH1 0x1F NOT PUSH1 0x1F DUP4 ADD AND DUP5 ADD ADD SWAP2 POP POP SWAP3 SWAP2 POP POP JUMP JUMPDEST DUP1 CALLDATALOAD PUSH1 0x1 PUSH1 0x1 PUSH1 0xA0 SHL SUB DUP2 AND DUP2 EQ PUSH2 0x6EB JUMPI PUSH0 PUSH0 REVERT JUMPDEST SWAP2 SWAP1 POP JUMP JUMPDEST PUSH0 PUSH0 PUSH1 0x40 DUP4 DUP6 SUB SLT ISZERO PUSH2 0x701 JUMPI PUSH0 PUSH0 REVERT JUMPDEST PUSH2 0x70A DUP4 PUSH2 0x6D5 JUMP JUMPDEST SWAP5 PUSH1 0x20 SWAP4 SWAP1 SWAP4 ADD CALLDATALOAD SWAP4 POP POP POP JUMP JUMPDEST PUSH0 PUSH0 PUSH0 PUSH1 0x60 DUP5 DUP7 SUB SLT ISZERO PUSH2 0x72A JUMPI PUSH0 PUSH0 REVERT JUMPDEST PUSH2 0x733 DUP5 PUSH2 0x6D5 JUMP JUMPDEST SWAP3 POP PUSH2 0x741 PUSH1 0x20 DUP6 ADD PUSH2 0x6D5 JUMP JUMPDEST SWAP3 SWAP6 SWAP3 SWAP5 POP POP POP PUSH1 0x40 SWAP2 SWAP1 SWAP2 ADD CALLDATALOAD SWAP1 JUMP JUMPDEST PUSH0 PUSH1 0x20 DUP3 DUP5 SUB SLT ISZERO PUSH2 0x762 JUMPI PUSH0 PUSH0 REVERT JUMPDEST PUSH2 0x76B DUP3 PUSH2 0x6D5 JUMP JUMPDEST SWAP4 SWAP3 POP POP POP JUMP JUMPDEST PUSH0 PUSH0 PUSH1 0x40 DUP4 DUP6 SUB SLT ISZERO PUSH2 0x783 JUMPI PUSH0 PUSH0 REVERT JUMPDEST PUSH2 0x78C DUP4 PUSH2 0x6D5 JUMP JUMPDEST SWAP2 POP PUSH2 0x79A PUSH1 0x20 DUP5 ADD PUSH2 0x6D5 JUMP JUMPDEST SWAP1 POP SWAP3 POP SWAP3 SWAP1 POP JUMP JUMPDEST PUSH1 0x1 DUP2 DUP2 SHR SWAP1 DUP3 AND DUP1 PUSH2 0x7B7 JUMPI PUSH1 0x7F DUP3 AND SWAP2 POP JUMPDEST PUSH1 0x20 DUP3 LT DUP2 SUB PUSH2 0x7D5 JUMPI PUSH4 0x4E487B71 PUSH1 0xE0 SHL PUSH0 MSTORE PUSH1 0x22 PUSH1 0x4 MSTORE PUSH1 0x24 PUSH0 REVERT JUMPDEST POP SWAP2 SWAP1 POP JUMP JUMPDEST PUSH1 0x20 DUP1 DUP3 MSTORE PUSH1 0x2A SWAP1 DUP3 ADD MSTORE PUSH32 0x4E6F206175746F72697A61646F3A20736F6C6F20656C2073697374656D612064 PUSH1 0x40 DUP3 ADD MSTORE PUSH10 0x32903B37BA30B1B4B7B7 PUSH1 0xB1 SHL PUSH1 0x60 DUP3 ADD MSTORE PUSH1 0x80 ADD SWAP1 JUMP JUMPDEST DUP1 DUP3 ADD DUP1 DUP3 GT ISZERO PUSH2 0x29B JUMPI PUSH4 0x4E487B71 PUSH1 0xE0 SHL PUSH0 MSTORE PUSH1 0x11 PUSH1 0x4 MSTORE PUSH1 0x24 PUSH0 REVERT INVALID LOG2 PUSH5 0x6970667358 0x22 SLT KECCAK256 0xC8 0xAD EXTSTATICCALL 0xED PUSH6 0x1297E45261E9 0xE9 DUP5 DUP8 RJUMP 0x266C 0xCD PUSH22 0x226D91C9EB754095A73C67F3AF64736F6C634300081F STOP CALLER "
				},
				"gasEstimates": {
					"creation": {
						"codeDepositCost": "434000",
						"executionCost": "infinite",
						"totalCost": "infinite"
					},
					"external": {
						"allowance(address,address)": "infinite",
						"approve(address,uint256)": "24734",
						"balanceOf(address)": "2537",
						"burn(address,uint256)": "infinite",
						"decimals()": "265",
						"mint(address,uint256)": "infinite",
						"name()": "infinite",
						"symbol()": "infinite",
						"totalSupply()": "2325",
						"transfer(address,uint256)": "51281",
						"transferFrom(address,address,uint256)": "infinite",
						"votingContract()": "2424"
					}
				},
				"methodIdentifiers": {
					"allowance(address,address)": "dd62ed3e",
					"approve(address,uint256)": "095ea7b3",
					"balanceOf(address)": "70a08231",
					"burn(address,uint256)": "9dc29fac",
					"decimals()": "313ce567",
					"mint(address,uint256)": "40c10f19",
					"name()": "06fdde03",
					"symbol()": "95d89b41",
					"totalSupply()": "18160ddd",
					"transfer(address,uint256)": "a9059cbb",
					"transferFrom(address,address,uint256)": "23b872dd",
					"votingContract()": "c1fc006a"
				}
			},
			"storageLayout": {
				"storage": [
					{
						"astId": 159,
						"contract": "src/GovernanceToken.sol:GovernanceToken",
						"label": "_balances",
						"offset": 0,
						"slot": "0",
						"type": "t_mapping(t_address,t_uint256)"
					},
					{
						"astId": 165,
						"contract": "src/GovernanceToken.sol:GovernanceToken",
						"label": "_allowances",
						"offset": 0,
						"slot": "1",
						"type": "t_mapping(t_address,t_mapping(t_address,t_uint256))"
					},
					{
						"astId": 167,
						"contract": "src/GovernanceToken.sol:GovernanceToken",
						"label": "_totalSupply",
						"offset": 0,
						"slot": "2",
						"type": "t_uint256"
					},
					{
						"astId": 169,
						"contract": "src/GovernanceToken.sol:GovernanceToken",
						"label": "_name",
						"offset": 0,
						"slot": "3",
						"type": "t_string_storage"
					},
					{
						"astId": 171,
						"contract": "src/GovernanceToken.sol:GovernanceToken",
						"label": "_symbol",
						"offset": 0,
						"slot": "4",
						"type": "t_string_storage"
					},
					{
						"astId": 1014,
						"contract": "src/GovernanceToken.sol:GovernanceToken",
						"label": "votingContract",
						"offset": 0,
						"slot": "5",
						"type": "t_address"
					}
				],
				"types": {
					"t_address": {
						"encoding": "inplace",
						"label": "address",
						"numberOfBytes": "20"
					},
					"t_mapping(t_address,t_mapping(t_address,t_uint256))": {
						"encoding": "mapping",
						"key": "t_address",
						"label": "mapping(address => mapping(address => uint256))",
						"numberOfBytes": "32",
						"value": "t_mapping(t_address,t_uint256)"
					},
					"t_mapping(t_address,t_uint256)": {
						"encoding": "mapping",
						"key": "t_address",
						"label": "mapping(address => uint256)",
						"numberOfBytes": "32",
						"value": "t_uint256"
					},
					"t_string_storage": {
						"encoding": "bytes",
						"label": "string",
						"numberOfBytes": "32"
					},
					"t_uint256": {
						"encoding": "inplace",
						"label": "uint256",
						"numberOfBytes": "32"
					}
				}
			},
			"userdoc": {
				"kind": "user",
				"methods": {},
				"version": 1
			}
		}
	}
}