{
	"src/QuadraticVoting.sol": {
		"QuadraticVoting": {
			"abi": [
				{
					"inputs": [
						{
							"internalType": "uint256",
							"name": "_tokenPriceWei",
							"type": "uint256"
						},
						{
							"internalType": "uint256",
							"name": "_maxTokens",
							"type": "uint256"
						}
					],
					"stateMutability": "nonpayable",
					"type": "constructor"
				},
				{
					"anonymous": false,
					"inputs": [
						{
							"indexed": true,
							"internalType": "address",
							"name": "participant",
							"type": "address"
						},
						{
							"indexed": false,
							"internalType": "uint256",
							"name": "tokensBought",
							"type": "uint256"
						}
					],
					"name": "ParticipantAdded",
					"type": "event"
				},
				{
					"anonymous": false,
					"inputs": [
						{
							"indexed": true,
							"internalType": "uint256",
							"name": "id",
							"type": "uint256"
						},
						{
							"indexed": false,
							"internalType": "uint256",
							"name": "fundsSent",
							"type": "uint256"
						}
					],
					"name": "ProposalApproved",
					"type": "event"
				},
				{
					"anonymous": false,
					"inputs": [
						{
							"indexed": true,
							"internalType": "uint256",
							"name": "id",
							"type": "uint256"
						},
						{
							"indexed": false,
							"internalType": "string",
							"name": "title",
							"type": "string"
						},
						{
							"indexed": false,
							"internalType": "uint256",
							"name": "budget",
							"type": "uint256"
						}
					],
					"name": "ProposalCreated",
					"type": "event"
				},
				{
					"anonymous": false,
					"inputs": [
						{
							"indexed": true,
							"internalType": "uint256",
							"name": "proposalId",
							"type": "uint256"
						},
						{
							"indexed": true,
							"internalType": "address",
							"name": "voter",
							"type": "address"
						},
						{
							"indexed": false,
							"internalType": "uint256",
							"name": "votes",
							"type": "uint256"
						},
						{
							"indexed": false,
							"internalType": "uint256",
							"name": "cost",
							"type": "uint256"
						}
					],
					"name": "VoteCast",
					"type": "event"
				},
				{
					"anonymous": false,
					"inputs": [
						{
							"indexed": false,
							"internalType": "uint256",
							"name": "initialBudget",
							"type": "uint256"
						}
					],
					"name": "VotingOpened",
					"type": "event"
				},
				{
					"inputs": [],
					"name": "addParticipant",
					"outputs": [],
					"stateMutability": "payable",
					"type": "function"
				},
				{
					"inputs": [
						{
							"internalType": "string",
							"name": "_title",
							"type": "string"
						},
						{
							"internalType": "uint256",
							"name": "_budget",
							"type": "uint256"
						},
						{
							"internalType": "address",
							"name": "_exec",
							"type": "address"
						}
					],
					"name": "addProposal",
					"outputs": [
						{
							"internalType": "uint256",
							"name": "",
							"type": "uint256"
						}
					],
					"stateMutability": "nonpayable",
					"type": "function"
				},
				{
					"inputs": [],
					"name": "buyTokens",
					"outputs": [],
					"stateMutability": "payable",
					"type": "function"
				},
				{
					"inputs": [],
					"name": "closeVoting",
					"outputs": [],
					"stateMutability": "nonpayable",
					"type": "function"
				},
				{
					"inputs": [],
					"name": "getERC20",
					"outputs": [
						{
							"internalType": "address",
							"name": "",
							"type": "address"
						}
					],
					"stateMutability": "view",
					"type": "function"
				},
				{
					"inputs": [
						{
							"internalType": "address",
							"name": "",
							"type": "address"
						}
					],
					"name": "isParticipant",
					"outputs": [
						{
							"internalType": "bool",
							"name": "",
							"type": "bool"
						}
					],
					"stateMutability": "view",
					"type": "function"
				},
				{
					"inputs": [],
					"name": "numParticipants",
					"outputs": [
						{
							"internalType": "uint256",
							"name": "",
							"type": "uint256"
						}
					],
					"stateMutability": "view",
					"type": "function"
				},
				{
					"inputs": [],
					"name": "numPendingProposals",
					"outputs": [
						{
							"internalType": "uint256",
							"name": "",
							"type": "uint256"
						}
					],
					"stateMutability": "view",
					"type": "function"
				},
				{
					"inputs": [],
					"name": "openVoting",
					"outputs": [],
					"stateMutability": "payable",
					"type": "function"
				},
				{
					"inputs": [],
					"name": "owner",
					"outputs": [
						{
							"internalType": "address",
							"name": "",
							"type": "address"
						}
					],
					"stateMutability": "view",
					"type": "function"
				},
				{
					"inputs": [
						{
							"internalType": "uint256",
							"name": "",
							"type": "uint256"
						}
					],
					"name": "proposals",
					"outputs": [
						{
							"internalType": "string",
							"name": "title",
							"type": "string"
						},
						{
							"internalType": "uint256",
							"name": "requiredBudget",
							"type": "uint256"
						},
						{
							"internalType": "address",
							"name": "executableContract",
							"type": "address"
						},
						{
							"internalType": "enum QuadraticVoting.ProposalStatus",
							"name": "status",
							"type": "uint8"
						},
						{
							"internalType": "uint256",
							"name": "totalVotes",
							"type": "uint256"
						},
						{
							"internalType": "uint256",
							"name": "totalTokensStaked",
							"type": "uint256"
						},
						{
							"internalType": "address",
							"name": "creator",
							"type": "address"
						},
						{
							"internalType": "bool",
							"name": "isSignaling",
							"type": "bool"
						}
					],
					"stateMutability": "view",
					"type": "function"
				},
				{
					"inputs": [
						{
							"internalType": "uint256",
							"name": "_amount",
							"type": "uint256"
						}
					],
					"name": "sellTokens",
					"outputs": [],
					"stateMutability": "nonpayable",
					"type": "function"
				},
				{
					"inputs": [
						{
							"internalType": "uint256",
							"name": "_propId",
							"type": "uint256"
						},
						{
							"internalType": "uint256",
							"name": "_numVotes",
							"type": "uint256"
						}
					],
					"name": "stake",
					"outputs": [],
					"stateMutability": "nonpayable",
					"type": "function"
				},
				{
					"inputs": [],
					"name": "token",
					"outputs": [
						{
							"internalType": "contract GovernanceToken",
							"name": "",
							"type": "address"
						}
					],
					"stateMutability": "view",
					"type": "function"
				},
				{
					"inputs": [],
					"name": "tokenPriceWei",
					"outputs": [
						{
							"internalType": "uint256",
							"name": "",
							"type": "uint256"
						}
					],
					"stateMutability": "view",
					"type": "function"
				},
				{
					"inputs": [],
					"name": "totalBudget",
					"outputs": [
						{
							"internalType": "uint256",
							"name": "",
							"type": "uint256"
						}
					],
					"stateMutability": "view",
					"type": "function"
				},
				{
					"inputs": [
						{
							"internalType": "uint256",
							"name": "",
							"type": "uint256"
						},
						{
							"internalType": "address",
							"name": "",
							"type": "address"
						}
					],
					"name": "userVotesInProposal",
					"outputs": [
						{
							"internalType": "uint256",
							"name": "",
							"type": "uint256"
						}
					],
					"stateMutability": "view",
					"type": "function"
				},
				{
					"inputs": [],
					"name": "votingOpen",
					"outputs": [
						{
							"internalType": "bool",
							"name": "",
							"type": "bool"
						}
					],
					"stateMutability": "view",
					"type": "function"
				},
				{
					"inputs": [
						{
							"internalType": "uint256",
							"name": "_propId",
							"type": "uint256"
						},
						{
							"internalType": "uint256",
							"name": "_numVotes",
							"type": "uint256"
						}
					],
					"name": "withdrawFromProposal",
					"outputs": [],
					"stateMutability": "nonpayable",
					"type": "function"
				}
			],
			"devdoc": {
				"kind": "dev",
				"methods": {},
				"version": 1
			},
			"evm": {
				"assembly": "    /* \"src/QuadraticVoting.sol\":205:8695  contract QuadraticVoting {... */\n  mstore(0x40, 0x80)\n    /* \"src/QuadraticVoting.sol\":1632:1827  constructor(uint256 _tokenPriceWei, uint256 _maxTokens) {... */\n  callvalue\n  dup1\n  iszero\n  tag_1\n  jumpi\n  revert(0x00, 0x00)\ntag_1:\n  pop\n  mload(0x40)\n  sub(codesize, bytecodeSize)\n  dup1\n  bytecodeSize\n  dup4\n  codecopy\n  dup2\n  add\n  0x40\n  dup2\n  swap1\n  mstore\n  tag_2\n  swap2\n  tag_3\n  jump\t// in\ntag_2:\n    /* \"src/QuadraticVoting.sol\":1699:1704  owner */\n  0x00\n    /* \"src/QuadraticVoting.sol\":1699:1717  owner = msg.sender */\n  dup1\n  sload\n  not(sub(shl(0xa0, 0x01), 0x01))\n  and\n    /* \"src/QuadraticVoting.sol\":1707:1717  msg.sender */\n  caller\n    /* \"src/QuadraticVoting.sol\":1699:1717  owner = msg.sender */\n  or\n  swap1\n  sstore\n    /* \"src/QuadraticVoting.sol\":1729:1742  tokenPriceWei */\n  0x02\n    /* \"src/QuadraticVoting.sol\":1729:1759  tokenPriceWei = _tokenPriceWei */\n  dup3\n  swap1\n  sstore\n    /* \"src/QuadraticVoting.sol\":1779:1818  new GovernanceToken(\"DAO Token\", \"DVT\") */\n  mload(0x40)\n  tag_6\n  swap1\n  tag_7\n  jump\t// in\ntag_6:\n    /* \"#utility.yul\":665:667   */\n  0x40\n    /* \"#utility.yul\":647:668   */\n  dup1\n  dup3\n  mstore\n    /* \"#utility.yul\":704:705   */\n  0x09\n    /* \"#utility.yul\":684:702   */\n  swap1\n  dup3\n  add\n    /* \"#utility.yul\":677:706   */\n  mstore\n  shl(0xb9, 0x2220a7902a37b5b2b7)\n    /* \"#utility.yul\":737:739   */\n  0x60\n    /* \"#utility.yul\":722:740   */\n  dup3\n  add\n    /* \"#utility.yul\":715:754   */\n  mstore\n    /* \"#utility.yul\":792:795   */\n  0x80\n    /* \"#utility.yul\":785:789   */\n  0x20\n    /* \"#utility.yul\":770:790   */\n  dup3\n  add\n    /* \"#utility.yul\":763:796   */\n  dup2\n  swap1\n  mstore\n    /* \"#utility.yul\":833:834   */\n  0x03\n    /* \"#utility.yul\":812:831   */\n  swap1\n  dup3\n  add\n    /* \"#utility.yul\":805:835   */\n  mstore\n  shl(0xea, 0x111595)\n    /* \"#utility.yul\":866:869   */\n  0xa0\n    /* \"#utility.yul\":851:870   */\n  dup3\n  add\n    /* \"#utility.yul\":844:878   */\n  mstore\n    /* \"#utility.yul\":910:913   */\n  0xc0\n    /* \"#utility.yul\":895:914   */\n  add\n    /* \"src/QuadraticVoting.sol\":1779:1818  new GovernanceToken(\"DAO Token\", \"DVT\") */\n  mload(0x40)\n  dup1\n  swap2\n  sub\n  swap1\n  0x00\n  create\n  dup1\n  iszero\n  dup1\n  iszero\n  tag_10\n  jumpi\n  returndatacopy(0x00, 0x00, returndatasize)\n  revert(0x00, returndatasize)\ntag_10:\n  pop\n    /* \"src/QuadraticVoting.sol\":1771:1776  token */\n  0x01\n    /* \"src/QuadraticVoting.sol\":1771:1818  token = new GovernanceToken(\"DAO Token\", \"DVT\") */\n  dup1\n  sload\n  not(sub(shl(0xa0, 0x01), 0x01))\n  and\n  sub(shl(0xa0, 0x01), 0x01)\n  swap3\n  swap1\n  swap3\n  and\n  swap2\n  swap1\n  swap2\n  or\n  swap1\n  sstore\n  pop\n    /* \"src/QuadraticVoting.sol\":205:8695  contract QuadraticVoting {... */\n  tag_12\n  swap1\n  pop\n  jump\ntag_7:\n  dataSize(sub_1)\n  dup1\n  dataOffset(sub_1)\n  dup4\n  codecopy\n  add\n  swap1\n  jump\t// out\n    /* \"#utility.yul\":14:357   */\ntag_3:\n    /* \"#utility.yul\":93:99   */\n  0x00\n    /* \"#utility.yul\":101:107   */\n  0x00\n    /* \"#utility.yul\":154:156   */\n  0x40\n    /* \"#utility.yul\":142:151   */\n  dup4\n    /* \"#utility.yul\":133:140   */\n  dup6\n    /* \"#utility.yul\":129:152   */\n  sub\n    /* \"#utility.yul\":125:157   */\n  slt\n    /* \"#utility.yul\":122:174   */\n  iszero\n  tag_14\n  jumpi\n    /* \"#utility.yul\":170:171   */\n  0x00\n    /* \"#utility.yul\":167:168   */\n  0x00\n    /* \"#utility.yul\":160:172   */\n  revert\n    /* \"#utility.yul\":122:174   */\ntag_14:\n  pop\n  pop\n    /* \"#utility.yul\":215:231   */\n  dup1\n  mload\n    /* \"#utility.yul\":321:323   */\n  0x20\n    /* \"#utility.yul\":306:324   */\n  swap1\n  swap2\n  add\n    /* \"#utility.yul\":300:325   */\n  mload\n    /* \"#utility.yul\":215:231   */\n  swap1\n  swap3\n    /* \"#utility.yul\":300:325   */\n  swap1\n  swap2\n  pop\n    /* \"#utility.yul\":14:357   */\n  jump\t// out\n    /* \"#utility.yul\":362:920   */\ntag_12:\n    /* \"src/QuadraticVoting.sol\":205:8695  contract QuadraticVoting {... */\n  dataSize(sub_0)\n  dup1\n  dataOffset(sub_0)\n  0x00\n  codecopy\n  0x00\n  return\nstop\n\nsub_0: assembly {\n        /* \"src/QuadraticVoting.sol\":205:8695  contract QuadraticVoting {... */\n      mstore(0x40, 0x80)\n      jumpi(tag_1, lt(calldatasize, 0x04))\n      shr(0xe0, calldataload(0x00))\n      dup1\n      0x8da5cb5b\n      gt\n      tag_21\n      jumpi\n      dup1\n      0xc78da39a\n      gt\n      tag_22\n      jumpi\n      dup1\n      0xc78da39a\n      eq\n      tag_16\n      jumpi\n      dup1\n      0xd0febe4c\n      eq\n      tag_17\n      jumpi\n      dup1\n      0xda52a95f\n      eq\n      tag_18\n      jumpi\n      dup1\n      0xfc0c546a\n      eq\n      tag_19\n      jumpi\n      dup1\n      0xfffefd91\n      eq\n      tag_20\n      jumpi\n      revert(0x00, 0x00)\n    tag_22:\n      dup1\n      0x8da5cb5b\n      eq\n      tag_11\n      jumpi\n      dup1\n      0x929066f5\n      eq\n      tag_12\n      jumpi\n      dup1\n      0xa95824b4\n      eq\n      tag_13\n      jumpi\n      dup1\n      0xaffc0670\n      eq\n      tag_14\n      jumpi\n      dup1\n      0xc631b292\n      eq\n      tag_15\n      jumpi\n      revert(0x00, 0x00)\n    tag_21:\n      dup1\n      0x4ece90a8\n      gt\n      tag_23\n      jumpi\n      dup1\n      0x4ece90a8\n      eq\n      tag_6\n      jumpi\n      dup1\n      0x649c649c\n      eq\n      tag_7\n      jumpi\n      dup1\n      0x6c11bcd3\n      eq\n      tag_8\n      jumpi\n      dup1\n      0x7b0472f0\n      eq\n      tag_9\n      jumpi\n      dup1\n      0x84f28239\n      eq\n      tag_10\n      jumpi\n      revert(0x00, 0x00)\n    tag_23:\n      dup1\n      0x013cf08b\n      eq\n      tag_2\n      jumpi\n      dup1\n      0x05d0f15b\n      eq\n      tag_3\n      jumpi\n      dup1\n      0x2e60338a\n      eq\n      tag_4\n      jumpi\n      dup1\n      0x4e76a846\n      eq\n      tag_5\n      jumpi\n    tag_1:\n      revert(0x00, 0x00)\n        /* \"src/QuadraticVoting.sol\":1336:1381  mapping(uint256 => Proposal) public proposals */\n    tag_2:\n      callvalue\n      dup1\n      iszero\n      tag_24\n      jumpi\n      revert(0x00, 0x00)\n    tag_24:\n      pop\n      tag_25\n      tag_26\n      calldatasize\n      0x04\n      tag_27\n      jump\t// in\n    tag_26:\n      tag_28\n      jump\t// in\n    tag_25:\n      mload(0x40)\n      tag_29\n      swap9\n      swap8\n      swap7\n      swap6\n      swap5\n      swap4\n      swap3\n      swap2\n      swap1\n      tag_30\n      jump\t// in\n    tag_29:\n      mload(0x40)\n      dup1\n      swap2\n      sub\n      swap1\n      return\n        /* \"src/QuadraticVoting.sol\":781:809  uint256 public tokenPriceWei */\n    tag_3:\n      callvalue\n      dup1\n      iszero\n      tag_31\n      jumpi\n      revert(0x00, 0x00)\n    tag_31:\n      pop\n      tag_32\n      sload(0x02)\n      dup2\n      jump\n    tag_32:\n      mload(0x40)\n        /* \"#utility.yul\":1777:1802   */\n      swap1\n      dup2\n      mstore\n        /* \"#utility.yul\":1765:1767   */\n      0x20\n        /* \"#utility.yul\":1750:1768   */\n      add\n        /* \"src/QuadraticVoting.sol\":781:809  uint256 public tokenPriceWei */\n      tag_29\n        /* \"#utility.yul\":1631:1808   */\n      jump\n        /* \"src/QuadraticVoting.sol\":1388:1462  mapping(uint256 => mapping(address => uint256)) public userVotesInProposal */\n    tag_4:\n      callvalue\n      dup1\n      iszero\n      tag_36\n      jumpi\n      revert(0x00, 0x00)\n    tag_36:\n      pop\n      tag_32\n      tag_38\n      calldatasize\n      0x04\n      tag_39\n      jump\t// in\n    tag_38:\n      0x09\n      0x20\n      swap1\n      dup2\n      mstore\n      0x00\n      swap3\n      dup4\n      mstore\n      0x40\n      dup1\n      dup5\n      keccak256\n      swap1\n      swap2\n      mstore\n      swap1\n      dup3\n      mstore\n      swap1\n      keccak256\n      sload\n      dup2\n      jump\n        /* \"src/QuadraticVoting.sol\":885:915  uint256 public numParticipants */\n    tag_5:\n      callvalue\n      dup1\n      iszero\n      tag_42\n      jumpi\n      revert(0x00, 0x00)\n    tag_42:\n      pop\n      tag_32\n      sload(0x05)\n      dup2\n      jump\n        /* \"src/QuadraticVoting.sol\":8600:8692  function getERC20() external view returns (address) {... */\n    tag_6:\n      callvalue\n      dup1\n      iszero\n      tag_46\n      jumpi\n      revert(0x00, 0x00)\n    tag_46:\n      pop\n        /* \"src/QuadraticVoting.sol\":8678:8683  token */\n      and(sub(shl(0xa0, 0x01), 0x01), sload(0x01))\n        /* \"src/QuadraticVoting.sol\":8600:8692  function getERC20() external view returns (address) {... */\n    tag_47:\n      mload(0x40)\n      sub(shl(0xa0, 0x01), 0x01)\n        /* \"#utility.yul\":2460:2492   */\n      swap1\n      swap2\n      and\n        /* \"#utility.yul\":2442:2493   */\n      dup2\n      mstore\n        /* \"#utility.yul\":2430:2432   */\n      0x20\n        /* \"#utility.yul\":2415:2433   */\n      add\n        /* \"src/QuadraticVoting.sol\":8600:8692  function getERC20() external view returns (address) {... */\n      tag_29\n        /* \"#utility.yul\":2296:2499   */\n      jump\n        /* \"src/QuadraticVoting.sol\":6239:6995  function withdrawFromProposal(uint256 _propId, uint256 _numVotes) external {... */\n    tag_7:\n      callvalue\n      dup1\n      iszero\n      tag_51\n      jumpi\n      revert(0x00, 0x00)\n    tag_51:\n      pop\n      tag_52\n      tag_53\n      calldatasize\n      0x04\n      tag_54\n      jump\t// in\n    tag_53:\n      tag_55\n      jump\t// in\n    tag_52:\n      stop\n        /* \"src/QuadraticVoting.sol\":5877:6231  function sellTokens(uint256 _amount) external {... */\n    tag_8:\n      callvalue\n      dup1\n      iszero\n      tag_56\n      jumpi\n      revert(0x00, 0x00)\n    tag_56:\n      pop\n      tag_52\n      tag_58\n      calldatasize\n      0x04\n      tag_27\n      jump\t// in\n    tag_58:\n      tag_59\n      jump\t// in\n        /* \"src/QuadraticVoting.sol\":3459:4512  function stake(uint256 _propId, uint256 _numVotes) external {... */\n    tag_9:\n      callvalue\n      dup1\n      iszero\n      tag_60\n      jumpi\n      revert(0x00, 0x00)\n    tag_60:\n      pop\n      tag_52\n      tag_62\n      calldatasize\n      0x04\n      tag_54\n      jump\t// in\n    tag_62:\n      tag_63\n      jump\t// in\n        /* \"src/QuadraticVoting.sol\":2543:3451  function addProposal(string memory _title, uint256 _budget, address _exec) external returns (uint256) {... */\n    tag_10:\n      callvalue\n      dup1\n      iszero\n      tag_64\n      jumpi\n      revert(0x00, 0x00)\n    tag_64:\n      pop\n      tag_32\n      tag_66\n      calldatasize\n      0x04\n      tag_67\n      jump\t// in\n    tag_66:\n      tag_68\n      jump\t// in\n        /* \"src/QuadraticVoting.sol\":719:739  address public owner */\n    tag_11:\n      callvalue\n      dup1\n      iszero\n      tag_70\n      jumpi\n      revert(0x00, 0x00)\n    tag_70:\n      pop\n      sload(0x00)\n      tag_47\n      swap1\n      sub(shl(0xa0, 0x01), 0x01)\n      and\n      dup2\n      jump\n        /* \"src/QuadraticVoting.sol\":1578:1623  mapping(address => bool) public isParticipant */\n    tag_12:\n      callvalue\n      dup1\n      iszero\n      tag_74\n      jumpi\n      revert(0x00, 0x00)\n    tag_74:\n      pop\n      tag_75\n      tag_76\n      calldatasize\n      0x04\n      tag_77\n      jump\t// in\n    tag_76:\n      mstore(0x20, 0x0b)\n      0x00\n      swap1\n      dup2\n      mstore\n      0x40\n      swap1\n      keccak256\n      sload\n      0xff\n      and\n      dup2\n      jump\n    tag_75:\n      mload(0x40)\n        /* \"#utility.yul\":4491:4505   */\n      swap1\n      iszero\n        /* \"#utility.yul\":4484:4506   */\n      iszero\n        /* \"#utility.yul\":4466:4507   */\n      dup2\n      mstore\n        /* \"#utility.yul\":4454:4456   */\n      0x20\n        /* \"#utility.yul\":4439:4457   */\n      add\n        /* \"src/QuadraticVoting.sol\":1578:1623  mapping(address => bool) public isParticipant */\n      tag_29\n        /* \"#utility.yul\":4326:4513   */\n      jump\n        /* \"src/QuadraticVoting.sol\":850:872  bool public votingOpen */\n    tag_13:\n      callvalue\n      dup1\n      iszero\n      tag_81\n      jumpi\n      revert(0x00, 0x00)\n    tag_81:\n      pop\n      sload(0x04)\n      tag_75\n      swap1\n      0xff\n      and\n      dup2\n      jump\n        /* \"src/QuadraticVoting.sol\":1875:2095  function openVoting() external payable {... */\n    tag_14:\n      tag_52\n      tag_86\n      jump\t// in\n        /* \"src/QuadraticVoting.sol\":7041:8070  function closeVoting() external {... */\n    tag_15:\n      callvalue\n      dup1\n      iszero\n      tag_87\n      jumpi\n      revert(0x00, 0x00)\n    tag_87:\n      pop\n      tag_52\n      tag_89\n      jump\t// in\n        /* \"src/QuadraticVoting.sol\":816:842  uint256 public totalBudget */\n    tag_16:\n      callvalue\n      dup1\n      iszero\n      tag_90\n      jumpi\n      revert(0x00, 0x00)\n    tag_90:\n      pop\n      tag_32\n      sload(0x03)\n      dup2\n      jump\n        /* \"src/QuadraticVoting.sol\":5660:5869  function buyTokens() external payable {... */\n    tag_17:\n      tag_52\n      tag_95\n      jump\t// in\n        /* \"src/QuadraticVoting.sol\":922:956  uint256 public numPendingProposals */\n    tag_18:\n      callvalue\n      dup1\n      iszero\n      tag_96\n      jumpi\n      revert(0x00, 0x00)\n    tag_96:\n      pop\n      tag_32\n      sload(0x06)\n      dup2\n      jump\n        /* \"src/QuadraticVoting.sol\":746:774  GovernanceToken public token */\n    tag_19:\n      callvalue\n      dup1\n      iszero\n      tag_100\n      jumpi\n      revert(0x00, 0x00)\n    tag_100:\n      pop\n      sload(0x01)\n      tag_47\n      swap1\n      sub(shl(0xa0, 0x01), 0x01)\n      and\n      dup2\n      jump\n        /* \"src/QuadraticVoting.sol\":2103:2535  function addParticipant() external payable {... */\n    tag_20:\n      tag_52\n      tag_106\n      jump\t// in\n        /* \"src/QuadraticVoting.sol\":1336:1381  mapping(uint256 => Proposal) public proposals */\n    tag_28:\n      mstore(0x20, 0x08)\n      0x00\n      swap1\n      dup2\n      mstore\n      0x40\n      swap1\n      keccak256\n      dup1\n      sload\n      dup2\n      swap1\n      tag_107\n      swap1\n      tag_108\n      jump\t// in\n    tag_107:\n      dup1\n      0x1f\n      add\n      0x20\n      dup1\n      swap2\n      div\n      mul\n      0x20\n      add\n      mload(0x40)\n      swap1\n      dup2\n      add\n      0x40\n      mstore\n      dup1\n      swap3\n      swap2\n      swap1\n      dup2\n      dup2\n      mstore\n      0x20\n      add\n      dup3\n      dup1\n      sload\n      tag_109\n      swap1\n      tag_108\n      jump\t// in\n    tag_109:\n      dup1\n      iszero\n      tag_110\n      jumpi\n      dup1\n      0x1f\n      lt\n      tag_111\n      jumpi\n      0x0100\n      dup1\n      dup4\n      sload\n      div\n      mul\n      dup4\n      mstore\n      swap2\n      0x20\n      add\n      swap2\n      jump(tag_110)\n    tag_111:\n      dup3\n      add\n      swap2\n      swap1\n      0x00\n      mstore\n      keccak256(0x00, 0x20)\n      swap1\n    tag_112:\n      dup2\n      sload\n      dup2\n      mstore\n      swap1\n      0x01\n      add\n      swap1\n      0x20\n      add\n      dup1\n      dup4\n      gt\n      tag_112\n      jumpi\n      dup3\n      swap1\n      sub\n      0x1f\n      and\n      dup3\n      add\n      swap2\n    tag_110:\n      pop\n      pop\n      pop\n      0x01\n      dup5\n      add\n      sload\n      0x02\n      dup6\n      add\n      sload\n      0x03\n      dup7\n      add\n      sload\n      0x04\n      dup8\n      add\n      sload\n      0x05\n      swap1\n      swap8\n      add\n      sload\n      swap6\n      swap7\n      swap3\n      swap6\n      sub(shl(0xa0, 0x01), 0x01)\n      dup1\n      dup5\n      and\n      swap7\n      pop\n      0xff\n      shl(0xa0, 0x01)\n      swap5\n      dup6\n      swap1\n      div\n      dup2\n      and\n      swap7\n      pop\n      swap3\n      swap5\n      swap4\n      swap1\n      dup3\n      and\n      swap3\n      swap2\n      div\n      and\n      dup9\n      jump\t// out\n        /* \"src/QuadraticVoting.sol\":6239:6995  function withdrawFromProposal(uint256 _propId, uint256 _numVotes) external {... */\n    tag_55:\n        /* \"src/QuadraticVoting.sol\":6325:6343  Proposal storage p */\n      0x00\n        /* \"src/QuadraticVoting.sol\":6346:6364  proposals[_propId] */\n      dup3\n      dup2\n      mstore\n        /* \"src/QuadraticVoting.sol\":6346:6355  proposals */\n      0x08\n        /* \"src/QuadraticVoting.sol\":6346:6364  proposals[_propId] */\n      0x20\n      mstore\n      0x40\n      dup2\n      keccak256\n      swap1\n        /* \"src/QuadraticVoting.sol\":6383:6391  p.status */\n      0x02\n      dup3\n      dup2\n      add\n      sload\n      shl(0xa0, 0x01)\n      swap1\n      div\n      0xff\n      and\n      swap1\n        /* \"src/QuadraticVoting.sol\":6383:6417  p.status == ProposalStatus.Pending */\n      dup2\n      gt\n      iszero\n      tag_119\n      jumpi\n      tag_119\n      tag_117\n      jump\t// in\n    tag_119:\n      eq\n        /* \"src/QuadraticVoting.sol\":6375:6434  require(p.status == ProposalStatus.Pending, \"No pendiente\") */\n      tag_120\n      jumpi\n      mload(0x40)\n      shl(0xe5, 0x461bcd)\n      dup2\n      mstore\n        /* \"#utility.yul\":5337:5339   */\n      0x20\n        /* \"src/QuadraticVoting.sol\":6375:6434  require(p.status == ProposalStatus.Pending, \"No pendiente\") */\n      0x04\n      dup3\n      add\n        /* \"#utility.yul\":5319:5340   */\n      mstore\n        /* \"#utility.yul\":5376:5378   */\n      0x0c\n        /* \"#utility.yul\":5356:5374   */\n      0x24\n      dup3\n      add\n        /* \"#utility.yul\":5349:5379   */\n      mstore\n      shl(0xa0, 0x4e6f2070656e6469656e7465)\n        /* \"#utility.yul\":5395:5413   */\n      0x44\n      dup3\n      add\n        /* \"#utility.yul\":5388:5430   */\n      mstore\n        /* \"#utility.yul\":5447:5465   */\n      0x64\n      add\n        /* \"src/QuadraticVoting.sol\":6375:6434  require(p.status == ProposalStatus.Pending, \"No pendiente\") */\n    tag_121:\n      mload(0x40)\n      dup1\n      swap2\n      sub\n      swap1\n      revert\n    tag_120:\n        /* \"src/QuadraticVoting.sol\":6454:6482  userVotesInProposal[_propId] */\n      0x00\n      dup4\n      dup2\n      mstore\n        /* \"src/QuadraticVoting.sol\":6454:6473  userVotesInProposal */\n      0x09\n        /* \"src/QuadraticVoting.sol\":6454:6482  userVotesInProposal[_propId] */\n      0x20\n      swap1\n      dup2\n      mstore\n      0x40\n      dup1\n      dup4\n      keccak256\n        /* \"src/QuadraticVoting.sol\":6483:6493  msg.sender */\n      caller\n        /* \"src/QuadraticVoting.sol\":6454:6494  userVotesInProposal[_propId][msg.sender] */\n      dup5\n      mstore\n      swap1\n      swap2\n      mstore\n      swap1\n      keccak256\n      sload\n        /* \"src/QuadraticVoting.sol\":6454:6507  userVotesInProposal[_propId][msg.sender] >= _numVotes */\n      dup3\n      gt\n      iszero\n        /* \"src/QuadraticVoting.sol\":6446:6531  require(userVotesInProposal[_propId][msg.sender] >= _numVotes, \"Votos insuficientes\") */\n      tag_123\n      jumpi\n      mload(0x40)\n      shl(0xe5, 0x461bcd)\n      dup2\n      mstore\n        /* \"#utility.yul\":5678:5680   */\n      0x20\n        /* \"src/QuadraticVoting.sol\":6446:6531  require(userVotesInProposal[_propId][msg.sender] >= _numVotes, \"Votos insuficientes\") */\n      0x04\n      dup3\n      add\n        /* \"#utility.yul\":5660:5681   */\n      mstore\n        /* \"#utility.yul\":5717:5719   */\n      0x13\n        /* \"#utility.yul\":5697:5715   */\n      0x24\n      dup3\n      add\n        /* \"#utility.yul\":5690:5720   */\n      mstore\n      shl(0x68, 0x566f746f7320696e737566696369656e746573)\n        /* \"#utility.yul\":5736:5754   */\n      0x44\n      dup3\n      add\n        /* \"#utility.yul\":5729:5778   */\n      mstore\n        /* \"#utility.yul\":5795:5813   */\n      0x64\n      add\n        /* \"src/QuadraticVoting.sol\":6446:6531  require(userVotesInProposal[_propId][msg.sender] >= _numVotes, \"Votos insuficientes\") */\n      tag_121\n        /* \"#utility.yul\":5476:5819   */\n      jump\n        /* \"src/QuadraticVoting.sol\":6446:6531  require(userVotesInProposal[_propId][msg.sender] >= _numVotes, \"Votos insuficientes\") */\n    tag_123:\n        /* \"src/QuadraticVoting.sol\":6545:6564  uint256 votesBefore */\n      0x00\n        /* \"src/QuadraticVoting.sol\":6567:6595  userVotesInProposal[_propId] */\n      dup4\n      dup2\n      mstore\n        /* \"src/QuadraticVoting.sol\":6567:6586  userVotesInProposal */\n      0x09\n        /* \"src/QuadraticVoting.sol\":6567:6595  userVotesInProposal[_propId] */\n      0x20\n      swap1\n      dup2\n      mstore\n      0x40\n      dup1\n      dup4\n      keccak256\n        /* \"src/QuadraticVoting.sol\":6596:6606  msg.sender */\n      caller\n        /* \"src/QuadraticVoting.sol\":6567:6607  userVotesInProposal[_propId][msg.sender] */\n      dup5\n      mstore\n      swap1\n      swap2\n      mstore\n      dup2\n      keccak256\n      sload\n      swap1\n        /* \"src/QuadraticVoting.sol\":6639:6662  votesBefore - _numVotes */\n      tag_126\n        /* \"src/QuadraticVoting.sol\":6653:6662  _numVotes */\n      dup5\n        /* \"src/QuadraticVoting.sol\":6567:6607  userVotesInProposal[_propId][msg.sender] */\n      dup4\n        /* \"src/QuadraticVoting.sol\":6639:6662  votesBefore - _numVotes */\n      tag_127\n      jump\t// in\n    tag_126:\n        /* \"src/QuadraticVoting.sol\":6618:6662  uint256 votesAfter = votesBefore - _numVotes */\n      swap1\n      pop\n        /* \"src/QuadraticVoting.sol\":6673:6695  uint256 tokensToReturn */\n      0x00\n        /* \"src/QuadraticVoting.sol\":6729:6752  votesAfter * votesAfter */\n      tag_128\n        /* \"src/QuadraticVoting.sol\":6618:6662  uint256 votesAfter = votesBefore - _numVotes */\n      dup3\n      dup1\n        /* \"src/QuadraticVoting.sol\":6729:6752  votesAfter * votesAfter */\n      tag_129\n      jump\t// in\n    tag_128:\n        /* \"src/QuadraticVoting.sol\":6699:6724  votesBefore * votesBefore */\n      tag_130\n        /* \"src/QuadraticVoting.sol\":6713:6724  votesBefore */\n      dup5\n      dup1\n        /* \"src/QuadraticVoting.sol\":6699:6724  votesBefore * votesBefore */\n      tag_129\n      jump\t// in\n    tag_130:\n        /* \"src/QuadraticVoting.sol\":6698:6753  (votesBefore * votesBefore) - (votesAfter * votesAfter) */\n      tag_131\n      swap2\n      swap1\n      tag_127\n      jump\t// in\n    tag_131:\n        /* \"src/QuadraticVoting.sol\":6767:6795  userVotesInProposal[_propId] */\n      0x00\n      dup8\n      dup2\n      mstore\n        /* \"src/QuadraticVoting.sol\":6767:6786  userVotesInProposal */\n      0x09\n        /* \"src/QuadraticVoting.sol\":6767:6795  userVotesInProposal[_propId] */\n      0x20\n      swap1\n      dup2\n      mstore\n      0x40\n      dup1\n      dup4\n      keccak256\n        /* \"src/QuadraticVoting.sol\":6796:6806  msg.sender */\n      caller\n        /* \"src/QuadraticVoting.sol\":6767:6807  userVotesInProposal[_propId][msg.sender] */\n      dup5\n      mstore\n      swap1\n      swap2\n      mstore\n      dup2\n      keccak256\n        /* \"src/QuadraticVoting.sol\":6767:6820  userVotesInProposal[_propId][msg.sender] = votesAfter */\n      dup5\n      swap1\n      sstore\n        /* \"src/QuadraticVoting.sol\":6831:6843  p.totalVotes */\n      0x03\n      dup7\n      add\n        /* \"src/QuadraticVoting.sol\":6831:6856  p.totalVotes -= _numVotes */\n      dup1\n      sload\n        /* \"src/QuadraticVoting.sol\":6673:6753  uint256 tokensToReturn = (votesBefore * votesBefore) - (votesAfter * votesAfter) */\n      swap3\n      swap4\n      pop\n        /* \"src/QuadraticVoting.sol\":6847:6856  _numVotes */\n      dup8\n      swap3\n        /* \"src/QuadraticVoting.sol\":6831:6843  p.totalVotes */\n      swap1\n      swap2\n        /* \"src/QuadraticVoting.sol\":6767:6795  userVotesInProposal[_propId] */\n      swap1\n        /* \"src/QuadraticVoting.sol\":6831:6856  p.totalVotes -= _numVotes */\n      tag_132\n      swap1\n        /* \"src/QuadraticVoting.sol\":6847:6856  _numVotes */\n      dup5\n      swap1\n        /* \"src/QuadraticVoting.sol\":6831:6856  p.totalVotes -= _numVotes */\n      tag_127\n      jump\t// in\n    tag_132:\n      swap3\n      pop\n      pop\n      dup2\n      swap1\n      sstore\n      pop\n        /* \"src/QuadraticVoting.sol\":6890:6904  tokensToReturn */\n      dup1\n        /* \"src/QuadraticVoting.sol\":6867:6868  p */\n      dup5\n        /* \"src/QuadraticVoting.sol\":6867:6886  p.totalTokensStaked */\n      0x04\n      add\n      0x00\n        /* \"src/QuadraticVoting.sol\":6867:6904  p.totalTokensStaked -= tokensToReturn */\n      dup3\n      dup3\n      sload\n      tag_133\n      swap2\n      swap1\n      tag_127\n      jump\t// in\n    tag_133:\n      swap1\n      swap2\n      sstore\n      pop\n      pop\n        /* \"src/QuadraticVoting.sol\":6925:6930  token */\n      sload(0x01)\n        /* \"src/QuadraticVoting.sol\":6925:6967  token.transfer(msg.sender, tokensToReturn) */\n      mload(0x40)\n      shl(0xe0, 0xa9059cbb)\n      dup2\n      mstore\n        /* \"src/QuadraticVoting.sol\":6940:6950  msg.sender */\n      caller\n        /* \"src/QuadraticVoting.sol\":6925:6967  token.transfer(msg.sender, tokensToReturn) */\n      0x04\n      dup3\n      add\n        /* \"#utility.yul\":6436:6487   */\n      mstore\n        /* \"#utility.yul\":6503:6521   */\n      0x24\n      dup2\n      add\n        /* \"#utility.yul\":6496:6530   */\n      dup4\n      swap1\n      mstore\n      sub(shl(0xa0, 0x01), 0x01)\n        /* \"src/QuadraticVoting.sol\":6925:6930  token */\n      swap1\n      swap2\n      and\n      swap1\n        /* \"src/QuadraticVoting.sol\":6925:6939  token.transfer */\n      0xa9059cbb\n      swap1\n        /* \"#utility.yul\":6409:6427   */\n      0x44\n      add\n        /* \"src/QuadraticVoting.sol\":6925:6967  token.transfer(msg.sender, tokensToReturn) */\n      0x20\n      mload(0x40)\n      dup1\n      dup4\n      sub\n      dup2\n      0x00\n      dup8\n      gas\n      call\n      iszero\n      dup1\n      iszero\n      tag_137\n      jumpi\n      returndatacopy(0x00, 0x00, returndatasize)\n      revert(0x00, returndatasize)\n    tag_137:\n      pop\n      pop\n      pop\n      pop\n      mload(0x40)\n      returndatasize\n      not(0x1f)\n      0x1f\n      dup3\n      add\n      and\n      dup3\n      add\n      dup1\n      0x40\n      mstore\n      pop\n      dup2\n      add\n      swap1\n      tag_138\n      swap2\n      swap1\n      tag_139\n      jump\t// in\n    tag_138:\n        /* \"src/QuadraticVoting.sol\":6917:6986  require(token.transfer(msg.sender, tokensToReturn), \"Error transfer\") */\n      tag_140\n      jumpi\n      mload(0x40)\n      shl(0xe5, 0x461bcd)\n      dup2\n      mstore\n        /* \"#utility.yul\":7025:7027   */\n      0x20\n        /* \"src/QuadraticVoting.sol\":6917:6986  require(token.transfer(msg.sender, tokensToReturn), \"Error transfer\") */\n      0x04\n      dup3\n      add\n        /* \"#utility.yul\":7007:7028   */\n      mstore\n        /* \"#utility.yul\":7064:7066   */\n      0x0e\n        /* \"#utility.yul\":7044:7062   */\n      0x24\n      dup3\n      add\n        /* \"#utility.yul\":7037:7067   */\n      mstore\n      shl(0x91, 0x22b93937b9103a3930b739b332b9)\n        /* \"#utility.yul\":7083:7101   */\n      0x44\n      dup3\n      add\n        /* \"#utility.yul\":7076:7120   */\n      mstore\n        /* \"#utility.yul\":7137:7155   */\n      0x64\n      add\n        /* \"src/QuadraticVoting.sol\":6917:6986  require(token.transfer(msg.sender, tokensToReturn), \"Error transfer\") */\n      tag_121\n        /* \"#utility.yul\":6823:7161   */\n      jump\n        /* \"src/QuadraticVoting.sol\":6917:6986  require(token.transfer(msg.sender, tokensToReturn), \"Error transfer\") */\n    tag_140:\n        /* \"src/QuadraticVoting.sol\":6314:6995  {... */\n      pop\n      pop\n      pop\n      pop\n        /* \"src/QuadraticVoting.sol\":6239:6995  function withdrawFromProposal(uint256 _propId, uint256 _numVotes) external {... */\n      pop\n      pop\n      jump\t// out\n        /* \"src/QuadraticVoting.sol\":5877:6231  function sellTokens(uint256 _amount) external {... */\n    tag_59:\n        /* \"src/QuadraticVoting.sol\":5942:5947  token */\n      sload(0x01)\n        /* \"src/QuadraticVoting.sol\":5942:5969  token.balanceOf(msg.sender) */\n      mload(0x40)\n      shl(0xe0, 0x70a08231)\n      dup2\n      mstore\n        /* \"src/QuadraticVoting.sol\":5958:5968  msg.sender */\n      caller\n        /* \"src/QuadraticVoting.sol\":5942:5969  token.balanceOf(msg.sender) */\n      0x04\n      dup3\n      add\n        /* \"#utility.yul\":2442:2493   */\n      mstore\n        /* \"src/QuadraticVoting.sol\":5973:5980  _amount */\n      dup3\n      swap2\n      sub(shl(0xa0, 0x01), 0x01)\n        /* \"src/QuadraticVoting.sol\":5942:5947  token */\n      and\n      swap1\n        /* \"src/QuadraticVoting.sol\":5942:5957  token.balanceOf */\n      0x70a08231\n      swap1\n        /* \"#utility.yul\":2415:2433   */\n      0x24\n      add\n        /* \"src/QuadraticVoting.sol\":5942:5969  token.balanceOf(msg.sender) */\n      0x20\n      mload(0x40)\n      dup1\n      dup4\n      sub\n      dup2\n      dup7\n      gas\n      staticcall\n      iszero\n      dup1\n      iszero\n      tag_146\n      jumpi\n      returndatacopy(0x00, 0x00, returndatasize)\n      revert(0x00, returndatasize)\n    tag_146:\n      pop\n      pop\n      pop\n      pop\n      mload(0x40)\n      returndatasize\n      not(0x1f)\n      0x1f\n      dup3\n      add\n      and\n      dup3\n      add\n      dup1\n      0x40\n      mstore\n      pop\n      dup2\n      add\n      swap1\n      tag_147\n      swap2\n      swap1\n      tag_148\n      jump\t// in\n    tag_147:\n        /* \"src/QuadraticVoting.sol\":5942:5980  token.balanceOf(msg.sender) >= _amount */\n      lt\n      iszero\n        /* \"src/QuadraticVoting.sol\":5934:6005  require(token.balanceOf(msg.sender) >= _amount, \"Fondos insuficientes\") */\n      tag_149\n      jumpi\n      mload(0x40)\n      shl(0xe5, 0x461bcd)\n      dup2\n      mstore\n        /* \"#utility.yul\":7557:7559   */\n      0x20\n        /* \"src/QuadraticVoting.sol\":5934:6005  require(token.balanceOf(msg.sender) >= _amount, \"Fondos insuficientes\") */\n      0x04\n      dup3\n      add\n        /* \"#utility.yul\":7539:7560   */\n      mstore\n        /* \"#utility.yul\":7596:7598   */\n      0x14\n        /* \"#utility.yul\":7576:7594   */\n      0x24\n      dup3\n      add\n        /* \"#utility.yul\":7569:7599   */\n      mstore\n      shl(0x60, 0x466f6e646f7320696e737566696369656e746573)\n        /* \"#utility.yul\":7615:7633   */\n      0x44\n      dup3\n      add\n        /* \"#utility.yul\":7608:7658   */\n      mstore\n        /* \"#utility.yul\":7675:7693   */\n      0x64\n      add\n        /* \"src/QuadraticVoting.sol\":5934:6005  require(token.balanceOf(msg.sender) >= _amount, \"Fondos insuficientes\") */\n      tag_121\n        /* \"#utility.yul\":7355:7699   */\n      jump\n        /* \"src/QuadraticVoting.sol\":5934:6005  require(token.balanceOf(msg.sender) >= _amount, \"Fondos insuficientes\") */\n    tag_149:\n        /* \"src/QuadraticVoting.sol\":6016:6036  uint256 refundAmount */\n      0x00\n        /* \"src/QuadraticVoting.sol\":6049:6062  tokenPriceWei */\n      sload(0x02)\n        /* \"src/QuadraticVoting.sol\":6039:6046  _amount */\n      dup3\n        /* \"src/QuadraticVoting.sol\":6039:6062  _amount * tokenPriceWei */\n      tag_152\n      swap2\n      swap1\n      tag_129\n      jump\t// in\n    tag_152:\n        /* \"src/QuadraticVoting.sol\":6073:6078  token */\n      sload(0x01)\n        /* \"src/QuadraticVoting.sol\":6073:6104  token.burn(msg.sender, _amount) */\n      mload(0x40)\n      shl(0xe2, 0x2770a7eb)\n      dup2\n      mstore\n        /* \"src/QuadraticVoting.sol\":6084:6094  msg.sender */\n      caller\n        /* \"src/QuadraticVoting.sol\":6073:6104  token.burn(msg.sender, _amount) */\n      0x04\n      dup3\n      add\n        /* \"#utility.yul\":6436:6487   */\n      mstore\n        /* \"#utility.yul\":6503:6521   */\n      0x24\n      dup2\n      add\n        /* \"#utility.yul\":6496:6530   */\n      dup6\n      swap1\n      mstore\n        /* \"src/QuadraticVoting.sol\":6016:6062  uint256 refundAmount = _amount * tokenPriceWei */\n      swap2\n      swap3\n      pop\n      sub(shl(0xa0, 0x01), 0x01)\n        /* \"src/QuadraticVoting.sol\":6073:6078  token */\n      and\n      swap1\n        /* \"src/QuadraticVoting.sol\":6073:6083  token.burn */\n      0x9dc29fac\n      swap1\n        /* \"#utility.yul\":6409:6427   */\n      0x44\n      add\n        /* \"src/QuadraticVoting.sol\":6073:6104  token.burn(msg.sender, _amount) */\n      0x00\n      mload(0x40)\n      dup1\n      dup4\n      sub\n      dup2\n      0x00\n      dup8\n      dup1\n      extcodesize\n      iszero\n      dup1\n      iszero\n      tag_154\n      jumpi\n      revert(0x00, 0x00)\n    tag_154:\n      pop\n      gas\n      call\n      iszero\n      dup1\n      iszero\n      tag_156\n      jumpi\n      returndatacopy(0x00, 0x00, returndatasize)\n      revert(0x00, returndatasize)\n    tag_156:\n      pop\n      pop\n        /* \"src/QuadraticVoting.sol\":6134:6174  msg.sender.call{value: refundAmount}(\"\") */\n      mload(0x40)\n        /* \"src/QuadraticVoting.sol\":6116:6128  bool success */\n      0x00\n      swap3\n      pop\n        /* \"src/QuadraticVoting.sol\":6134:6144  msg.sender */\n      caller\n      swap2\n      pop\n        /* \"src/QuadraticVoting.sol\":6157:6169  refundAmount */\n      dup4\n      swap1\n        /* \"src/QuadraticVoting.sol\":6116:6128  bool success */\n      dup4\n        /* \"src/QuadraticVoting.sol\":6134:6174  msg.sender.call{value: refundAmount}(\"\") */\n      dup2\n        /* \"src/QuadraticVoting.sol\":6116:6128  bool success */\n      dup2\n        /* \"src/QuadraticVoting.sol\":6134:6174  msg.sender.call{value: refundAmount}(\"\") */\n      dup2\n        /* \"src/QuadraticVoting.sol\":6157:6169  refundAmount */\n      dup6\n        /* \"src/QuadraticVoting.sol\":6134:6144  msg.sender */\n      dup8\n        /* \"src/QuadraticVoting.sol\":6134:6174  msg.sender.call{value: refundAmount}(\"\") */\n      gas\n      call\n      swap3\n      pop\n      pop\n      pop\n      returndatasize\n      dup1\n      0x00\n      dup2\n      eq\n      tag_161\n      jumpi\n      mload(0x40)\n      swap2\n      pop\n      and(add(returndatasize, 0x3f), not(0x1f))\n      dup3\n      add\n      0x40\n      mstore\n      returndatasize\n      dup3\n      mstore\n      returndatasize\n      0x00\n      0x20\n      dup5\n      add\n      returndatacopy\n      jump(tag_160)\n    tag_161:\n      0x60\n      swap2\n      pop\n    tag_160:\n      pop\n        /* \"src/QuadraticVoting.sol\":6115:6174  (bool success, ) = msg.sender.call{value: refundAmount}(\"\") */\n      pop\n      swap1\n      pop\n        /* \"src/QuadraticVoting.sol\":6193:6200  success */\n      dup1\n        /* \"src/QuadraticVoting.sol\":6185:6223  require(success, \"Error en reembolso\") */\n      tag_162\n      jumpi\n      mload(0x40)\n      shl(0xe5, 0x461bcd)\n      dup2\n      mstore\n        /* \"#utility.yul\":8116:8118   */\n      0x20\n        /* \"src/QuadraticVoting.sol\":6185:6223  require(success, \"Error en reembolso\") */\n      0x04\n      dup3\n      add\n        /* \"#utility.yul\":8098:8119   */\n      mstore\n        /* \"#utility.yul\":8155:8157   */\n      0x12\n        /* \"#utility.yul\":8135:8153   */\n      0x24\n      dup3\n      add\n        /* \"#utility.yul\":8128:8158   */\n      mstore\n      shl(0x70, 0x4572726f7220656e207265656d626f6c736f)\n        /* \"#utility.yul\":8174:8192   */\n      0x44\n      dup3\n      add\n        /* \"#utility.yul\":8167:8215   */\n      mstore\n        /* \"#utility.yul\":8232:8250   */\n      0x64\n      add\n        /* \"src/QuadraticVoting.sol\":6185:6223  require(success, \"Error en reembolso\") */\n      tag_121\n        /* \"#utility.yul\":7914:8256   */\n      jump\n        /* \"src/QuadraticVoting.sol\":6185:6223  require(success, \"Error en reembolso\") */\n    tag_162:\n        /* \"src/QuadraticVoting.sol\":5923:6231  {... */\n      pop\n      pop\n        /* \"src/QuadraticVoting.sol\":5877:6231  function sellTokens(uint256 _amount) external {... */\n      pop\n      jump\t// out\n        /* \"src/QuadraticVoting.sol\":3459:4512  function stake(uint256 _propId, uint256 _numVotes) external {... */\n    tag_63:\n        /* \"src/QuadraticVoting.sol\":3538:3548  votingOpen */\n      and(0xff, sload(0x04))\n        /* \"src/QuadraticVoting.sol\":3530:3569  require(votingOpen, \"Votacion cerrada\") */\n      tag_166\n      jumpi\n      mload(0x40)\n      shl(0xe5, 0x461bcd)\n      dup2\n      mstore\n        /* \"#utility.yul\":8463:8465   */\n      0x20\n        /* \"src/QuadraticVoting.sol\":3530:3569  require(votingOpen, \"Votacion cerrada\") */\n      0x04\n      dup3\n      add\n        /* \"#utility.yul\":8445:8466   */\n      mstore\n        /* \"#utility.yul\":8502:8504   */\n      0x10\n        /* \"#utility.yul\":8482:8500   */\n      0x24\n      dup3\n      add\n        /* \"#utility.yul\":8475:8505   */\n      mstore\n      shl(0x80, 0x566f746163696f6e2063657272616461)\n        /* \"#utility.yul\":8521:8539   */\n      0x44\n      dup3\n      add\n        /* \"#utility.yul\":8514:8560   */\n      mstore\n        /* \"#utility.yul\":8577:8595   */\n      0x64\n      add\n        /* \"src/QuadraticVoting.sol\":3530:3569  require(votingOpen, \"Votacion cerrada\") */\n      tag_121\n        /* \"#utility.yul\":8261:8601   */\n      jump\n        /* \"src/QuadraticVoting.sol\":3530:3569  require(votingOpen, \"Votacion cerrada\") */\n    tag_166:\n        /* \"src/QuadraticVoting.sol\":3580:3598  Proposal storage p */\n      0x00\n        /* \"src/QuadraticVoting.sol\":3601:3619  proposals[_propId] */\n      dup3\n      dup2\n      mstore\n        /* \"src/QuadraticVoting.sol\":3601:3610  proposals */\n      0x08\n        /* \"src/QuadraticVoting.sol\":3601:3619  proposals[_propId] */\n      0x20\n      mstore\n      0x40\n      dup2\n      keccak256\n      swap1\n        /* \"src/QuadraticVoting.sol\":3638:3646  p.status */\n      0x02\n      dup3\n      dup2\n      add\n      sload\n      shl(0xa0, 0x01)\n      swap1\n      div\n      0xff\n      and\n      swap1\n        /* \"src/QuadraticVoting.sol\":3638:3672  p.status == ProposalStatus.Pending */\n      dup2\n      gt\n      iszero\n      tag_172\n      jumpi\n      tag_172\n      tag_117\n      jump\t// in\n    tag_172:\n      eq\n        /* \"src/QuadraticVoting.sol\":3630:3696  require(p.status == ProposalStatus.Pending, \"Propuesta no activa\") */\n      tag_173\n      jumpi\n      mload(0x40)\n      shl(0xe5, 0x461bcd)\n      dup2\n      mstore\n        /* \"#utility.yul\":8808:8810   */\n      0x20\n        /* \"src/QuadraticVoting.sol\":3630:3696  require(p.status == ProposalStatus.Pending, \"Propuesta no activa\") */\n      0x04\n      dup3\n      add\n        /* \"#utility.yul\":8790:8811   */\n      mstore\n        /* \"#utility.yul\":8847:8849   */\n      0x13\n        /* \"#utility.yul\":8827:8845   */\n      0x24\n      dup3\n      add\n        /* \"#utility.yul\":8820:8850   */\n      mstore\n      shl(0x68, 0x50726f707565737461206e6f20616374697661)\n        /* \"#utility.yul\":8866:8884   */\n      0x44\n      dup3\n      add\n        /* \"#utility.yul\":8859:8908   */\n      mstore\n        /* \"#utility.yul\":8925:8943   */\n      0x64\n      add\n        /* \"src/QuadraticVoting.sol\":3630:3696  require(p.status == ProposalStatus.Pending, \"Propuesta no activa\") */\n      tag_121\n        /* \"#utility.yul\":8606:8949   */\n      jump\n        /* \"src/QuadraticVoting.sol\":3630:3696  require(p.status == ProposalStatus.Pending, \"Propuesta no activa\") */\n    tag_173:\n        /* \"src/QuadraticVoting.sol\":3709:3728  uint256 votesBefore */\n      0x00\n        /* \"src/QuadraticVoting.sol\":3731:3759  userVotesInProposal[_propId] */\n      dup4\n      dup2\n      mstore\n        /* \"src/QuadraticVoting.sol\":3731:3750  userVotesInProposal */\n      0x09\n        /* \"src/QuadraticVoting.sol\":3731:3759  userVotesInProposal[_propId] */\n      0x20\n      swap1\n      dup2\n      mstore\n      0x40\n      dup1\n      dup4\n      keccak256\n        /* \"src/QuadraticVoting.sol\":3760:3770  msg.sender */\n      caller\n        /* \"src/QuadraticVoting.sol\":3731:3771  userVotesInProposal[_propId][msg.sender] */\n      dup5\n      mstore\n      swap1\n      swap2\n      mstore\n      dup2\n      keccak256\n      sload\n      swap1\n        /* \"src/QuadraticVoting.sol\":3803:3826  votesBefore + _numVotes */\n      tag_176\n        /* \"src/QuadraticVoting.sol\":3817:3826  _numVotes */\n      dup5\n        /* \"src/QuadraticVoting.sol\":3731:3771  userVotesInProposal[_propId][msg.sender] */\n      dup4\n        /* \"src/QuadraticVoting.sol\":3803:3826  votesBefore + _numVotes */\n      tag_177\n      jump\t// in\n    tag_176:\n        /* \"src/QuadraticVoting.sol\":3782:3826  uint256 votesAfter = votesBefore + _numVotes */\n      swap1\n      pop\n        /* \"src/QuadraticVoting.sol\":3847:3867  uint256 costInTokens */\n      0x00\n        /* \"src/QuadraticVoting.sol\":3889:3903  votesBefore**2 */\n      tag_178\n        /* \"src/QuadraticVoting.sol\":3902:3903  2 */\n      0x02\n        /* \"src/QuadraticVoting.sol\":3889:3900  votesBefore */\n      dup5\n        /* \"src/QuadraticVoting.sol\":3889:3903  votesBefore**2 */\n      tag_179\n      jump\t// in\n    tag_178:\n        /* \"src/QuadraticVoting.sol\":3871:3884  votesAfter**2 */\n      tag_180\n        /* \"src/QuadraticVoting.sol\":3883:3884  2 */\n      0x02\n        /* \"src/QuadraticVoting.sol\":3871:3881  votesAfter */\n      dup5\n        /* \"src/QuadraticVoting.sol\":3871:3884  votesAfter**2 */\n      tag_179\n      jump\t// in\n    tag_180:\n        /* \"src/QuadraticVoting.sol\":3870:3904  (votesAfter**2) - (votesBefore**2) */\n      tag_181\n      swap2\n      swap1\n      tag_127\n      jump\t// in\n    tag_181:\n        /* \"src/QuadraticVoting.sol\":3933:3938  token */\n      sload(0x01)\n        /* \"src/QuadraticVoting.sol\":3933:3992  token.transferFrom(msg.sender, address(this), costInTokens) */\n      mload(0x40)\n      shl(0xe0, 0x23b872dd)\n      dup2\n      mstore\n        /* \"src/QuadraticVoting.sol\":3952:3962  msg.sender */\n      caller\n        /* \"src/QuadraticVoting.sol\":3933:3992  token.transferFrom(msg.sender, address(this), costInTokens) */\n      0x04\n      dup3\n      add\n        /* \"#utility.yul\":10718:10769   */\n      mstore\n        /* \"src/QuadraticVoting.sol\":3972:3976  this */\n      address\n        /* \"#utility.yul\":10785:10803   */\n      0x24\n      dup3\n      add\n        /* \"#utility.yul\":10778:10838   */\n      mstore\n        /* \"#utility.yul\":10854:10872   */\n      0x44\n      dup2\n      add\n        /* \"#utility.yul\":10847:10881   */\n      dup4\n      swap1\n      mstore\n        /* \"src/QuadraticVoting.sol\":3847:3904  uint256 costInTokens = (votesAfter**2) - (votesBefore**2) */\n      swap2\n      swap3\n      pop\n      sub(shl(0xa0, 0x01), 0x01)\n        /* \"src/QuadraticVoting.sol\":3933:3938  token */\n      and\n      swap1\n        /* \"src/QuadraticVoting.sol\":3933:3951  token.transferFrom */\n      0x23b872dd\n      swap1\n        /* \"#utility.yul\":10691:10709   */\n      0x64\n      add\n        /* \"src/QuadraticVoting.sol\":3933:3992  token.transferFrom(msg.sender, address(this), costInTokens) */\n      0x20\n      mload(0x40)\n      dup1\n      dup4\n      sub\n      dup2\n      0x00\n      dup8\n      gas\n      call\n      iszero\n      dup1\n      iszero\n      tag_185\n      jumpi\n      returndatacopy(0x00, 0x00, returndatasize)\n      revert(0x00, returndatasize)\n    tag_185:\n      pop\n      pop\n      pop\n      pop\n      mload(0x40)\n      returndatasize\n      not(0x1f)\n      0x1f\n      dup3\n      add\n      and\n      dup3\n      add\n      dup1\n      0x40\n      mstore\n      pop\n      dup2\n      add\n      swap1\n      tag_186\n      swap2\n      swap1\n      tag_139\n      jump\t// in\n    tag_186:\n        /* \"src/QuadraticVoting.sol\":3925:4019  require(token.transferFrom(msg.sender, address(this), costInTokens), \"Fallo en transferencia\") */\n      tag_187\n      jumpi\n      mload(0x40)\n      shl(0xe5, 0x461bcd)\n      dup2\n      mstore\n        /* \"#utility.yul\":11094:11096   */\n      0x20\n        /* \"src/QuadraticVoting.sol\":3925:4019  require(token.transferFrom(msg.sender, address(this), costInTokens), \"Fallo en transferencia\") */\n      0x04\n      dup3\n      add\n        /* \"#utility.yul\":11076:11097   */\n      mstore\n        /* \"#utility.yul\":11133:11135   */\n      0x16\n        /* \"#utility.yul\":11113:11131   */\n      0x24\n      dup3\n      add\n        /* \"#utility.yul\":11106:11136   */\n      mstore\n      shl(0x50, 0x46616c6c6f20656e207472616e73666572656e636961)\n        /* \"#utility.yul\":11152:11170   */\n      0x44\n      dup3\n      add\n        /* \"#utility.yul\":11145:11197   */\n      mstore\n        /* \"#utility.yul\":11214:11232   */\n      0x64\n      add\n        /* \"src/QuadraticVoting.sol\":3925:4019  require(token.transferFrom(msg.sender, address(this), costInTokens), \"Fallo en transferencia\") */\n      tag_121\n        /* \"#utility.yul\":10892:11238   */\n      jump\n        /* \"src/QuadraticVoting.sol\":3925:4019  require(token.transferFrom(msg.sender, address(this), costInTokens), \"Fallo en transferencia\") */\n    tag_187:\n        /* \"src/QuadraticVoting.sol\":4108:4119  votesBefore */\n      dup3\n        /* \"src/QuadraticVoting.sol\":4123:4124  0 */\n      0x00\n        /* \"src/QuadraticVoting.sol\":4108:4124  votesBefore == 0 */\n      sub\n        /* \"src/QuadraticVoting.sol\":4104:4193  if (votesBefore == 0) {... */\n      tag_190\n      jumpi\n        /* \"src/QuadraticVoting.sol\":4141:4164  proposalVoters[_propId] */\n      0x00\n      dup7\n      dup2\n      mstore\n        /* \"src/QuadraticVoting.sol\":4141:4155  proposalVoters */\n      0x0a\n        /* \"src/QuadraticVoting.sol\":4141:4164  proposalVoters[_propId] */\n      0x20\n      swap1\n      dup2\n      mstore\n      0x40\n      dup3\n      keccak256\n        /* \"src/QuadraticVoting.sol\":4141:4181  proposalVoters[_propId].push(msg.sender) */\n      dup1\n      sload\n      0x01\n      dup2\n      add\n      dup3\n      sstore\n      swap1\n      dup4\n      mstore\n      swap2\n      keccak256\n      add\n      dup1\n      sload\n      not(sub(shl(0xa0, 0x01), 0x01))\n      and\n        /* \"src/QuadraticVoting.sol\":4170:4180  msg.sender */\n      caller\n        /* \"src/QuadraticVoting.sol\":4141:4181  proposalVoters[_propId].push(msg.sender) */\n      or\n      swap1\n      sstore\n        /* \"src/QuadraticVoting.sol\":4104:4193  if (votesBefore == 0) {... */\n    tag_190:\n        /* \"src/QuadraticVoting.sol\":4205:4233  userVotesInProposal[_propId] */\n      0x00\n      dup7\n      dup2\n      mstore\n        /* \"src/QuadraticVoting.sol\":4205:4224  userVotesInProposal */\n      0x09\n        /* \"src/QuadraticVoting.sol\":4205:4233  userVotesInProposal[_propId] */\n      0x20\n      swap1\n      dup2\n      mstore\n      0x40\n      dup1\n      dup4\n      keccak256\n        /* \"src/QuadraticVoting.sol\":4234:4244  msg.sender */\n      caller\n        /* \"src/QuadraticVoting.sol\":4205:4245  userVotesInProposal[_propId][msg.sender] */\n      dup5\n      mstore\n      swap1\n      swap2\n      mstore\n      dup2\n      keccak256\n        /* \"src/QuadraticVoting.sol\":4205:4258  userVotesInProposal[_propId][msg.sender] = votesAfter */\n      dup4\n      swap1\n      sstore\n        /* \"src/QuadraticVoting.sol\":4269:4281  p.totalVotes */\n      0x03\n      dup6\n      add\n        /* \"src/QuadraticVoting.sol\":4269:4294  p.totalVotes += _numVotes */\n      dup1\n      sload\n        /* \"src/QuadraticVoting.sol\":4285:4294  _numVotes */\n      dup8\n      swap3\n        /* \"src/QuadraticVoting.sol\":4205:4233  userVotesInProposal[_propId] */\n      swap1\n        /* \"src/QuadraticVoting.sol\":4269:4294  p.totalVotes += _numVotes */\n      tag_192\n      swap1\n        /* \"src/QuadraticVoting.sol\":4285:4294  _numVotes */\n      dup5\n      swap1\n        /* \"src/QuadraticVoting.sol\":4269:4294  p.totalVotes += _numVotes */\n      tag_177\n      jump\t// in\n    tag_192:\n      swap3\n      pop\n      pop\n      dup2\n      swap1\n      sstore\n      pop\n        /* \"src/QuadraticVoting.sol\":4328:4340  costInTokens */\n      dup1\n        /* \"src/QuadraticVoting.sol\":4305:4306  p */\n      dup5\n        /* \"src/QuadraticVoting.sol\":4305:4324  p.totalTokensStaked */\n      0x04\n      add\n      0x00\n        /* \"src/QuadraticVoting.sol\":4305:4340  p.totalTokensStaked += costInTokens */\n      dup3\n      dup3\n      sload\n      tag_193\n      swap2\n      swap1\n      tag_177\n      jump\t// in\n    tag_193:\n      swap1\n      swap2\n      sstore\n      pop\n      pop\n        /* \"src/QuadraticVoting.sol\":4358:4412  VoteCast(_propId, msg.sender, _numVotes, costInTokens) */\n      0x40\n      dup1\n      mload\n        /* \"#utility.yul\":11417:11442   */\n      dup7\n      dup2\n      mstore\n        /* \"#utility.yul\":11473:11475   */\n      0x20\n        /* \"#utility.yul\":11458:11476   */\n      dup2\n      add\n        /* \"#utility.yul\":11451:11485   */\n      dup4\n      swap1\n      mstore\n        /* \"src/QuadraticVoting.sol\":4376:4386  msg.sender */\n      caller\n      swap2\n        /* \"src/QuadraticVoting.sol\":4367:4374  _propId */\n      dup9\n      swap2\n        /* \"src/QuadraticVoting.sol\":4358:4412  VoteCast(_propId, msg.sender, _numVotes, costInTokens) */\n      0x0271f53eebbe20450d9578f28ec279231556c34545b30e2278d754ffd39cd63c\n      swap2\n        /* \"#utility.yul\":11390:11408   */\n      add\n        /* \"src/QuadraticVoting.sol\":4358:4412  VoteCast(_propId, msg.sender, _numVotes, costInTokens) */\n      mload(0x40)\n      dup1\n      swap2\n      sub\n      swap1\n      log3\n        /* \"src/QuadraticVoting.sol\":4430:4443  p.isSignaling */\n      0x05\n      dup5\n      add\n      sload\n      shl(0xa0, 0x01)\n      swap1\n      div\n      0xff\n      and\n        /* \"src/QuadraticVoting.sol\":4425:4505  if (!p.isSignaling) {... */\n      tag_140\n      jumpi\n        /* \"src/QuadraticVoting.sol\":4460:4493  _checkAndExecuteProposal(_propId) */\n      tag_140\n        /* \"src/QuadraticVoting.sol\":4485:4492  _propId */\n      dup7\n        /* \"src/QuadraticVoting.sol\":4460:4484  _checkAndExecuteProposal */\n      tag_198\n        /* \"src/QuadraticVoting.sol\":4460:4493  _checkAndExecuteProposal(_propId) */\n      jump\t// in\n        /* \"src/QuadraticVoting.sol\":2543:3451  function addProposal(string memory _title, uint256 _budget, address _exec) external returns (uint256) {... */\n    tag_68:\n        /* \"src/QuadraticVoting.sol\":2664:2674  votingOpen */\n      sload(0x04)\n        /* \"src/QuadraticVoting.sol\":2636:2643  uint256 */\n      0x00\n      swap1\n        /* \"src/QuadraticVoting.sol\":2664:2674  votingOpen */\n      0xff\n      and\n        /* \"src/QuadraticVoting.sol\":2656:2706  require(votingOpen, \"La votacion no esta abierta\") */\n      tag_200\n      jumpi\n      mload(0x40)\n      shl(0xe5, 0x461bcd)\n      dup2\n      mstore\n        /* \"#utility.yul\":11698:11700   */\n      0x20\n        /* \"src/QuadraticVoting.sol\":2656:2706  require(votingOpen, \"La votacion no esta abierta\") */\n      0x04\n      dup3\n      add\n        /* \"#utility.yul\":11680:11701   */\n      mstore\n        /* \"#utility.yul\":11737:11739   */\n      0x1b\n        /* \"#utility.yul\":11717:11735   */\n      0x24\n      dup3\n      add\n        /* \"#utility.yul\":11710:11740   */\n      mstore\n        /* \"#utility.yul\":11776:11805   */\n      0x4c6120766f746163696f6e206e6f206573746120616269657274610000000000\n        /* \"#utility.yul\":11756:11774   */\n      0x44\n      dup3\n      add\n        /* \"#utility.yul\":11749:11806   */\n      mstore\n        /* \"#utility.yul\":11823:11841   */\n      0x64\n      add\n        /* \"src/QuadraticVoting.sol\":2656:2706  require(votingOpen, \"La votacion no esta abierta\") */\n      tag_121\n        /* \"#utility.yul\":11496:11847   */\n      jump\n        /* \"src/QuadraticVoting.sol\":2656:2706  require(votingOpen, \"La votacion no esta abierta\") */\n    tag_200:\n        /* \"src/QuadraticVoting.sol\":2740:2750  msg.sender */\n      caller\n        /* \"src/QuadraticVoting.sol\":2726:2751  isParticipant[msg.sender] */\n      0x00\n      swap1\n      dup2\n      mstore\n        /* \"src/QuadraticVoting.sol\":2726:2739  isParticipant */\n      0x0b\n        /* \"src/QuadraticVoting.sol\":2726:2751  isParticipant[msg.sender] */\n      0x20\n      mstore\n      0x40\n      swap1\n      keccak256\n      sload\n      0xff\n      and\n        /* \"src/QuadraticVoting.sol\":2718:2774  require(isParticipant[msg.sender], \"Solo participantes\") */\n      tag_203\n      jumpi\n      mload(0x40)\n      shl(0xe5, 0x461bcd)\n      dup2\n      mstore\n        /* \"#utility.yul\":12054:12056   */\n      0x20\n        /* \"src/QuadraticVoting.sol\":2718:2774  require(isParticipant[msg.sender], \"Solo participantes\") */\n      0x04\n      dup3\n      add\n        /* \"#utility.yul\":12036:12057   */\n      mstore\n        /* \"#utility.yul\":12093:12095   */\n      0x12\n        /* \"#utility.yul\":12073:12091   */\n      0x24\n      dup3\n      add\n        /* \"#utility.yul\":12066:12096   */\n      mstore\n      shl(0x70, 0x536f6c6f207061727469636970616e746573)\n        /* \"#utility.yul\":12112:12130   */\n      0x44\n      dup3\n      add\n        /* \"#utility.yul\":12105:12153   */\n      mstore\n        /* \"#utility.yul\":12170:12188   */\n      0x64\n      add\n        /* \"src/QuadraticVoting.sol\":2718:2774  require(isParticipant[msg.sender], \"Solo participantes\") */\n      tag_121\n        /* \"#utility.yul\":11852:12194   */\n      jump\n        /* \"src/QuadraticVoting.sol\":2718:2774  require(isParticipant[msg.sender], \"Solo participantes\") */\n    tag_203:\n        /* \"src/QuadraticVoting.sol\":2794:2856  _exec.supportsInterface(type(IExecutableProposal).interfaceId) */\n      tag_206\n      sub(shl(0xa0, 0x01), 0x01)\n        /* \"src/QuadraticVoting.sol\":2794:2817  _exec.supportsInterface */\n      dup4\n      and\n      shl(0xe0, 0x986cc311)\n      tag_207\n        /* \"src/QuadraticVoting.sol\":2794:2856  _exec.supportsInterface(type(IExecutableProposal).interfaceId) */\n      jump\t// in\n    tag_206:\n        /* \"src/QuadraticVoting.sol\":2786:2882  require(_exec.supportsInterface(type(IExecutableProposal).interfaceId), \"Interfaz no soportada\") */\n      tag_208\n      jumpi\n      mload(0x40)\n      shl(0xe5, 0x461bcd)\n      dup2\n      mstore\n        /* \"#utility.yul\":12401:12403   */\n      0x20\n        /* \"src/QuadraticVoting.sol\":2786:2882  require(_exec.supportsInterface(type(IExecutableProposal).interfaceId), \"Interfaz no soportada\") */\n      0x04\n      dup3\n      add\n        /* \"#utility.yul\":12383:12404   */\n      mstore\n        /* \"#utility.yul\":12440:12442   */\n      0x15\n        /* \"#utility.yul\":12420:12438   */\n      0x24\n      dup3\n      add\n        /* \"#utility.yul\":12413:12443   */\n      mstore\n      shl(0x58, 0x496e74657266617a206e6f20736f706f7274616461)\n        /* \"#utility.yul\":12459:12477   */\n      0x44\n      dup3\n      add\n        /* \"#utility.yul\":12452:12503   */\n      mstore\n        /* \"#utility.yul\":12520:12538   */\n      0x64\n      add\n        /* \"src/QuadraticVoting.sol\":2786:2882  require(_exec.supportsInterface(type(IExecutableProposal).interfaceId), \"Interfaz no soportada\") */\n      tag_121\n        /* \"#utility.yul\":12199:12544   */\n      jump\n        /* \"src/QuadraticVoting.sol\":2786:2882  require(_exec.supportsInterface(type(IExecutableProposal).interfaceId), \"Interfaz no soportada\") */\n    tag_208:\n        /* \"src/QuadraticVoting.sol\":2908:2922  nextProposalId */\n      0x07\n        /* \"src/QuadraticVoting.sol\":2908:2924  nextProposalId++ */\n      dup1\n      sload\n        /* \"src/QuadraticVoting.sol\":2895:2905  uint256 id */\n      0x00\n      swap2\n      dup3\n        /* \"src/QuadraticVoting.sol\":2908:2924  nextProposalId++ */\n      tag_211\n      dup4\n      tag_212\n      jump\t// in\n    tag_211:\n      swap1\n      swap2\n      sstore\n      pop\n        /* \"src/QuadraticVoting.sol\":2995:3301  Proposal({... */\n      0x40\n      dup1\n      mload\n      0x0100\n      dup2\n      add\n      dup3\n      mstore\n      dup8\n      dup2\n      mstore\n      0x20\n      dup1\n      dup3\n      add\n      dup9\n      swap1\n      mstore\n      sub(shl(0xa0, 0x01), 0x01)\n      dup8\n      and\n      dup3\n      dup5\n      add\n      mstore\n      0x00\n      0x60\n      dup4\n      add\n      dup2\n      swap1\n      mstore\n      0x80\n      dup4\n      add\n      dup2\n      swap1\n      mstore\n      0xa0\n      dup4\n      add\n      dup2\n      swap1\n      mstore\n        /* \"src/QuadraticVoting.sol\":3242:3252  msg.sender */\n      caller\n        /* \"src/QuadraticVoting.sol\":2995:3301  Proposal({... */\n      0xc0\n      dup5\n      add\n      mstore\n        /* \"src/QuadraticVoting.sol\":2953:2965  _budget == 0 */\n      dup9\n      iszero\n        /* \"src/QuadraticVoting.sol\":2995:3301  Proposal({... */\n      0xe0\n      dup5\n      add\n      dup2\n      swap1\n      mstore\n        /* \"src/QuadraticVoting.sol\":2979:2992  proposals[id] */\n      dup6\n      dup3\n      mstore\n        /* \"src/QuadraticVoting.sol\":2979:2988  proposals */\n      0x08\n        /* \"src/QuadraticVoting.sol\":2979:2992  proposals[id] */\n      swap1\n      swap3\n      mstore\n      swap3\n      swap1\n      swap3\n      keccak256\n        /* \"src/QuadraticVoting.sol\":2979:3301  proposals[id] = Proposal({... */\n      dup2\n      mload\n        /* \"src/QuadraticVoting.sol\":2895:2924  uint256 id = nextProposalId++ */\n      swap4\n      swap5\n      pop\n        /* \"src/QuadraticVoting.sol\":2953:2965  _budget == 0 */\n      swap2\n      swap3\n        /* \"src/QuadraticVoting.sol\":2995:3301  Proposal({... */\n      swap1\n      swap2\n        /* \"src/QuadraticVoting.sol\":2979:2992  proposals[id] */\n      swap1\n      dup2\n      swap1\n        /* \"src/QuadraticVoting.sol\":2979:3301  proposals[id] = Proposal({... */\n      tag_215\n      swap1\n        /* \"src/QuadraticVoting.sol\":2979:2992  proposals[id] */\n      dup3\n        /* \"src/QuadraticVoting.sol\":2979:3301  proposals[id] = Proposal({... */\n      tag_216\n      jump\t// in\n    tag_215:\n      pop\n      0x20\n      dup3\n      add\n      mload\n      0x01\n      dup3\n      add\n      sstore\n      0x40\n      dup3\n      add\n      mload\n      0x02\n      dup1\n      dup4\n      add\n      dup1\n      sload\n      sub(shl(0xa0, 0x01), 0x01)\n      swap1\n      swap4\n      and\n      not(sub(shl(0xa0, 0x01), 0x01))\n      dup5\n      and\n      dup2\n      or\n      dup3\n      sstore\n      0x60\n      dup7\n      add\n      mload\n      swap4\n      swap2\n      swap3\n      not(sub(shl(0xa8, 0x01), 0x01))\n      swap1\n      swap3\n      and\n      or\n      swap1\n      shl(0xa0, 0x01)\n      swap1\n      dup5\n      swap1\n      dup2\n      gt\n      iszero\n      tag_218\n      jumpi\n      tag_218\n      tag_117\n      jump\t// in\n    tag_218:\n      mul\n      or\n      swap1\n      sstore\n      pop\n      0x80\n      dup3\n      add\n      mload\n      0x03\n      dup3\n      add\n      sstore\n      0xa0\n      dup3\n      add\n      mload\n      0x04\n      dup3\n      add\n      sstore\n      0xc0\n      dup3\n      add\n      mload\n      0x05\n      swap1\n      swap2\n      add\n      dup1\n      sload\n      0xe0\n      swap1\n      swap4\n      add\n      mload\n      iszero\n      iszero\n      shl(0xa0, 0x01)\n      mul\n      not(sub(shl(0xa8, 0x01), 0x01))\n      swap1\n      swap4\n      and\n      sub(shl(0xa0, 0x01), 0x01)\n      swap1\n      swap3\n      and\n      swap2\n      swap1\n      swap2\n      or\n      swap2\n      swap1\n      swap2\n      or\n      swap1\n      sstore\n        /* \"src/QuadraticVoting.sol\":3327:3336  signaling */\n      dup1\n        /* \"src/QuadraticVoting.sol\":3322:3359  if (!signaling) numPendingProposals++ */\n      tag_219\n      jumpi\n        /* \"src/QuadraticVoting.sol\":3338:3357  numPendingProposals */\n      0x06\n        /* \"src/QuadraticVoting.sol\":3338:3359  numPendingProposals++ */\n      dup1\n      sload\n      swap1\n        /* \"src/QuadraticVoting.sol\":3338:3357  numPendingProposals */\n      0x00\n        /* \"src/QuadraticVoting.sol\":3338:3359  numPendingProposals++ */\n      tag_220\n      dup4\n      tag_212\n      jump\t// in\n    tag_220:\n      swap2\n      swap1\n      pop\n      sstore\n      pop\n        /* \"src/QuadraticVoting.sol\":3322:3359  if (!signaling) numPendingProposals++ */\n    tag_219:\n        /* \"src/QuadraticVoting.sol\":3402:3404  id */\n      dup2\n        /* \"src/QuadraticVoting.sol\":3386:3422  ProposalCreated(id, _title, _budget) */\n      0xf5dc0da9afa6d080780a49fd8c680f03d2ddf3c067cd6d0c85360c096644d2d3\n        /* \"src/QuadraticVoting.sol\":3406:3412  _title */\n      dup8\n        /* \"src/QuadraticVoting.sol\":3414:3421  _budget */\n      dup8\n        /* \"src/QuadraticVoting.sol\":3386:3422  ProposalCreated(id, _title, _budget) */\n      mload(0x40)\n      tag_221\n      swap3\n      swap2\n      swap1\n      tag_222\n      jump\t// in\n    tag_221:\n      mload(0x40)\n      dup1\n      swap2\n      sub\n      swap1\n      log2\n      pop\n        /* \"src/QuadraticVoting.sol\":3440:3442  id */\n      swap5\n        /* \"src/QuadraticVoting.sol\":2543:3451  function addProposal(string memory _title, uint256 _budget, address _exec) external returns (uint256) {... */\n      swap4\n      pop\n      pop\n      pop\n      pop\n      jump\t// out\n        /* \"src/QuadraticVoting.sol\":1875:2095  function openVoting() external payable {... */\n    tag_86:\n        /* \"src/QuadraticVoting.sol\":1947:1952  owner */\n      and(sub(shl(0xa0, 0x01), 0x01), sload(0x00))\n        /* \"src/QuadraticVoting.sol\":1933:1943  msg.sender */\n      caller\n        /* \"src/QuadraticVoting.sol\":1933:1952  msg.sender == owner */\n      eq\n        /* \"src/QuadraticVoting.sol\":1925:1984  require(msg.sender == owner, \"Solo el creador puede abrir\") */\n      tag_224\n      jumpi\n      mload(0x40)\n      shl(0xe5, 0x461bcd)\n      dup2\n      mstore\n        /* \"#utility.yul\":15311:15313   */\n      0x20\n        /* \"src/QuadraticVoting.sol\":1925:1984  require(msg.sender == owner, \"Solo el creador puede abrir\") */\n      0x04\n      dup3\n      add\n        /* \"#utility.yul\":15293:15314   */\n      mstore\n        /* \"#utility.yul\":15350:15352   */\n      0x1b\n        /* \"#utility.yul\":15330:15348   */\n      0x24\n      dup3\n      add\n        /* \"#utility.yul\":15323:15353   */\n      mstore\n        /* \"#utility.yul\":15389:15418   */\n      0x536f6c6f20656c2063726561646f722070756564652061627269720000000000\n        /* \"#utility.yul\":15369:15387   */\n      0x44\n      dup3\n      add\n        /* \"#utility.yul\":15362:15419   */\n      mstore\n        /* \"#utility.yul\":15436:15454   */\n      0x64\n      add\n        /* \"src/QuadraticVoting.sol\":1925:1984  require(msg.sender == owner, \"Solo el creador puede abrir\") */\n      tag_121\n        /* \"#utility.yul\":15109:15460   */\n      jump\n        /* \"src/QuadraticVoting.sol\":1925:1984  require(msg.sender == owner, \"Solo el creador puede abrir\") */\n    tag_224:\n        /* \"src/QuadraticVoting.sol\":1996:2006  votingOpen */\n      0x04\n        /* \"src/QuadraticVoting.sol\":1996:2013  votingOpen = true */\n      dup1\n      sload\n      not(0xff)\n      and\n        /* \"src/QuadraticVoting.sol\":2009:2013  true */\n      0x01\n        /* \"src/QuadraticVoting.sol\":1996:2013  votingOpen = true */\n      or\n      swap1\n      sstore\n        /* \"src/QuadraticVoting.sol\":2024:2035  totalBudget */\n      0x03\n        /* \"src/QuadraticVoting.sol\":2024:2048  totalBudget += msg.value */\n      dup1\n      sload\n        /* \"src/QuadraticVoting.sol\":2039:2048  msg.value */\n      callvalue\n      swap2\n        /* \"src/QuadraticVoting.sol\":2024:2035  totalBudget */\n      swap1\n        /* \"src/QuadraticVoting.sol\":1996:2006  votingOpen */\n      0x00\n      swap1\n        /* \"src/QuadraticVoting.sol\":2024:2048  totalBudget += msg.value */\n      tag_227\n      swap1\n        /* \"src/QuadraticVoting.sol\":2039:2048  msg.value */\n      dup5\n      swap1\n        /* \"src/QuadraticVoting.sol\":2024:2048  totalBudget += msg.value */\n      tag_177\n      jump\t// in\n    tag_227:\n      swap1\n      swap2\n      sstore\n      pop\n      pop\n        /* \"src/QuadraticVoting.sol\":2064:2087  VotingOpened(msg.value) */\n      mload(0x40)\n        /* \"src/QuadraticVoting.sol\":2077:2086  msg.value */\n      callvalue\n        /* \"#utility.yul\":1777:1802   */\n      dup2\n      mstore\n        /* \"src/QuadraticVoting.sol\":2064:2087  VotingOpened(msg.value) */\n      0xe0a358d4a766346f1ece85d22e2197435d610d9638874a0fd6746e58a1b1f58a\n      swap1\n        /* \"#utility.yul\":1765:1767   */\n      0x20\n        /* \"#utility.yul\":1750:1768   */\n      add\n        /* \"src/QuadraticVoting.sol\":2064:2087  VotingOpened(msg.value) */\n      mload(0x40)\n      dup1\n      swap2\n      sub\n      swap1\n      log1\n        /* \"src/QuadraticVoting.sol\":1875:2095  function openVoting() external payable {... */\n      jump\t// out\n        /* \"src/QuadraticVoting.sol\":7041:8070  function closeVoting() external {... */\n    tag_89:\n        /* \"src/QuadraticVoting.sol\":7106:7111  owner */\n      and(sub(shl(0xa0, 0x01), 0x01), sload(0x00))\n        /* \"src/QuadraticVoting.sol\":7092:7102  msg.sender */\n      caller\n        /* \"src/QuadraticVoting.sol\":7092:7111  msg.sender == owner */\n      eq\n        /* \"src/QuadraticVoting.sol\":7084:7126  require(msg.sender == owner, \"Solo owner\") */\n      tag_230\n      jumpi\n      mload(0x40)\n      shl(0xe5, 0x461bcd)\n      dup2\n      mstore\n        /* \"#utility.yul\":15667:15669   */\n      0x20\n        /* \"src/QuadraticVoting.sol\":7084:7126  require(msg.sender == owner, \"Solo owner\") */\n      0x04\n      dup3\n      add\n        /* \"#utility.yul\":15649:15670   */\n      mstore\n        /* \"#utility.yul\":15706:15708   */\n      0x0a\n        /* \"#utility.yul\":15686:15704   */\n      0x24\n      dup3\n      add\n        /* \"#utility.yul\":15679:15709   */\n      mstore\n      shl(0xb1, 0x29b7b6379037bbb732b9)\n        /* \"#utility.yul\":15725:15743   */\n      0x44\n      dup3\n      add\n        /* \"#utility.yul\":15718:15758   */\n      mstore\n        /* \"#utility.yul\":15775:15793   */\n      0x64\n      add\n        /* \"src/QuadraticVoting.sol\":7084:7126  require(msg.sender == owner, \"Solo owner\") */\n      tag_121\n        /* \"#utility.yul\":15465:15799   */\n      jump\n        /* \"src/QuadraticVoting.sol\":7084:7126  require(msg.sender == owner, \"Solo owner\") */\n    tag_230:\n        /* \"src/QuadraticVoting.sol\":7145:7155  votingOpen */\n      and(0xff, sload(0x04))\n        /* \"src/QuadraticVoting.sol\":7137:7170  require(votingOpen, \"Ya cerrada\") */\n      tag_233\n      jumpi\n      mload(0x40)\n      shl(0xe5, 0x461bcd)\n      dup2\n      mstore\n        /* \"#utility.yul\":16006:16008   */\n      0x20\n        /* \"src/QuadraticVoting.sol\":7137:7170  require(votingOpen, \"Ya cerrada\") */\n      0x04\n      dup3\n      add\n        /* \"#utility.yul\":15988:16009   */\n      mstore\n        /* \"#utility.yul\":16045:16047   */\n      0x0a\n        /* \"#utility.yul\":16025:16043   */\n      0x24\n      dup3\n      add\n        /* \"#utility.yul\":16018:16048   */\n      mstore\n      shl(0xb0, 0x59612063657272616461)\n        /* \"#utility.yul\":16064:16082   */\n      0x44\n      dup3\n      add\n        /* \"#utility.yul\":16057:16097   */\n      mstore\n        /* \"#utility.yul\":16114:16132   */\n      0x64\n      add\n        /* \"src/QuadraticVoting.sol\":7137:7170  require(votingOpen, \"Ya cerrada\") */\n      tag_121\n        /* \"#utility.yul\":15804:16138   */\n      jump\n        /* \"src/QuadraticVoting.sol\":7137:7170  require(votingOpen, \"Ya cerrada\") */\n    tag_233:\n        /* \"src/QuadraticVoting.sol\":7183:7193  votingOpen */\n      0x04\n        /* \"src/QuadraticVoting.sol\":7183:7201  votingOpen = false */\n      dup1\n      sload\n      not(0xff)\n      and\n      swap1\n      sstore\n        /* \"src/QuadraticVoting.sol\":7196:7201  false */\n      0x00\n        /* \"src/QuadraticVoting.sol\":7215:7816  for (uint256 i = 0; i < nextProposalId; i++) {... */\n    tag_236:\n        /* \"src/QuadraticVoting.sol\":7239:7253  nextProposalId */\n      sload(0x07)\n        /* \"src/QuadraticVoting.sol\":7235:7236  i */\n      dup2\n        /* \"src/QuadraticVoting.sol\":7235:7253  i < nextProposalId */\n      lt\n        /* \"src/QuadraticVoting.sol\":7215:7816  for (uint256 i = 0; i < nextProposalId; i++) {... */\n      iszero\n      tag_237\n      jumpi\n        /* \"src/QuadraticVoting.sol\":7275:7293  Proposal storage p */\n      0x00\n        /* \"src/QuadraticVoting.sol\":7296:7308  proposals[i] */\n      dup2\n      dup2\n      mstore\n        /* \"src/QuadraticVoting.sol\":7296:7305  proposals */\n      0x08\n        /* \"src/QuadraticVoting.sol\":7296:7308  proposals[i] */\n      0x20\n      mstore\n      0x40\n      swap1\n      keccak256\n        /* \"src/QuadraticVoting.sol\":7329:7342  p.isSignaling */\n      0x05\n      dup2\n      add\n      sload\n      shl(0xa0, 0x01)\n      swap1\n      div\n      0xff\n      and\n        /* \"src/QuadraticVoting.sol\":7325:7805  if (p.isSignaling) {... */\n      iszero\n      tag_239\n      jumpi\n        /* \"src/QuadraticVoting.sol\":7363:7383  p.executableContract */\n      0x02\n      dup2\n      add\n      sload\n        /* \"src/QuadraticVoting.sol\":7495:7507  p.totalVotes */\n      0x03\n      dup3\n      add\n      sload\n        /* \"src/QuadraticVoting.sol\":7509:7528  p.totalTokensStaked */\n      0x04\n      dup4\n      add\n      sload\n        /* \"src/QuadraticVoting.sol\":7424:7529  abi.encodeWithSignature(\"executeProposal(uint256,uint256,uint256)\", i, p.totalVotes, p.totalTokensStaked) */\n      mload(0x40)\n      0x24\n      dup2\n      add\n        /* \"#utility.yul\":16345:16370   */\n      dup7\n      swap1\n      mstore\n        /* \"#utility.yul\":16386:16404   */\n      0x44\n      dup2\n      add\n        /* \"#utility.yul\":16379:16413   */\n      swap3\n      swap1\n      swap3\n      mstore\n        /* \"#utility.yul\":16429:16447   */\n      0x64\n      dup3\n      add\n        /* \"#utility.yul\":16422:16456   */\n      mstore\n      sub(shl(0xa0, 0x01), 0x01)\n        /* \"src/QuadraticVoting.sol\":7363:7383  p.executableContract */\n      swap1\n      swap2\n      and\n      swap1\n        /* \"src/QuadraticVoting.sol\":7394:7400  100000 */\n      0x0186a0\n      swap1\n        /* \"#utility.yul\":16318:16336   */\n      0x84\n      add\n        /* \"src/QuadraticVoting.sol\":7424:7529  abi.encodeWithSignature(\"executeProposal(uint256,uint256,uint256)\", i, p.totalVotes, p.totalTokensStaked) */\n      0x40\n      dup1\n      mload\n      not(0x1f)\n      dup2\n      dup5\n      sub\n      add\n      dup2\n      mstore\n      swap2\n      dup2\n      mstore\n      0x20\n      dup3\n      add\n      dup1\n      mload\n      sub(shl(0xe0, 0x01), 0x01)\n      and\n      shl(0xe0, 0x986cc311)\n      or\n      swap1\n      mstore\n        /* \"src/QuadraticVoting.sol\":7363:7548  p.executableContract.call{gas: 100000}(... */\n      mload\n      tag_242\n      swap2\n        /* \"src/QuadraticVoting.sol\":7424:7529  abi.encodeWithSignature(\"executeProposal(uint256,uint256,uint256)\", i, p.totalVotes, p.totalTokensStaked) */\n      swap1\n        /* \"src/QuadraticVoting.sol\":7363:7548  p.executableContract.call{gas: 100000}(... */\n      tag_243\n      jump\t// in\n    tag_242:\n      0x00\n      mload(0x40)\n      dup1\n      dup4\n      sub\n      dup2\n      0x00\n      dup8\n      dup8\n      call\n      swap3\n      pop\n      pop\n      pop\n      returndatasize\n      dup1\n      0x00\n      dup2\n      eq\n      tag_246\n      jumpi\n      mload(0x40)\n      swap2\n      pop\n      and(add(returndatasize, 0x3f), not(0x1f))\n      dup3\n      add\n      0x40\n      mstore\n      returndatasize\n      dup3\n      mstore\n      returndatasize\n      0x00\n      0x20\n      dup5\n      add\n      returndatacopy\n      jump(tag_245)\n    tag_246:\n      0x60\n      swap2\n      pop\n    tag_245:\n      pop\n      pop\n      pop\n        /* \"src/QuadraticVoting.sol\":7567:7591  _returnTokensToVoters(i) */\n      tag_247\n        /* \"src/QuadraticVoting.sol\":7589:7590  i */\n      dup3\n        /* \"src/QuadraticVoting.sol\":7567:7588  _returnTokensToVoters */\n      tag_248\n        /* \"src/QuadraticVoting.sol\":7567:7591  _returnTokensToVoters(i) */\n      jump\t// in\n    tag_247:\n        /* \"src/QuadraticVoting.sol\":7325:7805  if (p.isSignaling) {... */\n      jump(tag_259)\n    tag_239:\n        /* \"src/QuadraticVoting.sol\":7629:7651  ProposalStatus.Pending */\n      0x00\n        /* \"src/QuadraticVoting.sol\":7617:7625  p.status */\n      0x02\n      dup3\n      dup2\n      add\n      sload\n      shl(0xa0, 0x01)\n      swap1\n      div\n      0xff\n      and\n      swap1\n        /* \"src/QuadraticVoting.sol\":7617:7651  p.status == ProposalStatus.Pending */\n      dup2\n      gt\n      iszero\n      tag_253\n      jumpi\n      tag_253\n      tag_117\n      jump\t// in\n    tag_253:\n      sub\n        /* \"src/QuadraticVoting.sol\":7613:7805  if (p.status == ProposalStatus.Pending) {... */\n      tag_259\n      jumpi\n        /* \"src/QuadraticVoting.sol\":7683:7706  ProposalStatus.Canceled */\n      0x02\n        /* \"src/QuadraticVoting.sol\":7672:7680  p.status */\n      dup2\n      add\n        /* \"src/QuadraticVoting.sol\":7672:7706  p.status = ProposalStatus.Canceled */\n      dup1\n      sload\n      not(shl(0xa0, 0xff))\n      and\n      shl(0xa1, 0x01)\n      or\n      swap1\n      sstore\n        /* \"src/QuadraticVoting.sol\":7725:7744  numPendingProposals */\n      0x06\n        /* \"src/QuadraticVoting.sol\":7725:7746  numPendingProposals-- */\n      dup1\n      sload\n      swap1\n      0x00\n      tag_257\n      dup4\n      tag_258\n      jump\t// in\n    tag_257:\n      swap2\n      swap1\n      pop\n      sstore\n      pop\n        /* \"src/QuadraticVoting.sol\":7765:7789  _returnTokensToVoters(i) */\n      tag_259\n        /* \"src/QuadraticVoting.sol\":7787:7788  i */\n      dup3\n        /* \"src/QuadraticVoting.sol\":7765:7786  _returnTokensToVoters */\n      tag_248\n        /* \"src/QuadraticVoting.sol\":7765:7789  _returnTokensToVoters(i) */\n      jump\t// in\n    tag_259:\n      pop\n        /* \"src/QuadraticVoting.sol\":7255:7258  i++ */\n      0x01\n      add\n        /* \"src/QuadraticVoting.sol\":7215:7816  for (uint256 i = 0; i < nextProposalId; i++) {... */\n      jump(tag_236)\n    tag_237:\n      pop\n        /* \"src/QuadraticVoting.sol\":7854:7865  totalBudget */\n      0x03\n      dup1\n      sload\n        /* \"src/QuadraticVoting.sol\":7828:7851  uint256 remainingBudget */\n      0x00\n        /* \"src/QuadraticVoting.sol\":7876:7891  totalBudget = 0 */\n      swap1\n      swap2\n      sstore\n        /* \"src/QuadraticVoting.sol\":7906:7925  remainingBudget > 0 */\n      dup1\n      iszero\n        /* \"src/QuadraticVoting.sol\":7902:8063  if (remainingBudget > 0) {... */\n      tag_260\n      jumpi\n        /* \"src/QuadraticVoting.sol\":7943:7955  bool success */\n      0x00\n        /* \"src/QuadraticVoting.sol\":7961:7966  owner */\n      dup1\n      sload\n        /* \"src/QuadraticVoting.sol\":7961:7999  owner.call{value: remainingBudget}(\"\") */\n      mload(0x40)\n      sub(shl(0xa0, 0x01), 0x01)\n        /* \"src/QuadraticVoting.sol\":7961:7966  owner */\n      swap1\n      swap2\n      and\n      swap1\n        /* \"src/QuadraticVoting.sol\":7979:7994  remainingBudget */\n      dup4\n      swap1\n        /* \"src/QuadraticVoting.sol\":7943:7955  bool success */\n      dup4\n        /* \"src/QuadraticVoting.sol\":7961:7999  owner.call{value: remainingBudget}(\"\") */\n      dup2\n        /* \"src/QuadraticVoting.sol\":7943:7955  bool success */\n      dup2\n        /* \"src/QuadraticVoting.sol\":7961:7999  owner.call{value: remainingBudget}(\"\") */\n      dup2\n        /* \"src/QuadraticVoting.sol\":7979:7994  remainingBudget */\n      dup6\n        /* \"src/QuadraticVoting.sol\":7961:7966  owner */\n      dup8\n        /* \"src/QuadraticVoting.sol\":7961:7999  owner.call{value: remainingBudget}(\"\") */\n      gas\n      call\n      swap3\n      pop\n      pop\n      pop\n      returndatasize\n      dup1\n      0x00\n      dup2\n      eq\n      tag_264\n      jumpi\n      mload(0x40)\n      swap2\n      pop\n      and(add(returndatasize, 0x3f), not(0x1f))\n      dup3\n      add\n      0x40\n      mstore\n      returndatasize\n      dup3\n      mstore\n      returndatasize\n      0x00\n      0x20\n      dup5\n      add\n      returndatacopy\n      jump(tag_263)\n    tag_264:\n      0x60\n      swap2\n      pop\n    tag_263:\n      pop\n        /* \"src/QuadraticVoting.sol\":7942:7999  (bool success, ) = owner.call{value: remainingBudget}(\"\") */\n      pop\n      swap1\n      pop\n        /* \"src/QuadraticVoting.sol\":8022:8029  success */\n      dup1\n        /* \"src/QuadraticVoting.sol\":8014:8051  require(success, \"Error liquidacion\") */\n      tag_265\n      jumpi\n      mload(0x40)\n      shl(0xe5, 0x461bcd)\n      dup2\n      mstore\n        /* \"#utility.yul\":17116:17118   */\n      0x20\n        /* \"src/QuadraticVoting.sol\":8014:8051  require(success, \"Error liquidacion\") */\n      0x04\n      dup3\n      add\n        /* \"#utility.yul\":17098:17119   */\n      mstore\n        /* \"#utility.yul\":17155:17157   */\n      0x11\n        /* \"#utility.yul\":17135:17153   */\n      0x24\n      dup3\n      add\n        /* \"#utility.yul\":17128:17158   */\n      mstore\n      shl(0x79, 0x22b93937b9103634b8bab4b230b1b4b7b7)\n        /* \"#utility.yul\":17174:17192   */\n      0x44\n      dup3\n      add\n        /* \"#utility.yul\":17167:17214   */\n      mstore\n        /* \"#utility.yul\":17231:17249   */\n      0x64\n      add\n        /* \"src/QuadraticVoting.sol\":8014:8051  require(success, \"Error liquidacion\") */\n      tag_121\n        /* \"#utility.yul\":16914:17255   */\n      jump\n        /* \"src/QuadraticVoting.sol\":8014:8051  require(success, \"Error liquidacion\") */\n    tag_265:\n        /* \"src/QuadraticVoting.sol\":7927:8063  {... */\n      pop\n        /* \"src/QuadraticVoting.sol\":7902:8063  if (remainingBudget > 0) {... */\n    tag_260:\n        /* \"src/QuadraticVoting.sol\":7073:8070  {... */\n      pop\n        /* \"src/QuadraticVoting.sol\":7041:8070  function closeVoting() external {... */\n      jump\t// out\n        /* \"src/QuadraticVoting.sol\":5660:5869  function buyTokens() external payable {... */\n    tag_95:\n        /* \"src/QuadraticVoting.sol\":5731:5741  msg.sender */\n      caller\n        /* \"src/QuadraticVoting.sol\":5717:5742  isParticipant[msg.sender] */\n      0x00\n      swap1\n      dup2\n      mstore\n        /* \"src/QuadraticVoting.sol\":5717:5730  isParticipant */\n      0x0b\n        /* \"src/QuadraticVoting.sol\":5717:5742  isParticipant[msg.sender] */\n      0x20\n      mstore\n      0x40\n      swap1\n      keccak256\n      sload\n      0xff\n      and\n        /* \"src/QuadraticVoting.sol\":5709:5765  require(isParticipant[msg.sender], \"Inscribase primero\") */\n      tag_269\n      jumpi\n      mload(0x40)\n      shl(0xe5, 0x461bcd)\n      dup2\n      mstore\n        /* \"#utility.yul\":17462:17464   */\n      0x20\n        /* \"src/QuadraticVoting.sol\":5709:5765  require(isParticipant[msg.sender], \"Inscribase primero\") */\n      0x04\n      dup3\n      add\n        /* \"#utility.yul\":17444:17465   */\n      mstore\n        /* \"#utility.yul\":17501:17503   */\n      0x12\n        /* \"#utility.yul\":17481:17499   */\n      0x24\n      dup3\n      add\n        /* \"#utility.yul\":17474:17504   */\n      mstore\n      shl(0x70, 0x496e7363726962617365207072696d65726f)\n        /* \"#utility.yul\":17520:17538   */\n      0x44\n      dup3\n      add\n        /* \"#utility.yul\":17513:17561   */\n      mstore\n        /* \"#utility.yul\":17578:17596   */\n      0x64\n      add\n        /* \"src/QuadraticVoting.sol\":5709:5765  require(isParticipant[msg.sender], \"Inscribase primero\") */\n      tag_121\n        /* \"#utility.yul\":17260:17602   */\n      jump\n        /* \"src/QuadraticVoting.sol\":5709:5765  require(isParticipant[msg.sender], \"Inscribase primero\") */\n    tag_269:\n        /* \"src/QuadraticVoting.sol\":5777:5791  uint256 amount */\n      0x00\n        /* \"src/QuadraticVoting.sol\":5806:5819  tokenPriceWei */\n      sload(0x02)\n        /* \"src/QuadraticVoting.sol\":5794:5803  msg.value */\n      callvalue\n        /* \"src/QuadraticVoting.sol\":5794:5819  msg.value / tokenPriceWei */\n      tag_272\n      swap2\n      swap1\n      tag_273\n      jump\t// in\n    tag_272:\n        /* \"src/QuadraticVoting.sol\":5830:5835  token */\n      sload(0x01)\n        /* \"src/QuadraticVoting.sol\":5830:5860  token.mint(msg.sender, amount) */\n      mload(0x40)\n      shl(0xe0, 0x40c10f19)\n      dup2\n      mstore\n        /* \"src/QuadraticVoting.sol\":5841:5851  msg.sender */\n      caller\n        /* \"src/QuadraticVoting.sol\":5830:5860  token.mint(msg.sender, amount) */\n      0x04\n      dup3\n      add\n        /* \"#utility.yul\":6436:6487   */\n      mstore\n        /* \"#utility.yul\":6503:6521   */\n      0x24\n      dup2\n      add\n        /* \"#utility.yul\":6496:6530   */\n      dup4\n      swap1\n      mstore\n        /* \"src/QuadraticVoting.sol\":5777:5819  uint256 amount = msg.value / tokenPriceWei */\n      swap2\n      swap3\n      pop\n      sub(shl(0xa0, 0x01), 0x01)\n        /* \"src/QuadraticVoting.sol\":5830:5835  token */\n      and\n      swap1\n        /* \"src/QuadraticVoting.sol\":5830:5840  token.mint */\n      0x40c10f19\n      swap1\n        /* \"#utility.yul\":6409:6427   */\n      0x44\n      add\n        /* \"src/QuadraticVoting.sol\":5830:5860  token.mint(msg.sender, amount) */\n      0x00\n      mload(0x40)\n      dup1\n      dup4\n      sub\n      dup2\n      0x00\n      dup8\n      dup1\n      extcodesize\n      iszero\n      dup1\n      iszero\n      tag_275\n      jumpi\n      revert(0x00, 0x00)\n    tag_275:\n      pop\n      gas\n      call\n      iszero\n      dup1\n      iszero\n      tag_277\n      jumpi\n      returndatacopy(0x00, 0x00, returndatasize)\n      revert(0x00, returndatasize)\n    tag_277:\n      pop\n      pop\n      pop\n      pop\n        /* \"src/QuadraticVoting.sol\":5698:5869  {... */\n      pop\n        /* \"src/QuadraticVoting.sol\":5660:5869  function buyTokens() external payable {... */\n      jump\t// out\n        /* \"src/QuadraticVoting.sol\":2103:2535  function addParticipant() external payable {... */\n    tag_106:\n        /* \"src/QuadraticVoting.sol\":2180:2190  msg.sender */\n      caller\n        /* \"src/QuadraticVoting.sol\":2166:2191  isParticipant[msg.sender] */\n      0x00\n      swap1\n      dup2\n      mstore\n        /* \"src/QuadraticVoting.sol\":2166:2179  isParticipant */\n      0x0b\n        /* \"src/QuadraticVoting.sol\":2166:2191  isParticipant[msg.sender] */\n      0x20\n      mstore\n      0x40\n      swap1\n      keccak256\n      sload\n      0xff\n      and\n        /* \"src/QuadraticVoting.sol\":2165:2191  !isParticipant[msg.sender] */\n      iszero\n        /* \"src/QuadraticVoting.sol\":2157:2214  require(!isParticipant[msg.sender], \"Ya es participante\") */\n      tag_279\n      jumpi\n      mload(0x40)\n      shl(0xe5, 0x461bcd)\n      dup2\n      mstore\n        /* \"#utility.yul\":18031:18033   */\n      0x20\n        /* \"src/QuadraticVoting.sol\":2157:2214  require(!isParticipant[msg.sender], \"Ya es participante\") */\n      0x04\n      dup3\n      add\n        /* \"#utility.yul\":18013:18034   */\n      mstore\n        /* \"#utility.yul\":18070:18072   */\n      0x12\n        /* \"#utility.yul\":18050:18068   */\n      0x24\n      dup3\n      add\n        /* \"#utility.yul\":18043:18073   */\n      mstore\n      shl(0x70, 0x5961206573207061727469636970616e7465)\n        /* \"#utility.yul\":18089:18107   */\n      0x44\n      dup3\n      add\n        /* \"#utility.yul\":18082:18130   */\n      mstore\n        /* \"#utility.yul\":18147:18165   */\n      0x64\n      add\n        /* \"src/QuadraticVoting.sol\":2157:2214  require(!isParticipant[msg.sender], \"Ya es participante\") */\n      tag_121\n        /* \"#utility.yul\":17829:18171   */\n      jump\n        /* \"src/QuadraticVoting.sol\":2157:2214  require(!isParticipant[msg.sender], \"Ya es participante\") */\n    tag_279:\n        /* \"src/QuadraticVoting.sol\":2246:2259  tokenPriceWei */\n      sload(0x02)\n        /* \"src/QuadraticVoting.sol\":2233:2242  msg.value */\n      callvalue\n        /* \"src/QuadraticVoting.sol\":2233:2259  msg.value >= tokenPriceWei */\n      lt\n      iszero\n        /* \"src/QuadraticVoting.sol\":2225:2294  require(msg.value >= tokenPriceWei, \"Debe comprar al menos un token\") */\n      tag_282\n      jumpi\n      mload(0x40)\n      shl(0xe5, 0x461bcd)\n      dup2\n      mstore\n        /* \"#utility.yul\":18378:18380   */\n      0x20\n        /* \"src/QuadraticVoting.sol\":2225:2294  require(msg.value >= tokenPriceWei, \"Debe comprar al menos un token\") */\n      0x04\n      dup3\n      add\n        /* \"#utility.yul\":18360:18381   */\n      mstore\n        /* \"#utility.yul\":18417:18419   */\n      0x1e\n        /* \"#utility.yul\":18397:18415   */\n      0x24\n      dup3\n      add\n        /* \"#utility.yul\":18390:18420   */\n      mstore\n        /* \"#utility.yul\":18456:18488   */\n      0x4465626520636f6d7072617220616c206d656e6f7320756e20746f6b656e0000\n        /* \"#utility.yul\":18436:18454   */\n      0x44\n      dup3\n      add\n        /* \"#utility.yul\":18429:18489   */\n      mstore\n        /* \"#utility.yul\":18506:18524   */\n      0x64\n      add\n        /* \"src/QuadraticVoting.sol\":2225:2294  require(msg.value >= tokenPriceWei, \"Debe comprar al menos un token\") */\n      tag_121\n        /* \"#utility.yul\":18176:18530   */\n      jump\n        /* \"src/QuadraticVoting.sol\":2225:2294  require(msg.value >= tokenPriceWei, \"Debe comprar al menos un token\") */\n    tag_282:\n        /* \"src/QuadraticVoting.sol\":2322:2332  msg.sender */\n      caller\n        /* \"src/QuadraticVoting.sol\":2308:2333  isParticipant[msg.sender] */\n      0x00\n      swap1\n      dup2\n      mstore\n        /* \"src/QuadraticVoting.sol\":2308:2321  isParticipant */\n      0x0b\n        /* \"src/QuadraticVoting.sol\":2308:2333  isParticipant[msg.sender] */\n      0x20\n      mstore\n      0x40\n      dup2\n      keccak256\n        /* \"src/QuadraticVoting.sol\":2308:2340  isParticipant[msg.sender] = true */\n      dup1\n      sload\n      not(0xff)\n      and\n        /* \"src/QuadraticVoting.sol\":2336:2340  true */\n      0x01\n        /* \"src/QuadraticVoting.sol\":2308:2340  isParticipant[msg.sender] = true */\n      or\n      swap1\n      sstore\n        /* \"src/QuadraticVoting.sol\":2351:2366  numParticipants */\n      0x05\n        /* \"src/QuadraticVoting.sol\":2351:2368  numParticipants++ */\n      dup1\n      sload\n      swap2\n      tag_285\n      dup4\n      tag_212\n      jump\t// in\n    tag_285:\n      swap2\n      swap1\n      pop\n      sstore\n      pop\n        /* \"src/QuadraticVoting.sol\":2381:2395  uint256 amount */\n      0x00\n        /* \"src/QuadraticVoting.sol\":2410:2423  tokenPriceWei */\n      sload(0x02)\n        /* \"src/QuadraticVoting.sol\":2398:2407  msg.value */\n      callvalue\n        /* \"src/QuadraticVoting.sol\":2398:2423  msg.value / tokenPriceWei */\n      tag_286\n      swap2\n      swap1\n      tag_273\n      jump\t// in\n    tag_286:\n        /* \"src/QuadraticVoting.sol\":2434:2439  token */\n      sload(0x01)\n        /* \"src/QuadraticVoting.sol\":2434:2464  token.mint(msg.sender, amount) */\n      mload(0x40)\n      shl(0xe0, 0x40c10f19)\n      dup2\n      mstore\n        /* \"src/QuadraticVoting.sol\":2445:2455  msg.sender */\n      caller\n        /* \"src/QuadraticVoting.sol\":2434:2464  token.mint(msg.sender, amount) */\n      0x04\n      dup3\n      add\n        /* \"#utility.yul\":6436:6487   */\n      mstore\n        /* \"#utility.yul\":6503:6521   */\n      0x24\n      dup2\n      add\n        /* \"#utility.yul\":6496:6530   */\n      dup4\n      swap1\n      mstore\n        /* \"src/QuadraticVoting.sol\":2381:2423  uint256 amount = msg.value / tokenPriceWei */\n      swap2\n      swap3\n      pop\n      sub(shl(0xa0, 0x01), 0x01)\n        /* \"src/QuadraticVoting.sol\":2434:2439  token */\n      and\n      swap1\n        /* \"src/QuadraticVoting.sol\":2434:2444  token.mint */\n      0x40c10f19\n      swap1\n        /* \"#utility.yul\":6409:6427   */\n      0x44\n      add\n        /* \"src/QuadraticVoting.sol\":2434:2464  token.mint(msg.sender, amount) */\n      0x00\n      mload(0x40)\n      dup1\n      dup4\n      sub\n      dup2\n      0x00\n      dup8\n      dup1\n      extcodesize\n      iszero\n      dup1\n      iszero\n      tag_288\n      jumpi\n      revert(0x00, 0x00)\n    tag_288:\n      pop\n      gas\n      call\n      iszero\n      dup1\n      iszero\n      tag_290\n      jumpi\n      returndatacopy(0x00, 0x00, returndatasize)\n      revert(0x00, returndatasize)\n    tag_290:\n      pop\n      pop\n        /* \"src/QuadraticVoting.sol\":2491:2527  ParticipantAdded(msg.sender, amount) */\n      mload(0x40)\n        /* \"#utility.yul\":1777:1802   */\n      dup4\n      dup2\n      mstore\n        /* \"src/QuadraticVoting.sol\":2508:2518  msg.sender */\n      caller\n      swap3\n      pop\n        /* \"src/QuadraticVoting.sol\":2491:2527  ParticipantAdded(msg.sender, amount) */\n      0x287ab65235aa9a0baeed5b973fda48c77ebdc6f3dd931cfda1c082c0aecc1e73\n      swap2\n      pop\n        /* \"#utility.yul\":1765:1767   */\n      0x20\n        /* \"#utility.yul\":1750:1768   */\n      add\n        /* \"src/QuadraticVoting.sol\":2491:2527  ParticipantAdded(msg.sender, amount) */\n      mload(0x40)\n      dup1\n      swap2\n      sub\n      swap1\n      log2\n        /* \"src/QuadraticVoting.sol\":2146:2535  {... */\n      pop\n        /* \"src/QuadraticVoting.sol\":2103:2535  function addParticipant() external payable {... */\n      jump\t// out\n        /* \"src/QuadraticVoting.sol\":4520:5615  function _checkAndExecuteProposal(uint256 _id) internal {... */\n    tag_198:\n        /* \"src/QuadraticVoting.sol\":4587:4605  Proposal storage p */\n      0x00\n        /* \"src/QuadraticVoting.sol\":4608:4622  proposals[_id] */\n      dup2\n      dup2\n      mstore\n        /* \"src/QuadraticVoting.sol\":4608:4617  proposals */\n      0x08\n        /* \"src/QuadraticVoting.sol\":4608:4622  proposals[_id] */\n      0x20\n      mstore\n      0x40\n      dup2\n      keccak256\n        /* \"src/QuadraticVoting.sol\":4776:4787  totalBudget */\n      sload(0x03)\n        /* \"src/QuadraticVoting.sol\":4757:4773  p.requiredBudget */\n      0x01\n      dup3\n      add\n      sload\n        /* \"src/QuadraticVoting.sol\":4608:4622  proposals[_id] */\n      swap2\n      swap3\n        /* \"src/QuadraticVoting.sol\":4587:4605  Proposal storage p */\n      swap2\n        /* \"src/QuadraticVoting.sol\":4752:4773  10 * p.requiredBudget */\n      tag_293\n      swap1\n        /* \"src/QuadraticVoting.sol\":4752:4754  10 */\n      0x0a\n        /* \"src/QuadraticVoting.sol\":4752:4773  10 * p.requiredBudget */\n      tag_129\n      jump\t// in\n    tag_293:\n        /* \"src/QuadraticVoting.sol\":4752:4787  10 * p.requiredBudget / totalBudget */\n      tag_294\n      swap2\n      swap1\n      tag_273\n      jump\t// in\n    tag_294:\n        /* \"src/QuadraticVoting.sol\":4747:4788  2 + (10 * p.requiredBudget / totalBudget) */\n      tag_295\n      swap1\n        /* \"src/QuadraticVoting.sol\":4747:4748  2 */\n      0x02\n        /* \"src/QuadraticVoting.sol\":4747:4788  2 + (10 * p.requiredBudget / totalBudget) */\n      tag_177\n      jump\t// in\n    tag_295:\n        /* \"src/QuadraticVoting.sol\":4730:4788  uint256 factor = 2 + (10 * p.requiredBudget / totalBudget) */\n      swap1\n      pop\n        /* \"src/QuadraticVoting.sol\":4799:4816  uint256 threshold */\n      0x00\n        /* \"src/QuadraticVoting.sol\":4872:4874  10 */\n      0x0a\n        /* \"src/QuadraticVoting.sol\":4848:4867  numPendingProposals */\n      sload(0x06)\n        /* \"src/QuadraticVoting.sol\":4830:4845  numParticipants */\n      sload(0x05)\n        /* \"src/QuadraticVoting.sol\":4830:4867  numParticipants + numPendingProposals */\n      tag_296\n      swap2\n      swap1\n      tag_177\n      jump\t// in\n    tag_296:\n        /* \"src/QuadraticVoting.sol\":4820:4868  factor * (numParticipants + numPendingProposals) */\n      tag_297\n      swap1\n        /* \"src/QuadraticVoting.sol\":4820:4826  factor */\n      dup5\n        /* \"src/QuadraticVoting.sol\":4820:4868  factor * (numParticipants + numPendingProposals) */\n      tag_129\n      jump\t// in\n    tag_297:\n        /* \"src/QuadraticVoting.sol\":4819:4874  (factor * (numParticipants + numPendingProposals)) / 10 */\n      tag_298\n      swap2\n      swap1\n      tag_273\n      jump\t// in\n    tag_298:\n        /* \"src/QuadraticVoting.sol\":4799:4874  uint256 threshold = (factor * (numParticipants + numPendingProposals)) / 10 */\n      swap1\n      pop\n        /* \"src/QuadraticVoting.sol\":4906:4915  threshold */\n      dup1\n        /* \"src/QuadraticVoting.sol\":4891:4892  p */\n      dup4\n        /* \"src/QuadraticVoting.sol\":4891:4903  p.totalVotes */\n      0x03\n      add\n      sload\n        /* \"src/QuadraticVoting.sol\":4891:4915  p.totalVotes > threshold */\n      gt\n        /* \"src/QuadraticVoting.sol\":4891:4950  p.totalVotes > threshold && totalBudget >= p.requiredBudget */\n      dup1\n      iszero\n      tag_299\n      jumpi\n      pop\n        /* \"src/QuadraticVoting.sol\":4934:4935  p */\n      dup3\n        /* \"src/QuadraticVoting.sol\":4934:4950  p.requiredBudget */\n      0x01\n      add\n      sload\n        /* \"src/QuadraticVoting.sol\":4919:4930  totalBudget */\n      sload(0x03)\n        /* \"src/QuadraticVoting.sol\":4919:4950  totalBudget >= p.requiredBudget */\n      lt\n      iszero\n        /* \"src/QuadraticVoting.sol\":4891:4950  p.totalVotes > threshold && totalBudget >= p.requiredBudget */\n    tag_299:\n        /* \"src/QuadraticVoting.sol\":4887:5608  if (p.totalVotes > threshold && totalBudget >= p.requiredBudget) { ... */\n      iszero\n      tag_300\n      jumpi\n        /* \"src/QuadraticVoting.sol\":4968:4976  p.status */\n      0x02\n      dup4\n      add\n        /* \"src/QuadraticVoting.sol\":4968:5002  p.status = ProposalStatus.Approved */\n      dup1\n      sload\n      not(shl(0xa0, 0xff))\n      and\n      shl(0xa0, 0x01)\n      or\n      swap1\n      sstore\n        /* \"src/QuadraticVoting.sol\":5017:5036  numPendingProposals */\n      0x06\n        /* \"src/QuadraticVoting.sol\":5017:5038  numPendingProposals-- */\n      dup1\n      sload\n      swap1\n      0x00\n      tag_303\n      dup4\n      tag_258\n      jump\t// in\n    tag_303:\n      swap2\n      swap1\n      pop\n      sstore\n      pop\n        /* \"src/QuadraticVoting.sol\":5093:5106  tokenPriceWei */\n      sload(0x02)\n        /* \"src/QuadraticVoting.sol\":5071:5072  p */\n      dup4\n        /* \"src/QuadraticVoting.sol\":5071:5090  p.totalTokensStaked */\n      0x04\n      add\n      sload\n        /* \"src/QuadraticVoting.sol\":5071:5106  p.totalTokensStaked * tokenPriceWei */\n      tag_304\n      swap2\n      swap1\n      tag_129\n      jump\t// in\n    tag_304:\n        /* \"src/QuadraticVoting.sol\":5055:5066  totalBudget */\n      0x03\n      0x00\n        /* \"src/QuadraticVoting.sol\":5055:5107  totalBudget += (p.totalTokensStaked * tokenPriceWei) */\n      dup3\n      dup3\n      sload\n      tag_305\n      swap2\n      swap1\n      tag_177\n      jump\t// in\n    tag_305:\n      swap1\n      swap2\n      sstore\n      pop\n      pop\n        /* \"src/QuadraticVoting.sol\":5138:5154  p.requiredBudget */\n      0x01\n      dup4\n      add\n      sload\n        /* \"src/QuadraticVoting.sol\":5123:5134  totalBudget */\n      0x03\n        /* \"src/QuadraticVoting.sol\":5123:5154  totalBudget -= p.requiredBudget */\n      dup1\n      sload\n        /* \"src/QuadraticVoting.sol\":5123:5134  totalBudget */\n      0x00\n      swap1\n        /* \"src/QuadraticVoting.sol\":5123:5154  totalBudget -= p.requiredBudget */\n      tag_306\n      swap1\n        /* \"src/QuadraticVoting.sol\":5138:5154  p.requiredBudget */\n      dup5\n      swap1\n        /* \"src/QuadraticVoting.sol\":5123:5154  totalBudget -= p.requiredBudget */\n      tag_127\n      jump\t// in\n    tag_306:\n      swap1\n      swap2\n      sstore\n      pop\n      pop\n        /* \"src/QuadraticVoting.sol\":5172:5177  token */\n      sload(0x01)\n        /* \"src/QuadraticVoting.sol\":5198:5217  p.totalTokensStaked */\n      0x04\n      dup5\n      dup2\n      add\n      sload\n        /* \"src/QuadraticVoting.sol\":5172:5218  token.burn(address(this), p.totalTokensStaked) */\n      mload(0x40)\n      shl(0xe2, 0x2770a7eb)\n      dup2\n      mstore\n        /* \"src/QuadraticVoting.sol\":5191:5195  this */\n      address\n        /* \"src/QuadraticVoting.sol\":5172:5218  token.burn(address(this), p.totalTokensStaked) */\n      swap3\n      dup2\n      add\n        /* \"#utility.yul\":6436:6487   */\n      swap3\n      swap1\n      swap3\n      mstore\n        /* \"#utility.yul\":6503:6521   */\n      0x24\n      dup3\n      add\n        /* \"#utility.yul\":6496:6530   */\n      mstore\n      sub(shl(0xa0, 0x01), 0x01)\n        /* \"src/QuadraticVoting.sol\":5172:5177  token */\n      swap1\n      swap2\n      and\n      swap1\n        /* \"src/QuadraticVoting.sol\":5172:5182  token.burn */\n      0x9dc29fac\n      swap1\n        /* \"#utility.yul\":6409:6427   */\n      0x44\n      add\n        /* \"src/QuadraticVoting.sol\":5172:5218  token.burn(address(this), p.totalTokensStaked) */\n      0x00\n      mload(0x40)\n      dup1\n      dup4\n      sub\n      dup2\n      0x00\n      dup8\n      dup1\n      extcodesize\n      iszero\n      dup1\n      iszero\n      tag_308\n      jumpi\n      revert(0x00, 0x00)\n    tag_308:\n      pop\n      gas\n      call\n      iszero\n      dup1\n      iszero\n      tag_310\n      jumpi\n      returndatacopy(0x00, 0x00, returndatasize)\n      revert(0x00, returndatasize)\n    tag_310:\n      pop\n      pop\n      pop\n      pop\n        /* \"src/QuadraticVoting.sol\":5255:5275  p.executableContract */\n      0x02\n      dup4\n      add\n      sload\n      0x01\n        /* \"src/QuadraticVoting.sol\":5288:5304  p.requiredBudget */\n      dup5\n      add\n      sload\n        /* \"src/QuadraticVoting.sol\":5410:5422  p.totalVotes */\n      0x03\n      dup6\n      add\n      sload\n        /* \"src/QuadraticVoting.sol\":5424:5443  p.totalTokensStaked */\n      0x04\n      dup7\n      add\n      sload\n        /* \"src/QuadraticVoting.sol\":5337:5444  abi.encodeWithSignature(\"executeProposal(uint256,uint256,uint256)\", _id, p.totalVotes, p.totalTokensStaked) */\n      mload(0x40)\n      0x24\n      dup2\n      add\n        /* \"#utility.yul\":16345:16370   */\n      dup10\n      swap1\n      mstore\n        /* \"#utility.yul\":16386:16404   */\n      0x44\n      dup2\n      add\n        /* \"#utility.yul\":16379:16413   */\n      swap3\n      swap1\n      swap3\n      mstore\n        /* \"#utility.yul\":16429:16447   */\n      0x64\n      dup3\n      add\n        /* \"#utility.yul\":16422:16456   */\n      mstore\n        /* \"src/QuadraticVoting.sol\":5237:5249  bool success */\n      0x00\n      swap3\n      sub(shl(0xa0, 0x01), 0x01)\n        /* \"src/QuadraticVoting.sol\":5255:5275  p.executableContract */\n      and\n      swap2\n        /* \"src/QuadraticVoting.sol\":5311:5317  100000 */\n      0x0186a0\n      swap2\n        /* \"#utility.yul\":16318:16336   */\n      0x84\n      add\n        /* \"src/QuadraticVoting.sol\":5337:5444  abi.encodeWithSignature(\"executeProposal(uint256,uint256,uint256)\", _id, p.totalVotes, p.totalTokensStaked) */\n      0x40\n      dup1\n      mload\n      not(0x1f)\n      dup2\n      dup5\n      sub\n      add\n      dup2\n      mstore\n      swap2\n      dup2\n      mstore\n      0x20\n      dup3\n      add\n      dup1\n      mload\n      sub(shl(0xe0, 0x01), 0x01)\n      and\n      shl(0xe0, 0x986cc311)\n      or\n      swap1\n      mstore\n        /* \"src/QuadraticVoting.sol\":5255:5459  p.executableContract.call{value: p.requiredBudget, gas: 100000}(... */\n      mload\n      tag_312\n      swap2\n        /* \"src/QuadraticVoting.sol\":5337:5444  abi.encodeWithSignature(\"executeProposal(uint256,uint256,uint256)\", _id, p.totalVotes, p.totalTokensStaked) */\n      swap1\n        /* \"src/QuadraticVoting.sol\":5255:5459  p.executableContract.call{value: p.requiredBudget, gas: 100000}(... */\n      tag_243\n      jump\t// in\n    tag_312:\n      0x00\n      mload(0x40)\n      dup1\n      dup4\n      sub\n      dup2\n      dup6\n      dup9\n      dup9\n      call\n      swap4\n      pop\n      pop\n      pop\n      pop\n      returndatasize\n      dup1\n      0x00\n      dup2\n      eq\n      tag_315\n      jumpi\n      mload(0x40)\n      swap2\n      pop\n      and(add(returndatasize, 0x3f), not(0x1f))\n      dup3\n      add\n      0x40\n      mstore\n      returndatasize\n      dup3\n      mstore\n      returndatasize\n      0x00\n      0x20\n      dup5\n      add\n      returndatacopy\n      jump(tag_314)\n    tag_315:\n      0x60\n      swap2\n      pop\n    tag_314:\n      pop\n        /* \"src/QuadraticVoting.sol\":5236:5459  (bool success, ) = p.executableContract.call{value: p.requiredBudget, gas: 100000}(... */\n      pop\n      swap1\n      pop\n        /* \"src/QuadraticVoting.sol\":5496:5503  success */\n      dup1\n        /* \"src/QuadraticVoting.sol\":5488:5537  require(success, \"Fallo en la ejecucion externa\") */\n      tag_316\n      jumpi\n      mload(0x40)\n      shl(0xe5, 0x461bcd)\n      dup2\n      mstore\n        /* \"#utility.yul\":18737:18739   */\n      0x20\n        /* \"src/QuadraticVoting.sol\":5488:5537  require(success, \"Fallo en la ejecucion externa\") */\n      0x04\n      dup3\n      add\n        /* \"#utility.yul\":18719:18740   */\n      mstore\n        /* \"#utility.yul\":18776:18778   */\n      0x1d\n        /* \"#utility.yul\":18756:18774   */\n      0x24\n      dup3\n      add\n        /* \"#utility.yul\":18749:18779   */\n      mstore\n        /* \"#utility.yul\":18815:18846   */\n      0x46616c6c6f20656e206c6120656a65637563696f6e2065787465726e61000000\n        /* \"#utility.yul\":18795:18813   */\n      0x44\n      dup3\n      add\n        /* \"#utility.yul\":18788:18847   */\n      mstore\n        /* \"#utility.yul\":18864:18882   */\n      0x64\n      add\n        /* \"src/QuadraticVoting.sol\":5488:5537  require(success, \"Fallo en la ejecucion externa\") */\n      tag_121\n        /* \"#utility.yul\":18535:18888   */\n      jump\n        /* \"src/QuadraticVoting.sol\":5488:5537  require(success, \"Fallo en la ejecucion externa\") */\n    tag_316:\n        /* \"src/QuadraticVoting.sol\":5574:5577  _id */\n      dup5\n        /* \"src/QuadraticVoting.sol\":5557:5596  ProposalApproved(_id, p.requiredBudget) */\n      0xc6a4fd4a703d2a2fe3167ce7f6d62bf96458b7e55042cfaa85d5c7ef3ac56eea\n        /* \"src/QuadraticVoting.sol\":5579:5580  p */\n      dup6\n        /* \"src/QuadraticVoting.sol\":5579:5595  p.requiredBudget */\n      0x01\n      add\n      sload\n        /* \"src/QuadraticVoting.sol\":5557:5596  ProposalApproved(_id, p.requiredBudget) */\n      mload(0x40)\n      tag_319\n      swap2\n        /* \"#utility.yul\":1777:1802   */\n      dup2\n      mstore\n        /* \"#utility.yul\":1765:1767   */\n      0x20\n        /* \"#utility.yul\":1750:1768   */\n      add\n      swap1\n        /* \"#utility.yul\":1631:1808   */\n      jump\n        /* \"src/QuadraticVoting.sol\":5557:5596  ProposalApproved(_id, p.requiredBudget) */\n    tag_319:\n      mload(0x40)\n      dup1\n      swap2\n      sub\n      swap1\n      log2\n        /* \"src/QuadraticVoting.sol\":4952:5608  { ... */\n      pop\n        /* \"src/QuadraticVoting.sol\":4887:5608  if (p.totalVotes > threshold && totalBudget >= p.requiredBudget) { ... */\n    tag_300:\n        /* \"src/QuadraticVoting.sol\":4576:5615  {... */\n      pop\n      pop\n      pop\n        /* \"src/QuadraticVoting.sol\":4520:5615  function _checkAndExecuteProposal(uint256 _id) internal {... */\n      pop\n      jump\t// out\n        /* \"@openzeppelin/contracts/utils/introspection/ERC165Checker.sol\":1465:1748  function supportsInterface(address account, bytes4 interfaceId) internal view returns (bool) {... */\n    tag_207:\n        /* \"@openzeppelin/contracts/utils/introspection/ERC165Checker.sol\":1552:1556  bool */\n      0x00\n        /* \"@openzeppelin/contracts/utils/introspection/ERC165Checker.sol\":1660:1683  supportsERC165(account) */\n      tag_321\n        /* \"@openzeppelin/contracts/utils/introspection/ERC165Checker.sol\":1675:1682  account */\n      dup4\n        /* \"@openzeppelin/contracts/utils/introspection/ERC165Checker.sol\":1660:1674  supportsERC165 */\n      tag_322\n        /* \"@openzeppelin/contracts/utils/introspection/ERC165Checker.sol\":1660:1683  supportsERC165(account) */\n      jump\t// in\n    tag_321:\n        /* \"@openzeppelin/contracts/utils/introspection/ERC165Checker.sol\":1660:1741  supportsERC165(account) && supportsERC165InterfaceUnchecked(account, interfaceId) */\n      dup1\n      iszero\n      tag_324\n      jumpi\n      pop\n        /* \"@openzeppelin/contracts/utils/introspection/ERC165Checker.sol\":1687:1741  supportsERC165InterfaceUnchecked(account, interfaceId) */\n      tag_324\n        /* \"@openzeppelin/contracts/utils/introspection/ERC165Checker.sol\":1720:1727  account */\n      dup4\n        /* \"@openzeppelin/contracts/utils/introspection/ERC165Checker.sol\":1729:1740  interfaceId */\n      dup4\n        /* \"@openzeppelin/contracts/utils/introspection/ERC165Checker.sol\":1687:1719  supportsERC165InterfaceUnchecked */\n      tag_325\n        /* \"@openzeppelin/contracts/utils/introspection/ERC165Checker.sol\":1687:1741  supportsERC165InterfaceUnchecked(account, interfaceId) */\n      jump\t// in\n    tag_324:\n        /* \"@openzeppelin/contracts/utils/introspection/ERC165Checker.sol\":1653:1741  return supportsERC165(account) && supportsERC165InterfaceUnchecked(account, interfaceId) */\n      swap1\n      pop\n        /* \"@openzeppelin/contracts/utils/introspection/ERC165Checker.sol\":1465:1748  function supportsInterface(address account, bytes4 interfaceId) internal view returns (bool) {... */\n    tag_320:\n      swap3\n      swap2\n      pop\n      pop\n      jump\t// out\n        /* \"src/QuadraticVoting.sol\":8078:8592  function _returnTokensToVoters(uint256 _propId) internal {... */\n    tag_248:\n        /* \"src/QuadraticVoting.sol\":8146:8170  address[] storage voters */\n      0x00\n        /* \"src/QuadraticVoting.sol\":8173:8196  proposalVoters[_propId] */\n      dup2\n      dup2\n      mstore\n        /* \"src/QuadraticVoting.sol\":8173:8187  proposalVoters */\n      0x0a\n        /* \"src/QuadraticVoting.sol\":8173:8196  proposalVoters[_propId] */\n      0x20\n      mstore\n      0x40\n      dup2\n      keccak256\n      swap1\n        /* \"src/QuadraticVoting.sol\":8207:8585  for (uint256 j = 0; j < voters.length; j++) {... */\n    tag_327:\n        /* \"src/QuadraticVoting.sol\":8231:8244  voters.length */\n      dup2\n      sload\n        /* \"src/QuadraticVoting.sol\":8227:8244  j < voters.length */\n      dup2\n      lt\n        /* \"src/QuadraticVoting.sol\":8207:8585  for (uint256 j = 0; j < voters.length; j++) {... */\n      iszero\n      tag_162\n      jumpi\n        /* \"src/QuadraticVoting.sol\":8266:8279  address voter */\n      0x00\n        /* \"src/QuadraticVoting.sol\":8282:8288  voters */\n      dup3\n        /* \"src/QuadraticVoting.sol\":8289:8290  j */\n      dup3\n        /* \"src/QuadraticVoting.sol\":8282:8291  voters[j] */\n      dup2\n      sload\n      dup2\n      lt\n      tag_331\n      jumpi\n      tag_331\n      tag_332\n      jump\t// in\n    tag_331:\n      0x00\n      swap2\n      dup3\n      mstore\n      0x20\n      dup1\n      dup4\n      keccak256\n      swap1\n      swap2\n      add\n      sload\n        /* \"src/QuadraticVoting.sol\":8322:8350  userVotesInProposal[_propId] */\n      dup7\n      dup4\n      mstore\n        /* \"src/QuadraticVoting.sol\":8322:8341  userVotesInProposal */\n      0x09\n        /* \"src/QuadraticVoting.sol\":8322:8350  userVotesInProposal[_propId] */\n      dup3\n      mstore\n      0x40\n      dup1\n      dup5\n      keccak256\n      sub(shl(0xa0, 0x01), 0x01)\n        /* \"src/QuadraticVoting.sol\":8282:8291  voters[j] */\n      swap1\n      swap3\n      and\n        /* \"src/QuadraticVoting.sol\":8322:8357  userVotesInProposal[_propId][voter] */\n      dup1\n      dup6\n      mstore\n      swap2\n      swap1\n      swap3\n      mstore\n      swap2\n      keccak256\n      sload\n        /* \"src/QuadraticVoting.sol\":8282:8291  voters[j] */\n      swap1\n      swap2\n      pop\n        /* \"src/QuadraticVoting.sol\":8376:8385  votes > 0 */\n      dup1\n      iszero\n        /* \"src/QuadraticVoting.sol\":8372:8574  if (votes > 0) {... */\n      tag_334\n      jumpi\n        /* \"src/QuadraticVoting.sol\":8406:8428  uint256 tokensToReturn */\n      0x00\n        /* \"src/QuadraticVoting.sol\":8431:8444  votes * votes */\n      tag_335\n        /* \"src/QuadraticVoting.sol\":8439:8444  votes */\n      dup3\n      dup1\n        /* \"src/QuadraticVoting.sol\":8431:8444  votes * votes */\n      tag_129\n      jump\t// in\n    tag_335:\n        /* \"src/QuadraticVoting.sol\":8501:8502  0 */\n      0x00\n        /* \"src/QuadraticVoting.sol\":8463:8491  userVotesInProposal[_propId] */\n      dup8\n      dup2\n      mstore\n        /* \"src/QuadraticVoting.sol\":8463:8482  userVotesInProposal */\n      0x09\n        /* \"src/QuadraticVoting.sol\":8463:8491  userVotesInProposal[_propId] */\n      0x20\n      swap1\n      dup2\n      mstore\n      0x40\n      dup1\n      dup4\n      keccak256\n      sub(shl(0xa0, 0x01), 0x01)\n        /* \"src/QuadraticVoting.sol\":8463:8498  userVotesInProposal[_propId][voter] */\n      dup1\n      dup10\n      and\n      dup6\n      mstore\n      swap3\n      mstore\n      dup1\n      dup4\n      keccak256\n        /* \"src/QuadraticVoting.sol\":8463:8502  userVotesInProposal[_propId][voter] = 0 */\n      swap3\n      swap1\n      swap3\n      sstore\n        /* \"src/QuadraticVoting.sol\":8521:8526  token */\n      sload(0x01)\n        /* \"src/QuadraticVoting.sol\":8521:8558  token.transfer(voter, tokensToReturn) */\n      swap2\n      mload\n      shl(0xe0, 0xa9059cbb)\n      dup2\n      mstore\n        /* \"src/QuadraticVoting.sol\":8406:8444  uint256 tokensToReturn = votes * votes */\n      swap3\n      swap4\n      pop\n        /* \"src/QuadraticVoting.sol\":8521:8526  token */\n      and\n      swap1\n        /* \"src/QuadraticVoting.sol\":8521:8535  token.transfer */\n      0xa9059cbb\n      swap1\n        /* \"src/QuadraticVoting.sol\":8521:8558  token.transfer(voter, tokensToReturn) */\n      tag_336\n      swap1\n        /* \"src/QuadraticVoting.sol\":8492:8497  voter */\n      dup7\n      swap1\n        /* \"src/QuadraticVoting.sol\":8406:8444  uint256 tokensToReturn = votes * votes */\n      dup6\n      swap1\n        /* \"src/QuadraticVoting.sol\":8521:8558  token.transfer(voter, tokensToReturn) */\n      0x04\n      add\n      sub(shl(0xa0, 0x01), 0x01)\n        /* \"#utility.yul\":6454:6486   */\n      swap3\n      swap1\n      swap3\n      and\n        /* \"#utility.yul\":6436:6487   */\n      dup3\n      mstore\n        /* \"#utility.yul\":6518:6520   */\n      0x20\n        /* \"#utility.yul\":6503:6521   */\n      dup3\n      add\n        /* \"#utility.yul\":6496:6530   */\n      mstore\n        /* \"#utility.yul\":6424:6426   */\n      0x40\n        /* \"#utility.yul\":6409:6427   */\n      add\n      swap1\n        /* \"#utility.yul\":6262:6536   */\n      jump\n        /* \"src/QuadraticVoting.sol\":8521:8558  token.transfer(voter, tokensToReturn) */\n    tag_336:\n      0x20\n      mload(0x40)\n      dup1\n      dup4\n      sub\n      dup2\n      0x00\n      dup8\n      gas\n      call\n      iszero\n      dup1\n      iszero\n      tag_338\n      jumpi\n      returndatacopy(0x00, 0x00, returndatasize)\n      revert(0x00, returndatasize)\n    tag_338:\n      pop\n      pop\n      pop\n      pop\n      mload(0x40)\n      returndatasize\n      not(0x1f)\n      0x1f\n      dup3\n      add\n      and\n      dup3\n      add\n      dup1\n      0x40\n      mstore\n      pop\n      dup2\n      add\n      swap1\n      tag_339\n      swap2\n      swap1\n      tag_139\n      jump\t// in\n    tag_339:\n      pop\n        /* \"src/QuadraticVoting.sol\":8387:8574  {... */\n      pop\n        /* \"src/QuadraticVoting.sol\":8372:8574  if (votes > 0) {... */\n    tag_334:\n      pop\n      pop\n        /* \"src/QuadraticVoting.sol\":8246:8249  j++ */\n      0x01\n      add\n        /* \"src/QuadraticVoting.sol\":8207:8585  for (uint256 j = 0; j < voters.length; j++) {... */\n      jump(tag_327)\n        /* \"@openzeppelin/contracts/utils/introspection/ERC165Checker.sol\":719:1247  function supportsERC165(address account) internal view returns (bool) {... */\n    tag_322:\n        /* \"@openzeppelin/contracts/utils/introspection/ERC165Checker.sol\":783:787  bool */\n      0x00\n        /* \"@openzeppelin/contracts/utils/introspection/ERC165Checker.sol\":976:1044  supportsERC165InterfaceUnchecked(account, type(IERC165).interfaceId) */\n      tag_341\n        /* \"@openzeppelin/contracts/utils/introspection/ERC165Checker.sol\":1009:1016  account */\n      dup3\n      shl(0xe0, 0x01ffc9a7)\n        /* \"@openzeppelin/contracts/utils/introspection/ERC165Checker.sol\":976:1008  supportsERC165InterfaceUnchecked */\n      tag_325\n        /* \"@openzeppelin/contracts/utils/introspection/ERC165Checker.sol\":976:1044  supportsERC165InterfaceUnchecked(account, type(IERC165).interfaceId) */\n      jump\t// in\n    tag_341:\n        /* \"@openzeppelin/contracts/utils/introspection/ERC165Checker.sol\":972:1241  if (supportsERC165InterfaceUnchecked(account, type(IERC165).interfaceId)) {... */\n      iszero\n      tag_342\n      jumpi\n        /* \"@openzeppelin/contracts/utils/introspection/ERC165Checker.sol\":1061:1073  bool success */\n      0x00\n      dup1\n        /* \"@openzeppelin/contracts/utils/introspection/ERC165Checker.sol\":1093:1145  _trySupportsInterface(account, INTERFACE_ID_INVALID) */\n      tag_343\n        /* \"@openzeppelin/contracts/utils/introspection/ERC165Checker.sol\":1115:1122  account */\n      dup5\n      not(sub(shl(0xe0, 0x01), 0x01))\n        /* \"@openzeppelin/contracts/utils/introspection/ERC165Checker.sol\":1093:1114  _trySupportsInterface */\n      tag_344\n        /* \"@openzeppelin/contracts/utils/introspection/ERC165Checker.sol\":1093:1145  _trySupportsInterface(account, INTERFACE_ID_INVALID) */\n      jump\t// in\n    tag_343:\n        /* \"@openzeppelin/contracts/utils/introspection/ERC165Checker.sol\":1060:1145  (bool success, bool supported) = _trySupportsInterface(account, INTERFACE_ID_INVALID) */\n      swap2\n      pop\n      swap2\n      pop\n        /* \"@openzeppelin/contracts/utils/introspection/ERC165Checker.sol\":1166:1173  success */\n      dup2\n        /* \"@openzeppelin/contracts/utils/introspection/ERC165Checker.sol\":1166:1187  success && !supported */\n      dup1\n      iszero\n      tag_345\n      jumpi\n      pop\n        /* \"@openzeppelin/contracts/utils/introspection/ERC165Checker.sol\":1178:1187  supported */\n      dup1\n        /* \"@openzeppelin/contracts/utils/introspection/ERC165Checker.sol\":1177:1187  !supported */\n      iszero\n        /* \"@openzeppelin/contracts/utils/introspection/ERC165Checker.sol\":1166:1187  success && !supported */\n    tag_345:\n        /* \"@openzeppelin/contracts/utils/introspection/ERC165Checker.sol\":1159:1187  return success && !supported */\n      swap5\n        /* \"@openzeppelin/contracts/utils/introspection/ERC165Checker.sol\":719:1247  function supportsERC165(address account) internal view returns (bool) {... */\n      swap4\n      pop\n      pop\n      pop\n      pop\n      jump\t// out\n        /* \"@openzeppelin/contracts/utils/introspection/ERC165Checker.sol\":972:1241  if (supportsERC165InterfaceUnchecked(account, type(IERC165).interfaceId)) {... */\n    tag_342:\n      pop\n        /* \"@openzeppelin/contracts/utils/introspection/ERC165Checker.sol\":1225:1230  false */\n      0x00\n      swap2\n        /* \"@openzeppelin/contracts/utils/introspection/ERC165Checker.sol\":719:1247  function supportsERC165(address account) internal view returns (bool) {... */\n      swap1\n      pop\n      jump\t// out\n        /* \"@openzeppelin/contracts/utils/introspection/ERC165Checker.sol\":972:1241  if (supportsERC165InterfaceUnchecked(account, type(IERC165).interfaceId)) {... */\n    tag_346:\n        /* \"@openzeppelin/contracts/utils/introspection/ERC165Checker.sol\":719:1247  function supportsERC165(address account) internal view returns (bool) {... */\n      swap2\n      swap1\n      pop\n      jump\t// out\n        /* \"@openzeppelin/contracts/utils/introspection/ERC165Checker.sol\":4504:4742  function supportsERC165InterfaceUnchecked(address account, bytes4 interfaceId) internal view returns (bool) {... */\n    tag_325:\n        /* \"@openzeppelin/contracts/utils/introspection/ERC165Checker.sol\":4606:4610  bool */\n      0x00\n        /* \"@openzeppelin/contracts/utils/introspection/ERC165Checker.sol\":4623:4635  bool success */\n      0x00\n        /* \"@openzeppelin/contracts/utils/introspection/ERC165Checker.sol\":4637:4651  bool supported */\n      0x00\n        /* \"@openzeppelin/contracts/utils/introspection/ERC165Checker.sol\":4655:4698  _trySupportsInterface(account, interfaceId) */\n      tag_348\n        /* \"@openzeppelin/contracts/utils/introspection/ERC165Checker.sol\":4677:4684  account */\n      dup6\n        /* \"@openzeppelin/contracts/utils/introspection/ERC165Checker.sol\":4686:4697  interfaceId */\n      dup6\n        /* \"@openzeppelin/contracts/utils/introspection/ERC165Checker.sol\":4655:4676  _trySupportsInterface */\n      tag_344\n        /* \"@openzeppelin/contracts/utils/introspection/ERC165Checker.sol\":4655:4698  _trySupportsInterface(account, interfaceId) */\n      jump\t// in\n    tag_348:\n        /* \"@openzeppelin/contracts/utils/introspection/ERC165Checker.sol\":4622:4698  (bool success, bool supported) = _trySupportsInterface(account, interfaceId) */\n      swap2\n      pop\n      swap2\n      pop\n        /* \"@openzeppelin/contracts/utils/introspection/ERC165Checker.sol\":4715:4722  success */\n      dup2\n        /* \"@openzeppelin/contracts/utils/introspection/ERC165Checker.sol\":4715:4735  success && supported */\n      dup1\n      iszero\n      tag_349\n      jumpi\n      pop\n        /* \"@openzeppelin/contracts/utils/introspection/ERC165Checker.sol\":4726:4735  supported */\n      dup1\n        /* \"@openzeppelin/contracts/utils/introspection/ERC165Checker.sol\":4715:4735  success && supported */\n    tag_349:\n        /* \"@openzeppelin/contracts/utils/introspection/ERC165Checker.sol\":4708:4735  return success && supported */\n      swap6\n        /* \"@openzeppelin/contracts/utils/introspection/ERC165Checker.sol\":4504:4742  function supportsERC165InterfaceUnchecked(address account, bytes4 interfaceId) internal view returns (bool) {... */\n      swap5\n      pop\n      pop\n      pop\n      pop\n      pop\n      jump\t// out\n        /* \"@openzeppelin/contracts/utils/introspection/ERC165Checker.sol\":5198:5826  function _trySupportsInterface(... */\n    tag_344:\n      shl(0xe0, 0x01ffc9a7)\n        /* \"@openzeppelin/contracts/utils/introspection/ERC165Checker.sol\":5310:5322  bool success */\n      0x00\n        /* \"@openzeppelin/contracts/utils/introspection/ERC165Checker.sol\":5452:5474  mstore(0x00, selector) */\n      dup2\n      dup2\n      mstore\n        /* \"@openzeppelin/contracts/utils/introspection/ERC165Checker.sol\":5494:5498  0x04 */\n      0x04\n        /* \"@openzeppelin/contracts/utils/introspection/ERC165Checker.sol\":5487:5512  mstore(0x04, interfaceId) */\n      dup4\n      swap1\n      mstore\n        /* \"@openzeppelin/contracts/utils/introspection/ERC165Checker.sol\":5310:5322  bool success */\n      swap1\n      dup2\n      swap1\n        /* \"@openzeppelin/contracts/utils/introspection/ERC165Checker.sol\":5581:5585  0x20 */\n      0x20\n        /* \"@openzeppelin/contracts/utils/introspection/ERC165Checker.sol\":5310:5322  bool success */\n      dup3\n        /* \"@openzeppelin/contracts/utils/introspection/ERC165Checker.sol\":5569:5573  0x24 */\n      0x24\n        /* \"@openzeppelin/contracts/utils/introspection/ERC165Checker.sol\":5310:5322  bool success */\n      dup2\n        /* \"@openzeppelin/contracts/utils/introspection/ERC165Checker.sol\":5554:5561  account */\n      dup9\n        /* \"@openzeppelin/contracts/utils/introspection/ERC165Checker.sol\":5547:5552  30000 */\n      0x7530\n        /* \"@openzeppelin/contracts/utils/introspection/ERC165Checker.sol\":5536:5586  staticcall(30000, account, 0x00, 0x24, 0x00, 0x20) */\n      staticcall\n        /* \"@openzeppelin/contracts/utils/introspection/ERC165Checker.sol\":5525:5586  success := staticcall(30000, account, 0x00, 0x24, 0x00, 0x20) */\n      swap3\n      pop\n        /* \"@openzeppelin/contracts/utils/introspection/ERC165Checker.sol\":5740:5744  0x00 */\n      0x00\n        /* \"@openzeppelin/contracts/utils/introspection/ERC165Checker.sol\":5734:5745  mload(0x00) */\n      mload\n        /* \"@openzeppelin/contracts/utils/introspection/ERC165Checker.sol\":5727:5746  iszero(mload(0x00)) */\n      iszero\n        /* \"@openzeppelin/contracts/utils/introspection/ERC165Checker.sol\":5720:5747  iszero(iszero(mload(0x00))) */\n      iszero\n        /* \"@openzeppelin/contracts/utils/introspection/ERC165Checker.sol\":5654:5658  0x1F */\n      0x1f\n        /* \"@openzeppelin/contracts/utils/introspection/ERC165Checker.sol\":5636:5652  returndatasize() */\n      returndatasize\n        /* \"@openzeppelin/contracts/utils/introspection/ERC165Checker.sol\":5633:5659  gt(returndatasize(), 0x1F) */\n      gt\n        /* \"@openzeppelin/contracts/utils/introspection/ERC165Checker.sol\":5612:5810  and(... */\n      and\n        /* \"@openzeppelin/contracts/utils/introspection/ERC165Checker.sol\":5599:5810  supported := and(... */\n      swap2\n      pop\n        /* \"@openzeppelin/contracts/utils/introspection/ERC165Checker.sol\":5438:5820  {... */\n      pop\n        /* \"@openzeppelin/contracts/utils/introspection/ERC165Checker.sol\":5198:5826  function _trySupportsInterface(... */\n      swap3\n      pop\n      swap3\n      swap1\n      pop\n      jump\t// out\n        /* \"#utility.yul\":14:240   */\n    tag_27:\n        /* \"#utility.yul\":73:79   */\n      0x00\n        /* \"#utility.yul\":126:128   */\n      0x20\n        /* \"#utility.yul\":114:123   */\n      dup3\n        /* \"#utility.yul\":105:112   */\n      dup5\n        /* \"#utility.yul\":101:124   */\n      sub\n        /* \"#utility.yul\":97:129   */\n      slt\n        /* \"#utility.yul\":94:146   */\n      iszero\n      tag_362\n      jumpi\n        /* \"#utility.yul\":142:143   */\n      0x00\n        /* \"#utility.yul\":139:140   */\n      0x00\n        /* \"#utility.yul\":132:144   */\n      revert\n        /* \"#utility.yul\":94:146   */\n    tag_362:\n      pop\n        /* \"#utility.yul\":187:210   */\n      calldataload\n      swap2\n        /* \"#utility.yul\":14:240   */\n      swap1\n      pop\n      jump\t// out\n        /* \"#utility.yul\":245:534   */\n    tag_351:\n        /* \"#utility.yul\":287:290   */\n      0x00\n        /* \"#utility.yul\":325:330   */\n      dup2\n        /* \"#utility.yul\":319:331   */\n      mload\n        /* \"#utility.yul\":352:358   */\n      dup1\n        /* \"#utility.yul\":347:350   */\n      dup5\n        /* \"#utility.yul\":340:359   */\n      mstore\n        /* \"#utility.yul\":408:414   */\n      dup1\n        /* \"#utility.yul\":401:405   */\n      0x20\n        /* \"#utility.yul\":394:399   */\n      dup5\n        /* \"#utility.yul\":390:406   */\n      add\n        /* \"#utility.yul\":383:387   */\n      0x20\n        /* \"#utility.yul\":378:381   */\n      dup7\n        /* \"#utility.yul\":374:388   */\n      add\n        /* \"#utility.yul\":368:415   */\n      mcopy\n        /* \"#utility.yul\":460:461   */\n      0x00\n        /* \"#utility.yul\":453:457   */\n      0x20\n        /* \"#utility.yul\":444:450   */\n      dup3\n        /* \"#utility.yul\":439:442   */\n      dup7\n        /* \"#utility.yul\":435:451   */\n      add\n        /* \"#utility.yul\":431:458   */\n      add\n        /* \"#utility.yul\":424:462   */\n      mstore\n        /* \"#utility.yul\":523:527   */\n      0x20\n        /* \"#utility.yul\":516:518   */\n      0x1f\n        /* \"#utility.yul\":512:519   */\n      not\n        /* \"#utility.yul\":507:509   */\n      0x1f\n        /* \"#utility.yul\":499:505   */\n      dup4\n        /* \"#utility.yul\":495:510   */\n      add\n        /* \"#utility.yul\":491:520   */\n      and\n        /* \"#utility.yul\":486:489   */\n      dup6\n        /* \"#utility.yul\":482:521   */\n      add\n        /* \"#utility.yul\":478:528   */\n      add\n        /* \"#utility.yul\":471:528   */\n      swap2\n      pop\n      pop\n        /* \"#utility.yul\":245:534   */\n      swap3\n      swap2\n      pop\n      pop\n      jump\t// out\n        /* \"#utility.yul\":539:666   */\n    tag_117:\n        /* \"#utility.yul\":600:610   */\n      0x4e487b71\n        /* \"#utility.yul\":595:598   */\n      0xe0\n        /* \"#utility.yul\":591:611   */\n      shl\n        /* \"#utility.yul\":588:589   */\n      0x00\n        /* \"#utility.yul\":581:612   */\n      mstore\n        /* \"#utility.yul\":631:635   */\n      0x21\n        /* \"#utility.yul\":628:629   */\n      0x04\n        /* \"#utility.yul\":621:636   */\n      mstore\n        /* \"#utility.yul\":655:659   */\n      0x24\n        /* \"#utility.yul\":652:653   */\n      0x00\n        /* \"#utility.yul\":645:660   */\n      revert\n        /* \"#utility.yul\":671:1626   */\n    tag_30:\n        /* \"#utility.yul\":1027:1030   */\n      0x0100\n        /* \"#utility.yul\":1016:1025   */\n      dup2\n        /* \"#utility.yul\":1009:1031   */\n      mstore\n        /* \"#utility.yul\":990:994   */\n      0x00\n        /* \"#utility.yul\":1048:1094   */\n      tag_366\n        /* \"#utility.yul\":1089:1092   */\n      0x0100\n        /* \"#utility.yul\":1078:1087   */\n      dup4\n        /* \"#utility.yul\":1074:1093   */\n      add\n        /* \"#utility.yul\":1066:1072   */\n      dup12\n        /* \"#utility.yul\":1048:1094   */\n      tag_351\n      jump\t// in\n    tag_366:\n        /* \"#utility.yul\":1125:1127   */\n      0x20\n        /* \"#utility.yul\":1110:1128   */\n      dup4\n      add\n        /* \"#utility.yul\":1103:1137   */\n      dup11\n      swap1\n      mstore\n      sub(shl(0xa0, 0x01), 0x01)\n        /* \"#utility.yul\":1173:1205   */\n      dup10\n      and\n        /* \"#utility.yul\":1168:1170   */\n      0x40\n        /* \"#utility.yul\":1153:1171   */\n      dup5\n      add\n        /* \"#utility.yul\":1146:1206   */\n      mstore\n        /* \"#utility.yul\":1040:1094   */\n      swap1\n      pop\n        /* \"#utility.yul\":1236:1237   */\n      0x03\n        /* \"#utility.yul\":1225:1238   */\n      dup8\n      lt\n        /* \"#utility.yul\":1215:1359   */\n      tag_367\n      jumpi\n        /* \"#utility.yul\":1281:1291   */\n      0x4e487b71\n        /* \"#utility.yul\":1276:1279   */\n      0xe0\n        /* \"#utility.yul\":1272:1292   */\n      shl\n        /* \"#utility.yul\":1269:1270   */\n      0x00\n        /* \"#utility.yul\":1262:1293   */\n      mstore\n        /* \"#utility.yul\":1316:1320   */\n      0x21\n        /* \"#utility.yul\":1313:1314   */\n      0x04\n        /* \"#utility.yul\":1306:1321   */\n      mstore\n        /* \"#utility.yul\":1344:1348   */\n      0x24\n        /* \"#utility.yul\":1341:1342   */\n      0x00\n        /* \"#utility.yul\":1334:1349   */\n      revert\n        /* \"#utility.yul\":1215:1359   */\n    tag_367:\n        /* \"#utility.yul\":1390:1392   */\n      0x60\n        /* \"#utility.yul\":1375:1393   */\n      dup3\n      add\n        /* \"#utility.yul\":1368:1402   */\n      swap7\n      swap1\n      swap7\n      mstore\n        /* \"#utility.yul\":1433:1436   */\n      0x80\n        /* \"#utility.yul\":1418:1437   */\n      dup2\n      add\n        /* \"#utility.yul\":1411:1446   */\n      swap5\n      swap1\n      swap5\n      mstore\n        /* \"#utility.yul\":1477:1480   */\n      0xa0\n        /* \"#utility.yul\":1462:1481   */\n      dup5\n      add\n        /* \"#utility.yul\":1455:1490   */\n      swap3\n      swap1\n      swap3\n      mstore\n      sub(shl(0xa0, 0x01), 0x01)\n        /* \"#utility.yul\":1527:1559   */\n      and\n        /* \"#utility.yul\":1521:1524   */\n      0xc0\n        /* \"#utility.yul\":1506:1525   */\n      dup4\n      add\n        /* \"#utility.yul\":1499:1560   */\n      mstore\n        /* \"#utility.yul\":1604:1618   */\n      iszero\n        /* \"#utility.yul\":1597:1619   */\n      iszero\n        /* \"#utility.yul\":1591:1594   */\n      0xe0\n        /* \"#utility.yul\":1576:1595   */\n      swap1\n      swap2\n      add\n        /* \"#utility.yul\":1569:1620   */\n      mstore\n        /* \"#utility.yul\":671:1626   */\n      swap4\n      swap3\n      pop\n      pop\n      pop\n      jump\t// out\n        /* \"#utility.yul\":1813:1986   */\n    tag_352:\n        /* \"#utility.yul\":1881:1901   */\n      dup1\n      calldataload\n      sub(shl(0xa0, 0x01), 0x01)\n        /* \"#utility.yul\":1930:1961   */\n      dup2\n      and\n        /* \"#utility.yul\":1920:1962   */\n      dup2\n      eq\n        /* \"#utility.yul\":1910:1980   */\n      tag_346\n      jumpi\n        /* \"#utility.yul\":1976:1977   */\n      0x00\n        /* \"#utility.yul\":1973:1974   */\n      0x00\n        /* \"#utility.yul\":1966:1978   */\n      revert\n        /* \"#utility.yul\":1991:2291   */\n    tag_39:\n        /* \"#utility.yul\":2059:2065   */\n      0x00\n        /* \"#utility.yul\":2067:2073   */\n      0x00\n        /* \"#utility.yul\":2120:2122   */\n      0x40\n        /* \"#utility.yul\":2108:2117   */\n      dup4\n        /* \"#utility.yul\":2099:2106   */\n      dup6\n        /* \"#utility.yul\":2095:2118   */\n      sub\n        /* \"#utility.yul\":2091:2123   */\n      slt\n        /* \"#utility.yul\":2088:2140   */\n      iszero\n      tag_372\n      jumpi\n        /* \"#utility.yul\":2136:2137   */\n      0x00\n        /* \"#utility.yul\":2133:2134   */\n      0x00\n        /* \"#utility.yul\":2126:2138   */\n      revert\n        /* \"#utility.yul\":2088:2140   */\n    tag_372:\n        /* \"#utility.yul\":2181:2204   */\n      dup3\n      calldataload\n      swap2\n      pop\n        /* \"#utility.yul\":2247:2285   */\n      tag_373\n        /* \"#utility.yul\":2281:2283   */\n      0x20\n        /* \"#utility.yul\":2266:2284   */\n      dup5\n      add\n        /* \"#utility.yul\":2247:2285   */\n      tag_352\n      jump\t// in\n    tag_373:\n        /* \"#utility.yul\":2237:2285   */\n      swap1\n      pop\n        /* \"#utility.yul\":1991:2291   */\n      swap3\n      pop\n      swap3\n      swap1\n      pop\n      jump\t// out\n        /* \"#utility.yul\":2504:2850   */\n    tag_54:\n        /* \"#utility.yul\":2572:2578   */\n      0x00\n        /* \"#utility.yul\":2580:2586   */\n      0x00\n        /* \"#utility.yul\":2633:2635   */\n      0x40\n        /* \"#utility.yul\":2621:2630   */\n      dup4\n        /* \"#utility.yul\":2612:2619   */\n      dup6\n        /* \"#utility.yul\":2608:2631   */\n      sub\n        /* \"#utility.yul\":2604:2636   */\n      slt\n        /* \"#utility.yul\":2601:2653   */\n      iszero\n      tag_376\n      jumpi\n        /* \"#utility.yul\":2649:2650   */\n      0x00\n        /* \"#utility.yul\":2646:2647   */\n      0x00\n        /* \"#utility.yul\":2639:2651   */\n      revert\n        /* \"#utility.yul\":2601:2653   */\n    tag_376:\n      pop\n      pop\n        /* \"#utility.yul\":2694:2717   */\n      dup1\n      calldataload\n      swap3\n        /* \"#utility.yul\":2814:2816   */\n      0x20\n        /* \"#utility.yul\":2799:2817   */\n      swap1\n      swap2\n      add\n        /* \"#utility.yul\":2786:2818   */\n      calldataload\n      swap2\n      pop\n        /* \"#utility.yul\":2504:2850   */\n      jump\t// out\n        /* \"#utility.yul\":2855:2982   */\n    tag_353:\n        /* \"#utility.yul\":2916:2926   */\n      0x4e487b71\n        /* \"#utility.yul\":2911:2914   */\n      0xe0\n        /* \"#utility.yul\":2907:2927   */\n      shl\n        /* \"#utility.yul\":2904:2905   */\n      0x00\n        /* \"#utility.yul\":2897:2928   */\n      mstore\n        /* \"#utility.yul\":2947:2951   */\n      0x41\n        /* \"#utility.yul\":2944:2945   */\n      0x04\n        /* \"#utility.yul\":2937:2952   */\n      mstore\n        /* \"#utility.yul\":2971:2975   */\n      0x24\n        /* \"#utility.yul\":2968:2969   */\n      0x00\n        /* \"#utility.yul\":2961:2976   */\n      revert\n        /* \"#utility.yul\":2987:4130   */\n    tag_67:\n        /* \"#utility.yul\":3074:3080   */\n      0x00\n        /* \"#utility.yul\":3082:3088   */\n      0x00\n        /* \"#utility.yul\":3090:3096   */\n      0x00\n        /* \"#utility.yul\":3143:3145   */\n      0x60\n        /* \"#utility.yul\":3131:3140   */\n      dup5\n        /* \"#utility.yul\":3122:3129   */\n      dup7\n        /* \"#utility.yul\":3118:3141   */\n      sub\n        /* \"#utility.yul\":3114:3146   */\n      slt\n        /* \"#utility.yul\":3111:3163   */\n      iszero\n      tag_379\n      jumpi\n        /* \"#utility.yul\":3159:3160   */\n      0x00\n        /* \"#utility.yul\":3156:3157   */\n      0x00\n        /* \"#utility.yul\":3149:3161   */\n      revert\n        /* \"#utility.yul\":3111:3163   */\n    tag_379:\n        /* \"#utility.yul\":3199:3208   */\n      dup4\n        /* \"#utility.yul\":3186:3209   */\n      calldataload\n        /* \"#utility.yul\":3232:3250   */\n      0xffffffffffffffff\n        /* \"#utility.yul\":3224:3230   */\n      dup2\n        /* \"#utility.yul\":3221:3251   */\n      gt\n        /* \"#utility.yul\":3218:3268   */\n      iszero\n      tag_380\n      jumpi\n        /* \"#utility.yul\":3264:3265   */\n      0x00\n        /* \"#utility.yul\":3261:3262   */\n      0x00\n        /* \"#utility.yul\":3254:3266   */\n      revert\n        /* \"#utility.yul\":3218:3268   */\n    tag_380:\n        /* \"#utility.yul\":3287:3309   */\n      dup5\n      add\n        /* \"#utility.yul\":3340:3344   */\n      0x1f\n        /* \"#utility.yul\":3332:3345   */\n      dup2\n      add\n        /* \"#utility.yul\":3328:3355   */\n      dup7\n      sgt\n        /* \"#utility.yul\":3318:3373   */\n      tag_381\n      jumpi\n        /* \"#utility.yul\":3369:3370   */\n      0x00\n        /* \"#utility.yul\":3366:3367   */\n      0x00\n        /* \"#utility.yul\":3359:3371   */\n      revert\n        /* \"#utility.yul\":3318:3373   */\n    tag_381:\n        /* \"#utility.yul\":3409:3411   */\n      dup1\n        /* \"#utility.yul\":3396:3412   */\n      calldataload\n        /* \"#utility.yul\":3435:3453   */\n      0xffffffffffffffff\n        /* \"#utility.yul\":3427:3433   */\n      dup2\n        /* \"#utility.yul\":3424:3454   */\n      gt\n        /* \"#utility.yul\":3421:3477   */\n      iszero\n      tag_383\n      jumpi\n        /* \"#utility.yul\":3457:3475   */\n      tag_383\n      tag_353\n      jump\t// in\n    tag_383:\n        /* \"#utility.yul\":3506:3508   */\n      0x40\n        /* \"#utility.yul\":3500:3509   */\n      mload\n        /* \"#utility.yul\":3598:3600   */\n      0x1f\n        /* \"#utility.yul\":3560:3577   */\n      dup3\n      add\n      not(0x1f)\n        /* \"#utility.yul\":3556:3587   */\n      swap1\n      dup2\n      and\n        /* \"#utility.yul\":3589:3591   */\n      0x3f\n        /* \"#utility.yul\":3552:3592   */\n      add\n        /* \"#utility.yul\":3548:3602   */\n      and\n        /* \"#utility.yul\":3536:3603   */\n      dup2\n      add\n        /* \"#utility.yul\":3633:3651   */\n      0xffffffffffffffff\n        /* \"#utility.yul\":3618:3652   */\n      dup2\n      gt\n        /* \"#utility.yul\":3654:3676   */\n      dup3\n      dup3\n      lt\n        /* \"#utility.yul\":3615:3677   */\n      or\n        /* \"#utility.yul\":3612:3700   */\n      iszero\n      tag_385\n      jumpi\n        /* \"#utility.yul\":3680:3698   */\n      tag_385\n      tag_353\n      jump\t// in\n    tag_385:\n        /* \"#utility.yul\":3716:3718   */\n      0x40\n        /* \"#utility.yul\":3709:3731   */\n      mstore\n        /* \"#utility.yul\":3740:3762   */\n      dup2\n      dup2\n      mstore\n        /* \"#utility.yul\":3781:3796   */\n      dup3\n      dup3\n      add\n        /* \"#utility.yul\":3798:3802   */\n      0x20\n        /* \"#utility.yul\":3777:3803   */\n      add\n        /* \"#utility.yul\":3774:3813   */\n      dup9\n      lt\n        /* \"#utility.yul\":3771:3830   */\n      iszero\n      tag_386\n      jumpi\n        /* \"#utility.yul\":3826:3827   */\n      0x00\n        /* \"#utility.yul\":3823:3824   */\n      0x00\n        /* \"#utility.yul\":3816:3828   */\n      revert\n        /* \"#utility.yul\":3771:3830   */\n    tag_386:\n        /* \"#utility.yul\":3886:3892   */\n      dup2\n        /* \"#utility.yul\":3879:3883   */\n      0x20\n        /* \"#utility.yul\":3875:3877   */\n      dup5\n        /* \"#utility.yul\":3871:3884   */\n      add\n        /* \"#utility.yul\":3864:3868   */\n      0x20\n        /* \"#utility.yul\":3856:3862   */\n      dup4\n        /* \"#utility.yul\":3852:3869   */\n      add\n        /* \"#utility.yul\":3839:3893   */\n      calldatacopy\n        /* \"#utility.yul\":3941:3942   */\n      0x00\n        /* \"#utility.yul\":3934:3938   */\n      0x20\n        /* \"#utility.yul\":3913:3932   */\n      swap3\n      dup3\n      add\n        /* \"#utility.yul\":3909:3939   */\n      dup4\n      add\n        /* \"#utility.yul\":3902:3943   */\n      mstore\n        /* \"#utility.yul\":3913:3932   */\n      swap5\n      pop\n        /* \"#utility.yul\":4022:4042   */\n      dup6\n      add\n        /* \"#utility.yul\":4009:4043   */\n      calldataload\n      swap3\n      pop\n        /* \"#utility.yul\":4086:4124   */\n      tag_387\n      swap1\n      pop\n        /* \"#utility.yul\":4120:4122   */\n      0x40\n        /* \"#utility.yul\":4105:4123   */\n      dup6\n      add\n        /* \"#utility.yul\":4086:4124   */\n      tag_352\n      jump\t// in\n    tag_387:\n        /* \"#utility.yul\":4076:4124   */\n      swap1\n      pop\n        /* \"#utility.yul\":2987:4130   */\n      swap3\n      pop\n      swap3\n      pop\n      swap3\n      jump\t// out\n        /* \"#utility.yul\":4135:4321   */\n    tag_77:\n        /* \"#utility.yul\":4194:4200   */\n      0x00\n        /* \"#utility.yul\":4247:4249   */\n      0x20\n        /* \"#utility.yul\":4235:4244   */\n      dup3\n        /* \"#utility.yul\":4226:4233   */\n      dup5\n        /* \"#utility.yul\":4222:4245   */\n      sub\n        /* \"#utility.yul\":4218:4250   */\n      slt\n        /* \"#utility.yul\":4215:4267   */\n      iszero\n      tag_389\n      jumpi\n        /* \"#utility.yul\":4263:4264   */\n      0x00\n        /* \"#utility.yul\":4260:4261   */\n      0x00\n        /* \"#utility.yul\":4253:4265   */\n      revert\n        /* \"#utility.yul\":4215:4267   */\n    tag_389:\n        /* \"#utility.yul\":4286:4315   */\n      tag_324\n        /* \"#utility.yul\":4305:4314   */\n      dup3\n        /* \"#utility.yul\":4286:4315   */\n      tag_352\n      jump\t// in\n        /* \"#utility.yul\":4750:5130   */\n    tag_108:\n        /* \"#utility.yul\":4829:4830   */\n      0x01\n        /* \"#utility.yul\":4825:4837   */\n      dup2\n      dup2\n      shr\n      swap1\n        /* \"#utility.yul\":4872:4884   */\n      dup3\n      and\n      dup1\n        /* \"#utility.yul\":4893:4954   */\n      tag_394\n      jumpi\n        /* \"#utility.yul\":4947:4951   */\n      0x7f\n        /* \"#utility.yul\":4939:4945   */\n      dup3\n        /* \"#utility.yul\":4935:4952   */\n      and\n        /* \"#utility.yul\":4925:4952   */\n      swap2\n      pop\n        /* \"#utility.yul\":4893:4954   */\n    tag_394:\n        /* \"#utility.yul\":5000:5002   */\n      0x20\n        /* \"#utility.yul\":4992:4998   */\n      dup3\n        /* \"#utility.yul\":4989:5003   */\n      lt\n        /* \"#utility.yul\":4969:4987   */\n      dup2\n        /* \"#utility.yul\":4966:5004   */\n      sub\n        /* \"#utility.yul\":4963:5124   */\n      tag_395\n      jumpi\n        /* \"#utility.yul\":5046:5056   */\n      0x4e487b71\n        /* \"#utility.yul\":5041:5044   */\n      0xe0\n        /* \"#utility.yul\":5037:5057   */\n      shl\n        /* \"#utility.yul\":5034:5035   */\n      0x00\n        /* \"#utility.yul\":5027:5058   */\n      mstore\n        /* \"#utility.yul\":5081:5085   */\n      0x22\n        /* \"#utility.yul\":5078:5079   */\n      0x04\n        /* \"#utility.yul\":5071:5086   */\n      mstore\n        /* \"#utility.yul\":5109:5113   */\n      0x24\n        /* \"#utility.yul\":5106:5107   */\n      0x00\n        /* \"#utility.yul\":5099:5114   */\n      revert\n        /* \"#utility.yul\":4963:5124   */\n    tag_395:\n      pop\n        /* \"#utility.yul\":4750:5130   */\n      swap2\n      swap1\n      pop\n      jump\t// out\n        /* \"#utility.yul\":5824:5951   */\n    tag_354:\n        /* \"#utility.yul\":5885:5895   */\n      0x4e487b71\n        /* \"#utility.yul\":5880:5883   */\n      0xe0\n        /* \"#utility.yul\":5876:5896   */\n      shl\n        /* \"#utility.yul\":5873:5874   */\n      0x00\n        /* \"#utility.yul\":5866:5897   */\n      mstore\n        /* \"#utility.yul\":5916:5920   */\n      0x11\n        /* \"#utility.yul\":5913:5914   */\n      0x04\n        /* \"#utility.yul\":5906:5921   */\n      mstore\n        /* \"#utility.yul\":5940:5944   */\n      0x24\n        /* \"#utility.yul\":5937:5938   */\n      0x00\n        /* \"#utility.yul\":5930:5945   */\n      revert\n        /* \"#utility.yul\":5956:6084   */\n    tag_127:\n        /* \"#utility.yul\":6023:6032   */\n      dup2\n      dup2\n      sub\n        /* \"#utility.yul\":6044:6055   */\n      dup2\n      dup2\n      gt\n        /* \"#utility.yul\":6041:6078   */\n      iszero\n      tag_320\n      jumpi\n        /* \"#utility.yul\":6058:6076   */\n      tag_320\n      tag_354\n      jump\t// in\n        /* \"#utility.yul\":6089:6257   */\n    tag_129:\n        /* \"#utility.yul\":6162:6171   */\n      dup1\n      dup3\n      mul\n        /* \"#utility.yul\":6193:6202   */\n      dup2\n      iszero\n        /* \"#utility.yul\":6210:6225   */\n      dup3\n      dup3\n      div\n        /* \"#utility.yul\":6204:6226   */\n      dup5\n      eq\n        /* \"#utility.yul\":6190:6227   */\n      or\n        /* \"#utility.yul\":6180:6251   */\n      tag_320\n      jumpi\n        /* \"#utility.yul\":6231:6249   */\n      tag_320\n      tag_354\n      jump\t// in\n        /* \"#utility.yul\":6541:6818   */\n    tag_139:\n        /* \"#utility.yul\":6608:6614   */\n      0x00\n        /* \"#utility.yul\":6661:6663   */\n      0x20\n        /* \"#utility.yul\":6649:6658   */\n      dup3\n        /* \"#utility.yul\":6640:6647   */\n      dup5\n        /* \"#utility.yul\":6636:6659   */\n      sub\n        /* \"#utility.yul\":6632:6664   */\n      slt\n        /* \"#utility.yul\":6629:6681   */\n      iszero\n      tag_407\n      jumpi\n        /* \"#utility.yul\":6677:6678   */\n      0x00\n        /* \"#utility.yul\":6674:6675   */\n      0x00\n        /* \"#utility.yul\":6667:6679   */\n      revert\n        /* \"#utility.yul\":6629:6681   */\n    tag_407:\n        /* \"#utility.yul\":6709:6718   */\n      dup2\n        /* \"#utility.yul\":6703:6719   */\n      mload\n        /* \"#utility.yul\":6762:6767   */\n      dup1\n        /* \"#utility.yul\":6755:6768   */\n      iszero\n        /* \"#utility.yul\":6748:6769   */\n      iszero\n        /* \"#utility.yul\":6741:6746   */\n      dup2\n        /* \"#utility.yul\":6738:6770   */\n      eq\n        /* \"#utility.yul\":6728:6788   */\n      tag_408\n      jumpi\n        /* \"#utility.yul\":6784:6785   */\n      0x00\n        /* \"#utility.yul\":6781:6782   */\n      0x00\n        /* \"#utility.yul\":6774:6786   */\n      revert\n        /* \"#utility.yul\":6728:6788   */\n    tag_408:\n        /* \"#utility.yul\":6807:6812   */\n      swap4\n        /* \"#utility.yul\":6541:6818   */\n      swap3\n      pop\n      pop\n      pop\n      jump\t// out\n        /* \"#utility.yul\":7166:7350   */\n    tag_148:\n        /* \"#utility.yul\":7236:7242   */\n      0x00\n        /* \"#utility.yul\":7289:7291   */\n      0x20\n        /* \"#utility.yul\":7277:7286   */\n      dup3\n        /* \"#utility.yul\":7268:7275   */\n      dup5\n        /* \"#utility.yul\":7264:7287   */\n      sub\n        /* \"#utility.yul\":7260:7292   */\n      slt\n        /* \"#utility.yul\":7257:7309   */\n      iszero\n      tag_411\n      jumpi\n        /* \"#utility.yul\":7305:7306   */\n      0x00\n        /* \"#utility.yul\":7302:7303   */\n      0x00\n        /* \"#utility.yul\":7295:7307   */\n      revert\n        /* \"#utility.yul\":7257:7309   */\n    tag_411:\n      pop\n        /* \"#utility.yul\":7328:7344   */\n      mload\n      swap2\n        /* \"#utility.yul\":7166:7350   */\n      swap1\n      pop\n      jump\t// out\n        /* \"#utility.yul\":8954:9079   */\n    tag_177:\n        /* \"#utility.yul\":9019:9028   */\n      dup1\n      dup3\n      add\n        /* \"#utility.yul\":9040:9050   */\n      dup1\n      dup3\n      gt\n        /* \"#utility.yul\":9037:9073   */\n      iszero\n      tag_320\n      jumpi\n        /* \"#utility.yul\":9053:9071   */\n      tag_320\n      tag_354\n      jump\t// in\n        /* \"#utility.yul\":9084:9459   */\n    tag_355:\n        /* \"#utility.yul\":9172:9173   */\n      0x01\n        /* \"#utility.yul\":9190:9195   */\n      dup2\n        /* \"#utility.yul\":9204:9453   */\n    tag_421:\n        /* \"#utility.yul\":9225:9226   */\n      0x01\n        /* \"#utility.yul\":9215:9223   */\n      dup5\n        /* \"#utility.yul\":9212:9227   */\n      gt\n        /* \"#utility.yul\":9204:9453   */\n      iszero\n      tag_423\n      jumpi\n        /* \"#utility.yul\":9275:9279   */\n      dup1\n        /* \"#utility.yul\":9270:9273   */\n      dup6\n        /* \"#utility.yul\":9266:9280   */\n      div\n        /* \"#utility.yul\":9260:9264   */\n      dup2\n        /* \"#utility.yul\":9257:9281   */\n      gt\n        /* \"#utility.yul\":9254:9304   */\n      iszero\n      tag_425\n      jumpi\n        /* \"#utility.yul\":9284:9302   */\n      tag_425\n      tag_354\n      jump\t// in\n    tag_425:\n        /* \"#utility.yul\":9334:9335   */\n      0x01\n        /* \"#utility.yul\":9324:9332   */\n      dup5\n        /* \"#utility.yul\":9320:9336   */\n      and\n        /* \"#utility.yul\":9317:9366   */\n      iszero\n      tag_426\n      jumpi\n        /* \"#utility.yul\":9348:9364   */\n      swap1\n      dup2\n      mul\n      swap1\n        /* \"#utility.yul\":9317:9366   */\n    tag_426:\n        /* \"#utility.yul\":9431:9432   */\n      0x01\n        /* \"#utility.yul\":9427:9443   */\n      swap4\n      swap1\n      swap4\n      shr\n      swap3\n        /* \"#utility.yul\":9387:9402   */\n      dup1\n      mul\n        /* \"#utility.yul\":9204:9453   */\n      jump(tag_421)\n    tag_423:\n        /* \"#utility.yul\":9084:9459   */\n      swap4\n      pop\n      swap4\n      swap2\n      pop\n      pop\n      jump\t// out\n        /* \"#utility.yul\":9464:10366   */\n    tag_356:\n        /* \"#utility.yul\":9513:9518   */\n      0x00\n        /* \"#utility.yul\":9543:9551   */\n      dup3\n        /* \"#utility.yul\":9533:9613   */\n      tag_428\n      jumpi\n      pop\n        /* \"#utility.yul\":9584:9585   */\n      0x01\n        /* \"#utility.yul\":9598:9603   */\n      jump(tag_320)\n        /* \"#utility.yul\":9533:9613   */\n    tag_428:\n        /* \"#utility.yul\":9632:9636   */\n      dup2\n        /* \"#utility.yul\":9622:9698   */\n      tag_429\n      jumpi\n      pop\n        /* \"#utility.yul\":9669:9670   */\n      0x00\n        /* \"#utility.yul\":9683:9688   */\n      jump(tag_320)\n        /* \"#utility.yul\":9622:9698   */\n    tag_429:\n        /* \"#utility.yul\":9714:9718   */\n      dup2\n        /* \"#utility.yul\":9732:9733   */\n      0x01\n        /* \"#utility.yul\":9727:9786   */\n      dup2\n      eq\n      tag_431\n      jumpi\n        /* \"#utility.yul\":9800:9801   */\n      0x02\n        /* \"#utility.yul\":9795:9969   */\n      dup2\n      eq\n      tag_432\n      jumpi\n        /* \"#utility.yul\":9707:9969   */\n      jump(tag_430)\n        /* \"#utility.yul\":9727:9786   */\n    tag_431:\n        /* \"#utility.yul\":9757:9758   */\n      0x01\n        /* \"#utility.yul\":9748:9758   */\n      swap2\n      pop\n        /* \"#utility.yul\":9771:9776   */\n      pop\n      jump(tag_320)\n        /* \"#utility.yul\":9795:9969   */\n    tag_432:\n        /* \"#utility.yul\":9832:9835   */\n      0xff\n        /* \"#utility.yul\":9822:9830   */\n      dup5\n        /* \"#utility.yul\":9819:9836   */\n      gt\n        /* \"#utility.yul\":9816:9859   */\n      iszero\n      tag_434\n      jumpi\n        /* \"#utility.yul\":9839:9857   */\n      tag_434\n      tag_354\n      jump\t// in\n    tag_434:\n      pop\n      pop\n        /* \"#utility.yul\":9895:9896   */\n      0x01\n        /* \"#utility.yul\":9881:9897   */\n      dup3\n      shl\n        /* \"#utility.yul\":9954:9959   */\n      jump(tag_320)\n        /* \"#utility.yul\":9707:9969   */\n    tag_430:\n      pop\n        /* \"#utility.yul\":10053:10055   */\n      0x20\n        /* \"#utility.yul\":10043:10051   */\n      dup4\n        /* \"#utility.yul\":10040:10056   */\n      lt\n        /* \"#utility.yul\":10034:10037   */\n      0x0133\n        /* \"#utility.yul\":10028:10032   */\n      dup4\n        /* \"#utility.yul\":10025:10038   */\n      lt\n        /* \"#utility.yul\":10021:10057   */\n      and\n        /* \"#utility.yul\":10015:10017   */\n      0x4e\n        /* \"#utility.yul\":10005:10013   */\n      dup5\n        /* \"#utility.yul\":10002:10018   */\n      lt\n        /* \"#utility.yul\":9997:9999   */\n      0x0b\n        /* \"#utility.yul\":9991:9995   */\n      dup5\n        /* \"#utility.yul\":9988:10000   */\n      lt\n        /* \"#utility.yul\":9984:10019   */\n      and\n        /* \"#utility.yul\":9981:10058   */\n      or\n        /* \"#utility.yul\":9978:10181   */\n      iszero\n      tag_435\n      jumpi\n      pop\n        /* \"#utility.yul\":10090:10109   */\n      dup2\n      dup2\n      exp\n        /* \"#utility.yul\":10166:10171   */\n      jump(tag_320)\n        /* \"#utility.yul\":9978:10181   */\n    tag_435:\n        /* \"#utility.yul\":10213:10255   */\n      tag_436\n      not(0x00)\n        /* \"#utility.yul\":10238:10246   */\n      dup5\n        /* \"#utility.yul\":10232:10236   */\n      dup5\n        /* \"#utility.yul\":10213:10255   */\n      tag_355\n      jump\t// in\n    tag_436:\n        /* \"#utility.yul\":10291:10297   */\n      dup1\n        /* \"#utility.yul\":10287:10288   */\n      0x00\n        /* \"#utility.yul\":10283:10289   */\n      not\n        /* \"#utility.yul\":10279:10298   */\n      div\n        /* \"#utility.yul\":10270:10277   */\n      dup3\n        /* \"#utility.yul\":10267:10299   */\n      gt\n        /* \"#utility.yul\":10264:10322   */\n      iszero\n      tag_438\n      jumpi\n        /* \"#utility.yul\":10302:10320   */\n      tag_438\n      tag_354\n      jump\t// in\n    tag_438:\n        /* \"#utility.yul\":10340:10360   */\n      mul\n      swap4\n        /* \"#utility.yul\":9464:10366   */\n      swap3\n      pop\n      pop\n      pop\n      jump\t// out\n        /* \"#utility.yul\":10371:10511   */\n    tag_179:\n        /* \"#utility.yul\":10429:10434   */\n      0x00\n        /* \"#utility.yul\":10458:10505   */\n      tag_324\n        /* \"#utility.yul\":10499:10503   */\n      0xff\n        /* \"#utility.yul\":10489:10497   */\n      dup5\n        /* \"#utility.yul\":10485:10504   */\n      and\n        /* \"#utility.yul\":10479:10483   */\n      dup4\n        /* \"#utility.yul\":10458:10505   */\n      tag_356\n      jump\t// in\n        /* \"#utility.yul\":12549:12684   */\n    tag_212:\n        /* \"#utility.yul\":12588:12591   */\n      0x00\n        /* \"#utility.yul\":12609:12626   */\n      0x01\n      dup3\n      add\n        /* \"#utility.yul\":12606:12649   */\n      tag_449\n      jumpi\n        /* \"#utility.yul\":12629:12647   */\n      tag_449\n      tag_354\n      jump\t// in\n    tag_449:\n      pop\n        /* \"#utility.yul\":12676:12677   */\n      0x01\n        /* \"#utility.yul\":12665:12678   */\n      add\n      swap1\n        /* \"#utility.yul\":12549:12684   */\n      jump\t// out\n        /* \"#utility.yul\":12815:13333   */\n    tag_358:\n        /* \"#utility.yul\":12917:12919   */\n      0x1f\n        /* \"#utility.yul\":12912:12915   */\n      dup3\n        /* \"#utility.yul\":12909:12920   */\n      gt\n        /* \"#utility.yul\":12906:13327   */\n      iszero\n      tag_162\n      jumpi\n        /* \"#utility.yul\":12953:12958   */\n      dup1\n        /* \"#utility.yul\":12950:12951   */\n      0x00\n        /* \"#utility.yul\":12943:12959   */\n      mstore\n        /* \"#utility.yul\":12997:13001   */\n      0x20\n        /* \"#utility.yul\":12994:12995   */\n      0x00\n        /* \"#utility.yul\":12984:13002   */\n      keccak256\n        /* \"#utility.yul\":13067:13069   */\n      0x1f\n        /* \"#utility.yul\":13055:13065   */\n      dup5\n        /* \"#utility.yul\":13051:13070   */\n      add\n        /* \"#utility.yul\":13048:13049   */\n      0x05\n        /* \"#utility.yul\":13044:13071   */\n      shr\n        /* \"#utility.yul\":13038:13042   */\n      dup2\n        /* \"#utility.yul\":13034:13072   */\n      add\n        /* \"#utility.yul\":13103:13107   */\n      0x20\n        /* \"#utility.yul\":13091:13101   */\n      dup6\n        /* \"#utility.yul\":13088:13108   */\n      lt\n        /* \"#utility.yul\":13085:13132   */\n      iszero\n      tag_453\n      jumpi\n      pop\n        /* \"#utility.yul\":13126:13130   */\n      dup1\n        /* \"#utility.yul\":13085:13132   */\n    tag_453:\n        /* \"#utility.yul\":13181:13183   */\n      0x1f\n        /* \"#utility.yul\":13176:13179   */\n      dup5\n        /* \"#utility.yul\":13172:13184   */\n      add\n        /* \"#utility.yul\":13169:13170   */\n      0x05\n        /* \"#utility.yul\":13165:13185   */\n      shr\n        /* \"#utility.yul\":13159:13163   */\n      dup3\n        /* \"#utility.yul\":13155:13186   */\n      add\n        /* \"#utility.yul\":13145:13186   */\n      swap2\n      pop\n        /* \"#utility.yul\":13236:13317   */\n    tag_454:\n        /* \"#utility.yul\":13254:13256   */\n      dup2\n        /* \"#utility.yul\":13247:13252   */\n      dup2\n        /* \"#utility.yul\":13244:13257   */\n      lt\n        /* \"#utility.yul\":13236:13317   */\n      iszero\n      tag_277\n      jumpi\n        /* \"#utility.yul\":13313:13314   */\n      0x00\n        /* \"#utility.yul\":13299:13315   */\n      dup2\n      sstore\n        /* \"#utility.yul\":13280:13281   */\n      0x01\n        /* \"#utility.yul\":13269:13282   */\n      add\n        /* \"#utility.yul\":13236:13317   */\n      jump(tag_454)\n        /* \"#utility.yul\":13509:14808   */\n    tag_216:\n        /* \"#utility.yul\":13635:13638   */\n      dup2\n        /* \"#utility.yul\":13629:13639   */\n      mload\n        /* \"#utility.yul\":13662:13680   */\n      0xffffffffffffffff\n        /* \"#utility.yul\":13654:13660   */\n      dup2\n        /* \"#utility.yul\":13651:13681   */\n      gt\n        /* \"#utility.yul\":13648:13704   */\n      iszero\n      tag_460\n      jumpi\n        /* \"#utility.yul\":13684:13702   */\n      tag_460\n      tag_353\n      jump\t// in\n    tag_460:\n        /* \"#utility.yul\":13713:13810   */\n      tag_461\n        /* \"#utility.yul\":13803:13809   */\n      dup2\n        /* \"#utility.yul\":13763:13801   */\n      tag_462\n        /* \"#utility.yul\":13795:13799   */\n      dup5\n        /* \"#utility.yul\":13789:13800   */\n      sload\n        /* \"#utility.yul\":13763:13801   */\n      tag_108\n      jump\t// in\n    tag_462:\n        /* \"#utility.yul\":13757:13761   */\n      dup5\n        /* \"#utility.yul\":13713:13810   */\n      tag_358\n      jump\t// in\n    tag_461:\n        /* \"#utility.yul\":13859:13863   */\n      0x20\n        /* \"#utility.yul\":13890:13892   */\n      0x1f\n        /* \"#utility.yul\":13879:13893   */\n      dup3\n      gt\n        /* \"#utility.yul\":13907:13908   */\n      0x01\n        /* \"#utility.yul\":13902:14551   */\n      dup2\n      eq\n      tag_464\n      jumpi\n        /* \"#utility.yul\":14595:14596   */\n      0x00\n        /* \"#utility.yul\":14612:14618   */\n      dup4\n        /* \"#utility.yul\":14609:14698   */\n      iszero\n      tag_465\n      jumpi\n      pop\n        /* \"#utility.yul\":14664:14683   */\n      dup5\n      dup3\n      add\n        /* \"#utility.yul\":14658:14684   */\n      mload\n        /* \"#utility.yul\":14609:14698   */\n    tag_465:\n      not(0x00)\n        /* \"#utility.yul\":13466:13467   */\n      0x03\n        /* \"#utility.yul\":13462:13473   */\n      dup6\n      swap1\n      shl\n        /* \"#utility.yul\":13458:13482   */\n      shr\n        /* \"#utility.yul\":13454:13483   */\n      not\n        /* \"#utility.yul\":13444:13484   */\n      and\n        /* \"#utility.yul\":13490:13491   */\n      0x01\n        /* \"#utility.yul\":13486:13497   */\n      dup5\n      swap1\n      shl\n        /* \"#utility.yul\":13441:13498   */\n      or\n        /* \"#utility.yul\":14711:14792   */\n      dup5\n      sstore\n        /* \"#utility.yul\":13872:14802   */\n      jump(tag_277)\n        /* \"#utility.yul\":13902:14551   */\n    tag_464:\n        /* \"#utility.yul\":12762:12763   */\n      0x00\n        /* \"#utility.yul\":12755:12769   */\n      dup5\n      dup2\n      mstore\n        /* \"#utility.yul\":12799:12803   */\n      0x20\n        /* \"#utility.yul\":12786:12804   */\n      dup2\n      keccak256\n      not(0x1f)\n        /* \"#utility.yul\":13938:13958   */\n      dup6\n      and\n      swap2\n        /* \"#utility.yul\":14056:14278   */\n    tag_468:\n        /* \"#utility.yul\":14070:14077   */\n      dup3\n        /* \"#utility.yul\":14067:14068   */\n      dup2\n        /* \"#utility.yul\":14064:14078   */\n      lt\n        /* \"#utility.yul\":14056:14278   */\n      iszero\n      tag_470\n      jumpi\n        /* \"#utility.yul\":14152:14171   */\n      dup8\n      dup6\n      add\n        /* \"#utility.yul\":14146:14172   */\n      mload\n        /* \"#utility.yul\":14131:14173   */\n      dup3\n      sstore\n        /* \"#utility.yul\":14259:14263   */\n      0x20\n        /* \"#utility.yul\":14244:14264   */\n      swap5\n      dup6\n      add\n      swap5\n        /* \"#utility.yul\":14212:14213   */\n      0x01\n        /* \"#utility.yul\":14200:14214   */\n      swap1\n      swap3\n      add\n      swap2\n        /* \"#utility.yul\":14086:14098   */\n      add\n        /* \"#utility.yul\":14056:14278   */\n      jump(tag_468)\n    tag_470:\n        /* \"#utility.yul\":14060:14063   */\n      pop\n        /* \"#utility.yul\":14306:14312   */\n      dup5\n        /* \"#utility.yul\":14297:14304   */\n      dup3\n        /* \"#utility.yul\":14294:14313   */\n      lt\n        /* \"#utility.yul\":14291:14492   */\n      iszero\n      tag_471\n      jumpi\n        /* \"#utility.yul\":14367:14386   */\n      dup7\n      dup5\n      add\n        /* \"#utility.yul\":14361:14387   */\n      mload\n      not(0x00)\n        /* \"#utility.yul\":14450:14451   */\n      0x03\n        /* \"#utility.yul\":14446:14460   */\n      dup8\n      swap1\n      shl\n        /* \"#utility.yul\":14462:14465   */\n      0xf8\n        /* \"#utility.yul\":14442:14466   */\n      and\n        /* \"#utility.yul\":14438:14475   */\n      shr\n        /* \"#utility.yul\":14434:14476   */\n      not\n        /* \"#utility.yul\":14419:14477   */\n      and\n        /* \"#utility.yul\":14404:14478   */\n      dup2\n      sstore\n        /* \"#utility.yul\":14291:14492   */\n    tag_471:\n      pop\n      pop\n      pop\n      pop\n        /* \"#utility.yul\":14538:14539   */\n      0x01\n        /* \"#utility.yul\":14522:14536   */\n      swap1\n      dup2\n      shl\n        /* \"#utility.yul\":14518:14540   */\n      add\n        /* \"#utility.yul\":14505:14541   */\n      swap1\n      sstore\n      pop\n        /* \"#utility.yul\":13509:14808   */\n      jump\t// out\n        /* \"#utility.yul\":14813:15104   */\n    tag_222:\n        /* \"#utility.yul\":14990:14992   */\n      0x40\n        /* \"#utility.yul\":14979:14988   */\n      dup2\n        /* \"#utility.yul\":14972:14993   */\n      mstore\n        /* \"#utility.yul\":14953:14957   */\n      0x00\n        /* \"#utility.yul\":15010:15055   */\n      tag_473\n        /* \"#utility.yul\":15051:15053   */\n      0x40\n        /* \"#utility.yul\":15040:15049   */\n      dup4\n        /* \"#utility.yul\":15036:15054   */\n      add\n        /* \"#utility.yul\":15028:15034   */\n      dup6\n        /* \"#utility.yul\":15010:15055   */\n      tag_351\n      jump\t// in\n    tag_473:\n        /* \"#utility.yul\":15002:15055   */\n      swap1\n      pop\n        /* \"#utility.yul\":15091:15097   */\n      dup3\n        /* \"#utility.yul\":15086:15088   */\n      0x20\n        /* \"#utility.yul\":15075:15084   */\n      dup4\n        /* \"#utility.yul\":15071:15089   */\n      add\n        /* \"#utility.yul\":15064:15098   */\n      mstore\n        /* \"#utility.yul\":14813:15104   */\n      swap4\n      swap3\n      pop\n      pop\n      pop\n      jump\t// out\n        /* \"#utility.yul\":16467:16768   */\n    tag_243:\n        /* \"#utility.yul\":16596:16599   */\n      0x00\n        /* \"#utility.yul\":16634:16640   */\n      dup3\n        /* \"#utility.yul\":16628:16641   */\n      mload\n        /* \"#utility.yul\":16680:16686   */\n      dup1\n        /* \"#utility.yul\":16673:16677   */\n      0x20\n        /* \"#utility.yul\":16665:16671   */\n      dup6\n        /* \"#utility.yul\":16661:16678   */\n      add\n        /* \"#utility.yul\":16656:16659   */\n      dup5\n        /* \"#utility.yul\":16650:16687   */\n      mcopy\n        /* \"#utility.yul\":16742:16743   */\n      0x00\n        /* \"#utility.yul\":16706:16722   */\n      swap3\n      add\n        /* \"#utility.yul\":16731:16744   */\n      swap2\n      dup3\n      mstore\n      pop\n        /* \"#utility.yul\":16706:16722   */\n      swap2\n        /* \"#utility.yul\":16467:16768   */\n      swap1\n      pop\n      jump\t// out\n        /* \"#utility.yul\":16773:16909   */\n    tag_258:\n        /* \"#utility.yul\":16812:16815   */\n      0x00\n        /* \"#utility.yul\":16840:16845   */\n      dup2\n        /* \"#utility.yul\":16830:16869   */\n      tag_481\n      jumpi\n        /* \"#utility.yul\":16849:16867   */\n      tag_481\n      tag_354\n      jump\t// in\n    tag_481:\n      pop\n      not(0x00)\n        /* \"#utility.yul\":16885:16903   */\n      add\n      swap1\n        /* \"#utility.yul\":16773:16909   */\n      jump\t// out\n        /* \"#utility.yul\":17607:17824   */\n    tag_273:\n        /* \"#utility.yul\":17647:17648   */\n      0x00\n        /* \"#utility.yul\":17673:17674   */\n      dup3\n        /* \"#utility.yul\":17663:17795   */\n      tag_485\n      jumpi\n        /* \"#utility.yul\":17717:17727   */\n      0x4e487b71\n        /* \"#utility.yul\":17712:17715   */\n      0xe0\n        /* \"#utility.yul\":17708:17728   */\n      shl\n        /* \"#utility.yul\":17705:17706   */\n      0x00\n        /* \"#utility.yul\":17698:17729   */\n      mstore\n        /* \"#utility.yul\":17752:17756   */\n      0x12\n        /* \"#utility.yul\":17749:17750   */\n      0x04\n        /* \"#utility.yul\":17742:17757   */\n      mstore\n        /* \"#utility.yul\":17780:17784   */\n      0x24\n        /* \"#utility.yul\":17777:17778   */\n      0x00\n        /* \"#utility.yul\":17770:17785   */\n      revert\n        /* \"#utility.yul\":17663:17795   */\n    tag_485:\n      pop\n        /* \"#utility.yul\":17809:17818   */\n      div\n      swap1\n        /* \"#utility.yul\":17607:17824   */\n      jump\t// out\n        /* \"#utility.yul\":18893:19020   */\n    tag_332:\n        /* \"#utility.yul\":18954:18964   */\n      0x4e487b71\n        /* \"#utility.yul\":18949:18952   */\n      0xe0\n        /* \"#utility.yul\":18945:18965   */\n      shl\n        /* \"#utility.yul\":18942:18943   */\n      0x00\n        /* \"#utility.yul\":18935:18966   */\n      mstore\n        /* \"#utility.yul\":18985:18989   */\n      0x32\n        /* \"#utility.yul\":18982:18983   */\n      0x04\n        /* \"#utility.yul\":18975:18990   */\n      mstore\n        /* \"#utility.yul\":19009:19013   */\n      0x24\n        /* \"#utility.yul\":19006:19007   */\n      0x00\n        /* \"#utility.yul\":18999:19014   */\n      revert\n\n    auxdata: 0xa2646970667358221220457ffa22f73b6925947cbaab6173e871bd18da6ad9bfd672e8973f55a47755c564736f6c634300081f0033\n}\n\nsub_1: assembly {\n        /* \"src/GovernanceToken.sol\":119:926  contract GovernanceToken is ERC20 {... */\n      mstore(0x40, 0x80)\n        /* \"src/GovernanceToken.sol\":420:582  constructor(string memory name, string memory symbol) ERC20(name, symbol) {... */\n      callvalue\n      dup1\n      iszero\n      tag_1\n      jumpi\n      revert(0x00, 0x00)\n    tag_1:\n      pop\n      mload(0x40)\n      sub(codesize, bytecodeSize)\n      dup1\n      bytecodeSize\n      dup4\n      codecopy\n      dup2\n      add\n      0x40\n      dup2\n      swap1\n      mstore\n      tag_2\n      swap2\n      tag_3\n      jump\t// in\n    tag_2:\n        /* \"src/GovernanceToken.sol\":480:484  name */\n      dup2\n        /* \"src/GovernanceToken.sol\":486:492  symbol */\n      dup2\n        /* \"@openzeppelin/contracts/token/ERC20/ERC20.sol\":1648:1653  _name */\n      0x03\n        /* \"@openzeppelin/contracts/token/ERC20/ERC20.sol\":1648:1661  _name = name_ */\n      tag_7\n        /* \"src/GovernanceToken.sol\":480:484  name */\n      dup4\n        /* \"@openzeppelin/contracts/token/ERC20/ERC20.sol\":1648:1653  _name */\n      dup3\n        /* \"@openzeppelin/contracts/token/ERC20/ERC20.sol\":1648:1661  _name = name_ */\n      tag_8\n      jump\t// in\n    tag_7:\n      pop\n        /* \"@openzeppelin/contracts/token/ERC20/ERC20.sol\":1671:1678  _symbol */\n      0x04\n        /* \"@openzeppelin/contracts/token/ERC20/ERC20.sol\":1671:1688  _symbol = symbol_ */\n      tag_9\n        /* \"@openzeppelin/contracts/token/ERC20/ERC20.sol\":1681:1688  symbol_ */\n      dup3\n        /* \"@openzeppelin/contracts/token/ERC20/ERC20.sol\":1671:1678  _symbol */\n      dup3\n        /* \"@openzeppelin/contracts/token/ERC20/ERC20.sol\":1671:1688  _symbol = symbol_ */\n      tag_8\n      jump\t// in\n    tag_9:\n      pop\n      pop\n        /* \"src/GovernanceToken.sol\":505:519  votingContract */\n      0x05\n        /* \"src/GovernanceToken.sol\":505:532  votingContract = msg.sender */\n      dup1\n      sload\n      not(sub(shl(0xa0, 0x01), 0x01))\n      and\n        /* \"src/GovernanceToken.sol\":522:532  msg.sender */\n      caller\n        /* \"src/GovernanceToken.sol\":505:532  votingContract = msg.sender */\n      or\n      swap1\n      sstore\n      pop\n        /* \"src/GovernanceToken.sol\":119:926  contract GovernanceToken is ERC20 {... */\n      tag_18\n      swap2\n      pop\n      pop\n      jump\n        /* \"#utility.yul\":14:141   */\n    tag_12:\n        /* \"#utility.yul\":75:85   */\n      0x4e487b71\n        /* \"#utility.yul\":70:73   */\n      0xe0\n        /* \"#utility.yul\":66:86   */\n      shl\n        /* \"#utility.yul\":63:64   */\n      0x00\n        /* \"#utility.yul\":56:87   */\n      mstore\n        /* \"#utility.yul\":106:110   */\n      0x41\n        /* \"#utility.yul\":103:104   */\n      0x04\n        /* \"#utility.yul\":96:111   */\n      mstore\n        /* \"#utility.yul\":130:134   */\n      0x24\n        /* \"#utility.yul\":127:128   */\n      0x00\n        /* \"#utility.yul\":120:135   */\n      revert\n        /* \"#utility.yul\":146:869   */\n    tag_13:\n        /* \"#utility.yul\":200:205   */\n      0x00\n        /* \"#utility.yul\":253:256   */\n      dup3\n        /* \"#utility.yul\":246:250   */\n      0x1f\n        /* \"#utility.yul\":238:244   */\n      dup4\n        /* \"#utility.yul\":234:251   */\n      add\n        /* \"#utility.yul\":230:257   */\n      slt\n        /* \"#utility.yul\":220:275   */\n      tag_21\n      jumpi\n        /* \"#utility.yul\":271:272   */\n      0x00\n        /* \"#utility.yul\":268:269   */\n      0x00\n        /* \"#utility.yul\":261:273   */\n      revert\n        /* \"#utility.yul\":220:275   */\n    tag_21:\n        /* \"#utility.yul\":298:311   */\n      dup2\n      mload\n      sub(shl(0x40, 0x01), 0x01)\n        /* \"#utility.yul\":323:353   */\n      dup2\n      gt\n        /* \"#utility.yul\":320:376   */\n      iszero\n      tag_23\n      jumpi\n        /* \"#utility.yul\":356:374   */\n      tag_23\n      tag_12\n      jump\t// in\n    tag_23:\n        /* \"#utility.yul\":405:407   */\n      0x40\n        /* \"#utility.yul\":399:408   */\n      mload\n        /* \"#utility.yul\":497:499   */\n      0x1f\n        /* \"#utility.yul\":459:476   */\n      dup3\n      add\n      not(0x1f)\n        /* \"#utility.yul\":455:486   */\n      swap1\n      dup2\n      and\n        /* \"#utility.yul\":488:490   */\n      0x3f\n        /* \"#utility.yul\":451:491   */\n      add\n        /* \"#utility.yul\":447:501   */\n      and\n        /* \"#utility.yul\":435:502   */\n      dup2\n      add\n      sub(shl(0x40, 0x01), 0x01)\n        /* \"#utility.yul\":517:551   */\n      dup2\n      gt\n        /* \"#utility.yul\":553:575   */\n      dup3\n      dup3\n      lt\n        /* \"#utility.yul\":514:576   */\n      or\n        /* \"#utility.yul\":511:599   */\n      iszero\n      tag_25\n      jumpi\n        /* \"#utility.yul\":579:597   */\n      tag_25\n      tag_12\n      jump\t// in\n    tag_25:\n        /* \"#utility.yul\":615:617   */\n      0x40\n        /* \"#utility.yul\":608:630   */\n      mstore\n        /* \"#utility.yul\":639:661   */\n      dup2\n      dup2\n      mstore\n        /* \"#utility.yul\":680:699   */\n      dup4\n      dup3\n      add\n        /* \"#utility.yul\":701:705   */\n      0x20\n        /* \"#utility.yul\":676:706   */\n      add\n        /* \"#utility.yul\":673:712   */\n      dup6\n      lt\n        /* \"#utility.yul\":670:729   */\n      iszero\n      tag_26\n      jumpi\n        /* \"#utility.yul\":725:726   */\n      0x00\n        /* \"#utility.yul\":722:723   */\n      0x00\n        /* \"#utility.yul\":715:727   */\n      revert\n        /* \"#utility.yul\":670:729   */\n    tag_26:\n        /* \"#utility.yul\":782:788   */\n      dup2\n        /* \"#utility.yul\":775:779   */\n      0x20\n        /* \"#utility.yul\":767:773   */\n      dup6\n        /* \"#utility.yul\":763:780   */\n      add\n        /* \"#utility.yul\":756:760   */\n      0x20\n        /* \"#utility.yul\":748:754   */\n      dup4\n        /* \"#utility.yul\":744:761   */\n      add\n        /* \"#utility.yul\":738:789   */\n      mcopy\n        /* \"#utility.yul\":837:838   */\n      0x00\n        /* \"#utility.yul\":809:828   */\n      swap2\n      dup2\n      add\n        /* \"#utility.yul\":830:834   */\n      0x20\n        /* \"#utility.yul\":805:835   */\n      add\n        /* \"#utility.yul\":798:839   */\n      swap2\n      swap1\n      swap2\n      mstore\n        /* \"#utility.yul\":813:819   */\n      swap4\n        /* \"#utility.yul\":146:869   */\n      swap3\n      pop\n      pop\n      pop\n      jump\t// out\n        /* \"#utility.yul\":874:1431   */\n    tag_3:\n        /* \"#utility.yul\":973:979   */\n      0x00\n        /* \"#utility.yul\":981:987   */\n      0x00\n        /* \"#utility.yul\":1034:1036   */\n      0x40\n        /* \"#utility.yul\":1022:1031   */\n      dup4\n        /* \"#utility.yul\":1013:1020   */\n      dup6\n        /* \"#utility.yul\":1009:1032   */\n      sub\n        /* \"#utility.yul\":1005:1037   */\n      slt\n        /* \"#utility.yul\":1002:1054   */\n      iszero\n      tag_28\n      jumpi\n        /* \"#utility.yul\":1050:1051   */\n      0x00\n        /* \"#utility.yul\":1047:1048   */\n      0x00\n        /* \"#utility.yul\":1040:1052   */\n      revert\n        /* \"#utility.yul\":1002:1054   */\n    tag_28:\n        /* \"#utility.yul\":1077:1093   */\n      dup3\n      mload\n      sub(shl(0x40, 0x01), 0x01)\n        /* \"#utility.yul\":1105:1135   */\n      dup2\n      gt\n        /* \"#utility.yul\":1102:1152   */\n      iszero\n      tag_29\n      jumpi\n        /* \"#utility.yul\":1148:1149   */\n      0x00\n        /* \"#utility.yul\":1145:1146   */\n      0x00\n        /* \"#utility.yul\":1138:1150   */\n      revert\n        /* \"#utility.yul\":1102:1152   */\n    tag_29:\n        /* \"#utility.yul\":1171:1232   */\n      tag_30\n        /* \"#utility.yul\":1224:1231   */\n      dup6\n        /* \"#utility.yul\":1215:1221   */\n      dup3\n        /* \"#utility.yul\":1204:1213   */\n      dup7\n        /* \"#utility.yul\":1200:1222   */\n      add\n        /* \"#utility.yul\":1171:1232   */\n      tag_13\n      jump\t// in\n    tag_30:\n        /* \"#utility.yul\":1278:1280   */\n      0x20\n        /* \"#utility.yul\":1263:1281   */\n      dup6\n      add\n        /* \"#utility.yul\":1257:1282   */\n      mload\n        /* \"#utility.yul\":1161:1232   */\n      swap1\n      swap4\n      pop\n        /* \"#utility.yul\":1257:1282   */\n      swap1\n      pop\n      sub(shl(0x40, 0x01), 0x01)\n        /* \"#utility.yul\":1294:1326   */\n      dup2\n      gt\n        /* \"#utility.yul\":1291:1343   */\n      iszero\n      tag_31\n      jumpi\n        /* \"#utility.yul\":1339:1340   */\n      0x00\n        /* \"#utility.yul\":1336:1337   */\n      0x00\n        /* \"#utility.yul\":1329:1341   */\n      revert\n        /* \"#utility.yul\":1291:1343   */\n    tag_31:\n        /* \"#utility.yul\":1362:1425   */\n      tag_32\n        /* \"#utility.yul\":1417:1424   */\n      dup6\n        /* \"#utility.yul\":1406:1414   */\n      dup3\n        /* \"#utility.yul\":1395:1404   */\n      dup7\n        /* \"#utility.yul\":1391:1415   */\n      add\n        /* \"#utility.yul\":1362:1425   */\n      tag_13\n      jump\t// in\n    tag_32:\n        /* \"#utility.yul\":1352:1425   */\n      swap2\n      pop\n      pop\n        /* \"#utility.yul\":874:1431   */\n      swap3\n      pop\n      swap3\n      swap1\n      pop\n      jump\t// out\n        /* \"#utility.yul\":1436:1816   */\n    tag_14:\n        /* \"#utility.yul\":1515:1516   */\n      0x01\n        /* \"#utility.yul\":1511:1523   */\n      dup2\n      dup2\n      shr\n      swap1\n        /* \"#utility.yul\":1558:1570   */\n      dup3\n      and\n      dup1\n        /* \"#utility.yul\":1579:1640   */\n      tag_34\n      jumpi\n        /* \"#utility.yul\":1633:1637   */\n      0x7f\n        /* \"#utility.yul\":1625:1631   */\n      dup3\n        /* \"#utility.yul\":1621:1638   */\n      and\n        /* \"#utility.yul\":1611:1638   */\n      swap2\n      pop\n        /* \"#utility.yul\":1579:1640   */\n    tag_34:\n        /* \"#utility.yul\":1686:1688   */\n      0x20\n        /* \"#utility.yul\":1678:1684   */\n      dup3\n        /* \"#utility.yul\":1675:1689   */\n      lt\n        /* \"#utility.yul\":1655:1673   */\n      dup2\n        /* \"#utility.yul\":1652:1690   */\n      sub\n        /* \"#utility.yul\":1649:1810   */\n      tag_35\n      jumpi\n        /* \"#utility.yul\":1732:1742   */\n      0x4e487b71\n        /* \"#utility.yul\":1727:1730   */\n      0xe0\n        /* \"#utility.yul\":1723:1743   */\n      shl\n        /* \"#utility.yul\":1720:1721   */\n      0x00\n        /* \"#utility.yul\":1713:1744   */\n      mstore\n        /* \"#utility.yul\":1767:1771   */\n      0x22\n        /* \"#utility.yul\":1764:1765   */\n      0x04\n        /* \"#utility.yul\":1757:1772   */\n      mstore\n        /* \"#utility.yul\":1795:1799   */\n      0x24\n        /* \"#utility.yul\":1792:1793   */\n      0x00\n        /* \"#utility.yul\":1785:1800   */\n      revert\n        /* \"#utility.yul\":1649:1810   */\n    tag_35:\n      pop\n        /* \"#utility.yul\":1436:1816   */\n      swap2\n      swap1\n      pop\n      jump\t// out\n        /* \"#utility.yul\":1947:2465   */\n    tag_16:\n        /* \"#utility.yul\":2049:2051   */\n      0x1f\n        /* \"#utility.yul\":2044:2047   */\n      dup3\n        /* \"#utility.yul\":2041:2052   */\n      gt\n        /* \"#utility.yul\":2038:2459   */\n      iszero\n      tag_38\n      jumpi\n        /* \"#utility.yul\":2085:2090   */\n      dup1\n        /* \"#utility.yul\":2082:2083   */\n      0x00\n        /* \"#utility.yul\":2075:2091   */\n      mstore\n        /* \"#utility.yul\":2129:2133   */\n      0x20\n        /* \"#utility.yul\":2126:2127   */\n      0x00\n        /* \"#utility.yul\":2116:2134   */\n      keccak256\n        /* \"#utility.yul\":2199:2201   */\n      0x1f\n        /* \"#utility.yul\":2187:2197   */\n      dup5\n        /* \"#utility.yul\":2183:2202   */\n      add\n        /* \"#utility.yul\":2180:2181   */\n      0x05\n        /* \"#utility.yul\":2176:2203   */\n      shr\n        /* \"#utility.yul\":2170:2174   */\n      dup2\n        /* \"#utility.yul\":2166:2204   */\n      add\n        /* \"#utility.yul\":2235:2239   */\n      0x20\n        /* \"#utility.yul\":2223:2233   */\n      dup6\n        /* \"#utility.yul\":2220:2240   */\n      lt\n        /* \"#utility.yul\":2217:2264   */\n      iszero\n      tag_39\n      jumpi\n      pop\n        /* \"#utility.yul\":2258:2262   */\n      dup1\n        /* \"#utility.yul\":2217:2264   */\n    tag_39:\n        /* \"#utility.yul\":2313:2315   */\n      0x1f\n        /* \"#utility.yul\":2308:2311   */\n      dup5\n        /* \"#utility.yul\":2304:2316   */\n      add\n        /* \"#utility.yul\":2301:2302   */\n      0x05\n        /* \"#utility.yul\":2297:2317   */\n      shr\n        /* \"#utility.yul\":2291:2295   */\n      dup3\n        /* \"#utility.yul\":2287:2318   */\n      add\n        /* \"#utility.yul\":2277:2318   */\n      swap2\n      pop\n        /* \"#utility.yul\":2368:2449   */\n    tag_40:\n        /* \"#utility.yul\":2386:2388   */\n      dup2\n        /* \"#utility.yul\":2379:2384   */\n      dup2\n        /* \"#utility.yul\":2376:2389   */\n      lt\n        /* \"#utility.yul\":2368:2449   */\n      iszero\n      tag_42\n      jumpi\n        /* \"#utility.yul\":2445:2446   */\n      0x00\n        /* \"#utility.yul\":2431:2447   */\n      dup2\n      sstore\n        /* \"#utility.yul\":2412:2413   */\n      0x01\n        /* \"#utility.yul\":2401:2414   */\n      add\n        /* \"#utility.yul\":2368:2449   */\n      jump(tag_40)\n    tag_42:\n        /* \"#utility.yul\":2372:2375   */\n      pop\n      pop\n        /* \"#utility.yul\":2038:2459   */\n    tag_38:\n        /* \"#utility.yul\":1947:2465   */\n      pop\n      pop\n      pop\n      jump\t// out\n        /* \"#utility.yul\":2641:3940   */\n    tag_8:\n        /* \"#utility.yul\":2761:2771   */\n      dup2\n      mload\n      sub(shl(0x40, 0x01), 0x01)\n        /* \"#utility.yul\":2783:2813   */\n      dup2\n      gt\n        /* \"#utility.yul\":2780:2836   */\n      iszero\n      tag_46\n      jumpi\n        /* \"#utility.yul\":2816:2834   */\n      tag_46\n      tag_12\n      jump\t// in\n    tag_46:\n        /* \"#utility.yul\":2845:2942   */\n      tag_47\n        /* \"#utility.yul\":2935:2941   */\n      dup2\n        /* \"#utility.yul\":2895:2933   */\n      tag_48\n        /* \"#utility.yul\":2927:2931   */\n      dup5\n        /* \"#utility.yul\":2921:2932   */\n      sload\n        /* \"#utility.yul\":2895:2933   */\n      tag_14\n      jump\t// in\n    tag_48:\n        /* \"#utility.yul\":2889:2893   */\n      dup5\n        /* \"#utility.yul\":2845:2942   */\n      tag_16\n      jump\t// in\n    tag_47:\n        /* \"#utility.yul\":2991:2995   */\n      0x20\n        /* \"#utility.yul\":3022:3024   */\n      0x1f\n        /* \"#utility.yul\":3011:3025   */\n      dup3\n      gt\n        /* \"#utility.yul\":3039:3040   */\n      0x01\n        /* \"#utility.yul\":3034:3683   */\n      dup2\n      eq\n      tag_50\n      jumpi\n        /* \"#utility.yul\":3727:3728   */\n      0x00\n        /* \"#utility.yul\":3744:3750   */\n      dup4\n        /* \"#utility.yul\":3741:3830   */\n      iszero\n      tag_51\n      jumpi\n      pop\n        /* \"#utility.yul\":3796:3815   */\n      dup5\n      dup3\n      add\n        /* \"#utility.yul\":3790:3816   */\n      mload\n        /* \"#utility.yul\":3741:3830   */\n    tag_51:\n      not(0x00)\n        /* \"#utility.yul\":2598:2599   */\n      0x03\n        /* \"#utility.yul\":2594:2605   */\n      dup6\n      swap1\n      shl\n        /* \"#utility.yul\":2590:2614   */\n      shr\n        /* \"#utility.yul\":2586:2615   */\n      not\n        /* \"#utility.yul\":2576:2616   */\n      and\n        /* \"#utility.yul\":2622:2623   */\n      0x01\n        /* \"#utility.yul\":2618:2629   */\n      dup5\n      swap1\n      shl\n        /* \"#utility.yul\":2573:2630   */\n      or\n        /* \"#utility.yul\":3843:3924   */\n      dup5\n      sstore\n        /* \"#utility.yul\":3004:3934   */\n      jump(tag_42)\n        /* \"#utility.yul\":3034:3683   */\n    tag_50:\n        /* \"#utility.yul\":1894:1895   */\n      0x00\n        /* \"#utility.yul\":1887:1901   */\n      dup5\n      dup2\n      mstore\n        /* \"#utility.yul\":1931:1935   */\n      0x20\n        /* \"#utility.yul\":1918:1936   */\n      dup2\n      keccak256\n      not(0x1f)\n        /* \"#utility.yul\":3070:3090   */\n      dup6\n      and\n      swap2\n        /* \"#utility.yul\":3188:3410   */\n    tag_54:\n        /* \"#utility.yul\":3202:3209   */\n      dup3\n        /* \"#utility.yul\":3199:3200   */\n      dup2\n        /* \"#utility.yul\":3196:3210   */\n      lt\n        /* \"#utility.yul\":3188:3410   */\n      iszero\n      tag_56\n      jumpi\n        /* \"#utility.yul\":3284:3303   */\n      dup8\n      dup6\n      add\n        /* \"#utility.yul\":3278:3304   */\n      mload\n        /* \"#utility.yul\":3263:3305   */\n      dup3\n      sstore\n        /* \"#utility.yul\":3391:3395   */\n      0x20\n        /* \"#utility.yul\":3376:3396   */\n      swap5\n      dup6\n      add\n      swap5\n        /* \"#utility.yul\":3344:3345   */\n      0x01\n        /* \"#utility.yul\":3332:3346   */\n      swap1\n      swap3\n      add\n      swap2\n        /* \"#utility.yul\":3218:3230   */\n      add\n        /* \"#utility.yul\":3188:3410   */\n      jump(tag_54)\n    tag_56:\n        /* \"#utility.yul\":3192:3195   */\n      pop\n        /* \"#utility.yul\":3438:3444   */\n      dup5\n        /* \"#utility.yul\":3429:3436   */\n      dup3\n        /* \"#utility.yul\":3426:3445   */\n      lt\n        /* \"#utility.yul\":3423:3624   */\n      iszero\n      tag_57\n      jumpi\n        /* \"#utility.yul\":3499:3518   */\n      dup7\n      dup5\n      add\n        /* \"#utility.yul\":3493:3519   */\n      mload\n      not(0x00)\n        /* \"#utility.yul\":3582:3583   */\n      0x03\n        /* \"#utility.yul\":3578:3592   */\n      dup8\n      swap1\n      shl\n        /* \"#utility.yul\":3594:3597   */\n      0xf8\n        /* \"#utility.yul\":3574:3598   */\n      and\n        /* \"#utility.yul\":3570:3607   */\n      shr\n        /* \"#utility.yul\":3566:3608   */\n      not\n        /* \"#utility.yul\":3551:3609   */\n      and\n        /* \"#utility.yul\":3536:3610   */\n      dup2\n      sstore\n        /* \"#utility.yul\":3423:3624   */\n    tag_57:\n      pop\n      pop\n      pop\n      pop\n        /* \"#utility.yul\":3670:3671   */\n      0x01\n        /* \"#utility.yul\":3654:3668   */\n      swap1\n      dup2\n      shl\n        /* \"#utility.yul\":3650:3672   */\n      add\n        /* \"#utility.yul\":3637:3673   */\n      swap1\n      sstore\n      pop\n        /* \"#utility.yul\":2641:3940   */\n      jump\t// out\n    tag_18:\n        /* \"src/GovernanceToken.sol\":119:926  contract GovernanceToken is ERC20 {... */\n      dataSize(sub_0)\n      dup1\n      dataOffset(sub_0)\n      0x00\n      codecopy\n      0x00\n      return\n    stop\n\n    sub_0: assembly {\n            /* \"src/GovernanceToken.sol\":119:926  contract GovernanceToken is ERC20 {... */\n          mstore(0x40, 0x80)\n          callvalue\n          dup1\n          iszero\n          tag_1\n          jumpi\n          revert(0x00, 0x00)\n        tag_1:\n          pop\n          jumpi(tag_2, lt(calldatasize, 0x04))\n          shr(0xe0, calldataload(0x00))\n          dup1\n          0x70a08231\n          gt\n          tag_15\n          jumpi\n          dup1\n          0x70a08231\n          eq\n          tag_9\n          jumpi\n          dup1\n          0x95d89b41\n          eq\n          tag_10\n          jumpi\n          dup1\n          0x9dc29fac\n          eq\n          tag_11\n          jumpi\n          dup1\n          0xa9059cbb\n          eq\n          tag_12\n          jumpi\n          dup1\n          0xc1fc006a\n          eq\n          tag_13\n          jumpi\n          dup1\n          0xdd62ed3e\n          eq\n          tag_14\n          jumpi\n          revert(0x00, 0x00)\n        tag_15:\n          dup1\n          0x06fdde03\n          eq\n          tag_3\n          jumpi\n          dup1\n          0x095ea7b3\n          eq\n          tag_4\n          jumpi\n          dup1\n          0x18160ddd\n          eq\n          tag_5\n          jumpi\n          dup1\n          0x23b872dd\n          eq\n          tag_6\n          jumpi\n          dup1\n          0x313ce567\n          eq\n          tag_7\n          jumpi\n          dup1\n          0x40c10f19\n          eq\n          tag_8\n          jumpi\n        tag_2:\n          revert(0x00, 0x00)\n            /* \"@openzeppelin/contracts/token/ERC20/ERC20.sol\":1760:1849  function name() public view virtual returns (string memory) {... */\n        tag_3:\n          tag_16\n          tag_17\n          jump\t// in\n        tag_16:\n          mload(0x40)\n          tag_18\n          swap2\n          swap1\n          tag_19\n          jump\t// in\n        tag_18:\n          mload(0x40)\n          dup1\n          swap2\n          sub\n          swap1\n          return\n            /* \"@openzeppelin/contracts/token/ERC20/ERC20.sol\":3902:4088  function approve(address spender, uint256 value) public virtual returns (bool) {... */\n        tag_4:\n          tag_20\n          tag_21\n          calldatasize\n          0x04\n          tag_22\n          jump\t// in\n        tag_21:\n          tag_23\n          jump\t// in\n        tag_20:\n          mload(0x40)\n            /* \"#utility.yul\":1085:1099   */\n          swap1\n          iszero\n            /* \"#utility.yul\":1078:1100   */\n          iszero\n            /* \"#utility.yul\":1060:1101   */\n          dup2\n          mstore\n            /* \"#utility.yul\":1048:1050   */\n          0x20\n            /* \"#utility.yul\":1033:1051   */\n          add\n            /* \"@openzeppelin/contracts/token/ERC20/ERC20.sol\":3902:4088  function approve(address spender, uint256 value) public virtual returns (bool) {... */\n          tag_18\n            /* \"#utility.yul\":920:1107   */\n          jump\n            /* \"@openzeppelin/contracts/token/ERC20/ERC20.sol\":2803:2900  function totalSupply() public view virtual returns (uint256) {... */\n        tag_5:\n            /* \"@openzeppelin/contracts/token/ERC20/ERC20.sol\":2881:2893  _totalSupply */\n          sload(0x02)\n            /* \"@openzeppelin/contracts/token/ERC20/ERC20.sol\":2803:2900  function totalSupply() public view virtual returns (uint256) {... */\n        tag_26:\n          mload(0x40)\n            /* \"#utility.yul\":1258:1283   */\n          swap1\n          dup2\n          mstore\n            /* \"#utility.yul\":1246:1248   */\n          0x20\n            /* \"#utility.yul\":1231:1249   */\n          add\n            /* \"@openzeppelin/contracts/token/ERC20/ERC20.sol\":2803:2900  function totalSupply() public view virtual returns (uint256) {... */\n          tag_18\n            /* \"#utility.yul\":1112:1289   */\n          jump\n            /* \"@openzeppelin/contracts/token/ERC20/ERC20.sol\":4680:4924  function transferFrom(address from, address to, uint256 value) public virtual returns (bool) {... */\n        tag_6:\n          tag_20\n          tag_31\n          calldatasize\n          0x04\n          tag_32\n          jump\t// in\n        tag_31:\n          tag_33\n          jump\t// in\n            /* \"@openzeppelin/contracts/token/ERC20/ERC20.sol\":2688:2770  function decimals() public view virtual returns (uint8) {... */\n        tag_7:\n          mload(0x40)\n            /* \"@openzeppelin/contracts/token/ERC20/ERC20.sol\":2761:2763  18 */\n          0x12\n            /* \"#utility.yul\":1815:1851   */\n          dup2\n          mstore\n            /* \"#utility.yul\":1803:1805   */\n          0x20\n            /* \"#utility.yul\":1788:1806   */\n          add\n            /* \"@openzeppelin/contracts/token/ERC20/ERC20.sol\":2688:2770  function decimals() public view virtual returns (uint8) {... */\n          tag_18\n            /* \"#utility.yul\":1673:1857   */\n          jump\n            /* \"src/GovernanceToken.sol\":640:738  function mint(address to, uint256 amount) external onlyVoting {... */\n        tag_8:\n          tag_39\n          tag_40\n          calldatasize\n          0x04\n          tag_22\n          jump\t// in\n        tag_40:\n          tag_41\n          jump\t// in\n        tag_39:\n          stop\n            /* \"@openzeppelin/contracts/token/ERC20/ERC20.sol\":2933:3049  function balanceOf(address account) public view virtual returns (uint256) {... */\n        tag_9:\n          tag_26\n          tag_43\n          calldatasize\n          0x04\n          tag_44\n          jump\t// in\n        tag_43:\n          sub(shl(0xa0, 0x01), 0x01)\n            /* \"@openzeppelin/contracts/token/ERC20/ERC20.sol\":3024:3042  _balances[account] */\n          and\n            /* \"@openzeppelin/contracts/token/ERC20/ERC20.sol\":2998:3005  uint256 */\n          0x00\n            /* \"@openzeppelin/contracts/token/ERC20/ERC20.sol\":3024:3042  _balances[account] */\n          swap1\n          dup2\n          mstore\n          0x20\n          dup2\n          swap1\n          mstore\n          0x40\n          swap1\n          keccak256\n          sload\n          swap1\n            /* \"@openzeppelin/contracts/token/ERC20/ERC20.sol\":2933:3049  function balanceOf(address account) public view virtual returns (uint256) {... */\n          jump\n            /* \"@openzeppelin/contracts/token/ERC20/ERC20.sol\":1962:2055  function symbol() public view virtual returns (string memory) {... */\n        tag_10:\n          tag_16\n          tag_48\n          jump\t// in\n            /* \"src/GovernanceToken.sol\":821:923  function burn(address from, uint256 amount) external onlyVoting {... */\n        tag_11:\n          tag_39\n          tag_51\n          calldatasize\n          0x04\n          tag_22\n          jump\t// in\n        tag_51:\n          tag_52\n          jump\t// in\n            /* \"@openzeppelin/contracts/token/ERC20/ERC20.sol\":3244:3422  function transfer(address to, uint256 value) public virtual returns (bool) {... */\n        tag_12:\n          tag_20\n          tag_54\n          calldatasize\n          0x04\n          tag_22\n          jump\t// in\n        tag_54:\n          tag_55\n          jump\t// in\n            /* \"src/GovernanceToken.sol\":160:189  address public votingContract */\n        tag_13:\n          sload(0x05)\n          tag_57\n          swap1\n          sub(shl(0xa0, 0x01), 0x01)\n          and\n          dup2\n          jump\n        tag_57:\n          mload(0x40)\n          sub(shl(0xa0, 0x01), 0x01)\n            /* \"#utility.yul\":2217:2249   */\n          swap1\n          swap2\n          and\n            /* \"#utility.yul\":2199:2250   */\n          dup2\n          mstore\n            /* \"#utility.yul\":2187:2189   */\n          0x20\n            /* \"#utility.yul\":2172:2190   */\n          add\n            /* \"src/GovernanceToken.sol\":160:189  address public votingContract */\n          tag_18\n            /* \"#utility.yul\":2053:2256   */\n          jump\n            /* \"@openzeppelin/contracts/token/ERC20/ERC20.sol\":3455:3595  function allowance(address owner, address spender) public view virtual returns (uint256) {... */\n        tag_14:\n          tag_26\n          tag_62\n          calldatasize\n          0x04\n          tag_63\n          jump\t// in\n        tag_62:\n          sub(shl(0xa0, 0x01), 0x01)\n            /* \"@openzeppelin/contracts/token/ERC20/ERC20.sol\":3561:3579  _allowances[owner] */\n          swap2\n          dup3\n          and\n            /* \"@openzeppelin/contracts/token/ERC20/ERC20.sol\":3535:3542  uint256 */\n          0x00\n            /* \"@openzeppelin/contracts/token/ERC20/ERC20.sol\":3561:3579  _allowances[owner] */\n          swap1\n          dup2\n          mstore\n            /* \"@openzeppelin/contracts/token/ERC20/ERC20.sol\":3561:3572  _allowances */\n          0x01\n            /* \"@openzeppelin/contracts/token/ERC20/ERC20.sol\":3561:3579  _allowances[owner] */\n          0x20\n          swap1\n          dup2\n          mstore\n          0x40\n          dup1\n          dup4\n          keccak256\n            /* \"@openzeppelin/contracts/token/ERC20/ERC20.sol\":3561:3588  _allowances[owner][spender] */\n          swap4\n          swap1\n          swap5\n          and\n          dup3\n          mstore\n          swap2\n          swap1\n          swap2\n          mstore\n          keccak256\n          sload\n          swap1\n            /* \"@openzeppelin/contracts/token/ERC20/ERC20.sol\":3455:3595  function allowance(address owner, address spender) public view virtual returns (uint256) {... */\n          jump\n            /* \"@openzeppelin/contracts/token/ERC20/ERC20.sol\":1760:1849  function name() public view virtual returns (string memory) {... */\n        tag_17:\n            /* \"@openzeppelin/contracts/token/ERC20/ERC20.sol\":1805:1818  string memory */\n          0x60\n            /* \"@openzeppelin/contracts/token/ERC20/ERC20.sol\":1837:1842  _name */\n          0x03\n            /* \"@openzeppelin/contracts/token/ERC20/ERC20.sol\":1830:1842  return _name */\n          dup1\n          sload\n          tag_67\n          swap1\n          tag_68\n          jump\t// in\n        tag_67:\n          dup1\n          0x1f\n          add\n          0x20\n          dup1\n          swap2\n          div\n          mul\n          0x20\n          add\n          mload(0x40)\n          swap1\n          dup2\n          add\n          0x40\n          mstore\n          dup1\n          swap3\n          swap2\n          swap1\n          dup2\n          dup2\n          mstore\n          0x20\n          add\n          dup3\n          dup1\n          sload\n          tag_69\n          swap1\n          tag_68\n          jump\t// in\n        tag_69:\n          dup1\n          iszero\n          tag_70\n          jumpi\n          dup1\n          0x1f\n          lt\n          tag_71\n          jumpi\n          0x0100\n          dup1\n          dup4\n          sload\n          div\n          mul\n          dup4\n          mstore\n          swap2\n          0x20\n          add\n          swap2\n          jump(tag_70)\n        tag_71:\n          dup3\n          add\n          swap2\n          swap1\n          0x00\n          mstore\n          keccak256(0x00, 0x20)\n          swap1\n        tag_72:\n          dup2\n          sload\n          dup2\n          mstore\n          swap1\n          0x01\n          add\n          swap1\n          0x20\n          add\n          dup1\n          dup4\n          gt\n          tag_72\n          jumpi\n          dup3\n          swap1\n          sub\n          0x1f\n          and\n          dup3\n          add\n          swap2\n        tag_70:\n          pop\n          pop\n          pop\n          pop\n          pop\n          swap1\n          pop\n            /* \"@openzeppelin/contracts/token/ERC20/ERC20.sol\":1760:1849  function name() public view virtual returns (string memory) {... */\n          swap1\n          jump\t// out\n            /* \"@openzeppelin/contracts/token/ERC20/ERC20.sol\":3902:4088  function approve(address spender, uint256 value) public virtual returns (bool) {... */\n        tag_23:\n            /* \"@openzeppelin/contracts/token/ERC20/ERC20.sol\":3975:3979  bool */\n          0x00\n            /* \"@openzeppelin/contracts/utils/Context.sol\":735:745  msg.sender */\n          caller\n            /* \"@openzeppelin/contracts/token/ERC20/ERC20.sol\":4029:4060  _approve(owner, spender, value) */\n          tag_76\n            /* \"@openzeppelin/contracts/utils/Context.sol\":735:745  msg.sender */\n          dup2\n            /* \"@openzeppelin/contracts/token/ERC20/ERC20.sol\":4045:4052  spender */\n          dup6\n            /* \"@openzeppelin/contracts/token/ERC20/ERC20.sol\":4054:4059  value */\n          dup6\n            /* \"@openzeppelin/contracts/token/ERC20/ERC20.sol\":4029:4037  _approve */\n          tag_77\n            /* \"@openzeppelin/contracts/token/ERC20/ERC20.sol\":4029:4060  _approve(owner, spender, value) */\n          jump\t// in\n        tag_76:\n            /* \"@openzeppelin/contracts/token/ERC20/ERC20.sol\":4077:4081  true */\n          0x01\n            /* \"@openzeppelin/contracts/token/ERC20/ERC20.sol\":4070:4081  return true */\n          swap2\n          pop\n          pop\n            /* \"@openzeppelin/contracts/token/ERC20/ERC20.sol\":3902:4088  function approve(address spender, uint256 value) public virtual returns (bool) {... */\n        tag_73:\n          swap3\n          swap2\n          pop\n          pop\n          jump\t// out\n            /* \"@openzeppelin/contracts/token/ERC20/ERC20.sol\":4680:4924  function transferFrom(address from, address to, uint256 value) public virtual returns (bool) {... */\n        tag_33:\n            /* \"@openzeppelin/contracts/token/ERC20/ERC20.sol\":4767:4771  bool */\n          0x00\n            /* \"@openzeppelin/contracts/utils/Context.sol\":735:745  msg.sender */\n          caller\n            /* \"@openzeppelin/contracts/token/ERC20/ERC20.sol\":4823:4860  _spendAllowance(from, spender, value) */\n          tag_81\n            /* \"@openzeppelin/contracts/token/ERC20/ERC20.sol\":4839:4843  from */\n          dup6\n            /* \"@openzeppelin/contracts/utils/Context.sol\":735:745  msg.sender */\n          dup3\n            /* \"@openzeppelin/contracts/token/ERC20/ERC20.sol\":4854:4859  value */\n          dup6\n            /* \"@openzeppelin/contracts/token/ERC20/ERC20.sol\":4823:4838  _spendAllowance */\n          tag_82\n            /* \"@openzeppelin/contracts/token/ERC20/ERC20.sol\":4823:4860  _spendAllowance(from, spender, value) */\n          jump\t// in\n        tag_81:\n            /* \"@openzeppelin/contracts/token/ERC20/ERC20.sol\":4870:4896  _transfer(from, to, value) */\n          tag_83\n            /* \"@openzeppelin/contracts/token/ERC20/ERC20.sol\":4880:4884  from */\n          dup6\n            /* \"@openzeppelin/contracts/token/ERC20/ERC20.sol\":4886:4888  to */\n          dup6\n            /* \"@openzeppelin/contracts/token/ERC20/ERC20.sol\":4890:4895  value */\n          dup6\n            /* \"@openzeppelin/contracts/token/ERC20/ERC20.sol\":4870:4879  _transfer */\n          tag_84\n            /* \"@openzeppelin/contracts/token/ERC20/ERC20.sol\":4870:4896  _transfer(from, to, value) */\n          jump\t// in\n        tag_83:\n          pop\n            /* \"@openzeppelin/contracts/token/ERC20/ERC20.sol\":4913:4917  true */\n          0x01\n          swap5\n            /* \"@openzeppelin/contracts/token/ERC20/ERC20.sol\":4680:4924  function transferFrom(address from, address to, uint256 value) public virtual returns (bool) {... */\n          swap4\n          pop\n          pop\n          pop\n          pop\n          jump\t// out\n            /* \"src/GovernanceToken.sol\":640:738  function mint(address to, uint256 amount) external onlyVoting {... */\n        tag_41:\n            /* \"src/GovernanceToken.sol\":331:345  votingContract */\n          and(sub(shl(0xa0, 0x01), 0x01), sload(0x05))\n            /* \"src/GovernanceToken.sol\":317:327  msg.sender */\n          caller\n            /* \"src/GovernanceToken.sol\":317:345  msg.sender == votingContract */\n          eq\n            /* \"src/GovernanceToken.sol\":309:392  require(msg.sender == votingContract, \"No autorizado: solo el sistema de votacion\") */\n          tag_87\n          jumpi\n          mload(0x40)\n          shl(0xe5, 0x461bcd)\n          dup2\n          mstore\n          0x04\n          add\n          tag_88\n          swap1\n          tag_89\n          jump\t// in\n        tag_88:\n          mload(0x40)\n          dup1\n          swap2\n          sub\n          swap1\n          revert\n        tag_87:\n            /* \"src/GovernanceToken.sol\":713:730  _mint(to, amount) */\n          tag_91\n            /* \"src/GovernanceToken.sol\":719:721  to */\n          dup3\n            /* \"src/GovernanceToken.sol\":723:729  amount */\n          dup3\n            /* \"src/GovernanceToken.sol\":713:718  _mint */\n          tag_92\n            /* \"src/GovernanceToken.sol\":713:730  _mint(to, amount) */\n          jump\t// in\n        tag_91:\n            /* \"src/GovernanceToken.sol\":640:738  function mint(address to, uint256 amount) external onlyVoting {... */\n          pop\n          pop\n          jump\t// out\n            /* \"@openzeppelin/contracts/token/ERC20/ERC20.sol\":1962:2055  function symbol() public view virtual returns (string memory) {... */\n        tag_48:\n            /* \"@openzeppelin/contracts/token/ERC20/ERC20.sol\":2009:2022  string memory */\n          0x60\n            /* \"@openzeppelin/contracts/token/ERC20/ERC20.sol\":2041:2048  _symbol */\n          0x04\n            /* \"@openzeppelin/contracts/token/ERC20/ERC20.sol\":2034:2048  return _symbol */\n          dup1\n          sload\n          tag_67\n          swap1\n          tag_68\n          jump\t// in\n            /* \"src/GovernanceToken.sol\":821:923  function burn(address from, uint256 amount) external onlyVoting {... */\n        tag_52:\n            /* \"src/GovernanceToken.sol\":331:345  votingContract */\n          and(sub(shl(0xa0, 0x01), 0x01), sload(0x05))\n            /* \"src/GovernanceToken.sol\":317:327  msg.sender */\n          caller\n            /* \"src/GovernanceToken.sol\":317:345  msg.sender == votingContract */\n          eq\n            /* \"src/GovernanceToken.sol\":309:392  require(msg.sender == votingContract, \"No autorizado: solo el sistema de votacion\") */\n          tag_101\n          jumpi\n          mload(0x40)\n          shl(0xe5, 0x461bcd)\n          dup2\n          mstore\n          0x04\n          add\n          tag_88\n          swap1\n          tag_89\n          jump\t// in\n        tag_101:\n            /* \"src/GovernanceToken.sol\":896:915  _burn(from, amount) */\n          tag_91\n            /* \"src/GovernanceToken.sol\":902:906  from */\n          dup3\n            /* \"src/GovernanceToken.sol\":908:914  amount */\n          dup3\n            /* \"src/GovernanceToken.sol\":896:901  _burn */\n          tag_105\n            /* \"src/GovernanceToken.sol\":896:915  _burn(from, amount) */\n          jump\t// in\n            /* \"@openzeppelin/contracts/token/ERC20/ERC20.sol\":3244:3422  function transfer(address to, uint256 value) public virtual returns (bool) {... */\n        tag_55:\n            /* \"@openzeppelin/contracts/token/ERC20/ERC20.sol\":3313:3317  bool */\n          0x00\n            /* \"@openzeppelin/contracts/utils/Context.sol\":735:745  msg.sender */\n          caller\n            /* \"@openzeppelin/contracts/token/ERC20/ERC20.sol\":3367:3394  _transfer(owner, to, value) */\n          tag_76\n            /* \"@openzeppelin/contracts/utils/Context.sol\":735:745  msg.sender */\n          dup2\n            /* \"@openzeppelin/contracts/token/ERC20/ERC20.sol\":3384:3386  to */\n          dup6\n            /* \"@openzeppelin/contracts/token/ERC20/ERC20.sol\":3388:3393  value */\n          dup6\n            /* \"@openzeppelin/contracts/token/ERC20/ERC20.sol\":3367:3376  _transfer */\n          tag_84\n            /* \"@openzeppelin/contracts/token/ERC20/ERC20.sol\":3367:3394  _transfer(owner, to, value) */\n          jump\t// in\n            /* \"@openzeppelin/contracts/token/ERC20/ERC20.sol\":8630:8758  function _approve(address owner, address spender, uint256 value) internal {... */\n        tag_77:\n            /* \"@openzeppelin/contracts/token/ERC20/ERC20.sol\":8714:8751  _approve(owner, spender, value, true) */\n          tag_112\n            /* \"@openzeppelin/contracts/token/ERC20/ERC20.sol\":8723:8728  owner */\n          dup4\n            /* \"@openzeppelin/contracts/token/ERC20/ERC20.sol\":8730:8737  spender */\n          dup4\n            /* \"@openzeppelin/contracts/token/ERC20/ERC20.sol\":8739:8744  value */\n          dup4\n            /* \"@openzeppelin/contracts/token/ERC20/ERC20.sol\":8746:8750  true */\n          0x01\n            /* \"@openzeppelin/contracts/token/ERC20/ERC20.sol\":8714:8722  _approve */\n          tag_113\n            /* \"@openzeppelin/contracts/token/ERC20/ERC20.sol\":8714:8751  _approve(owner, spender, value, true) */\n          jump\t// in\n        tag_112:\n            /* \"@openzeppelin/contracts/token/ERC20/ERC20.sol\":8630:8758  function _approve(address owner, address spender, uint256 value) internal {... */\n          pop\n          pop\n          pop\n          jump\t// out\n            /* \"@openzeppelin/contracts/token/ERC20/ERC20.sol\":10321:10797  function _spendAllowance(address owner, address spender, uint256 value) internal virtual {... */\n        tag_82:\n          sub(shl(0xa0, 0x01), 0x01)\n            /* \"@openzeppelin/contracts/token/ERC20/ERC20.sol\":3561:3579  _allowances[owner] */\n          dup4\n          dup2\n          and\n            /* \"@openzeppelin/contracts/token/ERC20/ERC20.sol\":10420:10444  uint256 currentAllowance */\n          0x00\n            /* \"@openzeppelin/contracts/token/ERC20/ERC20.sol\":3561:3579  _allowances[owner] */\n          swap1\n          dup2\n          mstore\n            /* \"@openzeppelin/contracts/token/ERC20/ERC20.sol\":3561:3572  _allowances */\n          0x01\n            /* \"@openzeppelin/contracts/token/ERC20/ERC20.sol\":3561:3579  _allowances[owner] */\n          0x20\n          swap1\n          dup2\n          mstore\n          0x40\n          dup1\n          dup4\n          keccak256\n            /* \"@openzeppelin/contracts/token/ERC20/ERC20.sol\":3561:3588  _allowances[owner][spender] */\n          swap4\n          dup7\n          and\n          dup4\n          mstore\n          swap3\n          swap1\n          mstore\n          keccak256\n          sload\n          not(0x00)\n            /* \"@openzeppelin/contracts/token/ERC20/ERC20.sol\":10486:10522  currentAllowance < type(uint256).max */\n          dup2\n          lt\n            /* \"@openzeppelin/contracts/token/ERC20/ERC20.sol\":10482:10791  if (currentAllowance < type(uint256).max) {... */\n          iszero\n          tag_120\n          jumpi\n            /* \"@openzeppelin/contracts/token/ERC20/ERC20.sol\":10561:10566  value */\n          dup2\n            /* \"@openzeppelin/contracts/token/ERC20/ERC20.sol\":10542:10558  currentAllowance */\n          dup2\n            /* \"@openzeppelin/contracts/token/ERC20/ERC20.sol\":10542:10566  currentAllowance < value */\n          lt\n            /* \"@openzeppelin/contracts/token/ERC20/ERC20.sol\":10538:10668  if (currentAllowance < value) {... */\n          iszero\n          tag_117\n          jumpi\n            /* \"@openzeppelin/contracts/token/ERC20/ERC20.sol\":10593:10653  ERC20InsufficientAllowance(spender, currentAllowance, value) */\n          mload(0x40)\n          shl(0xe1, 0x7dc7a0d9)\n          dup2\n          mstore\n          sub(shl(0xa0, 0x01), 0x01)\n            /* \"#utility.yul\":3542:3574   */\n          dup5\n          and\n            /* \"@openzeppelin/contracts/token/ERC20/ERC20.sol\":10593:10653  ERC20InsufficientAllowance(spender, currentAllowance, value) */\n          0x04\n          dup3\n          add\n            /* \"#utility.yul\":3524:3575   */\n          mstore\n            /* \"#utility.yul\":3591:3609   */\n          0x24\n          dup2\n          add\n            /* \"#utility.yul\":3584:3618   */\n          dup3\n          swap1\n          mstore\n            /* \"#utility.yul\":3634:3652   */\n          0x44\n          dup2\n          add\n            /* \"#utility.yul\":3627:3661   */\n          dup4\n          swap1\n          mstore\n            /* \"#utility.yul\":3497:3515   */\n          0x64\n          add\n            /* \"@openzeppelin/contracts/token/ERC20/ERC20.sol\":10593:10653  ERC20InsufficientAllowance(spender, currentAllowance, value) */\n          tag_88\n            /* \"#utility.yul\":3322:3667   */\n          jump\n            /* \"@openzeppelin/contracts/token/ERC20/ERC20.sol\":10538:10668  if (currentAllowance < value) {... */\n        tag_117:\n            /* \"@openzeppelin/contracts/token/ERC20/ERC20.sol\":10709:10766  _approve(owner, spender, currentAllowance - value, false) */\n          tag_120\n            /* \"@openzeppelin/contracts/token/ERC20/ERC20.sol\":10718:10723  owner */\n          dup5\n            /* \"@openzeppelin/contracts/token/ERC20/ERC20.sol\":10725:10732  spender */\n          dup5\n            /* \"@openzeppelin/contracts/token/ERC20/ERC20.sol\":10753:10758  value */\n          dup5\n            /* \"@openzeppelin/contracts/token/ERC20/ERC20.sol\":10734:10750  currentAllowance */\n          dup5\n            /* \"@openzeppelin/contracts/token/ERC20/ERC20.sol\":10734:10758  currentAllowance - value */\n          sub\n            /* \"@openzeppelin/contracts/token/ERC20/ERC20.sol\":10760:10765  false */\n          0x00\n            /* \"@openzeppelin/contracts/token/ERC20/ERC20.sol\":10709:10717  _approve */\n          tag_113\n            /* \"@openzeppelin/contracts/token/ERC20/ERC20.sol\":10709:10766  _approve(owner, spender, currentAllowance - value, false) */\n          jump\t// in\n        tag_120:\n            /* \"@openzeppelin/contracts/token/ERC20/ERC20.sol\":10410:10797  {... */\n          pop\n            /* \"@openzeppelin/contracts/token/ERC20/ERC20.sol\":10321:10797  function _spendAllowance(address owner, address spender, uint256 value) internal virtual {... */\n          pop\n          pop\n          pop\n          jump\t// out\n            /* \"@openzeppelin/contracts/token/ERC20/ERC20.sol\":5297:5597  function _transfer(address from, address to, uint256 value) internal {... */\n        tag_84:\n          sub(shl(0xa0, 0x01), 0x01)\n            /* \"@openzeppelin/contracts/token/ERC20/ERC20.sol\":5380:5398  from == address(0) */\n          dup4\n          and\n            /* \"@openzeppelin/contracts/token/ERC20/ERC20.sol\":5376:5462  if (from == address(0)) {... */\n          tag_122\n          jumpi\n            /* \"@openzeppelin/contracts/token/ERC20/ERC20.sol\":5421:5451  ERC20InvalidSender(address(0)) */\n          mload(0x40)\n          shl(0xe1, 0x4b637e8f)\n          dup2\n          mstore\n            /* \"@openzeppelin/contracts/token/ERC20/ERC20.sol\":5448:5449  0 */\n          0x00\n            /* \"@openzeppelin/contracts/token/ERC20/ERC20.sol\":5421:5451  ERC20InvalidSender(address(0)) */\n          0x04\n          dup3\n          add\n            /* \"#utility.yul\":2199:2250   */\n          mstore\n            /* \"#utility.yul\":2172:2190   */\n          0x24\n          add\n            /* \"@openzeppelin/contracts/token/ERC20/ERC20.sol\":5421:5451  ERC20InvalidSender(address(0)) */\n          tag_88\n            /* \"#utility.yul\":2053:2256   */\n          jump\n            /* \"@openzeppelin/contracts/token/ERC20/ERC20.sol\":5376:5462  if (from == address(0)) {... */\n        tag_122:\n          sub(shl(0xa0, 0x01), 0x01)\n            /* \"@openzeppelin/contracts/token/ERC20/ERC20.sol\":5475:5491  to == address(0) */\n          dup3\n          and\n            /* \"@openzeppelin/contracts/token/ERC20/ERC20.sol\":5471:5557  if (to == address(0)) {... */\n          tag_124\n          jumpi\n            /* \"@openzeppelin/contracts/token/ERC20/ERC20.sol\":5514:5546  ERC20InvalidReceiver(address(0)) */\n          mload(0x40)\n          shl(0xe0, 0xec442f05)\n          dup2\n          mstore\n            /* \"@openzeppelin/contracts/token/ERC20/ERC20.sol\":5543:5544  0 */\n          0x00\n            /* \"@openzeppelin/contracts/token/ERC20/ERC20.sol\":5514:5546  ERC20InvalidReceiver(address(0)) */\n          0x04\n          dup3\n          add\n            /* \"#utility.yul\":2199:2250   */\n          mstore\n            /* \"#utility.yul\":2172:2190   */\n          0x24\n          add\n            /* \"@openzeppelin/contracts/token/ERC20/ERC20.sol\":5514:5546  ERC20InvalidReceiver(address(0)) */\n          tag_88\n            /* \"#utility.yul\":2053:2256   */\n          jump\n            /* \"@openzeppelin/contracts/token/ERC20/ERC20.sol\":5471:5557  if (to == address(0)) {... */\n        tag_124:\n            /* \"@openzeppelin/contracts/token/ERC20/ERC20.sol\":5566:5590  _update(from, to, value) */\n          tag_112\n            /* \"@openzeppelin/contracts/token/ERC20/ERC20.sol\":5574:5578  from */\n          dup4\n            /* \"@openzeppelin/contracts/token/ERC20/ERC20.sol\":5580:5582  to */\n          dup4\n            /* \"@openzeppelin/contracts/token/ERC20/ERC20.sol\":5584:5589  value */\n          dup4\n            /* \"@openzeppelin/contracts/token/ERC20/ERC20.sol\":5566:5573  _update */\n          tag_127\n            /* \"@openzeppelin/contracts/token/ERC20/ERC20.sol\":5566:5590  _update(from, to, value) */\n          jump\t// in\n            /* \"@openzeppelin/contracts/token/ERC20/ERC20.sol\":7362:7570  function _mint(address account, uint256 value) internal {... */\n        tag_92:\n          sub(shl(0xa0, 0x01), 0x01)\n            /* \"@openzeppelin/contracts/token/ERC20/ERC20.sol\":7432:7453  account == address(0) */\n          dup3\n          and\n            /* \"@openzeppelin/contracts/token/ERC20/ERC20.sol\":7428:7519  if (account == address(0)) {... */\n          tag_129\n          jumpi\n            /* \"@openzeppelin/contracts/token/ERC20/ERC20.sol\":7476:7508  ERC20InvalidReceiver(address(0)) */\n          mload(0x40)\n          shl(0xe0, 0xec442f05)\n          dup2\n          mstore\n            /* \"@openzeppelin/contracts/token/ERC20/ERC20.sol\":7505:7506  0 */\n          0x00\n            /* \"@openzeppelin/contracts/token/ERC20/ERC20.sol\":7476:7508  ERC20InvalidReceiver(address(0)) */\n          0x04\n          dup3\n          add\n            /* \"#utility.yul\":2199:2250   */\n          mstore\n            /* \"#utility.yul\":2172:2190   */\n          0x24\n          add\n            /* \"@openzeppelin/contracts/token/ERC20/ERC20.sol\":7476:7508  ERC20InvalidReceiver(address(0)) */\n          tag_88\n            /* \"#utility.yul\":2053:2256   */\n          jump\n            /* \"@openzeppelin/contracts/token/ERC20/ERC20.sol\":7428:7519  if (account == address(0)) {... */\n        tag_129:\n            /* \"@openzeppelin/contracts/token/ERC20/ERC20.sol\":7528:7563  _update(address(0), account, value) */\n          tag_91\n            /* \"@openzeppelin/contracts/token/ERC20/ERC20.sol\":7544:7545  0 */\n          0x00\n            /* \"@openzeppelin/contracts/token/ERC20/ERC20.sol\":7548:7555  account */\n          dup4\n            /* \"@openzeppelin/contracts/token/ERC20/ERC20.sol\":7557:7562  value */\n          dup4\n            /* \"@openzeppelin/contracts/token/ERC20/ERC20.sol\":7528:7535  _update */\n          tag_127\n            /* \"@openzeppelin/contracts/token/ERC20/ERC20.sol\":7528:7563  _update(address(0), account, value) */\n          jump\t// in\n            /* \"@openzeppelin/contracts/token/ERC20/ERC20.sol\":7888:8094  function _burn(address account, uint256 value) internal {... */\n        tag_105:\n          sub(shl(0xa0, 0x01), 0x01)\n            /* \"@openzeppelin/contracts/token/ERC20/ERC20.sol\":7958:7979  account == address(0) */\n          dup3\n          and\n            /* \"@openzeppelin/contracts/token/ERC20/ERC20.sol\":7954:8043  if (account == address(0)) {... */\n          tag_133\n          jumpi\n            /* \"@openzeppelin/contracts/token/ERC20/ERC20.sol\":8002:8032  ERC20InvalidSender(address(0)) */\n          mload(0x40)\n          shl(0xe1, 0x4b637e8f)\n          dup2\n          mstore\n            /* \"@openzeppelin/contracts/token/ERC20/ERC20.sol\":8029:8030  0 */\n          0x00\n            /* \"@openzeppelin/contracts/token/ERC20/ERC20.sol\":8002:8032  ERC20InvalidSender(address(0)) */\n          0x04\n          dup3\n          add\n            /* \"#utility.yul\":2199:2250   */\n          mstore\n            /* \"#utility.yul\":2172:2190   */\n          0x24\n          add\n            /* \"@openzeppelin/contracts/token/ERC20/ERC20.sol\":8002:8032  ERC20InvalidSender(address(0)) */\n          tag_88\n            /* \"#utility.yul\":2053:2256   */\n          jump\n            /* \"@openzeppelin/contracts/token/ERC20/ERC20.sol\":7954:8043  if (account == address(0)) {... */\n        tag_133:\n            /* \"@openzeppelin/contracts/token/ERC20/ERC20.sol\":8052:8087  _update(account, address(0), value) */\n          tag_91\n            /* \"@openzeppelin/contracts/token/ERC20/ERC20.sol\":8060:8067  account */\n          dup3\n            /* \"@openzeppelin/contracts/token/ERC20/ERC20.sol\":8077:8078  0 */\n          0x00\n            /* \"@openzeppelin/contracts/token/ERC20/ERC20.sol\":8081:8086  value */\n          dup4\n            /* \"@openzeppelin/contracts/token/ERC20/ERC20.sol\":8052:8059  _update */\n          tag_127\n            /* \"@openzeppelin/contracts/token/ERC20/ERC20.sol\":8052:8087  _update(account, address(0), value) */\n          jump\t// in\n            /* \"@openzeppelin/contracts/token/ERC20/ERC20.sol\":9607:10039  function _approve(address owner, address spender, uint256 value, bool emitEvent) internal virtual {... */\n        tag_113:\n          sub(shl(0xa0, 0x01), 0x01)\n            /* \"@openzeppelin/contracts/token/ERC20/ERC20.sol\":9719:9738  owner == address(0) */\n          dup5\n          and\n            /* \"@openzeppelin/contracts/token/ERC20/ERC20.sol\":9715:9804  if (owner == address(0)) {... */\n          tag_137\n          jumpi\n            /* \"@openzeppelin/contracts/token/ERC20/ERC20.sol\":9761:9793  ERC20InvalidApprover(address(0)) */\n          mload(0x40)\n          shl(0xe0, 0xe602df05)\n          dup2\n          mstore\n            /* \"@openzeppelin/contracts/token/ERC20/ERC20.sol\":9790:9791  0 */\n          0x00\n            /* \"@openzeppelin/contracts/token/ERC20/ERC20.sol\":9761:9793  ERC20InvalidApprover(address(0)) */\n          0x04\n          dup3\n          add\n            /* \"#utility.yul\":2199:2250   */\n          mstore\n            /* \"#utility.yul\":2172:2190   */\n          0x24\n          add\n            /* \"@openzeppelin/contracts/token/ERC20/ERC20.sol\":9761:9793  ERC20InvalidApprover(address(0)) */\n          tag_88\n            /* \"#utility.yul\":2053:2256   */\n          jump\n            /* \"@openzeppelin/contracts/token/ERC20/ERC20.sol\":9715:9804  if (owner == address(0)) {... */\n        tag_137:\n          sub(shl(0xa0, 0x01), 0x01)\n            /* \"@openzeppelin/contracts/token/ERC20/ERC20.sol\":9817:9838  spender == address(0) */\n          dup4\n          and\n            /* \"@openzeppelin/contracts/token/ERC20/ERC20.sol\":9813:9903  if (spender == address(0)) {... */\n          tag_139\n          jumpi\n            /* \"@openzeppelin/contracts/token/ERC20/ERC20.sol\":9861:9892  ERC20InvalidSpender(address(0)) */\n          mload(0x40)\n          shl(0xe1, 0x4a1406b1)\n          dup2\n          mstore\n            /* \"@openzeppelin/contracts/token/ERC20/ERC20.sol\":9889:9890  0 */\n          0x00\n            /* \"@openzeppelin/contracts/token/ERC20/ERC20.sol\":9861:9892  ERC20InvalidSpender(address(0)) */\n          0x04\n          dup3\n          add\n            /* \"#utility.yul\":2199:2250   */\n          mstore\n            /* \"#utility.yul\":2172:2190   */\n          0x24\n          add\n            /* \"@openzeppelin/contracts/token/ERC20/ERC20.sol\":9861:9892  ERC20InvalidSpender(address(0)) */\n          tag_88\n            /* \"#utility.yul\":2053:2256   */\n          jump\n            /* \"@openzeppelin/contracts/token/ERC20/ERC20.sol\":9813:9903  if (spender == address(0)) {... */\n        tag_139:\n          sub(shl(0xa0, 0x01), 0x01)\n            /* \"@openzeppelin/contracts/token/ERC20/ERC20.sol\":9912:9930  _allowances[owner] */\n          dup1\n          dup6\n          and\n          0x00\n          swap1\n          dup2\n          mstore\n            /* \"@openzeppelin/contracts/token/ERC20/ERC20.sol\":9912:9923  _allowances */\n          0x01\n            /* \"@openzeppelin/contracts/token/ERC20/ERC20.sol\":9912:9930  _allowances[owner] */\n          0x20\n          swap1\n          dup2\n          mstore\n          0x40\n          dup1\n          dup4\n          keccak256\n            /* \"@openzeppelin/contracts/token/ERC20/ERC20.sol\":9912:9939  _allowances[owner][spender] */\n          swap4\n          dup8\n          and\n          dup4\n          mstore\n          swap3\n          swap1\n          mstore\n          keccak256\n            /* \"@openzeppelin/contracts/token/ERC20/ERC20.sol\":9912:9947  _allowances[owner][spender] = value */\n          dup3\n          swap1\n          sstore\n            /* \"@openzeppelin/contracts/token/ERC20/ERC20.sol\":9957:10033  if (emitEvent) {... */\n          dup1\n          iszero\n          tag_120\n          jumpi\n            /* \"@openzeppelin/contracts/token/ERC20/ERC20.sol\":10007:10014  spender */\n          dup3\n          sub(shl(0xa0, 0x01), 0x01)\n            /* \"@openzeppelin/contracts/token/ERC20/ERC20.sol\":9991:10022  Approval(owner, spender, value) */\n          and\n            /* \"@openzeppelin/contracts/token/ERC20/ERC20.sol\":10000:10005  owner */\n          dup5\n          sub(shl(0xa0, 0x01), 0x01)\n            /* \"@openzeppelin/contracts/token/ERC20/ERC20.sol\":9991:10022  Approval(owner, spender, value) */\n          and\n          0x8c5be1e5ebec7d5bd14f71427d1e84f3dd0314c0f7b2291e5b200ac8c7c3b925\n            /* \"@openzeppelin/contracts/token/ERC20/ERC20.sol\":10016:10021  value */\n          dup5\n            /* \"@openzeppelin/contracts/token/ERC20/ERC20.sol\":9991:10022  Approval(owner, spender, value) */\n          mload(0x40)\n          tag_142\n          swap2\n            /* \"#utility.yul\":1258:1283   */\n          dup2\n          mstore\n            /* \"#utility.yul\":1246:1248   */\n          0x20\n            /* \"#utility.yul\":1231:1249   */\n          add\n          swap1\n            /* \"#utility.yul\":1112:1289   */\n          jump\n            /* \"@openzeppelin/contracts/token/ERC20/ERC20.sol\":9991:10022  Approval(owner, spender, value) */\n        tag_142:\n          mload(0x40)\n          dup1\n          swap2\n          sub\n          swap1\n          log3\n            /* \"@openzeppelin/contracts/token/ERC20/ERC20.sol\":9607:10039  function _approve(address owner, address spender, uint256 value, bool emitEvent) internal virtual {... */\n          pop\n          pop\n          pop\n          pop\n          jump\t// out\n            /* \"@openzeppelin/contracts/token/ERC20/ERC20.sol\":5912:7019  function _update(address from, address to, uint256 value) internal virtual {... */\n        tag_127:\n          sub(shl(0xa0, 0x01), 0x01)\n            /* \"@openzeppelin/contracts/token/ERC20/ERC20.sol\":6001:6019  from == address(0) */\n          dup4\n          and\n            /* \"@openzeppelin/contracts/token/ERC20/ERC20.sol\":5997:6537  if (from == address(0)) {... */\n          tag_144\n          jumpi\n            /* \"@openzeppelin/contracts/token/ERC20/ERC20.sol\":6153:6158  value */\n          dup1\n            /* \"@openzeppelin/contracts/token/ERC20/ERC20.sol\":6137:6149  _totalSupply */\n          0x02\n          0x00\n            /* \"@openzeppelin/contracts/token/ERC20/ERC20.sol\":6137:6158  _totalSupply += value */\n          dup3\n          dup3\n          sload\n          tag_145\n          swap2\n          swap1\n          tag_146\n          jump\t// in\n        tag_145:\n          swap1\n          swap2\n          sstore\n          pop\n            /* \"@openzeppelin/contracts/token/ERC20/ERC20.sol\":5997:6537  if (from == address(0)) {... */\n          tag_147\n          swap1\n          pop\n          jump\n        tag_144:\n          sub(shl(0xa0, 0x01), 0x01)\n            /* \"@openzeppelin/contracts/token/ERC20/ERC20.sol\":6211:6226  _balances[from] */\n          dup4\n          and\n            /* \"@openzeppelin/contracts/token/ERC20/ERC20.sol\":6189:6208  uint256 fromBalance */\n          0x00\n            /* \"@openzeppelin/contracts/token/ERC20/ERC20.sol\":6211:6226  _balances[from] */\n          swap1\n          dup2\n          mstore\n          0x20\n          dup2\n          swap1\n          mstore\n          0x40\n          swap1\n          keccak256\n          sload\n            /* \"@openzeppelin/contracts/token/ERC20/ERC20.sol\":6244:6263  fromBalance < value */\n          dup2\n          dup2\n          lt\n            /* \"@openzeppelin/contracts/token/ERC20/ERC20.sol\":6240:6355  if (fromBalance < value) {... */\n          iszero\n          tag_148\n          jumpi\n            /* \"@openzeppelin/contracts/token/ERC20/ERC20.sol\":6290:6340  ERC20InsufficientBalance(from, fromBalance, value) */\n          mload(0x40)\n          shl(0xe2, 0x391434e3)\n          dup2\n          mstore\n          sub(shl(0xa0, 0x01), 0x01)\n            /* \"#utility.yul\":3542:3574   */\n          dup6\n          and\n            /* \"@openzeppelin/contracts/token/ERC20/ERC20.sol\":6290:6340  ERC20InsufficientBalance(from, fromBalance, value) */\n          0x04\n          dup3\n          add\n            /* \"#utility.yul\":3524:3575   */\n          mstore\n            /* \"#utility.yul\":3591:3609   */\n          0x24\n          dup2\n          add\n            /* \"#utility.yul\":3584:3618   */\n          dup3\n          swap1\n          mstore\n            /* \"#utility.yul\":3634:3652   */\n          0x44\n          dup2\n          add\n            /* \"#utility.yul\":3627:3661   */\n          dup4\n          swap1\n          mstore\n            /* \"#utility.yul\":3497:3515   */\n          0x64\n          add\n            /* \"@openzeppelin/contracts/token/ERC20/ERC20.sol\":6290:6340  ERC20InsufficientBalance(from, fromBalance, value) */\n          tag_88\n            /* \"#utility.yul\":3322:3667   */\n          jump\n            /* \"@openzeppelin/contracts/token/ERC20/ERC20.sol\":6240:6355  if (fromBalance < value) {... */\n        tag_148:\n          sub(shl(0xa0, 0x01), 0x01)\n            /* \"@openzeppelin/contracts/token/ERC20/ERC20.sol\":6475:6490  _balances[from] */\n          dup5\n          and\n            /* \"@openzeppelin/contracts/token/ERC20/ERC20.sol\":6475:6484  _balances */\n          0x00\n            /* \"@openzeppelin/contracts/token/ERC20/ERC20.sol\":6475:6490  _balances[from] */\n          swap1\n          dup2\n          mstore\n          0x20\n          dup2\n          swap1\n          mstore\n          0x40\n          swap1\n          keccak256\n            /* \"@openzeppelin/contracts/token/ERC20/ERC20.sol\":6493:6512  fromBalance - value */\n          swap1\n          dup3\n          swap1\n          sub\n            /* \"@openzeppelin/contracts/token/ERC20/ERC20.sol\":6475:6512  _balances[from] = fromBalance - value */\n          swap1\n          sstore\n            /* \"@openzeppelin/contracts/token/ERC20/ERC20.sol\":5997:6537  if (from == address(0)) {... */\n        tag_147:\n          sub(shl(0xa0, 0x01), 0x01)\n            /* \"@openzeppelin/contracts/token/ERC20/ERC20.sol\":6551:6567  to == address(0) */\n          dup3\n          and\n            /* \"@openzeppelin/contracts/token/ERC20/ERC20.sol\":6547:6972  if (to == address(0)) {... */\n          tag_150\n          jumpi\n            /* \"@openzeppelin/contracts/token/ERC20/ERC20.sol\":6714:6726  _totalSupply */\n          0x02\n            /* \"@openzeppelin/contracts/token/ERC20/ERC20.sol\":6714:6735  _totalSupply -= value */\n          dup1\n          sload\n          dup3\n          swap1\n          sub\n          swap1\n          sstore\n            /* \"@openzeppelin/contracts/token/ERC20/ERC20.sol\":6547:6972  if (to == address(0)) {... */\n          jump(tag_151)\n        tag_150:\n          sub(shl(0xa0, 0x01), 0x01)\n            /* \"@openzeppelin/contracts/token/ERC20/ERC20.sol\":6925:6938  _balances[to] */\n          dup3\n          and\n            /* \"@openzeppelin/contracts/token/ERC20/ERC20.sol\":6925:6934  _balances */\n          0x00\n            /* \"@openzeppelin/contracts/token/ERC20/ERC20.sol\":6925:6938  _balances[to] */\n          swap1\n          dup2\n          mstore\n          0x20\n          dup2\n          swap1\n          mstore\n          0x40\n          swap1\n          keccak256\n            /* \"@openzeppelin/contracts/token/ERC20/ERC20.sol\":6925:6947  _balances[to] += value */\n          dup1\n          sload\n          dup3\n          add\n          swap1\n          sstore\n            /* \"@openzeppelin/contracts/token/ERC20/ERC20.sol\":6547:6972  if (to == address(0)) {... */\n        tag_151:\n            /* \"@openzeppelin/contracts/token/ERC20/ERC20.sol\":7002:7004  to */\n          dup2\n          sub(shl(0xa0, 0x01), 0x01)\n            /* \"@openzeppelin/contracts/token/ERC20/ERC20.sol\":6987:7012  Transfer(from, to, value) */\n          and\n            /* \"@openzeppelin/contracts/token/ERC20/ERC20.sol\":6996:7000  from */\n          dup4\n          sub(shl(0xa0, 0x01), 0x01)\n            /* \"@openzeppelin/contracts/token/ERC20/ERC20.sol\":6987:7012  Transfer(from, to, value) */\n          and\n          0xddf252ad1be2c89b69c2b068fc378daa952ba7f163c4a11628f55a4df523b3ef\n            /* \"@openzeppelin/contracts/token/ERC20/ERC20.sol\":7006:7011  value */\n          dup4\n            /* \"@openzeppelin/contracts/token/ERC20/ERC20.sol\":6987:7012  Transfer(from, to, value) */\n          mload(0x40)\n          tag_152\n          swap2\n            /* \"#utility.yul\":1258:1283   */\n          dup2\n          mstore\n            /* \"#utility.yul\":1246:1248   */\n          0x20\n            /* \"#utility.yul\":1231:1249   */\n          add\n          swap1\n            /* \"#utility.yul\":1112:1289   */\n          jump\n            /* \"@openzeppelin/contracts/token/ERC20/ERC20.sol\":6987:7012  Transfer(from, to, value) */\n        tag_152:\n          mload(0x40)\n          dup1\n          swap2\n          sub\n          swap1\n          log3\n            /* \"@openzeppelin/contracts/token/ERC20/ERC20.sol\":5912:7019  function _update(address from, address to, uint256 value) internal virtual {... */\n          pop\n          pop\n          pop\n          jump\t// out\n            /* \"#utility.yul\":14:432   */\n        tag_19:\n            /* \"#utility.yul\":163:165   */\n          0x20\n            /* \"#utility.yul\":152:161   */\n          dup2\n            /* \"#utility.yul\":145:166   */\n          mstore\n            /* \"#utility.yul\":126:130   */\n          0x00\n            /* \"#utility.yul\":195:201   */\n          dup3\n            /* \"#utility.yul\":189:202   */\n          mload\n            /* \"#utility.yul\":238:244   */\n          dup1\n            /* \"#utility.yul\":233:235   */\n          0x20\n            /* \"#utility.yul\":222:231   */\n          dup5\n            /* \"#utility.yul\":218:236   */\n          add\n            /* \"#utility.yul\":211:245   */\n          mstore\n            /* \"#utility.yul\":297:303   */\n          dup1\n            /* \"#utility.yul\":292:294   */\n          0x20\n            /* \"#utility.yul\":284:290   */\n          dup6\n            /* \"#utility.yul\":280:295   */\n          add\n            /* \"#utility.yul\":275:277   */\n          0x40\n            /* \"#utility.yul\":264:273   */\n          dup6\n            /* \"#utility.yul\":260:278   */\n          add\n            /* \"#utility.yul\":254:304   */\n          mcopy\n            /* \"#utility.yul\":353:354   */\n          0x00\n            /* \"#utility.yul\":348:350   */\n          0x40\n            /* \"#utility.yul\":339:345   */\n          dup3\n            /* \"#utility.yul\":328:337   */\n          dup6\n            /* \"#utility.yul\":324:346   */\n          add\n            /* \"#utility.yul\":320:351   */\n          add\n            /* \"#utility.yul\":313:355   */\n          mstore\n            /* \"#utility.yul\":423:425   */\n          0x40\n            /* \"#utility.yul\":416:418   */\n          0x1f\n            /* \"#utility.yul\":412:419   */\n          not\n            /* \"#utility.yul\":407:409   */\n          0x1f\n            /* \"#utility.yul\":399:405   */\n          dup4\n            /* \"#utility.yul\":395:410   */\n          add\n            /* \"#utility.yul\":391:420   */\n          and\n            /* \"#utility.yul\":380:389   */\n          dup5\n            /* \"#utility.yul\":376:421   */\n          add\n            /* \"#utility.yul\":372:426   */\n          add\n            /* \"#utility.yul\":364:426   */\n          swap2\n          pop\n          pop\n            /* \"#utility.yul\":14:432   */\n          swap3\n          swap2\n          pop\n          pop\n          jump\t// out\n            /* \"#utility.yul\":437:610   */\n        tag_153:\n            /* \"#utility.yul\":505:525   */\n          dup1\n          calldataload\n          sub(shl(0xa0, 0x01), 0x01)\n            /* \"#utility.yul\":554:585   */\n          dup2\n          and\n            /* \"#utility.yul\":544:586   */\n          dup2\n          eq\n            /* \"#utility.yul\":534:604   */\n          tag_157\n          jumpi\n            /* \"#utility.yul\":600:601   */\n          0x00\n            /* \"#utility.yul\":597:598   */\n          0x00\n            /* \"#utility.yul\":590:602   */\n          revert\n            /* \"#utility.yul\":534:604   */\n        tag_157:\n            /* \"#utility.yul\":437:610   */\n          swap2\n          swap1\n          pop\n          jump\t// out\n            /* \"#utility.yul\":615:915   */\n        tag_22:\n            /* \"#utility.yul\":683:689   */\n          0x00\n            /* \"#utility.yul\":691:697   */\n          0x00\n            /* \"#utility.yul\":744:746   */\n          0x40\n            /* \"#utility.yul\":732:741   */\n          dup4\n            /* \"#utility.yul\":723:730   */\n          dup6\n            /* \"#utility.yul\":719:742   */\n          sub\n            /* \"#utility.yul\":715:747   */\n          slt\n            /* \"#utility.yul\":712:764   */\n          iszero\n          tag_159\n          jumpi\n            /* \"#utility.yul\":760:761   */\n          0x00\n            /* \"#utility.yul\":757:758   */\n          0x00\n            /* \"#utility.yul\":750:762   */\n          revert\n            /* \"#utility.yul\":712:764   */\n        tag_159:\n            /* \"#utility.yul\":783:812   */\n          tag_160\n            /* \"#utility.yul\":802:811   */\n          dup4\n            /* \"#utility.yul\":783:812   */\n          tag_153\n          jump\t// in\n        tag_160:\n            /* \"#utility.yul\":773:812   */\n          swap5\n            /* \"#utility.yul\":881:883   */\n          0x20\n            /* \"#utility.yul\":866:884   */\n          swap4\n          swap1\n          swap4\n          add\n            /* \"#utility.yul\":853:885   */\n          calldataload\n          swap4\n          pop\n          pop\n          pop\n            /* \"#utility.yul\":615:915   */\n          jump\t// out\n            /* \"#utility.yul\":1294:1668   */\n        tag_32:\n            /* \"#utility.yul\":1371:1377   */\n          0x00\n            /* \"#utility.yul\":1379:1385   */\n          0x00\n            /* \"#utility.yul\":1387:1393   */\n          0x00\n            /* \"#utility.yul\":1440:1442   */\n          0x60\n            /* \"#utility.yul\":1428:1437   */\n          dup5\n            /* \"#utility.yul\":1419:1426   */\n          dup7\n            /* \"#utility.yul\":1415:1438   */\n          sub\n            /* \"#utility.yul\":1411:1443   */\n          slt\n            /* \"#utility.yul\":1408:1460   */\n          iszero\n          tag_164\n          jumpi\n            /* \"#utility.yul\":1456:1457   */\n          0x00\n            /* \"#utility.yul\":1453:1454   */\n          0x00\n            /* \"#utility.yul\":1446:1458   */\n          revert\n            /* \"#utility.yul\":1408:1460   */\n        tag_164:\n            /* \"#utility.yul\":1479:1508   */\n          tag_165\n            /* \"#utility.yul\":1498:1507   */\n          dup5\n            /* \"#utility.yul\":1479:1508   */\n          tag_153\n          jump\t// in\n        tag_165:\n            /* \"#utility.yul\":1469:1508   */\n          swap3\n          pop\n            /* \"#utility.yul\":1527:1565   */\n          tag_166\n            /* \"#utility.yul\":1561:1563   */\n          0x20\n            /* \"#utility.yul\":1550:1559   */\n          dup6\n            /* \"#utility.yul\":1546:1564   */\n          add\n            /* \"#utility.yul\":1527:1565   */\n          tag_153\n          jump\t// in\n        tag_166:\n            /* \"#utility.yul\":1294:1668   */\n          swap3\n          swap6\n            /* \"#utility.yul\":1517:1565   */\n          swap3\n          swap5\n          pop\n          pop\n          pop\n            /* \"#utility.yul\":1634:1636   */\n          0x40\n            /* \"#utility.yul\":1619:1637   */\n          swap2\n          swap1\n          swap2\n          add\n            /* \"#utility.yul\":1606:1638   */\n          calldataload\n          swap1\n            /* \"#utility.yul\":1294:1668   */\n          jump\t// out\n            /* \"#utility.yul\":1862:2048   */\n        tag_44:\n            /* \"#utility.yul\":1921:1927   */\n          0x00\n            /* \"#utility.yul\":1974:1976   */\n          0x20\n            /* \"#utility.yul\":1962:1971   */\n          dup3\n            /* \"#utility.yul\":1953:1960   */\n          dup5\n            /* \"#utility.yul\":1949:1972   */\n          sub\n            /* \"#utility.yul\":1945:1977   */\n          slt\n            /* \"#utility.yul\":1942:1994   */\n          iszero\n          tag_169\n          jumpi\n            /* \"#utility.yul\":1990:1991   */\n          0x00\n            /* \"#utility.yul\":1987:1988   */\n          0x00\n            /* \"#utility.yul\":1980:1992   */\n          revert\n            /* \"#utility.yul\":1942:1994   */\n        tag_169:\n            /* \"#utility.yul\":2013:2042   */\n          tag_170\n            /* \"#utility.yul\":2032:2041   */\n          dup3\n            /* \"#utility.yul\":2013:2042   */\n          tag_153\n          jump\t// in\n        tag_170:\n            /* \"#utility.yul\":2003:2042   */\n          swap4\n            /* \"#utility.yul\":1862:2048   */\n          swap3\n          pop\n          pop\n          pop\n          jump\t// out\n            /* \"#utility.yul\":2261:2521   */\n        tag_63:\n            /* \"#utility.yul\":2329:2335   */\n          0x00\n            /* \"#utility.yul\":2337:2343   */\n          0x00\n            /* \"#utility.yul\":2390:2392   */\n          0x40\n            /* \"#utility.yul\":2378:2387   */\n          dup4\n            /* \"#utility.yul\":2369:2376   */\n          dup6\n            /* \"#utility.yul\":2365:2388   */\n          sub\n            /* \"#utility.yul\":2361:2393   */\n          slt\n            /* \"#utility.yul\":2358:2410   */\n          iszero\n          tag_173\n          jumpi\n            /* \"#utility.yul\":2406:2407   */\n          0x00\n            /* \"#utility.yul\":2403:2404   */\n          0x00\n            /* \"#utility.yul\":2396:2408   */\n          revert\n            /* \"#utility.yul\":2358:2410   */\n        tag_173:\n            /* \"#utility.yul\":2429:2458   */\n          tag_174\n            /* \"#utility.yul\":2448:2457   */\n          dup4\n            /* \"#utility.yul\":2429:2458   */\n          tag_153\n          jump\t// in\n        tag_174:\n            /* \"#utility.yul\":2419:2458   */\n          swap2\n          pop\n            /* \"#utility.yul\":2477:2515   */\n          tag_175\n            /* \"#utility.yul\":2511:2513   */\n          0x20\n            /* \"#utility.yul\":2500:2509   */\n          dup5\n            /* \"#utility.yul\":2496:2514   */\n          add\n            /* \"#utility.yul\":2477:2515   */\n          tag_153\n          jump\t// in\n        tag_175:\n            /* \"#utility.yul\":2467:2515   */\n          swap1\n          pop\n            /* \"#utility.yul\":2261:2521   */\n          swap3\n          pop\n          swap3\n          swap1\n          pop\n          jump\t// out\n            /* \"#utility.yul\":2526:2906   */\n        tag_68:\n            /* \"#utility.yul\":2605:2606   */\n          0x01\n            /* \"#utility.yul\":2601:2613   */\n          dup2\n          dup2\n          shr\n          swap1\n            /* \"#utility.yul\":2648:2660   */\n          dup3\n          and\n          dup1\n            /* \"#utility.yul\":2669:2730   */\n          tag_177\n          jumpi\n            /* \"#utility.yul\":2723:2727   */\n          0x7f\n            /* \"#utility.yul\":2715:2721   */\n          dup3\n            /* \"#utility.yul\":2711:2728   */\n          and\n            /* \"#utility.yul\":2701:2728   */\n          swap2\n          pop\n            /* \"#utility.yul\":2669:2730   */\n        tag_177:\n            /* \"#utility.yul\":2776:2778   */\n          0x20\n            /* \"#utility.yul\":2768:2774   */\n          dup3\n            /* \"#utility.yul\":2765:2779   */\n          lt\n            /* \"#utility.yul\":2745:2763   */\n          dup2\n            /* \"#utility.yul\":2742:2780   */\n          sub\n            /* \"#utility.yul\":2739:2900   */\n          tag_178\n          jumpi\n            /* \"#utility.yul\":2822:2832   */\n          0x4e487b71\n            /* \"#utility.yul\":2817:2820   */\n          0xe0\n            /* \"#utility.yul\":2813:2833   */\n          shl\n            /* \"#utility.yul\":2810:2811   */\n          0x00\n            /* \"#utility.yul\":2803:2834   */\n          mstore\n            /* \"#utility.yul\":2857:2861   */\n          0x22\n            /* \"#utility.yul\":2854:2855   */\n          0x04\n            /* \"#utility.yul\":2847:2862   */\n          mstore\n            /* \"#utility.yul\":2885:2889   */\n          0x24\n            /* \"#utility.yul\":2882:2883   */\n          0x00\n            /* \"#utility.yul\":2875:2890   */\n          revert\n            /* \"#utility.yul\":2739:2900   */\n        tag_178:\n          pop\n            /* \"#utility.yul\":2526:2906   */\n          swap2\n          swap1\n          pop\n          jump\t// out\n            /* \"#utility.yul\":2911:3317   */\n        tag_89:\n            /* \"#utility.yul\":3113:3115   */\n          0x20\n            /* \"#utility.yul\":3095:3116   */\n          dup1\n          dup3\n          mstore\n            /* \"#utility.yul\":3152:3154   */\n          0x2a\n            /* \"#utility.yul\":3132:3150   */\n          swap1\n          dup3\n          add\n            /* \"#utility.yul\":3125:3155   */\n          mstore\n            /* \"#utility.yul\":3191:3225   */\n          0x4e6f206175746f72697a61646f3a20736f6c6f20656c2073697374656d612064\n            /* \"#utility.yul\":3186:3188   */\n          0x40\n            /* \"#utility.yul\":3171:3189   */\n          dup3\n          add\n            /* \"#utility.yul\":3164:3226   */\n          mstore\n          shl(0xb1, 0x32903b37ba30b1b4b7b7)\n            /* \"#utility.yul\":3257:3259   */\n          0x60\n            /* \"#utility.yul\":3242:3260   */\n          dup3\n          add\n            /* \"#utility.yul\":3235:3275   */\n          mstore\n            /* \"#utility.yul\":3307:3310   */\n          0x80\n            /* \"#utility.yul\":3292:3311   */\n          add\n          swap1\n            /* \"#utility.yul\":2911:3317   */\n          jump\t// out\n            /* \"#utility.yul\":3672:3894   */\n        tag_146:\n            /* \"#utility.yul\":3737:3746   */\n          dup1\n          dup3\n          add\n            /* \"#utility.yul\":3758:3768   */\n          dup1\n          dup3\n          gt\n            /* \"#utility.yul\":3755:3888   */\n          iszero\n          tag_73\n          jumpi\n            /* \"#utility.yul\":3810:3820   */\n          0x4e487b71\n            /* \"#utility.yul\":3805:3808   */\n          0xe0\n            /* \"#utility.yul\":3801:3821   */\n          shl\n            /* \"#utility.yul\":3798:3799   */\n          0x00\n            /* \"#utility.yul\":3791:3822   */\n          mstore\n            /* \"#utility.yul\":3845:3849   */\n          0x11\n            /* \"#utility.yul\":3842:3843   */\n          0x04\n            /* \"#utility.yul\":3835:3850   */\n          mstore\n            /* \"#utility.yul\":3873:3877   */\n          0x24\n            /* \"#utility.yul\":3870:3871   */\n          0x00\n            /* \"#utility.yul\":3863:3878   */\n          revert\n\n        auxdata: 0xa2646970667358221220c8adfbed651297e45261e9e98487e0266ccd75226d91c9eb754095a73c67f3af64736f6c634300081f0033\n    }\n}\n",
				"bytecode": {
					"linkReferences": {},
					"object": "608060405234801561000f575f5ffd5b5060405161290438038061290483398101604081905261002e916100da565b5f80546001600160a01b031916331790556002829055604051610050906100cd565b6040808252600990820152682220a7902a37b5b2b760b91b60608201526080602082018190526003908201526211159560ea1b60a082015260c001604051809103905ff0801580156100a4573d5f5f3e3d5ffd5b50600180546001600160a01b0319166001600160a01b0392909216919091179055506100fc9050565b610b2d80611dd783390190565b5f5f604083850312156100eb575f5ffd5b505080516020909101519092909150565b611cce806101095f395ff3fe608060405260043610610110575f3560e01c80638da5cb5b1161009d578063c78da39a11610062578063c78da39a146102fe578063d0febe4c14610313578063da52a95f1461031b578063fc0c546a14610330578063fffefd911461034f575f5ffd5b80638da5cb5b1461026d578063929066f51461028b578063a95824b4146102c9578063affc0670146102e2578063c631b292146102ea575f5ffd5b80634ece90a8116100e35780634ece90a8146101be578063649c649c146101ef5780636c11bcd3146102105780637b0472f01461022f57806384f282391461024e575f5ffd5b8063013cf08b1461011457806305d0f15b146101505780632e60338a146101735780634e76a846146101a9575b5f5ffd5b34801561011f575f5ffd5b5061013361012e36600461171f565b610357565b604051610147989796959493929190611778565b60405180910390f35b34801561015b575f5ffd5b5061016560025481565b604051908152602001610147565b34801561017e575f5ffd5b5061016561018d36600461180b565b600960209081525f928352604080842090915290825290205481565b3480156101b4575f5ffd5b5061016560055481565b3480156101c9575f5ffd5b506001546001600160a01b03165b6040516001600160a01b039091168152602001610147565b3480156101fa575f5ffd5b5061020e610209366004611835565b610432565b005b34801561021b575f5ffd5b5061020e61022a36600461171f565b61064e565b34801561023a575f5ffd5b5061020e610249366004611835565b6107fb565b348015610259575f5ffd5b50610165610268366004611869565b610a92565b348015610278575f5ffd5b505f546101d7906001600160a01b031681565b348015610296575f5ffd5b506102b96102a5366004611932565b600b6020525f908152604090205460ff1681565b6040519015158152602001610147565b3480156102d4575f5ffd5b506004546102b99060ff1681565b61020e610d25565b3480156102f5575f5ffd5b5061020e610dd9565b348015610309575f5ffd5b5061016560035481565b61020e61105d565b348015610326575f5ffd5b5061016560065481565b34801561033b575f5ffd5b506001546101d7906001600160a01b031681565b61020e611122565b60086020525f90815260409020805481906103719061194b565b80601f016020809104026020016040519081016040528092919081815260200182805461039d9061194b565b80156103e85780601f106103bf576101008083540402835291602001916103e8565b820191905f5260205f20905b8154815290600101906020018083116103cb57829003601f168201915b5050506001840154600285015460038601546004870154600590970154959692956001600160a01b03808416965060ff600160a01b94859004811696509294939082169291041688565b5f82815260086020526040812090600282810154600160a01b900460ff169081111561046057610460611764565b146104a15760405162461bcd60e51b815260206004820152600c60248201526b4e6f2070656e6469656e746560a01b60448201526064015b60405180910390fd5b5f8381526009602090815260408083203384529091529020548211156104ff5760405162461bcd60e51b8152602060048201526013602482015272566f746f7320696e737566696369656e74657360681b6044820152606401610498565b5f838152600960209081526040808320338452909152812054906105238483611997565b90505f61053082806119aa565b61053a84806119aa565b6105449190611997565b5f87815260096020908152604080832033845290915281208490556003860180549293508792909190610578908490611997565b9250508190555080846004015f8282546105929190611997565b909155505060015460405163a9059cbb60e01b8152336004820152602481018390526001600160a01b039091169063a9059cbb906044016020604051808303815f875af11580156105e5573d5f5f3e3d5ffd5b505050506040513d601f19601f8201168201806040525081019061060991906119c1565b6106465760405162461bcd60e51b815260206004820152600e60248201526d22b93937b9103a3930b739b332b960911b6044820152606401610498565b505050505050565b6001546040516370a0823160e01b815233600482015282916001600160a01b0316906370a0823190602401602060405180830381865afa158015610694573d5f5f3e3d5ffd5b505050506040513d601f19601f820116820180604052508101906106b891906119e7565b10156106fd5760405162461bcd60e51b8152602060048201526014602482015273466f6e646f7320696e737566696369656e74657360601b6044820152606401610498565b5f6002548261070c91906119aa565b600154604051632770a7eb60e21b8152336004820152602481018590529192506001600160a01b031690639dc29fac906044015f604051808303815f87803b158015610756575f5ffd5b505af1158015610768573d5f5f3e3d5ffd5b50506040515f925033915083908381818185875af1925050503d805f81146107ab576040519150601f19603f3d011682016040523d82523d5f602084013e6107b0565b606091505b50509050806107f65760405162461bcd60e51b81526020600482015260126024820152714572726f7220656e207265656d626f6c736f60701b6044820152606401610498565b505050565b60045460ff166108405760405162461bcd60e51b815260206004820152601060248201526f566f746163696f6e206365727261646160801b6044820152606401610498565b5f82815260086020526040812090600282810154600160a01b900460ff169081111561086e5761086e611764565b146108b15760405162461bcd60e51b815260206004820152601360248201527250726f707565737461206e6f2061637469766160681b6044820152606401610498565b5f838152600960209081526040808320338452909152812054906108d584836119fe565b90505f6108e3600284611af4565b6108ee600284611af4565b6108f89190611997565b6001546040516323b872dd60e01b8152336004820152306024820152604481018390529192506001600160a01b0316906323b872dd906064016020604051808303815f875af115801561094d573d5f5f3e3d5ffd5b505050506040513d601f19601f8201168201806040525081019061097191906119c1565b6109b65760405162461bcd60e51b815260206004820152601660248201527546616c6c6f20656e207472616e73666572656e63696160501b6044820152606401610498565b825f036109eb575f868152600a602090815260408220805460018101825590835291200180546001600160a01b031916331790555b5f8681526009602090815260408083203384529091528120839055600385018054879290610a1a9084906119fe565b9250508190555080846004015f828254610a3491906119fe565b90915550506040805186815260208101839052339188917f0271f53eebbe20450d9578f28ec279231556c34545b30e2278d754ffd39cd63c910160405180910390a36005840154600160a01b900460ff16610646576106468661129b565b6004545f9060ff16610ae65760405162461bcd60e51b815260206004820152601b60248201527f4c6120766f746163696f6e206e6f2065737461206162696572746100000000006044820152606401610498565b335f908152600b602052604090205460ff16610b395760405162461bcd60e51b8152602060048201526012602482015271536f6c6f207061727469636970616e74657360701b6044820152606401610498565b610b536001600160a01b03831663986cc31160e01b611537565b610b975760405162461bcd60e51b8152602060048201526015602482015274496e74657266617a206e6f20736f706f727461646160581b6044820152606401610498565b600780545f9182610ba783611b02565b90915550604080516101008101825287815260208082018890526001600160a01b038716828401525f606083018190526080830181905260a083018190523360c0840152881560e08401819052858252600890925292909220815193945091929091908190610c169082611b5e565b50602082015160018201556040820151600280830180546001600160a01b039093166001600160a01b031984168117825560608601519391926001600160a81b03199092161790600160a01b908490811115610c7457610c74611764565b02179055506080820151600382015560a0820151600482015560c08201516005909101805460e0909301511515600160a01b026001600160a81b03199093166001600160a01b039092169190911791909117905580610ce25760068054905f610cdc83611b02565b91905055505b817ff5dc0da9afa6d080780a49fd8c680f03d2ddf3c067cd6d0c85360c096644d2d38787604051610d14929190611c19565b60405180910390a250949350505050565b5f546001600160a01b03163314610d7e5760405162461bcd60e51b815260206004820152601b60248201527f536f6c6f20656c2063726561646f7220707565646520616272697200000000006044820152606401610498565b6004805460ff19166001179055600380543491905f90610d9f9084906119fe565b90915550506040513481527fe0a358d4a766346f1ece85d22e2197435d610d9638874a0fd6746e58a1b1f58a9060200160405180910390a1565b5f546001600160a01b03163314610e1f5760405162461bcd60e51b815260206004820152600a60248201526929b7b6379037bbb732b960b11b6044820152606401610498565b60045460ff16610e5e5760405162461bcd60e51b815260206004820152600a6024820152695961206365727261646160b01b6044820152606401610498565b6004805460ff191690555f5b600754811015610fb5575f8181526008602052604090206005810154600160a01b900460ff1615610f545760028101546003820154600483015460405160248101869052604481019290925260648201526001600160a01b0390911690620186a09060840160408051601f198184030181529181526020820180516001600160e01b031663986cc31160e01b17905251610f049190611c3a565b5f604051808303815f8787f1925050503d805f8114610f3e576040519150601f19603f3d011682016040523d82523d5f602084013e610f43565b606091505b505050610f4f8261155b565b610fac565b5f600282810154600160a01b900460ff1690811115610f7557610f75611764565b03610fac5760028101805460ff60a01b1916600160a11b17905560068054905f610f9e83611c50565b9190505550610fac8261155b565b50600101610e6a565b50600380545f909155801561105a575f80546040516001600160a01b039091169083908381818185875af1925050503d805f811461100e576040519150601f19603f3d011682016040523d82523d5f602084013e611013565b606091505b50509050806110585760405162461bcd60e51b815260206004820152601160248201527022b93937b9103634b8bab4b230b1b4b7b760791b6044820152606401610498565b505b50565b335f908152600b602052604090205460ff166110b05760405162461bcd60e51b8152602060048201526012602482015271496e7363726962617365207072696d65726f60701b6044820152606401610498565b5f600254346110bf9190611c65565b6001546040516340c10f1960e01b8152336004820152602481018390529192506001600160a01b0316906340c10f19906044015f604051808303815f87803b158015611109575f5ffd5b505af115801561111b573d5f5f3e3d5ffd5b5050505050565b335f908152600b602052604090205460ff16156111765760405162461bcd60e51b81526020600482015260126024820152715961206573207061727469636970616e746560701b6044820152606401610498565b6002543410156111c85760405162461bcd60e51b815260206004820152601e60248201527f4465626520636f6d7072617220616c206d656e6f7320756e20746f6b656e00006044820152606401610498565b335f908152600b60205260408120805460ff1916600117905560058054916111ef83611b02565b91905055505f600254346112039190611c65565b6001546040516340c10f1960e01b8152336004820152602481018390529192506001600160a01b0316906340c10f19906044015f604051808303815f87803b15801561124d575f5ffd5b505af115801561125f573d5f5f3e3d5ffd5b50506040518381523392507f287ab65235aa9a0baeed5b973fda48c77ebdc6f3dd931cfda1c082c0aecc1e73915060200160405180910390a250565b5f81815260086020526040812060035460018201549192916112be90600a6119aa565b6112c89190611c65565b6112d39060026119fe565b90505f600a6006546005546112e891906119fe565b6112f290846119aa565b6112fc9190611c65565b90508083600301541180156113175750826001015460035410155b156115315760028301805460ff60a01b1916600160a01b17905560068054905f61134083611c50565b9190505550600254836004015461135791906119aa565b60035f82825461136791906119fe565b90915550506001830154600380545f90611382908490611997565b9091555050600154600484810154604051632770a7eb60e21b8152309281019290925260248201526001600160a01b0390911690639dc29fac906044015f604051808303815f87803b1580156113d6575f5ffd5b505af11580156113e8573d5f5f3e3d5ffd5b50505050600283015460018401546003850154600486015460405160248101899052604481019290925260648201525f926001600160a01b031691620186a09160840160408051601f198184030181529181526020820180516001600160e01b031663986cc31160e01b179052516114609190611c3a565b5f60405180830381858888f193505050503d805f811461149b576040519150601f19603f3d011682016040523d82523d5f602084013e6114a0565b606091505b50509050806114f15760405162461bcd60e51b815260206004820152601d60248201527f46616c6c6f20656e206c6120656a65637563696f6e2065787465726e610000006044820152606401610498565b847fc6a4fd4a703d2a2fe3167ce7f6d62bf96458b7e55042cfaa85d5c7ef3ac56eea856001015460405161152791815260200190565b60405180910390a2505b50505050565b5f61154183611679565b8015611552575061155283836116c7565b90505b92915050565b5f818152600a60205260408120905b81548110156107f6575f82828154811061158657611586611c84565b5f9182526020808320909101548683526009825260408084206001600160a01b0390921680855291909252912054909150801561166f575f6115c882806119aa565b5f8781526009602090815260408083206001600160a01b038089168552925280832092909255600154915163a9059cbb60e01b8152929350169063a9059cbb9061162c90869085906004016001600160a01b03929092168252602082015260400190565b6020604051808303815f875af1158015611648573d5f5f3e3d5ffd5b505050506040513d601f19601f8201168201806040525081019061166c91906119c1565b50505b505060010161156a565b5f61168b826301ffc9a760e01b6116c7565b156116bb575f806116a4846001600160e01b03196116eb565b915091508180156116b3575080155b949350505050565b505f919050565b919050565b5f5f5f6116d485856116eb565b915091508180156116e25750805b95945050505050565b6301ffc9a760e01b5f818152600483905290819060208260248188617530fa92505f511515601f3d11169150509250929050565b5f6020828403121561172f575f5ffd5b5035919050565b5f81518084528060208401602086015e5f602082860101526020601f19601f83011685010191505092915050565b634e487b7160e01b5f52602160045260245ffd5b61010081525f61178c61010083018b611736565b602083018a90526001600160a01b03891660408401529050600387106117c057634e487b7160e01b5f52602160045260245ffd5b6060820196909652608081019490945260a08401929092526001600160a01b031660c0830152151560e0909101529392505050565b80356001600160a01b03811681146116c2575f5ffd5b5f5f6040838503121561181c575f5ffd5b8235915061182c602084016117f5565b90509250929050565b5f5f60408385031215611846575f5ffd5b50508035926020909101359150565b634e487b7160e01b5f52604160045260245ffd5b5f5f5f6060848603121561187b575f5ffd5b833567ffffffffffffffff811115611891575f5ffd5b8401601f810186136118a1575f5ffd5b803567ffffffffffffffff8111156118bb576118bb611855565b604051601f8201601f19908116603f0116810167ffffffffffffffff811182821017156118ea576118ea611855565b604052818152828201602001881015611901575f5ffd5b816020840160208301375f6020928201830152945085013592506119299050604085016117f5565b90509250925092565b5f60208284031215611942575f5ffd5b611552826117f5565b600181811c9082168061195f57607f821691505b60208210810361197d57634e487b7160e01b5f52602260045260245ffd5b50919050565b634e487b7160e01b5f52601160045260245ffd5b8181038181111561155557611555611983565b808202811582820484141761155557611555611983565b5f602082840312156119d1575f5ffd5b815180151581146119e0575f5ffd5b9392505050565b5f602082840312156119f7575f5ffd5b5051919050565b8082018082111561155557611555611983565b6001815b6001841115611a4c57808504811115611a3057611a30611983565b6001841615611a3e57908102905b60019390931c928002611a15565b935093915050565b5f82611a6257506001611555565b81611a6e57505f611555565b8160018114611a845760028114611a8e57611aaa565b6001915050611555565b60ff841115611a9f57611a9f611983565b50506001821b611555565b5060208310610133831016604e8410600b8410161715611acd575081810a611555565b611ad95f198484611a11565b805f1904821115611aec57611aec611983565b029392505050565b5f61155260ff841683611a54565b5f60018201611b1357611b13611983565b5060010190565b601f8211156107f657805f5260205f20601f840160051c81016020851015611b3f5750805b601f840160051c820191505b8181101561111b575f8155600101611b4b565b815167ffffffffffffffff811115611b7857611b78611855565b611b8c81611b86845461194b565b84611b1a565b6020601f821160018114611bbe575f8315611ba75750848201515b5f19600385901b1c1916600184901b17845561111b565b5f84815260208120601f198516915b82811015611bed5787850151825560209485019460019092019101611bcd565b5084821015611c0a57868401515f19600387901b60f8161c191681555b50505050600190811b01905550565b604081525f611c2b6040830185611736565b90508260208301529392505050565b5f82518060208501845e5f920191825250919050565b5f81611c5e57611c5e611983565b505f190190565b5f82611c7f57634e487b7160e01b5f52601260045260245ffd5b500490565b634e487b7160e01b5f52603260045260245ffdfea2646970667358221220457ffa22f73b6925947cbaab6173e871bd18da6ad9bfd672e8973f55a47755c564736f6c634300081f0033608060405234801561000f575f5ffd5b50604051610b2d380380610b2d83398101604081905261002e91610103565b8181600361003c83826101ec565b50600461004982826101ec565b5050600580546001600160a01b03191633179055506102a6915050565b634e487b7160e01b5f52604160045260245ffd5b5f82601f830112610089575f5ffd5b81516001600160401b038111156100a2576100a2610066565b604051601f8201601f19908116603f011681016001600160401b03811182821017156100d0576100d0610066565b6040528181528382016020018510156100e7575f5ffd5b8160208501602083015e5f918101602001919091529392505050565b5f5f60408385031215610114575f5ffd5b82516001600160401b03811115610129575f5ffd5b6101358582860161007a565b602085015190935090506001600160401b03811115610152575f5ffd5b61015e8582860161007a565b9150509250929050565b600181811c9082168061017c57607f821691505b60208210810361019a57634e487b7160e01b5f52602260045260245ffd5b50919050565b601f8211156101e757805f5260205f20601f840160051c810160208510156101c55750805b601f840160051c820191505b818110156101e4575f81556001016101d1565b50505b505050565b81516001600160401b0381111561020557610205610066565b610219816102138454610168565b846101a0565b6020601f82116001811461024b575f83156102345750848201515b5f19600385901b1c1916600184901b1784556101e4565b5f84815260208120601f198516915b8281101561027a578785015182556020948501946001909201910161025a565b508482101561029757868401515f19600387901b60f8161c191681555b50505050600190811b01905550565b61087a806102b35f395ff3fe608060405234801561000f575f5ffd5b50600436106100b1575f3560e01c806370a082311161006e57806370a082311461013f57806395d89b41146101675780639dc29fac1461016f578063a9059cbb14610182578063c1fc006a14610195578063dd62ed3e146101c0575f5ffd5b806306fdde03146100b5578063095ea7b3146100d357806318160ddd146100f657806323b872dd14610108578063313ce5671461011b57806340c10f191461012a575b5f5ffd5b6100bd6101f8565b6040516100ca91906106a0565b60405180910390f35b6100e66100e13660046106f0565b610288565b60405190151581526020016100ca565b6002545b6040519081526020016100ca565b6100e6610116366004610718565b6102a1565b604051601281526020016100ca565b61013d6101383660046106f0565b6102c4565b005b6100fa61014d366004610752565b6001600160a01b03165f9081526020819052604090205490565b6100bd610305565b61013d61017d3660046106f0565b610314565b6100e66101903660046106f0565b610348565b6005546101a8906001600160a01b031681565b6040516001600160a01b0390911681526020016100ca565b6100fa6101ce366004610772565b6001600160a01b039182165f90815260016020908152604080832093909416825291909152205490565b606060038054610207906107a3565b80601f0160208091040260200160405190810160405280929190818152602001828054610233906107a3565b801561027e5780601f106102555761010080835404028352916020019161027e565b820191905f5260205f20905b81548152906001019060200180831161026157829003601f168201915b5050505050905090565b5f33610295818585610355565b60019150505b92915050565b5f336102ae858285610367565b6102b98585856103e3565b506001949350505050565b6005546001600160a01b031633146102f75760405162461bcd60e51b81526004016102ee906107db565b60405180910390fd5b6103018282610440565b5050565b606060048054610207906107a3565b6005546001600160a01b0316331461033e5760405162461bcd60e51b81526004016102ee906107db565b6103018282610474565b5f336102958185856103e3565b61036283838360016104a8565b505050565b6001600160a01b038381165f908152600160209081526040808320938616835292905220545f198110156103dd57818110156103cf57604051637dc7a0d960e11b81526001600160a01b038416600482015260248101829052604481018390526064016102ee565b6103dd84848484035f6104a8565b50505050565b6001600160a01b03831661040c57604051634b637e8f60e11b81525f60048201526024016102ee565b6001600160a01b0382166104355760405163ec442f0560e01b81525f60048201526024016102ee565b61036283838361057a565b6001600160a01b0382166104695760405163ec442f0560e01b81525f60048201526024016102ee565b6103015f838361057a565b6001600160a01b03821661049d57604051634b637e8f60e11b81525f60048201526024016102ee565b610301825f8361057a565b6001600160a01b0384166104d15760405163e602df0560e01b81525f60048201526024016102ee565b6001600160a01b0383166104fa57604051634a1406b160e11b81525f60048201526024016102ee565b6001600160a01b038085165f90815260016020908152604080832093871683529290522082905580156103dd57826001600160a01b0316846001600160a01b03167f8c5be1e5ebec7d5bd14f71427d1e84f3dd0314c0f7b2291e5b200ac8c7c3b9258460405161056c91815260200190565b60405180910390a350505050565b6001600160a01b0383166105a4578060025f8282546105999190610825565b909155506106149050565b6001600160a01b0383165f90815260208190526040902054818110156105f65760405163391434e360e21b81526001600160a01b038516600482015260248101829052604481018390526064016102ee565b6001600160a01b0384165f9081526020819052604090209082900390555b6001600160a01b0382166106305760028054829003905561064e565b6001600160a01b0382165f9081526020819052604090208054820190555b816001600160a01b0316836001600160a01b03167fddf252ad1be2c89b69c2b068fc378daa952ba7f163c4a11628f55a4df523b3ef8360405161069391815260200190565b60405180910390a3505050565b602081525f82518060208401528060208501604085015e5f604082850101526040601f19601f83011684010191505092915050565b80356001600160a01b03811681146106eb575f5ffd5b919050565b5f5f60408385031215610701575f5ffd5b61070a836106d5565b946020939093013593505050565b5f5f5f6060848603121561072a575f5ffd5b610733846106d5565b9250610741602085016106d5565b929592945050506040919091013590565b5f60208284031215610762575f5ffd5b61076b826106d5565b9392505050565b5f5f60408385031215610783575f5ffd5b61078c836106d5565b915061079a602084016106d5565b90509250929050565b600181811c908216806107b757607f821691505b6020821081036107d557634e487b7160e01b5f52602260045260245ffd5b50919050565b6020808252602a908201527f4e6f206175746f72697a61646f3a20736f6c6f20656c2073697374656d61206460408201526932903b37ba30b1b4b7b760b11b606082015260800190565b8082018082111561029b57634e487b7160e01b5f52601160045260245ffdfea2646970667358221220c8adfbed651297e45261e9e98487e0266ccd75226d91c9eb754095a73c67f3af64736f6c634300081f0033",
					"opcodes": "PUSH1 0x80 PUSH1 0x40 MSTORE CALLVALUE DUP1 ISZERO PUSH2 0xF JUMPI PUSH0 PUSH0 REVERT JUMPDEST POP PUSH1 0x40 MLOAD PUSH2 0x2904 CODESIZE SUB DUP1 PUSH2 0x2904 DUP4 CODECOPY DUP2 ADD PUSH1 0x40 DUP2 SWAP1 MSTORE PUSH2 0x2E SWAP2 PUSH2 0xDA JUMP JUMPDEST PUSH0 DUP1 SLOAD PUSH1 0x1 PUSH1 0x1 PUSH1 0xA0 SHL SUB NOT AND CALLER OR SWAP1 SSTORE PUSH1 0x2 DUP3 SWAP1 SSTORE PUSH1 0x40 MLOAD PUSH2 0x50 SWAP1 PUSH2 0xCD JUMP JUMPDEST PUSH1 0x40 DUP1 DUP3 MSTORE PUSH1 0x9 SWAP1 DUP3 ADD MSTORE PUSH9 0x2220A7902A37B5B2B7 PUSH1 0xB9 SHL PUSH1 0x60 DUP3 ADD MSTORE PUSH1 0x80 PUSH1 0x20 DUP3 ADD DUP2 SWAP1 MSTORE PUSH1 0x3 SWAP1 DUP3 ADD MSTORE PUSH3 0x111595 PUSH1 0xEA SHL PUSH1 0xA0 DUP3 ADD MSTORE PUSH1 0xC0 ADD PUSH1 0x40 MLOAD DUP1 SWAP2 SUB SWAP1 PUSH0 CREATE DUP1 ISZERO DUP1 ISZERO PUSH2 0xA4 JUMPI RETURNDATASIZE PUSH0 PUSH0 RETURNDATACOPY RETURNDATASIZE PUSH0 REVERT JUMPDEST POP PUSH1 0x1 DUP1 SLOAD PUSH1 0x1 PUSH1 0x1 PUSH1 0xA0 SHL SUB NOT AND PUSH1 0x1 PUSH1 0x1 PUSH1 0xA0 SHL SUB SWAP3 SWAP1 SWAP3 AND SWAP2 SWAP1 SWAP2 OR SWAP1 SSTORE POP PUSH2 0xFC SWAP1 POP JUMP JUMPDEST PUSH2 0xB2D DUP1 PUSH2 0x1DD7 DUP4 CODECOPY ADD SWAP1 JUMP JUMPDEST PUSH0 PUSH0 PUSH1 0x40 DUP4 DUP6 SUB SLT ISZERO PUSH2 0xEB JUMPI PUSH0 PUSH0 REVERT JUMPDEST POP POP DUP1 MLOAD PUSH1 0x20 SWAP1 SWAP2 ADD MLOAD SWAP1 SWAP3 SWAP1 SWAP2 POP JUMP JUMPDEST PUSH2 0x1CCE DUP1 PUSH2 0x109 PUSH0 CODECOPY PUSH0 RETURN INVALID PUSH1 0x80 PUSH1 0x40 MSTORE PUSH1 0x4 CALLDATASIZE LT PUSH2 0x110 JUMPI PUSH0 CALLDATALOAD PUSH1 0xE0 SHR DUP1 PUSH4 0x8DA5CB5B GT PUSH2 0x9D JUMPI DUP1 PUSH4 0xC78DA39A GT PUSH2 0x62 JUMPI DUP1 PUSH4 0xC78DA39A EQ PUSH2 0x2FE JUMPI DUP1 PUSH4 0xD0FEBE4C EQ PUSH2 0x313 JUMPI DUP1 PUSH4 0xDA52A95F EQ PUSH2 0x31B JUMPI DUP1 PUSH4 0xFC0C546A EQ PUSH2 0x330 JUMPI DUP1 PUSH4 0xFFFEFD91 EQ PUSH2 0x34F JUMPI PUSH0 PUSH0 REVERT JUMPDEST DUP1 PUSH4 0x8DA5CB5B EQ PUSH2 0x26D JUMPI DUP1 PUSH4 0x929066F5 EQ PUSH2 0x28B JUMPI DUP1 PUSH4 0xA95824B4 EQ PUSH2 0x2C9 JUMPI DUP1 PUSH4 0xAFFC0670 EQ PUSH2 0x2E2 JUMPI DUP1 PUSH4 0xC631B292 EQ PUSH2 0x2EA JUMPI PUSH0 PUSH0 REVERT JUMPDEST DUP1 PUSH4 0x4ECE90A8 GT PUSH2 0xE3 JUMPI DUP1 PUSH4 0x4ECE90A8 EQ PUSH2 0x1BE JUMPI DUP1 PUSH4 0x649C649C EQ PUSH2 0x1EF JUMPI DUP1 PUSH4 0x6C11BCD3 EQ PUSH2 0x210 JUMPI DUP1 PUSH4 0x7B0472F0 EQ PUSH2 0x22F JUMPI DUP1 PUSH4 0x84F28239 EQ PUSH2 0x24E JUMPI PUSH0 PUSH0 REVERT JUMPDEST DUP1 PUSH4 0x13CF08B EQ PUSH2 0x114 JUMPI DUP1 PUSH4 0x5D0F15B EQ PUSH2 0x150 JUMPI DUP1 PUSH4 0x2E60338A EQ PUSH2 0x173 JUMPI DUP1 PUSH4 0x4E76A846 EQ PUSH2 0x1A9 JUMPI JUMPDEST PUSH0 PUSH0 REVERT JUMPDEST CALLVALUE DUP1 ISZERO PUSH2 0x11F JUMPI PUSH0 PUSH0 REVERT JUMPDEST POP PUSH2 0x133 PUSH2 0x12E CALLDATASIZE PUSH1 0x4 PUSH2 0x171F JUMP JUMPDEST PUSH2 0x357 JUMP JUMPDEST PUSH1 0x40 MLOAD PUSH2 0x147 SWAP9 SWAP8 SWAP7 SWAP6 SWAP5 SWAP4 SWAP3 SWAP2 SWAP1 PUSH2 0x1778 JUMP JUMPDEST PUSH1 0x40 MLOAD DUP1 SWAP2 SUB SWAP1 RETURN JUMPDEST CALLVALUE DUP1 ISZERO PUSH2 0x15B JUMPI PUSH0 PUSH0 REVERT JUMPDEST POP PUSH2 0x165 PUSH1 0x2 SLOAD DUP2 JUMP JUMPDEST PUSH1 0x40 MLOAD SWAP1 DUP2 MSTORE PUSH1 0x20 ADD PUSH2 0x147 JUMP JUMPDEST CALLVALUE DUP1 ISZERO PUSH2 0x17E JUMPI PUSH0 PUSH0 REVERT JUMPDEST POP PUSH2 0x165 PUSH2 0x18D CALLDATASIZE PUSH1 0x4 PUSH2 0x180B JUMP JUMPDEST PUSH1 0x9 PUSH1 0x20 SWAP1 DUP2 MSTORE PUSH0 SWAP3 DUP4 MSTORE PUSH1 0x40 DUP1 DUP5 KECCAK256 SWAP1 SWAP2 MSTORE SWAP1 DUP3 MSTORE SWAP1 KECCAK256 SLOAD DUP2 JUMP JUMPDEST CALLVALUE DUP1 ISZERO PUSH2 0x1B4 JUMPI PUSH0 PUSH0 REVERT JUMPDEST POP PUSH2 0x165 PUSH1 0x5 SLOAD DUP2 JUMP JUMPDEST CALLVALUE DUP1 ISZERO PUSH2 0x1C9 JUMPI PUSH0 PUSH0 REVERT JUMPDEST POP PUSH1 0x1 SLOAD PUSH1 0x1 PUSH1 0x1 PUSH1 0xA0 SHL SUB AND JUMPDEST PUSH1 0x40 MLOAD PUSH1 0x1 PUSH1 0x1 PUSH1 0xA0 SHL SUB SWAP1 SWAP2 AND DUP2 MSTORE PUSH1 0x20 ADD PUSH2 0x147 JUMP JUMPDEST CALLVALUE DUP1 ISZERO PUSH2 0x1FA JUMPI PUSH0 PUSH0 REVERT JUMPDEST POP PUSH2 0x20E PUSH2 0x209 CALLDATASIZE PUSH1 0x4 PUSH2 0x1835 JUMP JUMPDEST PUSH2 0x432 JUMP JUMPDEST STOP JUMPDEST CALLVALUE DUP1 ISZERO PUSH2 0x21B JUMPI PUSH0 PUSH0 REVERT JUMPDEST POP PUSH2 0x20E PUSH2 0x22A CALLDATASIZE PUSH1 0x4 PUSH2 0x171F JUMP JUMPDEST PUSH2 0x64E JUMP JUMPDEST CALLVALUE DUP1 ISZERO PUSH2 0x23A JUMPI PUSH0 PUSH0 REVERT JUMPDEST POP PUSH2 0x20E PUSH2 0x249 CALLDATASIZE PUSH1 0x4 PUSH2 0x1835 JUMP JUMPDEST PUSH2 0x7FB JUMP JUMPDEST CALLVALUE DUP1 ISZERO PUSH2 0x259 JUMPI PUSH0 PUSH0 REVERT JUMPDEST POP PUSH2 0x165 PUSH2 0x268 CALLDATASIZE PUSH1 0x4 PUSH2 0x1869 JUMP JUMPDEST PUSH2 0xA92 JUMP JUMPDEST CALLVALUE DUP1 ISZERO PUSH2 0x278 JUMPI PUSH0 PUSH0 REVERT JUMPDEST POP PUSH0 SLOAD PUSH2 0x1D7 SWAP1 PUSH1 0x1 PUSH1 0x1 PUSH1 0xA0 SHL SUB AND DUP2 JUMP JUMPDEST CALLVALUE DUP1 ISZERO PUSH2 0x296 JUMPI PUSH0 PUSH0 REVERT JUMPDEST POP PUSH2 0x2B9 PUSH2 0x2A5 CALLDATASIZE PUSH1 0x4 PUSH2 0x1932 JUMP JUMPDEST PUSH1 0xB PUSH1 0x20 MSTORE PUSH0 SWAP1 DUP2 MSTORE PUSH1 0x40 SWAP1 KECCAK256 SLOAD PUSH1 0xFF AND DUP2 JUMP JUMPDEST PUSH1 0x40 MLOAD SWAP1 ISZERO ISZERO DUP2 MSTORE PUSH1 0x20 ADD PUSH2 0x147 JUMP JUMPDEST CALLVALUE DUP1 ISZERO PUSH2 0x2D4 JUMPI PUSH0 PUSH0 REVERT JUMPDEST POP PUSH1 0x4 SLOAD PUSH2 0x2B9 SWAP1 PUSH1 0xFF AND DUP2 JUMP JUMPDEST PUSH2 0x20E PUSH2 0xD25 JUMP JUMPDEST CALLVALUE DUP1 ISZERO PUSH2 0x2F5 JUMPI PUSH0 PUSH0 REVERT JUMPDEST POP PUSH2 0x20E PUSH2 0xDD9 JUMP JUMPDEST CALLVALUE DUP1 ISZERO PUSH2 0x309 JUMPI PUSH0 PUSH0 REVERT JUMPDEST POP PUSH2 0x165 PUSH1 0x3 SLOAD DUP2 JUMP JUMPDEST PUSH2 0x20E PUSH2 0x105D JUMP JUMPDEST CALLVALUE DUP1 ISZERO PUSH2 0x326 JUMPI PUSH0 PUSH0 REVERT JUMPDEST POP PUSH2 0x165 PUSH1 0x6 SLOAD DUP2 JUMP JUMPDEST CALLVALUE DUP1 ISZERO PUSH2 0x33B JUMPI PUSH0 PUSH0 REVERT JUMPDEST POP PUSH1 0x1 SLOAD PUSH2 0x1D7 SWAP1 PUSH1 0x1 PUSH1 0x1 PUSH1 0xA0 SHL SUB AND DUP2 JUMP JUMPDEST PUSH2 0x20E PUSH2 0x1122 JUMP JUMPDEST PUSH1 0x8 PUSH1 0x20 MSTORE PUSH0 SWAP1 DUP2 MSTORE PUSH1 0x40 SWAP1 KECCAK256 DUP1 SLOAD DUP2 SWAP1 PUSH2 0x371 SWAP1 PUSH2 0x194B JUMP JUMPDEST DUP1 PUSH1 0x1F ADD PUSH1 0x20 DUP1 SWAP2 DIV MUL PUSH1 0x20 ADD PUSH1 0x40 MLOAD SWAP1 DUP2 ADD PUSH1 0x40 MSTORE DUP1 SWAP3 SWAP2 SWAP1 DUP2 DUP2 MSTORE PUSH1 0x20 ADD DUP3 DUP1 SLOAD PUSH2 0x39D SWAP1 PUSH2 0x194B JUMP JUMPDEST DUP1 ISZERO PUSH2 0x3E8 JUMPI DUP1 PUSH1 0x1F LT PUSH2 0x3BF JUMPI PUSH2 0x100 DUP1 DUP4 SLOAD DIV MUL DUP4 MSTORE SWAP2 PUSH1 0x20 ADD SWAP2 PUSH2 0x3E8 JUMP JUMPDEST DUP3 ADD SWAP2 SWAP1 PUSH0 MSTORE PUSH1 0x20 PUSH0 KECCAK256 SWAP1 JUMPDEST DUP2 SLOAD DUP2 MSTORE SWAP1 PUSH1 0x1 ADD SWAP1 PUSH1 0x20 ADD DUP1 DUP4 GT PUSH2 0x3CB JUMPI DUP3 SWAP1 SUB PUSH1 0x1F AND DUP3 ADD SWAP2 JUMPDEST POP POP POP PUSH1 0x1 DUP5 ADD SLOAD PUSH1 0x2 DUP6 ADD SLOAD PUSH1 0x3 DUP7 ADD SLOAD PUSH1 0x4 DUP8 ADD SLOAD PUSH1 0x5 SWAP1 SWAP8 ADD SLOAD SWAP6 SWAP7 SWAP3 SWAP6 PUSH1 0x1 PUSH1 0x1 PUSH1 0xA0 SHL SUB DUP1 DUP5 AND SWAP7 POP PUSH1 0xFF PUSH1 0x1 PUSH1 0xA0 SHL SWAP5 DUP6 SWAP1 DIV DUP2 AND SWAP7 POP SWAP3 SWAP5 SWAP4 SWAP1 DUP3 AND SWAP3 SWAP2 DIV AND DUP9 JUMP JUMPDEST PUSH0 DUP3 DUP2 MSTORE PUSH1 0x8 PUSH1 0x20 MSTORE PUSH1 0x40 DUP2 KECCAK256 SWAP1 PUSH1 0x2 DUP3 DUP2 ADD SLOAD PUSH1 0x1 PUSH1 0xA0 SHL SWAP1 DIV PUSH1 0xFF AND SWAP1 DUP2 GT ISZERO PUSH2 0x460 JUMPI PUSH2 0x460 PUSH2 0x1764 JUMP JUMPDEST EQ PUSH2 0x4A1 JUMPI PUSH1 0x40 MLOAD PUSH3 0x461BCD PUSH1 0xE5 SHL DUP2 MSTORE PUSH1 0x20 PUSH1 0x4 DUP3 ADD MSTORE PUSH1 0xC PUSH1 0x24 DUP3 ADD MSTORE PUSH12 0x4E6F2070656E6469656E7465 PUSH1 0xA0 SHL PUSH1 0x44 DUP3 ADD MSTORE PUSH1 0x64 ADD JUMPDEST PUSH1 0x40 MLOAD DUP1 SWAP2 SUB SWAP1 REVERT JUMPDEST PUSH0 DUP4 DUP2 MSTORE PUSH1 0x9 PUSH1 0x20 SWAP1 DUP2 MSTORE PUSH1 0x40 DUP1 DUP4 KECCAK256 CALLER DUP5 MSTORE SWAP1 SWAP2 MSTORE SWAP1 KECCAK256 SLOAD DUP3 GT ISZERO PUSH2 0x4FF JUMPI PUSH1 0x40 MLOAD PUSH3 0x461BCD PUSH1 0xE5 SHL DUP2 MSTORE PUSH1 0x20 PUSH1 0x4 DUP3 ADD MSTORE PUSH1 0x13 PUSH1 0x24 DUP3 ADD MSTORE PUSH19 0x566F746F7320696E737566696369656E746573 PUSH1 0x68 SHL PUSH1 0x44 DUP3 ADD MSTORE PUSH1 0x64 ADD PUSH2 0x498 JUMP JUMPDEST PUSH0 DUP4 DUP2 MSTORE PUSH1 0x9 PUSH1 0x20 SWAP1 DUP2 MSTORE PUSH1 0x40 DUP1 DUP4 KECCAK256 CALLER DUP5 MSTORE SWAP1 SWAP2 MSTORE DUP2 KECCAK256 SLOAD SWAP1 PUSH2 0x523 DUP5 DUP4 PUSH2 0x1997 JUMP JUMPDEST SWAP1 POP PUSH0 PUSH2 0x530 DUP3 DUP1 PUSH2 0x19AA JUMP JUMPDEST PUSH2 0x53A DUP5 DUP1 PUSH2 0x19AA JUMP JUMPDEST PUSH2 0x544 SWAP2 SWAP1 PUSH2 0x1997 JUMP JUMPDEST PUSH0 DUP8 DUP2 MSTORE PUSH1 0x9 PUSH1 0x20 SWAP1 DUP2 MSTORE PUSH1 0x40 DUP1 DUP4 KECCAK256 CALLER DUP5 MSTORE SWAP1 SWAP2 MSTORE DUP2 KECCAK256 DUP5 SWAP1 SSTORE PUSH1 0x3 DUP7 ADD DUP1 SLOAD SWAP3 SWAP4 POP DUP8 SWAP3 SWAP1 SWAP2 SWAP1 PUSH2 0x578 SWAP1 DUP5 SWAP1 PUSH2 0x1997 JUMP JUMPDEST SWAP3 POP POP DUP2 SWAP1 SSTORE POP DUP1 DUP5 PUSH1 0x4 ADD PUSH0 DUP3 DUP3 SLOAD PUSH2 0x592 SWAP2 SWAP1 PUSH2 0x1997 JUMP JUMPDEST SWAP1 SWAP2 SSTORE POP POP PUSH1 0x1 SLOAD PUSH1 0x40 MLOAD PUSH4 0xA9059CBB PUSH1 0xE0 SHL DUP2 MSTORE CALLER PUSH1 0x4 DUP3 ADD MSTORE PUSH1 0x24 DUP2 ADD DUP4 SWAP1 MSTORE PUSH1 0x1 PUSH1 0x1 PUSH1 0xA0 SHL SUB SWAP1 SWAP2 AND SWAP1 PUSH4 0xA9059CBB SWAP1 PUSH1 0x44 ADD PUSH1 0x20 PUSH1 0x40 MLOAD DUP1 DUP4 SUB DUP2 PUSH0 DUP8 GAS CALL ISZERO DUP1 ISZERO PUSH2 0x5E5 JUMPI RETURNDATASIZE PUSH0 PUSH0 RETURNDATACOPY RETURNDATASIZE PUSH0 REVERT JUMPDEST POP POP POP POP PUSH1 0x40 MLOAD RETURNDATASIZE PUSH1 0x1F NOT PUSH1 0x1F DUP3 ADD AND DUP3 ADD DUP1 PUSH1 0x40 MSTORE POP DUP2 ADD SWAP1 PUSH2 0x609 SWAP2 SWAP1 PUSH2 0x19C1 JUMP JUMPDEST PUSH2 0x646 JUMPI PUSH1 0x40 MLOAD PUSH3 0x461BCD PUSH1 0xE5 SHL DUP2 MSTORE PUSH1 0x20 PUSH1 0x4 DUP3 ADD MSTORE PUSH1 0xE PUSH1 0x24 DUP3 ADD MSTORE PUSH14 0x22B93937B9103A3930B739B332B9 PUSH1 0x91 SHL PUSH1 0x44 DUP3 ADD MSTORE PUSH1 0x64 ADD PUSH2 0x498 JUMP JUMPDEST POP POP POP POP POP POP JUMP JUMPDEST PUSH1 0x1 SLOAD PUSH1 0x40 MLOAD PUSH4 0x70A08231 PUSH1 0xE0 SHL DUP2 MSTORE CALLER PUSH1 0x4 DUP3 ADD MSTORE DUP3 SWAP2 PUSH1 0x1 PUSH1 0x1 PUSH1 0xA0 SHL SUB AND SWAP1 PUSH4 0x70A08231 SWAP1 PUSH1 0x24 ADD PUSH1 0x20 PUSH1 0x40 MLOAD DUP1 DUP4 SUB DUP2 DUP7 GAS STATICCALL ISZERO DUP1 ISZERO PUSH2 0x694 JUMPI RETURNDATASIZE PUSH0 PUSH0 RETURNDATACOPY RETURNDATASIZE PUSH0 REVERT JUMPDEST POP POP POP POP PUSH1 0x40 MLOAD RETURNDATASIZE PUSH1 0x1F NOT PUSH1 0x1F DUP3 ADD AND DUP3 ADD DUP1 PUSH1 0x40 MSTORE POP DUP2 ADD SWAP1 PUSH2 0x6B8 SWAP2 SWAP1 PUSH2 0x19E7 JUMP JUMPDEST LT ISZERO PUSH2 0x6FD JUMPI PUSH1 0x40 MLOAD PUSH3 0x461BCD PUSH1 0xE5 SHL DUP2 MSTORE PUSH1 0x20 PUSH1 0x4 DUP3 ADD MSTORE PUSH1 0x14 PUSH1 0x24 DUP3 ADD MSTORE PUSH20 0x466F6E646F7320696E737566696369656E746573 PUSH1 0x60 SHL PUSH1 0x44 DUP3 ADD MSTORE PUSH1 0x64 ADD PUSH2 0x498 JUMP JUMPDEST PUSH0 PUSH1 0x2 SLOAD DUP3 PUSH2 0x70C SWAP2 SWAP1 PUSH2 0x19AA JUMP JUMPDEST PUSH1 0x1 SLOAD PUSH1 0x40 MLOAD PUSH4 0x2770A7EB PUSH1 0xE2 SHL DUP2 MSTORE CALLER PUSH1 0x4 DUP3 ADD MSTORE PUSH1 0x24 DUP2 ADD DUP6 SWAP1 MSTORE SWAP2 SWAP3 POP PUSH1 0x1 PUSH1 0x1 PUSH1 0xA0 SHL SUB AND SWAP1 PUSH4 0x9DC29FAC SWAP1 PUSH1 0x44 ADD PUSH0 PUSH1 0x40 MLOAD DUP1 DUP4 SUB DUP2 PUSH0 DUP8 DUP1 EXTCODESIZE ISZERO DUP1 ISZERO PUSH2 0x756 JUMPI PUSH0 PUSH0 REVERT JUMPDEST POP GAS CALL ISZERO DUP1 ISZERO PUSH2 0x768 JUMPI RETURNDATASIZE PUSH0 PUSH0 RETURNDATACOPY RETURNDATASIZE PUSH0 REVERT JUMPDEST POP POP PUSH1 0x40 MLOAD PUSH0 SWAP3 POP CALLER SWAP2 POP DUP4 SWAP1 DUP4 DUP2 DUP2 DUP2 DUP6 DUP8 GAS CALL SWAP3 POP POP POP RETURNDATASIZE DUP1 PUSH0 DUP2 EQ PUSH2 0x7AB JUMPI PUSH1 0x40 MLOAD SWAP2 POP PUSH1 0x1F NOT PUSH1 0x3F RETURNDATASIZE ADD AND DUP3 ADD PUSH1 0x40 MSTORE RETURNDATASIZE DUP3 MSTORE RETURNDATASIZE PUSH0 PUSH1 0x20 DUP5 ADD RETURNDATACOPY PUSH2 0x7B0 JUMP JUMPDEST PUSH1 0x60 SWAP2 POP JUMPDEST POP POP SWAP1 POP DUP1 PUSH2 0x7F6 JUMPI PUSH1 0x40 MLOAD PUSH3 0x461BCD PUSH1 0xE5 SHL DUP2 MSTORE PUSH1 0x20 PUSH1 0x4 DUP3 ADD MSTORE PUSH1 0x12 PUSH1 0x24 DUP3 ADD MSTORE PUSH18 0x4572726F7220656E207265656D626F6C736F PUSH1 0x70 SHL PUSH1 0x44 DUP3 ADD MSTORE PUSH1 0x64 ADD PUSH2 0x498 JUMP JUMPDEST POP POP POP JUMP JUMPDEST PUSH1 0x4 SLOAD PUSH1 0xFF AND PUSH2 0x840 JUMPI PUSH1 0x40 MLOAD PUSH3 0x461BCD PUSH1 0xE5 SHL DUP2 MSTORE PUSH1 0x20 PUSH1 0x4 DUP3 ADD MSTORE PUSH1 0x10 PUSH1 0x24 DUP3 ADD MSTORE PUSH16 0x566F746163696F6E2063657272616461 PUSH1 0x80 SHL PUSH1 0x44 DUP3 ADD MSTORE PUSH1 0x64 ADD PUSH2 0x498 JUMP JUMPDEST PUSH0 DUP3 DUP2 MSTORE PUSH1 0x8 PUSH1 0x20 MSTORE PUSH1 0x40 DUP2 KECCAK256 SWAP1 PUSH1 0x2 DUP3 DUP2 ADD SLOAD PUSH1 0x1 PUSH1 0xA0 SHL SWAP1 DIV PUSH1 0xFF AND SWAP1 DUP2 GT ISZERO PUSH2 0x86E JUMPI PUSH2 0x86E PUSH2 0x1764 JUMP JUMPDEST EQ PUSH2 0x8B1 JUMPI PUSH1 0x40 MLOAD PUSH3 0x461BCD PUSH1 0xE5 SHL DUP2 MSTORE PUSH1 0x20 PUSH1 0x4 DUP3 ADD MSTORE PUSH1 0x13 PUSH1 0x24 DUP3 ADD MSTORE PUSH19 0x50726F707565737461206E6F20616374697661 PUSH1 0x68 SHL PUSH1 0x44 DUP3 ADD MSTORE PUSH1 0x64 ADD PUSH2 0x498 JUMP JUMPDEST PUSH0 DUP4 DUP2 MSTORE PUSH1 0x9 PUSH1 0x20 SWAP1 DUP2 MSTORE PUSH1 0x40 DUP1 DUP4 KECCAK256 CALLER DUP5 MSTORE SWAP1 SWAP2 MSTORE DUP2 KECCAK256 SLOAD SWAP1 PUSH2 0x8D5 DUP5 DUP4 PUSH2 0x19FE JUMP JUMPDEST SWAP1 POP PUSH0 PUSH2 0x8E3 PUSH1 0x2 DUP5 PUSH2 0x1AF4 JUMP JUMPDEST PUSH2 0x8EE PUSH1 0x2 DUP5 PUSH2 0x1AF4 JUMP JUMPDEST PUSH2 0x8F8 SWAP2 SWAP1 PUSH2 0x1997 JUMP JUMPDEST PUSH1 0x1 SLOAD PUSH1 0x40 MLOAD PUSH4 0x23B872DD PUSH1 0xE0 SHL DUP2 MSTORE CALLER PUSH1 0x4 DUP3 ADD MSTORE ADDRESS PUSH1 0x24 DUP3 ADD MSTORE PUSH1 0x44 DUP2 ADD DUP4 SWAP1 MSTORE SWAP2 SWAP3 POP PUSH1 0x1 PUSH1 0x1 PUSH1 0xA0 SHL SUB AND SWAP1 PUSH4 0x23B872DD SWAP1 PUSH1 0x64 ADD PUSH1 0x20 PUSH1 0x40 MLOAD DUP1 DUP4 SUB DUP2 PUSH0 DUP8 GAS CALL ISZERO DUP1 ISZERO PUSH2 0x94D JUMPI RETURNDATASIZE PUSH0 PUSH0 RETURNDATACOPY RETURNDATASIZE PUSH0 REVERT JUMPDEST POP POP POP POP PUSH1 0x40 MLOAD RETURNDATASIZE PUSH1 0x1F NOT PUSH1 0x1F DUP3 ADD AND DUP3 ADD DUP1 PUSH1 0x40 MSTORE POP DUP2 ADD SWAP1 PUSH2 0x971 SWAP2 SWAP1 PUSH2 0x19C1 JUMP JUMPDEST PUSH2 0x9B6 JUMPI PUSH1 0x40 MLOAD PUSH3 0x461BCD PUSH1 0xE5 SHL DUP2 MSTORE PUSH1 0x20 PUSH1 0x4 DUP3 ADD MSTORE PUSH1 0x16 PUSH1 0x24 DUP3 ADD MSTORE PUSH22 0x46616C6C6F20656E207472616E73666572656E636961 PUSH1 0x50 SHL PUSH1 0x44 DUP3 ADD MSTORE PUSH1 0x64 ADD PUSH2 0x498 JUMP JUMPDEST DUP3 PUSH0 SUB PUSH2 0x9EB JUMPI PUSH0 DUP7 DUP2 MSTORE PUSH1 0xA PUSH1 0x20 SWAP1 DUP2 MSTORE PUSH1 0x40 DUP3 KECCAK256 DUP1 SLOAD PUSH1 0x1 DUP2 ADD DUP3 SSTORE SWAP1 DUP4 MSTORE SWAP2 KECCAK256 ADD DUP1 SLOAD PUSH1 0x1 PUSH1 0x1 PUSH1 0xA0 SHL SUB NOT AND CALLER OR SWAP1 SSTORE JUMPDEST PUSH0 DUP7 DUP2 MSTORE PUSH1 0x9 PUSH1 0x20 SWAP1 DUP2 MSTORE PUSH1 0x40 DUP1 DUP4 KECCAK256 CALLER DUP5 MSTORE SWAP1 SWAP2 MSTORE DUP2 KECCAK256 DUP4 SWAP1 SSTORE PUSH1 0x3 DUP6 ADD DUP1 SLOAD DUP8 SWAP3 SWAP1 PUSH2 0xA1A SWAP1 DUP5 SWAP1 PUSH2 0x19FE JUMP JUMPDEST SWAP3 POP POP DUP2 SWAP1 SSTORE POP DUP1 DUP5 PUSH1 0x4 ADD PUSH0 DUP3 DUP3 SLOAD PUSH2 0xA34 SWAP2 SWAP1 PUSH2 0x19FE JUMP JUMPDEST SWAP1 SWAP2 SSTORE POP POP PUSH1 0x40 DUP1 MLOAD DUP7 DUP2 MSTORE PUSH1 0x20 DUP2 ADD DUP4 SWAP1 MSTORE CALLER SWAP2 DUP9 SWAP2 PUSH32 0x271F53EEBBE20450D9578F28EC279231556C34545B30E2278D754FFD39CD63C SWAP2 ADD PUSH1 0x40 MLOAD DUP1 SWAP2 SUB SWAP1 LOG3 PUSH1 0x5 DUP5 ADD SLOAD PUSH1 0x1 PUSH1 0xA0 SHL SWAP1 DIV PUSH1 0xFF AND PUSH2 0x646 JUMPI PUSH2 0x646 DUP7 PUSH2 0x129B JUMP JUMPDEST PUSH1 0x4 SLOAD PUSH0 SWAP1 PUSH1 0xFF AND PUSH2 0xAE6 JUMPI PUSH1 0x40 MLOAD PUSH3 0x461BCD PUSH1 0xE5 SHL DUP2 MSTORE PUSH1 0x20 PUSH1 0x4 DUP3 ADD MSTORE PUSH1 0x1B PUSH1 0x24 DUP3 ADD MSTORE PUSH32 0x4C6120766F746163696F6E206E6F206573746120616269657274610000000000 PUSH1 0x44 DUP3 ADD MSTORE PUSH1 0x64 ADD PUSH2 0x498 JUMP JUMPDEST CALLER PUSH0 SWAP1 DUP2 MSTORE PUSH1 0xB PUSH1 0x20 MSTORE PUSH1 0x40 SWAP1 KECCAK256 SLOAD PUSH1 0xFF AND PUSH2 0xB39 JUMPI PUSH1 0x40 MLOAD PUSH3 0x461BCD PUSH1 0xE5 SHL DUP2 MSTORE PUSH1 0x20 PUSH1 0x4 DUP3 ADD MSTORE PUSH1 0x12 PUSH1 0x24 DUP3 ADD MSTORE PUSH18 0x536F6C6F207061727469636970616E746573 PUSH1 0x70 SHL PUSH1 0x44 DUP3 ADD MSTORE PUSH1 0x64 ADD PUSH2 0x498 JUMP JUMPDEST PUSH2 0xB53 PUSH1 0x1 PUSH1 0x1 PUSH1 0xA0 SHL SUB DUP4 AND PUSH4 0x986CC311 PUSH1 0xE0 SHL PUSH2 0x1537 JUMP JUMPDEST PUSH2 0xB97 JUMPI PUSH1 0x40 MLOAD PUSH3 0x461BCD PUSH1 0xE5 SHL DUP2 MSTORE PUSH1 0x20 PUSH1 0x4 DUP3 ADD MSTORE PUSH1 0x15 PUSH1 0x24 DUP3 ADD MSTORE PUSH21 0x496E74657266617A206E6F20736F706F7274616461 PUSH1 0x58 SHL PUSH1 0x44 DUP3 ADD MSTORE PUSH1 0x64 ADD PUSH2 0x498 JUMP JUMPDEST PUSH1 0x7 DUP1 SLOAD PUSH0 SWAP2 DUP3 PUSH2 0xBA7 DUP4 PUSH2 0x1B02 JUMP JUMPDEST SWAP1 SWAP2 SSTORE POP PUSH1 0x40 DUP1 MLOAD PUSH2 0x100 DUP2 ADD DUP3 MSTORE DUP8 DUP2 MSTORE PUSH1 0x20 DUP1 DUP3 ADD DUP9 SWAP1 MSTORE PUSH1 0x1 PUSH1 0x1 PUSH1 0xA0 SHL SUB DUP8 AND DUP3 DUP5 ADD MSTORE PUSH0 PUSH1 0x60 DUP4 ADD DUP2 SWAP1 MSTORE PUSH1 0x80 DUP4 ADD DUP2 SWAP1 MSTORE PUSH1 0xA0 DUP4 ADD DUP2 SWAP1 MSTORE CALLER PUSH1 0xC0 DUP5 ADD MSTORE DUP9 ISZERO PUSH1 0xE0 DUP5 ADD DUP2 SWAP1 MSTORE DUP6 DUP3 MSTORE PUSH1 0x8 SWAP1 SWAP3 MSTORE SWAP3 SWAP1 SWAP3 KECCAK256 DUP2 MLOAD SWAP4 SWAP5 POP SWAP2 SWAP3 SWAP1 SWAP2 SWAP1 DUP2 SWAP1 PUSH2 0xC16 SWAP1 DUP3 PUSH2 0x1B5E JUMP JUMPDEST POP PUSH1 0x20 DUP3 ADD MLOAD PUSH1 0x1 DUP3 ADD SSTORE PUSH1 0x40 DUP3 ADD MLOAD PUSH1 0x2 DUP1 DUP4 ADD DUP1 SLOAD PUSH1 0x1 PUSH1 0x1 PUSH1 0xA0 SHL SUB SWAP1 SWAP4 AND PUSH1 0x1 PUSH1 0x1 PUSH1 0xA0 SHL SUB NOT DUP5 AND DUP2 OR DUP3 SSTORE PUSH1 0x60 DUP7 ADD MLOAD SWAP4 SWAP2 SWAP3 PUSH1 0x1 PUSH1 0x1 PUSH1 0xA8 SHL SUB NOT SWAP1 SWAP3 AND OR SWAP1 PUSH1 0x1 PUSH1 0xA0 SHL SWAP1 DUP5 SWAP1 DUP2 GT ISZERO PUSH2 0xC74 JUMPI PUSH2 0xC74 PUSH2 0x1764 JUMP JUMPDEST MUL OR SWAP1 SSTORE POP PUSH1 0x80 DUP3 ADD MLOAD PUSH1 0x3 DUP3 ADD SSTORE PUSH1 0xA0 DUP3 ADD MLOAD PUSH1 0x4 DUP3 ADD SSTORE PUSH1 0xC0 DUP3 ADD MLOAD PUSH1 0x5 SWAP1 SWAP2 ADD DUP1 SLOAD PUSH1 0xE0 SWAP1 SWAP4 ADD MLOAD ISZERO ISZERO PUSH1 0x1 PUSH1 0xA0 SHL MUL PUSH1 0x1 PUSH1 0x1 PUSH1 0xA8 SHL SUB NOT SWAP1 SWAP4 AND PUSH1 0x1 PUSH1 0x1 PUSH1 0xA0 SHL SUB SWAP1 SWAP3 AND SWAP2 SWAP1 SWAP2 OR SWAP2 SWAP1 SWAP2 OR SWAP1 SSTORE DUP1 PUSH2 0xCE2 JUMPI PUSH1 0x6 DUP1 SLOAD SWAP1 PUSH0 PUSH2 0xCDC DUP4 PUSH2 0x1B02 JUMP JUMPDEST SWAP2 SWAP1 POP SSTORE POP JUMPDEST DUP2 PUSH32 0xF5DC0DA9AFA6D080780A49FD8C680F03D2DDF3C067CD6D0C85360C096644D2D3 DUP8 DUP8 PUSH1 0x40 MLOAD PUSH2 0xD14 SWAP3 SWAP2 SWAP1 PUSH2 0x1C19 JUMP JUMPDEST PUSH1 0x40 MLOAD DUP1 SWAP2 SUB SWAP1 LOG2 POP SWAP5 SWAP4 POP POP POP POP JUMP JUMPDEST PUSH0 SLOAD PUSH1 0x1 PUSH1 0x1 PUSH1 0xA0 SHL SUB AND CALLER EQ PUSH2 0xD7E JUMPI PUSH1 0x40 MLOAD PUSH3 0x461BCD PUSH1 0xE5 SHL DUP2 MSTORE PUSH1 0x20 PUSH1 0x4 DUP3 ADD MSTORE PUSH1 0x1B PUSH1 0x24 DUP3 ADD MSTORE PUSH32 0x536F6C6F20656C2063726561646F722070756564652061627269720000000000 PUSH1 0x44 DUP3 ADD MSTORE PUSH1 0x64 ADD PUSH2 0x498 JUMP JUMPDEST PUSH1 0x4 DUP1 SLOAD PUSH1 0xFF NOT AND PUSH1 0x1 OR SWAP1 SSTORE PUSH1 0x3 DUP1 SLOAD CALLVALUE SWAP2 SWAP1 PUSH0 SWAP1 PUSH2 0xD9F SWAP1 DUP5 SWAP1 PUSH2 0x19FE JUMP JUMPDEST SWAP1 SWAP2 SSTORE POP POP PUSH1 0x40 MLOAD CALLVALUE DUP2 MSTORE PUSH32 0xE0A358D4A766346F1ECE85D22E2197435D610D9638874A0FD6746E58A1B1F58A SWAP1 PUSH1 0x20 ADD PUSH1 0x40 MLOAD DUP1 SWAP2 SUB SWAP1 LOG1 JUMP JUMPDEST PUSH0 SLOAD PUSH1 0x1 PUSH1 0x1 PUSH1 0xA0 SHL SUB AND CALLER EQ PUSH2 0xE1F JUMPI PUSH1 0x40 MLOAD PUSH3 0x461BCD PUSH1 0xE5 SHL DUP2 MSTORE PUSH1 0x20 PUSH1 0x4 DUP3 ADD MSTORE PUSH1 0xA PUSH1 0x24 DUP3 ADD MSTORE PUSH10 0x29B7B6379037BBB732B9 PUSH1 0xB1 SHL PUSH1 0x44 DUP3 ADD MSTORE PUSH1 0x64 ADD PUSH2 0x498 JUMP JUMPDEST PUSH1 0x4 SLOAD PUSH1 0xFF AND PUSH2 0xE5E JUMPI PUSH1 0x40 MLOAD PUSH3 0x461BCD PUSH1 0xE5 SHL DUP2 MSTORE PUSH1 0x20 PUSH1 0x4 DUP3 ADD MSTORE PUSH1 0xA PUSH1 0x24 DUP3 ADD MSTORE PUSH10 0x59612063657272616461 PUSH1 0xB0 SHL PUSH1 0x44 DUP3 ADD MSTORE PUSH1 0x64 ADD PUSH2 0x498 JUMP JUMPDEST PUSH1 0x4 DUP1 SLOAD PUSH1 0xFF NOT AND SWAP1 SSTORE PUSH0 JUMPDEST PUSH1 0x7 SLOAD DUP2 LT ISZERO PUSH2 0xFB5 JUMPI PUSH0 DUP2 DUP2 MSTORE PUSH1 0x8 PUSH1 0x20 MSTORE PUSH1 0x40 SWAP1 KECCAK256 PUSH1 0x5 DUP2 ADD SLOAD PUSH1 0x1 PUSH1 0xA0 SHL SWAP1 DIV PUSH1 0xFF AND ISZERO PUSH2 0xF54 JUMPI PUSH1 0x2 DUP2 ADD SLOAD PUSH1 0x3 DUP3 ADD SLOAD PUSH1 0x4 DUP4 ADD SLOAD PUSH1 0x40 MLOAD PUSH1 0x24 DUP2 ADD DUP7 SWAP1 MSTORE PUSH1 0x44 DUP2 ADD SWAP3 SWAP1 SWAP3 MSTORE PUSH1 0x64 DUP3 ADD MSTORE PUSH1 0x1 PUSH1 0x1 PUSH1 0xA0 SHL SUB SWAP1 SWAP2 AND SWAP1 PUSH3 0x186A0 SWAP1 PUSH1 0x84 ADD PUSH1 0x40 DUP1 MLOAD PUSH1 0x1F NOT DUP2 DUP5 SUB ADD DUP2 MSTORE SWAP2 DUP2 MSTORE PUSH1 0x20 DUP3 ADD DUP1 MLOAD PUSH1 0x1 PUSH1 0x1 PUSH1 0xE0 SHL SUB AND PUSH4 0x986CC311 PUSH1 0xE0 SHL OR SWAP1 MSTORE MLOAD PUSH2 0xF04 SWAP2 SWAP1 PUSH2 0x1C3A JUMP JUMPDEST PUSH0 PUSH1 0x40 MLOAD DUP1 DUP4 SUB DUP2 PUSH0 DUP8 DUP8 CALL SWAP3 POP POP POP RETURNDATASIZE DUP1 PUSH0 DUP2 EQ PUSH2 0xF3E JUMPI PUSH1 0x40 MLOAD SWAP2 POP PUSH1 0x1F NOT PUSH1 0x3F RETURNDATASIZE ADD AND DUP3 ADD PUSH1 0x40 MSTORE RETURNDATASIZE DUP3 MSTORE RETURNDATASIZE PUSH0 PUSH1 0x20 DUP5 ADD RETURNDATACOPY PUSH2 0xF43 JUMP JUMPDEST PUSH1 0x60 SWAP2 POP JUMPDEST POP POP POP PUSH2 0xF4F DUP3 PUSH2 0x155B JUMP JUMPDEST PUSH2 0xFAC JUMP JUMPDEST PUSH0 PUSH1 0x2 DUP3 DUP2 ADD SLOAD PUSH1 0x1 PUSH1 0xA0 SHL SWAP1 DIV PUSH1 0xFF AND SWAP1 DUP2 GT ISZERO PUSH2 0xF75 JUMPI PUSH2 0xF75 PUSH2 0x1764 JUMP JUMPDEST SUB PUSH2 0xFAC JUMPI PUSH1 0x2 DUP2 ADD DUP1 SLOAD PUSH1 0xFF PUSH1 0xA0 SHL NOT AND PUSH1 0x1 PUSH1 0xA1 SHL OR SWAP1 SSTORE PUSH1 0x6 DUP1 SLOAD SWAP1 PUSH0 PUSH2 0xF9E DUP4 PUSH2 0x1C50 JUMP JUMPDEST SWAP2 SWAP1 POP SSTORE POP PUSH2 0xFAC DUP3 PUSH2 0x155B JUMP JUMPDEST POP PUSH1 0x1 ADD PUSH2 0xE6A JUMP JUMPDEST POP PUSH1 0x3 DUP1 SLOAD PUSH0 SWAP1 SWAP2 SSTORE DUP1 ISZERO PUSH2 0x105A JUMPI PUSH0 DUP1 SLOAD PUSH1 0x40 MLOAD PUSH1 0x1 PUSH1 0x1 PUSH1 0xA0 SHL SUB SWAP1 SWAP2 AND SWAP1 DUP4 SWAP1 DUP4 DUP2 DUP2 DUP2 DUP6 DUP8 GAS CALL SWAP3 POP POP POP RETURNDATASIZE DUP1 PUSH0 DUP2 EQ PUSH2 0x100E JUMPI PUSH1 0x40 MLOAD SWAP2 POP PUSH1 0x1F NOT PUSH1 0x3F RETURNDATASIZE ADD AND DUP3 ADD PUSH1 0x40 MSTORE RETURNDATASIZE DUP3 MSTORE RETURNDATASIZE PUSH0 PUSH1 0x20 DUP5 ADD RETURNDATACOPY PUSH2 0x1013 JUMP JUMPDEST PUSH1 0x60 SWAP2 POP JUMPDEST POP POP SWAP1 POP DUP1 PUSH2 0x1058 JUMPI PUSH1 0x40 MLOAD PUSH3 0x461BCD PUSH1 0xE5 SHL DUP2 MSTORE PUSH1 0x20 PUSH1 0x4 DUP3 ADD MSTORE PUSH1 0x11 PUSH1 0x24 DUP3 ADD MSTORE PUSH17 0x22B93937B9103634B8BAB4B230B1B4B7B7 PUSH1 0x79 SHL PUSH1 0x44 DUP3 ADD MSTORE PUSH1 0x64 ADD PUSH2 0x498 JUMP JUMPDEST POP JUMPDEST POP JUMP JUMPDEST CALLER PUSH0 SWAP1 DUP2 MSTORE PUSH1 0xB PUSH1 0x20 MSTORE PUSH1 0x40 SWAP1 KECCAK256 SLOAD PUSH1 0xFF AND PUSH2 0x10B0 JUMPI PUSH1 0x40 MLOAD PUSH3 0x461BCD PUSH1 0xE5 SHL DUP2 MSTORE PUSH1 0x20 PUSH1 0x4 DUP3 ADD MSTORE PUSH1 0x12 PUSH1 0x24 DUP3 ADD MSTORE PUSH18 0x496E7363726962617365207072696D65726F PUSH1 0x70 SHL PUSH1 0x44 DUP3 ADD MSTORE PUSH1 0x64 ADD PUSH2 0x498 JUMP JUMPDEST PUSH0 PUSH1 0x2 SLOAD CALLVALUE PUSH2 0x10BF SWAP2 SWAP1 PUSH2 0x1C65 JUMP JUMPDEST PUSH1 0x1 SLOAD PUSH1 0x40 MLOAD PUSH4 0x40C10F19 PUSH1 0xE0 SHL DUP2 MSTORE CALLER PUSH1 0x4 DUP3 ADD MSTORE PUSH1 0x24 DUP2 ADD DUP4 SWAP1 MSTORE SWAP2 SWAP3 POP PUSH1 0x1 PUSH1 0x1 PUSH1 0xA0 SHL SUB AND SWAP1 PUSH4 0x40C10F19 SWAP1 PUSH1 0x44 ADD PUSH0 PUSH1 0x40 MLOAD DUP1 DUP4 SUB DUP2 PUSH0 DUP8 DUP1 EXTCODESIZE ISZERO DUP1 ISZERO PUSH2 0x1109 JUMPI PUSH0 PUSH0 REVERT JUMPDEST POP GAS CALL ISZERO DUP1 ISZERO PUSH2 0x111B JUMPI RETURNDATASIZE PUSH0 PUSH0 RETURNDATACOPY RETURNDATASIZE PUSH0 REVERT JUMPDEST POP POP POP POP POP JUMP JUMPDEST CALLER PUSH0 SWAP1 DUP2 MSTORE PUSH1 0xB PUSH1 0x20 MSTORE PUSH1 0x40 SWAP1 KECCAK256 SLOAD PUSH1 0xFF AND ISZERO PUSH2 0x1176 JUMPI PUSH1 0x40 MLOAD PUSH3 0x461BCD PUSH1 0xE5 SHL DUP2 MSTORE PUSH1 0x20 PUSH1 0x4 DUP3 ADD MSTORE PUSH1 0x12 PUSH1 0x24 DUP3 ADD MSTORE PUSH18 0x5961206573207061727469636970616E7465 PUSH1 0x70 SHL PUSH1 0x44 DUP3 ADD MSTORE PUSH1 0x64 ADD PUSH2 0x498 JUMP JUMPDEST PUSH1 0x2 SLOAD CALLVALUE LT ISZERO PUSH2 0x11C8 JUMPI PUSH1 0x40 MLOAD PUSH3 0x461BCD PUSH1 0xE5 SHL DUP2 MSTORE PUSH1 0x20 PUSH1 0x4 DUP3 ADD MSTORE PUSH1 0x1E PUSH1 0x24 DUP3 ADD MSTORE PUSH32 0x4465626520636F6D7072617220616C206D656E6F7320756E20746F6B656E0000 PUSH1 0x44 DUP3 ADD MSTORE PUSH1 0x64 ADD PUSH2 0x498 JUMP JUMPDEST CALLER PUSH0 SWAP1 DUP2 MSTORE PUSH1 0xB PUSH1 0x20 MSTORE PUSH1 0x40 DUP2 KECCAK256 DUP1 SLOAD PUSH1 0xFF NOT AND PUSH1 0x1 OR SWAP1 SSTORE PUSH1 0x5 DUP1 SLOAD SWAP2 PUSH2 0x11EF DUP4 PUSH2 0x1B02 JUMP JUMPDEST SWAP2 SWAP1 POP SSTORE POP PUSH0 PUSH1 0x2 SLOAD CALLVALUE PUSH2 0x1203 SWAP2 SWAP1 PUSH2 0x1C65 JUMP JUMPDEST PUSH1 0x1 SLOAD PUSH1 0x40 MLOAD PUSH4 0x40C10F19 PUSH1 0xE0 SHL DUP2 MSTORE CALLER PUSH1 0x4 DUP3 ADD MSTORE PUSH1 0x24 DUP2 ADD DUP4 SWAP1 MSTORE SWAP2 SWAP3 POP PUSH1 0x1 PUSH1 0x1 PUSH1 0xA0 SHL SUB AND SWAP1 PUSH4 0x40C10F19 SWAP1 PUSH1 0x44 ADD PUSH0 PUSH1 0x40 MLOAD DUP1 DUP4 SUB DUP2 PUSH0 DUP8 DUP1 EXTCODESIZE ISZERO DUP1 ISZERO PUSH2 0x124D JUMPI PUSH0 PUSH0 REVERT JUMPDEST POP GAS CALL ISZERO DUP1 ISZERO PUSH2 0x125F JUMPI RETURNDATASIZE PUSH0 PUSH0 RETURNDATACOPY RETURNDATASIZE PUSH0 REVERT JUMPDEST POP POP PUSH1 0x40 MLOAD DUP4 DUP2 MSTORE CALLER SWAP3 POP PUSH32 0x287AB65235AA9A0BAEED5B973FDA48C77EBDC6F3DD931CFDA1C082C0AECC1E73 SWAP2 POP PUSH1 0x20 ADD PUSH1 0x40 MLOAD DUP1 SWAP2 SUB SWAP1 LOG2 POP JUMP JUMPDEST PUSH0 DUP2 DUP2 MSTORE PUSH1 0x8 PUSH1 0x20 MSTORE PUSH1 0x40 DUP2 KECCAK256 PUSH1 0x3 SLOAD PUSH1 0x1 DUP3 ADD SLOAD SWAP2 SWAP3 SWAP2 PUSH2 0x12BE SWAP1 PUSH1 0xA PUSH2 0x19AA JUMP JUMPDEST PUSH2 0x12C8 SWAP2 SWAP1 PUSH2 0x1C65 JUMP JUMPDEST PUSH2 0x12D3 SWAP1 PUSH1 0x2 PUSH2 0x19FE JUMP JUMPDEST SWAP1 POP PUSH0 PUSH1 0xA PUSH1 0x6 SLOAD PUSH1 0x5 SLOAD PUSH2 0x12E8 SWAP2 SWAP1 PUSH2 0x19FE JUMP JUMPDEST PUSH2 0x12F2 SWAP1 DUP5 PUSH2 0x19AA JUMP JUMPDEST PUSH2 0x12FC SWAP2 SWAP1 PUSH2 0x1C65 JUMP JUMPDEST SWAP1 POP DUP1 DUP4 PUSH1 0x3 ADD SLOAD GT DUP1 ISZERO PUSH2 0x1317 JUMPI POP DUP3 PUSH1 0x1 ADD SLOAD PUSH1 0x3 SLOAD LT ISZERO JUMPDEST ISZERO PUSH2 0x1531 JUMPI PUSH1 0x2 DUP4 ADD DUP1 SLOAD PUSH1 0xFF PUSH1 0xA0 SHL NOT AND PUSH1 0x1 PUSH1 0xA0 SHL OR SWAP1 SSTORE PUSH1 0x6 DUP1 SLOAD SWAP1 PUSH0 PUSH2 0x1340 DUP4 PUSH2 0x1C50 JUMP JUMPDEST SWAP2 SWAP1 POP SSTORE POP PUSH1 0x2 SLOAD DUP4 PUSH1 0x4 ADD SLOAD PUSH2 0x1357 SWAP2 SWAP1 PUSH2 0x19AA JUMP JUMPDEST PUSH1 0x3 PUSH0 DUP3 DUP3 SLOAD PUSH2 0x1367 SWAP2 SWAP1 PUSH2 0x19FE JUMP JUMPDEST SWAP1 SWAP2 SSTORE POP POP PUSH1 0x1 DUP4 ADD SLOAD PUSH1 0x3 DUP1 SLOAD PUSH0 SWAP1 PUSH2 0x1382 SWAP1 DUP5 SWAP1 PUSH2 0x1997 JUMP JUMPDEST SWAP1 SWAP2 SSTORE POP POP PUSH1 0x1 SLOAD PUSH1 0x4 DUP5 DUP2 ADD SLOAD PUSH1 0x40 MLOAD PUSH4 0x2770A7EB PUSH1 0xE2 SHL DUP2 MSTORE ADDRESS SWAP3 DUP2 ADD SWAP3 SWAP1 SWAP3 MSTORE PUSH1 0x24 DUP3 ADD MSTORE PUSH1 0x1 PUSH1 0x1 PUSH1 0xA0 SHL SUB SWAP1 SWAP2 AND SWAP1 PUSH4 0x9DC29FAC SWAP1 PUSH1 0x44 ADD PUSH0 PUSH1 0x40 MLOAD DUP1 DUP4 SUB DUP2 PUSH0 DUP8 DUP1 EXTCODESIZE ISZERO DUP1 ISZERO PUSH2 0x13D6 JUMPI PUSH0 PUSH0 REVERT JUMPDEST POP GAS CALL ISZERO DUP1 ISZERO PUSH2 0x13E8 JUMPI RETURNDATASIZE PUSH0 PUSH0 RETURNDATACOPY RETURNDATASIZE PUSH0 REVERT JUMPDEST POP POP POP POP PUSH1 0x2 DUP4 ADD SLOAD PUSH1 0x1 DUP5 ADD SLOAD PUSH1 0x3 DUP6 ADD SLOAD PUSH1 0x4 DUP7 ADD SLOAD PUSH1 0x40 MLOAD PUSH1 0x24 DUP2 ADD DUP10 SWAP1 MSTORE PUSH1 0x44 DUP2 ADD SWAP3 SWAP1 SWAP3 MSTORE PUSH1 0x64 DUP3 ADD MSTORE PUSH0 SWAP3 PUSH1 0x1 PUSH1 0x1 PUSH1 0xA0 SHL SUB AND SWAP2 PUSH3 0x186A0 SWAP2 PUSH1 0x84 ADD PUSH1 0x40 DUP1 MLOAD PUSH1 0x1F NOT DUP2 DUP5 SUB ADD DUP2 MSTORE SWAP2 DUP2 MSTORE PUSH1 0x20 DUP3 ADD DUP1 MLOAD PUSH1 0x1 PUSH1 0x1 PUSH1 0xE0 SHL SUB AND PUSH4 0x986CC311 PUSH1 0xE0 SHL OR SWAP1 MSTORE MLOAD PUSH2 0x1460 SWAP2 SWAP1 PUSH2 0x1C3A JUMP JUMPDEST PUSH0 PUSH1 0x40 MLOAD DUP1 DUP4 SUB DUP2 DUP6 DUP9 DUP9 CALL SWAP4 POP POP POP POP RETURNDATASIZE DUP1 PUSH0 DUP2 EQ PUSH2 0x149B JUMPI PUSH1 0x40 MLOAD SWAP2 POP PUSH1 0x1F NOT PUSH1 0x3F RETURNDATASIZE ADD AND DUP3 ADD PUSH1 0x40 MSTORE RETURNDATASIZE DUP3 MSTORE RETURNDATASIZE PUSH0 PUSH1 0x20 DUP5 ADD RETURNDATACOPY PUSH2 0x14A0 JUMP JUMPDEST PUSH1 0x60 SWAP2 POP JUMPDEST POP POP SWAP1 POP DUP1 PUSH2 0x14F1 JUMPI PUSH1 0x40 MLOAD PUSH3 0x461BCD PUSH1 0xE5 SHL DUP2 MSTORE PUSH1 0x20 PUSH1 0x4 DUP3 ADD MSTORE PUSH1 0x1D PUSH1 0x24 DUP3 ADD MSTORE PUSH32 0x46616C6C6F20656E206C6120656A65637563696F6E2065787465726E61000000 PUSH1 0x44 DUP3 ADD MSTORE PUSH1 0x64 ADD PUSH2 0x498 JUMP JUMPDEST DUP5 PUSH32 0xC6A4FD4A703D2A2FE3167CE7F6D62BF96458B7E55042CFAA85D5C7EF3AC56EEA DUP6 PUSH1 0x1 ADD SLOAD PUSH1 0x40 MLOAD PUSH2 0x1527 SWAP2 DUP2 MSTORE PUSH1 0x20 ADD SWAP1 JUMP JUMPDEST PUSH1 0x40 MLOAD DUP1 SWAP2 SUB SWAP1 LOG2 POP JUMPDEST POP POP POP POP JUMP JUMPDEST PUSH0 PUSH2 0x1541 DUP4 PUSH2 0x1679 JUMP JUMPDEST DUP1 ISZERO PUSH2 0x1552 JUMPI POP PUSH2 0x1552 DUP4 DUP4 PUSH2 0x16C7 JUMP JUMPDEST SWAP1 POP JUMPDEST SWAP3 SWAP2 POP POP JUMP JUMPDEST PUSH0 DUP2 DUP2 MSTORE PUSH1 0xA PUSH1 0x20 MSTORE PUSH1 0x40 DUP2 KECCAK256 SWAP1 JUMPDEST DUP2 SLOAD DUP2 LT ISZERO PUSH2 0x7F6 JUMPI PUSH0 DUP3 DUP3 DUP2 SLOAD DUP2 LT PUSH2 0x1586 JUMPI PUSH2 0x1586 PUSH2 0x1C84 JUMP JUMPDEST PUSH0 SWAP2 DUP3 MSTORE PUSH1 0x20 DUP1 DUP4 KECCAK256 SWAP1 SWAP2 ADD SLOAD DUP7 DUP4 MSTORE PUSH1 0x9 DUP3 MSTORE PUSH1 0x40 DUP1 DUP5 KECCAK256 PUSH1 0x1 PUSH1 0x1 PUSH1 0xA0 SHL SUB SWAP1 SWAP3 AND DUP1 DUP6 MSTORE SWAP2 SWAP1 SWAP3 MSTORE SWAP2 KECCAK256 SLOAD SWAP1 SWAP2 POP DUP1 ISZERO PUSH2 0x166F JUMPI PUSH0 PUSH2 0x15C8 DUP3 DUP1 PUSH2 0x19AA JUMP JUMPDEST PUSH0 DUP8 DUP2 MSTORE PUSH1 0x9 PUSH1 0x20 SWAP1 DUP2 MSTORE PUSH1 0x40 DUP1 DUP4 KECCAK256 PUSH1 0x1 PUSH1 0x1 PUSH1 0xA0 SHL SUB DUP1 DUP10 AND DUP6 MSTORE SWAP3 MSTORE DUP1 DUP4 KECCAK256 SWAP3 SWAP1 SWAP3 SSTORE PUSH1 0x1 SLOAD SWAP2 MLOAD PUSH4 0xA9059CBB PUSH1 0xE0 SHL DUP2 MSTORE SWAP3 SWAP4 POP AND SWAP1 PUSH4 0xA9059CBB SWAP1 PUSH2 0x162C SWAP1 DUP7 SWAP1 DUP6 SWAP1 PUSH1 0x4 ADD PUSH1 0x1 PUSH1 0x1 PUSH1 0xA0 SHL SUB SWAP3 SWAP1 SWAP3 AND DUP3 MSTORE PUSH1 0x20 DUP3 ADD MSTORE PUSH1 0x40 ADD SWAP1 JUMP JUMPDEST PUSH1 0x20 PUSH1 0x40 MLOAD DUP1 DUP4 SUB DUP2 PUSH0 DUP8 GAS CALL ISZERO DUP1 ISZERO PUSH2 0x1648 JUMPI RETURNDATASIZE PUSH0 PUSH0 RETURNDATACOPY RETURNDATASIZE PUSH0 REVERT JUMPDEST POP POP POP POP PUSH1 0x40 MLOAD RETURNDATASIZE PUSH1 0x1F NOT PUSH1 0x1F DUP3 ADD AND DUP3 ADD DUP1 PUSH1 0x40 MSTORE POP DUP2 ADD SWAP1 PUSH2 0x166C SWAP2 SWAP1 PUSH2 0x19C1 JUMP JUMPDEST POP POP JUMPDEST POP POP PUSH1 0x1 ADD PUSH2 0x156A JUMP JUMPDEST PUSH0 PUSH2 0x168B DUP3 PUSH4 0x1FFC9A7 PUSH1 0xE0 SHL PUSH2 0x16C7 JUMP JUMPDEST ISZERO PUSH2 0x16BB JUMPI PUSH0 DUP1 PUSH2 0x16A4 DUP5 PUSH1 0x1 PUSH1 0x1 PUSH1 0xE0 SHL SUB NOT PUSH2 0x16EB JUMP JUMPDEST SWAP2 POP SWAP2 POP DUP2 DUP1 ISZERO PUSH2 0x16B3 JUMPI POP DUP1 ISZERO JUMPDEST SWAP5 SWAP4 POP POP POP POP JUMP JUMPDEST POP PUSH0 SWAP2 SWAP1 POP JUMP JUMPDEST SWAP2 SWAP1 POP JUMP JUMPDEST PUSH0 PUSH0 PUSH0 PUSH2 0x16D4 DUP6 DUP6 PUSH2 0x16EB JUMP JUMPDEST SWAP2 POP SWAP2 POP DUP2 DUP1 ISZERO PUSH2 0x16E2 JUMPI POP DUP1 JUMPDEST SWAP6 SWAP5 POP POP POP POP POP JUMP JUMPDEST PUSH4 0x1FFC9A7 PUSH1 0xE0 SHL PUSH0 DUP2 DUP2 MSTORE PUSH1 0x4 DUP4 SWAP1 MSTORE SWAP1 DUP2 SWAP1 PUSH1 0x20 DUP3 PUSH1 0x24 DUP2 DUP9 PUSH2 0x7530 STATICCALL SWAP3 POP PUSH0 MLOAD ISZERO ISZERO PUSH1 0x1F RETURNDATASIZE GT AND SWAP2 POP POP SWAP3 POP SWAP3 SWAP1 POP JUMP JUMPDEST PUSH0 PUSH1 0x20 DUP3 DUP5 SUB SLT ISZERO PUSH2 0x172F JUMPI PUSH0 PUSH0 REVERT JUMPDEST POP CALLDATALOAD SWAP2 SWAP1 POP JUMP JUMPDEST PUSH0 DUP2 MLOAD DUP1 DUP5 MSTORE DUP1 PUSH1 0x20 DUP5 ADD PUSH1 0x20 DUP7 ADD MCOPY PUSH0 PUSH1 0x20 DUP3 DUP7 ADD ADD MSTORE PUSH1 0x20 PUSH1 0x1F NOT PUSH1 0x1F DUP4 ADD AND DUP6 ADD ADD SWAP2 POP POP SWAP3 SWAP2 POP POP JUMP JUMPDEST PUSH4 0x4E487B71 PUSH1 0xE0 SHL PUSH0 MSTORE PUSH1 0x21 PUSH1 0x4 MSTORE PUSH1 0x24 PUSH0 REVERT JUMPDEST PUSH2 0x100 DUP2 MSTORE PUSH0 PUSH2 0x178C PUSH2 0x100 DUP4 ADD DUP12 PUSH2 0x1736 JUMP JUMPDEST PUSH1 0x20 DUP4 ADD DUP11 SWAP1 MSTORE PUSH1 0x1 PUSH1 0x1 PUSH1 0xA0 SHL SUB DUP10 AND PUSH1 0x40 DUP5 ADD MSTORE SWAP1 POP PUSH1 0x3 DUP8 LT PUSH2 0x17C0 JUMPI PUSH4 0x4E487B71 PUSH1 0xE0 SHL PUSH0 MSTORE PUSH1 0x21 PUSH1 0x4 MSTORE PUSH1 0x24 PUSH0 REVERT JUMPDEST PUSH1 0x60 DUP3 ADD SWAP7 SWAP1 SWAP7 MSTORE PUSH1 0x80 DUP2 ADD SWAP5 SWAP1 SWAP5 MSTORE PUSH1 0xA0 DUP5 ADD SWAP3 SWAP1 SWAP3 MSTORE PUSH1 0x1 PUSH1 0x1 PUSH1 0xA0 SHL SUB AND PUSH1 0xC0 DUP4 ADD MSTORE ISZERO ISZERO PUSH1 0xE0 SWAP1 SWAP2 ADD MSTORE SWAP4 SWAP3 POP POP POP JUMP JUMPDEST DUP1 CALLDATALOAD PUSH1 0x1 PUSH1 0x1 PUSH1 0xA0 SHL SUB DUP2 AND DUP2 EQ PUSH2 0x16C2 JUMPI PUSH0 PUSH0 REVERT JUMPDEST PUSH0 PUSH0 PUSH1 0x40 DUP4 DUP6 SUB SLT ISZERO PUSH2 0x181C JUMPI PUSH0 PUSH0 REVERT JUMPDEST DUP3 CALLDATALOAD SWAP2 POP PUSH2 0x182C PUSH1 0x20 DUP5 ADD PUSH2 0x17F5 JUMP JUMPDEST SWAP1 POP SWAP3 POP SWAP3 SWAP1 POP JUMP JUMPDEST PUSH0 PUSH0 PUSH1 0x40 DUP4 DUP6 SUB SLT ISZERO PUSH2 0x1846 JUMPI PUSH0 PUSH0 REVERT JUMPDEST POP POP DUP1 CALLDATALOAD SWAP3 PUSH1 0x20 SWAP1 SWAP2 ADD CALLDATALOAD SWAP2 POP JUMP JUMPDEST PUSH4 0x4E487B71 PUSH1 0xE0 SHL PUSH0 MSTORE PUSH1 0x41 PUSH1 0x4 MSTORE PUSH1 0x24 PUSH0 REVERT JUMPDEST PUSH0 PUSH0 PUSH0 PUSH1 0x60 DUP5 DUP7 SUB SLT ISZERO PUSH2 0x187B JUMPI PUSH0 PUSH0 REVERT JUMPDEST DUP4 CALLDATALOAD PUSH8 0xFFFFFFFFFFFFFFFF DUP2 GT ISZERO PUSH2 0x1891 JUMPI PUSH0 PUSH0 REVERT JUMPDEST DUP5 ADD PUSH1 0x1F DUP2 ADD DUP7 SGT PUSH2 0x18A1 JUMPI PUSH0 PUSH0 REVERT JUMPDEST DUP1 CALLDATALOAD PUSH8 0xFFFFFFFFFFFFFFFF DUP2 GT ISZERO PUSH2 0x18BB JUMPI PUSH2 0x18BB PUSH2 0x1855 JUMP JUMPDEST PUSH1 0x40 MLOAD PUSH1 0x1F DUP3 ADD PUSH1 0x1F NOT SWAP1 DUP2 AND PUSH1 0x3F ADD AND DUP2 ADD PUSH8 0xFFFFFFFFFFFFFFFF DUP2 GT DUP3 DUP3 LT OR ISZERO PUSH2 0x18EA JUMPI PUSH2 0x18EA PUSH2 0x1855 JUMP JUMPDEST PUSH1 0x40 MSTORE DUP2 DUP2 MSTORE DUP3 DUP3 ADD PUSH1 0x20 ADD DUP9 LT ISZERO PUSH2 0x1901 JUMPI PUSH0 PUSH0 REVERT JUMPDEST DUP2 PUSH1 0x20 DUP5 ADD PUSH1 0x20 DUP4 ADD CALLDATACOPY PUSH0 PUSH1 0x20 SWAP3 DUP3 ADD DUP4 ADD MSTORE SWAP5 POP DUP6 ADD CALLDATALOAD SWAP3 POP PUSH2 0x1929 SWAP1 POP PUSH1 0x40 DUP6 ADD PUSH2 0x17F5 JUMP JUMPDEST SWAP1 POP SWAP3 POP SWAP3 POP SWAP3 JUMP JUMPDEST PUSH0 PUSH1 0x20 DUP3 DUP5 SUB SLT ISZERO PUSH2 0x1942 JUMPI PUSH0 PUSH0 REVERT JUMPDEST PUSH2 0x1552 DUP3 PUSH2 0x17F5 JUMP JUMPDEST PUSH1 0x1 DUP2 DUP2 SHR SWAP1 DUP3 AND DUP1 PUSH2 0x195F JUMPI PUSH1 0x7F DUP3 AND SWAP2 POP JUMPDEST PUSH1 0x20 DUP3 LT DUP2 SUB PUSH2 0x197D JUMPI PUSH4 0x4E487B71 PUSH1 0xE0 SHL PUSH0 MSTORE PUSH1 0x22 PUSH1 0x4 MSTORE PUSH1 0x24 PUSH0 REVERT JUMPDEST POP SWAP2 SWAP1 POP JUMP JUMPDEST PUSH4 0x4E487B71 PUSH1 0xE0 SHL PUSH0 MSTORE PUSH1 0x11 PUSH1 0x4 MSTORE PUSH1 0x24 PUSH0 REVERT JUMPDEST DUP2 DUP2 SUB DUP2 DUP2 GT ISZERO PUSH2 0x1555 JUMPI PUSH2 0x1555 PUSH2 0x1983 JUMP JUMPDEST DUP1 DUP3 MUL DUP2 ISZERO DUP3 DUP3 DIV DUP5 EQ OR PUSH2 0x1555 JUMPI PUSH2 0x1555 PUSH2 0x1983 JUMP JUMPDEST PUSH0 PUSH1 0x20 DUP3 DUP5 SUB SLT ISZERO PUSH2 0x19D1 JUMPI PUSH0 PUSH0 REVERT JUMPDEST DUP2 MLOAD DUP1 ISZERO ISZERO DUP2 EQ PUSH2 0x19E0 JUMPI PUSH0 PUSH0 REVERT JUMPDEST SWAP4 SWAP3 POP POP POP JUMP JUMPDEST PUSH0 PUSH1 0x20 DUP3 DUP5 SUB SLT ISZERO PUSH2 0x19F7 JUMPI PUSH0 PUSH0 REVERT JUMPDEST POP MLOAD SWAP2 SWAP1 POP JUMP JUMPDEST DUP1 DUP3 ADD DUP1 DUP3 GT ISZERO PUSH2 0x1555 JUMPI PUSH2 0x1555 PUSH2 0x1983 JUMP JUMPDEST PUSH1 0x1 DUP2 JUMPDEST PUSH1 0x1 DUP5 GT ISZERO PUSH2 0x1A4C JUMPI DUP1 DUP6 DIV DUP2 GT ISZERO PUSH2 0x1A30 JUMPI PUSH2 0x1A30 PUSH2 0x1983 JUMP JUMPDEST PUSH1 0x1 DUP5 AND ISZERO PUSH2 0x1A3E JUMPI SWAP1 DUP2 MUL SWAP1 JUMPDEST PUSH1 0x1 SWAP4 SWAP1 SWAP4 SHR SWAP3 DUP1 MUL PUSH2 0x1A15 JUMP JUMPDEST SWAP4 POP SWAP4 SWAP2 POP POP JUMP JUMPDEST PUSH0 DUP3 PUSH2 0x1A62 JUMPI POP PUSH1 0x1 PUSH2 0x1555 JUMP JUMPDEST DUP2 PUSH2 0x1A6E JUMPI POP PUSH0 PUSH2 0x1555 JUMP JUMPDEST DUP2 PUSH1 0x1 DUP2 EQ PUSH2 0x1A84 JUMPI PUSH1 0x2 DUP2 EQ PUSH2 0x1A8E JUMPI PUSH2 0x1AAA JUMP JUMPDEST PUSH1 0x1 SWAP2 POP POP PUSH2 0x1555 JUMP JUMPDEST PUSH1 0xFF DUP5 GT ISZERO PUSH2 0x1A9F JUMPI PUSH2 0x1A9F PUSH2 0x1983 JUMP JUMPDEST POP POP PUSH1 0x1 DUP3 SHL PUSH2 0x1555 JUMP JUMPDEST POP PUSH1 0x20 DUP4 LT PUSH2 0x133 DUP4 LT AND PUSH1 0x4E DUP5 LT PUSH1 0xB DUP5 LT AND OR ISZERO PUSH2 0x1ACD JUMPI POP DUP2 DUP2 EXP PUSH2 0x1555 JUMP JUMPDEST PUSH2 0x1AD9 PUSH0 NOT DUP5 DUP5 PUSH2 0x1A11 JUMP JUMPDEST DUP1 PUSH0 NOT DIV DUP3 GT ISZERO PUSH2 0x1AEC JUMPI PUSH2 0x1AEC PUSH2 0x1983 JUMP JUMPDEST MUL SWAP4 SWAP3 POP POP POP JUMP JUMPDEST PUSH0 PUSH2 0x1552 PUSH1 0xFF DUP5 AND DUP4 PUSH2 0x1A54 JUMP JUMPDEST PUSH0 PUSH1 0x1 DUP3 ADD PUSH2 0x1B13 JUMPI PUSH2 0x1B13 PUSH2 0x1983 JUMP JUMPDEST POP PUSH1 0x1 ADD SWAP1 JUMP JUMPDEST PUSH1 0x1F DUP3 GT ISZERO PUSH2 0x7F6 JUMPI DUP1 PUSH0 MSTORE PUSH1 0x20 PUSH0 KECCAK256 PUSH1 0x1F DUP5 ADD PUSH1 0x5 SHR DUP2 ADD PUSH1 0x20 DUP6 LT ISZERO PUSH2 0x1B3F JUMPI POP DUP1 JUMPDEST PUSH1 0x1F DUP5 ADD PUSH1 0x5 SHR DUP3 ADD SWAP2 POP JUMPDEST DUP2 DUP2 LT ISZERO PUSH2 0x111B JUMPI PUSH0 DUP2 SSTORE PUSH1 0x1 ADD PUSH2 0x1B4B JUMP JUMPDEST DUP2 MLOAD PUSH8 0xFFFFFFFFFFFFFFFF DUP2 GT ISZERO PUSH2 0x1B78 JUMPI PUSH2 0x1B78 PUSH2 0x1855 JUMP JUMPDEST PUSH2 0x1B8C DUP2 PUSH2 0x1B86 DUP5 SLOAD PUSH2 0x194B JUMP JUMPDEST DUP5 PUSH2 0x1B1A JUMP JUMPDEST PUSH1 0x20 PUSH1 0x1F DUP3 GT PUSH1 0x1 DUP2 EQ PUSH2 0x1BBE JUMPI PUSH0 DUP4 ISZERO PUSH2 0x1BA7 JUMPI POP DUP5 DUP3 ADD MLOAD JUMPDEST PUSH0 NOT PUSH1 0x3 DUP6 SWAP1 SHL SHR NOT AND PUSH1 0x1 DUP5 SWAP1 SHL OR DUP5 SSTORE PUSH2 0x111B JUMP JUMPDEST PUSH0 DUP5 DUP2 MSTORE PUSH1 0x20 DUP2 KECCAK256 PUSH1 0x1F NOT DUP6 AND SWAP2 JUMPDEST DUP3 DUP2 LT ISZERO PUSH2 0x1BED JUMPI DUP8 DUP6 ADD MLOAD DUP3 SSTORE PUSH1 0x20 SWAP5 DUP6 ADD SWAP5 PUSH1 0x1 SWAP1 SWAP3 ADD SWAP2 ADD PUSH2 0x1BCD JUMP JUMPDEST POP DUP5 DUP3 LT ISZERO PUSH2 0x1C0A JUMPI DUP7 DUP5 ADD MLOAD PUSH0 NOT PUSH1 0x3 DUP8 SWAP1 SHL PUSH1 0xF8 AND SHR NOT AND DUP2 SSTORE JUMPDEST POP POP POP POP PUSH1 0x1 SWAP1 DUP2 SHL ADD SWAP1 SSTORE POP JUMP JUMPDEST PUSH1 0x40 DUP2 MSTORE PUSH0 PUSH2 0x1C2B PUSH1 0x40 DUP4 ADD DUP6 PUSH2 0x1736 JUMP JUMPDEST SWAP1 POP DUP3 PUSH1 0x20 DUP4 ADD MSTORE SWAP4 SWAP3 POP POP POP JUMP JUMPDEST PUSH0 DUP3 MLOAD DUP1 PUSH1 0x20 DUP6 ADD DUP5 MCOPY PUSH0 SWAP3 ADD SWAP2 DUP3 MSTORE POP SWAP2 SWAP1 POP JUMP JUMPDEST PUSH0 DUP2 PUSH2 0x1C5E JUMPI PUSH2 0x1C5E PUSH2 0x1983 JUMP JUMPDEST POP PUSH0 NOT ADD SWAP1 JUMP JUMPDEST PUSH0 DUP3 PUSH2 0x1C7F JUMPI PUSH4 0x4E487B71 PUSH1 0xE0 SHL PUSH0 MSTORE PUSH1 0x12 PUSH1 0x4 MSTORE PUSH1 0x24 PUSH0 REVERT JUMPDEST POP DIV SWAP1 JUMP JUMPDEST PUSH4 0x4E487B71 PUSH1 0xE0 SHL PUSH0 MSTORE PUSH1 0x32 PUSH1 0x4 MSTORE PUSH1 0x24 PUSH0 REVERT INVALID LOG2 PUSH5 0x6970667358 0x22 SLT KECCAK256 GASLIMIT PUSH32 0xFA22F73B6925947CBAAB6173E871BD18DA6AD9BFD672E8973F55A47755C56473 PUSH16 0x6C634300081F00336080604052348015 PUSH2 0xF JUMPI PUSH0 PUSH0 REVERT JUMPDEST POP PUSH1 0x40 MLOAD PUSH2 0xB2D CODESIZE SUB DUP1 PUSH2 0xB2D DUP4 CODECOPY DUP2 ADD PUSH1 0x40 DUP2 SWAP1 MSTORE PUSH2 0x2E SWAP2 PUSH2 0x103 JUMP JUMPDEST DUP2 DUP2 PUSH1 0x3 PUSH2 0x3C DUP4 DUP3 PUSH2 0x1EC JUMP JUMPDEST POP PUSH1 0x4 PUSH2 0x49 DUP3 DUP3 PUSH2 0x1EC JUMP JUMPDEST POP POP PUSH1 0x5 DUP1 SLOAD PUSH1 0x1 PUSH1 0x1 PUSH1 0xA0 SHL SUB NOT AND CALLER OR SWAP1 SSTORE POP PUSH2 0x2A6 SWAP2 POP POP JUMP JUMPDEST PUSH4 0x4E487B71 PUSH1 0xE0 SHL PUSH0 MSTORE PUSH1 0x41 PUSH1 0x4 MSTORE PUSH1 0x24 PUSH0 REVERT JUMPDEST PUSH0 DUP3 PUSH1 0x1F DUP4 ADD SLT PUSH2 0x89 JUMPI PUSH0 PUSH0 REVERT JUMPDEST DUP2 MLOAD PUSH1 0x1 PUSH1 0x1 PUSH1 0x40 SHL SUB DUP2 GT ISZERO PUSH2 0xA2 JUMPI PUSH2 0xA2 PUSH2 0x66 JUMP JUMPDEST PUSH1 0x40 MLOAD PUSH1 0x1F DUP3 ADD PUSH1 0x1F NOT SWAP1 DUP2 AND PUSH1 0x3F ADD AND DUP2 ADD PUSH1 0x1 PUSH1 0x1 PUSH1 0x40 SHL SUB DUP2 GT DUP3 DUP3 LT OR ISZERO PUSH2 0xD0 JUMPI PUSH2 0xD0 PUSH2 0x66 JUMP JUMPDEST PUSH1 0x40 MSTORE DUP2 DUP2 MSTORE DUP4 DUP3 ADD PUSH1 0x20 ADD DUP6 LT ISZERO PUSH2 0xE7 JUMPI PUSH0 PUSH0 REVERT JUMPDEST DUP2 PUSH1 0x20 DUP6 ADD PUSH1 0x20 DUP4 ADD MCOPY PUSH0 SWAP2 DUP2 ADD PUSH1 0x20 ADD SWAP2 SWAP1 SWAP2 MSTORE SWAP4 SWAP3 POP POP POP JUMP JUMPDEST PUSH0 PUSH0 PUSH1 0x40 DUP4 DUP6 SUB SLT ISZERO PUSH2 0x114 JUMPI PUSH0 PUSH0 REVERT JUMPDEST DUP3 MLOAD PUSH1 0x1 PUSH1 0x1 PUSH1 0x40 SHL SUB DUP2 GT ISZERO PUSH2 0x129 JUMPI PUSH0 PUSH0 REVERT JUMPDEST PUSH2 0x135 DUP6 DUP3 DUP7 ADD PUSH2 0x7A JUMP JUMPDEST PUSH1 0x20 DUP6 ADD MLOAD SWAP1 SWAP4 POP SWAP1 POP PUSH1 0x1 PUSH1 0x1 PUSH1 0x40 SHL SUB DUP2 GT ISZERO PUSH2 0x152 JUMPI PUSH0 PUSH0 REVERT JUMPDEST PUSH2 0x15E DUP6 DUP3 DUP7 ADD PUSH2 0x7A JUMP JUMPDEST SWAP2 POP POP SWAP3 POP SWAP3 SWAP1 POP JUMP JUMPDEST PUSH1 0x1 DUP2 DUP2 SHR SWAP1 DUP3 AND DUP1 PUSH2 0x17C JUMPI PUSH1 0x7F DUP3 AND SWAP2 POP JUMPDEST PUSH1 0x20 DUP3 LT DUP2 SUB PUSH2 0x19A JUMPI PUSH4 0x4E487B71 PUSH1 0xE0 SHL PUSH0 MSTORE PUSH1 0x22 PUSH1 0x4 MSTORE PUSH1 0x24 PUSH0 REVERT JUMPDEST POP SWAP2 SWAP1 POP JUMP JUMPDEST PUSH1 0x1F DUP3 GT ISZERO PUSH2 0x1E7 JUMPI DUP1 PUSH0 MSTORE PUSH1 0x20 PUSH0 KECCAK256 PUSH1 0x1F DUP5 ADD PUSH1 0x5 SHR DUP2 ADD PUSH1 0x20 DUP6 LT ISZERO PUSH2 0x1C5 JUMPI POP DUP1 JUMPDEST PUSH1 0x1F DUP5 ADD PUSH1 0x5 SHR DUP3 ADD SWAP2 POP JUMPDEST DUP2 DUP2 LT ISZERO PUSH2 0x1E4 JUMPI PUSH0 DUP2 SSTORE PUSH1 0x1 ADD PUSH2 0x1D1 JUMP JUMPDEST POP POP JUMPDEST POP POP POP JUMP JUMPDEST DUP2 MLOAD PUSH1 0x1 PUSH1 0x1 PUSH1 0x40 SHL SUB DUP2 GT ISZERO PUSH2 0x205 JUMPI PUSH2 0x205 PUSH2 0x66 JUMP JUMPDEST PUSH2 0x219 DUP2 PUSH2 0x213 DUP5 SLOAD PUSH2 0x168 JUMP JUMPDEST DUP5 PUSH2 0x1A0 JUMP JUMPDEST PUSH1 0x20 PUSH1 0x1F DUP3 GT PUSH1 0x1 DUP2 EQ PUSH2 0x24B JUMPI PUSH0 DUP4 ISZERO PUSH2 0x234 JUMPI POP DUP5 DUP3 ADD MLOAD JUMPDEST PUSH0 NOT PUSH1 0x3 DUP6 SWAP1 SHL SHR NOT AND PUSH1 0x1 DUP5 SWAP1 SHL OR DUP5 SSTORE PUSH2 0x1E4 JUMP JUMPDEST PUSH0 DUP5 DUP2 MSTORE PUSH1 0x20 DUP2 KECCAK256 PUSH1 0x1F NOT DUP6 AND SWAP2 JUMPDEST DUP3 DUP2 LT ISZERO PUSH2 0x27A JUMPI DUP8 DUP6 ADD MLOAD DUP3 SSTORE PUSH1 0x20 SWAP5 DUP6 ADD SWAP5 PUSH1 0x1 SWAP1 SWAP3 ADD SWAP2 ADD PUSH2 0x25A JUMP JUMPDEST POP DUP5 DUP3 LT ISZERO PUSH2 0x297 JUMPI DUP7 DUP5 ADD MLOAD PUSH0 NOT PUSH1 0x3 DUP8 SWAP1 SHL PUSH1 0xF8 AND SHR NOT AND DUP2 SSTORE JUMPDEST POP POP POP POP PUSH1 0x1 SWAP1 DUP2 SHL ADD SWAP1 SSTORE POP JUMP JUMPDEST PUSH2 0x87A DUP1 PUSH2 0x2B3 PUSH0 CODECOPY PUSH0 RETURN INVALID PUSH1 0x80 PUSH1 0x40 MSTORE CALLVALUE DUP1 ISZERO PUSH2 0xF JUMPI PUSH0 PUSH0 REVERT JUMPDEST POP PUSH1 0x4 CALLDATASIZE LT PUSH2 0xB1 JUMPI PUSH0 CALLDATALOAD PUSH1 0xE0 SHR DUP1 PUSH4 0x70A08231 GT PUSH2 0x6E JUMPI DUP1 PUSH4 0x70A08231 EQ PUSH2 0x13F JUMPI DUP1 PUSH4 0x95D89B41 EQ PUSH2 0x167 JUMPI DUP1 PUSH4 0x9DC29FAC EQ PUSH2 0x16F JUMPI DUP1 PUSH4 0xA9059CBB EQ PUSH2 0x182 JUMPI DUP1 PUSH4 0xC1FC006A EQ PUSH2 0x195 JUMPI DUP1 PUSH4 0xDD62ED3E EQ PUSH2 0x1C0 JUMPI PUSH0 PUSH0 REVERT JUMPDEST DUP1 PUSH4 0x6FDDE03 EQ PUSH2 0xB5 JUMPI DUP1 PUSH4 0x95EA7B3 EQ PUSH2 0xD3 JUMPI DUP1 PUSH4 0x18160DDD EQ PUSH2 0xF6 JUMPI DUP1 PUSH4 0x23B872DD EQ PUSH2 0x108 JUMPI DUP1 PUSH4 0x313CE567 EQ PUSH2 0x11B JUMPI DUP1 PUSH4 0x40C10F19 EQ PUSH2 0x12A JUMPI JUMPDEST PUSH0 PUSH0 REVERT JUMPDEST PUSH2 0xBD PUSH2 0x1F8 JUMP JUMPDEST PUSH1 0x40 MLOAD PUSH2 0xCA SWAP2 SWAP1 PUSH2 0x6A0 JUMP JUMPDEST PUSH1 0x40 MLOAD DUP1 SWAP2 SUB SWAP1 RETURN JUMPDEST PUSH2 0xE6 PUSH2 0xE1 CALLDATASIZE PUSH1 0x4 PUSH2 0x6F0 JUMP JUMPDEST PUSH2 0x288 JUMP JUMPDEST PUSH1 0x40 MLOAD SWAP1 ISZERO ISZERO DUP2 MSTORE PUSH1 0x20 ADD PUSH2 0xCA JUMP JUMPDEST PUSH1 0x2 SLOAD JUMPDEST PUSH1 0x40 MLOAD SWAP1 DUP2 MSTORE PUSH1 0x20 ADD PUSH2 0xCA JUMP JUMPDEST PUSH2 0xE6 PUSH2 0x116 CALLDATASIZE PUSH1 0x4 PUSH2 0x718 JUMP JUMPDEST PUSH2 0x2A1 JUMP JUMPDEST PUSH1 0x40 MLOAD PUSH1 0x12 DUP2 MSTORE PUSH1 0x20 ADD PUSH2 0xCA JUMP JUMPDEST PUSH2 0x13D PUSH2 0x138 CALLDATASIZE PUSH1 0x4 PUSH2 0x6F0 JUMP JUMPDEST PUSH2 0x2C4 JUMP JUMPDEST STOP JUMPDEST PUSH2 0xFA PUSH2 0x14D CALLDATASIZE PUSH1 0x4 PUSH2 0x752 JUMP JUMPDEST PUSH1 0x1 PUSH1 0x1 PUSH1 0xA0 SHL SUB AND PUSH0 SWAP1 DUP2 MSTORE PUSH1 0x20 DUP2 SWAP1 MSTORE PUSH1 0x40 SWAP1 KECCAK256 SLOAD SWAP1 JUMP JUMPDEST PUSH2 0xBD PUSH2 0x305 JUMP JUMPDEST PUSH2 0x13D PUSH2 0x17D CALLDATASIZE PUSH1 0x4 PUSH2 0x6F0 JUMP JUMPDEST PUSH2 0x314 JUMP JUMPDEST PUSH2 0xE6 PUSH2 0x190 CALLDATASIZE PUSH1 0x4 PUSH2 0x6F0 JUMP JUMPDEST PUSH2 0x348 JUMP JUMPDEST PUSH1 0x5 SLOAD PUSH2 0x1A8 SWAP1 PUSH1 0x1 PUSH1 0x1 PUSH1 0xA0 SHL SUB AND DUP2 JUMP JUMPDEST PUSH1 0x40 MLOAD PUSH1 0x1 PUSH1 0x1 PUSH1 0xA0 SHL SUB SWAP1 SWAP2 AND DUP2 MSTORE PUSH1 0x20 ADD PUSH2 0xCA JUMP JUMPDEST PUSH2 0xFA PUSH2 0x1CE CALLDATASIZE PUSH1 0x4 PUSH2 0x772 JUMP JUMPDEST PUSH1 0x1 PUSH1 0x1 PUSH1 0xA0 SHL SUB SWAP2 DUP3 AND PUSH0 SWAP1 DUP2 MSTORE PUSH1 0x1 PUSH1 0x20 SWAP1 DUP2 MSTORE PUSH1 0x40 DUP1 DUP4 KECCAK256 SWAP4 SWAP1 SWAP5 AND DUP3 MSTORE SWAP2 SWAP1 SWAP2 MSTORE KECCAK256 SLOAD SWAP1 JUMP JUMPDEST PUSH1 0x60 PUSH1 0x3 DUP1 SLOAD PUSH2 0x207 SWAP1 PUSH2 0x7A3 JUMP JUMPDEST DUP1 PUSH1 0x1F ADD PUSH1 0x20 DUP1 SWAP2 DIV MUL PUSH1 0x20 ADD PUSH1 0x40 MLOAD SWAP1 DUP2 ADD PUSH1 0x40 MSTORE DUP1 SWAP3 SWAP2 SWAP1 DUP2 DUP2 MSTORE PUSH1 0x20 ADD DUP3 DUP1 SLOAD PUSH2 0x233 SWAP1 PUSH2 0x7A3 JUMP JUMPDEST DUP1 ISZERO PUSH2 0x27E JUMPI DUP1 PUSH1 0x1F LT PUSH2 0x255 JUMPI PUSH2 0x100 DUP1 DUP4 SLOAD DIV MUL DUP4 MSTORE SWAP2 PUSH1 0x20 ADD SWAP2 PUSH2 0x27E JUMP JUMPDEST DUP3 ADD SWAP2 SWAP1 PUSH0 MSTORE PUSH1 0x20 PUSH0 KECCAK256 SWAP1 JUMPDEST DUP2 SLOAD DUP2 MSTORE SWAP1 PUSH1 0x1 ADD SWAP1 PUSH1 0x20 ADD DUP1 DUP4 GT PUSH2 0x261 JUMPI DUP3 SWAP1 SUB PUSH1 0x1F AND DUP3 ADD SWAP2 JUMPDEST POP POP POP POP POP SWAP1 POP SWAP1 JUMP JUMPDEST PUSH0 CALLER PUSH2 0x295 DUP2 DUP6 DUP6 PUSH2 0x355 JUMP JUMPDEST PUSH1 0x1 SWAP2 POP POP JUMPDEST SWAP3 SWAP2 POP POP JUMP JUMPDEST PUSH0 CALLER PUSH2 0x2AE DUP6 DUP3 DUP6 PUSH2 0x367 JUMP JUMPDEST PUSH2 0x2B9 DUP6 DUP6 DUP6 PUSH2 0x3E3 JUMP JUMPDEST POP PUSH1 0x1 SWAP5 SWAP4 POP POP POP POP JUMP JUMPDEST PUSH1 0x5 SLOAD PUSH1 0x1 PUSH1 0x1 PUSH1 0xA0 SHL SUB AND CALLER EQ PUSH2 0x2F7 JUMPI PUSH1 0x40 MLOAD PUSH3 0x461BCD PUSH1 0xE5 SHL DUP2 MSTORE PUSH1 0x4 ADD PUSH2 0x2EE SWAP1 PUSH2 0x7DB JUMP JUMPDEST PUSH1 0x40 MLOAD DUP1 SWAP2 SUB SWAP1 REVERT JUMPDEST PUSH2 0x301 DUP3 DUP3 PUSH2 0x440 JUMP JUMPDEST POP POP JUMP JUMPDEST PUSH1 0x60 PUSH1 0x4 DUP1 SLOAD PUSH2 0x207 SWAP1 PUSH2 0x7A3 JUMP JUMPDEST PUSH1 0x5 SLOAD PUSH1 0x1 PUSH1 0x1 PUSH1 0xA0 SHL SUB AND CALLER EQ PUSH2 0x33E JUMPI PUSH1 0x40 MLOAD PUSH3 0x461BCD PUSH1 0xE5 SHL DUP2 MSTORE PUSH1 0x4 ADD PUSH2 0x2EE SWAP1 PUSH2 0x7DB JUMP JUMPDEST PUSH2 0x301 DUP3 DUP3 PUSH2 0x474 JUMP JUMPDEST PUSH0 CALLER PUSH2 0x295 DUP2 DUP6 DUP6 PUSH2 0x3E3 JUMP JUMPDEST PUSH2 0x362 DUP4 DUP4 DUP4 PUSH1 0x1 PUSH2 0x4A8 JUMP JUMPDEST POP POP POP JUMP JUMPDEST PUSH1 0x1 PUSH1 0x1 PUSH1 0xA0 SHL SUB DUP4 DUP2 AND PUSH0 SWAP1 DUP2 MSTORE PUSH1 0x1 PUSH1 0x20 SWAP1 DUP2 MSTORE PUSH1 0x40 DUP1 DUP4 KECCAK256 SWAP4 DUP7 AND DUP4 MSTORE SWAP3 SWAP1 MSTORE KECCAK256 SLOAD PUSH0 NOT DUP2 LT ISZERO PUSH2 0x3DD JUMPI DUP2 DUP2 LT ISZERO PUSH2 0x3CF JUMPI PUSH1 0x40 MLOAD PUSH4 0x7DC7A0D9 PUSH1 0xE1 SHL DUP2 MSTORE PUSH1 0x1 PUSH1 0x1 PUSH1 0xA0 SHL SUB DUP5 AND PUSH1 0x4 DUP3 ADD MSTORE PUSH1 0x24 DUP2 ADD DUP3 SWAP1 MSTORE PUSH1 0x44 DUP2 ADD DUP4 SWAP1 MSTORE PUSH1 0x64 ADD PUSH2 0x2EE JUMP JUMPDEST PUSH2 0x3DD DUP5 DUP5 DUP5 DUP5 SUB PUSH0 PUSH2 0x4A8 JUMP JUMPDEST POP POP POP POP JUMP JUMPDEST PUSH1 0x1 PUSH1 0x1 PUSH1 0xA0 SHL SUB DUP4 AND PUSH2 0x40C JUMPI PUSH1 0x40 MLOAD PUSH4 0x4B637E8F PUSH1 0xE1 SHL DUP2 MSTORE PUSH0 PUSH1 0x4 DUP3 ADD MSTORE PUSH1 0x24 ADD PUSH2 0x2EE JUMP JUMPDEST PUSH1 0x1 PUSH1 0x1 PUSH1 0xA0 SHL SUB DUP3 AND PUSH2 0x435 JUMPI PUSH1 0x40 MLOAD PUSH4 0xEC442F05 PUSH1 0xE0 SHL DUP2 MSTORE PUSH0 PUSH1 0x4 DUP3 ADD MSTORE PUSH1 0x24 ADD PUSH2 0x2EE JUMP JUMPDEST PUSH2 0x362 DUP4 DUP4 DUP4 PUSH2 0x57A JUMP JUMPDEST PUSH1 0x1 PUSH1 0x1 PUSH1 0xA0 SHL SUB DUP3 AND PUSH2 0x469 JUMPI PUSH1 0x40 MLOAD PUSH4 0xEC442F05 PUSH1 0xE0 SHL DUP2 MSTORE PUSH0 PUSH1 0x4 DUP3 ADD MSTORE PUSH1 0x24 ADD PUSH2 0x2EE JUMP JUMPDEST PUSH2 0x301 PUSH0 DUP4 DUP4 PUSH2 0x57A JUMP JUMPDEST PUSH1 0x1 PUSH1 0x1 PUSH1 0xA0 SHL SUB DUP3 AND PUSH2 0x49D JUMPI PUSH1 0x40 MLOAD PUSH4 0x4B637E8F PUSH1 0xE1 SHL DUP2 MSTORE PUSH0 PUSH1 0x4 DUP3 ADD MSTORE PUSH1 0x24 ADD PUSH2 0x2EE JUMP JUMPDEST PUSH2 0x301 DUP3 PUSH0 DUP4 PUSH2 0x57A JUMP JUMPDEST PUSH1 0x1 PUSH1 0x1 PUSH1 0xA0 SHL SUB DUP5 AND PUSH2 0x4D1 JUMPI PUSH1 0x40 MLOAD PUSH4 0xE602DF05 PUSH1 0xE0 SHL DUP2 MSTORE PUSH0 PUSH1 0x4 DUP3 ADD MSTORE PUSH1 0x24 ADD PUSH2 0x2EE JUMP JUMPDEST PUSH1 0x1 PUSH1 0x1 PUSH1 0xA0 SHL SUB DUP4 AND PUSH2 0x4FA JUMPI PUSH1 0x40 MLOAD PUSH4 0x4A1406B1 PUSH1 0xE1 SHL DUP2 MSTORE PUSH0 PUSH1 0x4 DUP3 ADD MSTORE PUSH1 0x24 ADD PUSH2 0x2EE JUMP JUMPDEST PUSH1 0x1 PUSH1 0x1 PUSH1 0xA0 SHL SUB DUP1 DUP6 AND PUSH0 SWAP1 DUP2 MSTORE PUSH1 0x1 PUSH1 0x20 SWAP1 DUP2 MSTORE PUSH1 0x40 DUP1 DUP4 KECCAK256 SWAP4 DUP8 AND DUP4 MSTORE SWAP3 SWAP1 MSTORE KECCAK256 DUP3 SWAP1 SSTORE DUP1 ISZERO PUSH2 0x3DD JUMPI DUP3 PUSH1 0x1 PUSH1 0x1 PUSH1 0xA0 SHL SUB AND DUP5 PUSH1 0x1 PUSH1 0x1 PUSH1 0xA0 SHL SUB AND PUSH32 0x8C5BE1E5EBEC7D5BD14F71427D1E84F3DD0314C0F7B2291E5B200AC8C7C3B925 DUP5 PUSH1 0x40 MLOAD PUSH2 0x56C SWAP2 DUP2 MSTORE PUSH1 0x20 ADD SWAP1 JUMP JUMPDEST PUSH1 0x40 MLOAD DUP1 SWAP2 SUB SWAP1 LOG3 POP POP POP POP JUMP JUMPDEST PUSH1 0x1 PUSH1 0x1 PUSH1 0xA0 SHL SUB DUP4 AND PUSH2 0x5A4 JUMPI DUP1 PUSH1 0x2 PUSH0 DUP3 DUP3 SLOAD PUSH2 0x599 SWAP2 SWAP1 PUSH2 0x825 JUMP JUMPDEST SWAP1 SWAP2 SSTORE POP PUSH2 0x614 SWAP1 POP JUMP JUMPDEST PUSH1 0x1 PUSH1 0x1 PUSH1 0xA0 SHL SUB DUP4 AND PUSH0 SWAP1 DUP2 MSTORE PUSH1 0x20 DUP2 SWAP1 MSTORE PUSH1 0x40 SWAP1 KECCAK256 SLOAD DUP2 DUP2 LT ISZERO PUSH2 0x5F6 JUMPI PUSH1 0x40 MLOAD PUSH4 0x391434E3 PUSH1 0xE2 SHL DUP2 MSTORE PUSH1 0x1 PUSH1 0x1 PUSH1 0xA0 SHL SUB DUP6 AND PUSH1 0x4 DUP3 ADD MSTORE PUSH1 0x24 DUP2 ADD DUP3 SWAP1 MSTORE PUSH1 0x44 DUP2 ADD DUP4 SWAP1 MSTORE PUSH1 0x64 ADD PUSH2 0x2EE JUMP JUMPDEST PUSH1 0x1 PUSH1 0x1 PUSH1 0xA0 SHL SUB DUP5 AND PUSH0 SWAP1 DUP2 MSTORE PUSH1 0x20 DUP2 SWAP1 MSTORE PUSH1 0x40 SWAP1 KECCAK256 SWAP1 DUP3 SWAP1 SUB SWAP1 SSTORE JUMPDEST PUSH1 0x1 PUSH1 0x1 PUSH1 0xA0 SHL SUB DUP3 AND PUSH2 0x630 JUMPI PUSH1 0x2 DUP1 SLOAD DUP3 SWAP1 SUB SWAP1 SSTORE PUSH2 0x64E JUMP JUMPDEST PUSH1 0x1 PUSH1 0x1 PUSH1 0xA0 SHL SUB DUP3 AND PUSH0 SWAP1 DUP2 MSTORE PUSH1 0x20 DUP2 SWAP1 MSTORE PUSH1 0x40 SWAP1 KECCAK256 DUP1 SLOAD DUP3 ADD SWAP1 SSTORE JUMPDEST DUP2 PUSH1 0x1 PUSH1 0x1 PUSH1 0xA0 SHL SUB AND DUP4 PUSH1 0x1 PUSH1 0x1 PUSH1 0xA0 SHL SUB AND PUSH32 0xDDF252AD1BE2C89B69C2B068FC378DAA952BA7F163C4A11628F55A4DF523B3EF DUP4 PUSH1 0x40 MLOAD PUSH2 0x693 SWAP2 DUP2 MSTORE PUSH1 0x20 ADD SWAP1 JUMP JUMPDEST PUSH1 0x40 MLOAD DUP1 SWAP2 SUB SWAP1 LOG3 POP POP POP JUMP JUMPDEST PUSH1 0x20 DUP2 MSTORE PUSH0 DUP3 MLOAD DUP1 PUSH1 0x20 DUP5 ADD MSTORE DUP1 PUSH1 0x20 DUP6 ADD PUSH1 0x40 DUP6 ADD MCOPY PUSH0 PUSH1 0x40 DUP3 DUP6 ADD ADD MSTORE PUSH1 0x40 PUSH1 0x1F NOT PUSH1 0x1F DUP4 ADD AND DUP5 ADD ADD SWAP2 POP POP SWAP3 SWAP2 POP POP JUMP JUMPDEST DUP1 CALLDATALOAD PUSH1 0x1 PUSH1 0x1 PUSH1 0xA0 SHL SUB DUP2 AND DUP2 EQ PUSH2 0x6EB JUMPI PUSH0 PUSH0 REVERT JUMPDEST SWAP2 SWAP1 POP JUMP JUMPDEST PUSH0 PUSH0 PUSH1 0x40 DUP4 DUP6 SUB SLT ISZERO PUSH2 0x701 JUMPI PUSH0 PUSH0 REVERT JUMPDEST PUSH2 0x70A DUP4 PUSH2 0x6D5 JUMP JUMPDEST SWAP5 PUSH1 0x20 SWAP4 SWAP1 SWAP4 ADD CALLDATALOAD SWAP4 POP POP POP JUMP JUMPDEST PUSH0 PUSH0 PUSH0 PUSH1 0x60 DUP5 DUP7 SUB SLT ISZERO PUSH2 0x72A JUMPI PUSH0 PUSH0 REVERT JUMPDEST PUSH2 0x733 DUP5 PUSH2 0x6D5 JUMP JUMPDEST SWAP3 POP PUSH2 0x741 PUSH1 0x20 DUP6 ADD PUSH2 0x6D5 JUMP JUMPDEST SWAP3 SWAP6 SWAP3 SWAP5 POP POP POP PUSH1 0x40 SWAP2 SWAP1 SWAP2 ADD CALLDATALOAD SWAP1 JUMP JUMPDEST PUSH0 PUSH1 0x20 DUP3 DUP5 SUB SLT ISZERO PUSH2 0x762 JUMPI PUSH0 PUSH0 REVERT JUMPDEST PUSH2 0x76B DUP3 PUSH2 0x6D5 JUMP JUMPDEST SWAP4 SWAP3 POP POP POP JUMP JUMPDEST PUSH0 PUSH0 PUSH1 0x40 DUP4 DUP6 SUB SLT ISZERO PUSH2 0x783 JUMPI PUSH0 PUSH0 REVERT JUMPDEST PUSH2 0x78C DUP4 PUSH2 0x6D5 JUMP JUMPDEST SWAP2 POP PUSH2 0x79A PUSH1 0x20 DUP5 ADD PUSH2 0x6D5 JUMP JUMPDEST SWAP1 POP SWAP3 POP SWAP3 SWAP1 POP JUMP JUMPDEST PUSH1 0x1 DUP2 DUP2 SHR SWAP1 DUP3 AND DUP1 PUSH2 0x7B7 JUMPI PUSH1 0x7F DUP3 AND SWAP2 POP JUMPDEST PUSH1 0x20 DUP3 LT DUP2 SUB PUSH2 0x7D5 JUMPI PUSH4 0x4E487B71 PUSH1 0xE0 SHL PUSH0 MSTORE PUSH1 0x22 PUSH1 0x4 MSTORE PUSH1 0x24 PUSH0 REVERT JUMPDEST POP SWAP2 SWAP1 POP JUMP JUMPDEST PUSH1 0x20 DUP1 DUP3 MSTORE PUSH1 0x2A SWAP1 DUP3 ADD MSTORE PUSH32 0x4E6F206175746F72697A61646F3A20736F6C6F20656C2073697374656D612064 PUSH1 0x40 DUP3 ADD MSTORE PUSH10 0x32903B37BA30B1B4B7B7 PUSH1 0xB1 SHL PUSH1 0x60 DUP3 ADD MSTORE PUSH1 0x80 ADD SWAP1 JUMP JUMPDEST DUP1 DUP3 ADD DUP1 DUP3 GT ISZERO PUSH2 0x29B JUMPI PUSH4 0x4E487B71 PUSH1 0xE0 SHL PUSH0 MSTORE PUSH1 0x11 PUSH1 0x4 MSTORE PUSH1 0x24 PUSH0 REVERT INVALID LOG2 PUSH5 0x6970667358 0x22 SLT KECCAK256 0xC8 0xAD EXTSTATICCALL 0xED PUSH6 0x1297E45261E9 0xE9 DUP5 DUP8 RJUMP 0x266C 0xCD PUSH22 0x226D91C9EB754095A73C67F3AF64736F6C634300081F STOP CALLER "
				},
				"gasEstimates": {
					"creation": {
						"codeDepositCost": "1474800",
						"executionCost": "infinite",
						"totalCost": "infinite"
					},
					"external": {
						"addParticipant()": "infinite",
						"addProposal(string,uint256,address)": "infinite",
						"buyTokens()": "infinite",
						"closeVoting()": "infinite",
						"getERC20()": "2342",
						"isParticipant(address)": "2577",
						"numParticipants()": "2384",
						"numPendingProposals()": "2360",
						"openVoting()": "51934",
						"owner()": "2358",
						"proposals(uint256)": "infinite",
						"sellTokens(uint256)": "infinite",
						"stake(uint256,uint256)": "infinite",
						"token()": "2424",
						"tokenPriceWei()": "2340",
						"totalBudget()": "2316",
						"userVotesInProposal(uint256,address)": "2681",
						"votingOpen()": "2376",
						"withdrawFromProposal(uint256,uint256)": "infinite"
					},
					"internal": {
						"_checkAndExecuteProposal(uint256)": "infinite",
						"_returnTokensToVoters(uint256)": "infinite"
					}
				},
				"methodIdentifiers": {
					"addParticipant()": "fffefd91",
					"addProposal(string,uint256,address)": "84f28239",
					"buyTokens()": "d0febe4c",
					"closeVoting()": "c631b292",
					"getERC20()": "4ece90a8",
					"isParticipant(address)": "929066f5",
					"numParticipants()": "4e76a846",
					"numPendingProposals()": "da52a95f",
					"openVoting()": "affc0670",
					"owner()": "8da5cb5b",
					"proposals(uint256)": "013cf08b",
					"sellTokens(uint256)": "6c11bcd3",
					"stake(uint256,uint256)": "7b0472f0",
					"token()": "fc0c546a",
					"tokenPriceWei()": "05d0f15b",
					"totalBudget()": "c78da39a",
					"userVotesInProposal(uint256,address)": "2e60338a",
					"votingOpen()": "a95824b4",
					"withdrawFromProposal(uint256,uint256)": "649c649c"
				}
			},
			"storageLayout": {
				"storage": [
					{
						"astId": 1134,
						"contract": "src/QuadraticVoting.sol:QuadraticVoting",
						"label": "owner",
						"offset": 0,
						"slot": "0",
						"type": "t_address"
					},
					{
						"astId": 1137,
						"contract": "src/QuadraticVoting.sol:QuadraticVoting",
						"label": "token",
						"offset": 0,
						"slot": "1",
						"type": "t_contract(GovernanceToken)1074"
					},
					{
						"astId": 1139,
						"contract": "src/QuadraticVoting.sol:QuadraticVoting",
						"label": "tokenPriceWei",
						"offset": 0,
						"slot": "2",
						"type": "t_uint256"
					},
					{
						"astId": 1141,
						"contract": "src/QuadraticVoting.sol:QuadraticVoting",
						"label": "totalBudget",
						"offset": 0,
						"slot": "3",
						"type": "t_uint256"
					},
					{
						"astId": 1143,
						"contract": "src/QuadraticVoting.sol:QuadraticVoting",
						"label": "votingOpen",
						"offset": 0,
						"slot": "4",
						"type": "t_bool"
					},
					{
						"astId": 1145,
						"contract": "src/QuadraticVoting.sol:QuadraticVoting",
						"label": "numParticipants",
						"offset": 0,
						"slot": "5",
						"type": "t_uint256"
					},
					{
						"astId": 1147,
						"contract": "src/QuadraticVoting.sol:QuadraticVoting",
						"label": "numPendingProposals",
						"offset": 0,
						"slot": "6",
						"type": "t_uint256"
					},
					{
						"astId": 1149,
						"contract": "src/QuadraticVoting.sol:QuadraticVoting",
						"label": "nextProposalId",
						"offset": 0,
						"slot": "7",
						"type": "t_uint256"
					},
					{
						"astId": 1176,
						"contract": "src/QuadraticVoting.sol:QuadraticVoting",
						"label": "proposals",
						"offset": 0,
						"slot": "8",
						"type": "t_mapping(t_uint256,t_struct(Proposal)1171_storage)"
					},
					{
						"astId": 1182,
						"contract": "src/QuadraticVoting.sol:QuadraticVoting",
						"label": "userVotesInProposal",
						"offset": 0,
						"slot": "9",
						"type": "t_mapping(t_uint256,t_mapping(t_address,t_uint256))"
					},
					{
						"astId": 1187,
						"contract": "src/QuadraticVoting.sol:QuadraticVoting",
						"label": "proposalVoters",
						"offset": 0,
						"slot": "10",
						"type": "t_mapping(t_uint256,t_array(t_address)dyn_storage)"
					},
					{
						"astId": 1191,
						"contract": "src/QuadraticVoting.sol:QuadraticVoting",
						"label": "isParticipant",
						"offset": 0,
						"slot": "11",
						"type": "t_mapping(t_address,t_bool)"
					}
				],
				"types": {
					"t_address": {
						"encoding": "inplace",
						"label": "address",
						"numberOfBytes": "20"
					},
					"t_array(t_address)dyn_storage": {
						"base": "t_address",
						"encoding": "dynamic_array",
						"label": "address[]",
						"numberOfBytes": "32"
					},
					"t_bool": {
						"encoding": "inplace",
						"label": "bool",
						"numberOfBytes": "1"
					},
					"t_contract(GovernanceToken)1074": {
						"encoding": "inplace",
						"label": "contract GovernanceToken",
						"numberOfBytes": "20"
					},
					"t_enum(ProposalStatus)1153": {
						"encoding": "inplace",
						"label": "enum QuadraticVoting.ProposalStatus",
						"numberOfBytes": "1"
					},
					"t_mapping(t_address,t_bool)": {
						"encoding": "mapping",
						"key": "t_address",
						"label": "mapping(address => bool)",
						"numberOfBytes": "32",
						"value": "t_bool"
					},
					"t_mapping(t_address,t_uint256)": {
						"encoding": "mapping",
						"key": "t_address",
						"label": "mapping(address => uint256)",
						"numberOfBytes": "32",
						"value": "t_uint256"
					},
					"t_mapping(t_uint256,t_array(t_address)dyn_storage)": {
						"encoding": "mapping",
						"key": "t_uint256",
						"label": "mapping(uint256 => address[])",
						"numberOfBytes": "32",
						"value": "t_array(t_address)dyn_storage"
					},
					"t_mapping(t_uint256,t_mapping(t_address,t_uint256))": {
						"encoding": "mapping",
						"key": "t_uint256",
						"label": "mapping(uint256 => mapping(address => uint256))",
						"numberOfBytes": "32",
						"value": "t_mapping(t_address,t_uint256)"
					},
					"t_mapping(t_uint256,t_struct(Proposal)1171_storage)": {
						"encoding": "mapping",
						"key": "t_uint256",
						"label": "mapping(uint256 => struct QuadraticVoting.Proposal)",
						"numberOfBytes": "32",
						"value": "t_struct(Proposal)1171_storage"
					},
					"t_string_storage": {
						"encoding": "bytes",
						"label": "string",
						"numberOfBytes": "32"
					},
					"t_struct(Proposal)1171_storage": {
						"encoding": "inplace",
						"label": "struct QuadraticVoting.Proposal",
						"members": [
							{
								"astId": 1155,
								"contract": "src/QuadraticVoting.sol:QuadraticVoting",
								"label": "title",
								"offset": 0,
								"slot": "0",
								"type": "t_string_storage"
							},
							{
								"astId": 1157,
								"contract": "src/QuadraticVoting.sol:QuadraticVoting",
								"label": "requiredBudget",
								"offset": 0,
								"slot": "1",
								"type": "t_uint256"
							},
							{
								"astId": 1159,
								"contract": "src/QuadraticVoting.sol:QuadraticVoting",
								"label": "executableContract",
								"offset": 0,
								"slot": "2",
								"type": "t_address"
							},
							{
								"astId": 1162,
								"contract": "src/QuadraticVoting.sol:QuadraticVoting",
								"label": "status",
								"offset": 20,
								"slot": "2",
								"type": "t_enum(ProposalStatus)1153"
							},
							{
								"astId": 1164,
								"contract": "src/QuadraticVoting.sol:QuadraticVoting",
								"label": "totalVotes",
								"offset": 0,
								"slot": "3",
								"type": "t_uint256"
							},
							{
								"astId": 1166,
								"contract": "src/QuadraticVoting.sol:QuadraticVoting",
								"label": "totalTokensStaked",
								"offset": 0,
								"slot": "4",
								"type": "t_uint256"
							},
							{
								"astId": 1168,
								"contract": "src/QuadraticVoting.sol:QuadraticVoting",
								"label": "creator",
								"offset": 0,
								"slot": "5",
								"type": "t_address"
							},
							{
								"astId": 1170,
								"contract": "src/QuadraticVoting.sol:QuadraticVoting",
								"label": "isSignaling",
								"offset": 20,
								"slot": "5",
								"type": "t_bool"
							}
						],
						"numberOfBytes": "192"
					},
					"t_uint256": {
						"encoding": "inplace",
						"label": "uint256",
						"numberOfBytes": "32"
					}
				}
			},
			"userdoc": {
				"kind": "user",
				"methods": {},
				"version": 1
			}
		}
	}
}