{
	"data": {
		"bytecode": {
			"linkReferences": {},
			"object": "608060405234801561000f575f5ffd5b50604051612f13380380612f1383398101604081905261002e916100da565b5f80546001600160a01b031916331790556002829055604051610050906100cd565b6040808252600990820152682220a7902a37b5b2b760b91b60608201526080602082018190526003908201526211159560ea1b60a082015260c001604051809103905ff0801580156100a4573d5f5f3e3d5ffd5b50600180546001600160a01b0319166001600160a01b0392909216919091179055506100fc9050565b610b2d806123e683390190565b5f5f604083850312156100eb575f5ffd5b505080516020909101519092909150565b6122dd806101095f395ff3fe608060405260043610610147575f3560e01c80639ab3f7a6116100b3578063c78da39a1161006d578063c78da39a146103a5578063d0febe4c146103ba578063da52a95f146103c2578063e0a8f6f5146103d7578063fc0c546a146103f6578063fffefd9114610415575f5ffd5b80639ab3f7a61461030c578063a80db6fc1461032b578063a95824b41461033f578063affc067014610358578063bc903cb814610360578063c631b29214610391575f5ffd5b80634ece90a8116101045780634ece90a81461022d5780636c11bcd31461025e5780637b0472f01461027d5780638da5cb5b1461029c5780638e08a50b146102ba578063929066f5146102ce575f5ffd5b8063013cf08b1461014b57806305d0f15b146101885780632e60338a146101ab5780633ac0feac146101e15780633d571e97146102025780634e76a84614610218575b5f5ffd5b348015610156575f5ffd5b5061016a610165366004611c2d565b61041d565b60405161017f99989796959493929190611ca6565b60405180910390f35b348015610193575f5ffd5b5061019d60025481565b60405190815260200161017f565b3480156101b6575f5ffd5b5061019d6101c5366004611d3c565b600960209081525f928352604080842090915290825290205481565b3480156101ec575f5ffd5b506101f5610584565b60405161017f9190611d66565b34801561020d575f5ffd5b50610216610596565b005b348015610223575f5ffd5b5061019d60055481565b348015610238575f5ffd5b506001546001600160a01b03165b6040516001600160a01b03909116815260200161017f565b348015610269575f5ffd5b50610216610278366004611c2d565b610619565b348015610288575f5ffd5b50610216610297366004611da8565b6107c6565b3480156102a7575f5ffd5b505f54610246906001600160a01b031681565b3480156102c5575f5ffd5b506101f5610a6a565b3480156102d9575f5ffd5b506102fc6102e8366004611dc8565b600b6020525f908152604090205460ff1681565b604051901515815260200161017f565b348015610317575f5ffd5b5061019d610326366004611e80565b610ba5565b348015610336575f5ffd5b506101f5610e38565b34801561034a575f5ffd5b506004546102fc9060ff1681565b610216610e44565b34801561036b575f5ffd5b5061037f61037a366004611c2d565b610ee7565b60405161017f96959493929190611efe565b34801561039c575f5ffd5b506102166110a0565b3480156103b0575f5ffd5b5061019d60035481565b6102166112f5565b3480156103cd575f5ffd5b5061019d60065481565b3480156103e2575f5ffd5b506102166103f1366004611c2d565b6113bf565b348015610401575f5ffd5b50600154610246906001600160a01b031681565b6102166114f8565b60086020525f908152604090208054819061043790611f5a565b80601f016020809104026020016040519081016040528092919081815260200182805461046390611f5a565b80156104ae5780601f10610485576101008083540402835291602001916104ae565b820191905f5260205f20905b81548152906001019060200180831161049157829003601f168201915b5050505050908060010180546104c390611f5a565b80601f01602080910402602001604051908101604052809291908181526020018280546104ef90611f5a565b801561053a5780601f106105115761010080835404028352916020019161053a565b820191905f5260205f20905b81548152906001019060200180831161051d57829003601f168201915b5050506002840154600385015460048601546005870154600690970154959692956001600160a01b03808416965060ff600160a01b94859004811696509294939082169291041689565b606061059160015f611625565b905090565b335f908152600b602052604090205460ff166105ee5760405162461bcd60e51b81526020600482015260126024820152714e6f206573207061727469636970616e746560701b60448201526064015b60405180910390fd5b335f908152600b60205260408120805460ff19169055600580549161061283611fa6565b9190505550565b6001546040516370a0823160e01b815233600482015282916001600160a01b0316906370a0823190602401602060405180830381865afa15801561065f573d5f5f3e3d5ffd5b505050506040513d601f19601f820116820180604052508101906106839190611fbb565b10156106c85760405162461bcd60e51b8152602060048201526014602482015273466f6e646f7320696e737566696369656e74657360601b60448201526064016105e5565b5f600254826106d79190611fd2565b600154604051632770a7eb60e21b8152336004820152602481018590529192506001600160a01b031690639dc29fac906044015f604051808303815f87803b158015610721575f5ffd5b505af1158015610733573d5f5f3e3d5ffd5b50506040515f925033915083908381818185875af1925050503d805f8114610776576040519150601f19603f3d011682016040523d82523d5f602084013e61077b565b606091505b50509050806107c15760405162461bcd60e51b81526020600482015260126024820152714572726f7220656e207265656d626f6c736f60701b60448201526064016105e5565b505050565b60045460ff1680156107e65750335f908152600b602052604090205460ff165b6108235760405162461bcd60e51b815260206004820152600e60248201526d273790383ab2b232903b37ba30b960911b60448201526064016105e5565b5f828152600860205260408120906003820154600160a01b900460ff16600281111561085157610851611c72565b1461088a5760405162461bcd60e51b81526020600482015260096024820152684e6f2061637469766160b81b60448201526064016105e5565b5f838152600960209081526040808320338452909152812054906108ae8483611fe9565b90505f6108bc6002846120df565b6108c76002846120df565b6108d191906120ed565b6001546040516323b872dd60e01b8152336004820152306024820152604481018390529192506001600160a01b0316906323b872dd906064016020604051808303815f875af1158015610926573d5f5f3e3d5ffd5b505050506040513d601f19601f8201168201806040525081019061094a9190612100565b6109865760405162461bcd60e51b815260206004820152600d60248201526c46616c746120617070726f766560981b60448201526064016105e5565b825f036109bb575f868152600a602090815260408220805460018101825590835291200180546001600160a01b031916331790555b5f86815260096020908152604080832033845290915281208390556004850180548792906109ea908490611fe9565b9250508190555080846005015f828254610a049190611fe9565b90915550506040805186815260208101839052339188917f0271f53eebbe20450d9578f28ec279231556c34545b30e2278d754ffd39cd63c910160405180910390a36006840154600160a01b900460ff16610a6257610a62866117ba565b505050505050565b60045460609060ff16610ab25760405162461bcd60e51b815260206004820152601060248201526f566f746163696f6e206365727261646160801b60448201526064016105e5565b5f805b600754811015610af5575f81815260086020526040902060060154600160a01b900460ff1615610aed5781610ae98161211f565b9250505b600101610ab5565b505f8167ffffffffffffffff811115610b1057610b10611de1565b604051908082528060200260200182016040528015610b39578160200160208202803683370190505b5090505f805b600754811015610b9c575f81815260086020526040902060060154600160a01b900460ff1615610b9457808383610b758161211f565b945081518110610b8757610b87612137565b6020026020010181815250505b600101610b3f565b50909392505050565b6004545f9060ff16610be35760405162461bcd60e51b81526020600482015260076024820152664365727261646160c81b60448201526064016105e5565b335f908152600b602052604090205460ff16610c365760405162461bcd60e51b8152602060048201526012602482015271536f6c6f207061727469636970616e74657360701b60448201526064016105e5565b610c506001600160a01b03831663986cc31160e01b611a47565b610c8d5760405162461bcd60e51b815260206004820152600e60248201526d4552433136352066616c6c69646f60901b60448201526064016105e5565b600780545f9182610c9d8361211f565b909155506040805161012081018252888152602081018890529081018690526001600160a01b0385166060820152909150841590608081015f81525f60208083018290526040808401839052336060850152851515608090940193909352858252600890522081518190610d119082612196565b5060208201516001820190610d269082612196565b50604082015160028083019190915560608301516003830180546001600160a01b039092166001600160a01b031983168117825560808601519391926001600160a81b0319161790600160a01b908490811115610d8557610d85611c72565b021790555060a0820151600482015560c0820151600582015560e082015160069091018054610100909301511515600160a01b026001600160a81b03199093166001600160a01b039092169190911791909117905580610df45760068054905f610dee8361211f565b91905055505b817ff5dc0da9afa6d080780a49fd8c680f03d2ddf3c067cd6d0c85360c096644d2d38887604051610e26929190612251565b60405180910390a25095945050505050565b60606105915f5f611625565b5f546001600160a01b03163314610e8c5760405162461bcd60e51b815260206004820152600c60248201526b29b7b6379031b932b0b237b960a11b60448201526064016105e5565b6004805460ff19166001179055600380543491905f90610ead908490611fe9565b90915550506040513481527fe0a358d4a766346f1ece85d22e2197435d610d9638874a0fd6746e58a1b1f58a9060200160405180910390a1565b60045460609081905f9081908190819060ff16610f395760405162461bcd60e51b815260206004820152601060248201526f566f746163696f6e206365727261646160801b60448201526064016105e5565b5f87815260086020526040902060028101546003820154600483015483548493600185019390926001600160a01b03821692600160a01b90920460ff16918690610f8290611f5a565b80601f0160208091040260200160405190810160405280929190818152602001828054610fae90611f5a565b8015610ff95780601f10610fd057610100808354040283529160200191610ff9565b820191905f5260205f20905b815481529060010190602001808311610fdc57829003601f168201915b5050505050955084805461100c90611f5a565b80601f016020809104026020016040519081016040528092919081815260200182805461103890611f5a565b80156110835780601f1061105a57610100808354040283529160200191611083565b820191905f5260205f20905b81548152906001019060200180831161106657829003601f168201915b505050505094509650965096509650965096505091939550919395565b5f546001600160a01b0316331480156110bb575060045460ff165b6110f45760405162461bcd60e51b815260206004820152600a60248201526929b7b6379037bbb732b960b11b60448201526064016105e5565b6004805460ff191690555f5b60075481101561124d575f8181526008602052604090206006810154600160a01b900460ff16156111ec5760038101546004820154600583015460405160248101869052604481019290925260648201525f916001600160a01b031690620186a09060840160408051601f198184030181529181526020820180516001600160e01b031663986cc31160e01b1790525161119a9190612272565b5f604051808303815f8787f1925050503d805f81146111d4576040519150601f19603f3d011682016040523d82523d5f602084013e6111d9565b606091505b505090506111e683611a69565b50611244565b5f6003820154600160a01b900460ff16600281111561120d5761120d611c72565b036112445760038101805460ff60a01b1916600160a11b17905560068054905f61123683611fa6565b919050555061124482611a69565b50600101611100565b50600380545f90915580156112f2575f80546040516001600160a01b039091169083908381818185875af1925050503d805f81146112a6576040519150601f19603f3d011682016040523d82523d5f602084013e6112ab565b606091505b50509050806112f05760405162461bcd60e51b815260206004820152601160248201527022b93937b9103634b8bab4b230b1b4b7b760791b60448201526064016105e5565b505b50565b335f908152600b602052604090205460ff166113405760405162461bcd60e51b815260206004820152600a602482015269496e736372696261736560b01b60448201526064016105e5565b6001546002546001600160a01b03909116906340c10f199033906113649034612288565b6040516001600160e01b031960e085901b1681526001600160a01b03909216600483015260248201526044015f604051808303815f87803b1580156113a7575f5ffd5b505af11580156113b9573d5f5f3e3d5ffd5b50505050565b60045460ff166113fb5760405162461bcd60e51b81526020600482015260076024820152664365727261646160c81b60448201526064016105e5565b5f81815260086020526040902060068101546001600160a01b031633146114545760405162461bcd60e51b815260206004820152600d60248201526c29b7b6379032b61030baba37b960991b60448201526064016105e5565b5f6003820154600160a01b900460ff16600281111561147557611475611c72565b146114b25760405162461bcd60e51b815260206004820152600d60248201526c59612066696e616c697a61646160981b60448201526064016105e5565b60038101805460ff60a01b1916600160a11b1790556006810154600160a01b900460ff166114ef5760068054905f6114e983611fa6565b91905055505b6112f082611a69565b60025434101561153b5760405162461bcd60e51b815260206004820152600e60248201526d26b4b734b6b79018903a37b5b2b760911b60448201526064016105e5565b335f908152600b602052604090205460ff1661157e57335f908152600b60205260408120805460ff1916600117905560058054916115788361211f565b91905055505b5f6002543461158d9190612288565b6001546040516340c10f1960e01b8152336004820152602481018390529192506001600160a01b0316906340c10f19906044015f604051808303815f87803b1580156115d7575f5ffd5b505af11580156115e9573d5f5f3e3d5ffd5b50506040518381523392507f287ab65235aa9a0baeed5b973fda48c77ebdc6f3dd931cfda1c082c0aecc1e73915060200160405180910390a250565b60605f805b6007548110156116b85784600281111561164657611646611c72565b5f82815260086020526040902060030154600160a01b900460ff16600281111561167257611672611c72565b14801561169d57505f8181526008602052604090206006015460ff600160a01b909104161515841515145b156116b057816116ac8161211f565b9250505b60010161162a565b505f8167ffffffffffffffff8111156116d3576116d3611de1565b6040519080825280602002602001820160405280156116fc578160200160208202803683370190505b5090505f805b6007548110156117ad5786600281111561171e5761171e611c72565b5f82815260086020526040902060030154600160a01b900460ff16600281111561174a5761174a611c72565b14801561177557505f8181526008602052604090206006015460ff600160a01b909104161515861515145b156117a5578083836117868161211f565b94508151811061179857611798612137565b6020026020010181815250505b600101611702565b5090925050505b92915050565b5f81815260086020526040812060035460028201549192916117dd90600a611fd2565b6117e79190612288565b6117f2906002611fe9565b90505f600a6006546005546118079190611fe9565b6118119084611fd2565b61181b9190612288565b90508083600401541180156118365750826002015460035410155b156113b95760038301805460ff60a01b1916600160a01b17905560068054905f61185f83611fa6565b919050555060025483600501546118769190611fd2565b60035f8282546118869190611fe9565b90915550506002830154600380545f906118a19084906120ed565b90915550506001546005840154604051632770a7eb60e21b815230600482015260248101919091526001600160a01b0390911690639dc29fac906044015f604051808303815f87803b1580156118f5575f5ffd5b505af1158015611907573d5f5f3e3d5ffd5b50505050600383015460028401546004850154600586015460405160248101899052604481019290925260648201525f926001600160a01b031691620186a09160840160408051601f198184030181529181526020820180516001600160e01b031663986cc31160e01b1790525161197f9190612272565b5f60405180830381858888f193505050503d805f81146119ba576040519150601f19603f3d011682016040523d82523d5f602084013e6119bf565b606091505b5050905080611a025760405162461bcd60e51b815260206004820152600f60248201526e456a65637563696f6e2066616c6c6f60881b60448201526064016105e5565b847fc6a4fd4a703d2a2fe3167ce7f6d62bf96458b7e55042cfaa85d5c7ef3ac56eea8560020154604051611a3891815260200190565b60405180910390a25050505050565b5f611a5183611b87565b8015611a625750611a628383611bd5565b9392505050565b5f818152600a60205260408120905b81548110156107c1575f828281548110611a9457611a94612137565b5f9182526020808320909101548683526009825260408084206001600160a01b03909216808552919092529120549091508015611b7d575f611ad68280611fd2565b5f8781526009602090815260408083206001600160a01b038089168552925280832092909255600154915163a9059cbb60e01b8152929350169063a9059cbb90611b3a90869085906004016001600160a01b03929092168252602082015260400190565b6020604051808303815f875af1158015611b56573d5f5f3e3d5ffd5b505050506040513d601f19601f82011682018060405250810190611b7a9190612100565b50505b5050600101611a78565b5f611b99826301ffc9a760e01b611bd5565b15611bc9575f80611bb2846001600160e01b0319611bf9565b91509150818015611bc1575080155b949350505050565b505f919050565b919050565b5f5f5f611be28585611bf9565b91509150818015611bf05750805b95945050505050565b6301ffc9a760e01b5f818152600483905290819060208260248188617530fa92505f511515601f3d11169150509250929050565b5f60208284031215611c3d575f5ffd5b5035919050565b5f81518084528060208401602086015e5f602082860101526020601f19601f83011685010191505092915050565b634e487b7160e01b5f52602160045260245ffd5b60038110611ca257634e487b7160e01b5f52602160045260245ffd5b9052565b61012081525f611cba61012083018c611c44565b8281036020840152611ccc818c611c44565b604084018b90526001600160a01b038a1660608501529150611cf390506080830188611c86565b60a082019590955260c08101939093526001600160a01b039190911660e083015215156101009091015295945050505050565b80356001600160a01b0381168114611bd0575f5ffd5b5f5f60408385031215611d4d575f5ffd5b82359150611d5d60208401611d26565b90509250929050565b602080825282518282018190525f918401906040840190835b81811015611d9d578351835260209384019390920191600101611d7f565b509095945050505050565b5f5f60408385031215611db9575f5ffd5b50508035926020909101359150565b5f60208284031215611dd8575f5ffd5b611a6282611d26565b634e487b7160e01b5f52604160045260245ffd5b5f82601f830112611e04575f5ffd5b813567ffffffffffffffff811115611e1e57611e1e611de1565b604051601f8201601f19908116603f0116810167ffffffffffffffff81118282101715611e4d57611e4d611de1565b604052818152838201602001851015611e64575f5ffd5b816020850160208301375f918101602001919091529392505050565b5f5f5f5f60808587031215611e93575f5ffd5b843567ffffffffffffffff811115611ea9575f5ffd5b611eb587828801611df5565b945050602085013567ffffffffffffffff811115611ed1575f5ffd5b611edd87828801611df5565b93505060408501359150611ef360608601611d26565b905092959194509250565b60c081525f611f1060c0830189611c44565b8281036020840152611f228189611c44565b604084018890526001600160a01b03871660608501529150611f4990506080830185611c86565b8260a0830152979650505050505050565b600181811c90821680611f6e57607f821691505b602082108103611f8c57634e487b7160e01b5f52602260045260245ffd5b50919050565b634e487b7160e01b5f52601160045260245ffd5b5f81611fb457611fb4611f92565b505f190190565b5f60208284031215611fcb575f5ffd5b5051919050565b80820281158282048414176117b4576117b4611f92565b808201808211156117b4576117b4611f92565b6001815b60018411156120375780850481111561201b5761201b611f92565b600184161561202957908102905b60019390931c928002612000565b935093915050565b5f8261204d575060016117b4565b8161205957505f6117b4565b816001811461206f576002811461207957612095565b60019150506117b4565b60ff84111561208a5761208a611f92565b50506001821b6117b4565b5060208310610133831016604e8410600b84101617156120b8575081810a6117b4565b6120c45f198484611ffc565b805f19048211156120d7576120d7611f92565b029392505050565b5f611a6260ff84168361203f565b818103818111156117b4576117b4611f92565b5f60208284031215612110575f5ffd5b81518015158114611a62575f5ffd5b5f6001820161213057612130611f92565b5060010190565b634e487b7160e01b5f52603260045260245ffd5b601f8211156107c157805f5260205f20601f840160051c810160208510156121705750805b601f840160051c820191505b8181101561218f575f815560010161217c565b5050505050565b815167ffffffffffffffff8111156121b0576121b0611de1565b6121c4816121be8454611f5a565b8461214b565b6020601f8211600181146121f6575f83156121df5750848201515b5f19600385901b1c1916600184901b17845561218f565b5f84815260208120601f198516915b828110156122255787850151825560209485019460019092019101612205565b508482101561224257868401515f19600387901b60f8161c191681555b50505050600190811b01905550565b604081525f6122636040830185611c44565b90508260208301529392505050565b5f82518060208501845e5f920191825250919050565b5f826122a257634e487b7160e01b5f52601260045260245ffd5b50049056fea26469706673582212208cbb73a194afcaa388b3fa7582fb314b6aa9ff7436fa4134d01d4e8bb1769c1264736f6c634300081f0033608060405234801561000f575f5ffd5b50604051610b2d380380610b2d83398101604081905261002e91610103565b8181600361003c83826101ec565b50600461004982826101ec565b5050600580546001600160a01b03191633179055506102a6915050565b634e487b7160e01b5f52604160045260245ffd5b5f82601f830112610089575f5ffd5b81516001600160401b038111156100a2576100a2610066565b604051601f8201601f19908116603f011681016001600160401b03811182821017156100d0576100d0610066565b6040528181528382016020018510156100e7575f5ffd5b8160208501602083015e5f918101602001919091529392505050565b5f5f60408385031215610114575f5ffd5b82516001600160401b03811115610129575f5ffd5b6101358582860161007a565b602085015190935090506001600160401b03811115610152575f5ffd5b61015e8582860161007a565b9150509250929050565b600181811c9082168061017c57607f821691505b60208210810361019a57634e487b7160e01b5f52602260045260245ffd5b50919050565b601f8211156101e757805f5260205f20601f840160051c810160208510156101c55750805b601f840160051c820191505b818110156101e4575f81556001016101d1565b50505b505050565b81516001600160401b0381111561020557610205610066565b610219816102138454610168565b846101a0565b6020601f82116001811461024b575f83156102345750848201515b5f19600385901b1c1916600184901b1784556101e4565b5f84815260208120601f198516915b8281101561027a578785015182556020948501946001909201910161025a565b508482101561029757868401515f19600387901b60f8161c191681555b50505050600190811b01905550565b61087a806102b35f395ff3fe608060405234801561000f575f5ffd5b50600436106100b1575f3560e01c806370a082311161006e57806370a082311461013f57806395d89b41146101675780639dc29fac1461016f578063a9059cbb14610182578063c1fc006a14610195578063dd62ed3e146101c0575f5ffd5b806306fdde03146100b5578063095ea7b3146100d357806318160ddd146100f657806323b872dd14610108578063313ce5671461011b57806340c10f191461012a575b5f5ffd5b6100bd6101f8565b6040516100ca91906106a0565b60405180910390f35b6100e66100e13660046106f0565b610288565b60405190151581526020016100ca565b6002545b6040519081526020016100ca565b6100e6610116366004610718565b6102a1565b604051601281526020016100ca565b61013d6101383660046106f0565b6102c4565b005b6100fa61014d366004610752565b6001600160a01b03165f9081526020819052604090205490565b6100bd610305565b61013d61017d3660046106f0565b610314565b6100e66101903660046106f0565b610348565b6005546101a8906001600160a01b031681565b6040516001600160a01b0390911681526020016100ca565b6100fa6101ce366004610772565b6001600160a01b039182165f90815260016020908152604080832093909416825291909152205490565b606060038054610207906107a3565b80601f0160208091040260200160405190810160405280929190818152602001828054610233906107a3565b801561027e5780601f106102555761010080835404028352916020019161027e565b820191905f5260205f20905b81548152906001019060200180831161026157829003601f168201915b5050505050905090565b5f33610295818585610355565b60019150505b92915050565b5f336102ae858285610367565b6102b98585856103e3565b506001949350505050565b6005546001600160a01b031633146102f75760405162461bcd60e51b81526004016102ee906107db565b60405180910390fd5b6103018282610440565b5050565b606060048054610207906107a3565b6005546001600160a01b0316331461033e5760405162461bcd60e51b81526004016102ee906107db565b6103018282610474565b5f336102958185856103e3565b61036283838360016104a8565b505050565b6001600160a01b038381165f908152600160209081526040808320938616835292905220545f198110156103dd57818110156103cf57604051637dc7a0d960e11b81526001600160a01b038416600482015260248101829052604481018390526064016102ee565b6103dd84848484035f6104a8565b50505050565b6001600160a01b03831661040c57604051634b637e8f60e11b81525f60048201526024016102ee565b6001600160a01b0382166104355760405163ec442f0560e01b81525f60048201526024016102ee565b61036283838361057a565b6001600160a01b0382166104695760405163ec442f0560e01b81525f60048201526024016102ee565b6103015f838361057a565b6001600160a01b03821661049d57604051634b637e8f60e11b81525f60048201526024016102ee565b610301825f8361057a565b6001600160a01b0384166104d15760405163e602df0560e01b81525f60048201526024016102ee565b6001600160a01b0383166104fa57604051634a1406b160e11b81525f60048201526024016102ee565b6001600160a01b038085165f90815260016020908152604080832093871683529290522082905580156103dd57826001600160a01b0316846001600160a01b03167f8c5be1e5ebec7d5bd14f71427d1e84f3dd0314c0f7b2291e5b200ac8c7c3b9258460405161056c91815260200190565b60405180910390a350505050565b6001600160a01b0383166105a4578060025f8282546105999190610825565b909155506106149050565b6001600160a01b0383165f90815260208190526040902054818110156105f65760405163391434e360e21b81526001600160a01b038516600482015260248101829052604481018390526064016102ee565b6001600160a01b0384165f9081526020819052604090209082900390555b6001600160a01b0382166106305760028054829003905561064e565b6001600160a01b0382165f9081526020819052604090208054820190555b816001600160a01b0316836001600160a01b03167fddf252ad1be2c89b69c2b068fc378daa952ba7f163c4a11628f55a4df523b3ef8360405161069391815260200190565b60405180910390a3505050565b602081525f82518060208401528060208501604085015e5f604082850101526040601f19601f83011684010191505092915050565b80356001600160a01b03811681146106eb575f5ffd5b919050565b5f5f60408385031215610701575f5ffd5b61070a836106d5565b946020939093013593505050565b5f5f5f6060848603121561072a575f5ffd5b610733846106d5565b9250610741602085016106d5565b929592945050506040919091013590565b5f60208284031215610762575f5ffd5b61076b826106d5565b9392505050565b5f5f60408385031215610783575f5ffd5b61078c836106d5565b915061079a602084016106d5565b90509250929050565b600181811c908216806107b757607f821691505b6020821081036107d557634e487b7160e01b5f52602260045260245ffd5b50919050565b6020808252602a908201527f4e6f206175746f72697a61646f3a20736f6c6f20656c2073697374656d61206460408201526932903b37ba30b1b4b7b760b11b606082015260800190565b8082018082111561029b57634e487b7160e01b5f52601160045260245ffdfea2646970667358221220c8adfbed651297e45261e9e98487e0266ccd75226d91c9eb754095a73c67f3af64736f6c634300081f0033",
			"opcodes": "PUSH1 0x80 PUSH1 0x40 MSTORE CALLVALUE DUP1 ISZERO PUSH2 0xF JUMPI PUSH0 PUSH0 REVERT JUMPDEST POP PUSH1 0x40 MLOAD PUSH2 0x2F13 CODESIZE SUB DUP1 PUSH2 0x2F13 DUP4 CODECOPY DUP2 ADD PUSH1 0x40 DUP2 SWAP1 MSTORE PUSH2 0x2E SWAP2 PUSH2 0xDA JUMP JUMPDEST PUSH0 DUP1 SLOAD PUSH1 0x1 PUSH1 0x1 PUSH1 0xA0 SHL SUB NOT AND CALLER OR SWAP1 SSTORE PUSH1 0x2 DUP3 SWAP1 SSTORE PUSH1 0x40 MLOAD PUSH2 0x50 SWAP1 PUSH2 0xCD JUMP JUMPDEST PUSH1 0x40 DUP1 DUP3 MSTORE PUSH1 0x9 SWAP1 DUP3 ADD MSTORE PUSH9 0x2220A7902A37B5B2B7 PUSH1 0xB9 SHL PUSH1 0x60 DUP3 ADD MSTORE PUSH1 0x80 PUSH1 0x20 DUP3 ADD DUP2 SWAP1 MSTORE PUSH1 0x3 SWAP1 DUP3 ADD MSTORE PUSH3 0x111595 PUSH1 0xEA SHL PUSH1 0xA0 DUP3 ADD MSTORE PUSH1 0xC0 ADD PUSH1 0x40 MLOAD DUP1 SWAP2 SUB SWAP1 PUSH0 CREATE DUP1 ISZERO DUP1 ISZERO PUSH2 0xA4 JUMPI RETURNDATASIZE PUSH0 PUSH0 RETURNDATACOPY RETURNDATASIZE PUSH0 REVERT JUMPDEST POP PUSH1 0x1 DUP1 SLOAD PUSH1 0x1 PUSH1 0x1 PUSH1 0xA0 SHL SUB NOT AND PUSH1 0x1 PUSH1 0x1 PUSH1 0xA0 SHL SUB SWAP3 SWAP1 SWAP3 AND SWAP2 SWAP1 SWAP2 OR SWAP1 SSTORE POP PUSH2 0xFC SWAP1 POP JUMP JUMPDEST PUSH2 0xB2D DUP1 PUSH2 0x23E6 DUP4 CODECOPY ADD SWAP1 JUMP JUMPDEST PUSH0 PUSH0 PUSH1 0x40 DUP4 DUP6 SUB SLT ISZERO PUSH2 0xEB JUMPI PUSH0 PUSH0 REVERT JUMPDEST POP POP DUP1 MLOAD PUSH1 0x20 SWAP1 SWAP2 ADD MLOAD SWAP1 SWAP3 SWAP1 SWAP2 POP JUMP JUMPDEST PUSH2 0x22DD DUP1 PUSH2 0x109 PUSH0 CODECOPY PUSH0 RETURN INVALID PUSH1 0x80 PUSH1 0x40 MSTORE PUSH1 0x4 CALLDATASIZE LT PUSH2 0x147 JUMPI PUSH0 CALLDATALOAD PUSH1 0xE0 SHR DUP1 PUSH4 0x9AB3F7A6 GT PUSH2 0xB3 JUMPI DUP1 PUSH4 0xC78DA39A GT PUSH2 0x6D JUMPI DUP1 PUSH4 0xC78DA39A EQ PUSH2 0x3A5 JUMPI DUP1 PUSH4 0xD0FEBE4C EQ PUSH2 0x3BA JUMPI DUP1 PUSH4 0xDA52A95F EQ PUSH2 0x3C2 JUMPI DUP1 PUSH4 0xE0A8F6F5 EQ PUSH2 0x3D7 JUMPI DUP1 PUSH4 0xFC0C546A EQ PUSH2 0x3F6 JUMPI DUP1 PUSH4 0xFFFEFD91 EQ PUSH2 0x415 JUMPI PUSH0 PUSH0 REVERT JUMPDEST DUP1 PUSH4 0x9AB3F7A6 EQ PUSH2 0x30C JUMPI DUP1 PUSH4 0xA80DB6FC EQ PUSH2 0x32B JUMPI DUP1 PUSH4 0xA95824B4 EQ PUSH2 0x33F JUMPI DUP1 PUSH4 0xAFFC0670 EQ PUSH2 0x358 JUMPI DUP1 PUSH4 0xBC903CB8 EQ PUSH2 0x360 JUMPI DUP1 PUSH4 0xC631B292 EQ PUSH2 0x391 JUMPI PUSH0 PUSH0 REVERT JUMPDEST DUP1 PUSH4 0x4ECE90A8 GT PUSH2 0x104 JUMPI DUP1 PUSH4 0x4ECE90A8 EQ PUSH2 0x22D JUMPI DUP1 PUSH4 0x6C11BCD3 EQ PUSH2 0x25E JUMPI DUP1 PUSH4 0x7B0472F0 EQ PUSH2 0x27D JUMPI DUP1 PUSH4 0x8DA5CB5B EQ PUSH2 0x29C JUMPI DUP1 PUSH4 0x8E08A50B EQ PUSH2 0x2BA JUMPI DUP1 PUSH4 0x929066F5 EQ PUSH2 0x2CE JUMPI PUSH0 PUSH0 REVERT JUMPDEST DUP1 PUSH4 0x13CF08B EQ PUSH2 0x14B JUMPI DUP1 PUSH4 0x5D0F15B EQ PUSH2 0x188 JUMPI DUP1 PUSH4 0x2E60338A EQ PUSH2 0x1AB JUMPI DUP1 PUSH4 0x3AC0FEAC EQ PUSH2 0x1E1 JUMPI DUP1 PUSH4 0x3D571E97 EQ PUSH2 0x202 JUMPI DUP1 PUSH4 0x4E76A846 EQ PUSH2 0x218 JUMPI JUMPDEST PUSH0 PUSH0 REVERT JUMPDEST CALLVALUE DUP1 ISZERO PUSH2 0x156 JUMPI PUSH0 PUSH0 REVERT JUMPDEST POP PUSH2 0x16A PUSH2 0x165 CALLDATASIZE PUSH1 0x4 PUSH2 0x1C2D JUMP JUMPDEST PUSH2 0x41D JUMP JUMPDEST PUSH1 0x40 MLOAD PUSH2 0x17F SWAP10 SWAP9 SWAP8 SWAP7 SWAP6 SWAP5 SWAP4 SWAP3 SWAP2 SWAP1 PUSH2 0x1CA6 JUMP JUMPDEST PUSH1 0x40 MLOAD DUP1 SWAP2 SUB SWAP1 RETURN JUMPDEST CALLVALUE DUP1 ISZERO PUSH2 0x193 JUMPI PUSH0 PUSH0 REVERT JUMPDEST POP PUSH2 0x19D PUSH1 0x2 SLOAD DUP2 JUMP JUMPDEST PUSH1 0x40 MLOAD SWAP1 DUP2 MSTORE PUSH1 0x20 ADD PUSH2 0x17F JUMP JUMPDEST CALLVALUE DUP1 ISZERO PUSH2 0x1B6 JUMPI PUSH0 PUSH0 REVERT JUMPDEST POP PUSH2 0x19D PUSH2 0x1C5 CALLDATASIZE PUSH1 0x4 PUSH2 0x1D3C JUMP JUMPDEST PUSH1 0x9 PUSH1 0x20 SWAP1 DUP2 MSTORE PUSH0 SWAP3 DUP4 MSTORE PUSH1 0x40 DUP1 DUP5 KECCAK256 SWAP1 SWAP2 MSTORE SWAP1 DUP3 MSTORE SWAP1 KECCAK256 SLOAD DUP2 JUMP JUMPDEST CALLVALUE DUP1 ISZERO PUSH2 0x1EC JUMPI PUSH0 PUSH0 REVERT JUMPDEST POP PUSH2 0x1F5 PUSH2 0x584 JUMP JUMPDEST PUSH1 0x40 MLOAD PUSH2 0x17F SWAP2 SWAP1 PUSH2 0x1D66 JUMP JUMPDEST CALLVALUE DUP1 ISZERO PUSH2 0x20D JUMPI PUSH0 PUSH0 REVERT JUMPDEST POP PUSH2 0x216 PUSH2 0x596 JUMP JUMPDEST STOP JUMPDEST CALLVALUE DUP1 ISZERO PUSH2 0x223 JUMPI PUSH0 PUSH0 REVERT JUMPDEST POP PUSH2 0x19D PUSH1 0x5 SLOAD DUP2 JUMP JUMPDEST CALLVALUE DUP1 ISZERO PUSH2 0x238 JUMPI PUSH0 PUSH0 REVERT JUMPDEST POP PUSH1 0x1 SLOAD PUSH1 0x1 PUSH1 0x1 PUSH1 0xA0 SHL SUB AND JUMPDEST PUSH1 0x40 MLOAD PUSH1 0x1 PUSH1 0x1 PUSH1 0xA0 SHL SUB SWAP1 SWAP2 AND DUP2 MSTORE PUSH1 0x20 ADD PUSH2 0x17F JUMP JUMPDEST CALLVALUE DUP1 ISZERO PUSH2 0x269 JUMPI PUSH0 PUSH0 REVERT JUMPDEST POP PUSH2 0x216 PUSH2 0x278 CALLDATASIZE PUSH1 0x4 PUSH2 0x1C2D JUMP JUMPDEST PUSH2 0x619 JUMP JUMPDEST CALLVALUE DUP1 ISZERO PUSH2 0x288 JUMPI PUSH0 PUSH0 REVERT JUMPDEST POP PUSH2 0x216 PUSH2 0x297 CALLDATASIZE PUSH1 0x4 PUSH2 0x1DA8 JUMP JUMPDEST PUSH2 0x7C6 JUMP JUMPDEST CALLVALUE DUP1 ISZERO PUSH2 0x2A7 JUMPI PUSH0 PUSH0 REVERT JUMPDEST POP PUSH0 SLOAD PUSH2 0x246 SWAP1 PUSH1 0x1 PUSH1 0x1 PUSH1 0xA0 SHL SUB AND DUP2 JUMP JUMPDEST CALLVALUE DUP1 ISZERO PUSH2 0x2C5 JUMPI PUSH0 PUSH0 REVERT JUMPDEST POP PUSH2 0x1F5 PUSH2 0xA6A JUMP JUMPDEST CALLVALUE DUP1 ISZERO PUSH2 0x2D9 JUMPI PUSH0 PUSH0 REVERT JUMPDEST POP PUSH2 0x2FC PUSH2 0x2E8 CALLDATASIZE PUSH1 0x4 PUSH2 0x1DC8 JUMP JUMPDEST PUSH1 0xB PUSH1 0x20 MSTORE PUSH0 SWAP1 DUP2 MSTORE PUSH1 0x40 SWAP1 KECCAK256 SLOAD PUSH1 0xFF AND DUP2 JUMP JUMPDEST PUSH1 0x40 MLOAD SWAP1 ISZERO ISZERO DUP2 MSTORE PUSH1 0x20 ADD PUSH2 0x17F JUMP JUMPDEST CALLVALUE DUP1 ISZERO PUSH2 0x317 JUMPI PUSH0 PUSH0 REVERT JUMPDEST POP PUSH2 0x19D PUSH2 0x326 CALLDATASIZE PUSH1 0x4 PUSH2 0x1E80 JUMP JUMPDEST PUSH2 0xBA5 JUMP JUMPDEST CALLVALUE DUP1 ISZERO PUSH2 0x336 JUMPI PUSH0 PUSH0 REVERT JUMPDEST POP PUSH2 0x1F5 PUSH2 0xE38 JUMP JUMPDEST CALLVALUE DUP1 ISZERO PUSH2 0x34A JUMPI PUSH0 PUSH0 REVERT JUMPDEST POP PUSH1 0x4 SLOAD PUSH2 0x2FC SWAP1 PUSH1 0xFF AND DUP2 JUMP JUMPDEST PUSH2 0x216 PUSH2 0xE44 JUMP JUMPDEST CALLVALUE DUP1 ISZERO PUSH2 0x36B JUMPI PUSH0 PUSH0 REVERT JUMPDEST POP PUSH2 0x37F PUSH2 0x37A CALLDATASIZE PUSH1 0x4 PUSH2 0x1C2D JUMP JUMPDEST PUSH2 0xEE7 JUMP JUMPDEST PUSH1 0x40 MLOAD PUSH2 0x17F SWAP7 SWAP6 SWAP5 SWAP4 SWAP3 SWAP2 SWAP1 PUSH2 0x1EFE JUMP JUMPDEST CALLVALUE DUP1 ISZERO PUSH2 0x39C JUMPI PUSH0 PUSH0 REVERT JUMPDEST POP PUSH2 0x216 PUSH2 0x10A0 JUMP JUMPDEST CALLVALUE DUP1 ISZERO PUSH2 0x3B0 JUMPI PUSH0 PUSH0 REVERT JUMPDEST POP PUSH2 0x19D PUSH1 0x3 SLOAD DUP2 JUMP JUMPDEST PUSH2 0x216 PUSH2 0x12F5 JUMP JUMPDEST CALLVALUE DUP1 ISZERO PUSH2 0x3CD JUMPI PUSH0 PUSH0 REVERT JUMPDEST POP PUSH2 0x19D PUSH1 0x6 SLOAD DUP2 JUMP JUMPDEST CALLVALUE DUP1 ISZERO PUSH2 0x3E2 JUMPI PUSH0 PUSH0 REVERT JUMPDEST POP PUSH2 0x216 PUSH2 0x3F1 CALLDATASIZE PUSH1 0x4 PUSH2 0x1C2D JUMP JUMPDEST PUSH2 0x13BF JUMP JUMPDEST CALLVALUE DUP1 ISZERO PUSH2 0x401 JUMPI PUSH0 PUSH0 REVERT JUMPDEST POP PUSH1 0x1 SLOAD PUSH2 0x246 SWAP1 PUSH1 0x1 PUSH1 0x1 PUSH1 0xA0 SHL SUB AND DUP2 JUMP JUMPDEST PUSH2 0x216 PUSH2 0x14F8 JUMP JUMPDEST PUSH1 0x8 PUSH1 0x20 MSTORE PUSH0 SWAP1 DUP2 MSTORE PUSH1 0x40 SWAP1 KECCAK256 DUP1 SLOAD DUP2 SWAP1 PUSH2 0x437 SWAP1 PUSH2 0x1F5A JUMP JUMPDEST DUP1 PUSH1 0x1F ADD PUSH1 0x20 DUP1 SWAP2 DIV MUL PUSH1 0x20 ADD PUSH1 0x40 MLOAD SWAP1 DUP2 ADD PUSH1 0x40 MSTORE DUP1 SWAP3 SWAP2 SWAP1 DUP2 DUP2 MSTORE PUSH1 0x20 ADD DUP3 DUP1 SLOAD PUSH2 0x463 SWAP1 PUSH2 0x1F5A JUMP JUMPDEST DUP1 ISZERO PUSH2 0x4AE JUMPI DUP1 PUSH1 0x1F LT PUSH2 0x485 JUMPI PUSH2 0x100 DUP1 DUP4 SLOAD DIV MUL DUP4 MSTORE SWAP2 PUSH1 0x20 ADD SWAP2 PUSH2 0x4AE JUMP JUMPDEST DUP3 ADD SWAP2 SWAP1 PUSH0 MSTORE PUSH1 0x20 PUSH0 KECCAK256 SWAP1 JUMPDEST DUP2 SLOAD DUP2 MSTORE SWAP1 PUSH1 0x1 ADD SWAP1 PUSH1 0x20 ADD DUP1 DUP4 GT PUSH2 0x491 JUMPI DUP3 SWAP1 SUB PUSH1 0x1F AND DUP3 ADD SWAP2 JUMPDEST POP POP POP POP POP SWAP1 DUP1 PUSH1 0x1 ADD DUP1 SLOAD PUSH2 0x4C3 SWAP1 PUSH2 0x1F5A JUMP JUMPDEST DUP1 PUSH1 0x1F ADD PUSH1 0x20 DUP1 SWAP2 DIV MUL PUSH1 0x20 ADD PUSH1 0x40 MLOAD SWAP1 DUP2 ADD PUSH1 0x40 MSTORE DUP1 SWAP3 SWAP2 SWAP1 DUP2 DUP2 MSTORE PUSH1 0x20 ADD DUP3 DUP1 SLOAD PUSH2 0x4EF SWAP1 PUSH2 0x1F5A JUMP JUMPDEST DUP1 ISZERO PUSH2 0x53A JUMPI DUP1 PUSH1 0x1F LT PUSH2 0x511 JUMPI PUSH2 0x100 DUP1 DUP4 SLOAD DIV MUL DUP4 MSTORE SWAP2 PUSH1 0x20 ADD SWAP2 PUSH2 0x53A JUMP JUMPDEST DUP3 ADD SWAP2 SWAP1 PUSH0 MSTORE PUSH1 0x20 PUSH0 KECCAK256 SWAP1 JUMPDEST DUP2 SLOAD DUP2 MSTORE SWAP1 PUSH1 0x1 ADD SWAP1 PUSH1 0x20 ADD DUP1 DUP4 GT PUSH2 0x51D JUMPI DUP3 SWAP1 SUB PUSH1 0x1F AND DUP3 ADD SWAP2 JUMPDEST POP POP POP PUSH1 0x2 DUP5 ADD SLOAD PUSH1 0x3 DUP6 ADD SLOAD PUSH1 0x4 DUP7 ADD SLOAD PUSH1 0x5 DUP8 ADD SLOAD PUSH1 0x6 SWAP1 SWAP8 ADD SLOAD SWAP6 SWAP7 SWAP3 SWAP6 PUSH1 0x1 PUSH1 0x1 PUSH1 0xA0 SHL SUB DUP1 DUP5 AND SWAP7 POP PUSH1 0xFF PUSH1 0x1 PUSH1 0xA0 SHL SWAP5 DUP6 SWAP1 DIV DUP2 AND SWAP7 POP SWAP3 SWAP5 SWAP4 SWAP1 DUP3 AND SWAP3 SWAP2 DIV AND DUP10 JUMP JUMPDEST PUSH1 0x60 PUSH2 0x591 PUSH1 0x1 PUSH0 PUSH2 0x1625 JUMP JUMPDEST SWAP1 POP SWAP1 JUMP JUMPDEST CALLER PUSH0 SWAP1 DUP2 MSTORE PUSH1 0xB PUSH1 0x20 MSTORE PUSH1 0x40 SWAP1 KECCAK256 SLOAD PUSH1 0xFF AND PUSH2 0x5EE JUMPI PUSH1 0x40 MLOAD PUSH3 0x461BCD PUSH1 0xE5 SHL DUP2 MSTORE PUSH1 0x20 PUSH1 0x4 DUP3 ADD MSTORE PUSH1 0x12 PUSH1 0x24 DUP3 ADD MSTORE PUSH18 0x4E6F206573207061727469636970616E7465 PUSH1 0x70 SHL PUSH1 0x44 DUP3 ADD MSTORE PUSH1 0x64 ADD JUMPDEST PUSH1 0x40 MLOAD DUP1 SWAP2 SUB SWAP1 REVERT JUMPDEST CALLER PUSH0 SWAP1 DUP2 MSTORE PUSH1 0xB PUSH1 0x20 MSTORE PUSH1 0x40 DUP2 KECCAK256 DUP1 SLOAD PUSH1 0xFF NOT AND SWAP1 SSTORE PUSH1 0x5 DUP1 SLOAD SWAP2 PUSH2 0x612 DUP4 PUSH2 0x1FA6 JUMP JUMPDEST SWAP2 SWAP1 POP SSTORE POP JUMP JUMPDEST PUSH1 0x1 SLOAD PUSH1 0x40 MLOAD PUSH4 0x70A08231 PUSH1 0xE0 SHL DUP2 MSTORE CALLER PUSH1 0x4 DUP3 ADD MSTORE DUP3 SWAP2 PUSH1 0x1 PUSH1 0x1 PUSH1 0xA0 SHL SUB AND SWAP1 PUSH4 0x70A08231 SWAP1 PUSH1 0x24 ADD PUSH1 0x20 PUSH1 0x40 MLOAD DUP1 DUP4 SUB DUP2 DUP7 GAS STATICCALL ISZERO DUP1 ISZERO PUSH2 0x65F JUMPI RETURNDATASIZE PUSH0 PUSH0 RETURNDATACOPY RETURNDATASIZE PUSH0 REVERT JUMPDEST POP POP POP POP PUSH1 0x40 MLOAD RETURNDATASIZE PUSH1 0x1F NOT PUSH1 0x1F DUP3 ADD AND DUP3 ADD DUP1 PUSH1 0x40 MSTORE POP DUP2 ADD SWAP1 PUSH2 0x683 SWAP2 SWAP1 PUSH2 0x1FBB JUMP JUMPDEST LT ISZERO PUSH2 0x6C8 JUMPI PUSH1 0x40 MLOAD PUSH3 0x461BCD PUSH1 0xE5 SHL DUP2 MSTORE PUSH1 0x20 PUSH1 0x4 DUP3 ADD MSTORE PUSH1 0x14 PUSH1 0x24 DUP3 ADD MSTORE PUSH20 0x466F6E646F7320696E737566696369656E746573 PUSH1 0x60 SHL PUSH1 0x44 DUP3 ADD MSTORE PUSH1 0x64 ADD PUSH2 0x5E5 JUMP JUMPDEST PUSH0 PUSH1 0x2 SLOAD DUP3 PUSH2 0x6D7 SWAP2 SWAP1 PUSH2 0x1FD2 JUMP JUMPDEST PUSH1 0x1 SLOAD PUSH1 0x40 MLOAD PUSH4 0x2770A7EB PUSH1 0xE2 SHL DUP2 MSTORE CALLER PUSH1 0x4 DUP3 ADD MSTORE PUSH1 0x24 DUP2 ADD DUP6 SWAP1 MSTORE SWAP2 SWAP3 POP PUSH1 0x1 PUSH1 0x1 PUSH1 0xA0 SHL SUB AND SWAP1 PUSH4 0x9DC29FAC SWAP1 PUSH1 0x44 ADD PUSH0 PUSH1 0x40 MLOAD DUP1 DUP4 SUB DUP2 PUSH0 DUP8 DUP1 EXTCODESIZE ISZERO DUP1 ISZERO PUSH2 0x721 JUMPI PUSH0 PUSH0 REVERT JUMPDEST POP GAS CALL ISZERO DUP1 ISZERO PUSH2 0x733 JUMPI RETURNDATASIZE PUSH0 PUSH0 RETURNDATACOPY RETURNDATASIZE PUSH0 REVERT JUMPDEST POP POP PUSH1 0x40 MLOAD PUSH0 SWAP3 POP CALLER SWAP2 POP DUP4 SWAP1 DUP4 DUP2 DUP2 DUP2 DUP6 DUP8 GAS CALL SWAP3 POP POP POP RETURNDATASIZE DUP1 PUSH0 DUP2 EQ PUSH2 0x776 JUMPI PUSH1 0x40 MLOAD SWAP2 POP PUSH1 0x1F NOT PUSH1 0x3F RETURNDATASIZE ADD AND DUP3 ADD PUSH1 0x40 MSTORE RETURNDATASIZE DUP3 MSTORE RETURNDATASIZE PUSH0 PUSH1 0x20 DUP5 ADD RETURNDATACOPY PUSH2 0x77B JUMP JUMPDEST PUSH1 0x60 SWAP2 POP JUMPDEST POP POP SWAP1 POP DUP1 PUSH2 0x7C1 JUMPI PUSH1 0x40 MLOAD PUSH3 0x461BCD PUSH1 0xE5 SHL DUP2 MSTORE PUSH1 0x20 PUSH1 0x4 DUP3 ADD MSTORE PUSH1 0x12 PUSH1 0x24 DUP3 ADD MSTORE PUSH18 0x4572726F7220656E207265656D626F6C736F PUSH1 0x70 SHL PUSH1 0x44 DUP3 ADD MSTORE PUSH1 0x64 ADD PUSH2 0x5E5 JUMP JUMPDEST POP POP POP JUMP JUMPDEST PUSH1 0x4 SLOAD PUSH1 0xFF AND DUP1 ISZERO PUSH2 0x7E6 JUMPI POP CALLER PUSH0 SWAP1 DUP2 MSTORE PUSH1 0xB PUSH1 0x20 MSTORE PUSH1 0x40 SWAP1 KECCAK256 SLOAD PUSH1 0xFF AND JUMPDEST PUSH2 0x823 JUMPI PUSH1 0x40 MLOAD PUSH3 0x461BCD PUSH1 0xE5 SHL DUP2 MSTORE PUSH1 0x20 PUSH1 0x4 DUP3 ADD MSTORE PUSH1 0xE PUSH1 0x24 DUP3 ADD MSTORE PUSH14 0x273790383AB2B232903B37BA30B9 PUSH1 0x91 SHL PUSH1 0x44 DUP3 ADD MSTORE PUSH1 0x64 ADD PUSH2 0x5E5 JUMP JUMPDEST PUSH0 DUP3 DUP2 MSTORE PUSH1 0x8 PUSH1 0x20 MSTORE PUSH1 0x40 DUP2 KECCAK256 SWAP1 PUSH1 0x3 DUP3 ADD SLOAD PUSH1 0x1 PUSH1 0xA0 SHL SWAP1 DIV PUSH1 0xFF AND PUSH1 0x2 DUP2 GT ISZERO PUSH2 0x851 JUMPI PUSH2 0x851 PUSH2 0x1C72 JUMP JUMPDEST EQ PUSH2 0x88A JUMPI PUSH1 0x40 MLOAD PUSH3 0x461BCD PUSH1 0xE5 SHL DUP2 MSTORE PUSH1 0x20 PUSH1 0x4 DUP3 ADD MSTORE PUSH1 0x9 PUSH1 0x24 DUP3 ADD MSTORE PUSH9 0x4E6F20616374697661 PUSH1 0xB8 SHL PUSH1 0x44 DUP3 ADD MSTORE PUSH1 0x64 ADD PUSH2 0x5E5 JUMP JUMPDEST PUSH0 DUP4 DUP2 MSTORE PUSH1 0x9 PUSH1 0x20 SWAP1 DUP2 MSTORE PUSH1 0x40 DUP1 DUP4 KECCAK256 CALLER DUP5 MSTORE SWAP1 SWAP2 MSTORE DUP2 KECCAK256 SLOAD SWAP1 PUSH2 0x8AE DUP5 DUP4 PUSH2 0x1FE9 JUMP JUMPDEST SWAP1 POP PUSH0 PUSH2 0x8BC PUSH1 0x2 DUP5 PUSH2 0x20DF JUMP JUMPDEST PUSH2 0x8C7 PUSH1 0x2 DUP5 PUSH2 0x20DF JUMP JUMPDEST PUSH2 0x8D1 SWAP2 SWAP1 PUSH2 0x20ED JUMP JUMPDEST PUSH1 0x1 SLOAD PUSH1 0x40 MLOAD PUSH4 0x23B872DD PUSH1 0xE0 SHL DUP2 MSTORE CALLER PUSH1 0x4 DUP3 ADD MSTORE ADDRESS PUSH1 0x24 DUP3 ADD MSTORE PUSH1 0x44 DUP2 ADD DUP4 SWAP1 MSTORE SWAP2 SWAP3 POP PUSH1 0x1 PUSH1 0x1 PUSH1 0xA0 SHL SUB AND SWAP1 PUSH4 0x23B872DD SWAP1 PUSH1 0x64 ADD PUSH1 0x20 PUSH1 0x40 MLOAD DUP1 DUP4 SUB DUP2 PUSH0 DUP8 GAS CALL ISZERO DUP1 ISZERO PUSH2 0x926 JUMPI RETURNDATASIZE PUSH0 PUSH0 RETURNDATACOPY RETURNDATASIZE PUSH0 REVERT JUMPDEST POP POP POP POP PUSH1 0x40 MLOAD RETURNDATASIZE PUSH1 0x1F NOT PUSH1 0x1F DUP3 ADD AND DUP3 ADD DUP1 PUSH1 0x40 MSTORE POP DUP2 ADD SWAP1 PUSH2 0x94A SWAP2 SWAP1 PUSH2 0x2100 JUMP JUMPDEST PUSH2 0x986 JUMPI PUSH1 0x40 MLOAD PUSH3 0x461BCD PUSH1 0xE5 SHL DUP2 MSTORE PUSH1 0x20 PUSH1 0x4 DUP3 ADD MSTORE PUSH1 0xD PUSH1 0x24 DUP3 ADD MSTORE PUSH13 0x46616C746120617070726F7665 PUSH1 0x98 SHL PUSH1 0x44 DUP3 ADD MSTORE PUSH1 0x64 ADD PUSH2 0x5E5 JUMP JUMPDEST DUP3 PUSH0 SUB PUSH2 0x9BB JUMPI PUSH0 DUP7 DUP2 MSTORE PUSH1 0xA PUSH1 0x20 SWAP1 DUP2 MSTORE PUSH1 0x40 DUP3 KECCAK256 DUP1 SLOAD PUSH1 0x1 DUP2 ADD DUP3 SSTORE SWAP1 DUP4 MSTORE SWAP2 KECCAK256 ADD DUP1 SLOAD PUSH1 0x1 PUSH1 0x1 PUSH1 0xA0 SHL SUB NOT AND CALLER OR SWAP1 SSTORE JUMPDEST PUSH0 DUP7 DUP2 MSTORE PUSH1 0x9 PUSH1 0x20 SWAP1 DUP2 MSTORE PUSH1 0x40 DUP1 DUP4 KECCAK256 CALLER DUP5 MSTORE SWAP1 SWAP2 MSTORE DUP2 KECCAK256 DUP4 SWAP1 SSTORE PUSH1 0x4 DUP6 ADD DUP1 SLOAD DUP8 SWAP3 SWAP1 PUSH2 0x9EA SWAP1 DUP5 SWAP1 PUSH2 0x1FE9 JUMP JUMPDEST SWAP3 POP POP DUP2 SWAP1 SSTORE POP DUP1 DUP5 PUSH1 0x5 ADD PUSH0 DUP3 DUP3 SLOAD PUSH2 0xA04 SWAP2 SWAP1 PUSH2 0x1FE9 JUMP JUMPDEST SWAP1 SWAP2 SSTORE POP POP PUSH1 0x40 DUP1 MLOAD DUP7 DUP2 MSTORE PUSH1 0x20 DUP2 ADD DUP4 SWAP1 MSTORE CALLER SWAP2 DUP9 SWAP2 PUSH32 0x271F53EEBBE20450D9578F28EC279231556C34545B30E2278D754FFD39CD63C SWAP2 ADD PUSH1 0x40 MLOAD DUP1 SWAP2 SUB SWAP1 LOG3 PUSH1 0x6 DUP5 ADD SLOAD PUSH1 0x1 PUSH1 0xA0 SHL SWAP1 DIV PUSH1 0xFF AND PUSH2 0xA62 JUMPI PUSH2 0xA62 DUP7 PUSH2 0x17BA JUMP JUMPDEST POP POP POP POP POP POP JUMP JUMPDEST PUSH1 0x4 SLOAD PUSH1 0x60 SWAP1 PUSH1 0xFF AND PUSH2 0xAB2 JUMPI PUSH1 0x40 MLOAD PUSH3 0x461BCD PUSH1 0xE5 SHL DUP2 MSTORE PUSH1 0x20 PUSH1 0x4 DUP3 ADD MSTORE PUSH1 0x10 PUSH1 0x24 DUP3 ADD MSTORE PUSH16 0x566F746163696F6E2063657272616461 PUSH1 0x80 SHL PUSH1 0x44 DUP3 ADD MSTORE PUSH1 0x64 ADD PUSH2 0x5E5 JUMP JUMPDEST PUSH0 DUP1 JUMPDEST PUSH1 0x7 SLOAD DUP2 LT ISZERO PUSH2 0xAF5 JUMPI PUSH0 DUP2 DUP2 MSTORE PUSH1 0x8 PUSH1 0x20 MSTORE PUSH1 0x40 SWAP1 KECCAK256 PUSH1 0x6 ADD SLOAD PUSH1 0x1 PUSH1 0xA0 SHL SWAP1 DIV PUSH1 0xFF AND ISZERO PUSH2 0xAED JUMPI DUP2 PUSH2 0xAE9 DUP2 PUSH2 0x211F JUMP JUMPDEST SWAP3 POP POP JUMPDEST PUSH1 0x1 ADD PUSH2 0xAB5 JUMP JUMPDEST POP PUSH0 DUP2 PUSH8 0xFFFFFFFFFFFFFFFF DUP2 GT ISZERO PUSH2 0xB10 JUMPI PUSH2 0xB10 PUSH2 0x1DE1 JUMP JUMPDEST PUSH1 0x40 MLOAD SWAP1 DUP1 DUP3 MSTORE DUP1 PUSH1 0x20 MUL PUSH1 0x20 ADD DUP3 ADD PUSH1 0x40 MSTORE DUP1 ISZERO PUSH2 0xB39 JUMPI DUP2 PUSH1 0x20 ADD PUSH1 0x20 DUP3 MUL DUP1 CALLDATASIZE DUP4 CALLDATACOPY ADD SWAP1 POP JUMPDEST POP SWAP1 POP PUSH0 DUP1 JUMPDEST PUSH1 0x7 SLOAD DUP2 LT ISZERO PUSH2 0xB9C JUMPI PUSH0 DUP2 DUP2 MSTORE PUSH1 0x8 PUSH1 0x20 MSTORE PUSH1 0x40 SWAP1 KECCAK256 PUSH1 0x6 ADD SLOAD PUSH1 0x1 PUSH1 0xA0 SHL SWAP1 DIV PUSH1 0xFF AND ISZERO PUSH2 0xB94 JUMPI DUP1 DUP4 DUP4 PUSH2 0xB75 DUP2 PUSH2 0x211F JUMP JUMPDEST SWAP5 POP DUP2 MLOAD DUP2 LT PUSH2 0xB87 JUMPI PUSH2 0xB87 PUSH2 0x2137 JUMP JUMPDEST PUSH1 0x20 MUL PUSH1 0x20 ADD ADD DUP2 DUP2 MSTORE POP POP JUMPDEST PUSH1 0x1 ADD PUSH2 0xB3F JUMP JUMPDEST POP SWAP1 SWAP4 SWAP3 POP POP POP JUMP JUMPDEST PUSH1 0x4 SLOAD PUSH0 SWAP1 PUSH1 0xFF AND PUSH2 0xBE3 JUMPI PUSH1 0x40 MLOAD PUSH3 0x461BCD PUSH1 0xE5 SHL DUP2 MSTORE PUSH1 0x20 PUSH1 0x4 DUP3 ADD MSTORE PUSH1 0x7 PUSH1 0x24 DUP3 ADD MSTORE PUSH7 0x43657272616461 PUSH1 0xC8 SHL PUSH1 0x44 DUP3 ADD MSTORE PUSH1 0x64 ADD PUSH2 0x5E5 JUMP JUMPDEST CALLER PUSH0 SWAP1 DUP2 MSTORE PUSH1 0xB PUSH1 0x20 MSTORE PUSH1 0x40 SWAP1 KECCAK256 SLOAD PUSH1 0xFF AND PUSH2 0xC36 JUMPI PUSH1 0x40 MLOAD PUSH3 0x461BCD PUSH1 0xE5 SHL DUP2 MSTORE PUSH1 0x20 PUSH1 0x4 DUP3 ADD MSTORE PUSH1 0x12 PUSH1 0x24 DUP3 ADD MSTORE PUSH18 0x536F6C6F207061727469636970616E746573 PUSH1 0x70 SHL PUSH1 0x44 DUP3 ADD MSTORE PUSH1 0x64 ADD PUSH2 0x5E5 JUMP JUMPDEST PUSH2 0xC50 PUSH1 0x1 PUSH1 0x1 PUSH1 0xA0 SHL SUB DUP4 AND PUSH4 0x986CC311 PUSH1 0xE0 SHL PUSH2 0x1A47 JUMP JUMPDEST PUSH2 0xC8D JUMPI PUSH1 0x40 MLOAD PUSH3 0x461BCD PUSH1 0xE5 SHL DUP2 MSTORE PUSH1 0x20 PUSH1 0x4 DUP3 ADD MSTORE PUSH1 0xE PUSH1 0x24 DUP3 ADD MSTORE PUSH14 0x4552433136352066616C6C69646F PUSH1 0x90 SHL PUSH1 0x44 DUP3 ADD MSTORE PUSH1 0x64 ADD PUSH2 0x5E5 JUMP JUMPDEST PUSH1 0x7 DUP1 SLOAD PUSH0 SWAP2 DUP3 PUSH2 0xC9D DUP4 PUSH2 0x211F JUMP JUMPDEST SWAP1 SWAP2 SSTORE POP PUSH1 0x40 DUP1 MLOAD PUSH2 0x120 DUP2 ADD DUP3 MSTORE DUP9 DUP2 MSTORE PUSH1 0x20 DUP2 ADD DUP9 SWAP1 MSTORE SWAP1 DUP2 ADD DUP7 SWAP1 MSTORE PUSH1 0x1 PUSH1 0x1 PUSH1 0xA0 SHL SUB DUP6 AND PUSH1 0x60 DUP3 ADD MSTORE SWAP1 SWAP2 POP DUP5 ISZERO SWAP1 PUSH1 0x80 DUP2 ADD PUSH0 DUP2 MSTORE PUSH0 PUSH1 0x20 DUP1 DUP4 ADD DUP3 SWAP1 MSTORE PUSH1 0x40 DUP1 DUP5 ADD DUP4 SWAP1 MSTORE CALLER PUSH1 0x60 DUP6 ADD MSTORE DUP6 ISZERO ISZERO PUSH1 0x80 SWAP1 SWAP5 ADD SWAP4 SWAP1 SWAP4 MSTORE DUP6 DUP3 MSTORE PUSH1 0x8 SWAP1 MSTORE KECCAK256 DUP2 MLOAD DUP2 SWAP1 PUSH2 0xD11 SWAP1 DUP3 PUSH2 0x2196 JUMP JUMPDEST POP PUSH1 0x20 DUP3 ADD MLOAD PUSH1 0x1 DUP3 ADD SWAP1 PUSH2 0xD26 SWAP1 DUP3 PUSH2 0x2196 JUMP JUMPDEST POP PUSH1 0x40 DUP3 ADD MLOAD PUSH1 0x2 DUP1 DUP4 ADD SWAP2 SWAP1 SWAP2 SSTORE PUSH1 0x60 DUP4 ADD MLOAD PUSH1 0x3 DUP4 ADD DUP1 SLOAD PUSH1 0x1 PUSH1 0x1 PUSH1 0xA0 SHL SUB SWAP1 SWAP3 AND PUSH1 0x1 PUSH1 0x1 PUSH1 0xA0 SHL SUB NOT DUP4 AND DUP2 OR DUP3 SSTORE PUSH1 0x80 DUP7 ADD MLOAD SWAP4 SWAP2 SWAP3 PUSH1 0x1 PUSH1 0x1 PUSH1 0xA8 SHL SUB NOT AND OR SWAP1 PUSH1 0x1 PUSH1 0xA0 SHL SWAP1 DUP5 SWAP1 DUP2 GT ISZERO PUSH2 0xD85 JUMPI PUSH2 0xD85 PUSH2 0x1C72 JUMP JUMPDEST MUL OR SWAP1 SSTORE POP PUSH1 0xA0 DUP3 ADD MLOAD PUSH1 0x4 DUP3 ADD SSTORE PUSH1 0xC0 DUP3 ADD MLOAD PUSH1 0x5 DUP3 ADD SSTORE PUSH1 0xE0 DUP3 ADD MLOAD PUSH1 0x6 SWAP1 SWAP2 ADD DUP1 SLOAD PUSH2 0x100 SWAP1 SWAP4 ADD MLOAD ISZERO ISZERO PUSH1 0x1 PUSH1 0xA0 SHL MUL PUSH1 0x1 PUSH1 0x1 PUSH1 0xA8 SHL SUB NOT SWAP1 SWAP4 AND PUSH1 0x1 PUSH1 0x1 PUSH1 0xA0 SHL SUB SWAP1 SWAP3 AND SWAP2 SWAP1 SWAP2 OR SWAP2 SWAP1 SWAP2 OR SWAP1 SSTORE DUP1 PUSH2 0xDF4 JUMPI PUSH1 0x6 DUP1 SLOAD SWAP1 PUSH0 PUSH2 0xDEE DUP4 PUSH2 0x211F JUMP JUMPDEST SWAP2 SWAP1 POP SSTORE POP JUMPDEST DUP2 PUSH32 0xF5DC0DA9AFA6D080780A49FD8C680F03D2DDF3C067CD6D0C85360C096644D2D3 DUP9 DUP8 PUSH1 0x40 MLOAD PUSH2 0xE26 SWAP3 SWAP2 SWAP1 PUSH2 0x2251 JUMP JUMPDEST PUSH1 0x40 MLOAD DUP1 SWAP2 SUB SWAP1 LOG2 POP SWAP6 SWAP5 POP POP POP POP POP JUMP JUMPDEST PUSH1 0x60 PUSH2 0x591 PUSH0 PUSH0 PUSH2 0x1625 JUMP JUMPDEST PUSH0 SLOAD PUSH1 0x1 PUSH1 0x1 PUSH1 0xA0 SHL SUB AND CALLER EQ PUSH2 0xE8C JUMPI PUSH1 0x40 MLOAD PUSH3 0x461BCD PUSH1 0xE5 SHL DUP2 MSTORE PUSH1 0x20 PUSH1 0x4 DUP3 ADD MSTORE PUSH1 0xC PUSH1 0x24 DUP3 ADD MSTORE PUSH12 0x29B7B6379031B932B0B237B9 PUSH1 0xA1 SHL PUSH1 0x44 DUP3 ADD MSTORE PUSH1 0x64 ADD PUSH2 0x5E5 JUMP JUMPDEST PUSH1 0x4 DUP1 SLOAD PUSH1 0xFF NOT AND PUSH1 0x1 OR SWAP1 SSTORE PUSH1 0x3 DUP1 SLOAD CALLVALUE SWAP2 SWAP1 PUSH0 SWAP1 PUSH2 0xEAD SWAP1 DUP5 SWAP1 PUSH2 0x1FE9 JUMP JUMPDEST SWAP1 SWAP2 SSTORE POP POP PUSH1 0x40 MLOAD CALLVALUE DUP2 MSTORE PUSH32 0xE0A358D4A766346F1ECE85D22E2197435D610D9638874A0FD6746E58A1B1F58A SWAP1 PUSH1 0x20 ADD PUSH1 0x40 MLOAD DUP1 SWAP2 SUB SWAP1 LOG1 JUMP JUMPDEST PUSH1 0x4 SLOAD PUSH1 0x60 SWAP1 DUP2 SWAP1 PUSH0 SWAP1 DUP2 SWAP1 DUP2 SWAP1 DUP2 SWAP1 PUSH1 0xFF AND PUSH2 0xF39 JUMPI PUSH1 0x40 MLOAD PUSH3 0x461BCD PUSH1 0xE5 SHL DUP2 MSTORE PUSH1 0x20 PUSH1 0x4 DUP3 ADD MSTORE PUSH1 0x10 PUSH1 0x24 DUP3 ADD MSTORE PUSH16 0x566F746163696F6E2063657272616461 PUSH1 0x80 SHL PUSH1 0x44 DUP3 ADD MSTORE PUSH1 0x64 ADD PUSH2 0x5E5 JUMP JUMPDEST PUSH0 DUP8 DUP2 MSTORE PUSH1 0x8 PUSH1 0x20 MSTORE PUSH1 0x40 SWAP1 KECCAK256 PUSH1 0x2 DUP2 ADD SLOAD PUSH1 0x3 DUP3 ADD SLOAD PUSH1 0x4 DUP4 ADD SLOAD DUP4 SLOAD DUP5 SWAP4 PUSH1 0x1 DUP6 ADD SWAP4 SWAP1 SWAP3 PUSH1 0x1 PUSH1 0x1 PUSH1 0xA0 SHL SUB DUP3 AND SWAP3 PUSH1 0x1 PUSH1 0xA0 SHL SWAP1 SWAP3 DIV PUSH1 0xFF AND SWAP2 DUP7 SWAP1 PUSH2 0xF82 SWAP1 PUSH2 0x1F5A JUMP JUMPDEST DUP1 PUSH1 0x1F ADD PUSH1 0x20 DUP1 SWAP2 DIV MUL PUSH1 0x20 ADD PUSH1 0x40 MLOAD SWAP1 DUP2 ADD PUSH1 0x40 MSTORE DUP1 SWAP3 SWAP2 SWAP1 DUP2 DUP2 MSTORE PUSH1 0x20 ADD DUP3 DUP1 SLOAD PUSH2 0xFAE SWAP1 PUSH2 0x1F5A JUMP JUMPDEST DUP1 ISZERO PUSH2 0xFF9 JUMPI DUP1 PUSH1 0x1F LT PUSH2 0xFD0 JUMPI PUSH2 0x100 DUP1 DUP4 SLOAD DIV MUL DUP4 MSTORE SWAP2 PUSH1 0x20 ADD SWAP2 PUSH2 0xFF9 JUMP JUMPDEST DUP3 ADD SWAP2 SWAP1 PUSH0 MSTORE PUSH1 0x20 PUSH0 KECCAK256 SWAP1 JUMPDEST DUP2 SLOAD DUP2 MSTORE SWAP1 PUSH1 0x1 ADD SWAP1 PUSH1 0x20 ADD DUP1 DUP4 GT PUSH2 0xFDC JUMPI DUP3 SWAP1 SUB PUSH1 0x1F AND DUP3 ADD SWAP2 JUMPDEST POP POP POP POP POP SWAP6 POP DUP5 DUP1 SLOAD PUSH2 0x100C SWAP1 PUSH2 0x1F5A JUMP JUMPDEST DUP1 PUSH1 0x1F ADD PUSH1 0x20 DUP1 SWAP2 DIV MUL PUSH1 0x20 ADD PUSH1 0x40 MLOAD SWAP1 DUP2 ADD PUSH1 0x40 MSTORE DUP1 SWAP3 SWAP2 SWAP1 DUP2 DUP2 MSTORE PUSH1 0x20 ADD DUP3 DUP1 SLOAD PUSH2 0x1038 SWAP1 PUSH2 0x1F5A JUMP JUMPDEST DUP1 ISZERO PUSH2 0x1083 JUMPI DUP1 PUSH1 0x1F LT PUSH2 0x105A JUMPI PUSH2 0x100 DUP1 DUP4 SLOAD DIV MUL DUP4 MSTORE SWAP2 PUSH1 0x20 ADD SWAP2 PUSH2 0x1083 JUMP JUMPDEST DUP3 ADD SWAP2 SWAP1 PUSH0 MSTORE PUSH1 0x20 PUSH0 KECCAK256 SWAP1 JUMPDEST DUP2 SLOAD DUP2 MSTORE SWAP1 PUSH1 0x1 ADD SWAP1 PUSH1 0x20 ADD DUP1 DUP4 GT PUSH2 0x1066 JUMPI DUP3 SWAP1 SUB PUSH1 0x1F AND DUP3 ADD SWAP2 JUMPDEST POP POP POP POP POP SWAP5 POP SWAP7 POP SWAP7 POP SWAP7 POP SWAP7 POP SWAP7 POP SWAP7 POP POP SWAP2 SWAP4 SWAP6 POP SWAP2 SWAP4 SWAP6 JUMP JUMPDEST PUSH0 SLOAD PUSH1 0x1 PUSH1 0x1 PUSH1 0xA0 SHL SUB AND CALLER EQ DUP1 ISZERO PUSH2 0x10BB JUMPI POP PUSH1 0x4 SLOAD PUSH1 0xFF AND JUMPDEST PUSH2 0x10F4 JUMPI PUSH1 0x40 MLOAD PUSH3 0x461BCD PUSH1 0xE5 SHL DUP2 MSTORE PUSH1 0x20 PUSH1 0x4 DUP3 ADD MSTORE PUSH1 0xA PUSH1 0x24 DUP3 ADD MSTORE PUSH10 0x29B7B6379037BBB732B9 PUSH1 0xB1 SHL PUSH1 0x44 DUP3 ADD MSTORE PUSH1 0x64 ADD PUSH2 0x5E5 JUMP JUMPDEST PUSH1 0x4 DUP1 SLOAD PUSH1 0xFF NOT AND SWAP1 SSTORE PUSH0 JUMPDEST PUSH1 0x7 SLOAD DUP2 LT ISZERO PUSH2 0x124D JUMPI PUSH0 DUP2 DUP2 MSTORE PUSH1 0x8 PUSH1 0x20 MSTORE PUSH1 0x40 SWAP1 KECCAK256 PUSH1 0x6 DUP2 ADD SLOAD PUSH1 0x1 PUSH1 0xA0 SHL SWAP1 DIV PUSH1 0xFF AND ISZERO PUSH2 0x11EC JUMPI PUSH1 0x3 DUP2 ADD SLOAD PUSH1 0x4 DUP3 ADD SLOAD PUSH1 0x5 DUP4 ADD SLOAD PUSH1 0x40 MLOAD PUSH1 0x24 DUP2 ADD DUP7 SWAP1 MSTORE PUSH1 0x44 DUP2 ADD SWAP3 SWAP1 SWAP3 MSTORE PUSH1 0x64 DUP3 ADD MSTORE PUSH0 SWAP2 PUSH1 0x1 PUSH1 0x1 PUSH1 0xA0 SHL SUB AND SWAP1 PUSH3 0x186A0 SWAP1 PUSH1 0x84 ADD PUSH1 0x40 DUP1 MLOAD PUSH1 0x1F NOT DUP2 DUP5 SUB ADD DUP2 MSTORE SWAP2 DUP2 MSTORE PUSH1 0x20 DUP3 ADD DUP1 MLOAD PUSH1 0x1 PUSH1 0x1 PUSH1 0xE0 SHL SUB AND PUSH4 0x986CC311 PUSH1 0xE0 SHL OR SWAP1 MSTORE MLOAD PUSH2 0x119A SWAP2 SWAP1 PUSH2 0x2272 JUMP JUMPDEST PUSH0 PUSH1 0x40 MLOAD DUP1 DUP4 SUB DUP2 PUSH0 DUP8 DUP8 CALL SWAP3 POP POP POP RETURNDATASIZE DUP1 PUSH0 DUP2 EQ PUSH2 0x11D4 JUMPI PUSH1 0x40 MLOAD SWAP2 POP PUSH1 0x1F NOT PUSH1 0x3F RETURNDATASIZE ADD AND DUP3 ADD PUSH1 0x40 MSTORE RETURNDATASIZE DUP3 MSTORE RETURNDATASIZE PUSH0 PUSH1 0x20 DUP5 ADD RETURNDATACOPY PUSH2 0x11D9 JUMP JUMPDEST PUSH1 0x60 SWAP2 POP JUMPDEST POP POP SWAP1 POP PUSH2 0x11E6 DUP4 PUSH2 0x1A69 JUMP JUMPDEST POP PUSH2 0x1244 JUMP JUMPDEST PUSH0 PUSH1 0x3 DUP3 ADD SLOAD PUSH1 0x1 PUSH1 0xA0 SHL SWAP1 DIV PUSH1 0xFF AND PUSH1 0x2 DUP2 GT ISZERO PUSH2 0x120D JUMPI PUSH2 0x120D PUSH2 0x1C72 JUMP JUMPDEST SUB PUSH2 0x1244 JUMPI PUSH1 0x3 DUP2 ADD DUP1 SLOAD PUSH1 0xFF PUSH1 0xA0 SHL NOT AND PUSH1 0x1 PUSH1 0xA1 SHL OR SWAP1 SSTORE PUSH1 0x6 DUP1 SLOAD SWAP1 PUSH0 PUSH2 0x1236 DUP4 PUSH2 0x1FA6 JUMP JUMPDEST SWAP2 SWAP1 POP SSTORE POP PUSH2 0x1244 DUP3 PUSH2 0x1A69 JUMP JUMPDEST POP PUSH1 0x1 ADD PUSH2 0x1100 JUMP JUMPDEST POP PUSH1 0x3 DUP1 SLOAD PUSH0 SWAP1 SWAP2 SSTORE DUP1 ISZERO PUSH2 0x12F2 JUMPI PUSH0 DUP1 SLOAD PUSH1 0x40 MLOAD PUSH1 0x1 PUSH1 0x1 PUSH1 0xA0 SHL SUB SWAP1 SWAP2 AND SWAP1 DUP4 SWAP1 DUP4 DUP2 DUP2 DUP2 DUP6 DUP8 GAS CALL SWAP3 POP POP POP RETURNDATASIZE DUP1 PUSH0 DUP2 EQ PUSH2 0x12A6 JUMPI PUSH1 0x40 MLOAD SWAP2 POP PUSH1 0x1F NOT PUSH1 0x3F RETURNDATASIZE ADD AND DUP3 ADD PUSH1 0x40 MSTORE RETURNDATASIZE DUP3 MSTORE RETURNDATASIZE PUSH0 PUSH1 0x20 DUP5 ADD RETURNDATACOPY PUSH2 0x12AB JUMP JUMPDEST PUSH1 0x60 SWAP2 POP JUMPDEST POP POP SWAP1 POP DUP1 PUSH2 0x12F0 JUMPI PUSH1 0x40 MLOAD PUSH3 0x461BCD PUSH1 0xE5 SHL DUP2 MSTORE PUSH1 0x20 PUSH1 0x4 DUP3 ADD MSTORE PUSH1 0x11 PUSH1 0x24 DUP3 ADD MSTORE PUSH17 0x22B93937B9103634B8BAB4B230B1B4B7B7 PUSH1 0x79 SHL PUSH1 0x44 DUP3 ADD MSTORE PUSH1 0x64 ADD PUSH2 0x5E5 JUMP JUMPDEST POP JUMPDEST POP JUMP JUMPDEST CALLER PUSH0 SWAP1 DUP2 MSTORE PUSH1 0xB PUSH1 0x20 MSTORE PUSH1 0x40 SWAP1 KECCAK256 SLOAD PUSH1 0xFF AND PUSH2 0x1340 JUMPI PUSH1 0x40 MLOAD PUSH3 0x461BCD PUSH1 0xE5 SHL DUP2 MSTORE PUSH1 0x20 PUSH1 0x4 DUP3 ADD MSTORE PUSH1 0xA PUSH1 0x24 DUP3 ADD MSTORE PUSH10 0x496E7363726962617365 PUSH1 0xB0 SHL PUSH1 0x44 DUP3 ADD MSTORE PUSH1 0x64 ADD PUSH2 0x5E5 JUMP JUMPDEST PUSH1 0x1 SLOAD PUSH1 0x2 SLOAD PUSH1 0x1 PUSH1 0x1 PUSH1 0xA0 SHL SUB SWAP1 SWAP2 AND SWAP1 PUSH4 0x40C10F19 SWAP1 CALLER SWAP1 PUSH2 0x1364 SWAP1 CALLVALUE PUSH2 0x2288 JUMP JUMPDEST PUSH1 0x40 MLOAD PUSH1 0x1 PUSH1 0x1 PUSH1 0xE0 SHL SUB NOT PUSH1 0xE0 DUP6 SWAP1 SHL AND DUP2 MSTORE PUSH1 0x1 PUSH1 0x1 PUSH1 0xA0 SHL SUB SWAP1 SWAP3 AND PUSH1 0x4 DUP4 ADD MSTORE PUSH1 0x24 DUP3 ADD MSTORE PUSH1 0x44 ADD PUSH0 PUSH1 0x40 MLOAD DUP1 DUP4 SUB DUP2 PUSH0 DUP8 DUP1 EXTCODESIZE ISZERO DUP1 ISZERO PUSH2 0x13A7 JUMPI PUSH0 PUSH0 REVERT JUMPDEST POP GAS CALL ISZERO DUP1 ISZERO PUSH2 0x13B9 JUMPI RETURNDATASIZE PUSH0 PUSH0 RETURNDATACOPY RETURNDATASIZE PUSH0 REVERT JUMPDEST POP POP POP POP JUMP JUMPDEST PUSH1 0x4 SLOAD PUSH1 0xFF AND PUSH2 0x13FB JUMPI PUSH1 0x40 MLOAD PUSH3 0x461BCD PUSH1 0xE5 SHL DUP2 MSTORE PUSH1 0x20 PUSH1 0x4 DUP3 ADD MSTORE PUSH1 0x7 PUSH1 0x24 DUP3 ADD MSTORE PUSH7 0x43657272616461 PUSH1 0xC8 SHL PUSH1 0x44 DUP3 ADD MSTORE PUSH1 0x64 ADD PUSH2 0x5E5 JUMP JUMPDEST PUSH0 DUP2 DUP2 MSTORE PUSH1 0x8 PUSH1 0x20 MSTORE PUSH1 0x40 SWAP1 KECCAK256 PUSH1 0x6 DUP2 ADD SLOAD PUSH1 0x1 PUSH1 0x1 PUSH1 0xA0 SHL SUB AND CALLER EQ PUSH2 0x1454 JUMPI PUSH1 0x40 MLOAD PUSH3 0x461BCD PUSH1 0xE5 SHL DUP2 MSTORE PUSH1 0x20 PUSH1 0x4 DUP3 ADD MSTORE PUSH1 0xD PUSH1 0x24 DUP3 ADD MSTORE PUSH13 0x29B7B6379032B61030BABA37B9 PUSH1 0x99 SHL PUSH1 0x44 DUP3 ADD MSTORE PUSH1 0x64 ADD PUSH2 0x5E5 JUMP JUMPDEST PUSH0 PUSH1 0x3 DUP3 ADD SLOAD PUSH1 0x1 PUSH1 0xA0 SHL SWAP1 DIV PUSH1 0xFF AND PUSH1 0x2 DUP2 GT ISZERO PUSH2 0x1475 JUMPI PUSH2 0x1475 PUSH2 0x1C72 JUMP JUMPDEST EQ PUSH2 0x14B2 JUMPI PUSH1 0x40 MLOAD PUSH3 0x461BCD PUSH1 0xE5 SHL DUP2 MSTORE PUSH1 0x20 PUSH1 0x4 DUP3 ADD MSTORE PUSH1 0xD PUSH1 0x24 DUP3 ADD MSTORE PUSH13 0x59612066696E616C697A616461 PUSH1 0x98 SHL PUSH1 0x44 DUP3 ADD MSTORE PUSH1 0x64 ADD PUSH2 0x5E5 JUMP JUMPDEST PUSH1 0x3 DUP2 ADD DUP1 SLOAD PUSH1 0xFF PUSH1 0xA0 SHL NOT AND PUSH1 0x1 PUSH1 0xA1 SHL OR SWAP1 SSTORE PUSH1 0x6 DUP2 ADD SLOAD PUSH1 0x1 PUSH1 0xA0 SHL SWAP1 DIV PUSH1 0xFF AND PUSH2 0x14EF JUMPI PUSH1 0x6 DUP1 SLOAD SWAP1 PUSH0 PUSH2 0x14E9 DUP4 PUSH2 0x1FA6 JUMP JUMPDEST SWAP2 SWAP1 POP SSTORE POP JUMPDEST PUSH2 0x12F0 DUP3 PUSH2 0x1A69 JUMP JUMPDEST PUSH1 0x2 SLOAD CALLVALUE LT ISZERO PUSH2 0x153B JUMPI PUSH1 0x40 MLOAD PUSH3 0x461BCD PUSH1 0xE5 SHL DUP2 MSTORE PUSH1 0x20 PUSH1 0x4 DUP3 ADD MSTORE PUSH1 0xE PUSH1 0x24 DUP3 ADD MSTORE PUSH14 0x26B4B734B6B79018903A37B5B2B7 PUSH1 0x91 SHL PUSH1 0x44 DUP3 ADD MSTORE PUSH1 0x64 ADD PUSH2 0x5E5 JUMP JUMPDEST CALLER PUSH0 SWAP1 DUP2 MSTORE PUSH1 0xB PUSH1 0x20 MSTORE PUSH1 0x40 SWAP1 KECCAK256 SLOAD PUSH1 0xFF AND PUSH2 0x157E JUMPI CALLER PUSH0 SWAP1 DUP2 MSTORE PUSH1 0xB PUSH1 0x20 MSTORE PUSH1 0x40 DUP2 KECCAK256 DUP1 SLOAD PUSH1 0xFF NOT AND PUSH1 0x1 OR SWAP1 SSTORE PUSH1 0x5 DUP1 SLOAD SWAP2 PUSH2 0x1578 DUP4 PUSH2 0x211F JUMP JUMPDEST SWAP2 SWAP1 POP SSTORE POP JUMPDEST PUSH0 PUSH1 0x2 SLOAD CALLVALUE PUSH2 0x158D SWAP2 SWAP1 PUSH2 0x2288 JUMP JUMPDEST PUSH1 0x1 SLOAD PUSH1 0x40 MLOAD PUSH4 0x40C10F19 PUSH1 0xE0 SHL DUP2 MSTORE CALLER PUSH1 0x4 DUP3 ADD MSTORE PUSH1 0x24 DUP2 ADD DUP4 SWAP1 MSTORE SWAP2 SWAP3 POP PUSH1 0x1 PUSH1 0x1 PUSH1 0xA0 SHL SUB AND SWAP1 PUSH4 0x40C10F19 SWAP1 PUSH1 0x44 ADD PUSH0 PUSH1 0x40 MLOAD DUP1 DUP4 SUB DUP2 PUSH0 DUP8 DUP1 EXTCODESIZE ISZERO DUP1 ISZERO PUSH2 0x15D7 JUMPI PUSH0 PUSH0 REVERT JUMPDEST POP GAS CALL ISZERO DUP1 ISZERO PUSH2 0x15E9 JUMPI RETURNDATASIZE PUSH0 PUSH0 RETURNDATACOPY RETURNDATASIZE PUSH0 REVERT JUMPDEST POP POP PUSH1 0x40 MLOAD DUP4 DUP2 MSTORE CALLER SWAP3 POP PUSH32 0x287AB65235AA9A0BAEED5B973FDA48C77EBDC6F3DD931CFDA1C082C0AECC1E73 SWAP2 POP PUSH1 0x20 ADD PUSH1 0x40 MLOAD DUP1 SWAP2 SUB SWAP1 LOG2 POP JUMP JUMPDEST PUSH1 0x60 PUSH0 DUP1 JUMPDEST PUSH1 0x7 SLOAD DUP2 LT ISZERO PUSH2 0x16B8 JUMPI DUP5 PUSH1 0x2 DUP2 GT ISZERO PUSH2 0x1646 JUMPI PUSH2 0x1646 PUSH2 0x1C72 JUMP JUMPDEST PUSH0 DUP3 DUP2 MSTORE PUSH1 0x8 PUSH1 0x20 MSTORE PUSH1 0x40 SWAP1 KECCAK256 PUSH1 0x3 ADD SLOAD PUSH1 0x1 PUSH1 0xA0 SHL SWAP1 DIV PUSH1 0xFF AND PUSH1 0x2 DUP2 GT ISZERO PUSH2 0x1672 JUMPI PUSH2 0x1672 PUSH2 0x1C72 JUMP JUMPDEST EQ DUP1 ISZERO PUSH2 0x169D JUMPI POP PUSH0 DUP2 DUP2 MSTORE PUSH1 0x8 PUSH1 0x20 MSTORE PUSH1 0x40 SWAP1 KECCAK256 PUSH1 0x6 ADD SLOAD PUSH1 0xFF PUSH1 0x1 PUSH1 0xA0 SHL SWAP1 SWAP2 DIV AND ISZERO ISZERO DUP5 ISZERO ISZERO EQ JUMPDEST ISZERO PUSH2 0x16B0 JUMPI DUP2 PUSH2 0x16AC DUP2 PUSH2 0x211F JUMP JUMPDEST SWAP3 POP POP JUMPDEST PUSH1 0x1 ADD PUSH2 0x162A JUMP JUMPDEST POP PUSH0 DUP2 PUSH8 0xFFFFFFFFFFFFFFFF DUP2 GT ISZERO PUSH2 0x16D3 JUMPI PUSH2 0x16D3 PUSH2 0x1DE1 JUMP JUMPDEST PUSH1 0x40 MLOAD SWAP1 DUP1 DUP3 MSTORE DUP1 PUSH1 0x20 MUL PUSH1 0x20 ADD DUP3 ADD PUSH1 0x40 MSTORE DUP1 ISZERO PUSH2 0x16FC JUMPI DUP2 PUSH1 0x20 ADD PUSH1 0x20 DUP3 MUL DUP1 CALLDATASIZE DUP4 CALLDATACOPY ADD SWAP1 POP JUMPDEST POP SWAP1 POP PUSH0 DUP1 JUMPDEST PUSH1 0x7 SLOAD DUP2 LT ISZERO PUSH2 0x17AD JUMPI DUP7 PUSH1 0x2 DUP2 GT ISZERO PUSH2 0x171E JUMPI PUSH2 0x171E PUSH2 0x1C72 JUMP JUMPDEST PUSH0 DUP3 DUP2 MSTORE PUSH1 0x8 PUSH1 0x20 MSTORE PUSH1 0x40 SWAP1 KECCAK256 PUSH1 0x3 ADD SLOAD PUSH1 0x1 PUSH1 0xA0 SHL SWAP1 DIV PUSH1 0xFF AND PUSH1 0x2 DUP2 GT ISZERO PUSH2 0x174A JUMPI PUSH2 0x174A PUSH2 0x1C72 JUMP JUMPDEST EQ DUP1 ISZERO PUSH2 0x1775 JUMPI POP PUSH0 DUP2 DUP2 MSTORE PUSH1 0x8 PUSH1 0x20 MSTORE PUSH1 0x40 SWAP1 KECCAK256 PUSH1 0x6 ADD SLOAD PUSH1 0xFF PUSH1 0x1 PUSH1 0xA0 SHL SWAP1 SWAP2 DIV AND ISZERO ISZERO DUP7 ISZERO ISZERO EQ JUMPDEST ISZERO PUSH2 0x17A5 JUMPI DUP1 DUP4 DUP4 PUSH2 0x1786 DUP2 PUSH2 0x211F JUMP JUMPDEST SWAP5 POP DUP2 MLOAD DUP2 LT PUSH2 0x1798 JUMPI PUSH2 0x1798 PUSH2 0x2137 JUMP JUMPDEST PUSH1 0x20 MUL PUSH1 0x20 ADD ADD DUP2 DUP2 MSTORE POP POP JUMPDEST PUSH1 0x1 ADD PUSH2 0x1702 JUMP JUMPDEST POP SWAP1 SWAP3 POP POP POP JUMPDEST SWAP3 SWAP2 POP POP JUMP JUMPDEST PUSH0 DUP2 DUP2 MSTORE PUSH1 0x8 PUSH1 0x20 MSTORE PUSH1 0x40 DUP2 KECCAK256 PUSH1 0x3 SLOAD PUSH1 0x2 DUP3 ADD SLOAD SWAP2 SWAP3 SWAP2 PUSH2 0x17DD SWAP1 PUSH1 0xA PUSH2 0x1FD2 JUMP JUMPDEST PUSH2 0x17E7 SWAP2 SWAP1 PUSH2 0x2288 JUMP JUMPDEST PUSH2 0x17F2 SWAP1 PUSH1 0x2 PUSH2 0x1FE9 JUMP JUMPDEST SWAP1 POP PUSH0 PUSH1 0xA PUSH1 0x6 SLOAD PUSH1 0x5 SLOAD PUSH2 0x1807 SWAP2 SWAP1 PUSH2 0x1FE9 JUMP JUMPDEST PUSH2 0x1811 SWAP1 DUP5 PUSH2 0x1FD2 JUMP JUMPDEST PUSH2 0x181B SWAP2 SWAP1 PUSH2 0x2288 JUMP JUMPDEST SWAP1 POP DUP1 DUP4 PUSH1 0x4 ADD SLOAD GT DUP1 ISZERO PUSH2 0x1836 JUMPI POP DUP3 PUSH1 0x2 ADD SLOAD PUSH1 0x3 SLOAD LT ISZERO JUMPDEST ISZERO PUSH2 0x13B9 JUMPI PUSH1 0x3 DUP4 ADD DUP1 SLOAD PUSH1 0xFF PUSH1 0xA0 SHL NOT AND PUSH1 0x1 PUSH1 0xA0 SHL OR SWAP1 SSTORE PUSH1 0x6 DUP1 SLOAD SWAP1 PUSH0 PUSH2 0x185F DUP4 PUSH2 0x1FA6 JUMP JUMPDEST SWAP2 SWAP1 POP SSTORE POP PUSH1 0x2 SLOAD DUP4 PUSH1 0x5 ADD SLOAD PUSH2 0x1876 SWAP2 SWAP1 PUSH2 0x1FD2 JUMP JUMPDEST PUSH1 0x3 PUSH0 DUP3 DUP3 SLOAD PUSH2 0x1886 SWAP2 SWAP1 PUSH2 0x1FE9 JUMP JUMPDEST SWAP1 SWAP2 SSTORE POP POP PUSH1 0x2 DUP4 ADD SLOAD PUSH1 0x3 DUP1 SLOAD PUSH0 SWAP1 PUSH2 0x18A1 SWAP1 DUP5 SWAP1 PUSH2 0x20ED JUMP JUMPDEST SWAP1 SWAP2 SSTORE POP POP PUSH1 0x1 SLOAD PUSH1 0x5 DUP5 ADD SLOAD PUSH1 0x40 MLOAD PUSH4 0x2770A7EB PUSH1 0xE2 SHL DUP2 MSTORE ADDRESS PUSH1 0x4 DUP3 ADD MSTORE PUSH1 0x24 DUP2 ADD SWAP2 SWAP1 SWAP2 MSTORE PUSH1 0x1 PUSH1 0x1 PUSH1 0xA0 SHL SUB SWAP1 SWAP2 AND SWAP1 PUSH4 0x9DC29FAC SWAP1 PUSH1 0x44 ADD PUSH0 PUSH1 0x40 MLOAD DUP1 DUP4 SUB DUP2 PUSH0 DUP8 DUP1 EXTCODESIZE ISZERO DUP1 ISZERO PUSH2 0x18F5 JUMPI PUSH0 PUSH0 REVERT JUMPDEST POP GAS CALL ISZERO DUP1 ISZERO PUSH2 0x1907 JUMPI RETURNDATASIZE PUSH0 PUSH0 RETURNDATACOPY RETURNDATASIZE PUSH0 REVERT JUMPDEST POP POP POP POP PUSH1 0x3 DUP4 ADD SLOAD PUSH1 0x2 DUP5 ADD SLOAD PUSH1 0x4 DUP6 ADD SLOAD PUSH1 0x5 DUP7 ADD SLOAD PUSH1 0x40 MLOAD PUSH1 0x24 DUP2 ADD DUP10 SWAP1 MSTORE PUSH1 0x44 DUP2 ADD SWAP3 SWAP1 SWAP3 MSTORE PUSH1 0x64 DUP3 ADD MSTORE PUSH0 SWAP3 PUSH1 0x1 PUSH1 0x1 PUSH1 0xA0 SHL SUB AND SWAP2 PUSH3 0x186A0 SWAP2 PUSH1 0x84 ADD PUSH1 0x40 DUP1 MLOAD PUSH1 0x1F NOT DUP2 DUP5 SUB ADD DUP2 MSTORE SWAP2 DUP2 MSTORE PUSH1 0x20 DUP3 ADD DUP1 MLOAD PUSH1 0x1 PUSH1 0x1 PUSH1 0xE0 SHL SUB AND PUSH4 0x986CC311 PUSH1 0xE0 SHL OR SWAP1 MSTORE MLOAD PUSH2 0x197F SWAP2 SWAP1 PUSH2 0x2272 JUMP JUMPDEST PUSH0 PUSH1 0x40 MLOAD DUP1 DUP4 SUB DUP2 DUP6 DUP9 DUP9 CALL SWAP4 POP POP POP POP RETURNDATASIZE DUP1 PUSH0 DUP2 EQ PUSH2 0x19BA JUMPI PUSH1 0x40 MLOAD SWAP2 POP PUSH1 0x1F NOT PUSH1 0x3F RETURNDATASIZE ADD AND DUP3 ADD PUSH1 0x40 MSTORE RETURNDATASIZE DUP3 MSTORE RETURNDATASIZE PUSH0 PUSH1 0x20 DUP5 ADD RETURNDATACOPY PUSH2 0x19BF JUMP JUMPDEST PUSH1 0x60 SWAP2 POP JUMPDEST POP POP SWAP1 POP DUP1 PUSH2 0x1A02 JUMPI PUSH1 0x40 MLOAD PUSH3 0x461BCD PUSH1 0xE5 SHL DUP2 MSTORE PUSH1 0x20 PUSH1 0x4 DUP3 ADD MSTORE PUSH1 0xF PUSH1 0x24 DUP3 ADD MSTORE PUSH15 0x456A65637563696F6E2066616C6C6F PUSH1 0x88 SHL PUSH1 0x44 DUP3 ADD MSTORE PUSH1 0x64 ADD PUSH2 0x5E5 JUMP JUMPDEST DUP5 PUSH32 0xC6A4FD4A703D2A2FE3167CE7F6D62BF96458B7E55042CFAA85D5C7EF3AC56EEA DUP6 PUSH1 0x2 ADD SLOAD PUSH1 0x40 MLOAD PUSH2 0x1A38 SWAP2 DUP2 MSTORE PUSH1 0x20 ADD SWAP1 JUMP JUMPDEST PUSH1 0x40 MLOAD DUP1 SWAP2 SUB SWAP1 LOG2 POP POP POP POP POP JUMP JUMPDEST PUSH0 PUSH2 0x1A51 DUP4 PUSH2 0x1B87 JUMP JUMPDEST DUP1 ISZERO PUSH2 0x1A62 JUMPI POP PUSH2 0x1A62 DUP4 DUP4 PUSH2 0x1BD5 JUMP JUMPDEST SWAP4 SWAP3 POP POP POP JUMP JUMPDEST PUSH0 DUP2 DUP2 MSTORE PUSH1 0xA PUSH1 0x20 MSTORE PUSH1 0x40 DUP2 KECCAK256 SWAP1 JUMPDEST DUP2 SLOAD DUP2 LT ISZERO PUSH2 0x7C1 JUMPI PUSH0 DUP3 DUP3 DUP2 SLOAD DUP2 LT PUSH2 0x1A94 JUMPI PUSH2 0x1A94 PUSH2 0x2137 JUMP JUMPDEST PUSH0 SWAP2 DUP3 MSTORE PUSH1 0x20 DUP1 DUP4 KECCAK256 SWAP1 SWAP2 ADD SLOAD DUP7 DUP4 MSTORE PUSH1 0x9 DUP3 MSTORE PUSH1 0x40 DUP1 DUP5 KECCAK256 PUSH1 0x1 PUSH1 0x1 PUSH1 0xA0 SHL SUB SWAP1 SWAP3 AND DUP1 DUP6 MSTORE SWAP2 SWAP1 SWAP3 MSTORE SWAP2 KECCAK256 SLOAD SWAP1 SWAP2 POP DUP1 ISZERO PUSH2 0x1B7D JUMPI PUSH0 PUSH2 0x1AD6 DUP3 DUP1 PUSH2 0x1FD2 JUMP JUMPDEST PUSH0 DUP8 DUP2 MSTORE PUSH1 0x9 PUSH1 0x20 SWAP1 DUP2 MSTORE PUSH1 0x40 DUP1 DUP4 KECCAK256 PUSH1 0x1 PUSH1 0x1 PUSH1 0xA0 SHL SUB DUP1 DUP10 AND DUP6 MSTORE SWAP3 MSTORE DUP1 DUP4 KECCAK256 SWAP3 SWAP1 SWAP3 SSTORE PUSH1 0x1 SLOAD SWAP2 MLOAD PUSH4 0xA9059CBB PUSH1 0xE0 SHL DUP2 MSTORE SWAP3 SWAP4 POP AND SWAP1 PUSH4 0xA9059CBB SWAP1 PUSH2 0x1B3A SWAP1 DUP7 SWAP1 DUP6 SWAP1 PUSH1 0x4 ADD PUSH1 0x1 PUSH1 0x1 PUSH1 0xA0 SHL SUB SWAP3 SWAP1 SWAP3 AND DUP3 MSTORE PUSH1 0x20 DUP3 ADD MSTORE PUSH1 0x40 ADD SWAP1 JUMP JUMPDEST PUSH1 0x20 PUSH1 0x40 MLOAD DUP1 DUP4 SUB DUP2 PUSH0 DUP8 GAS CALL ISZERO DUP1 ISZERO PUSH2 0x1B56 JUMPI RETURNDATASIZE PUSH0 PUSH0 RETURNDATACOPY RETURNDATASIZE PUSH0 REVERT JUMPDEST POP POP POP POP PUSH1 0x40 MLOAD RETURNDATASIZE PUSH1 0x1F NOT PUSH1 0x1F DUP3 ADD AND DUP3 ADD DUP1 PUSH1 0x40 MSTORE POP DUP2 ADD SWAP1 PUSH2 0x1B7A SWAP2 SWAP1 PUSH2 0x2100 JUMP JUMPDEST POP POP JUMPDEST POP POP PUSH1 0x1 ADD PUSH2 0x1A78 JUMP JUMPDEST PUSH0 PUSH2 0x1B99 DUP3 PUSH4 0x1FFC9A7 PUSH1 0xE0 SHL PUSH2 0x1BD5 JUMP JUMPDEST ISZERO PUSH2 0x1BC9 JUMPI PUSH0 DUP1 PUSH2 0x1BB2 DUP5 PUSH1 0x1 PUSH1 0x1 PUSH1 0xE0 SHL SUB NOT PUSH2 0x1BF9 JUMP JUMPDEST SWAP2 POP SWAP2 POP DUP2 DUP1 ISZERO PUSH2 0x1BC1 JUMPI POP DUP1 ISZERO JUMPDEST SWAP5 SWAP4 POP POP POP POP JUMP JUMPDEST POP PUSH0 SWAP2 SWAP1 POP JUMP JUMPDEST SWAP2 SWAP1 POP JUMP JUMPDEST PUSH0 PUSH0 PUSH0 PUSH2 0x1BE2 DUP6 DUP6 PUSH2 0x1BF9 JUMP JUMPDEST SWAP2 POP SWAP2 POP DUP2 DUP1 ISZERO PUSH2 0x1BF0 JUMPI POP DUP1 JUMPDEST SWAP6 SWAP5 POP POP POP POP POP JUMP JUMPDEST PUSH4 0x1FFC9A7 PUSH1 0xE0 SHL PUSH0 DUP2 DUP2 MSTORE PUSH1 0x4 DUP4 SWAP1 MSTORE SWAP1 DUP2 SWAP1 PUSH1 0x20 DUP3 PUSH1 0x24 DUP2 DUP9 PUSH2 0x7530 STATICCALL SWAP3 POP PUSH0 MLOAD ISZERO ISZERO PUSH1 0x1F RETURNDATASIZE GT AND SWAP2 POP POP SWAP3 POP SWAP3 SWAP1 POP JUMP JUMPDEST PUSH0 PUSH1 0x20 DUP3 DUP5 SUB SLT ISZERO PUSH2 0x1C3D JUMPI PUSH0 PUSH0 REVERT JUMPDEST POP CALLDATALOAD SWAP2 SWAP1 POP JUMP JUMPDEST PUSH0 DUP2 MLOAD DUP1 DUP5 MSTORE DUP1 PUSH1 0x20 DUP5 ADD PUSH1 0x20 DUP7 ADD MCOPY PUSH0 PUSH1 0x20 DUP3 DUP7 ADD ADD MSTORE PUSH1 0x20 PUSH1 0x1F NOT PUSH1 0x1F DUP4 ADD AND DUP6 ADD ADD SWAP2 POP POP SWAP3 SWAP2 POP POP JUMP JUMPDEST PUSH4 0x4E487B71 PUSH1 0xE0 SHL PUSH0 MSTORE PUSH1 0x21 PUSH1 0x4 MSTORE PUSH1 0x24 PUSH0 REVERT JUMPDEST PUSH1 0x3 DUP2 LT PUSH2 0x1CA2 JUMPI PUSH4 0x4E487B71 PUSH1 0xE0 SHL PUSH0 MSTORE PUSH1 0x21 PUSH1 0x4 MSTORE PUSH1 0x24 PUSH0 REVERT JUMPDEST SWAP1 MSTORE JUMP JUMPDEST PUSH2 0x120 DUP2 MSTORE PUSH0 PUSH2 0x1CBA PUSH2 0x120 DUP4 ADD DUP13 PUSH2 0x1C44 JUMP JUMPDEST DUP3 DUP2 SUB PUSH1 0x20 DUP5 ADD MSTORE PUSH2 0x1CCC DUP2 DUP13 PUSH2 0x1C44 JUMP JUMPDEST PUSH1 0x40 DUP5 ADD DUP12 SWAP1 MSTORE PUSH1 0x1 PUSH1 0x1 PUSH1 0xA0 SHL SUB DUP11 AND PUSH1 0x60 DUP6 ADD MSTORE SWAP2 POP PUSH2 0x1CF3 SWAP1 POP PUSH1 0x80 DUP4 ADD DUP9 PUSH2 0x1C86 JUMP JUMPDEST PUSH1 0xA0 DUP3 ADD SWAP6 SWAP1 SWAP6 MSTORE PUSH1 0xC0 DUP2 ADD SWAP4 SWAP1 SWAP4 MSTORE PUSH1 0x1 PUSH1 0x1 PUSH1 0xA0 SHL SUB SWAP2 SWAP1 SWAP2 AND PUSH1 0xE0 DUP4 ADD MSTORE ISZERO ISZERO PUSH2 0x100 SWAP1 SWAP2 ADD MSTORE SWAP6 SWAP5 POP POP POP POP POP JUMP JUMPDEST DUP1 CALLDATALOAD PUSH1 0x1 PUSH1 0x1 PUSH1 0xA0 SHL SUB DUP2 AND DUP2 EQ PUSH2 0x1BD0 JUMPI PUSH0 PUSH0 REVERT JUMPDEST PUSH0 PUSH0 PUSH1 0x40 DUP4 DUP6 SUB SLT ISZERO PUSH2 0x1D4D JUMPI PUSH0 PUSH0 REVERT JUMPDEST DUP3 CALLDATALOAD SWAP2 POP PUSH2 0x1D5D PUSH1 0x20 DUP5 ADD PUSH2 0x1D26 JUMP JUMPDEST SWAP1 POP SWAP3 POP SWAP3 SWAP1 POP JUMP JUMPDEST PUSH1 0x20 DUP1 DUP3 MSTORE DUP3 MLOAD DUP3 DUP3 ADD DUP2 SWAP1 MSTORE PUSH0 SWAP2 DUP5 ADD SWAP1 PUSH1 0x40 DUP5 ADD SWAP1 DUP4 JUMPDEST DUP2 DUP2 LT ISZERO PUSH2 0x1D9D JUMPI DUP4 MLOAD DUP4 MSTORE PUSH1 0x20 SWAP4 DUP5 ADD SWAP4 SWAP1 SWAP3 ADD SWAP2 PUSH1 0x1 ADD PUSH2 0x1D7F JUMP JUMPDEST POP SWAP1 SWAP6 SWAP5 POP POP POP POP POP JUMP JUMPDEST PUSH0 PUSH0 PUSH1 0x40 DUP4 DUP6 SUB SLT ISZERO PUSH2 0x1DB9 JUMPI PUSH0 PUSH0 REVERT JUMPDEST POP POP DUP1 CALLDATALOAD SWAP3 PUSH1 0x20 SWAP1 SWAP2 ADD CALLDATALOAD SWAP2 POP JUMP JUMPDEST PUSH0 PUSH1 0x20 DUP3 DUP5 SUB SLT ISZERO PUSH2 0x1DD8 JUMPI PUSH0 PUSH0 REVERT JUMPDEST PUSH2 0x1A62 DUP3 PUSH2 0x1D26 JUMP JUMPDEST PUSH4 0x4E487B71 PUSH1 0xE0 SHL PUSH0 MSTORE PUSH1 0x41 PUSH1 0x4 MSTORE PUSH1 0x24 PUSH0 REVERT JUMPDEST PUSH0 DUP3 PUSH1 0x1F DUP4 ADD SLT PUSH2 0x1E04 JUMPI PUSH0 PUSH0 REVERT JUMPDEST DUP2 CALLDATALOAD PUSH8 0xFFFFFFFFFFFFFFFF DUP2 GT ISZERO PUSH2 0x1E1E JUMPI PUSH2 0x1E1E PUSH2 0x1DE1 JUMP JUMPDEST PUSH1 0x40 MLOAD PUSH1 0x1F DUP3 ADD PUSH1 0x1F NOT SWAP1 DUP2 AND PUSH1 0x3F ADD AND DUP2 ADD PUSH8 0xFFFFFFFFFFFFFFFF DUP2 GT DUP3 DUP3 LT OR ISZERO PUSH2 0x1E4D JUMPI PUSH2 0x1E4D PUSH2 0x1DE1 JUMP JUMPDEST PUSH1 0x40 MSTORE DUP2 DUP2 MSTORE DUP4 DUP3 ADD PUSH1 0x20 ADD DUP6 LT ISZERO PUSH2 0x1E64 JUMPI PUSH0 PUSH0 REVERT JUMPDEST DUP2 PUSH1 0x20 DUP6 ADD PUSH1 0x20 DUP4 ADD CALLDATACOPY PUSH0 SWAP2 DUP2 ADD PUSH1 0x20 ADD SWAP2 SWAP1 SWAP2 MSTORE SWAP4 SWAP3 POP POP POP JUMP JUMPDEST PUSH0 PUSH0 PUSH0 PUSH0 PUSH1 0x80 DUP6 DUP8 SUB SLT ISZERO PUSH2 0x1E93 JUMPI PUSH0 PUSH0 REVERT JUMPDEST DUP5 CALLDATALOAD PUSH8 0xFFFFFFFFFFFFFFFF DUP2 GT ISZERO PUSH2 0x1EA9 JUMPI PUSH0 PUSH0 REVERT JUMPDEST PUSH2 0x1EB5 DUP8 DUP3 DUP9 ADD PUSH2 0x1DF5 JUMP JUMPDEST SWAP5 POP POP PUSH1 0x20 DUP6 ADD CALLDATALOAD PUSH8 0xFFFFFFFFFFFFFFFF DUP2 GT ISZERO PUSH2 0x1ED1 JUMPI PUSH0 PUSH0 REVERT JUMPDEST PUSH2 0x1EDD DUP8 DUP3 DUP9 ADD PUSH2 0x1DF5 JUMP JUMPDEST SWAP4 POP POP PUSH1 0x40 DUP6 ADD CALLDATALOAD SWAP2 POP PUSH2 0x1EF3 PUSH1 0x60 DUP7 ADD PUSH2 0x1D26 JUMP JUMPDEST SWAP1 POP SWAP3 SWAP6 SWAP2 SWAP5 POP SWAP3 POP JUMP JUMPDEST PUSH1 0xC0 DUP2 MSTORE PUSH0 PUSH2 0x1F10 PUSH1 0xC0 DUP4 ADD DUP10 PUSH2 0x1C44 JUMP JUMPDEST DUP3 DUP2 SUB PUSH1 0x20 DUP5 ADD MSTORE PUSH2 0x1F22 DUP2 DUP10 PUSH2 0x1C44 JUMP JUMPDEST PUSH1 0x40 DUP5 ADD DUP9 SWAP1 MSTORE PUSH1 0x1 PUSH1 0x1 PUSH1 0xA0 SHL SUB DUP8 AND PUSH1 0x60 DUP6 ADD MSTORE SWAP2 POP PUSH2 0x1F49 SWAP1 POP PUSH1 0x80 DUP4 ADD DUP6 PUSH2 0x1C86 JUMP JUMPDEST DUP3 PUSH1 0xA0 DUP4 ADD MSTORE SWAP8 SWAP7 POP POP POP POP POP POP POP JUMP JUMPDEST PUSH1 0x1 DUP2 DUP2 SHR SWAP1 DUP3 AND DUP1 PUSH2 0x1F6E JUMPI PUSH1 0x7F DUP3 AND SWAP2 POP JUMPDEST PUSH1 0x20 DUP3 LT DUP2 SUB PUSH2 0x1F8C JUMPI PUSH4 0x4E487B71 PUSH1 0xE0 SHL PUSH0 MSTORE PUSH1 0x22 PUSH1 0x4 MSTORE PUSH1 0x24 PUSH0 REVERT JUMPDEST POP SWAP2 SWAP1 POP JUMP JUMPDEST PUSH4 0x4E487B71 PUSH1 0xE0 SHL PUSH0 MSTORE PUSH1 0x11 PUSH1 0x4 MSTORE PUSH1 0x24 PUSH0 REVERT JUMPDEST PUSH0 DUP2 PUSH2 0x1FB4 JUMPI PUSH2 0x1FB4 PUSH2 0x1F92 JUMP JUMPDEST POP PUSH0 NOT ADD SWAP1 JUMP JUMPDEST PUSH0 PUSH1 0x20 DUP3 DUP5 SUB SLT ISZERO PUSH2 0x1FCB JUMPI PUSH0 PUSH0 REVERT JUMPDEST POP MLOAD SWAP2 SWAP1 POP JUMP JUMPDEST DUP1 DUP3 MUL DUP2 ISZERO DUP3 DUP3 DIV DUP5 EQ OR PUSH2 0x17B4 JUMPI PUSH2 0x17B4 PUSH2 0x1F92 JUMP JUMPDEST DUP1 DUP3 ADD DUP1 DUP3 GT ISZERO PUSH2 0x17B4 JUMPI PUSH2 0x17B4 PUSH2 0x1F92 JUMP JUMPDEST PUSH1 0x1 DUP2 JUMPDEST PUSH1 0x1 DUP5 GT ISZERO PUSH2 0x2037 JUMPI DUP1 DUP6 DIV DUP2 GT ISZERO PUSH2 0x201B JUMPI PUSH2 0x201B PUSH2 0x1F92 JUMP JUMPDEST PUSH1 0x1 DUP5 AND ISZERO PUSH2 0x2029 JUMPI SWAP1 DUP2 MUL SWAP1 JUMPDEST PUSH1 0x1 SWAP4 SWAP1 SWAP4 SHR SWAP3 DUP1 MUL PUSH2 0x2000 JUMP JUMPDEST SWAP4 POP SWAP4 SWAP2 POP POP JUMP JUMPDEST PUSH0 DUP3 PUSH2 0x204D JUMPI POP PUSH1 0x1 PUSH2 0x17B4 JUMP JUMPDEST DUP2 PUSH2 0x2059 JUMPI POP PUSH0 PUSH2 0x17B4 JUMP JUMPDEST DUP2 PUSH1 0x1 DUP2 EQ PUSH2 0x206F JUMPI PUSH1 0x2 DUP2 EQ PUSH2 0x2079 JUMPI PUSH2 0x2095 JUMP JUMPDEST PUSH1 0x1 SWAP2 POP POP PUSH2 0x17B4 JUMP JUMPDEST PUSH1 0xFF DUP5 GT ISZERO PUSH2 0x208A JUMPI PUSH2 0x208A PUSH2 0x1F92 JUMP JUMPDEST POP POP PUSH1 0x1 DUP3 SHL PUSH2 0x17B4 JUMP JUMPDEST POP PUSH1 0x20 DUP4 LT PUSH2 0x133 DUP4 LT AND PUSH1 0x4E DUP5 LT PUSH1 0xB DUP5 LT AND OR ISZERO PUSH2 0x20B8 JUMPI POP DUP2 DUP2 EXP PUSH2 0x17B4 JUMP JUMPDEST PUSH2 0x20C4 PUSH0 NOT DUP5 DUP5 PUSH2 0x1FFC JUMP JUMPDEST DUP1 PUSH0 NOT DIV DUP3 GT ISZERO PUSH2 0x20D7 JUMPI PUSH2 0x20D7 PUSH2 0x1F92 JUMP JUMPDEST MUL SWAP4 SWAP3 POP POP POP JUMP JUMPDEST PUSH0 PUSH2 0x1A62 PUSH1 0xFF DUP5 AND DUP4 PUSH2 0x203F JUMP JUMPDEST DUP2 DUP2 SUB DUP2 DUP2 GT ISZERO PUSH2 0x17B4 JUMPI PUSH2 0x17B4 PUSH2 0x1F92 JUMP JUMPDEST PUSH0 PUSH1 0x20 DUP3 DUP5 SUB SLT ISZERO PUSH2 0x2110 JUMPI PUSH0 PUSH0 REVERT JUMPDEST DUP2 MLOAD DUP1 ISZERO ISZERO DUP2 EQ PUSH2 0x1A62 JUMPI PUSH0 PUSH0 REVERT JUMPDEST PUSH0 PUSH1 0x1 DUP3 ADD PUSH2 0x2130 JUMPI PUSH2 0x2130 PUSH2 0x1F92 JUMP JUMPDEST POP PUSH1 0x1 ADD SWAP1 JUMP JUMPDEST PUSH4 0x4E487B71 PUSH1 0xE0 SHL PUSH0 MSTORE PUSH1 0x32 PUSH1 0x4 MSTORE PUSH1 0x24 PUSH0 REVERT JUMPDEST PUSH1 0x1F DUP3 GT ISZERO PUSH2 0x7C1 JUMPI DUP1 PUSH0 MSTORE PUSH1 0x20 PUSH0 KECCAK256 PUSH1 0x1F DUP5 ADD PUSH1 0x5 SHR DUP2 ADD PUSH1 0x20 DUP6 LT ISZERO PUSH2 0x2170 JUMPI POP DUP1 JUMPDEST PUSH1 0x1F DUP5 ADD PUSH1 0x5 SHR DUP3 ADD SWAP2 POP JUMPDEST DUP2 DUP2 LT ISZERO PUSH2 0x218F JUMPI PUSH0 DUP2 SSTORE PUSH1 0x1 ADD PUSH2 0x217C JUMP JUMPDEST POP POP POP POP POP JUMP JUMPDEST DUP2 MLOAD PUSH8 0xFFFFFFFFFFFFFFFF DUP2 GT ISZERO PUSH2 0x21B0 JUMPI PUSH2 0x21B0 PUSH2 0x1DE1 JUMP JUMPDEST PUSH2 0x21C4 DUP2 PUSH2 0x21BE DUP5 SLOAD PUSH2 0x1F5A JUMP JUMPDEST DUP5 PUSH2 0x214B JUMP JUMPDEST PUSH1 0x20 PUSH1 0x1F DUP3 GT PUSH1 0x1 DUP2 EQ PUSH2 0x21F6 JUMPI PUSH0 DUP4 ISZERO PUSH2 0x21DF JUMPI POP DUP5 DUP3 ADD MLOAD JUMPDEST PUSH0 NOT PUSH1 0x3 DUP6 SWAP1 SHL SHR NOT AND PUSH1 0x1 DUP5 SWAP1 SHL OR DUP5 SSTORE PUSH2 0x218F JUMP JUMPDEST PUSH0 DUP5 DUP2 MSTORE PUSH1 0x20 DUP2 KECCAK256 PUSH1 0x1F NOT DUP6 AND SWAP2 JUMPDEST DUP3 DUP2 LT ISZERO PUSH2 0x2225 JUMPI DUP8 DUP6 ADD MLOAD DUP3 SSTORE PUSH1 0x20 SWAP5 DUP6 ADD SWAP5 PUSH1 0x1 SWAP1 SWAP3 ADD SWAP2 ADD PUSH2 0x2205 JUMP JUMPDEST POP DUP5 DUP3 LT ISZERO PUSH2 0x2242 JUMPI DUP7 DUP5 ADD MLOAD PUSH0 NOT PUSH1 0x3 DUP8 SWAP1 SHL PUSH1 0xF8 AND SHR NOT AND DUP2 SSTORE JUMPDEST POP POP POP POP PUSH1 0x1 SWAP1 DUP2 SHL ADD SWAP1 SSTORE POP JUMP JUMPDEST PUSH1 0x40 DUP2 MSTORE PUSH0 PUSH2 0x2263 PUSH1 0x40 DUP4 ADD DUP6 PUSH2 0x1C44 JUMP JUMPDEST SWAP1 POP DUP3 PUSH1 0x20 DUP4 ADD MSTORE SWAP4 SWAP3 POP POP POP JUMP JUMPDEST PUSH0 DUP3 MLOAD DUP1 PUSH1 0x20 DUP6 ADD DUP5 MCOPY PUSH0 SWAP3 ADD SWAP2 DUP3 MSTORE POP SWAP2 SWAP1 POP JUMP JUMPDEST PUSH0 DUP3 PUSH2 0x22A2 JUMPI PUSH4 0x4E487B71 PUSH1 0xE0 SHL PUSH0 MSTORE PUSH1 0x12 PUSH1 0x4 MSTORE PUSH1 0x24 PUSH0 REVERT JUMPDEST POP DIV SWAP1 JUMP INVALID LOG2 PUSH5 0x6970667358 0x22 SLT KECCAK256 DUP13 0xBB PUSH20 0xA194AFCAA388B3FA7582FB314B6AA9FF7436FA41 CALLVALUE 0xD0 SAR 0x4E DUP12 0xB1 PUSH23 0x9C1264736F6C634300081F003360806040523480156100 0xF JUMPI PUSH0 PUSH0 REVERT JUMPDEST POP PUSH1 0x40 MLOAD PUSH2 0xB2D CODESIZE SUB DUP1 PUSH2 0xB2D DUP4 CODECOPY DUP2 ADD PUSH1 0x40 DUP2 SWAP1 MSTORE PUSH2 0x2E SWAP2 PUSH2 0x103 JUMP JUMPDEST DUP2 DUP2 PUSH1 0x3 PUSH2 0x3C DUP4 DUP3 PUSH2 0x1EC JUMP JUMPDEST POP PUSH1 0x4 PUSH2 0x49 DUP3 DUP3 PUSH2 0x1EC JUMP JUMPDEST POP POP PUSH1 0x5 DUP1 SLOAD PUSH1 0x1 PUSH1 0x1 PUSH1 0xA0 SHL SUB NOT AND CALLER OR SWAP1 SSTORE POP PUSH2 0x2A6 SWAP2 POP POP JUMP JUMPDEST PUSH4 0x4E487B71 PUSH1 0xE0 SHL PUSH0 MSTORE PUSH1 0x41 PUSH1 0x4 MSTORE PUSH1 0x24 PUSH0 REVERT JUMPDEST PUSH0 DUP3 PUSH1 0x1F DUP4 ADD SLT PUSH2 0x89 JUMPI PUSH0 PUSH0 REVERT JUMPDEST DUP2 MLOAD PUSH1 0x1 PUSH1 0x1 PUSH1 0x40 SHL SUB DUP2 GT ISZERO PUSH2 0xA2 JUMPI PUSH2 0xA2 PUSH2 0x66 JUMP JUMPDEST PUSH1 0x40 MLOAD PUSH1 0x1F DUP3 ADD PUSH1 0x1F NOT SWAP1 DUP2 AND PUSH1 0x3F ADD AND DUP2 ADD PUSH1 0x1 PUSH1 0x1 PUSH1 0x40 SHL SUB DUP2 GT DUP3 DUP3 LT OR ISZERO PUSH2 0xD0 JUMPI PUSH2 0xD0 PUSH2 0x66 JUMP JUMPDEST PUSH1 0x40 MSTORE DUP2 DUP2 MSTORE DUP4 DUP3 ADD PUSH1 0x20 ADD DUP6 LT ISZERO PUSH2 0xE7 JUMPI PUSH0 PUSH0 REVERT JUMPDEST DUP2 PUSH1 0x20 DUP6 ADD PUSH1 0x20 DUP4 ADD MCOPY PUSH0 SWAP2 DUP2 ADD PUSH1 0x20 ADD SWAP2 SWAP1 SWAP2 MSTORE SWAP4 SWAP3 POP POP POP JUMP JUMPDEST PUSH0 PUSH0 PUSH1 0x40 DUP4 DUP6 SUB SLT ISZERO PUSH2 0x114 JUMPI PUSH0 PUSH0 REVERT JUMPDEST DUP3 MLOAD PUSH1 0x1 PUSH1 0x1 PUSH1 0x40 SHL SUB DUP2 GT ISZERO PUSH2 0x129 JUMPI PUSH0 PUSH0 REVERT JUMPDEST PUSH2 0x135 DUP6 DUP3 DUP7 ADD PUSH2 0x7A JUMP JUMPDEST PUSH1 0x20 DUP6 ADD MLOAD SWAP1 SWAP4 POP SWAP1 POP PUSH1 0x1 PUSH1 0x1 PUSH1 0x40 SHL SUB DUP2 GT ISZERO PUSH2 0x152 JUMPI PUSH0 PUSH0 REVERT JUMPDEST PUSH2 0x15E DUP6 DUP3 DUP7 ADD PUSH2 0x7A JUMP JUMPDEST SWAP2 POP POP SWAP3 POP SWAP3 SWAP1 POP JUMP JUMPDEST PUSH1 0x1 DUP2 DUP2 SHR SWAP1 DUP3 AND DUP1 PUSH2 0x17C JUMPI PUSH1 0x7F DUP3 AND SWAP2 POP JUMPDEST PUSH1 0x20 DUP3 LT DUP2 SUB PUSH2 0x19A JUMPI PUSH4 0x4E487B71 PUSH1 0xE0 SHL PUSH0 MSTORE PUSH1 0x22 PUSH1 0x4 MSTORE PUSH1 0x24 PUSH0 REVERT JUMPDEST POP SWAP2 SWAP1 POP JUMP JUMPDEST PUSH1 0x1F DUP3 GT ISZERO PUSH2 0x1E7 JUMPI DUP1 PUSH0 MSTORE PUSH1 0x20 PUSH0 KECCAK256 PUSH1 0x1F DUP5 ADD PUSH1 0x5 SHR DUP2 ADD PUSH1 0x20 DUP6 LT ISZERO PUSH2 0x1C5 JUMPI POP DUP1 JUMPDEST PUSH1 0x1F DUP5 ADD PUSH1 0x5 SHR DUP3 ADD SWAP2 POP JUMPDEST DUP2 DUP2 LT ISZERO PUSH2 0x1E4 JUMPI PUSH0 DUP2 SSTORE PUSH1 0x1 ADD PUSH2 0x1D1 JUMP JUMPDEST POP POP JUMPDEST POP POP POP JUMP JUMPDEST DUP2 MLOAD PUSH1 0x1 PUSH1 0x1 PUSH1 0x40 SHL SUB DUP2 GT ISZERO PUSH2 0x205 JUMPI PUSH2 0x205 PUSH2 0x66 JUMP JUMPDEST PUSH2 0x219 DUP2 PUSH2 0x213 DUP5 SLOAD PUSH2 0x168 JUMP JUMPDEST DUP5 PUSH2 0x1A0 JUMP JUMPDEST PUSH1 0x20 PUSH1 0x1F DUP3 GT PUSH1 0x1 DUP2 EQ PUSH2 0x24B JUMPI PUSH0 DUP4 ISZERO PUSH2 0x234 JUMPI POP DUP5 DUP3 ADD MLOAD JUMPDEST PUSH0 NOT PUSH1 0x3 DUP6 SWAP1 SHL SHR NOT AND PUSH1 0x1 DUP5 SWAP1 SHL OR DUP5 SSTORE PUSH2 0x1E4 JUMP JUMPDEST PUSH0 DUP5 DUP2 MSTORE PUSH1 0x20 DUP2 KECCAK256 PUSH1 0x1F NOT DUP6 AND SWAP2 JUMPDEST DUP3 DUP2 LT ISZERO PUSH2 0x27A JUMPI DUP8 DUP6 ADD MLOAD DUP3 SSTORE PUSH1 0x20 SWAP5 DUP6 ADD SWAP5 PUSH1 0x1 SWAP1 SWAP3 ADD SWAP2 ADD PUSH2 0x25A JUMP JUMPDEST POP DUP5 DUP3 LT ISZERO PUSH2 0x297 JUMPI DUP7 DUP5 ADD MLOAD PUSH0 NOT PUSH1 0x3 DUP8 SWAP1 SHL PUSH1 0xF8 AND SHR NOT AND DUP2 SSTORE JUMPDEST POP POP POP POP PUSH1 0x1 SWAP1 DUP2 SHL ADD SWAP1 SSTORE POP JUMP JUMPDEST PUSH2 0x87A DUP1 PUSH2 0x2B3 PUSH0 CODECOPY PUSH0 RETURN INVALID PUSH1 0x80 PUSH1 0x40 MSTORE CALLVALUE DUP1 ISZERO PUSH2 0xF JUMPI PUSH0 PUSH0 REVERT JUMPDEST POP PUSH1 0x4 CALLDATASIZE LT PUSH2 0xB1 JUMPI PUSH0 CALLDATALOAD PUSH1 0xE0 SHR DUP1 PUSH4 0x70A08231 GT PUSH2 0x6E JUMPI DUP1 PUSH4 0x70A08231 EQ PUSH2 0x13F JUMPI DUP1 PUSH4 0x95D89B41 EQ PUSH2 0x167 JUMPI DUP1 PUSH4 0x9DC29FAC EQ PUSH2 0x16F JUMPI DUP1 PUSH4 0xA9059CBB EQ PUSH2 0x182 JUMPI DUP1 PUSH4 0xC1FC006A EQ PUSH2 0x195 JUMPI DUP1 PUSH4 0xDD62ED3E EQ PUSH2 0x1C0 JUMPI PUSH0 PUSH0 REVERT JUMPDEST DUP1 PUSH4 0x6FDDE03 EQ PUSH2 0xB5 JUMPI DUP1 PUSH4 0x95EA7B3 EQ PUSH2 0xD3 JUMPI DUP1 PUSH4 0x18160DDD EQ PUSH2 0xF6 JUMPI DUP1 PUSH4 0x23B872DD EQ PUSH2 0x108 JUMPI DUP1 PUSH4 0x313CE567 EQ PUSH2 0x11B JUMPI DUP1 PUSH4 0x40C10F19 EQ PUSH2 0x12A JUMPI JUMPDEST PUSH0 PUSH0 REVERT JUMPDEST PUSH2 0xBD PUSH2 0x1F8 JUMP JUMPDEST PUSH1 0x40 MLOAD PUSH2 0xCA SWAP2 SWAP1 PUSH2 0x6A0 JUMP JUMPDEST PUSH1 0x40 MLOAD DUP1 SWAP2 SUB SWAP1 RETURN JUMPDEST PUSH2 0xE6 PUSH2 0xE1 CALLDATASIZE PUSH1 0x4 PUSH2 0x6F0 JUMP JUMPDEST PUSH2 0x288 JUMP JUMPDEST PUSH1 0x40 MLOAD SWAP1 ISZERO ISZERO DUP2 MSTORE PUSH1 0x20 ADD PUSH2 0xCA JUMP JUMPDEST PUSH1 0x2 SLOAD JUMPDEST PUSH1 0x40 MLOAD SWAP1 DUP2 MSTORE PUSH1 0x20 ADD PUSH2 0xCA JUMP JUMPDEST PUSH2 0xE6 PUSH2 0x116 CALLDATASIZE PUSH1 0x4 PUSH2 0x718 JUMP JUMPDEST PUSH2 0x2A1 JUMP JUMPDEST PUSH1 0x40 MLOAD PUSH1 0x12 DUP2 MSTORE PUSH1 0x20 ADD PUSH2 0xCA JUMP JUMPDEST PUSH2 0x13D PUSH2 0x138 CALLDATASIZE PUSH1 0x4 PUSH2 0x6F0 JUMP JUMPDEST PUSH2 0x2C4 JUMP JUMPDEST STOP JUMPDEST PUSH2 0xFA PUSH2 0x14D CALLDATASIZE PUSH1 0x4 PUSH2 0x752 JUMP JUMPDEST PUSH1 0x1 PUSH1 0x1 PUSH1 0xA0 SHL SUB AND PUSH0 SWAP1 DUP2 MSTORE PUSH1 0x20 DUP2 SWAP1 MSTORE PUSH1 0x40 SWAP1 KECCAK256 SLOAD SWAP1 JUMP JUMPDEST PUSH2 0xBD PUSH2 0x305 JUMP JUMPDEST PUSH2 0x13D PUSH2 0x17D CALLDATASIZE PUSH1 0x4 PUSH2 0x6F0 JUMP JUMPDEST PUSH2 0x314 JUMP JUMPDEST PUSH2 0xE6 PUSH2 0x190 CALLDATASIZE PUSH1 0x4 PUSH2 0x6F0 JUMP JUMPDEST PUSH2 0x348 JUMP JUMPDEST PUSH1 0x5 SLOAD PUSH2 0x1A8 SWAP1 PUSH1 0x1 PUSH1 0x1 PUSH1 0xA0 SHL SUB AND DUP2 JUMP JUMPDEST PUSH1 0x40 MLOAD PUSH1 0x1 PUSH1 0x1 PUSH1 0xA0 SHL SUB SWAP1 SWAP2 AND DUP2 MSTORE PUSH1 0x20 ADD PUSH2 0xCA JUMP JUMPDEST PUSH2 0xFA PUSH2 0x1CE CALLDATASIZE PUSH1 0x4 PUSH2 0x772 JUMP JUMPDEST PUSH1 0x1 PUSH1 0x1 PUSH1 0xA0 SHL SUB SWAP2 DUP3 AND PUSH0 SWAP1 DUP2 MSTORE PUSH1 0x1 PUSH1 0x20 SWAP1 DUP2 MSTORE PUSH1 0x40 DUP1 DUP4 KECCAK256 SWAP4 SWAP1 SWAP5 AND DUP3 MSTORE SWAP2 SWAP1 SWAP2 MSTORE KECCAK256 SLOAD SWAP1 JUMP JUMPDEST PUSH1 0x60 PUSH1 0x3 DUP1 SLOAD PUSH2 0x207 SWAP1 PUSH2 0x7A3 JUMP JUMPDEST DUP1 PUSH1 0x1F ADD PUSH1 0x20 DUP1 SWAP2 DIV MUL PUSH1 0x20 ADD PUSH1 0x40 MLOAD SWAP1 DUP2 ADD PUSH1 0x40 MSTORE DUP1 SWAP3 SWAP2 SWAP1 DUP2 DUP2 MSTORE PUSH1 0x20 ADD DUP3 DUP1 SLOAD PUSH2 0x233 SWAP1 PUSH2 0x7A3 JUMP JUMPDEST DUP1 ISZERO PUSH2 0x27E JUMPI DUP1 PUSH1 0x1F LT PUSH2 0x255 JUMPI PUSH2 0x100 DUP1 DUP4 SLOAD DIV MUL DUP4 MSTORE SWAP2 PUSH1 0x20 ADD SWAP2 PUSH2 0x27E JUMP JUMPDEST DUP3 ADD SWAP2 SWAP1 PUSH0 MSTORE PUSH1 0x20 PUSH0 KECCAK256 SWAP1 JUMPDEST DUP2 SLOAD DUP2 MSTORE SWAP1 PUSH1 0x1 ADD SWAP1 PUSH1 0x20 ADD DUP1 DUP4 GT PUSH2 0x261 JUMPI DUP3 SWAP1 SUB PUSH1 0x1F AND DUP3 ADD SWAP2 JUMPDEST POP POP POP POP POP SWAP1 POP SWAP1 JUMP JUMPDEST PUSH0 CALLER PUSH2 0x295 DUP2 DUP6 DUP6 PUSH2 0x355 JUMP JUMPDEST PUSH1 0x1 SWAP2 POP POP JUMPDEST SWAP3 SWAP2 POP POP JUMP JUMPDEST PUSH0 CALLER PUSH2 0x2AE DUP6 DUP3 DUP6 PUSH2 0x367 JUMP JUMPDEST PUSH2 0x2B9 DUP6 DUP6 DUP6 PUSH2 0x3E3 JUMP JUMPDEST POP PUSH1 0x1 SWAP5 SWAP4 POP POP POP POP JUMP JUMPDEST PUSH1 0x5 SLOAD PUSH1 0x1 PUSH1 0x1 PUSH1 0xA0 SHL SUB AND CALLER EQ PUSH2 0x2F7 JUMPI PUSH1 0x40 MLOAD PUSH3 0x461BCD PUSH1 0xE5 SHL DUP2 MSTORE PUSH1 0x4 ADD PUSH2 0x2EE SWAP1 PUSH2 0x7DB JUMP JUMPDEST PUSH1 0x40 MLOAD DUP1 SWAP2 SUB SWAP1 REVERT JUMPDEST PUSH2 0x301 DUP3 DUP3 PUSH2 0x440 JUMP JUMPDEST POP POP JUMP JUMPDEST PUSH1 0x60 PUSH1 0x4 DUP1 SLOAD PUSH2 0x207 SWAP1 PUSH2 0x7A3 JUMP JUMPDEST PUSH1 0x5 SLOAD PUSH1 0x1 PUSH1 0x1 PUSH1 0xA0 SHL SUB AND CALLER EQ PUSH2 0x33E JUMPI PUSH1 0x40 MLOAD PUSH3 0x461BCD PUSH1 0xE5 SHL DUP2 MSTORE PUSH1 0x4 ADD PUSH2 0x2EE SWAP1 PUSH2 0x7DB JUMP JUMPDEST PUSH2 0x301 DUP3 DUP3 PUSH2 0x474 JUMP JUMPDEST PUSH0 CALLER PUSH2 0x295 DUP2 DUP6 DUP6 PUSH2 0x3E3 JUMP JUMPDEST PUSH2 0x362 DUP4 DUP4 DUP4 PUSH1 0x1 PUSH2 0x4A8 JUMP JUMPDEST POP POP POP JUMP JUMPDEST PUSH1 0x1 PUSH1 0x1 PUSH1 0xA0 SHL SUB DUP4 DUP2 AND PUSH0 SWAP1 DUP2 MSTORE PUSH1 0x1 PUSH1 0x20 SWAP1 DUP2 MSTORE PUSH1 0x40 DUP1 DUP4 KECCAK256 SWAP4 DUP7 AND DUP4 MSTORE SWAP3 SWAP1 MSTORE KECCAK256 SLOAD PUSH0 NOT DUP2 LT ISZERO PUSH2 0x3DD JUMPI DUP2 DUP2 LT ISZERO PUSH2 0x3CF JUMPI PUSH1 0x40 MLOAD PUSH4 0x7DC7A0D9 PUSH1 0xE1 SHL DUP2 MSTORE PUSH1 0x1 PUSH1 0x1 PUSH1 0xA0 SHL SUB DUP5 AND PUSH1 0x4 DUP3 ADD MSTORE PUSH1 0x24 DUP2 ADD DUP3 SWAP1 MSTORE PUSH1 0x44 DUP2 ADD DUP4 SWAP1 MSTORE PUSH1 0x64 ADD PUSH2 0x2EE JUMP JUMPDEST PUSH2 0x3DD DUP5 DUP5 DUP5 DUP5 SUB PUSH0 PUSH2 0x4A8 JUMP JUMPDEST POP POP POP POP JUMP JUMPDEST PUSH1 0x1 PUSH1 0x1 PUSH1 0xA0 SHL SUB DUP4 AND PUSH2 0x40C JUMPI PUSH1 0x40 MLOAD PUSH4 0x4B637E8F PUSH1 0xE1 SHL DUP2 MSTORE PUSH0 PUSH1 0x4 DUP3 ADD MSTORE PUSH1 0x24 ADD PUSH2 0x2EE JUMP JUMPDEST PUSH1 0x1 PUSH1 0x1 PUSH1 0xA0 SHL SUB DUP3 AND PUSH2 0x435 JUMPI PUSH1 0x40 MLOAD PUSH4 0xEC442F05 PUSH1 0xE0 SHL DUP2 MSTORE PUSH0 PUSH1 0x4 DUP3 ADD MSTORE PUSH1 0x24 ADD PUSH2 0x2EE JUMP JUMPDEST PUSH2 0x362 DUP4 DUP4 DUP4 PUSH2 0x57A JUMP JUMPDEST PUSH1 0x1 PUSH1 0x1 PUSH1 0xA0 SHL SUB DUP3 AND PUSH2 0x469 JUMPI PUSH1 0x40 MLOAD PUSH4 0xEC442F05 PUSH1 0xE0 SHL DUP2 MSTORE PUSH0 PUSH1 0x4 DUP3 ADD MSTORE PUSH1 0x24 ADD PUSH2 0x2EE JUMP JUMPDEST PUSH2 0x301 PUSH0 DUP4 DUP4 PUSH2 0x57A JUMP JUMPDEST PUSH1 0x1 PUSH1 0x1 PUSH1 0xA0 SHL SUB DUP3 AND PUSH2 0x49D JUMPI PUSH1 0x40 MLOAD PUSH4 0x4B637E8F PUSH1 0xE1 SHL DUP2 MSTORE PUSH0 PUSH1 0x4 DUP3 ADD MSTORE PUSH1 0x24 ADD PUSH2 0x2EE JUMP JUMPDEST PUSH2 0x301 DUP3 PUSH0 DUP4 PUSH2 0x57A JUMP JUMPDEST PUSH1 0x1 PUSH1 0x1 PUSH1 0xA0 SHL SUB DUP5 AND PUSH2 0x4D1 JUMPI PUSH1 0x40 MLOAD PUSH4 0xE602DF05 PUSH1 0xE0 SHL DUP2 MSTORE PUSH0 PUSH1 0x4 DUP3 ADD MSTORE PUSH1 0x24 ADD PUSH2 0x2EE JUMP JUMPDEST PUSH1 0x1 PUSH1 0x1 PUSH1 0xA0 SHL SUB DUP4 AND PUSH2 0x4FA JUMPI PUSH1 0x40 MLOAD PUSH4 0x4A1406B1 PUSH1 0xE1 SHL DUP2 MSTORE PUSH0 PUSH1 0x4 DUP3 ADD MSTORE PUSH1 0x24 ADD PUSH2 0x2EE JUMP JUMPDEST PUSH1 0x1 PUSH1 0x1 PUSH1 0xA0 SHL SUB DUP1 DUP6 AND PUSH0 SWAP1 DUP2 MSTORE PUSH1 0x1 PUSH1 0x20 SWAP1 DUP2 MSTORE PUSH1 0x40 DUP1 DUP4 KECCAK256 SWAP4 DUP8 AND DUP4 MSTORE SWAP3 SWAP1 MSTORE KECCAK256 DUP3 SWAP1 SSTORE DUP1 ISZERO PUSH2 0x3DD JUMPI DUP3 PUSH1 0x1 PUSH1 0x1 PUSH1 0xA0 SHL SUB AND DUP5 PUSH1 0x1 PUSH1 0x1 PUSH1 0xA0 SHL SUB AND PUSH32 0x8C5BE1E5EBEC7D5BD14F71427D1E84F3DD0314C0F7B2291E5B200AC8C7C3B925 DUP5 PUSH1 0x40 MLOAD PUSH2 0x56C SWAP2 DUP2 MSTORE PUSH1 0x20 ADD SWAP1 JUMP JUMPDEST PUSH1 0x40 MLOAD DUP1 SWAP2 SUB SWAP1 LOG3 POP POP POP POP JUMP JUMPDEST PUSH1 0x1 PUSH1 0x1 PUSH1 0xA0 SHL SUB DUP4 AND PUSH2 0x5A4 JUMPI DUP1 PUSH1 0x2 PUSH0 DUP3 DUP3 SLOAD PUSH2 0x599 SWAP2 SWAP1 PUSH2 0x825 JUMP JUMPDEST SWAP1 SWAP2 SSTORE POP PUSH2 0x614 SWAP1 POP JUMP JUMPDEST PUSH1 0x1 PUSH1 0x1 PUSH1 0xA0 SHL SUB DUP4 AND PUSH0 SWAP1 DUP2 MSTORE PUSH1 0x20 DUP2 SWAP1 MSTORE PUSH1 0x40 SWAP1 KECCAK256 SLOAD DUP2 DUP2 LT ISZERO PUSH2 0x5F6 JUMPI PUSH1 0x40 MLOAD PUSH4 0x391434E3 PUSH1 0xE2 SHL DUP2 MSTORE PUSH1 0x1 PUSH1 0x1 PUSH1 0xA0 SHL SUB DUP6 AND PUSH1 0x4 DUP3 ADD MSTORE PUSH1 0x24 DUP2 ADD DUP3 SWAP1 MSTORE PUSH1 0x44 DUP2 ADD DUP4 SWAP1 MSTORE PUSH1 0x64 ADD PUSH2 0x2EE JUMP JUMPDEST PUSH1 0x1 PUSH1 0x1 PUSH1 0xA0 SHL SUB DUP5 AND PUSH0 SWAP1 DUP2 MSTORE PUSH1 0x20 DUP2 SWAP1 MSTORE PUSH1 0x40 SWAP1 KECCAK256 SWAP1 DUP3 SWAP1 SUB SWAP1 SSTORE JUMPDEST PUSH1 0x1 PUSH1 0x1 PUSH1 0xA0 SHL SUB DUP3 AND PUSH2 0x630 JUMPI PUSH1 0x2 DUP1 SLOAD DUP3 SWAP1 SUB SWAP1 SSTORE PUSH2 0x64E JUMP JUMPDEST PUSH1 0x1 PUSH1 0x1 PUSH1 0xA0 SHL SUB DUP3 AND PUSH0 SWAP1 DUP2 MSTORE PUSH1 0x20 DUP2 SWAP1 MSTORE PUSH1 0x40 SWAP1 KECCAK256 DUP1 SLOAD DUP3 ADD SWAP1 SSTORE JUMPDEST DUP2 PUSH1 0x1 PUSH1 0x1 PUSH1 0xA0 SHL SUB AND DUP4 PUSH1 0x1 PUSH1 0x1 PUSH1 0xA0 SHL SUB AND PUSH32 0xDDF252AD1BE2C89B69C2B068FC378DAA952BA7F163C4A11628F55A4DF523B3EF DUP4 PUSH1 0x40 MLOAD PUSH2 0x693 SWAP2 DUP2 MSTORE PUSH1 0x20 ADD SWAP1 JUMP JUMPDEST PUSH1 0x40 MLOAD DUP1 SWAP2 SUB SWAP1 LOG3 POP POP POP JUMP JUMPDEST PUSH1 0x20 DUP2 MSTORE PUSH0 DUP3 MLOAD DUP1 PUSH1 0x20 DUP5 ADD MSTORE DUP1 PUSH1 0x20 DUP6 ADD PUSH1 0x40 DUP6 ADD MCOPY PUSH0 PUSH1 0x40 DUP3 DUP6 ADD ADD MSTORE PUSH1 0x40 PUSH1 0x1F NOT PUSH1 0x1F DUP4 ADD AND DUP5 ADD ADD SWAP2 POP POP SWAP3 SWAP2 POP POP JUMP JUMPDEST DUP1 CALLDATALOAD PUSH1 0x1 PUSH1 0x1 PUSH1 0xA0 SHL SUB DUP2 AND DUP2 EQ PUSH2 0x6EB JUMPI PUSH0 PUSH0 REVERT JUMPDEST SWAP2 SWAP1 POP JUMP JUMPDEST PUSH0 PUSH0 PUSH1 0x40 DUP4 DUP6 SUB SLT ISZERO PUSH2 0x701 JUMPI PUSH0 PUSH0 REVERT JUMPDEST PUSH2 0x70A DUP4 PUSH2 0x6D5 JUMP JUMPDEST SWAP5 PUSH1 0x20 SWAP4 SWAP1 SWAP4 ADD CALLDATALOAD SWAP4 POP POP POP JUMP JUMPDEST PUSH0 PUSH0 PUSH0 PUSH1 0x60 DUP5 DUP7 SUB SLT ISZERO PUSH2 0x72A JUMPI PUSH0 PUSH0 REVERT JUMPDEST PUSH2 0x733 DUP5 PUSH2 0x6D5 JUMP JUMPDEST SWAP3 POP PUSH2 0x741 PUSH1 0x20 DUP6 ADD PUSH2 0x6D5 JUMP JUMPDEST SWAP3 SWAP6 SWAP3 SWAP5 POP POP POP PUSH1 0x40 SWAP2 SWAP1 SWAP2 ADD CALLDATALOAD SWAP1 JUMP JUMPDEST PUSH0 PUSH1 0x20 DUP3 DUP5 SUB SLT ISZERO PUSH2 0x762 JUMPI PUSH0 PUSH0 REVERT JUMPDEST PUSH2 0x76B DUP3 PUSH2 0x6D5 JUMP JUMPDEST SWAP4 SWAP3 POP POP POP JUMP JUMPDEST PUSH0 PUSH0 PUSH1 0x40 DUP4 DUP6 SUB SLT ISZERO PUSH2 0x783 JUMPI PUSH0 PUSH0 REVERT JUMPDEST PUSH2 0x78C DUP4 PUSH2 0x6D5 JUMP JUMPDEST SWAP2 POP PUSH2 0x79A PUSH1 0x20 DUP5 ADD PUSH2 0x6D5 JUMP JUMPDEST SWAP1 POP SWAP3 POP SWAP3 SWAP1 POP JUMP JUMPDEST PUSH1 0x1 DUP2 DUP2 SHR SWAP1 DUP3 AND DUP1 PUSH2 0x7B7 JUMPI PUSH1 0x7F DUP3 AND SWAP2 POP JUMPDEST PUSH1 0x20 DUP3 LT DUP2 SUB PUSH2 0x7D5 JUMPI PUSH4 0x4E487B71 PUSH1 0xE0 SHL PUSH0 MSTORE PUSH1 0x22 PUSH1 0x4 MSTORE PUSH1 0x24 PUSH0 REVERT JUMPDEST POP SWAP2 SWAP1 POP JUMP JUMPDEST PUSH1 0x20 DUP1 DUP3 MSTORE PUSH1 0x2A SWAP1 DUP3 ADD MSTORE PUSH32 0x4E6F206175746F72697A61646F3A20736F6C6F20656C2073697374656D612064 PUSH1 0x40 DUP3 ADD MSTORE PUSH10 0x32903B37BA30B1B4B7B7 PUSH1 0xB1 SHL PUSH1 0x60 DUP3 ADD MSTORE PUSH1 0x80 ADD SWAP1 JUMP JUMPDEST DUP1 DUP3 ADD DUP1 DUP3 GT ISZERO PUSH2 0x29B JUMPI PUSH4 0x4E487B71 PUSH1 0xE0 SHL PUSH0 MSTORE PUSH1 0x11 PUSH1 0x4 MSTORE PUSH1 0x24 PUSH0 REVERT INVALID LOG2 PUSH5 0x6970667358 0x22 SLT KECCAK256 0xC8 0xAD EXTSTATICCALL 0xED PUSH6 0x1297E45261E9 0xE9 DUP5 DUP8 RJUMP 0x266C 0xCD PUSH22 0x226D91C9EB754095A73C67F3AF64736F6C634300081F STOP CALLER "
		},
		"gasEstimates": {
			"creation": {
				"codeDepositCost": "1785000",
				"executionCost": "infinite",
				"totalCost": "infinite"
			},
			"external": {
				"addParticipant()": "infinite",
				"addProposal(string,string,uint256,address)": "infinite",
				"buyTokens()": "infinite",
				"cancelProposal(uint256)": "infinite",
				"closeVoting()": "infinite",
				"getApprovedProposals()": "infinite",
				"getERC20()": "2342",
				"getPendingProposals()": "infinite",
				"getProposalInfo(uint256)": "infinite",
				"getSignalingProposals()": "infinite",
				"isParticipant(address)": "2661",
				"numParticipants()": "2428",
				"numPendingProposals()": "2360",
				"openVoting()": "51934",
				"owner()": "2424",
				"proposals(uint256)": "infinite",
				"removeParticipant()": "51008",
				"sellTokens(uint256)": "infinite",
				"stake(uint256,uint256)": "infinite",
				"token()": "2446",
				"tokenPriceWei()": "2340",
				"totalBudget()": "2316",
				"userVotesInProposal(uint256,address)": "2681",
				"votingOpen()": "2376"
			},
			"internal": {
				"_checkAndExecuteProposal(uint256)": "infinite",
				"_getProposalsByStatus(enum QuadraticVoting.ProposalStatus,bool)": "infinite",
				"_returnTokensToVoters(uint256)": "infinite"
			}
		},
		"methodIdentifiers": {
			"addParticipant()": "fffefd91",
			"addProposal(string,string,uint256,address)": "9ab3f7a6",
			"buyTokens()": "d0febe4c",
			"cancelProposal(uint256)": "e0a8f6f5",
			"closeVoting()": "c631b292",
			"getApprovedProposals()": "3ac0feac",
			"getERC20()": "4ece90a8",
			"getPendingProposals()": "a80db6fc",
			"getProposalInfo(uint256)": "bc903cb8",
			"getSignalingProposals()": "8e08a50b",
			"isParticipant(address)": "929066f5",
			"numParticipants()": "4e76a846",
			"numPendingProposals()": "da52a95f",
			"openVoting()": "affc0670",
			"owner()": "8da5cb5b",
			"proposals(uint256)": "013cf08b",
			"removeParticipant()": "3d571e97",
			"sellTokens(uint256)": "6c11bcd3",
			"stake(uint256,uint256)": "7b0472f0",
			"token()": "fc0c546a",
			"tokenPriceWei()": "05d0f15b",
			"totalBudget()": "c78da39a",
			"userVotesInProposal(uint256,address)": "2e60338a",
			"votingOpen()": "a95824b4"
		}
	},
	"abi": [
		{
			"inputs": [
				{
					"internalType": "uint256",
					"name": "_tokenPriceWei",
					"type": "uint256"
				},
				{
					"internalType": "uint256",
					"name": "",
					"type": "uint256"
				}
			],
			"stateMutability": "nonpayable",
			"type": "constructor"
		},
		{
			"anonymous": false,
			"inputs": [
				{
					"indexed": true,
					"internalType": "address",
					"name": "participant",
					"type": "address"
				},
				{
					"indexed": false,
					"internalType": "uint256",
					"name": "tokensBought",
					"type": "uint256"
				}
			],
			"name": "ParticipantAdded",
			"type": "event"
		},
		{
			"anonymous": false,
			"inputs": [
				{
					"indexed": true,
					"internalType": "uint256",
					"name": "id",
					"type": "uint256"
				},
				{
					"indexed": false,
					"internalType": "uint256",
					"name": "fundsSent",
					"type": "uint256"
				}
			],
			"name": "ProposalApproved",
			"type": "event"
		},
		{
			"anonymous": false,
			"inputs": [
				{
					"indexed": true,
					"internalType": "uint256",
					"name": "id",
					"type": "uint256"
				},
				{
					"indexed": false,
					"internalType": "string",
					"name": "title",
					"type": "string"
				},
				{
					"indexed": false,
					"internalType": "uint256",
					"name": "budget",
					"type": "uint256"
				}
			],
			"name": "ProposalCreated",
			"type": "event"
		},
		{
			"anonymous": false,
			"inputs": [
				{
					"indexed": true,
					"internalType": "uint256",
					"name": "proposalId",
					"type": "uint256"
				},
				{
					"indexed": true,
					"internalType": "address",
					"name": "voter",
					"type": "address"
				},
				{
					"indexed": false,
					"internalType": "uint256",
					"name": "votes",
					"type": "uint256"
				},
				{
					"indexed": false,
					"internalType": "uint256",
					"name": "cost",
					"type": "uint256"
				}
			],
			"name": "VoteCast",
			"type": "event"
		},
		{
			"anonymous": false,
			"inputs": [
				{
					"indexed": false,
					"internalType": "uint256",
					"name": "initialBudget",
					"type": "uint256"
				}
			],
			"name": "VotingOpened",
			"type": "event"
		},
		{
			"inputs": [],
			"name": "addParticipant",
			"outputs": [],
			"stateMutability": "payable",
			"type": "function"
		},
		{
			"inputs": [
				{
					"internalType": "string",
					"name": "_title",
					"type": "string"
				},
				{
					"internalType": "string",
					"name": "_desc",
					"type": "string"
				},
				{
					"internalType": "uint256",
					"name": "_budget",
					"type": "uint256"
				},
				{
					"internalType": "address",
					"name": "_exec",
					"type": "address"
				}
			],
			"name": "addProposal",
			"outputs": [
				{
					"internalType": "uint256",
					"name": "",
					"type": "uint256"
				}
			],
			"stateMutability": "nonpayable",
			"type": "function"
		},
		{
			"inputs": [],
			"name": "buyTokens",
			"outputs": [],
			"stateMutability": "payable",
			"type": "function"
		},
		{
			"inputs": [
				{
					"internalType": "uint256",
					"name": "_id",
					"type": "uint256"
				}
			],
			"name": "cancelProposal",
			"outputs": [],
			"stateMutability": "nonpayable",
			"type": "function"
		},
		{
			"inputs": [],
			"name": "closeVoting",
			"outputs": [],
			"stateMutability": "nonpayable",
			"type": "function"
		},
		{
			"inputs": [],
			"name": "getApprovedProposals",
			"outputs": [
				{
					"internalType": "uint256[]",
					"name": "",
					"type": "uint256[]"
				}
			],
			"stateMutability": "view",
			"type": "function"
		},
		{
			"inputs": [],
			"name": "getERC20",
			"outputs": [
				{
					"internalType": "address",
					"name": "",
					"type": "address"
				}
			],
			"stateMutability": "view",
			"type": "function"
		},
		{
			"inputs": [],
			"name": "getPendingProposals",
			"outputs": [
				{
					"internalType": "uint256[]",
					"name": "",
					"type": "uint256[]"
				}
			],
			"stateMutability": "view",
			"type": "function"
		},
		{
			"inputs": [
				{
					"internalType": "uint256",
					"name": "_id",
					"type": "uint256"
				}
			],
			"name": "getProposalInfo",
			"outputs": [
				{
					"internalType": "string",
					"name": "title",
					"type": "string"
				},
				{
					"internalType": "string",
					"name": "description",
					"type": "string"
				},
				{
					"internalType": "uint256",
					"name": "budget",
					"type": "uint256"
				},
				{
					"internalType": "address",
					"name": "executable",
					"type": "address"
				},
				{
					"internalType": "enum QuadraticVoting.ProposalStatus",
					"name": "status",
					"type": "uint8"
				},
				{
					"internalType": "uint256",
					"name": "votes",
					"type": "uint256"
				}
			],
			"stateMutability": "view",
			"type": "function"
		},
		{
			"inputs": [],
			"name": "getSignalingProposals",
			"outputs": [
				{
					"internalType": "uint256[]",
					"name": "",
					"type": "uint256[]"
				}
			],
			"stateMutability": "view",
			"type": "function"
		},
		{
			"inputs": [
				{
					"internalType": "address",
					"name": "",
					"type": "address"
				}
			],
			"name": "isParticipant",
			"outputs": [
				{
					"internalType": "bool",
					"name": "",
					"type": "bool"
				}
			],
			"stateMutability": "view",
			"type": "function"
		},
		{
			"inputs": [],
			"name": "numParticipants",
			"outputs": [
				{
					"internalType": "uint256",
					"name": "",
					"type": "uint256"
				}
			],
			"stateMutability": "view",
			"type": "function"
		},
		{
			"inputs": [],
			"name": "numPendingProposals",
			"outputs": [
				{
					"internalType": "uint256",
					"name": "",
					"type": "uint256"
				}
			],
			"stateMutability": "view",
			"type": "function"
		},
		{
			"inputs": [],
			"name": "openVoting",
			"outputs": [],
			"stateMutability": "payable",
			"type": "function"
		},
		{
			"inputs": [],
			"name": "owner",
			"outputs": [
				{
					"internalType": "address",
					"name": "",
					"type": "address"
				}
			],
			"stateMutability": "view",
			"type": "function"
		},
		{
			"inputs": [
				{
					"internalType": "uint256",
					"name": "",
					"type": "uint256"
				}
			],
			"name": "proposals",
			"outputs": [
				{
					"internalType": "string",
					"name": "title",
					"type": "string"
				},
				{
					"internalType": "string",
					"name": "description",
					"type": "string"
				},
				{
					"internalType": "uint256",
					"name": "requiredBudget",
					"type": "uint256"
				},
				{
					"internalType": "address",
					"name": "executableContract",
					"type": "address"
				},
				{
					"internalType": "enum QuadraticVoting.ProposalStatus",
					"name": "status",
					"type": "uint8"
				},
				{
					"internalType": "uint256",
					"name": "totalVotes",
					"type": "uint256"
				},
				{
					"internalType": "uint256",
					"name": "totalTokensStaked",
					"type": "uint256"
				},
				{
					"internalType": "address",
					"name": "creator",
					"type": "address"
				},
				{
					"internalType": "bool",
					"name": "isSignaling",
					"type": "bool"
				}
			],
			"stateMutability": "view",
			"type": "function"
		},
		{
			"inputs": [],
			"name": "removeParticipant",
			"outputs": [],
			"stateMutability": "nonpayable",
			"type": "function"
		},
		{
			"inputs": [
				{
					"internalType": "uint256",
					"name": "_amount",
					"type": "uint256"
				}
			],
			"name": "sellTokens",
			"outputs": [],
			"stateMutability": "nonpayable",
			"type": "function"
		},
		{
			"inputs": [
				{
					"internalType": "uint256",
					"name": "_propId",
					"type": "uint256"
				},
				{
					"internalType": "uint256",
					"name": "_numVotes",
					"type": "uint256"
				}
			],
			"name": "stake",
			"outputs": [],
			"stateMutability": "nonpayable",
			"type": "function"
		},
		{
			"inputs": [],
			"name": "token",
			"outputs": [
				{
					"internalType": "contract GovernanceToken",
					"name": "",
					"type": "address"
				}
			],
			"stateMutability": "view",
			"type": "function"
		},
		{
			"inputs": [],
			"name": "tokenPriceWei",
			"outputs": [
				{
					"internalType": "uint256",
					"name": "",
					"type": "uint256"
				}
			],
			"stateMutability": "view",
			"type": "function"
		},
		{
			"inputs": [],
			"name": "totalBudget",
			"outputs": [
				{
					"internalType": "uint256",
					"name": "",
					"type": "uint256"
				}
			],
			"stateMutability": "view",
			"type": "function"
		},
		{
			"inputs": [
				{
					"internalType": "uint256",
					"name": "",
					"type": "uint256"
				},
				{
					"internalType": "address",
					"name": "",
					"type": "address"
				}
			],
			"name": "userVotesInProposal",
			"outputs": [
				{
					"internalType": "uint256",
					"name": "",
					"type": "uint256"
				}
			],
			"stateMutability": "view",
			"type": "function"
		},
		{
			"inputs": [],
			"name": "votingOpen",
			"outputs": [
				{
					"internalType": "bool",
					"name": "",
					"type": "bool"
				}
			],
			"stateMutability": "view",
			"type": "function"
		}
	]
}