{
	"data": {
		"bytecode": {
			"linkReferences": {},
			"object": "608060405234801561000f575f5ffd5b5060405161291c38038061291c83398101604081905261002e916100da565b5f80546001600160a01b031916331790556002829055604051610050906100cd565b6040808252600990820152682220a7902a37b5b2b760b91b60608201526080602082018190526003908201526211159560ea1b60a082015260c001604051809103905ff0801580156100a4573d5f5f3e3d5ffd5b50600180546001600160a01b0319166001600160a01b0392909216919091179055506100fc9050565b610b2d80611def83390190565b5f5f604083850312156100eb575f5ffd5b505080516020909101519092909150565b611ce6806101095f395ff3fe608060405260043610610110575f3560e01c80638da5cb5b1161009d578063c78da39a11610062578063c78da39a146102fe578063d0febe4c14610313578063da52a95f1461031b578063fc0c546a14610330578063fffefd911461034f575f5ffd5b80638da5cb5b1461026d578063929066f51461028b578063a95824b4146102c9578063affc0670146102e2578063c631b292146102ea575f5ffd5b80634ece90a8116100e35780634ece90a8146101be578063649c649c146101ef5780636c11bcd3146102105780637b0472f01461022f57806384f282391461024e575f5ffd5b8063013cf08b1461011457806305d0f15b146101505780632e60338a146101735780634e76a846146101a9575b5f5ffd5b34801561011f575f5ffd5b5061013361012e366004611737565b610357565b604051610147989796959493929190611790565b60405180910390f35b34801561015b575f5ffd5b5061016560025481565b604051908152602001610147565b34801561017e575f5ffd5b5061016561018d366004611823565b600960209081525f928352604080842090915290825290205481565b3480156101b4575f5ffd5b5061016560055481565b3480156101c9575f5ffd5b506001546001600160a01b03165b6040516001600160a01b039091168152602001610147565b3480156101fa575f5ffd5b5061020e61020936600461184d565b610432565b005b34801561021b575f5ffd5b5061020e61022a366004611737565b61064e565b34801561023a575f5ffd5b5061020e61024936600461184d565b6107fb565b348015610259575f5ffd5b50610165610268366004611881565b610a92565b348015610278575f5ffd5b505f546101d7906001600160a01b031681565b348015610296575f5ffd5b506102b96102a536600461194a565b600b6020525f908152604090205460ff1681565b6040519015158152602001610147565b3480156102d4575f5ffd5b506004546102b99060ff1681565b61020e610d25565b3480156102f5575f5ffd5b5061020e610dd9565b348015610309575f5ffd5b5061016560035481565b61020e61105f565b348015610326575f5ffd5b5061016560065481565b34801561033b575f5ffd5b506001546101d7906001600160a01b031681565b61020e611124565b60086020525f908152604090208054819061037190611963565b80601f016020809104026020016040519081016040528092919081815260200182805461039d90611963565b80156103e85780601f106103bf576101008083540402835291602001916103e8565b820191905f5260205f20905b8154815290600101906020018083116103cb57829003601f168201915b5050506001840154600285015460038601546004870154600590970154959692956001600160a01b03808416965060ff600160a01b94859004811696509294939082169291041688565b5f82815260086020526040812090600282810154600160a01b900460ff16908111156104605761046061177c565b146104a15760405162461bcd60e51b815260206004820152600c60248201526b4e6f2070656e6469656e746560a01b60448201526064015b60405180910390fd5b5f8381526009602090815260408083203384529091529020548211156104ff5760405162461bcd60e51b8152602060048201526013602482015272566f746f7320696e737566696369656e74657360681b6044820152606401610498565b5f8381526009602090815260408083203384529091528120549061052384836119af565b90505f61053082806119c2565b61053a84806119c2565b61054491906119af565b5f878152600960209081526040808320338452909152812084905560038601805492935087929091906105789084906119af565b9250508190555080846004015f82825461059291906119af565b909155505060015460405163a9059cbb60e01b8152336004820152602481018390526001600160a01b039091169063a9059cbb906044016020604051808303815f875af11580156105e5573d5f5f3e3d5ffd5b505050506040513d601f19601f8201168201806040525081019061060991906119d9565b6106465760405162461bcd60e51b815260206004820152600e60248201526d22b93937b9103a3930b739b332b960911b6044820152606401610498565b505050505050565b6001546040516370a0823160e01b815233600482015282916001600160a01b0316906370a0823190602401602060405180830381865afa158015610694573d5f5f3e3d5ffd5b505050506040513d601f19601f820116820180604052508101906106b891906119ff565b10156106fd5760405162461bcd60e51b8152602060048201526014602482015273466f6e646f7320696e737566696369656e74657360601b6044820152606401610498565b5f6002548261070c91906119c2565b600154604051632770a7eb60e21b8152336004820152602481018590529192506001600160a01b031690639dc29fac906044015f604051808303815f87803b158015610756575f5ffd5b505af1158015610768573d5f5f3e3d5ffd5b50506040515f925033915083908381818185875af1925050503d805f81146107ab576040519150601f19603f3d011682016040523d82523d5f602084013e6107b0565b606091505b50509050806107f65760405162461bcd60e51b81526020600482015260126024820152714572726f7220656e207265656d626f6c736f60701b6044820152606401610498565b505050565b60045460ff166108405760405162461bcd60e51b815260206004820152601060248201526f566f746163696f6e206365727261646160801b6044820152606401610498565b5f82815260086020526040812090600282810154600160a01b900460ff169081111561086e5761086e61177c565b146108b15760405162461bcd60e51b815260206004820152601360248201527250726f707565737461206e6f2061637469766160681b6044820152606401610498565b5f838152600960209081526040808320338452909152812054906108d58483611a16565b90505f6108e3600284611b0c565b6108ee600284611b0c565b6108f891906119af565b6001546040516323b872dd60e01b8152336004820152306024820152604481018390529192506001600160a01b0316906323b872dd906064016020604051808303815f875af115801561094d573d5f5f3e3d5ffd5b505050506040513d601f19601f8201168201806040525081019061097191906119d9565b6109b65760405162461bcd60e51b815260206004820152601660248201527546616c6c6f20656e207472616e73666572656e63696160501b6044820152606401610498565b825f036109eb575f868152600a602090815260408220805460018101825590835291200180546001600160a01b031916331790555b5f8681526009602090815260408083203384529091528120839055600385018054879290610a1a908490611a16565b9250508190555080846004015f828254610a349190611a16565b90915550506040805186815260208101839052339188917f0271f53eebbe20450d9578f28ec279231556c34545b30e2278d754ffd39cd63c910160405180910390a36005840154600160a01b900460ff16610646576106468661129d565b6004545f9060ff16610ae65760405162461bcd60e51b815260206004820152601b60248201527f4c6120766f746163696f6e206e6f2065737461206162696572746100000000006044820152606401610498565b335f908152600b602052604090205460ff16610b395760405162461bcd60e51b8152602060048201526012602482015271536f6c6f207061727469636970616e74657360701b6044820152606401610498565b610b536001600160a01b03831663986cc31160e01b61154f565b610b975760405162461bcd60e51b8152602060048201526015602482015274496e74657266617a206e6f20736f706f727461646160581b6044820152606401610498565b600780545f9182610ba783611b1a565b90915550604080516101008101825287815260208082018890526001600160a01b038716828401525f606083018190526080830181905260a083018190523360c0840152881560e08401819052858252600890925292909220815193945091929091908190610c169082611b76565b50602082015160018201556040820151600280830180546001600160a01b039093166001600160a01b031984168117825560608601519391926001600160a81b03199092161790600160a01b908490811115610c7457610c7461177c565b02179055506080820151600382015560a0820151600482015560c08201516005909101805460e0909301511515600160a01b026001600160a81b03199093166001600160a01b039092169190911791909117905580610ce25760068054905f610cdc83611b1a565b91905055505b817ff5dc0da9afa6d080780a49fd8c680f03d2ddf3c067cd6d0c85360c096644d2d38787604051610d14929190611c31565b60405180910390a250949350505050565b5f546001600160a01b03163314610d7e5760405162461bcd60e51b815260206004820152601b60248201527f536f6c6f20656c2063726561646f7220707565646520616272697200000000006044820152606401610498565b6004805460ff19166001179055600380543491905f90610d9f908490611a16565b90915550506040513481527fe0a358d4a766346f1ece85d22e2197435d610d9638874a0fd6746e58a1b1f58a9060200160405180910390a1565b5f546001600160a01b03163314610e1f5760405162461bcd60e51b815260206004820152600a60248201526929b7b6379037bbb732b960b11b6044820152606401610498565b60045460ff16610e5e5760405162461bcd60e51b815260206004820152600a6024820152695961206365727261646160b01b6044820152606401610498565b6004805460ff191690555f5b600754811015610fb7575f8181526008602052604090206005810154600160a01b900460ff1615610f565760028101546003820154600483015460405160248101869052604481019290925260648201525f916001600160a01b031690620186a09060840160408051601f198184030181529181526020820180516001600160e01b031663986cc31160e01b17905251610f049190611c52565b5f604051808303815f8787f1925050503d805f8114610f3e576040519150601f19603f3d011682016040523d82523d5f602084013e610f43565b606091505b50509050610f5083611573565b50610fae565b5f600282810154600160a01b900460ff1690811115610f7757610f7761177c565b03610fae5760028101805460ff60a01b1916600160a11b17905560068054905f610fa083611c68565b9190505550610fae82611573565b50600101610e6a565b50600380545f909155801561105c575f80546040516001600160a01b039091169083908381818185875af1925050503d805f8114611010576040519150601f19603f3d011682016040523d82523d5f602084013e611015565b606091505b505090508061105a5760405162461bcd60e51b815260206004820152601160248201527022b93937b9103634b8bab4b230b1b4b7b760791b6044820152606401610498565b505b50565b335f908152600b602052604090205460ff166110b25760405162461bcd60e51b8152602060048201526012602482015271496e7363726962617365207072696d65726f60701b6044820152606401610498565b5f600254346110c19190611c7d565b6001546040516340c10f1960e01b8152336004820152602481018390529192506001600160a01b0316906340c10f19906044015f604051808303815f87803b15801561110b575f5ffd5b505af115801561111d573d5f5f3e3d5ffd5b5050505050565b335f908152600b602052604090205460ff16156111785760405162461bcd60e51b81526020600482015260126024820152715961206573207061727469636970616e746560701b6044820152606401610498565b6002543410156111ca5760405162461bcd60e51b815260206004820152601e60248201527f4465626520636f6d7072617220616c206d656e6f7320756e20746f6b656e00006044820152606401610498565b335f908152600b60205260408120805460ff1916600117905560058054916111f183611b1a565b91905055505f600254346112059190611c7d565b6001546040516340c10f1960e01b8152336004820152602481018390529192506001600160a01b0316906340c10f19906044015f604051808303815f87803b15801561124f575f5ffd5b505af1158015611261573d5f5f3e3d5ffd5b50506040518381523392507f287ab65235aa9a0baeed5b973fda48c77ebdc6f3dd931cfda1c082c0aecc1e73915060200160405180910390a250565b5f81815260086020526040812060035460018201549192916112c090600a6119c2565b6112ca9190611c7d565b6112d5906002611a16565b90505f600a6006546005546112ea9190611a16565b6112f490846119c2565b6112fe9190611c7d565b90508083600301541180156113195750826001015460035410155b156115495760028301805460ff60a01b1916600160a01b17905560068054905f61134283611c68565b9190505550600254836004015461135991906119c2565b60035f8282546113699190611a16565b90915550506001830154600380545f906113849084906119af565b9091555050600154600484810154604051632770a7eb60e21b8152309281019290925260248201526001600160a01b0390911690639dc29fac906044015f604051808303815f87803b1580156113d8575f5ffd5b505af11580156113ea573d5f5f3e3d5ffd5b50505050600283015460018401546003850154600486015460405160248101899052604481019290925260648201525f926001600160a01b031691620186a09160840160408051601f198184030181529181526020820180516001600160e01b031663986cc31160e01b179052516114629190611c52565b5f60405180830381858888f193505050503d805f811461149d576040519150601f19603f3d011682016040523d82523d5f602084013e6114a2565b606091505b50509050806115095760405162461bcd60e51b815260206004820152602d60248201527f46616c6c6f20656e206c6120656a65637563696f6e2065787465726e6120646560448201526c206c612070726f70756573746160981b6064820152608401610498565b847fc6a4fd4a703d2a2fe3167ce7f6d62bf96458b7e55042cfaa85d5c7ef3ac56eea856001015460405161153f91815260200190565b60405180910390a2505b50505050565b5f61155983611691565b801561156a575061156a83836116df565b90505b92915050565b5f818152600a60205260408120905b81548110156107f6575f82828154811061159e5761159e611c9c565b5f9182526020808320909101548683526009825260408084206001600160a01b03909216808552919092529120549091508015611687575f6115e082806119c2565b5f8781526009602090815260408083206001600160a01b038089168552925280832092909255600154915163a9059cbb60e01b8152929350169063a9059cbb9061164490869085906004016001600160a01b03929092168252602082015260400190565b6020604051808303815f875af1158015611660573d5f5f3e3d5ffd5b505050506040513d601f19601f8201168201806040525081019061168491906119d9565b50505b5050600101611582565b5f6116a3826301ffc9a760e01b6116df565b156116d3575f806116bc846001600160e01b0319611703565b915091508180156116cb575080155b949350505050565b505f919050565b919050565b5f5f5f6116ec8585611703565b915091508180156116fa5750805b95945050505050565b6301ffc9a760e01b5f818152600483905290819060208260248188617530fa92505f511515601f3d11169150509250929050565b5f60208284031215611747575f5ffd5b5035919050565b5f81518084528060208401602086015e5f602082860101526020601f19601f83011685010191505092915050565b634e487b7160e01b5f52602160045260245ffd5b61010081525f6117a461010083018b61174e565b602083018a90526001600160a01b03891660408401529050600387106117d857634e487b7160e01b5f52602160045260245ffd5b6060820196909652608081019490945260a08401929092526001600160a01b031660c0830152151560e0909101529392505050565b80356001600160a01b03811681146116da575f5ffd5b5f5f60408385031215611834575f5ffd5b823591506118446020840161180d565b90509250929050565b5f5f6040838503121561185e575f5ffd5b50508035926020909101359150565b634e487b7160e01b5f52604160045260245ffd5b5f5f5f60608486031215611893575f5ffd5b833567ffffffffffffffff8111156118a9575f5ffd5b8401601f810186136118b9575f5ffd5b803567ffffffffffffffff8111156118d3576118d361186d565b604051601f8201601f19908116603f0116810167ffffffffffffffff811182821017156119025761190261186d565b604052818152828201602001881015611919575f5ffd5b816020840160208301375f60209282018301529450850135925061194190506040850161180d565b90509250925092565b5f6020828403121561195a575f5ffd5b61156a8261180d565b600181811c9082168061197757607f821691505b60208210810361199557634e487b7160e01b5f52602260045260245ffd5b50919050565b634e487b7160e01b5f52601160045260245ffd5b8181038181111561156d5761156d61199b565b808202811582820484141761156d5761156d61199b565b5f602082840312156119e9575f5ffd5b815180151581146119f8575f5ffd5b9392505050565b5f60208284031215611a0f575f5ffd5b5051919050565b8082018082111561156d5761156d61199b565b6001815b6001841115611a6457808504811115611a4857611a4861199b565b6001841615611a5657908102905b60019390931c928002611a2d565b935093915050565b5f82611a7a5750600161156d565b81611a8657505f61156d565b8160018114611a9c5760028114611aa657611ac2565b600191505061156d565b60ff841115611ab757611ab761199b565b50506001821b61156d565b5060208310610133831016604e8410600b8410161715611ae5575081810a61156d565b611af15f198484611a29565b805f1904821115611b0457611b0461199b565b029392505050565b5f61156a60ff841683611a6c565b5f60018201611b2b57611b2b61199b565b5060010190565b601f8211156107f657805f5260205f20601f840160051c81016020851015611b575750805b601f840160051c820191505b8181101561111d575f8155600101611b63565b815167ffffffffffffffff811115611b9057611b9061186d565b611ba481611b9e8454611963565b84611b32565b6020601f821160018114611bd6575f8315611bbf5750848201515b5f19600385901b1c1916600184901b17845561111d565b5f84815260208120601f198516915b82811015611c055787850151825560209485019460019092019101611be5565b5084821015611c2257868401515f19600387901b60f8161c191681555b50505050600190811b01905550565b604081525f611c43604083018561174e565b90508260208301529392505050565b5f82518060208501845e5f920191825250919050565b5f81611c7657611c7661199b565b505f190190565b5f82611c9757634e487b7160e01b5f52601260045260245ffd5b500490565b634e487b7160e01b5f52603260045260245ffdfea2646970667358221220153e156a4198aa436609a5c44477c273deab97c8ed2f2766dbee7af33041d30f64736f6c634300081f0033608060405234801561000f575f5ffd5b50604051610b2d380380610b2d83398101604081905261002e91610103565b8181600361003c83826101ec565b50600461004982826101ec565b5050600580546001600160a01b03191633179055506102a6915050565b634e487b7160e01b5f52604160045260245ffd5b5f82601f830112610089575f5ffd5b81516001600160401b038111156100a2576100a2610066565b604051601f8201601f19908116603f011681016001600160401b03811182821017156100d0576100d0610066565b6040528181528382016020018510156100e7575f5ffd5b8160208501602083015e5f918101602001919091529392505050565b5f5f60408385031215610114575f5ffd5b82516001600160401b03811115610129575f5ffd5b6101358582860161007a565b602085015190935090506001600160401b03811115610152575f5ffd5b61015e8582860161007a565b9150509250929050565b600181811c9082168061017c57607f821691505b60208210810361019a57634e487b7160e01b5f52602260045260245ffd5b50919050565b601f8211156101e757805f5260205f20601f840160051c810160208510156101c55750805b601f840160051c820191505b818110156101e4575f81556001016101d1565b50505b505050565b81516001600160401b0381111561020557610205610066565b610219816102138454610168565b846101a0565b6020601f82116001811461024b575f83156102345750848201515b5f19600385901b1c1916600184901b1784556101e4565b5f84815260208120601f198516915b8281101561027a578785015182556020948501946001909201910161025a565b508482101561029757868401515f19600387901b60f8161c191681555b50505050600190811b01905550565b61087a806102b35f395ff3fe608060405234801561000f575f5ffd5b50600436106100b1575f3560e01c806370a082311161006e57806370a082311461013f57806395d89b41146101675780639dc29fac1461016f578063a9059cbb14610182578063c1fc006a14610195578063dd62ed3e146101c0575f5ffd5b806306fdde03146100b5578063095ea7b3146100d357806318160ddd146100f657806323b872dd14610108578063313ce5671461011b57806340c10f191461012a575b5f5ffd5b6100bd6101f8565b6040516100ca91906106a0565b60405180910390f35b6100e66100e13660046106f0565b610288565b60405190151581526020016100ca565b6002545b6040519081526020016100ca565b6100e6610116366004610718565b6102a1565b604051601281526020016100ca565b61013d6101383660046106f0565b6102c4565b005b6100fa61014d366004610752565b6001600160a01b03165f9081526020819052604090205490565b6100bd610305565b61013d61017d3660046106f0565b610314565b6100e66101903660046106f0565b610348565b6005546101a8906001600160a01b031681565b6040516001600160a01b0390911681526020016100ca565b6100fa6101ce366004610772565b6001600160a01b039182165f90815260016020908152604080832093909416825291909152205490565b606060038054610207906107a3565b80601f0160208091040260200160405190810160405280929190818152602001828054610233906107a3565b801561027e5780601f106102555761010080835404028352916020019161027e565b820191905f5260205f20905b81548152906001019060200180831161026157829003601f168201915b5050505050905090565b5f33610295818585610355565b60019150505b92915050565b5f336102ae858285610367565b6102b98585856103e3565b506001949350505050565b6005546001600160a01b031633146102f75760405162461bcd60e51b81526004016102ee906107db565b60405180910390fd5b6103018282610440565b5050565b606060048054610207906107a3565b6005546001600160a01b0316331461033e5760405162461bcd60e51b81526004016102ee906107db565b6103018282610474565b5f336102958185856103e3565b61036283838360016104a8565b505050565b6001600160a01b038381165f908152600160209081526040808320938616835292905220545f198110156103dd57818110156103cf57604051637dc7a0d960e11b81526001600160a01b038416600482015260248101829052604481018390526064016102ee565b6103dd84848484035f6104a8565b50505050565b6001600160a01b03831661040c57604051634b637e8f60e11b81525f60048201526024016102ee565b6001600160a01b0382166104355760405163ec442f0560e01b81525f60048201526024016102ee565b61036283838361057a565b6001600160a01b0382166104695760405163ec442f0560e01b81525f60048201526024016102ee565b6103015f838361057a565b6001600160a01b03821661049d57604051634b637e8f60e11b81525f60048201526024016102ee565b610301825f8361057a565b6001600160a01b0384166104d15760405163e602df0560e01b81525f60048201526024016102ee565b6001600160a01b0383166104fa57604051634a1406b160e11b81525f60048201526024016102ee565b6001600160a01b038085165f90815260016020908152604080832093871683529290522082905580156103dd57826001600160a01b0316846001600160a01b03167f8c5be1e5ebec7d5bd14f71427d1e84f3dd0314c0f7b2291e5b200ac8c7c3b9258460405161056c91815260200190565b60405180910390a350505050565b6001600160a01b0383166105a4578060025f8282546105999190610825565b909155506106149050565b6001600160a01b0383165f90815260208190526040902054818110156105f65760405163391434e360e21b81526001600160a01b038516600482015260248101829052604481018390526064016102ee565b6001600160a01b0384165f9081526020819052604090209082900390555b6001600160a01b0382166106305760028054829003905561064e565b6001600160a01b0382165f9081526020819052604090208054820190555b816001600160a01b0316836001600160a01b03167fddf252ad1be2c89b69c2b068fc378daa952ba7f163c4a11628f55a4df523b3ef8360405161069391815260200190565b60405180910390a3505050565b602081525f82518060208401528060208501604085015e5f604082850101526040601f19601f83011684010191505092915050565b80356001600160a01b03811681146106eb575f5ffd5b919050565b5f5f60408385031215610701575f5ffd5b61070a836106d5565b946020939093013593505050565b5f5f5f6060848603121561072a575f5ffd5b610733846106d5565b9250610741602085016106d5565b929592945050506040919091013590565b5f60208284031215610762575f5ffd5b61076b826106d5565b9392505050565b5f5f60408385031215610783575f5ffd5b61078c836106d5565b915061079a602084016106d5565b90509250929050565b600181811c908216806107b757607f821691505b6020821081036107d557634e487b7160e01b5f52602260045260245ffd5b50919050565b6020808252602a908201527f4e6f206175746f72697a61646f3a20736f6c6f20656c2073697374656d61206460408201526932903b37ba30b1b4b7b760b11b606082015260800190565b8082018082111561029b57634e487b7160e01b5f52601160045260245ffdfea2646970667358221220c8adfbed651297e45261e9e98487e0266ccd75226d91c9eb754095a73c67f3af64736f6c634300081f0033",
			"opcodes": "PUSH1 0x80 PUSH1 0x40 MSTORE CALLVALUE DUP1 ISZERO PUSH2 0xF JUMPI PUSH0 PUSH0 REVERT JUMPDEST POP PUSH1 0x40 MLOAD PUSH2 0x291C CODESIZE SUB DUP1 PUSH2 0x291C DUP4 CODECOPY DUP2 ADD PUSH1 0x40 DUP2 SWAP1 MSTORE PUSH2 0x2E SWAP2 PUSH2 0xDA JUMP JUMPDEST PUSH0 DUP1 SLOAD PUSH1 0x1 PUSH1 0x1 PUSH1 0xA0 SHL SUB NOT AND CALLER OR SWAP1 SSTORE PUSH1 0x2 DUP3 SWAP1 SSTORE PUSH1 0x40 MLOAD PUSH2 0x50 SWAP1 PUSH2 0xCD JUMP JUMPDEST PUSH1 0x40 DUP1 DUP3 MSTORE PUSH1 0x9 SWAP1 DUP3 ADD MSTORE PUSH9 0x2220A7902A37B5B2B7 PUSH1 0xB9 SHL PUSH1 0x60 DUP3 ADD MSTORE PUSH1 0x80 PUSH1 0x20 DUP3 ADD DUP2 SWAP1 MSTORE PUSH1 0x3 SWAP1 DUP3 ADD MSTORE PUSH3 0x111595 PUSH1 0xEA SHL PUSH1 0xA0 DUP3 ADD MSTORE PUSH1 0xC0 ADD PUSH1 0x40 MLOAD DUP1 SWAP2 SUB SWAP1 PUSH0 CREATE DUP1 ISZERO DUP1 ISZERO PUSH2 0xA4 JUMPI RETURNDATASIZE PUSH0 PUSH0 RETURNDATACOPY RETURNDATASIZE PUSH0 REVERT JUMPDEST POP PUSH1 0x1 DUP1 SLOAD PUSH1 0x1 PUSH1 0x1 PUSH1 0xA0 SHL SUB NOT AND PUSH1 0x1 PUSH1 0x1 PUSH1 0xA0 SHL SUB SWAP3 SWAP1 SWAP3 AND SWAP2 SWAP1 SWAP2 OR SWAP1 SSTORE POP PUSH2 0xFC SWAP1 POP JUMP JUMPDEST PUSH2 0xB2D DUP1 PUSH2 0x1DEF DUP4 CODECOPY ADD SWAP1 JUMP JUMPDEST PUSH0 PUSH0 PUSH1 0x40 DUP4 DUP6 SUB SLT ISZERO PUSH2 0xEB JUMPI PUSH0 PUSH0 REVERT JUMPDEST POP POP DUP1 MLOAD PUSH1 0x20 SWAP1 SWAP2 ADD MLOAD SWAP1 SWAP3 SWAP1 SWAP2 POP JUMP JUMPDEST PUSH2 0x1CE6 DUP1 PUSH2 0x109 PUSH0 CODECOPY PUSH0 RETURN INVALID PUSH1 0x80 PUSH1 0x40 MSTORE PUSH1 0x4 CALLDATASIZE LT PUSH2 0x110 JUMPI PUSH0 CALLDATALOAD PUSH1 0xE0 SHR DUP1 PUSH4 0x8DA5CB5B GT PUSH2 0x9D JUMPI DUP1 PUSH4 0xC78DA39A GT PUSH2 0x62 JUMPI DUP1 PUSH4 0xC78DA39A EQ PUSH2 0x2FE JUMPI DUP1 PUSH4 0xD0FEBE4C EQ PUSH2 0x313 JUMPI DUP1 PUSH4 0xDA52A95F EQ PUSH2 0x31B JUMPI DUP1 PUSH4 0xFC0C546A EQ PUSH2 0x330 JUMPI DUP1 PUSH4 0xFFFEFD91 EQ PUSH2 0x34F JUMPI PUSH0 PUSH0 REVERT JUMPDEST DUP1 PUSH4 0x8DA5CB5B EQ PUSH2 0x26D JUMPI DUP1 PUSH4 0x929066F5 EQ PUSH2 0x28B JUMPI DUP1 PUSH4 0xA95824B4 EQ PUSH2 0x2C9 JUMPI DUP1 PUSH4 0xAFFC0670 EQ PUSH2 0x2E2 JUMPI DUP1 PUSH4 0xC631B292 EQ PUSH2 0x2EA JUMPI PUSH0 PUSH0 REVERT JUMPDEST DUP1 PUSH4 0x4ECE90A8 GT PUSH2 0xE3 JUMPI DUP1 PUSH4 0x4ECE90A8 EQ PUSH2 0x1BE JUMPI DUP1 PUSH4 0x649C649C EQ PUSH2 0x1EF JUMPI DUP1 PUSH4 0x6C11BCD3 EQ PUSH2 0x210 JUMPI DUP1 PUSH4 0x7B0472F0 EQ PUSH2 0x22F JUMPI DUP1 PUSH4 0x84F28239 EQ PUSH2 0x24E JUMPI PUSH0 PUSH0 REVERT JUMPDEST DUP1 PUSH4 0x13CF08B EQ PUSH2 0x114 JUMPI DUP1 PUSH4 0x5D0F15B EQ PUSH2 0x150 JUMPI DUP1 PUSH4 0x2E60338A EQ PUSH2 0x173 JUMPI DUP1 PUSH4 0x4E76A846 EQ PUSH2 0x1A9 JUMPI JUMPDEST PUSH0 PUSH0 REVERT JUMPDEST CALLVALUE DUP1 ISZERO PUSH2 0x11F JUMPI PUSH0 PUSH0 REVERT JUMPDEST POP PUSH2 0x133 PUSH2 0x12E CALLDATASIZE PUSH1 0x4 PUSH2 0x1737 JUMP JUMPDEST PUSH2 0x357 JUMP JUMPDEST PUSH1 0x40 MLOAD PUSH2 0x147 SWAP9 SWAP8 SWAP7 SWAP6 SWAP5 SWAP4 SWAP3 SWAP2 SWAP1 PUSH2 0x1790 JUMP JUMPDEST PUSH1 0x40 MLOAD DUP1 SWAP2 SUB SWAP1 RETURN JUMPDEST CALLVALUE DUP1 ISZERO PUSH2 0x15B JUMPI PUSH0 PUSH0 REVERT JUMPDEST POP PUSH2 0x165 PUSH1 0x2 SLOAD DUP2 JUMP JUMPDEST PUSH1 0x40 MLOAD SWAP1 DUP2 MSTORE PUSH1 0x20 ADD PUSH2 0x147 JUMP JUMPDEST CALLVALUE DUP1 ISZERO PUSH2 0x17E JUMPI PUSH0 PUSH0 REVERT JUMPDEST POP PUSH2 0x165 PUSH2 0x18D CALLDATASIZE PUSH1 0x4 PUSH2 0x1823 JUMP JUMPDEST PUSH1 0x9 PUSH1 0x20 SWAP1 DUP2 MSTORE PUSH0 SWAP3 DUP4 MSTORE PUSH1 0x40 DUP1 DUP5 KECCAK256 SWAP1 SWAP2 MSTORE SWAP1 DUP3 MSTORE SWAP1 KECCAK256 SLOAD DUP2 JUMP JUMPDEST CALLVALUE DUP1 ISZERO PUSH2 0x1B4 JUMPI PUSH0 PUSH0 REVERT JUMPDEST POP PUSH2 0x165 PUSH1 0x5 SLOAD DUP2 JUMP JUMPDEST CALLVALUE DUP1 ISZERO PUSH2 0x1C9 JUMPI PUSH0 PUSH0 REVERT JUMPDEST POP PUSH1 0x1 SLOAD PUSH1 0x1 PUSH1 0x1 PUSH1 0xA0 SHL SUB AND JUMPDEST PUSH1 0x40 MLOAD PUSH1 0x1 PUSH1 0x1 PUSH1 0xA0 SHL SUB SWAP1 SWAP2 AND DUP2 MSTORE PUSH1 0x20 ADD PUSH2 0x147 JUMP JUMPDEST CALLVALUE DUP1 ISZERO PUSH2 0x1FA JUMPI PUSH0 PUSH0 REVERT JUMPDEST POP PUSH2 0x20E PUSH2 0x209 CALLDATASIZE PUSH1 0x4 PUSH2 0x184D JUMP JUMPDEST PUSH2 0x432 JUMP JUMPDEST STOP JUMPDEST CALLVALUE DUP1 ISZERO PUSH2 0x21B JUMPI PUSH0 PUSH0 REVERT JUMPDEST POP PUSH2 0x20E PUSH2 0x22A CALLDATASIZE PUSH1 0x4 PUSH2 0x1737 JUMP JUMPDEST PUSH2 0x64E JUMP JUMPDEST CALLVALUE DUP1 ISZERO PUSH2 0x23A JUMPI PUSH0 PUSH0 REVERT JUMPDEST POP PUSH2 0x20E PUSH2 0x249 CALLDATASIZE PUSH1 0x4 PUSH2 0x184D JUMP JUMPDEST PUSH2 0x7FB JUMP JUMPDEST CALLVALUE DUP1 ISZERO PUSH2 0x259 JUMPI PUSH0 PUSH0 REVERT JUMPDEST POP PUSH2 0x165 PUSH2 0x268 CALLDATASIZE PUSH1 0x4 PUSH2 0x1881 JUMP JUMPDEST PUSH2 0xA92 JUMP JUMPDEST CALLVALUE DUP1 ISZERO PUSH2 0x278 JUMPI PUSH0 PUSH0 REVERT JUMPDEST POP PUSH0 SLOAD PUSH2 0x1D7 SWAP1 PUSH1 0x1 PUSH1 0x1 PUSH1 0xA0 SHL SUB AND DUP2 JUMP JUMPDEST CALLVALUE DUP1 ISZERO PUSH2 0x296 JUMPI PUSH0 PUSH0 REVERT JUMPDEST POP PUSH2 0x2B9 PUSH2 0x2A5 CALLDATASIZE PUSH1 0x4 PUSH2 0x194A JUMP JUMPDEST PUSH1 0xB PUSH1 0x20 MSTORE PUSH0 SWAP1 DUP2 MSTORE PUSH1 0x40 SWAP1 KECCAK256 SLOAD PUSH1 0xFF AND DUP2 JUMP JUMPDEST PUSH1 0x40 MLOAD SWAP1 ISZERO ISZERO DUP2 MSTORE PUSH1 0x20 ADD PUSH2 0x147 JUMP JUMPDEST CALLVALUE DUP1 ISZERO PUSH2 0x2D4 JUMPI PUSH0 PUSH0 REVERT JUMPDEST POP PUSH1 0x4 SLOAD PUSH2 0x2B9 SWAP1 PUSH1 0xFF AND DUP2 JUMP JUMPDEST PUSH2 0x20E PUSH2 0xD25 JUMP JUMPDEST CALLVALUE DUP1 ISZERO PUSH2 0x2F5 JUMPI PUSH0 PUSH0 REVERT JUMPDEST POP PUSH2 0x20E PUSH2 0xDD9 JUMP JUMPDEST CALLVALUE DUP1 ISZERO PUSH2 0x309 JUMPI PUSH0 PUSH0 REVERT JUMPDEST POP PUSH2 0x165 PUSH1 0x3 SLOAD DUP2 JUMP JUMPDEST PUSH2 0x20E PUSH2 0x105F JUMP JUMPDEST CALLVALUE DUP1 ISZERO PUSH2 0x326 JUMPI PUSH0 PUSH0 REVERT JUMPDEST POP PUSH2 0x165 PUSH1 0x6 SLOAD DUP2 JUMP JUMPDEST CALLVALUE DUP1 ISZERO PUSH2 0x33B JUMPI PUSH0 PUSH0 REVERT JUMPDEST POP PUSH1 0x1 SLOAD PUSH2 0x1D7 SWAP1 PUSH1 0x1 PUSH1 0x1 PUSH1 0xA0 SHL SUB AND DUP2 JUMP JUMPDEST PUSH2 0x20E PUSH2 0x1124 JUMP JUMPDEST PUSH1 0x8 PUSH1 0x20 MSTORE PUSH0 SWAP1 DUP2 MSTORE PUSH1 0x40 SWAP1 KECCAK256 DUP1 SLOAD DUP2 SWAP1 PUSH2 0x371 SWAP1 PUSH2 0x1963 JUMP JUMPDEST DUP1 PUSH1 0x1F ADD PUSH1 0x20 DUP1 SWAP2 DIV MUL PUSH1 0x20 ADD PUSH1 0x40 MLOAD SWAP1 DUP2 ADD PUSH1 0x40 MSTORE DUP1 SWAP3 SWAP2 SWAP1 DUP2 DUP2 MSTORE PUSH1 0x20 ADD DUP3 DUP1 SLOAD PUSH2 0x39D SWAP1 PUSH2 0x1963 JUMP JUMPDEST DUP1 ISZERO PUSH2 0x3E8 JUMPI DUP1 PUSH1 0x1F LT PUSH2 0x3BF JUMPI PUSH2 0x100 DUP1 DUP4 SLOAD DIV MUL DUP4 MSTORE SWAP2 PUSH1 0x20 ADD SWAP2 PUSH2 0x3E8 JUMP JUMPDEST DUP3 ADD SWAP2 SWAP1 PUSH0 MSTORE PUSH1 0x20 PUSH0 KECCAK256 SWAP1 JUMPDEST DUP2 SLOAD DUP2 MSTORE SWAP1 PUSH1 0x1 ADD SWAP1 PUSH1 0x20 ADD DUP1 DUP4 GT PUSH2 0x3CB JUMPI DUP3 SWAP1 SUB PUSH1 0x1F AND DUP3 ADD SWAP2 JUMPDEST POP POP POP PUSH1 0x1 DUP5 ADD SLOAD PUSH1 0x2 DUP6 ADD SLOAD PUSH1 0x3 DUP7 ADD SLOAD PUSH1 0x4 DUP8 ADD SLOAD PUSH1 0x5 SWAP1 SWAP8 ADD SLOAD SWAP6 SWAP7 SWAP3 SWAP6 PUSH1 0x1 PUSH1 0x1 PUSH1 0xA0 SHL SUB DUP1 DUP5 AND SWAP7 POP PUSH1 0xFF PUSH1 0x1 PUSH1 0xA0 SHL SWAP5 DUP6 SWAP1 DIV DUP2 AND SWAP7 POP SWAP3 SWAP5 SWAP4 SWAP1 DUP3 AND SWAP3 SWAP2 DIV AND DUP9 JUMP JUMPDEST PUSH0 DUP3 DUP2 MSTORE PUSH1 0x8 PUSH1 0x20 MSTORE PUSH1 0x40 DUP2 KECCAK256 SWAP1 PUSH1 0x2 DUP3 DUP2 ADD SLOAD PUSH1 0x1 PUSH1 0xA0 SHL SWAP1 DIV PUSH1 0xFF AND SWAP1 DUP2 GT ISZERO PUSH2 0x460 JUMPI PUSH2 0x460 PUSH2 0x177C JUMP JUMPDEST EQ PUSH2 0x4A1 JUMPI PUSH1 0x40 MLOAD PUSH3 0x461BCD PUSH1 0xE5 SHL DUP2 MSTORE PUSH1 0x20 PUSH1 0x4 DUP3 ADD MSTORE PUSH1 0xC PUSH1 0x24 DUP3 ADD MSTORE PUSH12 0x4E6F2070656E6469656E7465 PUSH1 0xA0 SHL PUSH1 0x44 DUP3 ADD MSTORE PUSH1 0x64 ADD JUMPDEST PUSH1 0x40 MLOAD DUP1 SWAP2 SUB SWAP1 REVERT JUMPDEST PUSH0 DUP4 DUP2 MSTORE PUSH1 0x9 PUSH1 0x20 SWAP1 DUP2 MSTORE PUSH1 0x40 DUP1 DUP4 KECCAK256 CALLER DUP5 MSTORE SWAP1 SWAP2 MSTORE SWAP1 KECCAK256 SLOAD DUP3 GT ISZERO PUSH2 0x4FF JUMPI PUSH1 0x40 MLOAD PUSH3 0x461BCD PUSH1 0xE5 SHL DUP2 MSTORE PUSH1 0x20 PUSH1 0x4 DUP3 ADD MSTORE PUSH1 0x13 PUSH1 0x24 DUP3 ADD MSTORE PUSH19 0x566F746F7320696E737566696369656E746573 PUSH1 0x68 SHL PUSH1 0x44 DUP3 ADD MSTORE PUSH1 0x64 ADD PUSH2 0x498 JUMP JUMPDEST PUSH0 DUP4 DUP2 MSTORE PUSH1 0x9 PUSH1 0x20 SWAP1 DUP2 MSTORE PUSH1 0x40 DUP1 DUP4 KECCAK256 CALLER DUP5 MSTORE SWAP1 SWAP2 MSTORE DUP2 KECCAK256 SLOAD SWAP1 PUSH2 0x523 DUP5 DUP4 PUSH2 0x19AF JUMP JUMPDEST SWAP1 POP PUSH0 PUSH2 0x530 DUP3 DUP1 PUSH2 0x19C2 JUMP JUMPDEST PUSH2 0x53A DUP5 DUP1 PUSH2 0x19C2 JUMP JUMPDEST PUSH2 0x544 SWAP2 SWAP1 PUSH2 0x19AF JUMP JUMPDEST PUSH0 DUP8 DUP2 MSTORE PUSH1 0x9 PUSH1 0x20 SWAP1 DUP2 MSTORE PUSH1 0x40 DUP1 DUP4 KECCAK256 CALLER DUP5 MSTORE SWAP1 SWAP2 MSTORE DUP2 KECCAK256 DUP5 SWAP1 SSTORE PUSH1 0x3 DUP7 ADD DUP1 SLOAD SWAP3 SWAP4 POP DUP8 SWAP3 SWAP1 SWAP2 SWAP1 PUSH2 0x578 SWAP1 DUP5 SWAP1 PUSH2 0x19AF JUMP JUMPDEST SWAP3 POP POP DUP2 SWAP1 SSTORE POP DUP1 DUP5 PUSH1 0x4 ADD PUSH0 DUP3 DUP3 SLOAD PUSH2 0x592 SWAP2 SWAP1 PUSH2 0x19AF JUMP JUMPDEST SWAP1 SWAP2 SSTORE POP POP PUSH1 0x1 SLOAD PUSH1 0x40 MLOAD PUSH4 0xA9059CBB PUSH1 0xE0 SHL DUP2 MSTORE CALLER PUSH1 0x4 DUP3 ADD MSTORE PUSH1 0x24 DUP2 ADD DUP4 SWAP1 MSTORE PUSH1 0x1 PUSH1 0x1 PUSH1 0xA0 SHL SUB SWAP1 SWAP2 AND SWAP1 PUSH4 0xA9059CBB SWAP1 PUSH1 0x44 ADD PUSH1 0x20 PUSH1 0x40 MLOAD DUP1 DUP4 SUB DUP2 PUSH0 DUP8 GAS CALL ISZERO DUP1 ISZERO PUSH2 0x5E5 JUMPI RETURNDATASIZE PUSH0 PUSH0 RETURNDATACOPY RETURNDATASIZE PUSH0 REVERT JUMPDEST POP POP POP POP PUSH1 0x40 MLOAD RETURNDATASIZE PUSH1 0x1F NOT PUSH1 0x1F DUP3 ADD AND DUP3 ADD DUP1 PUSH1 0x40 MSTORE POP DUP2 ADD SWAP1 PUSH2 0x609 SWAP2 SWAP1 PUSH2 0x19D9 JUMP JUMPDEST PUSH2 0x646 JUMPI PUSH1 0x40 MLOAD PUSH3 0x461BCD PUSH1 0xE5 SHL DUP2 MSTORE PUSH1 0x20 PUSH1 0x4 DUP3 ADD MSTORE PUSH1 0xE PUSH1 0x24 DUP3 ADD MSTORE PUSH14 0x22B93937B9103A3930B739B332B9 PUSH1 0x91 SHL PUSH1 0x44 DUP3 ADD MSTORE PUSH1 0x64 ADD PUSH2 0x498 JUMP JUMPDEST POP POP POP POP POP POP JUMP JUMPDEST PUSH1 0x1 SLOAD PUSH1 0x40 MLOAD PUSH4 0x70A08231 PUSH1 0xE0 SHL DUP2 MSTORE CALLER PUSH1 0x4 DUP3 ADD MSTORE DUP3 SWAP2 PUSH1 0x1 PUSH1 0x1 PUSH1 0xA0 SHL SUB AND SWAP1 PUSH4 0x70A08231 SWAP1 PUSH1 0x24 ADD PUSH1 0x20 PUSH1 0x40 MLOAD DUP1 DUP4 SUB DUP2 DUP7 GAS STATICCALL ISZERO DUP1 ISZERO PUSH2 0x694 JUMPI RETURNDATASIZE PUSH0 PUSH0 RETURNDATACOPY RETURNDATASIZE PUSH0 REVERT JUMPDEST POP POP POP POP PUSH1 0x40 MLOAD RETURNDATASIZE PUSH1 0x1F NOT PUSH1 0x1F DUP3 ADD AND DUP3 ADD DUP1 PUSH1 0x40 MSTORE POP DUP2 ADD SWAP1 PUSH2 0x6B8 SWAP2 SWAP1 PUSH2 0x19FF JUMP JUMPDEST LT ISZERO PUSH2 0x6FD JUMPI PUSH1 0x40 MLOAD PUSH3 0x461BCD PUSH1 0xE5 SHL DUP2 MSTORE PUSH1 0x20 PUSH1 0x4 DUP3 ADD MSTORE PUSH1 0x14 PUSH1 0x24 DUP3 ADD MSTORE PUSH20 0x466F6E646F7320696E737566696369656E746573 PUSH1 0x60 SHL PUSH1 0x44 DUP3 ADD MSTORE PUSH1 0x64 ADD PUSH2 0x498 JUMP JUMPDEST PUSH0 PUSH1 0x2 SLOAD DUP3 PUSH2 0x70C SWAP2 SWAP1 PUSH2 0x19C2 JUMP JUMPDEST PUSH1 0x1 SLOAD PUSH1 0x40 MLOAD PUSH4 0x2770A7EB PUSH1 0xE2 SHL DUP2 MSTORE CALLER PUSH1 0x4 DUP3 ADD MSTORE PUSH1 0x24 DUP2 ADD DUP6 SWAP1 MSTORE SWAP2 SWAP3 POP PUSH1 0x1 PUSH1 0x1 PUSH1 0xA0 SHL SUB AND SWAP1 PUSH4 0x9DC29FAC SWAP1 PUSH1 0x44 ADD PUSH0 PUSH1 0x40 MLOAD DUP1 DUP4 SUB DUP2 PUSH0 DUP8 DUP1 EXTCODESIZE ISZERO DUP1 ISZERO PUSH2 0x756 JUMPI PUSH0 PUSH0 REVERT JUMPDEST POP GAS CALL ISZERO DUP1 ISZERO PUSH2 0x768 JUMPI RETURNDATASIZE PUSH0 PUSH0 RETURNDATACOPY RETURNDATASIZE PUSH0 REVERT JUMPDEST POP POP PUSH1 0x40 MLOAD PUSH0 SWAP3 POP CALLER SWAP2 POP DUP4 SWAP1 DUP4 DUP2 DUP2 DUP2 DUP6 DUP8 GAS CALL SWAP3 POP POP POP RETURNDATASIZE DUP1 PUSH0 DUP2 EQ PUSH2 0x7AB JUMPI PUSH1 0x40 MLOAD SWAP2 POP PUSH1 0x1F NOT PUSH1 0x3F RETURNDATASIZE ADD AND DUP3 ADD PUSH1 0x40 MSTORE RETURNDATASIZE DUP3 MSTORE RETURNDATASIZE PUSH0 PUSH1 0x20 DUP5 ADD RETURNDATACOPY PUSH2 0x7B0 JUMP JUMPDEST PUSH1 0x60 SWAP2 POP JUMPDEST POP POP SWAP1 POP DUP1 PUSH2 0x7F6 JUMPI PUSH1 0x40 MLOAD PUSH3 0x461BCD PUSH1 0xE5 SHL DUP2 MSTORE PUSH1 0x20 PUSH1 0x4 DUP3 ADD MSTORE PUSH1 0x12 PUSH1 0x24 DUP3 ADD MSTORE PUSH18 0x4572726F7220656E207265656D626F6C736F PUSH1 0x70 SHL PUSH1 0x44 DUP3 ADD MSTORE PUSH1 0x64 ADD PUSH2 0x498 JUMP JUMPDEST POP POP POP JUMP JUMPDEST PUSH1 0x4 SLOAD PUSH1 0xFF AND PUSH2 0x840 JUMPI PUSH1 0x40 MLOAD PUSH3 0x461BCD PUSH1 0xE5 SHL DUP2 MSTORE PUSH1 0x20 PUSH1 0x4 DUP3 ADD MSTORE PUSH1 0x10 PUSH1 0x24 DUP3 ADD MSTORE PUSH16 0x566F746163696F6E2063657272616461 PUSH1 0x80 SHL PUSH1 0x44 DUP3 ADD MSTORE PUSH1 0x64 ADD PUSH2 0x498 JUMP JUMPDEST PUSH0 DUP3 DUP2 MSTORE PUSH1 0x8 PUSH1 0x20 MSTORE PUSH1 0x40 DUP2 KECCAK256 SWAP1 PUSH1 0x2 DUP3 DUP2 ADD SLOAD PUSH1 0x1 PUSH1 0xA0 SHL SWAP1 DIV PUSH1 0xFF AND SWAP1 DUP2 GT ISZERO PUSH2 0x86E JUMPI PUSH2 0x86E PUSH2 0x177C JUMP JUMPDEST EQ PUSH2 0x8B1 JUMPI PUSH1 0x40 MLOAD PUSH3 0x461BCD PUSH1 0xE5 SHL DUP2 MSTORE PUSH1 0x20 PUSH1 0x4 DUP3 ADD MSTORE PUSH1 0x13 PUSH1 0x24 DUP3 ADD MSTORE PUSH19 0x50726F707565737461206E6F20616374697661 PUSH1 0x68 SHL PUSH1 0x44 DUP3 ADD MSTORE PUSH1 0x64 ADD PUSH2 0x498 JUMP JUMPDEST PUSH0 DUP4 DUP2 MSTORE PUSH1 0x9 PUSH1 0x20 SWAP1 DUP2 MSTORE PUSH1 0x40 DUP1 DUP4 KECCAK256 CALLER DUP5 MSTORE SWAP1 SWAP2 MSTORE DUP2 KECCAK256 SLOAD SWAP1 PUSH2 0x8D5 DUP5 DUP4 PUSH2 0x1A16 JUMP JUMPDEST SWAP1 POP PUSH0 PUSH2 0x8E3 PUSH1 0x2 DUP5 PUSH2 0x1B0C JUMP JUMPDEST PUSH2 0x8EE PUSH1 0x2 DUP5 PUSH2 0x1B0C JUMP JUMPDEST PUSH2 0x8F8 SWAP2 SWAP1 PUSH2 0x19AF JUMP JUMPDEST PUSH1 0x1 SLOAD PUSH1 0x40 MLOAD PUSH4 0x23B872DD PUSH1 0xE0 SHL DUP2 MSTORE CALLER PUSH1 0x4 DUP3 ADD MSTORE ADDRESS PUSH1 0x24 DUP3 ADD MSTORE PUSH1 0x44 DUP2 ADD DUP4 SWAP1 MSTORE SWAP2 SWAP3 POP PUSH1 0x1 PUSH1 0x1 PUSH1 0xA0 SHL SUB AND SWAP1 PUSH4 0x23B872DD SWAP1 PUSH1 0x64 ADD PUSH1 0x20 PUSH1 0x40 MLOAD DUP1 DUP4 SUB DUP2 PUSH0 DUP8 GAS CALL ISZERO DUP1 ISZERO PUSH2 0x94D JUMPI RETURNDATASIZE PUSH0 PUSH0 RETURNDATACOPY RETURNDATASIZE PUSH0 REVERT JUMPDEST POP POP POP POP PUSH1 0x40 MLOAD RETURNDATASIZE PUSH1 0x1F NOT PUSH1 0x1F DUP3 ADD AND DUP3 ADD DUP1 PUSH1 0x40 MSTORE POP DUP2 ADD SWAP1 PUSH2 0x971 SWAP2 SWAP1 PUSH2 0x19D9 JUMP JUMPDEST PUSH2 0x9B6 JUMPI PUSH1 0x40 MLOAD PUSH3 0x461BCD PUSH1 0xE5 SHL DUP2 MSTORE PUSH1 0x20 PUSH1 0x4 DUP3 ADD MSTORE PUSH1 0x16 PUSH1 0x24 DUP3 ADD MSTORE PUSH22 0x46616C6C6F20656E207472616E73666572656E636961 PUSH1 0x50 SHL PUSH1 0x44 DUP3 ADD MSTORE PUSH1 0x64 ADD PUSH2 0x498 JUMP JUMPDEST DUP3 PUSH0 SUB PUSH2 0x9EB JUMPI PUSH0 DUP7 DUP2 MSTORE PUSH1 0xA PUSH1 0x20 SWAP1 DUP2 MSTORE PUSH1 0x40 DUP3 KECCAK256 DUP1 SLOAD PUSH1 0x1 DUP2 ADD DUP3 SSTORE SWAP1 DUP4 MSTORE SWAP2 KECCAK256 ADD DUP1 SLOAD PUSH1 0x1 PUSH1 0x1 PUSH1 0xA0 SHL SUB NOT AND CALLER OR SWAP1 SSTORE JUMPDEST PUSH0 DUP7 DUP2 MSTORE PUSH1 0x9 PUSH1 0x20 SWAP1 DUP2 MSTORE PUSH1 0x40 DUP1 DUP4 KECCAK256 CALLER DUP5 MSTORE SWAP1 SWAP2 MSTORE DUP2 KECCAK256 DUP4 SWAP1 SSTORE PUSH1 0x3 DUP6 ADD DUP1 SLOAD DUP8 SWAP3 SWAP1 PUSH2 0xA1A SWAP1 DUP5 SWAP1 PUSH2 0x1A16 JUMP JUMPDEST SWAP3 POP POP DUP2 SWAP1 SSTORE POP DUP1 DUP5 PUSH1 0x4 ADD PUSH0 DUP3 DUP3 SLOAD PUSH2 0xA34 SWAP2 SWAP1 PUSH2 0x1A16 JUMP JUMPDEST SWAP1 SWAP2 SSTORE POP POP PUSH1 0x40 DUP1 MLOAD DUP7 DUP2 MSTORE PUSH1 0x20 DUP2 ADD DUP4 SWAP1 MSTORE CALLER SWAP2 DUP9 SWAP2 PUSH32 0x271F53EEBBE20450D9578F28EC279231556C34545B30E2278D754FFD39CD63C SWAP2 ADD PUSH1 0x40 MLOAD DUP1 SWAP2 SUB SWAP1 LOG3 PUSH1 0x5 DUP5 ADD SLOAD PUSH1 0x1 PUSH1 0xA0 SHL SWAP1 DIV PUSH1 0xFF AND PUSH2 0x646 JUMPI PUSH2 0x646 DUP7 PUSH2 0x129D JUMP JUMPDEST PUSH1 0x4 SLOAD PUSH0 SWAP1 PUSH1 0xFF AND PUSH2 0xAE6 JUMPI PUSH1 0x40 MLOAD PUSH3 0x461BCD PUSH1 0xE5 SHL DUP2 MSTORE PUSH1 0x20 PUSH1 0x4 DUP3 ADD MSTORE PUSH1 0x1B PUSH1 0x24 DUP3 ADD MSTORE PUSH32 0x4C6120766F746163696F6E206E6F206573746120616269657274610000000000 PUSH1 0x44 DUP3 ADD MSTORE PUSH1 0x64 ADD PUSH2 0x498 JUMP JUMPDEST CALLER PUSH0 SWAP1 DUP2 MSTORE PUSH1 0xB PUSH1 0x20 MSTORE PUSH1 0x40 SWAP1 KECCAK256 SLOAD PUSH1 0xFF AND PUSH2 0xB39 JUMPI PUSH1 0x40 MLOAD PUSH3 0x461BCD PUSH1 0xE5 SHL DUP2 MSTORE PUSH1 0x20 PUSH1 0x4 DUP3 ADD MSTORE PUSH1 0x12 PUSH1 0x24 DUP3 ADD MSTORE PUSH18 0x536F6C6F207061727469636970616E746573 PUSH1 0x70 SHL PUSH1 0x44 DUP3 ADD MSTORE PUSH1 0x64 ADD PUSH2 0x498 JUMP JUMPDEST PUSH2 0xB53 PUSH1 0x1 PUSH1 0x1 PUSH1 0xA0 SHL SUB DUP4 AND PUSH4 0x986CC311 PUSH1 0xE0 SHL PUSH2 0x154F JUMP JUMPDEST PUSH2 0xB97 JUMPI PUSH1 0x40 MLOAD PUSH3 0x461BCD PUSH1 0xE5 SHL DUP2 MSTORE PUSH1 0x20 PUSH1 0x4 DUP3 ADD MSTORE PUSH1 0x15 PUSH1 0x24 DUP3 ADD MSTORE PUSH21 0x496E74657266617A206E6F20736F706F7274616461 PUSH1 0x58 SHL PUSH1 0x44 DUP3 ADD MSTORE PUSH1 0x64 ADD PUSH2 0x498 JUMP JUMPDEST PUSH1 0x7 DUP1 SLOAD PUSH0 SWAP2 DUP3 PUSH2 0xBA7 DUP4 PUSH2 0x1B1A JUMP JUMPDEST SWAP1 SWAP2 SSTORE POP PUSH1 0x40 DUP1 MLOAD PUSH2 0x100 DUP2 ADD DUP3 MSTORE DUP8 DUP2 MSTORE PUSH1 0x20 DUP1 DUP3 ADD DUP9 SWAP1 MSTORE PUSH1 0x1 PUSH1 0x1 PUSH1 0xA0 SHL SUB DUP8 AND DUP3 DUP5 ADD MSTORE PUSH0 PUSH1 0x60 DUP4 ADD DUP2 SWAP1 MSTORE PUSH1 0x80 DUP4 ADD DUP2 SWAP1 MSTORE PUSH1 0xA0 DUP4 ADD DUP2 SWAP1 MSTORE CALLER PUSH1 0xC0 DUP5 ADD MSTORE DUP9 ISZERO PUSH1 0xE0 DUP5 ADD DUP2 SWAP1 MSTORE DUP6 DUP3 MSTORE PUSH1 0x8 SWAP1 SWAP3 MSTORE SWAP3 SWAP1 SWAP3 KECCAK256 DUP2 MLOAD SWAP4 SWAP5 POP SWAP2 SWAP3 SWAP1 SWAP2 SWAP1 DUP2 SWAP1 PUSH2 0xC16 SWAP1 DUP3 PUSH2 0x1B76 JUMP JUMPDEST POP PUSH1 0x20 DUP3 ADD MLOAD PUSH1 0x1 DUP3 ADD SSTORE PUSH1 0x40 DUP3 ADD MLOAD PUSH1 0x2 DUP1 DUP4 ADD DUP1 SLOAD PUSH1 0x1 PUSH1 0x1 PUSH1 0xA0 SHL SUB SWAP1 SWAP4 AND PUSH1 0x1 PUSH1 0x1 PUSH1 0xA0 SHL SUB NOT DUP5 AND DUP2 OR DUP3 SSTORE PUSH1 0x60 DUP7 ADD MLOAD SWAP4 SWAP2 SWAP3 PUSH1 0x1 PUSH1 0x1 PUSH1 0xA8 SHL SUB NOT SWAP1 SWAP3 AND OR SWAP1 PUSH1 0x1 PUSH1 0xA0 SHL SWAP1 DUP5 SWAP1 DUP2 GT ISZERO PUSH2 0xC74 JUMPI PUSH2 0xC74 PUSH2 0x177C JUMP JUMPDEST MUL OR SWAP1 SSTORE POP PUSH1 0x80 DUP3 ADD MLOAD PUSH1 0x3 DUP3 ADD SSTORE PUSH1 0xA0 DUP3 ADD MLOAD PUSH1 0x4 DUP3 ADD SSTORE PUSH1 0xC0 DUP3 ADD MLOAD PUSH1 0x5 SWAP1 SWAP2 ADD DUP1 SLOAD PUSH1 0xE0 SWAP1 SWAP4 ADD MLOAD ISZERO ISZERO PUSH1 0x1 PUSH1 0xA0 SHL MUL PUSH1 0x1 PUSH1 0x1 PUSH1 0xA8 SHL SUB NOT SWAP1 SWAP4 AND PUSH1 0x1 PUSH1 0x1 PUSH1 0xA0 SHL SUB SWAP1 SWAP3 AND SWAP2 SWAP1 SWAP2 OR SWAP2 SWAP1 SWAP2 OR SWAP1 SSTORE DUP1 PUSH2 0xCE2 JUMPI PUSH1 0x6 DUP1 SLOAD SWAP1 PUSH0 PUSH2 0xCDC DUP4 PUSH2 0x1B1A JUMP JUMPDEST SWAP2 SWAP1 POP SSTORE POP JUMPDEST DUP2 PUSH32 0xF5DC0DA9AFA6D080780A49FD8C680F03D2DDF3C067CD6D0C85360C096644D2D3 DUP8 DUP8 PUSH1 0x40 MLOAD PUSH2 0xD14 SWAP3 SWAP2 SWAP1 PUSH2 0x1C31 JUMP JUMPDEST PUSH1 0x40 MLOAD DUP1 SWAP2 SUB SWAP1 LOG2 POP SWAP5 SWAP4 POP POP POP POP JUMP JUMPDEST PUSH0 SLOAD PUSH1 0x1 PUSH1 0x1 PUSH1 0xA0 SHL SUB AND CALLER EQ PUSH2 0xD7E JUMPI PUSH1 0x40 MLOAD PUSH3 0x461BCD PUSH1 0xE5 SHL DUP2 MSTORE PUSH1 0x20 PUSH1 0x4 DUP3 ADD MSTORE PUSH1 0x1B PUSH1 0x24 DUP3 ADD MSTORE PUSH32 0x536F6C6F20656C2063726561646F722070756564652061627269720000000000 PUSH1 0x44 DUP3 ADD MSTORE PUSH1 0x64 ADD PUSH2 0x498 JUMP JUMPDEST PUSH1 0x4 DUP1 SLOAD PUSH1 0xFF NOT AND PUSH1 0x1 OR SWAP1 SSTORE PUSH1 0x3 DUP1 SLOAD CALLVALUE SWAP2 SWAP1 PUSH0 SWAP1 PUSH2 0xD9F SWAP1 DUP5 SWAP1 PUSH2 0x1A16 JUMP JUMPDEST SWAP1 SWAP2 SSTORE POP POP PUSH1 0x40 MLOAD CALLVALUE DUP2 MSTORE PUSH32 0xE0A358D4A766346F1ECE85D22E2197435D610D9638874A0FD6746E58A1B1F58A SWAP1 PUSH1 0x20 ADD PUSH1 0x40 MLOAD DUP1 SWAP2 SUB SWAP1 LOG1 JUMP JUMPDEST PUSH0 SLOAD PUSH1 0x1 PUSH1 0x1 PUSH1 0xA0 SHL SUB AND CALLER EQ PUSH2 0xE1F JUMPI PUSH1 0x40 MLOAD PUSH3 0x461BCD PUSH1 0xE5 SHL DUP2 MSTORE PUSH1 0x20 PUSH1 0x4 DUP3 ADD MSTORE PUSH1 0xA PUSH1 0x24 DUP3 ADD MSTORE PUSH10 0x29B7B6379037BBB732B9 PUSH1 0xB1 SHL PUSH1 0x44 DUP3 ADD MSTORE PUSH1 0x64 ADD PUSH2 0x498 JUMP JUMPDEST PUSH1 0x4 SLOAD PUSH1 0xFF AND PUSH2 0xE5E JUMPI PUSH1 0x40 MLOAD PUSH3 0x461BCD PUSH1 0xE5 SHL DUP2 MSTORE PUSH1 0x20 PUSH1 0x4 DUP3 ADD MSTORE PUSH1 0xA PUSH1 0x24 DUP3 ADD MSTORE PUSH10 0x59612063657272616461 PUSH1 0xB0 SHL PUSH1 0x44 DUP3 ADD MSTORE PUSH1 0x64 ADD PUSH2 0x498 JUMP JUMPDEST PUSH1 0x4 DUP1 SLOAD PUSH1 0xFF NOT AND SWAP1 SSTORE PUSH0 JUMPDEST PUSH1 0x7 SLOAD DUP2 LT ISZERO PUSH2 0xFB7 JUMPI PUSH0 DUP2 DUP2 MSTORE PUSH1 0x8 PUSH1 0x20 MSTORE PUSH1 0x40 SWAP1 KECCAK256 PUSH1 0x5 DUP2 ADD SLOAD PUSH1 0x1 PUSH1 0xA0 SHL SWAP1 DIV PUSH1 0xFF AND ISZERO PUSH2 0xF56 JUMPI PUSH1 0x2 DUP2 ADD SLOAD PUSH1 0x3 DUP3 ADD SLOAD PUSH1 0x4 DUP4 ADD SLOAD PUSH1 0x40 MLOAD PUSH1 0x24 DUP2 ADD DUP7 SWAP1 MSTORE PUSH1 0x44 DUP2 ADD SWAP3 SWAP1 SWAP3 MSTORE PUSH1 0x64 DUP3 ADD MSTORE PUSH0 SWAP2 PUSH1 0x1 PUSH1 0x1 PUSH1 0xA0 SHL SUB AND SWAP1 PUSH3 0x186A0 SWAP1 PUSH1 0x84 ADD PUSH1 0x40 DUP1 MLOAD PUSH1 0x1F NOT DUP2 DUP5 SUB ADD DUP2 MSTORE SWAP2 DUP2 MSTORE PUSH1 0x20 DUP3 ADD DUP1 MLOAD PUSH1 0x1 PUSH1 0x1 PUSH1 0xE0 SHL SUB AND PUSH4 0x986CC311 PUSH1 0xE0 SHL OR SWAP1 MSTORE MLOAD PUSH2 0xF04 SWAP2 SWAP1 PUSH2 0x1C52 JUMP JUMPDEST PUSH0 PUSH1 0x40 MLOAD DUP1 DUP4 SUB DUP2 PUSH0 DUP8 DUP8 CALL SWAP3 POP POP POP RETURNDATASIZE DUP1 PUSH0 DUP2 EQ PUSH2 0xF3E JUMPI PUSH1 0x40 MLOAD SWAP2 POP PUSH1 0x1F NOT PUSH1 0x3F RETURNDATASIZE ADD AND DUP3 ADD PUSH1 0x40 MSTORE RETURNDATASIZE DUP3 MSTORE RETURNDATASIZE PUSH0 PUSH1 0x20 DUP5 ADD RETURNDATACOPY PUSH2 0xF43 JUMP JUMPDEST PUSH1 0x60 SWAP2 POP JUMPDEST POP POP SWAP1 POP PUSH2 0xF50 DUP4 PUSH2 0x1573 JUMP JUMPDEST POP PUSH2 0xFAE JUMP JUMPDEST PUSH0 PUSH1 0x2 DUP3 DUP2 ADD SLOAD PUSH1 0x1 PUSH1 0xA0 SHL SWAP1 DIV PUSH1 0xFF AND SWAP1 DUP2 GT ISZERO PUSH2 0xF77 JUMPI PUSH2 0xF77 PUSH2 0x177C JUMP JUMPDEST SUB PUSH2 0xFAE JUMPI PUSH1 0x2 DUP2 ADD DUP1 SLOAD PUSH1 0xFF PUSH1 0xA0 SHL NOT AND PUSH1 0x1 PUSH1 0xA1 SHL OR SWAP1 SSTORE PUSH1 0x6 DUP1 SLOAD SWAP1 PUSH0 PUSH2 0xFA0 DUP4 PUSH2 0x1C68 JUMP JUMPDEST SWAP2 SWAP1 POP SSTORE POP PUSH2 0xFAE DUP3 PUSH2 0x1573 JUMP JUMPDEST POP PUSH1 0x1 ADD PUSH2 0xE6A JUMP JUMPDEST POP PUSH1 0x3 DUP1 SLOAD PUSH0 SWAP1 SWAP2 SSTORE DUP1 ISZERO PUSH2 0x105C JUMPI PUSH0 DUP1 SLOAD PUSH1 0x40 MLOAD PUSH1 0x1 PUSH1 0x1 PUSH1 0xA0 SHL SUB SWAP1 SWAP2 AND SWAP1 DUP4 SWAP1 DUP4 DUP2 DUP2 DUP2 DUP6 DUP8 GAS CALL SWAP3 POP POP POP RETURNDATASIZE DUP1 PUSH0 DUP2 EQ PUSH2 0x1010 JUMPI PUSH1 0x40 MLOAD SWAP2 POP PUSH1 0x1F NOT PUSH1 0x3F RETURNDATASIZE ADD AND DUP3 ADD PUSH1 0x40 MSTORE RETURNDATASIZE DUP3 MSTORE RETURNDATASIZE PUSH0 PUSH1 0x20 DUP5 ADD RETURNDATACOPY PUSH2 0x1015 JUMP JUMPDEST PUSH1 0x60 SWAP2 POP JUMPDEST POP POP SWAP1 POP DUP1 PUSH2 0x105A JUMPI PUSH1 0x40 MLOAD PUSH3 0x461BCD PUSH1 0xE5 SHL DUP2 MSTORE PUSH1 0x20 PUSH1 0x4 DUP3 ADD MSTORE PUSH1 0x11 PUSH1 0x24 DUP3 ADD MSTORE PUSH17 0x22B93937B9103634B8BAB4B230B1B4B7B7 PUSH1 0x79 SHL PUSH1 0x44 DUP3 ADD MSTORE PUSH1 0x64 ADD PUSH2 0x498 JUMP JUMPDEST POP JUMPDEST POP JUMP JUMPDEST CALLER PUSH0 SWAP1 DUP2 MSTORE PUSH1 0xB PUSH1 0x20 MSTORE PUSH1 0x40 SWAP1 KECCAK256 SLOAD PUSH1 0xFF AND PUSH2 0x10B2 JUMPI PUSH1 0x40 MLOAD PUSH3 0x461BCD PUSH1 0xE5 SHL DUP2 MSTORE PUSH1 0x20 PUSH1 0x4 DUP3 ADD MSTORE PUSH1 0x12 PUSH1 0x24 DUP3 ADD MSTORE PUSH18 0x496E7363726962617365207072696D65726F PUSH1 0x70 SHL PUSH1 0x44 DUP3 ADD MSTORE PUSH1 0x64 ADD PUSH2 0x498 JUMP JUMPDEST PUSH0 PUSH1 0x2 SLOAD CALLVALUE PUSH2 0x10C1 SWAP2 SWAP1 PUSH2 0x1C7D JUMP JUMPDEST PUSH1 0x1 SLOAD PUSH1 0x40 MLOAD PUSH4 0x40C10F19 PUSH1 0xE0 SHL DUP2 MSTORE CALLER PUSH1 0x4 DUP3 ADD MSTORE PUSH1 0x24 DUP2 ADD DUP4 SWAP1 MSTORE SWAP2 SWAP3 POP PUSH1 0x1 PUSH1 0x1 PUSH1 0xA0 SHL SUB AND SWAP1 PUSH4 0x40C10F19 SWAP1 PUSH1 0x44 ADD PUSH0 PUSH1 0x40 MLOAD DUP1 DUP4 SUB DUP2 PUSH0 DUP8 DUP1 EXTCODESIZE ISZERO DUP1 ISZERO PUSH2 0x110B JUMPI PUSH0 PUSH0 REVERT JUMPDEST POP GAS CALL ISZERO DUP1 ISZERO PUSH2 0x111D JUMPI RETURNDATASIZE PUSH0 PUSH0 RETURNDATACOPY RETURNDATASIZE PUSH0 REVERT JUMPDEST POP POP POP POP POP JUMP JUMPDEST CALLER PUSH0 SWAP1 DUP2 MSTORE PUSH1 0xB PUSH1 0x20 MSTORE PUSH1 0x40 SWAP1 KECCAK256 SLOAD PUSH1 0xFF AND ISZERO PUSH2 0x1178 JUMPI PUSH1 0x40 MLOAD PUSH3 0x461BCD PUSH1 0xE5 SHL DUP2 MSTORE PUSH1 0x20 PUSH1 0x4 DUP3 ADD MSTORE PUSH1 0x12 PUSH1 0x24 DUP3 ADD MSTORE PUSH18 0x5961206573207061727469636970616E7465 PUSH1 0x70 SHL PUSH1 0x44 DUP3 ADD MSTORE PUSH1 0x64 ADD PUSH2 0x498 JUMP JUMPDEST PUSH1 0x2 SLOAD CALLVALUE LT ISZERO PUSH2 0x11CA JUMPI PUSH1 0x40 MLOAD PUSH3 0x461BCD PUSH1 0xE5 SHL DUP2 MSTORE PUSH1 0x20 PUSH1 0x4 DUP3 ADD MSTORE PUSH1 0x1E PUSH1 0x24 DUP3 ADD MSTORE PUSH32 0x4465626520636F6D7072617220616C206D656E6F7320756E20746F6B656E0000 PUSH1 0x44 DUP3 ADD MSTORE PUSH1 0x64 ADD PUSH2 0x498 JUMP JUMPDEST CALLER PUSH0 SWAP1 DUP2 MSTORE PUSH1 0xB PUSH1 0x20 MSTORE PUSH1 0x40 DUP2 KECCAK256 DUP1 SLOAD PUSH1 0xFF NOT AND PUSH1 0x1 OR SWAP1 SSTORE PUSH1 0x5 DUP1 SLOAD SWAP2 PUSH2 0x11F1 DUP4 PUSH2 0x1B1A JUMP JUMPDEST SWAP2 SWAP1 POP SSTORE POP PUSH0 PUSH1 0x2 SLOAD CALLVALUE PUSH2 0x1205 SWAP2 SWAP1 PUSH2 0x1C7D JUMP JUMPDEST PUSH1 0x1 SLOAD PUSH1 0x40 MLOAD PUSH4 0x40C10F19 PUSH1 0xE0 SHL DUP2 MSTORE CALLER PUSH1 0x4 DUP3 ADD MSTORE PUSH1 0x24 DUP2 ADD DUP4 SWAP1 MSTORE SWAP2 SWAP3 POP PUSH1 0x1 PUSH1 0x1 PUSH1 0xA0 SHL SUB AND SWAP1 PUSH4 0x40C10F19 SWAP1 PUSH1 0x44 ADD PUSH0 PUSH1 0x40 MLOAD DUP1 DUP4 SUB DUP2 PUSH0 DUP8 DUP1 EXTCODESIZE ISZERO DUP1 ISZERO PUSH2 0x124F JUMPI PUSH0 PUSH0 REVERT JUMPDEST POP GAS CALL ISZERO DUP1 ISZERO PUSH2 0x1261 JUMPI RETURNDATASIZE PUSH0 PUSH0 RETURNDATACOPY RETURNDATASIZE PUSH0 REVERT JUMPDEST POP POP PUSH1 0x40 MLOAD DUP4 DUP2 MSTORE CALLER SWAP3 POP PUSH32 0x287AB65235AA9A0BAEED5B973FDA48C77EBDC6F3DD931CFDA1C082C0AECC1E73 SWAP2 POP PUSH1 0x20 ADD PUSH1 0x40 MLOAD DUP1 SWAP2 SUB SWAP1 LOG2 POP JUMP JUMPDEST PUSH0 DUP2 DUP2 MSTORE PUSH1 0x8 PUSH1 0x20 MSTORE PUSH1 0x40 DUP2 KECCAK256 PUSH1 0x3 SLOAD PUSH1 0x1 DUP3 ADD SLOAD SWAP2 SWAP3 SWAP2 PUSH2 0x12C0 SWAP1 PUSH1 0xA PUSH2 0x19C2 JUMP JUMPDEST PUSH2 0x12CA SWAP2 SWAP1 PUSH2 0x1C7D JUMP JUMPDEST PUSH2 0x12D5 SWAP1 PUSH1 0x2 PUSH2 0x1A16 JUMP JUMPDEST SWAP1 POP PUSH0 PUSH1 0xA PUSH1 0x6 SLOAD PUSH1 0x5 SLOAD PUSH2 0x12EA SWAP2 SWAP1 PUSH2 0x1A16 JUMP JUMPDEST PUSH2 0x12F4 SWAP1 DUP5 PUSH2 0x19C2 JUMP JUMPDEST PUSH2 0x12FE SWAP2 SWAP1 PUSH2 0x1C7D JUMP JUMPDEST SWAP1 POP DUP1 DUP4 PUSH1 0x3 ADD SLOAD GT DUP1 ISZERO PUSH2 0x1319 JUMPI POP DUP3 PUSH1 0x1 ADD SLOAD PUSH1 0x3 SLOAD LT ISZERO JUMPDEST ISZERO PUSH2 0x1549 JUMPI PUSH1 0x2 DUP4 ADD DUP1 SLOAD PUSH1 0xFF PUSH1 0xA0 SHL NOT AND PUSH1 0x1 PUSH1 0xA0 SHL OR SWAP1 SSTORE PUSH1 0x6 DUP1 SLOAD SWAP1 PUSH0 PUSH2 0x1342 DUP4 PUSH2 0x1C68 JUMP JUMPDEST SWAP2 SWAP1 POP SSTORE POP PUSH1 0x2 SLOAD DUP4 PUSH1 0x4 ADD SLOAD PUSH2 0x1359 SWAP2 SWAP1 PUSH2 0x19C2 JUMP JUMPDEST PUSH1 0x3 PUSH0 DUP3 DUP3 SLOAD PUSH2 0x1369 SWAP2 SWAP1 PUSH2 0x1A16 JUMP JUMPDEST SWAP1 SWAP2 SSTORE POP POP PUSH1 0x1 DUP4 ADD SLOAD PUSH1 0x3 DUP1 SLOAD PUSH0 SWAP1 PUSH2 0x1384 SWAP1 DUP5 SWAP1 PUSH2 0x19AF JUMP JUMPDEST SWAP1 SWAP2 SSTORE POP POP PUSH1 0x1 SLOAD PUSH1 0x4 DUP5 DUP2 ADD SLOAD PUSH1 0x40 MLOAD PUSH4 0x2770A7EB PUSH1 0xE2 SHL DUP2 MSTORE ADDRESS SWAP3 DUP2 ADD SWAP3 SWAP1 SWAP3 MSTORE PUSH1 0x24 DUP3 ADD MSTORE PUSH1 0x1 PUSH1 0x1 PUSH1 0xA0 SHL SUB SWAP1 SWAP2 AND SWAP1 PUSH4 0x9DC29FAC SWAP1 PUSH1 0x44 ADD PUSH0 PUSH1 0x40 MLOAD DUP1 DUP4 SUB DUP2 PUSH0 DUP8 DUP1 EXTCODESIZE ISZERO DUP1 ISZERO PUSH2 0x13D8 JUMPI PUSH0 PUSH0 REVERT JUMPDEST POP GAS CALL ISZERO DUP1 ISZERO PUSH2 0x13EA JUMPI RETURNDATASIZE PUSH0 PUSH0 RETURNDATACOPY RETURNDATASIZE PUSH0 REVERT JUMPDEST POP POP POP POP PUSH1 0x2 DUP4 ADD SLOAD PUSH1 0x1 DUP5 ADD SLOAD PUSH1 0x3 DUP6 ADD SLOAD PUSH1 0x4 DUP7 ADD SLOAD PUSH1 0x40 MLOAD PUSH1 0x24 DUP2 ADD DUP10 SWAP1 MSTORE PUSH1 0x44 DUP2 ADD SWAP3 SWAP1 SWAP3 MSTORE PUSH1 0x64 DUP3 ADD MSTORE PUSH0 SWAP3 PUSH1 0x1 PUSH1 0x1 PUSH1 0xA0 SHL SUB AND SWAP2 PUSH3 0x186A0 SWAP2 PUSH1 0x84 ADD PUSH1 0x40 DUP1 MLOAD PUSH1 0x1F NOT DUP2 DUP5 SUB ADD DUP2 MSTORE SWAP2 DUP2 MSTORE PUSH1 0x20 DUP3 ADD DUP1 MLOAD PUSH1 0x1 PUSH1 0x1 PUSH1 0xE0 SHL SUB AND PUSH4 0x986CC311 PUSH1 0xE0 SHL OR SWAP1 MSTORE MLOAD PUSH2 0x1462 SWAP2 SWAP1 PUSH2 0x1C52 JUMP JUMPDEST PUSH0 PUSH1 0x40 MLOAD DUP1 DUP4 SUB DUP2 DUP6 DUP9 DUP9 CALL SWAP4 POP POP POP POP RETURNDATASIZE DUP1 PUSH0 DUP2 EQ PUSH2 0x149D JUMPI PUSH1 0x40 MLOAD SWAP2 POP PUSH1 0x1F NOT PUSH1 0x3F RETURNDATASIZE ADD AND DUP3 ADD PUSH1 0x40 MSTORE RETURNDATASIZE DUP3 MSTORE RETURNDATASIZE PUSH0 PUSH1 0x20 DUP5 ADD RETURNDATACOPY PUSH2 0x14A2 JUMP JUMPDEST PUSH1 0x60 SWAP2 POP JUMPDEST POP POP SWAP1 POP DUP1 PUSH2 0x1509 JUMPI PUSH1 0x40 MLOAD PUSH3 0x461BCD PUSH1 0xE5 SHL DUP2 MSTORE PUSH1 0x20 PUSH1 0x4 DUP3 ADD MSTORE PUSH1 0x2D PUSH1 0x24 DUP3 ADD MSTORE PUSH32 0x46616C6C6F20656E206C6120656A65637563696F6E2065787465726E61206465 PUSH1 0x44 DUP3 ADD MSTORE PUSH13 0x206C612070726F707565737461 PUSH1 0x98 SHL PUSH1 0x64 DUP3 ADD MSTORE PUSH1 0x84 ADD PUSH2 0x498 JUMP JUMPDEST DUP5 PUSH32 0xC6A4FD4A703D2A2FE3167CE7F6D62BF96458B7E55042CFAA85D5C7EF3AC56EEA DUP6 PUSH1 0x1 ADD SLOAD PUSH1 0x40 MLOAD PUSH2 0x153F SWAP2 DUP2 MSTORE PUSH1 0x20 ADD SWAP1 JUMP JUMPDEST PUSH1 0x40 MLOAD DUP1 SWAP2 SUB SWAP1 LOG2 POP JUMPDEST POP POP POP POP JUMP JUMPDEST PUSH0 PUSH2 0x1559 DUP4 PUSH2 0x1691 JUMP JUMPDEST DUP1 ISZERO PUSH2 0x156A JUMPI POP PUSH2 0x156A DUP4 DUP4 PUSH2 0x16DF JUMP JUMPDEST SWAP1 POP JUMPDEST SWAP3 SWAP2 POP POP JUMP JUMPDEST PUSH0 DUP2 DUP2 MSTORE PUSH1 0xA PUSH1 0x20 MSTORE PUSH1 0x40 DUP2 KECCAK256 SWAP1 JUMPDEST DUP2 SLOAD DUP2 LT ISZERO PUSH2 0x7F6 JUMPI PUSH0 DUP3 DUP3 DUP2 SLOAD DUP2 LT PUSH2 0x159E JUMPI PUSH2 0x159E PUSH2 0x1C9C JUMP JUMPDEST PUSH0 SWAP2 DUP3 MSTORE PUSH1 0x20 DUP1 DUP4 KECCAK256 SWAP1 SWAP2 ADD SLOAD DUP7 DUP4 MSTORE PUSH1 0x9 DUP3 MSTORE PUSH1 0x40 DUP1 DUP5 KECCAK256 PUSH1 0x1 PUSH1 0x1 PUSH1 0xA0 SHL SUB SWAP1 SWAP3 AND DUP1 DUP6 MSTORE SWAP2 SWAP1 SWAP3 MSTORE SWAP2 KECCAK256 SLOAD SWAP1 SWAP2 POP DUP1 ISZERO PUSH2 0x1687 JUMPI PUSH0 PUSH2 0x15E0 DUP3 DUP1 PUSH2 0x19C2 JUMP JUMPDEST PUSH0 DUP8 DUP2 MSTORE PUSH1 0x9 PUSH1 0x20 SWAP1 DUP2 MSTORE PUSH1 0x40 DUP1 DUP4 KECCAK256 PUSH1 0x1 PUSH1 0x1 PUSH1 0xA0 SHL SUB DUP1 DUP10 AND DUP6 MSTORE SWAP3 MSTORE DUP1 DUP4 KECCAK256 SWAP3 SWAP1 SWAP3 SSTORE PUSH1 0x1 SLOAD SWAP2 MLOAD PUSH4 0xA9059CBB PUSH1 0xE0 SHL DUP2 MSTORE SWAP3 SWAP4 POP AND SWAP1 PUSH4 0xA9059CBB SWAP1 PUSH2 0x1644 SWAP1 DUP7 SWAP1 DUP6 SWAP1 PUSH1 0x4 ADD PUSH1 0x1 PUSH1 0x1 PUSH1 0xA0 SHL SUB SWAP3 SWAP1 SWAP3 AND DUP3 MSTORE PUSH1 0x20 DUP3 ADD MSTORE PUSH1 0x40 ADD SWAP1 JUMP JUMPDEST PUSH1 0x20 PUSH1 0x40 MLOAD DUP1 DUP4 SUB DUP2 PUSH0 DUP8 GAS CALL ISZERO DUP1 ISZERO PUSH2 0x1660 JUMPI RETURNDATASIZE PUSH0 PUSH0 RETURNDATACOPY RETURNDATASIZE PUSH0 REVERT JUMPDEST POP POP POP POP PUSH1 0x40 MLOAD RETURNDATASIZE PUSH1 0x1F NOT PUSH1 0x1F DUP3 ADD AND DUP3 ADD DUP1 PUSH1 0x40 MSTORE POP DUP2 ADD SWAP1 PUSH2 0x1684 SWAP2 SWAP1 PUSH2 0x19D9 JUMP JUMPDEST POP POP JUMPDEST POP POP PUSH1 0x1 ADD PUSH2 0x1582 JUMP JUMPDEST PUSH0 PUSH2 0x16A3 DUP3 PUSH4 0x1FFC9A7 PUSH1 0xE0 SHL PUSH2 0x16DF JUMP JUMPDEST ISZERO PUSH2 0x16D3 JUMPI PUSH0 DUP1 PUSH2 0x16BC DUP5 PUSH1 0x1 PUSH1 0x1 PUSH1 0xE0 SHL SUB NOT PUSH2 0x1703 JUMP JUMPDEST SWAP2 POP SWAP2 POP DUP2 DUP1 ISZERO PUSH2 0x16CB JUMPI POP DUP1 ISZERO JUMPDEST SWAP5 SWAP4 POP POP POP POP JUMP JUMPDEST POP PUSH0 SWAP2 SWAP1 POP JUMP JUMPDEST SWAP2 SWAP1 POP JUMP JUMPDEST PUSH0 PUSH0 PUSH0 PUSH2 0x16EC DUP6 DUP6 PUSH2 0x1703 JUMP JUMPDEST SWAP2 POP SWAP2 POP DUP2 DUP1 ISZERO PUSH2 0x16FA JUMPI POP DUP1 JUMPDEST SWAP6 SWAP5 POP POP POP POP POP JUMP JUMPDEST PUSH4 0x1FFC9A7 PUSH1 0xE0 SHL PUSH0 DUP2 DUP2 MSTORE PUSH1 0x4 DUP4 SWAP1 MSTORE SWAP1 DUP2 SWAP1 PUSH1 0x20 DUP3 PUSH1 0x24 DUP2 DUP9 PUSH2 0x7530 STATICCALL SWAP3 POP PUSH0 MLOAD ISZERO ISZERO PUSH1 0x1F RETURNDATASIZE GT AND SWAP2 POP POP SWAP3 POP SWAP3 SWAP1 POP JUMP JUMPDEST PUSH0 PUSH1 0x20 DUP3 DUP5 SUB SLT ISZERO PUSH2 0x1747 JUMPI PUSH0 PUSH0 REVERT JUMPDEST POP CALLDATALOAD SWAP2 SWAP1 POP JUMP JUMPDEST PUSH0 DUP2 MLOAD DUP1 DUP5 MSTORE DUP1 PUSH1 0x20 DUP5 ADD PUSH1 0x20 DUP7 ADD MCOPY PUSH0 PUSH1 0x20 DUP3 DUP7 ADD ADD MSTORE PUSH1 0x20 PUSH1 0x1F NOT PUSH1 0x1F DUP4 ADD AND DUP6 ADD ADD SWAP2 POP POP SWAP3 SWAP2 POP POP JUMP JUMPDEST PUSH4 0x4E487B71 PUSH1 0xE0 SHL PUSH0 MSTORE PUSH1 0x21 PUSH1 0x4 MSTORE PUSH1 0x24 PUSH0 REVERT JUMPDEST PUSH2 0x100 DUP2 MSTORE PUSH0 PUSH2 0x17A4 PUSH2 0x100 DUP4 ADD DUP12 PUSH2 0x174E JUMP JUMPDEST PUSH1 0x20 DUP4 ADD DUP11 SWAP1 MSTORE PUSH1 0x1 PUSH1 0x1 PUSH1 0xA0 SHL SUB DUP10 AND PUSH1 0x40 DUP5 ADD MSTORE SWAP1 POP PUSH1 0x3 DUP8 LT PUSH2 0x17D8 JUMPI PUSH4 0x4E487B71 PUSH1 0xE0 SHL PUSH0 MSTORE PUSH1 0x21 PUSH1 0x4 MSTORE PUSH1 0x24 PUSH0 REVERT JUMPDEST PUSH1 0x60 DUP3 ADD SWAP7 SWAP1 SWAP7 MSTORE PUSH1 0x80 DUP2 ADD SWAP5 SWAP1 SWAP5 MSTORE PUSH1 0xA0 DUP5 ADD SWAP3 SWAP1 SWAP3 MSTORE PUSH1 0x1 PUSH1 0x1 PUSH1 0xA0 SHL SUB AND PUSH1 0xC0 DUP4 ADD MSTORE ISZERO ISZERO PUSH1 0xE0 SWAP1 SWAP2 ADD MSTORE SWAP4 SWAP3 POP POP POP JUMP JUMPDEST DUP1 CALLDATALOAD PUSH1 0x1 PUSH1 0x1 PUSH1 0xA0 SHL SUB DUP2 AND DUP2 EQ PUSH2 0x16DA JUMPI PUSH0 PUSH0 REVERT JUMPDEST PUSH0 PUSH0 PUSH1 0x40 DUP4 DUP6 SUB SLT ISZERO PUSH2 0x1834 JUMPI PUSH0 PUSH0 REVERT JUMPDEST DUP3 CALLDATALOAD SWAP2 POP PUSH2 0x1844 PUSH1 0x20 DUP5 ADD PUSH2 0x180D JUMP JUMPDEST SWAP1 POP SWAP3 POP SWAP3 SWAP1 POP JUMP JUMPDEST PUSH0 PUSH0 PUSH1 0x40 DUP4 DUP6 SUB SLT ISZERO PUSH2 0x185E JUMPI PUSH0 PUSH0 REVERT JUMPDEST POP POP DUP1 CALLDATALOAD SWAP3 PUSH1 0x20 SWAP1 SWAP2 ADD CALLDATALOAD SWAP2 POP JUMP JUMPDEST PUSH4 0x4E487B71 PUSH1 0xE0 SHL PUSH0 MSTORE PUSH1 0x41 PUSH1 0x4 MSTORE PUSH1 0x24 PUSH0 REVERT JUMPDEST PUSH0 PUSH0 PUSH0 PUSH1 0x60 DUP5 DUP7 SUB SLT ISZERO PUSH2 0x1893 JUMPI PUSH0 PUSH0 REVERT JUMPDEST DUP4 CALLDATALOAD PUSH8 0xFFFFFFFFFFFFFFFF DUP2 GT ISZERO PUSH2 0x18A9 JUMPI PUSH0 PUSH0 REVERT JUMPDEST DUP5 ADD PUSH1 0x1F DUP2 ADD DUP7 SGT PUSH2 0x18B9 JUMPI PUSH0 PUSH0 REVERT JUMPDEST DUP1 CALLDATALOAD PUSH8 0xFFFFFFFFFFFFFFFF DUP2 GT ISZERO PUSH2 0x18D3 JUMPI PUSH2 0x18D3 PUSH2 0x186D JUMP JUMPDEST PUSH1 0x40 MLOAD PUSH1 0x1F DUP3 ADD PUSH1 0x1F NOT SWAP1 DUP2 AND PUSH1 0x3F ADD AND DUP2 ADD PUSH8 0xFFFFFFFFFFFFFFFF DUP2 GT DUP3 DUP3 LT OR ISZERO PUSH2 0x1902 JUMPI PUSH2 0x1902 PUSH2 0x186D JUMP JUMPDEST PUSH1 0x40 MSTORE DUP2 DUP2 MSTORE DUP3 DUP3 ADD PUSH1 0x20 ADD DUP9 LT ISZERO PUSH2 0x1919 JUMPI PUSH0 PUSH0 REVERT JUMPDEST DUP2 PUSH1 0x20 DUP5 ADD PUSH1 0x20 DUP4 ADD CALLDATACOPY PUSH0 PUSH1 0x20 SWAP3 DUP3 ADD DUP4 ADD MSTORE SWAP5 POP DUP6 ADD CALLDATALOAD SWAP3 POP PUSH2 0x1941 SWAP1 POP PUSH1 0x40 DUP6 ADD PUSH2 0x180D JUMP JUMPDEST SWAP1 POP SWAP3 POP SWAP3 POP SWAP3 JUMP JUMPDEST PUSH0 PUSH1 0x20 DUP3 DUP5 SUB SLT ISZERO PUSH2 0x195A JUMPI PUSH0 PUSH0 REVERT JUMPDEST PUSH2 0x156A DUP3 PUSH2 0x180D JUMP JUMPDEST PUSH1 0x1 DUP2 DUP2 SHR SWAP1 DUP3 AND DUP1 PUSH2 0x1977 JUMPI PUSH1 0x7F DUP3 AND SWAP2 POP JUMPDEST PUSH1 0x20 DUP3 LT DUP2 SUB PUSH2 0x1995 JUMPI PUSH4 0x4E487B71 PUSH1 0xE0 SHL PUSH0 MSTORE PUSH1 0x22 PUSH1 0x4 MSTORE PUSH1 0x24 PUSH0 REVERT JUMPDEST POP SWAP2 SWAP1 POP JUMP JUMPDEST PUSH4 0x4E487B71 PUSH1 0xE0 SHL PUSH0 MSTORE PUSH1 0x11 PUSH1 0x4 MSTORE PUSH1 0x24 PUSH0 REVERT JUMPDEST DUP2 DUP2 SUB DUP2 DUP2 GT ISZERO PUSH2 0x156D JUMPI PUSH2 0x156D PUSH2 0x199B JUMP JUMPDEST DUP1 DUP3 MUL DUP2 ISZERO DUP3 DUP3 DIV DUP5 EQ OR PUSH2 0x156D JUMPI PUSH2 0x156D PUSH2 0x199B JUMP JUMPDEST PUSH0 PUSH1 0x20 DUP3 DUP5 SUB SLT ISZERO PUSH2 0x19E9 JUMPI PUSH0 PUSH0 REVERT JUMPDEST DUP2 MLOAD DUP1 ISZERO ISZERO DUP2 EQ PUSH2 0x19F8 JUMPI PUSH0 PUSH0 REVERT JUMPDEST SWAP4 SWAP3 POP POP POP JUMP JUMPDEST PUSH0 PUSH1 0x20 DUP3 DUP5 SUB SLT ISZERO PUSH2 0x1A0F JUMPI PUSH0 PUSH0 REVERT JUMPDEST POP MLOAD SWAP2 SWAP1 POP JUMP JUMPDEST DUP1 DUP3 ADD DUP1 DUP3 GT ISZERO PUSH2 0x156D JUMPI PUSH2 0x156D PUSH2 0x199B JUMP JUMPDEST PUSH1 0x1 DUP2 JUMPDEST PUSH1 0x1 DUP5 GT ISZERO PUSH2 0x1A64 JUMPI DUP1 DUP6 DIV DUP2 GT ISZERO PUSH2 0x1A48 JUMPI PUSH2 0x1A48 PUSH2 0x199B JUMP JUMPDEST PUSH1 0x1 DUP5 AND ISZERO PUSH2 0x1A56 JUMPI SWAP1 DUP2 MUL SWAP1 JUMPDEST PUSH1 0x1 SWAP4 SWAP1 SWAP4 SHR SWAP3 DUP1 MUL PUSH2 0x1A2D JUMP JUMPDEST SWAP4 POP SWAP4 SWAP2 POP POP JUMP JUMPDEST PUSH0 DUP3 PUSH2 0x1A7A JUMPI POP PUSH1 0x1 PUSH2 0x156D JUMP JUMPDEST DUP2 PUSH2 0x1A86 JUMPI POP PUSH0 PUSH2 0x156D JUMP JUMPDEST DUP2 PUSH1 0x1 DUP2 EQ PUSH2 0x1A9C JUMPI PUSH1 0x2 DUP2 EQ PUSH2 0x1AA6 JUMPI PUSH2 0x1AC2 JUMP JUMPDEST PUSH1 0x1 SWAP2 POP POP PUSH2 0x156D JUMP JUMPDEST PUSH1 0xFF DUP5 GT ISZERO PUSH2 0x1AB7 JUMPI PUSH2 0x1AB7 PUSH2 0x199B JUMP JUMPDEST POP POP PUSH1 0x1 DUP3 SHL PUSH2 0x156D JUMP JUMPDEST POP PUSH1 0x20 DUP4 LT PUSH2 0x133 DUP4 LT AND PUSH1 0x4E DUP5 LT PUSH1 0xB DUP5 LT AND OR ISZERO PUSH2 0x1AE5 JUMPI POP DUP2 DUP2 EXP PUSH2 0x156D JUMP JUMPDEST PUSH2 0x1AF1 PUSH0 NOT DUP5 DUP5 PUSH2 0x1A29 JUMP JUMPDEST DUP1 PUSH0 NOT DIV DUP3 GT ISZERO PUSH2 0x1B04 JUMPI PUSH2 0x1B04 PUSH2 0x199B JUMP JUMPDEST MUL SWAP4 SWAP3 POP POP POP JUMP JUMPDEST PUSH0 PUSH2 0x156A PUSH1 0xFF DUP5 AND DUP4 PUSH2 0x1A6C JUMP JUMPDEST PUSH0 PUSH1 0x1 DUP3 ADD PUSH2 0x1B2B JUMPI PUSH2 0x1B2B PUSH2 0x199B JUMP JUMPDEST POP PUSH1 0x1 ADD SWAP1 JUMP JUMPDEST PUSH1 0x1F DUP3 GT ISZERO PUSH2 0x7F6 JUMPI DUP1 PUSH0 MSTORE PUSH1 0x20 PUSH0 KECCAK256 PUSH1 0x1F DUP5 ADD PUSH1 0x5 SHR DUP2 ADD PUSH1 0x20 DUP6 LT ISZERO PUSH2 0x1B57 JUMPI POP DUP1 JUMPDEST PUSH1 0x1F DUP5 ADD PUSH1 0x5 SHR DUP3 ADD SWAP2 POP JUMPDEST DUP2 DUP2 LT ISZERO PUSH2 0x111D JUMPI PUSH0 DUP2 SSTORE PUSH1 0x1 ADD PUSH2 0x1B63 JUMP JUMPDEST DUP2 MLOAD PUSH8 0xFFFFFFFFFFFFFFFF DUP2 GT ISZERO PUSH2 0x1B90 JUMPI PUSH2 0x1B90 PUSH2 0x186D JUMP JUMPDEST PUSH2 0x1BA4 DUP2 PUSH2 0x1B9E DUP5 SLOAD PUSH2 0x1963 JUMP JUMPDEST DUP5 PUSH2 0x1B32 JUMP JUMPDEST PUSH1 0x20 PUSH1 0x1F DUP3 GT PUSH1 0x1 DUP2 EQ PUSH2 0x1BD6 JUMPI PUSH0 DUP4 ISZERO PUSH2 0x1BBF JUMPI POP DUP5 DUP3 ADD MLOAD JUMPDEST PUSH0 NOT PUSH1 0x3 DUP6 SWAP1 SHL SHR NOT AND PUSH1 0x1 DUP5 SWAP1 SHL OR DUP5 SSTORE PUSH2 0x111D JUMP JUMPDEST PUSH0 DUP5 DUP2 MSTORE PUSH1 0x20 DUP2 KECCAK256 PUSH1 0x1F NOT DUP6 AND SWAP2 JUMPDEST DUP3 DUP2 LT ISZERO PUSH2 0x1C05 JUMPI DUP8 DUP6 ADD MLOAD DUP3 SSTORE PUSH1 0x20 SWAP5 DUP6 ADD SWAP5 PUSH1 0x1 SWAP1 SWAP3 ADD SWAP2 ADD PUSH2 0x1BE5 JUMP JUMPDEST POP DUP5 DUP3 LT ISZERO PUSH2 0x1C22 JUMPI DUP7 DUP5 ADD MLOAD PUSH0 NOT PUSH1 0x3 DUP8 SWAP1 SHL PUSH1 0xF8 AND SHR NOT AND DUP2 SSTORE JUMPDEST POP POP POP POP PUSH1 0x1 SWAP1 DUP2 SHL ADD SWAP1 SSTORE POP JUMP JUMPDEST PUSH1 0x40 DUP2 MSTORE PUSH0 PUSH2 0x1C43 PUSH1 0x40 DUP4 ADD DUP6 PUSH2 0x174E JUMP JUMPDEST SWAP1 POP DUP3 PUSH1 0x20 DUP4 ADD MSTORE SWAP4 SWAP3 POP POP POP JUMP JUMPDEST PUSH0 DUP3 MLOAD DUP1 PUSH1 0x20 DUP6 ADD DUP5 MCOPY PUSH0 SWAP3 ADD SWAP2 DUP3 MSTORE POP SWAP2 SWAP1 POP JUMP JUMPDEST PUSH0 DUP2 PUSH2 0x1C76 JUMPI PUSH2 0x1C76 PUSH2 0x199B JUMP JUMPDEST POP PUSH0 NOT ADD SWAP1 JUMP JUMPDEST PUSH0 DUP3 PUSH2 0x1C97 JUMPI PUSH4 0x4E487B71 PUSH1 0xE0 SHL PUSH0 MSTORE PUSH1 0x12 PUSH1 0x4 MSTORE PUSH1 0x24 PUSH0 REVERT JUMPDEST POP DIV SWAP1 JUMP JUMPDEST PUSH4 0x4E487B71 PUSH1 0xE0 SHL PUSH0 MSTORE PUSH1 0x32 PUSH1 0x4 MSTORE PUSH1 0x24 PUSH0 REVERT INVALID LOG2 PUSH5 0x6970667358 0x22 SLT KECCAK256 ISZERO RETURNDATACOPY ISZERO PUSH11 0x4198AA436609A5C44477C2 PUSH20 0xDEAB97C8ED2F2766DBEE7AF33041D30F64736F6C PUSH4 0x4300081F STOP CALLER PUSH1 0x80 PUSH1 0x40 MSTORE CALLVALUE DUP1 ISZERO PUSH2 0xF JUMPI PUSH0 PUSH0 REVERT JUMPDEST POP PUSH1 0x40 MLOAD PUSH2 0xB2D CODESIZE SUB DUP1 PUSH2 0xB2D DUP4 CODECOPY DUP2 ADD PUSH1 0x40 DUP2 SWAP1 MSTORE PUSH2 0x2E SWAP2 PUSH2 0x103 JUMP JUMPDEST DUP2 DUP2 PUSH1 0x3 PUSH2 0x3C DUP4 DUP3 PUSH2 0x1EC JUMP JUMPDEST POP PUSH1 0x4 PUSH2 0x49 DUP3 DUP3 PUSH2 0x1EC JUMP JUMPDEST POP POP PUSH1 0x5 DUP1 SLOAD PUSH1 0x1 PUSH1 0x1 PUSH1 0xA0 SHL SUB NOT AND CALLER OR SWAP1 SSTORE POP PUSH2 0x2A6 SWAP2 POP POP JUMP JUMPDEST PUSH4 0x4E487B71 PUSH1 0xE0 SHL PUSH0 MSTORE PUSH1 0x41 PUSH1 0x4 MSTORE PUSH1 0x24 PUSH0 REVERT JUMPDEST PUSH0 DUP3 PUSH1 0x1F DUP4 ADD SLT PUSH2 0x89 JUMPI PUSH0 PUSH0 REVERT JUMPDEST DUP2 MLOAD PUSH1 0x1 PUSH1 0x1 PUSH1 0x40 SHL SUB DUP2 GT ISZERO PUSH2 0xA2 JUMPI PUSH2 0xA2 PUSH2 0x66 JUMP JUMPDEST PUSH1 0x40 MLOAD PUSH1 0x1F DUP3 ADD PUSH1 0x1F NOT SWAP1 DUP2 AND PUSH1 0x3F ADD AND DUP2 ADD PUSH1 0x1 PUSH1 0x1 PUSH1 0x40 SHL SUB DUP2 GT DUP3 DUP3 LT OR ISZERO PUSH2 0xD0 JUMPI PUSH2 0xD0 PUSH2 0x66 JUMP JUMPDEST PUSH1 0x40 MSTORE DUP2 DUP2 MSTORE DUP4 DUP3 ADD PUSH1 0x20 ADD DUP6 LT ISZERO PUSH2 0xE7 JUMPI PUSH0 PUSH0 REVERT JUMPDEST DUP2 PUSH1 0x20 DUP6 ADD PUSH1 0x20 DUP4 ADD MCOPY PUSH0 SWAP2 DUP2 ADD PUSH1 0x20 ADD SWAP2 SWAP1 SWAP2 MSTORE SWAP4 SWAP3 POP POP POP JUMP JUMPDEST PUSH0 PUSH0 PUSH1 0x40 DUP4 DUP6 SUB SLT ISZERO PUSH2 0x114 JUMPI PUSH0 PUSH0 REVERT JUMPDEST DUP3 MLOAD PUSH1 0x1 PUSH1 0x1 PUSH1 0x40 SHL SUB DUP2 GT ISZERO PUSH2 0x129 JUMPI PUSH0 PUSH0 REVERT JUMPDEST PUSH2 0x135 DUP6 DUP3 DUP7 ADD PUSH2 0x7A JUMP JUMPDEST PUSH1 0x20 DUP6 ADD MLOAD SWAP1 SWAP4 POP SWAP1 POP PUSH1 0x1 PUSH1 0x1 PUSH1 0x40 SHL SUB DUP2 GT ISZERO PUSH2 0x152 JUMPI PUSH0 PUSH0 REVERT JUMPDEST PUSH2 0x15E DUP6 DUP3 DUP7 ADD PUSH2 0x7A JUMP JUMPDEST SWAP2 POP POP SWAP3 POP SWAP3 SWAP1 POP JUMP JUMPDEST PUSH1 0x1 DUP2 DUP2 SHR SWAP1 DUP3 AND DUP1 PUSH2 0x17C JUMPI PUSH1 0x7F DUP3 AND SWAP2 POP JUMPDEST PUSH1 0x20 DUP3 LT DUP2 SUB PUSH2 0x19A JUMPI PUSH4 0x4E487B71 PUSH1 0xE0 SHL PUSH0 MSTORE PUSH1 0x22 PUSH1 0x4 MSTORE PUSH1 0x24 PUSH0 REVERT JUMPDEST POP SWAP2 SWAP1 POP JUMP JUMPDEST PUSH1 0x1F DUP3 GT ISZERO PUSH2 0x1E7 JUMPI DUP1 PUSH0 MSTORE PUSH1 0x20 PUSH0 KECCAK256 PUSH1 0x1F DUP5 ADD PUSH1 0x5 SHR DUP2 ADD PUSH1 0x20 DUP6 LT ISZERO PUSH2 0x1C5 JUMPI POP DUP1 JUMPDEST PUSH1 0x1F DUP5 ADD PUSH1 0x5 SHR DUP3 ADD SWAP2 POP JUMPDEST DUP2 DUP2 LT ISZERO PUSH2 0x1E4 JUMPI PUSH0 DUP2 SSTORE PUSH1 0x1 ADD PUSH2 0x1D1 JUMP JUMPDEST POP POP JUMPDEST POP POP POP JUMP JUMPDEST DUP2 MLOAD PUSH1 0x1 PUSH1 0x1 PUSH1 0x40 SHL SUB DUP2 GT ISZERO PUSH2 0x205 JUMPI PUSH2 0x205 PUSH2 0x66 JUMP JUMPDEST PUSH2 0x219 DUP2 PUSH2 0x213 DUP5 SLOAD PUSH2 0x168 JUMP JUMPDEST DUP5 PUSH2 0x1A0 JUMP JUMPDEST PUSH1 0x20 PUSH1 0x1F DUP3 GT PUSH1 0x1 DUP2 EQ PUSH2 0x24B JUMPI PUSH0 DUP4 ISZERO PUSH2 0x234 JUMPI POP DUP5 DUP3 ADD MLOAD JUMPDEST PUSH0 NOT PUSH1 0x3 DUP6 SWAP1 SHL SHR NOT AND PUSH1 0x1 DUP5 SWAP1 SHL OR DUP5 SSTORE PUSH2 0x1E4 JUMP JUMPDEST PUSH0 DUP5 DUP2 MSTORE PUSH1 0x20 DUP2 KECCAK256 PUSH1 0x1F NOT DUP6 AND SWAP2 JUMPDEST DUP3 DUP2 LT ISZERO PUSH2 0x27A JUMPI DUP8 DUP6 ADD MLOAD DUP3 SSTORE PUSH1 0x20 SWAP5 DUP6 ADD SWAP5 PUSH1 0x1 SWAP1 SWAP3 ADD SWAP2 ADD PUSH2 0x25A JUMP JUMPDEST POP DUP5 DUP3 LT ISZERO PUSH2 0x297 JUMPI DUP7 DUP5 ADD MLOAD PUSH0 NOT PUSH1 0x3 DUP8 SWAP1 SHL PUSH1 0xF8 AND SHR NOT AND DUP2 SSTORE JUMPDEST POP POP POP POP PUSH1 0x1 SWAP1 DUP2 SHL ADD SWAP1 SSTORE POP JUMP JUMPDEST PUSH2 0x87A DUP1 PUSH2 0x2B3 PUSH0 CODECOPY PUSH0 RETURN INVALID PUSH1 0x80 PUSH1 0x40 MSTORE CALLVALUE DUP1 ISZERO PUSH2 0xF JUMPI PUSH0 PUSH0 REVERT JUMPDEST POP PUSH1 0x4 CALLDATASIZE LT PUSH2 0xB1 JUMPI PUSH0 CALLDATALOAD PUSH1 0xE0 SHR DUP1 PUSH4 0x70A08231 GT PUSH2 0x6E JUMPI DUP1 PUSH4 0x70A08231 EQ PUSH2 0x13F JUMPI DUP1 PUSH4 0x95D89B41 EQ PUSH2 0x167 JUMPI DUP1 PUSH4 0x9DC29FAC EQ PUSH2 0x16F JUMPI DUP1 PUSH4 0xA9059CBB EQ PUSH2 0x182 JUMPI DUP1 PUSH4 0xC1FC006A EQ PUSH2 0x195 JUMPI DUP1 PUSH4 0xDD62ED3E EQ PUSH2 0x1C0 JUMPI PUSH0 PUSH0 REVERT JUMPDEST DUP1 PUSH4 0x6FDDE03 EQ PUSH2 0xB5 JUMPI DUP1 PUSH4 0x95EA7B3 EQ PUSH2 0xD3 JUMPI DUP1 PUSH4 0x18160DDD EQ PUSH2 0xF6 JUMPI DUP1 PUSH4 0x23B872DD EQ PUSH2 0x108 JUMPI DUP1 PUSH4 0x313CE567 EQ PUSH2 0x11B JUMPI DUP1 PUSH4 0x40C10F19 EQ PUSH2 0x12A JUMPI JUMPDEST PUSH0 PUSH0 REVERT JUMPDEST PUSH2 0xBD PUSH2 0x1F8 JUMP JUMPDEST PUSH1 0x40 MLOAD PUSH2 0xCA SWAP2 SWAP1 PUSH2 0x6A0 JUMP JUMPDEST PUSH1 0x40 MLOAD DUP1 SWAP2 SUB SWAP1 RETURN JUMPDEST PUSH2 0xE6 PUSH2 0xE1 CALLDATASIZE PUSH1 0x4 PUSH2 0x6F0 JUMP JUMPDEST PUSH2 0x288 JUMP JUMPDEST PUSH1 0x40 MLOAD SWAP1 ISZERO ISZERO DUP2 MSTORE PUSH1 0x20 ADD PUSH2 0xCA JUMP JUMPDEST PUSH1 0x2 SLOAD JUMPDEST PUSH1 0x40 MLOAD SWAP1 DUP2 MSTORE PUSH1 0x20 ADD PUSH2 0xCA JUMP JUMPDEST PUSH2 0xE6 PUSH2 0x116 CALLDATASIZE PUSH1 0x4 PUSH2 0x718 JUMP JUMPDEST PUSH2 0x2A1 JUMP JUMPDEST PUSH1 0x40 MLOAD PUSH1 0x12 DUP2 MSTORE PUSH1 0x20 ADD PUSH2 0xCA JUMP JUMPDEST PUSH2 0x13D PUSH2 0x138 CALLDATASIZE PUSH1 0x4 PUSH2 0x6F0 JUMP JUMPDEST PUSH2 0x2C4 JUMP JUMPDEST STOP JUMPDEST PUSH2 0xFA PUSH2 0x14D CALLDATASIZE PUSH1 0x4 PUSH2 0x752 JUMP JUMPDEST PUSH1 0x1 PUSH1 0x1 PUSH1 0xA0 SHL SUB AND PUSH0 SWAP1 DUP2 MSTORE PUSH1 0x20 DUP2 SWAP1 MSTORE PUSH1 0x40 SWAP1 KECCAK256 SLOAD SWAP1 JUMP JUMPDEST PUSH2 0xBD PUSH2 0x305 JUMP JUMPDEST PUSH2 0x13D PUSH2 0x17D CALLDATASIZE PUSH1 0x4 PUSH2 0x6F0 JUMP JUMPDEST PUSH2 0x314 JUMP JUMPDEST PUSH2 0xE6 PUSH2 0x190 CALLDATASIZE PUSH1 0x4 PUSH2 0x6F0 JUMP JUMPDEST PUSH2 0x348 JUMP JUMPDEST PUSH1 0x5 SLOAD PUSH2 0x1A8 SWAP1 PUSH1 0x1 PUSH1 0x1 PUSH1 0xA0 SHL SUB AND DUP2 JUMP JUMPDEST PUSH1 0x40 MLOAD PUSH1 0x1 PUSH1 0x1 PUSH1 0xA0 SHL SUB SWAP1 SWAP2 AND DUP2 MSTORE PUSH1 0x20 ADD PUSH2 0xCA JUMP JUMPDEST PUSH2 0xFA PUSH2 0x1CE CALLDATASIZE PUSH1 0x4 PUSH2 0x772 JUMP JUMPDEST PUSH1 0x1 PUSH1 0x1 PUSH1 0xA0 SHL SUB SWAP2 DUP3 AND PUSH0 SWAP1 DUP2 MSTORE PUSH1 0x1 PUSH1 0x20 SWAP1 DUP2 MSTORE PUSH1 0x40 DUP1 DUP4 KECCAK256 SWAP4 SWAP1 SWAP5 AND DUP3 MSTORE SWAP2 SWAP1 SWAP2 MSTORE KECCAK256 SLOAD SWAP1 JUMP JUMPDEST PUSH1 0x60 PUSH1 0x3 DUP1 SLOAD PUSH2 0x207 SWAP1 PUSH2 0x7A3 JUMP JUMPDEST DUP1 PUSH1 0x1F ADD PUSH1 0x20 DUP1 SWAP2 DIV MUL PUSH1 0x20 ADD PUSH1 0x40 MLOAD SWAP1 DUP2 ADD PUSH1 0x40 MSTORE DUP1 SWAP3 SWAP2 SWAP1 DUP2 DUP2 MSTORE PUSH1 0x20 ADD DUP3 DUP1 SLOAD PUSH2 0x233 SWAP1 PUSH2 0x7A3 JUMP JUMPDEST DUP1 ISZERO PUSH2 0x27E JUMPI DUP1 PUSH1 0x1F LT PUSH2 0x255 JUMPI PUSH2 0x100 DUP1 DUP4 SLOAD DIV MUL DUP4 MSTORE SWAP2 PUSH1 0x20 ADD SWAP2 PUSH2 0x27E JUMP JUMPDEST DUP3 ADD SWAP2 SWAP1 PUSH0 MSTORE PUSH1 0x20 PUSH0 KECCAK256 SWAP1 JUMPDEST DUP2 SLOAD DUP2 MSTORE SWAP1 PUSH1 0x1 ADD SWAP1 PUSH1 0x20 ADD DUP1 DUP4 GT PUSH2 0x261 JUMPI DUP3 SWAP1 SUB PUSH1 0x1F AND DUP3 ADD SWAP2 JUMPDEST POP POP POP POP POP SWAP1 POP SWAP1 JUMP JUMPDEST PUSH0 CALLER PUSH2 0x295 DUP2 DUP6 DUP6 PUSH2 0x355 JUMP JUMPDEST PUSH1 0x1 SWAP2 POP POP JUMPDEST SWAP3 SWAP2 POP POP JUMP JUMPDEST PUSH0 CALLER PUSH2 0x2AE DUP6 DUP3 DUP6 PUSH2 0x367 JUMP JUMPDEST PUSH2 0x2B9 DUP6 DUP6 DUP6 PUSH2 0x3E3 JUMP JUMPDEST POP PUSH1 0x1 SWAP5 SWAP4 POP POP POP POP JUMP JUMPDEST PUSH1 0x5 SLOAD PUSH1 0x1 PUSH1 0x1 PUSH1 0xA0 SHL SUB AND CALLER EQ PUSH2 0x2F7 JUMPI PUSH1 0x40 MLOAD PUSH3 0x461BCD PUSH1 0xE5 SHL DUP2 MSTORE PUSH1 0x4 ADD PUSH2 0x2EE SWAP1 PUSH2 0x7DB JUMP JUMPDEST PUSH1 0x40 MLOAD DUP1 SWAP2 SUB SWAP1 REVERT JUMPDEST PUSH2 0x301 DUP3 DUP3 PUSH2 0x440 JUMP JUMPDEST POP POP JUMP JUMPDEST PUSH1 0x60 PUSH1 0x4 DUP1 SLOAD PUSH2 0x207 SWAP1 PUSH2 0x7A3 JUMP JUMPDEST PUSH1 0x5 SLOAD PUSH1 0x1 PUSH1 0x1 PUSH1 0xA0 SHL SUB AND CALLER EQ PUSH2 0x33E JUMPI PUSH1 0x40 MLOAD PUSH3 0x461BCD PUSH1 0xE5 SHL DUP2 MSTORE PUSH1 0x4 ADD PUSH2 0x2EE SWAP1 PUSH2 0x7DB JUMP JUMPDEST PUSH2 0x301 DUP3 DUP3 PUSH2 0x474 JUMP JUMPDEST PUSH0 CALLER PUSH2 0x295 DUP2 DUP6 DUP6 PUSH2 0x3E3 JUMP JUMPDEST PUSH2 0x362 DUP4 DUP4 DUP4 PUSH1 0x1 PUSH2 0x4A8 JUMP JUMPDEST POP POP POP JUMP JUMPDEST PUSH1 0x1 PUSH1 0x1 PUSH1 0xA0 SHL SUB DUP4 DUP2 AND PUSH0 SWAP1 DUP2 MSTORE PUSH1 0x1 PUSH1 0x20 SWAP1 DUP2 MSTORE PUSH1 0x40 DUP1 DUP4 KECCAK256 SWAP4 DUP7 AND DUP4 MSTORE SWAP3 SWAP1 MSTORE KECCAK256 SLOAD PUSH0 NOT DUP2 LT ISZERO PUSH2 0x3DD JUMPI DUP2 DUP2 LT ISZERO PUSH2 0x3CF JUMPI PUSH1 0x40 MLOAD PUSH4 0x7DC7A0D9 PUSH1 0xE1 SHL DUP2 MSTORE PUSH1 0x1 PUSH1 0x1 PUSH1 0xA0 SHL SUB DUP5 AND PUSH1 0x4 DUP3 ADD MSTORE PUSH1 0x24 DUP2 ADD DUP3 SWAP1 MSTORE PUSH1 0x44 DUP2 ADD DUP4 SWAP1 MSTORE PUSH1 0x64 ADD PUSH2 0x2EE JUMP JUMPDEST PUSH2 0x3DD DUP5 DUP5 DUP5 DUP5 SUB PUSH0 PUSH2 0x4A8 JUMP JUMPDEST POP POP POP POP JUMP JUMPDEST PUSH1 0x1 PUSH1 0x1 PUSH1 0xA0 SHL SUB DUP4 AND PUSH2 0x40C JUMPI PUSH1 0x40 MLOAD PUSH4 0x4B637E8F PUSH1 0xE1 SHL DUP2 MSTORE PUSH0 PUSH1 0x4 DUP3 ADD MSTORE PUSH1 0x24 ADD PUSH2 0x2EE JUMP JUMPDEST PUSH1 0x1 PUSH1 0x1 PUSH1 0xA0 SHL SUB DUP3 AND PUSH2 0x435 JUMPI PUSH1 0x40 MLOAD PUSH4 0xEC442F05 PUSH1 0xE0 SHL DUP2 MSTORE PUSH0 PUSH1 0x4 DUP3 ADD MSTORE PUSH1 0x24 ADD PUSH2 0x2EE JUMP JUMPDEST PUSH2 0x362 DUP4 DUP4 DUP4 PUSH2 0x57A JUMP JUMPDEST PUSH1 0x1 PUSH1 0x1 PUSH1 0xA0 SHL SUB DUP3 AND PUSH2 0x469 JUMPI PUSH1 0x40 MLOAD PUSH4 0xEC442F05 PUSH1 0xE0 SHL DUP2 MSTORE PUSH0 PUSH1 0x4 DUP3 ADD MSTORE PUSH1 0x24 ADD PUSH2 0x2EE JUMP JUMPDEST PUSH2 0x301 PUSH0 DUP4 DUP4 PUSH2 0x57A JUMP JUMPDEST PUSH1 0x1 PUSH1 0x1 PUSH1 0xA0 SHL SUB DUP3 AND PUSH2 0x49D JUMPI PUSH1 0x40 MLOAD PUSH4 0x4B637E8F PUSH1 0xE1 SHL DUP2 MSTORE PUSH0 PUSH1 0x4 DUP3 ADD MSTORE PUSH1 0x24 ADD PUSH2 0x2EE JUMP JUMPDEST PUSH2 0x301 DUP3 PUSH0 DUP4 PUSH2 0x57A JUMP JUMPDEST PUSH1 0x1 PUSH1 0x1 PUSH1 0xA0 SHL SUB DUP5 AND PUSH2 0x4D1 JUMPI PUSH1 0x40 MLOAD PUSH4 0xE602DF05 PUSH1 0xE0 SHL DUP2 MSTORE PUSH0 PUSH1 0x4 DUP3 ADD MSTORE PUSH1 0x24 ADD PUSH2 0x2EE JUMP JUMPDEST PUSH1 0x1 PUSH1 0x1 PUSH1 0xA0 SHL SUB DUP4 AND PUSH2 0x4FA JUMPI PUSH1 0x40 MLOAD PUSH4 0x4A1406B1 PUSH1 0xE1 SHL DUP2 MSTORE PUSH0 PUSH1 0x4 DUP3 ADD MSTORE PUSH1 0x24 ADD PUSH2 0x2EE JUMP JUMPDEST PUSH1 0x1 PUSH1 0x1 PUSH1 0xA0 SHL SUB DUP1 DUP6 AND PUSH0 SWAP1 DUP2 MSTORE PUSH1 0x1 PUSH1 0x20 SWAP1 DUP2 MSTORE PUSH1 0x40 DUP1 DUP4 KECCAK256 SWAP4 DUP8 AND DUP4 MSTORE SWAP3 SWAP1 MSTORE KECCAK256 DUP3 SWAP1 SSTORE DUP1 ISZERO PUSH2 0x3DD JUMPI DUP3 PUSH1 0x1 PUSH1 0x1 PUSH1 0xA0 SHL SUB AND DUP5 PUSH1 0x1 PUSH1 0x1 PUSH1 0xA0 SHL SUB AND PUSH32 0x8C5BE1E5EBEC7D5BD14F71427D1E84F3DD0314C0F7B2291E5B200AC8C7C3B925 DUP5 PUSH1 0x40 MLOAD PUSH2 0x56C SWAP2 DUP2 MSTORE PUSH1 0x20 ADD SWAP1 JUMP JUMPDEST PUSH1 0x40 MLOAD DUP1 SWAP2 SUB SWAP1 LOG3 POP POP POP POP JUMP JUMPDEST PUSH1 0x1 PUSH1 0x1 PUSH1 0xA0 SHL SUB DUP4 AND PUSH2 0x5A4 JUMPI DUP1 PUSH1 0x2 PUSH0 DUP3 DUP3 SLOAD PUSH2 0x599 SWAP2 SWAP1 PUSH2 0x825 JUMP JUMPDEST SWAP1 SWAP2 SSTORE POP PUSH2 0x614 SWAP1 POP JUMP JUMPDEST PUSH1 0x1 PUSH1 0x1 PUSH1 0xA0 SHL SUB DUP4 AND PUSH0 SWAP1 DUP2 MSTORE PUSH1 0x20 DUP2 SWAP1 MSTORE PUSH1 0x40 SWAP1 KECCAK256 SLOAD DUP2 DUP2 LT ISZERO PUSH2 0x5F6 JUMPI PUSH1 0x40 MLOAD PUSH4 0x391434E3 PUSH1 0xE2 SHL DUP2 MSTORE PUSH1 0x1 PUSH1 0x1 PUSH1 0xA0 SHL SUB DUP6 AND PUSH1 0x4 DUP3 ADD MSTORE PUSH1 0x24 DUP2 ADD DUP3 SWAP1 MSTORE PUSH1 0x44 DUP2 ADD DUP4 SWAP1 MSTORE PUSH1 0x64 ADD PUSH2 0x2EE JUMP JUMPDEST PUSH1 0x1 PUSH1 0x1 PUSH1 0xA0 SHL SUB DUP5 AND PUSH0 SWAP1 DUP2 MSTORE PUSH1 0x20 DUP2 SWAP1 MSTORE PUSH1 0x40 SWAP1 KECCAK256 SWAP1 DUP3 SWAP1 SUB SWAP1 SSTORE JUMPDEST PUSH1 0x1 PUSH1 0x1 PUSH1 0xA0 SHL SUB DUP3 AND PUSH2 0x630 JUMPI PUSH1 0x2 DUP1 SLOAD DUP3 SWAP1 SUB SWAP1 SSTORE PUSH2 0x64E JUMP JUMPDEST PUSH1 0x1 PUSH1 0x1 PUSH1 0xA0 SHL SUB DUP3 AND PUSH0 SWAP1 DUP2 MSTORE PUSH1 0x20 DUP2 SWAP1 MSTORE PUSH1 0x40 SWAP1 KECCAK256 DUP1 SLOAD DUP3 ADD SWAP1 SSTORE JUMPDEST DUP2 PUSH1 0x1 PUSH1 0x1 PUSH1 0xA0 SHL SUB AND DUP4 PUSH1 0x1 PUSH1 0x1 PUSH1 0xA0 SHL SUB AND PUSH32 0xDDF252AD1BE2C89B69C2B068FC378DAA952BA7F163C4A11628F55A4DF523B3EF DUP4 PUSH1 0x40 MLOAD PUSH2 0x693 SWAP2 DUP2 MSTORE PUSH1 0x20 ADD SWAP1 JUMP JUMPDEST PUSH1 0x40 MLOAD DUP1 SWAP2 SUB SWAP1 LOG3 POP POP POP JUMP JUMPDEST PUSH1 0x20 DUP2 MSTORE PUSH0 DUP3 MLOAD DUP1 PUSH1 0x20 DUP5 ADD MSTORE DUP1 PUSH1 0x20 DUP6 ADD PUSH1 0x40 DUP6 ADD MCOPY PUSH0 PUSH1 0x40 DUP3 DUP6 ADD ADD MSTORE PUSH1 0x40 PUSH1 0x1F NOT PUSH1 0x1F DUP4 ADD AND DUP5 ADD ADD SWAP2 POP POP SWAP3 SWAP2 POP POP JUMP JUMPDEST DUP1 CALLDATALOAD PUSH1 0x1 PUSH1 0x1 PUSH1 0xA0 SHL SUB DUP2 AND DUP2 EQ PUSH2 0x6EB JUMPI PUSH0 PUSH0 REVERT JUMPDEST SWAP2 SWAP1 POP JUMP JUMPDEST PUSH0 PUSH0 PUSH1 0x40 DUP4 DUP6 SUB SLT ISZERO PUSH2 0x701 JUMPI PUSH0 PUSH0 REVERT JUMPDEST PUSH2 0x70A DUP4 PUSH2 0x6D5 JUMP JUMPDEST SWAP5 PUSH1 0x20 SWAP4 SWAP1 SWAP4 ADD CALLDATALOAD SWAP4 POP POP POP JUMP JUMPDEST PUSH0 PUSH0 PUSH0 PUSH1 0x60 DUP5 DUP7 SUB SLT ISZERO PUSH2 0x72A JUMPI PUSH0 PUSH0 REVERT JUMPDEST PUSH2 0x733 DUP5 PUSH2 0x6D5 JUMP JUMPDEST SWAP3 POP PUSH2 0x741 PUSH1 0x20 DUP6 ADD PUSH2 0x6D5 JUMP JUMPDEST SWAP3 SWAP6 SWAP3 SWAP5 POP POP POP PUSH1 0x40 SWAP2 SWAP1 SWAP2 ADD CALLDATALOAD SWAP1 JUMP JUMPDEST PUSH0 PUSH1 0x20 DUP3 DUP5 SUB SLT ISZERO PUSH2 0x762 JUMPI PUSH0 PUSH0 REVERT JUMPDEST PUSH2 0x76B DUP3 PUSH2 0x6D5 JUMP JUMPDEST SWAP4 SWAP3 POP POP POP JUMP JUMPDEST PUSH0 PUSH0 PUSH1 0x40 DUP4 DUP6 SUB SLT ISZERO PUSH2 0x783 JUMPI PUSH0 PUSH0 REVERT JUMPDEST PUSH2 0x78C DUP4 PUSH2 0x6D5 JUMP JUMPDEST SWAP2 POP PUSH2 0x79A PUSH1 0x20 DUP5 ADD PUSH2 0x6D5 JUMP JUMPDEST SWAP1 POP SWAP3 POP SWAP3 SWAP1 POP JUMP JUMPDEST PUSH1 0x1 DUP2 DUP2 SHR SWAP1 DUP3 AND DUP1 PUSH2 0x7B7 JUMPI PUSH1 0x7F DUP3 AND SWAP2 POP JUMPDEST PUSH1 0x20 DUP3 LT DUP2 SUB PUSH2 0x7D5 JUMPI PUSH4 0x4E487B71 PUSH1 0xE0 SHL PUSH0 MSTORE PUSH1 0x22 PUSH1 0x4 MSTORE PUSH1 0x24 PUSH0 REVERT JUMPDEST POP SWAP2 SWAP1 POP JUMP JUMPDEST PUSH1 0x20 DUP1 DUP3 MSTORE PUSH1 0x2A SWAP1 DUP3 ADD MSTORE PUSH32 0x4E6F206175746F72697A61646F3A20736F6C6F20656C2073697374656D612064 PUSH1 0x40 DUP3 ADD MSTORE PUSH10 0x32903B37BA30B1B4B7B7 PUSH1 0xB1 SHL PUSH1 0x60 DUP3 ADD MSTORE PUSH1 0x80 ADD SWAP1 JUMP JUMPDEST DUP1 DUP3 ADD DUP1 DUP3 GT ISZERO PUSH2 0x29B JUMPI PUSH4 0x4E487B71 PUSH1 0xE0 SHL PUSH0 MSTORE PUSH1 0x11 PUSH1 0x4 MSTORE PUSH1 0x24 PUSH0 REVERT INVALID LOG2 PUSH5 0x6970667358 0x22 SLT KECCAK256 0xC8 0xAD EXTSTATICCALL 0xED PUSH6 0x1297E45261E9 0xE9 DUP5 DUP8 RJUMP 0x266C 0xCD PUSH22 0x226D91C9EB754095A73C67F3AF64736F6C634300081F STOP CALLER "
		},
		"gasEstimates": {
			"creation": {
				"codeDepositCost": "1479600",
				"executionCost": "infinite",
				"totalCost": "infinite"
			},
			"external": {
				"addParticipant()": "infinite",
				"addProposal(string,uint256,address)": "infinite",
				"buyTokens()": "infinite",
				"closeVoting()": "infinite",
				"getERC20()": "2342",
				"isParticipant(address)": "2577",
				"numParticipants()": "2384",
				"numPendingProposals()": "2360",
				"openVoting()": "51934",
				"owner()": "2358",
				"proposals(uint256)": "infinite",
				"sellTokens(uint256)": "infinite",
				"stake(uint256,uint256)": "infinite",
				"token()": "2424",
				"tokenPriceWei()": "2340",
				"totalBudget()": "2316",
				"userVotesInProposal(uint256,address)": "2681",
				"votingOpen()": "2376",
				"withdrawFromProposal(uint256,uint256)": "infinite"
			},
			"internal": {
				"_checkAndExecuteProposal(uint256)": "infinite",
				"_returnTokensToVoters(uint256)": "infinite"
			}
		},
		"methodIdentifiers": {
			"addParticipant()": "fffefd91",
			"addProposal(string,uint256,address)": "84f28239",
			"buyTokens()": "d0febe4c",
			"closeVoting()": "c631b292",
			"getERC20()": "4ece90a8",
			"isParticipant(address)": "929066f5",
			"numParticipants()": "4e76a846",
			"numPendingProposals()": "da52a95f",
			"openVoting()": "affc0670",
			"owner()": "8da5cb5b",
			"proposals(uint256)": "013cf08b",
			"sellTokens(uint256)": "6c11bcd3",
			"stake(uint256,uint256)": "7b0472f0",
			"token()": "fc0c546a",
			"tokenPriceWei()": "05d0f15b",
			"totalBudget()": "c78da39a",
			"userVotesInProposal(uint256,address)": "2e60338a",
			"votingOpen()": "a95824b4",
			"withdrawFromProposal(uint256,uint256)": "649c649c"
		}
	},
	"abi": [
		{
			"inputs": [
				{
					"internalType": "uint256",
					"name": "_tokenPriceWei",
					"type": "uint256"
				},
				{
					"internalType": "uint256",
					"name": "",
					"type": "uint256"
				}
			],
			"stateMutability": "nonpayable",
			"type": "constructor"
		},
		{
			"anonymous": false,
			"inputs": [
				{
					"indexed": true,
					"internalType": "address",
					"name": "participant",
					"type": "address"
				},
				{
					"indexed": false,
					"internalType": "uint256",
					"name": "tokensBought",
					"type": "uint256"
				}
			],
			"name": "ParticipantAdded",
			"type": "event"
		},
		{
			"anonymous": false,
			"inputs": [
				{
					"indexed": true,
					"internalType": "uint256",
					"name": "id",
					"type": "uint256"
				},
				{
					"indexed": false,
					"internalType": "uint256",
					"name": "fundsSent",
					"type": "uint256"
				}
			],
			"name": "ProposalApproved",
			"type": "event"
		},
		{
			"anonymous": false,
			"inputs": [
				{
					"indexed": true,
					"internalType": "uint256",
					"name": "id",
					"type": "uint256"
				},
				{
					"indexed": false,
					"internalType": "string",
					"name": "title",
					"type": "string"
				},
				{
					"indexed": false,
					"internalType": "uint256",
					"name": "budget",
					"type": "uint256"
				}
			],
			"name": "ProposalCreated",
			"type": "event"
		},
		{
			"anonymous": false,
			"inputs": [
				{
					"indexed": true,
					"internalType": "uint256",
					"name": "proposalId",
					"type": "uint256"
				},
				{
					"indexed": true,
					"internalType": "address",
					"name": "voter",
					"type": "address"
				},
				{
					"indexed": false,
					"internalType": "uint256",
					"name": "votes",
					"type": "uint256"
				},
				{
					"indexed": false,
					"internalType": "uint256",
					"name": "cost",
					"type": "uint256"
				}
			],
			"name": "VoteCast",
			"type": "event"
		},
		{
			"anonymous": false,
			"inputs": [
				{
					"indexed": false,
					"internalType": "uint256",
					"name": "initialBudget",
					"type": "uint256"
				}
			],
			"name": "VotingOpened",
			"type": "event"
		},
		{
			"inputs": [],
			"name": "addParticipant",
			"outputs": [],
			"stateMutability": "payable",
			"type": "function"
		},
		{
			"inputs": [
				{
					"internalType": "string",
					"name": "_title",
					"type": "string"
				},
				{
					"internalType": "uint256",
					"name": "_budget",
					"type": "uint256"
				},
				{
					"internalType": "address",
					"name": "_exec",
					"type": "address"
				}
			],
			"name": "addProposal",
			"outputs": [
				{
					"internalType": "uint256",
					"name": "",
					"type": "uint256"
				}
			],
			"stateMutability": "nonpayable",
			"type": "function"
		},
		{
			"inputs": [],
			"name": "buyTokens",
			"outputs": [],
			"stateMutability": "payable",
			"type": "function"
		},
		{
			"inputs": [],
			"name": "closeVoting",
			"outputs": [],
			"stateMutability": "nonpayable",
			"type": "function"
		},
		{
			"inputs": [],
			"name": "getERC20",
			"outputs": [
				{
					"internalType": "address",
					"name": "",
					"type": "address"
				}
			],
			"stateMutability": "view",
			"type": "function"
		},
		{
			"inputs": [
				{
					"internalType": "address",
					"name": "",
					"type": "address"
				}
			],
			"name": "isParticipant",
			"outputs": [
				{
					"internalType": "bool",
					"name": "",
					"type": "bool"
				}
			],
			"stateMutability": "view",
			"type": "function"
		},
		{
			"inputs": [],
			"name": "numParticipants",
			"outputs": [
				{
					"internalType": "uint256",
					"name": "",
					"type": "uint256"
				}
			],
			"stateMutability": "view",
			"type": "function"
		},
		{
			"inputs": [],
			"name": "numPendingProposals",
			"outputs": [
				{
					"internalType": "uint256",
					"name": "",
					"type": "uint256"
				}
			],
			"stateMutability": "view",
			"type": "function"
		},
		{
			"inputs": [],
			"name": "openVoting",
			"outputs": [],
			"stateMutability": "payable",
			"type": "function"
		},
		{
			"inputs": [],
			"name": "owner",
			"outputs": [
				{
					"internalType": "address",
					"name": "",
					"type": "address"
				}
			],
			"stateMutability": "view",
			"type": "function"
		},
		{
			"inputs": [
				{
					"internalType": "uint256",
					"name": "",
					"type": "uint256"
				}
			],
			"name": "proposals",
			"outputs": [
				{
					"internalType": "string",
					"name": "title",
					"type": "string"
				},
				{
					"internalType": "uint256",
					"name": "requiredBudget",
					"type": "uint256"
				},
				{
					"internalType": "address",
					"name": "executableContract",
					"type": "address"
				},
				{
					"internalType": "enum QuadraticVoting.ProposalStatus",
					"name": "status",
					"type": "uint8"
				},
				{
					"internalType": "uint256",
					"name": "totalVotes",
					"type": "uint256"
				},
				{
					"internalType": "uint256",
					"name": "totalTokensStaked",
					"type": "uint256"
				},
				{
					"internalType": "address",
					"name": "creator",
					"type": "address"
				},
				{
					"internalType": "bool",
					"name": "isSignaling",
					"type": "bool"
				}
			],
			"stateMutability": "view",
			"type": "function"
		},
		{
			"inputs": [
				{
					"internalType": "uint256",
					"name": "_amount",
					"type": "uint256"
				}
			],
			"name": "sellTokens",
			"outputs": [],
			"stateMutability": "nonpayable",
			"type": "function"
		},
		{
			"inputs": [
				{
					"internalType": "uint256",
					"name": "_propId",
					"type": "uint256"
				},
				{
					"internalType": "uint256",
					"name": "_numVotes",
					"type": "uint256"
				}
			],
			"name": "stake",
			"outputs": [],
			"stateMutability": "nonpayable",
			"type": "function"
		},
		{
			"inputs": [],
			"name": "token",
			"outputs": [
				{
					"internalType": "contract GovernanceToken",
					"name": "",
					"type": "address"
				}
			],
			"stateMutability": "view",
			"type": "function"
		},
		{
			"inputs": [],
			"name": "tokenPriceWei",
			"outputs": [
				{
					"internalType": "uint256",
					"name": "",
					"type": "uint256"
				}
			],
			"stateMutability": "view",
			"type": "function"
		},
		{
			"inputs": [],
			"name": "totalBudget",
			"outputs": [
				{
					"internalType": "uint256",
					"name": "",
					"type": "uint256"
				}
			],
			"stateMutability": "view",
			"type": "function"
		},
		{
			"inputs": [
				{
					"internalType": "uint256",
					"name": "",
					"type": "uint256"
				},
				{
					"internalType": "address",
					"name": "",
					"type": "address"
				}
			],
			"name": "userVotesInProposal",
			"outputs": [
				{
					"internalType": "uint256",
					"name": "",
					"type": "uint256"
				}
			],
			"stateMutability": "view",
			"type": "function"
		},
		{
			"inputs": [],
			"name": "votingOpen",
			"outputs": [
				{
					"internalType": "bool",
					"name": "",
					"type": "bool"
				}
			],
			"stateMutability": "view",
			"type": "function"
		},
		{
			"inputs": [
				{
					"internalType": "uint256",
					"name": "_propId",
					"type": "uint256"
				},
				{
					"internalType": "uint256",
					"name": "_numVotes",
					"type": "uint256"
				}
			],
			"name": "withdrawFromProposal",
			"outputs": [],
			"stateMutability": "nonpayable",
			"type": "function"
		}
	]
}